:020000040800F2
:1000000048070020C9000008951300082B120008BB
:1000100000000000000000000000000000000000E0
:10002000000000000000000000000000B113000804
:100030000000000000000000AF13000809140008D1
:10004000DB00000800000000DB000008DB00000807
:10005000DB000008DB000008DB000008DB00000814
:1000600000000000DB000008DB000008DB000008E7
:10007000DB000008DB000008DB00000800000000D7
:10008000DB0000080000000000000000DB000008AA
:1000900000000000DB000008DB000008DB000008B7
:1000A00000000000DB00000800000000551A0008F6
:1000B0000448854600F098F800480047E91C00080D
:1000C000C046C0464807002004488047044800470F
:1000D000FEE7FEE7FEE7FEE7FEE7FEE77514000831
:1000E000B100000830B50B46014600202022012453
:1000F00009E00D46D5409D4205D31D469540491B5C
:100100002546954040191546521E002DF1DC30BDA4
:10011000F0B51FB40646002082B005464024019188
:1001200000901BE0019922460F46304600F020F86F
:10013000049A059B801A994110D31046194622460D
:1001400000F042F8361A8F41019722460120002123
:10015000009F00F039F838184D4100902046641E89
:100160000028DFDC019B00982946324607B0F0BD2D
:1001700010B5202A04DB0846203AD040002110BDEB
:100180000B46D340D0402024A21A91400843194680
:1001900010BDD2B201E00270401C491EFBD2704774
:1001A0000022F6E710B513460A4604461946FFF743
:1001B000F0FF204610BD03460A780270401C491C1F
:1001C000002AF9D11846704710B5202A04DB0146F1
:1001D000203A9140002010BD914020239C1A0346F4
:1001E000E3401943904010BD064C0125064E05E042
:1001F000E36807CC2B430C3C98471034B442F7D348
:10020000FFF75AFF682100088821000810B5040094
:1002100004D0034801F004F8641EFAD110BD0000B8
:10022000CC02002010B50446092001228021C0061E
:1002300000F029F9204601F015FC01F017F86420C0
:10024000FFF7E4FF10BD10B5012906D0022903D144
:10025000C030C0B201F01CF810BD8030F9E730B4F6
:10026000014620314A780023022A05D00422826305
:100270000B7030BC01207047026814680E25AC4337
:100280001460026814686408640014600125046C3A
:100290002A46C06BA24042604D700B7030BC0020FB
:1002A000704770B50024014620314A78022A03D0F5
:1002B00004218163012416E0026813680E25AB4314
:1002C0001360026813685B085B0013600125036C10
:1002D0002A469A40C36B5A604D7000220A70416BE7
:1002E000002900D08847204670BD000070B5044644
:1002F00000F0D0F80546601C02D0044800782418AD
:1003000000F0C8F8401BA042FAD370BD20000020C6
:10031000F8B500220B68002B70D001270B689740BE
:100320003B40002B6BD04C68012C05D0022C03D035
:10033000112C01D0122C10D1856854000326A64040
:10034000B543CE68A6402E4386604468BC430D7911
:10035000ED06ED0F954025434560C5685600032422
:10036000B440A646A5438F68B7402F43C7604C688A
:10037000022C01D0122C0ED1D408A4002418256A16
:10038000A4465707FC0E0F27A740BD430F69A7409F
:100390002F436446276204687546AC430D79AD0768
:1003A000AD0FB540254305604C68E40049D5284CA5
:1003B000A56901263543A561A469344000949508D8
:1003C000244CAD002F19BD689407240F0F26A640BA
:1003D000B5430926F606B04201D1002611E01E4EB3
:1003E000B04201D101260CE01C4EB04201D10226E0
:1003F00007E01B4EB04203D1032602E026E020E0D6
:100400000526A6402E43BE60164D2C689C434E68C0
:10041000F60300D51C432C606C689C434E68B60301
:1004200000D51C436C60AC689C434E68F60200D556
:100430001C43AC60EC689C434E68B60200D51C437C
:10044000EC60521C0B68D34000D066E7F8BD00009A
:10045000001002400000014000040048000800486D
:10046000000C0048000401400069084201D001204E
:10047000704700207047426913460B401B049143AC
:100480000B4383617047002A01D08161704781620C
:10049000704700000148806870470000200000207D
:1004A0000248816802788918816070472000002026
:1004B00010B506480168102211430160002000F0C9
:1004C00007F800F029F8002010BD000000200240CD
:1004D00070B504460E4D7D202978C000FFF702FE5E
:1004E00001460C480068FFF7FDFD00F015FC0028F0
:1004F00001D0012070BD042C07D200222146501EDD
:1005000000F02AF86C60002070BD012070BD000072
:10051000200000202C00002008B508488169012235
:1005200011438161816911400091C26901040A434C
:10053000C261C0690840009008BD00000010024080
:10054000002805DBC106C90E01208840014908606A
:100550007047000000E100E08207D30EFF229A40BE
:100560008907090E9940002808DB830809489B0089
:100570001818036893430B43036070470007000F8C
:100580000838830804489B001818C36993430B4339
:10059000C361704700E400E000ED00E0F8B50446F8
:1005A00020683A4EC0035CD50025F069C00007D42E
:1005B000F06931040843F061F069084000900125BA
:1005C00033480168C90517D40068FF210131084389
:1005D0002F490860FFF75EFF07462D480068C005F9
:1005E0000AD4FFF757FFC01B642801D90320F8BDC8
:1005F00027480068C005F4D5306A03210902084085
:10060000002821D062680A4082421DD0306A8843A7
:10061000326A012109040A433262326A8A43326231
:100620003062C00710D0FFF735FF0746306A8007F9
:100630000AD4FFF72FFFC11B1648814201D90320BE
:10064000F8BD306A8007F4D5306A03210902884377
:10065000616808433062012D03D1F069290788439E
:10066000F0612078C00705D0306BA1688008800059
:10067000084330632078800605D5306B102188430D
:10068000E168084330630020F8BD0000001002401C
:100690000070004088130000F8B504460D46002C99
:1006A00012D043480068C007C00FA8420ED240488D
:1006B000016849084900294301600068C007C00F6C
:1006C000A84203D00120F8BD0120F8BD2068394EB2
:1006D00081070CD5400704D570680721090208433B
:1006E00070607068F0218843A168084370602078CA
:1006F000C00731D06068012806D0022809D03168CF
:1007000089070BD40120F8BD3168890306D4012084
:10071000F8BD3168890101D40120F8BD71688908EC
:10072000890001437160FFF7B5FE07467168626892
:100730000C200140920091420ED0FFF7ABFEC11B8E
:100740001D48814201D90320F8BD70680C21084082
:10075000616889008842F0D115480168C907C90F4E
:10076000A9420BD901684908490029430160006882
:10077000C007C00FA84201D00120F8BD2078400773
:1007800006D57068072109028843E1680843706054
:1007900000F02EF87168094A0906090F515CC8403B
:1007A000074908600020FFF793FE0020F8BD000015
:1007B000002002400010024088130000C8200008FA
:1007C0002C00002001480068704700002C00002029
:1007D00000B5FFF7F7FF04494968044A4905490F86
:1007E000515CC84000BD000000100240D820000845
:1007F00030B589B01BA0436802688168C068059362
:100800000492069107901BA0836842680168C06843
:1008100002930192009103901A4A50680C21014002
:10082000194C04291AD0082918D18102090F04ABE8
:100830005D5CD16A6A460907090F525CC00308D59E
:10084000002320461946FFF763FC294601F076F99C
:1008500003E028460D4901F071F90446204609B02D
:1008600030BD000002030405060708090A0B0C0D41
:100870000E0F10100102030405060708090A0B0CED
:100880000D0E0F100010024000127A0000093D000A
:10089000F0B583B00446002C0ED02078FE4DC00782
:1008A00067D068680007800F01280BD068680007D0
:1008B000800F022803D00EE0012003B0F0BD68686D
:1008C000C00308D52868800353D56068002850D13C
:1008D000012003B0F0BD606801281DD0012189040A
:1008E00000281FD0052826D02A68881082432A6055
:1008F0002868884328606068002829D0FFF7CAFD6F
:1009000006462868800334D4FFF7C4FD801B6428A2
:100910001AD9032003B0F0BD286801210904084357
:100920002860E8E7286801221204904328602868BC
:1009300088432860DFE72868084328602868012189
:10094000090408432860D6E728688003DCD510E056
:10095000FFF7A0FD0646286880030AD5FFF79AFD39
:10096000801B642802D9032003B0F0BD28688003EF
:10097000F4D42078800751D568680007800F07D02D
:1009800068680007800F022813D16868C00310D47C
:100990002868800705D5E068012802D0012003B04F
:1009A000F0BD2868F82188432169C9000843286000
:1009B00034E0E06800281CD0286801210843286042
:1009C000FFF768FD0646286880070AD4FFF762FD36
:1009D000801B022802D9032003B0F0BD28688007DD
:1009E000F4D52868F82188432169C90008432860A4
:1009F00014E02868400840002860FFF74BFD0646D9
:100A0000286880070AD5FFF745FD801B022802D918
:100A1000032003B0F0BD28688007F4D420780007D5
:100A20002DD5E069002815D0686A01210843686265
:100A3000FFF730FD0646686A800720D4FFF72AFDDD
:100A4000801B022802D9032003B0F0BD686A80072A
:100A5000F4D514E0686A400840006862FFF71AFDA8
:100A60000646686A80070AD5FFF714FD801B022836
:100A700002D9032003B0F0BD686A8007F4D420785F
:100A80000426400700287DDA0027E869C00007D463
:100A9000E869B1060843E861E86908400190012768
:100AA0007E480168C90519D40068FF210131084357
:100AB0007A490860FFF7EEFC029078480068C005AC
:100AC0000CD4FFF7E7FC0299401A642802D90320EE
:100AD00003B0F0BD71480068C005F2D5A0680128D8
:100AE0001DD0002820D0052826D0286A40084000C4
:100AF0002862286AB0432862A068002828D0FFF73F
:100B0000C9FC0290286A800736D4FFF7C3FC02991B
:100B1000411A6348814217D9032003B0F0BD296A06
:100B2000012001432962E7E7286A40084000286263
:100B3000286AB0432862DFE7286A30432862286ABF
:100B4000012108432862D7E7286A8007DDD513E032
:100B5000FFF7A0FC0290286A80070DD5FFF79AFCEA
:100B60000299411A4E48814203D9032003B0F0BDD7
:100B700008E0286A8007F1D4012F03D1E86939071A
:100B80008843E8612078C00647D56069012816D0FF
:100B9000401D34D0686B30436863686B4008400088
:100BA0006863FFF777FC0646686B800735D5FFF76B
:100BB00071FC801B02282DD9032003B0F0BD686BA7
:100BC00030436863686B012108436863FFF762FC88
:100BD0000646686B80070AD4FFF75CFC801B02287E
:100BE00002D9032003B0F0BD686B8007F4D5686BB1
:100BF000F8218843A169C900084368630DE0686B68
:100C0000B0436863696BF8208143A069C000014369
:100C1000696302E0686B8007C9D4206A002877D036
:100C200069680907890F022957D00126360602286C
:100C300010D02868B0432860FFF72CFC04462868D1
:100C4000800165D5FFF726FC001B022841D903204F
:100C500003B0F0BD2868B0432860FFF71BFC0746CF
:100C6000286880010AD5FFF715FCC01B022802D9AD
:100C7000032003B0F0BD28688001F4D4E86AE16A7B
:100C8000000900010843E862A16A606A01436868DC
:100C90003D221204904305E0001002400070004025
:100CA0008813000001436960286830432860FFF71B
:100CB000F1FB0446286880012AD4FFF7EBFB001BF8
:100CC000022802D9032003B0F0BD28688001F4D5C2
:100CD0001EE028688001B5D41AE0012815D06868A4
:100CE000E96A01221204636A02409A420AD10907A2
:100CF000E26A090F914205D10F2189040840A16AD7
:100D0000884205D0012003B0F0BD012003B0F0BD42
:100D1000002003B0F0BD000010B40B49401E884213
:100D200002D910BC012070470849486108480723D0
:100D3000C2691202120A4C042243C2610020886177
:100D40000B6110BC70470000FFFFFF0000E000E0F7
:100D500004ED00E070477047F8B504462268D0699A
:100D6000116893687D4D0540002D09D1860607D591
:100D70008E0605D5616E002901D020468847F8BD52
:100D80002026002D7CD0DF07754DFF0FBC460D409F
:100D90002F4375D02546C7078035002F06D0CF05D5
:100DA00004D5012717622A683A432A60820708D5CA
:100DB000DA0706D0276802223A622A6804273A43F3
:100DC0002A60420708D5DA0706D0236804221A628F
:100DD0002A6802231A432A6002070AD50A463240CB
:100DE00063461A4305D0236808221A622B6813430E
:100DF0002B60020508D54A0106D501222368D202DC
:100E00001A622A6832432A602A68002AB7D080060C
:100E100006D5880604D5616E002901D02046884792
:100E2000286821688968490602D42821084221D00F
:100E3000204600F0F1FB20688168490616D58268DB
:100E400040218A438260206F00280AD045494163CF
:100E5000206FFFF726FA002891D0206F416B88475A
:100E6000F8BD2046FFF777FFF8BD09E02046FFF701
:100E700072FFF8BD2046FFF76EFF00202860F8BD26
:100E8000236E012B58D1C30656D5CB0654D510235B
:100E900013622068816825464906403500292CDA0E
:100EA000226F1168496889B20029E8D02F8B8F42E0
:100EB000E5D969839169202917D001681A01914306
:100EC0000160206881684908490081602068816864
:100ED000402291438160E667002020662068016817
:100EE00099430160206FFFF7BAF9288B698B401A8C
:100EF00081B22046FFF72EFFF8BD298B6A8B891A35
:100F000089B26A8B002AF7D00029F5D00268FF2544
:100F10002135AA430260206882685208520082602C
:100F2000E667002020666066206802689A430260D7
:100F30002046FFF70FFFF8BD020607D50A0605D5C4
:100F4000A16E0029F7D020468847F8BD4006FCD5A1
:100F50004806FAD5204600F078FBF8BD0F080000DF
:100F6000200100040516000810B50446002C03D02B
:100F7000A06F002802D007E0012010BD00217420DE
:100F80000155204600F028F82420A0672068016859
:100F9000490849000160204600F0DCFB012819D017
:100FA000606A002802D0204600F092FA206841686A
:100FB0000122D20291434160206881680822914356
:100FC000816020680168012211430160204600F021
:100FD000E5FA10BD012010BDF0B587B0044614211C
:100FE0006846FFF7DDF81C492068884231D11B486C
:100FF0008269012189030A43826182690A4005925C
:101000004269C9000A4342614069012408400590D1
:101010000420092702250326FF0600900294694652
:101020000396019504943846FFF772F90820009062
:101030000020029001956946039604943846FFF714
:1010400067F9002201211B20FFF786FA1B20FFF71A
:1010500077FA07B0F0BD00000038014000100240F0
:1010600030B5C36F202B01D0022030BD00290AD03B
:10107000002A08D0012483682403A34209D103690C
:10108000002B02D005E0012030BDCB0701D00120AC
:1010900030BD034660331C7D012C0FD001241C752C
:1010A0000023036603685C68240204D51C680125DC
:1010B000AD062C431C6000F0E9FB30BD022030BDC2
:1010C00070B51449884217D1134C0122A578A11C90
:1010D0001048FFF7C5FF611C0B78D8070CD0002023
:1010E0007B2D0AD00D4A7D2D09D02078002803D110
:1010F000A0881554401CA08070BDA08008E0257811
:10110000002DF9D1A58850555808400008700120DD
:10111000207070BD48020020000000205200002016
:1011200070B4836F202B02D070BC0220704700295E
:101130000AD0002A08D0012584682D03AC420BD1C7
:101140000369002B03D007E070BC01207047CB0778
:1011500002D070BC01207047034660331E7D012E13
:101160001CD001261E75C164014640310A824A82A4
:10117000002181668022115021228267AC4202D177
:101180000269002A0DD0084A826619750068016854
:1011900080221143016070BC0020704770BC0220A7
:1011A0007047024A8266F0E75919000819190008C9
:1011B0000449884204D10448FD220178114001709D
:1011C00070470000480200200100002010B50446CE
:1011D000002C10D0204600F011F8E0688021084370
:1011E00021680860616820690843A1680843216894
:1011F0004860002010BD012010BD000008B5006847
:101200000549884207D10548C269C1140A43C26131
:10121000C0690840009008BD002C0040001002404A
:10122000C1680068016000207047FEE710B53820F3
:1012300000F02EF8042000F09FF8382000F028F885
:10124000082000F099F8382000F022F8042000F07F
:1012500093F8012000F01CF8022000F08DF80C201B
:1012600000F016F8022000F087F810BD70B50122DA
:1012700009259402ED0621462846FFF704F964206B
:10128000FEF7C4FF002221462846FFF7FCF870BD98
:1012900010B50446092000228021C006FFF7F3F8AC
:1012A000204600F0DFFBFFF7E1FFC820FEF7AEFFAE
:1012B00010BD0000F0B587B014216846FEF770FF3E
:1012C0001C484269012149040A43426142690A40BB
:1012D0000592426949000A4342614069164E08403E
:1012E0000927FF060590002231463846FFF7CBF864
:1012F0000022F8211148FFF7C6F833200024012509
:101300006A4631C269463846FFF702F802946946D8
:101310003846009601950394FEF7FAFFF8200090F6
:1013200002946946019503940448FEF7F1FF07B063
:10133000F0BD000000100240C09E00000004004804
:1013400010B50C480A490160E121490241600021C1
:101350008160C16001618161C1610C2201624261F1
:101360004162FFF701FE002800D0FEE710BD00003B
:10137000003801404802002010B5040007D00120C9
:10138000FEF7B4FF0248FFF74BFF641EF7D110BD14
:10139000CC020020704710B51446FEF754FF02E05F
:1013A000FEF740FF641C20780028F9D110BD70477B
:1013B0007047000031B5094C02E06420FEF726FFBB
:1013C00020788007F9D4012269460548FFF7A8FE76
:1013D000207802210843207038BD00000100002061
:1013E0004802002070B50446064D06E0FFF7E2FF14
:1013F0002078E9784018E870641C20780028F5D13E
:1014000070BD00000000002010B5FFF749F810BDC6
:1014100030B595B030216846FEF7C2FE00240F9427
:1014200002200D940E940090129401251394102024
:101430000C94039504901094119408946846FFF757
:1014400027FA002800D0FEE707200C900D940E9498
:1014500000210F940CA8FFF71FF9002800D0FEE729
:1014600010A810951294FFF799F8002800D0FEE715
:1014700015B030BD13480168012211430160416875
:10148000114A114041600168104A11400160016831
:10149000012292049143016041683F22120491436A
:1014A0004160C16A09090901C162016BFF2214325E
:1014B00091430163416B4908490041630021816008
:1014C00070470000001002400CB8FF08FFFFF6FE56
:1014D00010B4818CC90707D001684A6801235B04F6
:1014E0009A43836A1A434A60818C890707D5016849
:1014F0004A6801231B049A43C36A1A434A60818CD9
:10150000490707D501684A6801239B049A43036B86
:101510001A434A60818C090707D501684A6801238C
:10152000DB039A43436B1A434A60818CC90607D593
:1015300001688A6801231B039A43836B1A438A60FC
:10154000818C890607D501688A6801235B039A4369
:10155000C36B1A438A60818C490612D501684B68B7
:1015600001221205046C934323434B60016C9142AA
:1015700007D101684A6803235B059A43436C1A4309
:101580004A60818C090607D501684A680123DB049B
:10159000806C9A4302434A6010BC7047F8B5044619
:1015A000002580200551FEF775FF0746206800687A
:1015B000134E00070BD501213B460022490520466A
:1015C000009600F0E7F9002801D00320F8BD20685C
:1015D000006840070BD501213B46002289052046C3
:1015E000009600F0D7F9002801D00320F8BD202094
:1015F000A067E0672566603425750020F8BD00000F
:10160000FFFFFF0110B5406A0022014640314A83C6
:101610004A82FFF7A0FB10BD01680A68FF2321334F
:101620009A430A6001688A68520852008A60016E13
:10163000012904D101680A6810239A430A60202115
:10164000C167002101664166704710B501680A68EC
:1016500040239A430A602021816700218166FFF7B9
:10166000A7FD10BD70B5044620464030828BE36F65
:101670002168222B04D0886908221043886170BD3C
:10168000898C636D11401980616D891C6165418B86
:10169000491E4183418B0029F1D121680A68FF234B
:1016A00021339A430A6021688A68520852008A608E
:1016B0002021E16700256566216E012904D02046BE
:1016C000FFF7FEFC256670BD21680A6810239A4367
:1016D0000A60018B2046FFF73DFBF3E770B5044637
:1016E00020464030828BE36F2168222B04D088692A
:1016F00008221043886170BD898C1140626D1170A1
:10170000616D491C6165418B491E4183418B0029F4
:10171000F1D121680A68FF2321339A430A602168C6
:101720008A68520852008A602021E16700256566B8
:10173000216E012904D02046FFF7C2FC256670BD4A
:1017400021680A6810239A430A60018B2046FFF73C
:1017500001FBF3E770B504460025A1682069E26942
:10176000014360691043014320680268424B1A40FC
:101770000A43026020684168032212039143E26831
:1017800011434160A069216A0143206882680B23EC
:101790001B029A430A4382603848006B8007800F1F
:1017A0002CD001282ED002282ED0032828D010209B
:1017B0000122E369D2033249324E934232D10028EA
:1017C00024D0022826D0042826D0082801D00022C0
:1017D0000125002A4AD0616850004A088018FEF7A7
:1017E00081FC80B201461039B14219D82649014026
:1017F0000007420F0A432068C26037E00020D7E7A5
:101800000220D5E70420D3E70820D1E7FEF7E0FF68
:101810000246DEE70A46DCE7FEF7EAFF0246D8E7C3
:10182000012523E0002816D0022818D0042818D05B
:10183000082801D000220125002A17D06168480835
:101840008018FEF74FFC80B201461039B1420CD827
:101850002168C8600AE0FEF7BBFF0246ECE70A46D3
:10186000EAE7FEF7C5FF0246E6E7012500206066CD
:10187000A066284670BD0000F369FFFF001002401B
:1018800000127A00EFFF0000F0FF000030B4416565
:10189000014640310A834A8300234366012482685B
:1018A0002403FF25A24207D10269002A01D08D83BB
:1018B00005E0164A8A8302E0002A1CD08B8380212F
:1018C0000B502221C16701688A6801252A438A607A
:1018D0008168A14202D10169002914D00C494166F6
:1018E00074210B5400680168FF222132114301600A
:1018F00030BC002070470269002A02D07F228A8310
:10190000DDE78D83DBE703494166E9E7FF0100007E
:10191000DD16000865160008816F212910D10146E7
:1019200040314A8A002A0CD0C26C03681288D20562
:10193000D20D1A85C26C921CC264488A401E48822D
:10194000704701680A6880239A430A60006801684A
:101950004022114301607047816F21290ED1014659
:1019600040314A8A002A0AD0C26C036812781A856C
:10197000C26C521CC264488A401E4882704701688B
:101980000A6880239A430A60006801684022114374
:1019900001607047FFB581B00A9D04460E461746A8
:1019A0002068C1693046884331D00020B8424CD10C
:1019B000204660300090681C3FD0FEF76BFD049914
:1019C000401AA84225D8002D23D020680168490775
:1019D00033D5C069C04300052FD401202168C0025F
:1019E000086220680168FF22A132914301602068EB
:1019F00081684908490081602020A067E067803441
:101A00002060009900200875032005B0F0BD01207A
:101A1000CCE720680268FF21A1318A430260206878
:101A200081684908490081602020A067E06700992B
:101A300000200875032005B0F0BD2068C16930465C
:101A4000884305D00020B842B5D0002005B0F0BDD5
:101A50000120F8E710B50248FFF77EF910BD00003D
:101A60004802002070B50446254DC00708D0012269
:101A700080212846FEF707FDA00703D4002202E0DC
:101A80000022F5E7012240212846FEF7FCFC600712
:101A900001D4002200E0012220212846FEF7F3FCB9
:101AA000200701D4002200E0012210212846FEF781
:101AB000EAFCE00601D4002200E0012208212846C9
:101AC000FEF7E1FC0F49104DA00601D4002200E012
:101AD00001222846FEF7D7FC0C49600601D40022FB
:101AE00000E001222846FEF7CEFC0949200601D479
:101AF000002200E001222846FEF7C5FC70BD000070
:101B000000040048008000000000004800100000B1
:101B1000000800000FB410B504A9074B02AA0398EF
:101B200000F034F8044602A9002000F0D7F820465F
:101B300010BC08BC04B01847DD1C0008F0B4040C4D
:101B40008BB2264682B25E430D0C1046370C5843CA
:101B5000360480190021794116466E43370C36044D
:101B60008019794126466E438919F0BC704702E01E
:101B700008C8121F08C1002AFAD170477047002018
:101B800001E001C1121F002AFBD17047FFB58DB0E3
:101B90000446002506E025280AD0109A0F999047A0
:101BA000641C6D1C20780028F5D1284611B0F0BDCA
:101BB00000270121484A009700E00743641C23786E
:101BC0000846203B98401042F7D120782E2817D1A4
:101BD000042007436078641C2A280CD10E98641CEA
:101BE00002C800910E900BE000990A22514330394F
:101BF0004018641C00902078014630390929F3D937
:101C000020780028D1D0642808D0692806D075280B
:101C10001ED0109A0F9990476D1C5BE00A200E9918
:101C2000019001C90E91002802DA40422D2102E004
:101C3000390504D52B216A461172012103E0F90709
:101C400004D02021F7E70BAE0B910DE00021FAE75D
:101C50000A200E99019001C90E91F7E70199FEF74C
:101C600041FA3031761E31700028F7D103A8801B6D
:101C700020300190780701D5009801E00120009004
:101C80000199884201DD401A00E000200027009001
:101C900006E002A8109AC05D0F9990476D1C7F1C4A
:101CA0000B988742F5DB04E0109A30200F9990479B
:101CB0006D1C0099481E00900029F5DC05E0307885
:101CC000109A761C0F9990476D1C0199481E01903F
:101CD0000029F4DC641C65E7092801000A68531C2C
:101CE0000B6010707047000008B5FEF7E1FBFFF7CE
:101CF0008FFBFFF7DFFAFFF723FBBC48BA4901600F
:101D0000FF21813141607F21816000250561C16033
:101D1000FFF75CFA002800D0FEE7FFF787FAB34828
:101D20000122B3498438FFF79BF9B24E012730787E
:101D3000B1A138433070B548FEF73DFAB4A1B948B7
:101D4000FEF739FAB14A01210020FFF724FBB54A1A
:101D500002210020FFF71FFBB34CB4492069401C4F
:101D60002061884205D909204021C0062561FEF77F
:101D700082FB9E4801229E498438FFF771F99B48F7
:101D8000FFF74EFA0926F60610213046FEF76CFBE7
:101D9000002805D102213046FEF766FB00282ED030
:101DA00010213046FEF760FB00283BD02770A5715C
:101DB00002213046FEF758FB002851D06770E571CC
:101DC00020213046FEF750FB002867D0A77025720F
:101DD00001213046FEF748FB00286FD0E77065729E
:101DE000844E3078C007B8D191480A23C17802796F
:101DF000303959433039511861616FD0EDE07D20A1
:101E0000C000FFF7B9FA10213046FEF72DFB00287D
:101E1000D6D102213046FEF727FB0028D0D1FFF7AC
:101E200005FACDE7A079401CC0B2A0713228BFD915
:101E300020780128BCD125707EA0FFF7D3FA7E4818
:101E400005707EA0FFF7CEFA7B488CA10278674828
:101E50001430FFF75FFE65481430FFF7C3FAA7E7B9
:101E6000E079401CC0B2E0713228A9D9607801281D
:101E7000A6D165706FA0FFF7B5FA6F48057080486E
:101E8000FFF7B0FA6C487DA1027858481430FFF78C
:101E900041FE56481430FFF7A5FA91E7207A401C1E
:101EA000C0B22072322893D9A078012890D1A570B1
:101EB00060A0FFF797FA6048057000E00FE071A09E
:101EC000FFF790FA5C486DA1027848481430FFF79C
:101ED00021FE46481430FFF785FA79E71DE0607A65
:101EE000401CC0B26072322800D879E7E07801283F
:101EF000FBD1E5704FA0FFF775FA4F4E7148357072
:101F0000FFF770FA394832785CA11430FFF702FE0F
:101F100036481430FFF766FA62E7257308E0207B45
:101F2000081820730120FEF7E1F96069401C606128
:101F30003F486169415C2A29F1D1217B2A31C9B22C
:101F400021738C466169491C6161E57206E0E07AA3
:101F50000A23584330381018E072491C3448425C58
:101F6000002AF4D16161E27A944536D1A5723049F4
:101F7000A07A264A09184B7E13542031CA7A29497F
:101F80000A54401CC0B2A0721028F0D31F4A01218D
:101F90000020FFF700FA234A02210020FFF7FBF997
:101FA00023480A2340300090C07B3038C1B22171F1
:101FB0000098427C007C3038584330381018C0B24A
:101FC0006071FEF740F90098807C412809D00C2010
:101FD000FFF75EF93078384330703078384330702E
:101FE000BBE60F20F4E70000002C0040CC020020EC
:101FF0000200002001000020566F6C7465612048CB
:102000004D492056322E30300000000030000020B4
:1020100057616974696E6720466F7220446174610C
:1020200000000000410000200800002010270000F0
:10203000520000207B0000000300002030313D30C2
:10204000300D0A2D2D2D2D2D2D2D2D2D2D2D2D2D00
:102050002D2D2D2D2D2D2D0D0A55500D0A2D2D2DEB
:102060002D2D2D2D2D2D2D2D2D2D2D2D2D2D2D2DA0
:102070002D0D0A787878780D0A2A000025647D00F5
:10208000E020000830313D30300D0A2D2D2D2D2D52
:102090002D2D2D2D2D2D2D2D2D2D2D2D2D2D2D0D90
:1020A0000A4553430D0A2D2D2D2D2D2D2D2D2D2D72
:1020B0002D2D2D2D2D2D2D2D2D2D0D0A7878787867
:1020C0000D0A2A0024210008000000000000000082
:1020D00001020304060708090000000001020304CE
:1020E00030313D30300D0A2D2D2D2D2D2D2D2D2D46
:1020F0002D2D2D2D2D2D2D2D2D2D2D0D0A444F57F0
:102100004E0D0A2D2D2D2D2D2D2D2D2D2D2D2D2D21
:102110002D2D2D2D2D2D2D0D0A787878780D0A2A4C
:102120000000000030313D30300D0A2D2D2D2D2DB9
:102130002D2D2D2D2D2D2D2D2D2D2D2D2D2D2D0DEF
:102140000A454E5445520D0A2D2D2D2D2D2D2D2D88
:102150002D2D2D2D2D2D2D2D2D2D2D2D0D0A78785C
:1021600078780D0A2A00000088210008000000206D
:10217000300000006E1B0008B8210008300000206D
:10218000180700007E1B000801000000000000008E
:10219000010101010000000000000000000000003B
:1021A000000000000000000001000000040000002A
:0821B0000000000000127A009B
:04000005080000B13E
:00000001FF
