S0390000736B2D666D332D3438706D632D757362737469636B5F7573625F6465766963655F7669727475616C5F636F6D5F706F72742E73726563CC
S113000080E3FF1F29100000451000004910000084
S11300104D100000511000005510000000000000B9
S11300200000000000000000000000005910000063
S11300305D10000000000000611000006510000069
S1130040691000006D1000007110000075100000B0
S1130050791000007D100000811000008510000060
S1130060891000008D10000091100000DD100000C8
S1130070DD1000009510000099100000DD10000054
S1130080DD1000009D100000A1100000DD10000034
S1130090DD100000DD100000DD100000A5100000E0
S11300A0A9100000AD100000B1100000DD10000028
S11300B0B5100000B9100000BD100000C110000010
S11300C0DD100000DD100000C5100000C9100000A4
S11300D0DD100000DD100000CD100000D110000084
S11300E0D5100000D9100000DD100000DD10000064
S11300F0DD100000DD100000DD100000DD10000048
S1130100DFF8D004016821F480410160DFF8C814ED
S11301100A6842F480420A60DFF8C0140A6822F4D4
S113012080420A60026822F480520260DFF8A02450
S1130130136843F4805313600B6843F480530B60DB
S1130140036823F400530360136843F400531360FB
S11301500B6843F400530B60036823F4806303606B
S1130160136843F4806313600B6843F480630B608B
S1130170036823F400630360136843F400631360AB
S11301800B6843F400630B60036823F4007303609B
S1130190106840F400701060086840F40070086053
S11301A0106840F400601060106840F40070106043
S11301B070472DE9F041044600250826DFF8208425
S11301C0DFF80C74386820F4805038603868C00454
S11301D0FCD4200638684CBF40F4005020F4005092
S11301E0386064001420C046C046D8F800006D0092
S11301F0400448BF45F00105386840F48050386039
S11302003868C004FCD54620C046C046761ED9D105
S1130210E8B2BDE8F0812DE9F04104464FF40470E2
S11302200D46B4FBF0F716465321384600F06AF940
S113023030194FF40471B0FBF1F8474503D0552150
S1130240404600F05FF933462A462146012000F07B
S113025074F83946832000F037F9474504D0414605
S1130260BDE8F04186202FE1BDE8F081F8B5D84F14
S11302700446386820F4806038600D461646322003
S1130280C046C0462046FFF794FF36B1FF20FFF773
S113029090FF761E05F8010BF8D1386840F48060B1
S11302A038604FF4FA70BDE8F24000F09BB92DE9D4
S11302B0F04182B004468846164601226946D7209A
S11302C0FFF7D4FF9DF800000006F6D5C04F38684C
S11302D020F4806038603220C046C0460B20FFF70F
S11302E068FF4FF40470B4FBF0F5A804000EFFF7A8
S11302F060FF05EB4510A4EB0010000A40EA8500FE
S1130300C0B2FFF756FFA4EB0510C0B2FFF751FFD0
S1130310FF20FFF74EFF36B1FF20FFF74AFF761E9E
S113032008F8010BF8D1386840F4806038604FF465
S1130330FA70C046C046BDE8F3812DE9F14F9046FE
S113034000284FF40470B1FBF0F000EB4012994622
S11303500CBFD4258425A1EB0216DFF884A29C4CA3
S1130360B9F1000F00F09780206820F480602060CD
S11303703220C046C046D720FFF71BFFFF20FFF7FF
S113038018FF0746206840F4806020604FF4FA703C
S1130390C046C0463806E7D5206820F48060206057
S11303A03220C046C0462846FFF703FFFF20FFF770
S11303B000FF3004000EFFF7FCFEF0B2FFF7F9FE79
S11303C0D42D12BFD62DFF20FFF7F3FE009868BB93
S11303D0FF2500274FF0080B206820F48050206090
S11303E02068C004FCD4280620684CBF40F40050A8
S11303F020F4005020606D001420C046C046DAF896
S113040000007F00400448BF47F00107206840F423
S1130410805020602068C004FCD54620C046C046F9
S1130420BBF1010BD8D188F8007023E098F8005094
S11304300827206820F4805020602068C004FCD481
S1130440280620684CBF40F4005020F4005020607F
S11304506D001420C046C046DAF80000206840F45D
S1130460805020602068C004FCD54620C046C046A9
S11304707F1EDED1761C4FF40470B6FBF0F000EB67
S11304804011B6EB0110A9F1010908F101080CD0E3
S1130490B9F1000F9AD1206840F4806020604FF4D5
S11304A0FA70BDE8F24F00F09DB8206840F4806017
S11304B0206000264FF4FA70C046C0460098002819
S11304C014BF8725D6254BE770B582B004460D4688
S11304D001226946D720FFF7C9FE9DF800000006F7
S11304E0F6D53B4E306820F4806030603220C04640
S11304F0C0462046FFF75DFEA804000EFFF759FE34
S1130500A8001CE070B582B004460D46012269467D
S1130510D720FFF7ABFE9DF800000006F6D52C4E61
S1130520306820F4806030603220C046C0462846DF
S1130530FFF73FFEA004000EFFF73BFEA000C0B291
S1130540FFF737FEFF20FFF734FE306840F4806089
S113055030604FF4FA70C046C04673BD38B51C4CC9
S1130560206820F4806020604FF6DC752846C04681
S1130570C0462846C046C0462846C046C04628460F
S1130580C046C0462846C046C0462846C046C04667
S11305909F20FFF70EFEFF20FFF70BFE1F280AD156
S11305A0FF20FFF706FE262805D1FF20FFF701FEF6
S11305B008B9002500E0FF25206840F48060206031
S11305C04FF4FA70C046C046284632BD0000000011
S11305D01034034010300340103103401032034004
S11305E010330340704730B142F6310100BF491E59
S11305F0FCD1401EF8D1704770B58F4D06002868B5
S113060040F040000C4628600FD02046FFF7EBFF77
S1130610286820F0400028602046FFF7E4FF28689F
S113062040F04000761E2860EFD170BD30B585B033
S113063000F008F9824CE06820F40070E060C82102
S1130640E06820F48060E060E06820F40060E0602E
S1130650E06820F48050E060E06820F40050E0603E
S11306606068400840006060206820F0020020605C
S1130670206820F004002060606820F008006060BA
S1130680206940F0800020610120FFF7B5FF4FF49E
S11306907A70FFF7A8FFFFF761FF48B14FF480407D
S11306A0016881F30888654A106040688047FEE766
S11306B001226946FFF7FBFD9DF8000088B1C821BF
S11306C00220FFF799FF4FF47A70FFF78CFF4FF485
S11306D08040016881F30888584A10604068804768
S11306E0FEE7C8210320FFF787FF40F6B835284608
S11306F0FFF779FF00F0F8F878B9C8210420FFF774
S11307007BFF2846FFF76FFF00F0FCF8C8210520A7
S1130710FFF772FF2846FFF766FF00F0E5F80128AF
S11307207AD1C8210620FFF767FF2846FFF75BFF51
S1130730FFF714FF48B14FF48040016881F3088843
S11307403E4A106040688047FEE7C8210720FFF753
S113075053FF2846FFF747FF012269460020FFF7B1
S1130760A6FD9DF80000002846D1C8210820FFF707
S113077043FF2846FFF737FF00F0DCF878B9C820BC
S1130780FFF731FF206920F0400020614FF4FA6048
S1130790FFF729FF206940F040002061EFE7FF20C8
S11307A08DF80000012269460020FFF734FD20691E
S11307B040F0400020610A254FF47A70FFF713FFE0
S11307C0206920F0400020614FF47A70FFF70BFF9E
S11307D0206940F040006D1E2061EDD141F2883067
S11307E0FFF701FF4FF48040016881F30888134A42
S11307F0106040688047FEE7C820FFF7F4FE2069D8
S113080020F04000206141F28830FFF7ECFE2069BF
S113081040F040002061EFE74FF47A710520FFF7C4
S1130820EBFE4FF48040016881F30888034A1060AE
S113083040688047FEE700001034034008ED00E004
S11308400034034080B500F017F90948016821F02D
S1130850C00101600748016821F0C0010160064839
S1130860016841F0C0010160BDE80140FFF748BCE8
S1130870103003401034034010320340DFF800F01E
S113088005E0FF1FDFF800F0C1E0FF1F30B142F6C2
S1130890310100BF491EFCD1401EF8D17047704A97
S11308A0136843F040031360E8B141B10B4642F6CC
S11308B0310C00BFBCF1010CFBD15B1EF7D11368F6
S11308C023F04003136041B10B4642F6310C00BFE4
S11308D0BCF1010CFBD15B1EF7D1136843F040035C
S11308E0401E1360E1D170474FF4804050F8041B60
S11308F011F1010F01D000207047B0F5003FF5D38E
S11309000120704780B572B600214FF48040FFF794
S1130910B5FF002144F20400FFF7B0FF00214FF4BB
S11309200040FFF7ABFF002148F20400FFF7A6FFE9
S113093062B601BD2DE9F04F83B000208DF80800A8
S11309406426DFF82081DFF820B1484F444C20684A
S113095080F0400020600A20FFF745FE02A93846D7
S113096000F04CF9814619F1010F0FD19DF80800F0
S113097028BBB046206880F0800020606420FFF728
S113098032FEB8F10108F5D1012071E019F1060F2A
S113099004BF9DF80800002811D1206840F04000F1
S11309A0206040F6B8342046FFF770FFC8210920C4
S11309B0FFF775FF2046FFF769FF002058E00A2083
S11309C000900098704300900098411E009140B13F
S11309D00A200190019800281CBF0198401EF8D1FC
S11309E0F2E772B60025A9F5804A04E0E95BFFF757
S11309F049FFAD1CEDB29DF80800854208DADA45DE
S1130A00F7D205EB090040452CBF01220022EDE797
S1130A100A2000900098704300900098411E0091B5
S1130A2040B10A200190019800281CBF0198401E83
S1130A30F8D1F2E762B60A20009000987043009063
S1130A400098411E002800913FF481AF0A2001E084
S1130A500198401E019001980028F9D1F0E70000A8
S1130A601034034000000C2005D00F0080E3FF1F6A
S1130A7003B0BDE8F08F000010B44448444A016854
S1130A80444C1140016044490B681A400A60434ACF
S1130A90136843F41C4343F01F03136000232360D3
S1130AA044683F4B1C4044604C6823404B6040F218
S1130AB0BF34536823435360836823F00E03836079
S1130AC08B6823F00E038B60936843F00E039360EE
S1130AD0C468344B1C40C460CC682340CB60D368EA
S1130AE043F47E4343F00803D3602F4B1C6804F0A7
S1130AF0FE041C602D4B04691C4004610C692340F6
S1130B000B61136943F4FC4343F0C003136143696D
S1130B109B089B0043614B699B089B004B61536995
S1130B2043F0030353618369DB08DB0083618B6952
S1130B30DB08DB008B61936943F007039361036A6D
S1130B409B089B0003620B6A9B089B000B62116A63
S1130B5041F003011162C168C908C900C1601449A8
S1130B600B6843F007030B60D368DB08DB00D3603A
S1130B70436923F004034361886840F004008860FB
S1130B80506920F00400506110BC704700300340ED
S1130B90E063FFFF003503400034034000320340AC
S1130BA040FCFFFFF701FFFF803503403F81FFFF5B
S1130BB00C31034002780021A2F1300CBCF10A0F81
S1130BC03CBF1101C9B2A2F14103062B03D2373A4B
S1130BD001EB0211C9B24078A0F130030A2B02D212
S1130BE041183039C9B2A0F14102062A03D2401893
S1130BF0A0F13701C9B20846704700002DE9F04D55
S1130C000D4682B00026804600270024B346B24633
S1130C102E7006E06846FFF7CDFFC01B841E2C70C3
S1130C2002260020ADF8000002223648006869461A
S1130C30FFF73DFB334833490068801C08609DF88A
S1130C400000FF280AD19DF80100FF280CD10020E4
S1130C5028704FF0FF3B5846BDE8F68D0D2804BFC1
S1130C609DF801000A28F6D0F6B28EB1072E05DAF7
S1130C706846FFF79FFF50445FFA80FA072ED0D8EA
S1130C80DFE806F00605161818182633C9E7C1E789
S1130C909DF80000532805D19DF80100A0F130070C
S1130CA0FFB201260FB1042FBBDB00270026B8E7F3
S1130CB04FF0000B6846FFF77DFFB91B891CC90084
S1130CC088408344B81B801C08BF0526761CA8E70F
S1130CD0641EE4B204B907266846FFF76BFF88F880
S1130CE00000002008F8010F9BE76846FFF762FF49
S1130CF080F0FF00504594D0002028706FF005006C
S1130D00BDE8F68D00E0FF1F604E00001CB4002219
S1130D10009211B1012913D04DE04FF080421368C5
S1130D2003F0FD031360136843F001031360AA2367
S1130D301268019241F25052138040F6A82308E051
S1130D401E4A00231360AA23126801921C4A1380CE
S1130D501C4B55241C8080241480AA241480552202
S1130D601A803022028002881207FCD5009A5AB9F0
S1130D700288920644BF4FF0FF32009202881206A6
S1130D80F4D501220092F1E711B1012910D012E04B
S1130D904FF080424FF6FE711068084010601068F2
S1130DA040F00200106010680190009816BC704773
S1130DB0024A0120F6E716BC61E0000000000E20A4
S1130DC0A80A0C2054050C203CB40023009312B153
S1130DD0012A15D052E04FF080434FF6FD751C6890
S1130DE02C401C6040F6A8251C6844F001041C60DB
S1130DF0AA241B68019341F250531C80552409E036
S1130E001B4B1C4D00241C60AA241B6801931A4B25
S1130E101C8055242C8001F08005A0241C800180B6
S1130E204FF0FF330AE00488A40648BF0093048807
S1130E3004F08004AC4204BF01240094009C002C04
S1130E40F1D012B1012A10D018E04FF080434FF6D0
S1130E50FE71186808401860186840F002001860B5
S1130E6018680190009836BC7047014B0120F6E7E2
S1130E7000000E2054050C20A80A0C2036BC6FF08C
S1130E8001007047244825490160832224490160F8
S1130E9000202449087000211E48017401210175B5
S1130EA081210176017720490A7000220A725C22AE
S1130EB00A74027842F00202027002799207FCD5A9
S1130EC000220A7504220A7609220A77017841F081
S1130ED0100101700179C906FCD5017841F0400187
S1130EE001700178027902F0E00201F0E0018A4227
S1130EF0F7D140F2FF320D4801688905890D91420E
S1130F0006D00B490B4A8A6000680880002088607C
S1130F107047000000000140001C014051E5CC1A5C
S1130F20AE1A33E5081001402000014000010040E2
S1130F3004E0024054E5CC1A19E050F8041BCB0736
S1130F4044BFA9F101035918121F0023042A41F8D0
S1130F50043BF9D25FEA827C0B4604D54FF0000CC7
S1130F60A1F800C09B1CD10744BF0021197050F8A0
S1130F70042B002AE1D1704710B450F8041B79B156
S1130F800268436812180830DC0744BFA9F1010461
S1130F90E31852F8044B43F8044B091FF9D1ECE76A
S1130FA010BC704710B5074979441831064C7C448D
S1130FB0163404E00A68081D511888470146A14206
S1130FC0F8D110BD08000000280000006DFFFFFFED
S1130FD0F401000080E3FF1F000000009DFFFFFFFD
S1130FE07C01000024FDFFFF00E0FF1F0000000063
S1130FF00120C046002801D0FFF7D4FF0020C046DE
S1131000C046FFF713FB00F000F800F001B8000041
S11310100746384600F002F8FBE7000020210903E8
S113102026311820ABBEF9E7014880470148004744
S1131030850E000039100000C046C046C046C046B8
S1131040FFF7D6FFFFF7FEBFFFF7FEBFFFF7FEBFB8
S1131050FFF7FEBFFFF7FEBFFFF7FEBFFFF7FEBFC0
S1131060FFF7FEBFFFF7FEBFFFF7FEBFFFF7FEBFB0
S1131070FFF7FEBFFFF7FEBFFFF7FEBFFFF7FEBFA0
S1131080FFF7FEBFFFF7FEBFFFF7FEBFFFF7FEBF90
S1131090FFF7FEBFFFF7FEBFFFF7FEBFFFF7FEBF80
S11310A0FFF7FEBFFFF7FEBFFFF7FEBFFFF7FEBF70
S11310B0FFF7FEBFFFF7FEBFFFF7FEBFFFF7FEBF60
S11310C0FFF7FEBFFFF7FEBFFFF7FEBFFFF7FEBF50
S11310D0FFF7FEBFFFF7FEBFFFF7FEBFFFF7FEBF40
S11340002825002009FC01002DFC010031FC0100E1
S113401035FC010039FC01003DFC010000000000FA
S113402000000000000000000000000041FC01004E
S113403045FC01000000000049FC01004DFC0100AA
S113404051FC010055FC010059FC01005DFC01001C
S113405061FC010065FC0100A1D70000D9930000B8
S11340605BFB010089DA000079FC01009D930100EB
S113407081FC01008BA9000089FC0100CDFC01003A
S1134080CDFC01008DFC010091FC0100CDFC010080
S1134090CDFC0100CDFC0100CDFC010095FC01002C
S11340A099FC010059FB0100A1FC0100CDFC0100B9
S11340B0A5FC0100A9FC0100ADFC0100B1FC01005C
S11340C0CDFC0100CDFC010063FB01006DFB010090
S11340D0CDFC0100CDFC0100BDFC0100C1FC0100D0
S11340E0C5FC0100C9FC0100CDFC0100CDFC0100B0
S11340F0CDFC0100CDFC0100CDFC0100CDFC010094
S113410038B5684CE07E012833D1674D67492846AD
S113411005F09DFA012803DB0120E07502201BE075
S11341205EA1284605F093FA012803DB0120E0751F
S1134130002011E05E49284605F089FA012802DBD7
S11341400120E07508E056A1284605F080FA012810
S113415003DB0120E075032060750020E076207EFB
S113416038B1544805F0C6FB2846BDE8324005F096
S1134170C1BB31BDF0B5142883B0044658D8DFE87C
S113418000F00B0E1114171A1D2E3134373A3D402E
S11341904346494C4F5752001422474945E01422E4
S11341A0464942E0142246493FE0142245493CE096
S11341B01422454939E01422444936E0444D454926
S11341C01422284605F0FCFB4348006800282FD140
S11341D04E2068732E20A8734520E87328E014222B
S11341E03E4922E014223E491FE014223D491CE0CE
S11341F014223D4919E014223C4916E014223C499A
S113420013E014223B4910E014223B490DE0142230
S11342103A490AE014223A4907E01422394904E0F1
S11342201422394901E014223849294805F0C8FB11
S113423037480068E040C00706D5254D592068730B
S11342406520A8737320E87304EB44004000314EEA
S1134250314F00F52C5006223146503005F0DCFC7D
S11342603079737832782D490290F0780190B078E3
S11342700C4E0090384605F003FF00203874314698
S1134280384605F062FA0CB17F203070142CBCBFA4
S11342907E20F0730020B07603B0F0BD55500000CE
S11342A045534300F01E0020781C002064DD01000B
S11342B06CDD010074DD010080DD010094DD01008E
S11342C0A8DD0100BCDD0100D0DD0100E4DD01005A
S11342D0741F0020F8DD0100782000200CDE0100AE
S11342E020DE010034DE010048DE01005CDE010056
S11342F070DE010084DE010098DE0100ACDE010006
S1134300C0DE0100D4DE0100E8DE0100FCDE0100B5
S1134310C0200020781300209819002010DF01002D
S1134320F0B5DFF80C4E83B0206AD32802F2718412
S1134330DFE810F0D400E500F8000B011A015A017F
S11343406711A711B511AB12CE12F2122E135E1320
S11343508113A613C413EA13EC13EE13F013F21330
S1134360F413F613F813FA13FC13FE1300140214D7
S11343700414061408140A140C14101440146F14B2
S1134380F2010302B30E5E0F650FC40EDC0EF20ED3
S1134390080F220F3C0F4F0F12022302360249026C
S11343A05C026F0282029502A802BB02CE02E10205
S11343B0F40207031A032D0340035303660379032E
S11343C08C039F03B403C703DA03ED03000413044F
S11343D06F14260439044C045F04720485049804A1
S11343E0AB04BE04CD04F004170540056A0590052E
S11343F0B405D805FC052206460669068D06B006F6
S1134400D406F506F906040729074D077207900735
S1134410AE07B907D207F107170823083C086F1441
S11344206F146F148408A308C208E108000929095D
S113443052097B09A309030A110A1F0A2E0A3D0A1D
S11344404C0A5B0A6A0A790A880A970AA50AB30A17
S1134450C10AD00ADF0AEE0AFD0A0C0B1B0B2A0B59
S1134460390B480B570B660B6F14750B840B930BAE
S1134470A20BB10BC40BD30BE20BF40B6F147E0F26
S1134480A30F021013105410E810221036109E10BF
S1134490E8101111371142115211E20FF00F030C01
S11344A0180C2B0C400C840CA30CC40CE50C060D4E
S11344B0270D480D690D8A0DAB0DBC0DCE0DE20D17
S11344C0F60D0C0E3A0E5A0E780E960E69017A010C
S11344D08D01A001AF01BE01CD01DC011422DFF882
S11344E0541CDFF8540C05F06BFA1422DFF8CC1DD1
S11344F0204605F065FA7E20E07302F088BB1422A2
S1134500DFF8301CDFF8300C05F05AFA1422DFF81B
S1134510B01D204605F054FA7F2020707E20E07301
S113452002F075BB1422DFF80C1CDFF80C0C05F04C
S113453047FA1422DFF88C1D204605F041FA7F204B
S113454020707E20E07302F062BB1422DFF8E41BCB
S1134550DFF8E40B05F034FA1422DFF86C1D204672
S113456005F02EFA02F051BB1422DFF8601DDFF8CB
S1134570C80B05F025FA1422DFF8541D204605F077
S11345801FFAA07D032801F2E487DFE810F004009D
S11345900C0016002100CE206076DFF8380D00787C
S11345A0A07101F0D6BFCF2060767820A071DFF82B
S11345B0240D4078E07101F0CCBFD02060767820E3
S11345C0A071E071DFF80C0D8078207201F0C1BF9A
S11345D0D12060767820A071E0712072DFF8F40CAD
S11345E0C078607201F0B5BF1422DFF8E01CDFF878
S11345F0480B05F0E5F91422DFF8A01D204605F06C
S1134600DFF902F004BB1422DFF8941DDFF8280B55
S113461005F0D6F91422DFF88C1D204605F0D0F9F8
S11346207E20E07302F0F3BA1422DFF8741DDFF881
S1134630080B05F0C5F91422DFF86C1D204605F0BF
S1134640BFF97F2020707E20E07302F0E0BA1422CC
S1134650DFF84C1DDFF8E00A05F0B2F91422DFF8A8
S11346606C1D204605F0ACF97F2020707E20E0739D
S113467002F0CDBA1422DFF8281DDFF8BC0A05F0D9
S11346809FF91422DFF8481D204605F099F902F03D
S1134690BCBA1422DFF83C1DDFF89C0A05F090F93F
S11346A01422DFF8341D204605F08AF902F0AFBA6F
S11346B01422DFF8281DDFF8800A05F081F914229E
S11346C0DFF81C1D204605F07BF902F0A0BA142285
S11346D0DFF8101DDFF8600A05F072F91422DFF824
S11346E0081D204605F06CF902F091BA1422DFF897
S11346F0FC1CDFF8440ADFF8F85C05F061F9DFF828
S1134700F40C0268E4A1284605F0BAFC21462846C8
S113471005F01BF802F07BBA1422DFF8DC1CDFF88A
S1134720180A05F04DF91422DFF8D01C204605F0D4
S113473047F97E20E07302F06ABA1422DFF8B81C4D
S1134740DFF8F40905F03CF91422DFF8B41C204624
S113475005F036F902F059BA1422DFF8A81CDFF884
S1134760D80905F02DF91422DFF89C1C204605F029
S113477027F97E20E07302F04ABA1422DFF8841C81
S1134780DFF8B40905F01CF91422DFF8801C204678
S113479005F016F97F2020707E20E07302F037BA0E
S11347A01422DFF8601CDFF8900905F009F91422DF
S11347B0DFF85C1C204605F003F97F2020707E2082
S11347C0E07302F024BA1422DFF8381CDFF8680919
S11347D005F0F6F81422DFF83C1C204605F0F0F84A
S11347E07F2020707E20E07302F011BA1422DFF8DB
S11347F0141CDFF8440905F0E3F81422DFF8181C50
S1134800204605F0DDF87F2020707E20E07302F062
S1134810FEB91422DFF8EC1BDFF81C0905F0D0F810
S11348201422DFF8F81B204605F0CAF87F20207018
S11348307E20E07302F0EBB91422DFF8C81BDFF826
S1134840F80805F0BDF81422DFF8D41B204605F063
S1134850B7F87F2020707E20E07302F0D8B91422CC
S1134860DFF8A01BDFF8D00805F0AAF81422DFF85F
S1134870B41B204605F0A4F87F2020707E20E0734E
S113488002F0C5B91422DFF87C1BDFF8AC0805F090
S113489097F81422DFF8901B204605F091F87F204A
S11348A020707E20E07302F0B2B91422DFF8541BAA
S11348B0DFF8840805F084F81422DFF8701B204622
S11348C005F07EF87F2020707E20E07302F09FB90F
S11348D01422DFF8301BDFF8600805F071F81422A9
S11348E0DFF84C1B204605F06BF87F2020707E20FB
S11348F0E07302F08CB91422DFF8081BDFF83808E3
S113490005F05EF81422DFF82C1B204605F058F859
S11349107F2020707E20E07302F079B91422DFF842
S1134920E41ADFF8140805F04BF81422DFF8081B2A
S1134930204605F045F87F2020707E20E07302F0C9
S113494066B91422DFF8BC1ADFF8EC0705F038F872
S11349501422DFF8701D204605F032F87F20207005
S11349607E20E07302F053B91422DFF8981ADFF8BE
S1134970C80705F025F81422DFF84C1D204605F081
S11349801FF87F2020707E20E07302F040B91422CB
S1134990DFF8701ADFF8A00705F012F81422DFF828
S11349A02C1D204605F00CF87F2020707E20E0733B
S11349B002F02DB91422DFF84C1ADFF87C0704F05A
S11349C0FFFF1422DFF8081D204604F0F9FF7F20C2
S11349D020707E20E07302F01AB91422DFF8241A42
S11349E0DFF8540704F0ECFF1422DFF8E81C20463B
S11349F004F0E6FF7F2020707E20E07302F007B908
S1134A001422DFF8001ADFF8300704F0D9FF14226B
S1134A10DFF8C41C204604F0D3FF7F2020707E20E2
S1134A20E07302F0F4B81422DFF8D819DFF80807AD
S1134A3004F0C6FF1422DFF8A41C204604F0C0FFD3
S1134A407F2020707E20E07302F0E1B81422DFF8AA
S1134A50B419DFF8E40604F0B3FF1422DFF8801C75
S1134A60204604F0ADFF7F2020707E20E07302F02A
S1134A70CEB81422DFF88C19DFF8BC0604F0A0FFCE
S1134A801422DFF8601C204604F09AFF7F20207077
S1134A907E20E07302F0BBB8256400001422DFF826
S1134AA06419DFF8940604F08BFF1422DFF8381C35
S1134AB0204604F085FF7F2020707E20E07302F002
S1134AC0A6B81422DFF83C19DFF86C0604F078FF6E
S1134AD01422DFF8181C204604F072FF7F20207097
S1134AE07E20E07302F093B81422DFF81819DFF87F
S1134AF0480604F065FF1422DFF8F41B204604F096
S1134B005FFF7F2020707E20E07302F080B81422C3
S1134B10DFF8F018DFF8200604F052FF1422DFF863
S1134B20D41B204604F04CFF7F2020707E20E073CD
S1134B3002F06DB81422DFF8CC18DFF8FC0504F09D
S1134B403FFF1422DFF8B01B204604F039FF7F201A
S1134B5020707E20E07302F05AB81422DFF8A41803
S1134B60DFF8D40504F02CFF1422DFF8901B204654
S1134B7004F026FF7F2020707E20E07302F047B807
S1134B801422DFF88018DFF8B00504F019FF1422AE
S1134B90DFF86C1B204604F013FF7F2020707E207A
S1134BA0E07302F034B81422DFF85818DFF88805EF
S1134BB004F006FF1422DFF84C1B204604F000FF2B
S1134BC07F2020707E20E07302F021B81422DFF8E9
S1134BD03418DFF8640504F0F3FE1422DFF8281B10
S1134BE0204604F0EDFE7F2020707E20E07302F06A
S1134BF00EB81422DFF80C18DFF83C0504F0E0FED0
S1134C001422DFF8081B204604F0DAFE7F2020700F
S1134C107E20E07301F0FBBF1422DFF8E817DFF811
S1134C20180504F0CDFE1422DFF8E41A204604F03F
S1134C30C7FE7F2020707E20E07301F0E8BF1422BD
S1134C40DFF8C017DFF8F00404F0BAFE1422DFF82E
S1134C50C41A204604F0B4FE7F2020707E20E07346
S1134C6001F0D5BF1422DFF89C17DFF8CC0404F060
S1134C70A7FE1422DFF8A01A204604F0A1FE7F202C
S1134C8020707E20E07301F0C2BF1422DFF8741795
S1134C90DFF8A40404F094FE1422DFF8801A2046FE
S1134CA004F08EFE7F2020707E20E07301F0AFBF01
S1134CB01422DFF85017DFF8800404F081FE142278
S1134CC0DFF85C1A204604F07BFE01F09EBF14223C
S1134CD0DFF8CC1DDFF8600404F072FE41F2883383
S1134CE00022DFF8401A204605F0CAF9DFF8E4058F
S1134CF00178A1714178E17181782172C078607284
S1134D00A07D032801F28387DFE810F01205260056
S1134D104F0079001422DFF8E81DDFF81C0404F0CA
S1134D204FFE1E230222DFF8FC19204605F0A8F9E5
S1134D30DFF8A0050178A1714178E17181782172D1
S1134D40C0786072A07D032801F26187DFE810F06B
S1134D50F00404002D005700CF206076012001F0FC
S1134D6057BF1422DFF8F81DDFF8CC0304F028FE47
S1134D704FF4FA730A22DFF8AC19204605F080F9E3
S1134D80DFF850050178A1714178E17181782172D1
S1134D90C0786072A07D032801F23987DFE810F043
S1134DA0C804040005002F00D6E7D0206076012057
S1134DB001F02EBF1422DFF8F41DDFF87C0304F0A9
S1134DC0FFFD4FF4FA730A22DFF85819204605F064
S1134DD057F9DFF800050178A1714178E171817814
S1134DE02172C0786072A07D032801F21087DFE889
S1134DF010F09F04050004000600D6E7ACE7D120BC
S1134E006076012001F004BF1422DFF8A41DDFF84E
S1134E10280304F0D5FD4FF4FA730022DFF80419D7
S1134E20204605F02DF9DFF8AC040178A171417832
S1134E30E17181782172C0786072A07D032801F24B
S1134E40E686DFE810F07504060005000400D6E7E6
S1134E50ABE781E71422DFF8C41DB74804F0B0FDC6
S1134E60C8230122DFF8BC18204605F009F9DFF851
S1134E7064040178A1714178E17181782172C0786C
S1134E806072A07D032801F2C286DFE810F05104AD
S1134E90060005000400B2E787E75DE71422DFF8A7
S1134EA0801DA54804F08CFDC8230122DFF8741886
S1134EB0204605F0E5F8DFF81C040178A17141787B
S1134EC0E17181782172C0786072A07D032801F2BB
S1134ED09E86DFE810F02D040600050004008EE72E
S1134EE063E739E71422DFF83C1D934804F068FDBA
S1134EF0C8230122DFF82C18204605F0C1F8DFF89A
S1134F00D4030178A1714178E17181782172C0786C
S1134F106072A07D032801F27A86DFE810F00904AC
S1134F200600050004006AE73FE715E71422DFF8EE
S1134F30F81C814804F044FD4FF4E1534FF4967299
S1134F40DFF8E017204605F09BF8DFF888030178C6
S1134F50A1714178E17181782172C0786072A07D7D
S1134F60032801F25486DFE810F0E303060005008D
S1134F70040044E719E7EFE61422DFF8B01C6E489A
S1134F8004F01EFD14230122DFF89817204605F0D3
S1134F9077F8DFF840030178A1714178E1718178F5
S1134FA02172C0786072A07D032801F23086DFE8A8
S1134FB010F0BF0306000500040020E7F5E6CBE689
S1134FC01422DFF86C1C5C4804F0FAFC3C23012238
S1134FD0DFF85017204605F053F8BE480178A17158
S1134FE04178E17181782172C0786072A07D0328D4
S1134FF001F20D86DFE810F09C03060005000400B2
S1135000FDE6D2E6A8E61422DFF8281C4A4804F09C
S1135010D7FC4FF461633222DFF80817204605F00D
S11350202FF8AC480178A1714178E171817821723F
S1135030C0786072A07D032801F2E985DFE810F0F2
S11350407803060005000400D9E6AEE684E61422DF
S1135050DFF8E41B384804F0B3FC3C230A22DFF8F1
S1135060C416204605F00CF89A480178A1714178DD
S1135070E17181782172C0786072A07D032801F209
S1135080C685DFE810F05503060005000400B6E607
S11350908BE661E61422DFF85C1E274804F090FCDE
S11350A04FF461631E22DFF87C16204604F0E8FF0B
S11350B088480178A1714178E17181782172C078C2
S11350C06072A07D032801F2A285DFE810F03103AD
S11350D006000500040092E667E63DE61422DFF8C8
S11350E0641E154804F06CFC1422DFF85C1E204694
S11350F004F066FC77480178A1714178E171817808
S11351002172C0786072A07D002800F0118301280C
S11351103FF422AE03283FF472AE01F078BD1422AE
S1135120DFF87C1EDDE71422DFF8781ED9E700BF24
S1135130F01E002034DF0100741F00201422DFF869
S1135140941EDFF8940E04F03BFC4FF4FA63002243
S1135150DFF8D015204604F093FF5E480178A17172
S11351604178E17181782172C0786072A07D032852
S113517001F24D85DFE810F0DC02060005000400B2
S11351803DE612E6E8E51422DFF8581EDFF8480E83
S113519004F016FC3C231422DFF88815204604F0A2
S11351A06FFF4C480178A1714178E17181782172D7
S11351B0C0786072A07D032801F22985DFE810F031
S11351C0B80206000500040019E6EEE5C4E5142261
S11351D0DFF8881EDFF8000E04F0F2FB40F6C4137B
S11351E00522DFF84015204604F04AFF39480178CB
S11351F0A1714178E17181782172C0786072A07DDB
S1135200032801F20485DFE810F09302060005008C
S11352100400F4E5C9E59FE51422DFF8C81EDFF8B1
S1135220B80D04F0CDFB1422DFF8BC1E204604F0B8
S1135230C7FB28480178A1714178E1718178217216
S1135240C0786072A07D002800F0728202283FF4CA
S1135250ACAD5FE71422DFF8BC1EDFF87C0D04F070
S1135260AFFB1422DFF8D81E204604F0A9FB19482E
S11352700178A1714178E17181782172C0786072FE
S1135280A07D002800F0548202283FF48EAD41E74F
S11352901422DFF8D81EDFF8400D04F091FB14222D
S11352A0DFF8CC1E23E71422DFF8C81EDFF8280D30
S11352B004F086FB1422DFF8B81E18E748DF01006B
S11352C05CDF010070DF010084DF010098DF010072
S11352D0ACDF0100141F00201422DFF8C41EDFF825
S11352E0F80C04F06DFB1422DFF8B81E204604F01D
S11352F067FBDFF8B40E0178A1714178E171817820
S11353002172C0786072A07D002800F0118202280A
S11353103FF44BADFEE61422DFF8D813DFF8B80CE7
S113532004F04EFB4FF4FA630A22DFF8F813204628
S113533004F0A6FEDFF8700E0178A1714178E171E6
S113534081782172C0786072A07D032801F25F84A5
S1135350DFE810F0EE010600050004004FE524E547
S1135360FAE41422DFF8B41EDFF86C0C04F028FB16
S11353701422DFF8AC1E01F029B91422DFF8A41EB0
S1135380DFF8540C04F01CFB1422DFF89C1E2046AA
S113539004F016FB7E20E07301F039BCC0DF01008D
S11353A0D4DF0100E8DF0100FCDF01001422DFF894
S11353B0741EDFF8240C04F003FB1422DFF86C1EC7
S11353C0204604F0FDFA01F020BC00BF10E001000B
S11353D024E0010038E001004CE0010060E001003D
S11353E074E0010088E001009CE00100B0E00100ED
S11353F098190020C41D0020C4E00100D8E0010079
S1135400ECE0010000E1010014E1010028E10100E9
S11354103CE1010050E1010064E1010078E1010098
S11354208CE10100A0E10100B4E10100C8E1010048
S1135430DCE10100F0E1010004E201001422DFF8E4
S1135440981EDFF8940B04F0BBFA1422DFF88C1ECC
S1135450204604F0B5FADFF8500D0178A1714178C7
S1135460E17181782172C0786072A07D002800F01B
S11354705F8102283FF499AC4CE61422DFF8B01E99
S1135480DFF8540B04F09CFA1422DFF8501E204677
S113549004F096FADFF8100D0178A1714178E171FA
S11354A081782172C0786072A07D002800F040816C
S11354B002283FF47AAC2DE61422DFF8781EDFF8D8
S11354C0180B04F07DFA1422DFF8D01E204604F0F5
S11354D077FADFF8D40C0178A1714178E171817811
S11354E02172C0786072A07D002800F0218102281A
S11354F03FF45BAC0EE61422DFF8C41EDFF8D80AD2
S113550004F05EFA1422DFF8D41D204604F058FAA1
S1135510DFF8940C0178A1714178E17181782172EE
S1135520C0786072A07D002800F0028102283FF458
S11355303CACEFE51422DFF88C1EDFF89C0A04F083
S11355403FFA42F20F730022DFF87C1E204604F07B
S113555097FDDFF8540C0178A1714178E1718178ED
S11355602172C0786072A07D032801F25083DFE8C5
S113557010F0DF00080006000400FFF740BCFFF74E
S113558014BCFFF7E9BB1422DFF8401EDFF8480A19
S113559004F016FA42F20F730022DFF82C1E2046A4
S11355A004F06EFDDFF8000C0178A1714178E1711F
S11355B081782172C0786072A07D032801F227836C
S11355C0DFE810F0B600080006000400FFF717BC7F
S11355D0FFF7EBBBFFF7C0BB1422DFF8F41DDFF8C5
S11355E0F80904F0EDF94FF47A733222DFF8D81D8C
S11355F0204604F045FDDFF8B00B0178A171417835
S1135600E17181782172C0786072A07D032801F273
S1135610FE82DFE810F08D00080006000400FFF7AA
S1135620EEBBFFF7C2BBFFF797BBDFF8A80DDFF8AF
S1135630A8196CC86CC140F637130022DFF8881D26
S1135640204604F01DFDDFF8600B0178A17141785C
S1135650E17181782172C0786072A07D032801F223
S1135660D682DFE810F06500080006000400FFF7AA
S1135670C6BBFFF79ABBFFF76FBB1422DFF8581DB8
S1135680DFF8540904F09CF91E230522DFF8381DC5
S1135690204604F0F5FCDFF8100B0178A171417885
S11356A0E17181782172C0786072A07D032801F2D3
S11356B0AE82DFE810F03D003B0039000400FFF744
S11356C09EBB00BF18E201002CE2010040E2010091
S11356D054E2010068E201007CE2010090E2010072
S11356E0A4E20100B8E20100CCE20100E0E2010022
S11356F0F4E2010008E301001CE3010030E30100CF
S113570044E3010058E301006CE3010080E301007D
S113571094E30100A8E30100BCE30100D0E301002D
S1135720E4E301000CE40100FFF73FBBFFF714BB07
S1135730CE206076012001F06BBA1422D849DFF83C
S1135740980804F03DF91422DFF8881E204604F07E
S113575037F901F05CBA1422E949DFF87C0804F057
S11357602FF91422DFF86C1E204604F029F901F009
S11357704EBA1422DFF8E813DFF85C0804F020F9CD
S11357801422DFF8501E204604F01AF901F03FBA43
S11357901422DFF81814DFF8400804F011F9142279
S11357A0DFF8301E204604F00BF901F030BA142261
S11357B0DFF8FC13DFF8200804F002F91422DFF804
S11357C0141E204604F0FCF801F021BA1422DFF87C
S11357D04C14DFF8040804F0F3F81422DFF8F41D85
S11357E0204604F0EDF801F012BA1422DFF8301468
S11357F0DFF8E40704F0E4F81422DFF8D81D2046AB
S113580004F0DEF801F003BA1422DFF81814DFF80C
S1135810C80704F0D5F81422DFF8B81D204604F0B8
S1135820CFF801F0F4B91422DFF8FC13DFF8A8076D
S113583004F0C6F81422DFF89C1D204604F0C0F8DA
S113584001F0E5B91422DFF8E413DFF88C0704F063
S1135850B7F81422DFF87C1D204604F0B1F801F0FB
S1135860D6B91422F249DFF8700704F0A9F814221B
S1135870DFF8601D204604F0A3F801F0C8B9142233
S1135880EC49DFF8540704F09BF81422DFF8441DB8
S1135890204604F095F801F0BAB91422E649DFF87D
S11358A0380704F08DF81422DFF8281D204604F090
S11358B087F801F0ACB91422DFF83816DFF81807BE
S11358C004F07EF81422DFF80C1D204604F078F86A
S11358D001F09DB91422DFF82C1EDFF8FC0604F059
S11358E06FF81422DFF8EC1C204604F069F801F08C
S11358F08EB91422DFF8A816DFF8DC0604F060F88D
S11359001422DFF8D01C204604F05AF801F07FB9C5
S11359101422DFF89016DFF8C00604F051F81422C0
S1135920DFF8B01C204604F04BF801F070B91422E3
S1135930DFF8201EDFF8A00604F042F81422DFF896
S1135940941C204604F03CF801F061B91422DFF8FD
S11359509416DFF8840604F033F81422DFF8741C7C
S1135960204604F02DF801F052B91422DFF8EC16A9
S1135970DFF8640604F024F81422DFF8581C2046EB
S113598004F01EF801F043B91422DFF85817DFF8C9
S1135990480604F015F81422DFF8381C204604F0F9
S11359A00FF801F034B91422DFF86817DFF828067D
S11359B004F006F81422DFF81C1C204604F000F85A
S11359C001F025B91422DFF8341EDFF80C0603F0C9
S11359D0F7FF1422DFF8FC1B204603F0F1FF01F06F
S11359E016B91422DFF8181EDFF8EC0503F0E8FFFF
S11359F01422DFF8E01B204603F0E2FF01F007B9B0
S1135A001422DFF89C17DFF8D00503F0D9FF142225
S1135A10DFF8C01B204603F0D3FF01F0F8B81422CE
S1135A20DFF8B418DFF8B00503F0CAFF1422DFF87A
S1135A30A41B204603F0C4FF01F0E9B81422DFF8E8
S1135A40F018DFF8940503F0BBFF1422DFF8841B81
S1135A50204603F0B5FF01F0DAB81422DFF8D418B9
S1135A60DFF8740503F0ACFF1422DFF8681B20464E
S1135A7003F0A6FF01F0CBB81422DFF84419DFF8D5
S1135A80580503F09DFF1422DFF8481B204603F05D
S1135A9097FF01F0BCB81422DFF8281902E000BF18
S1135AA0F8E30100DFF8300503F08AFF1422DFF881
S1135AB0241B204603F084FF01F0A9B81422DFF868
S1135AC00C19DFF8140503F07BFF1422DFF8041B24
S1135AD0204603F075FF01F09AB81422DFF8F0189D
S1135AE0DFF8F40403F06CFF1422DFF8E81A204610
S1135AF003F066FF01F08BB8DFF8D80802E000BFBE
S1135B0020E40100DFF8D0146CC86CC11422DFF863
S1135B10C41A204603F054FF01F079B81422DFF8C8
S1135B20B818DFF8B40403F04BFF1422DFF8A41A0A
S1135B30204603F045FF01F06AB81422DFF8F41D93
S1135B40DFF8940403F03CFF1422DFF8EC1D204638
S1135B5003F036FF0020A0767E2000F090BD00BF49
S1135B6034E401001422DFF8CC1DDFF86C0403F0E8
S1135B7027FF1422DFF8041E204603F021FF7F20B4
S1135B8020707E20E07301F042B81422DFF8A41DD7
S1135B90DFF8440403F014FF1422DFF8E41D204668
S1135BA003F00EFF0020A076C8E100BF48E4010026
S1135BB05CE401001422DFF8CC1DDFF81C0403F0C0
S1135BC0FFFE1422DFF8C01D204603F0F9FE00207A
S1135BD0A076DFF8B80D007800F001010129A4BF18
S1135BE04821A17000F002010129A4BF482161717C
S1135BF000F004010129A4BF4821217200F008012A
S1135C000129A4BF4821E17200F010000128C1F26B
S1135C1000804820A07300F0FCBF00BF70E40100C6
S1135C2084E4010098E40100ACE40100C0E4010054
S1135C30D4E40100E8E40100FCE401001422DFF8EC
S1135C40A01DE548DFF89C5D03F0BAFE0020A076B5
S1135C50DFF8941DDFF8940D007800F001000128AE
S1135C60ACBFDEA2DEA2284604F00AFA214628468A
S1135C7003F06BFD7E2000F002BD1422DFF8601DEE
S1135C80D548DFF8605D03F09BFE0020A076DFF8C6
S1135C90EC1DDFF8580D007800F002000128ACBFBD
S1135CA0CEA2CFA2284604F0EBF92146284603F001
S1135CB04CFD7F2020707E2000F0E1BC1422DFF830
S1135CC0201DC548DFF81C5D03F07AFE0020A07695
S1135CD0DFF8E01DDFF8140D007800F0040001285F
S1135CE0ACBFBEA2BEA2284604F0CAF9214628468B
S1135CF003F02BFD7F2020707E2000F0C0BC142216
S1135D00DFF8DC1CB448DFF8DC5C03F059FE00204B
S1135D10A076DFF8A41DDFF8D40C007800F00800AA
S1135D200128ACBFADA2AEA2284604F0A9F92146D1
S1135D30284603F00AFD7F2020707E2000F09FBCDF
S1135D401422DFF89C1CA448DFF8985C03F038FEAA
S1135D500020A076DFF8881DDFF8900C007800F0B2
S1135D6010000128ACBF9DA29DA2284604F088F92A
S1135D702146284603F0E9FC7F2020707E2000F0B5
S1135D807EBC1422DFF8581C9348DFF8585C03F0FB
S1135D9017FE0020A076DFF84C1DDFF8500C0078C9
S1135DA000F020000128ACBF8CA28DA2284604F08C
S1135DB067F92146284603F0C8FC7F2020707E2026
S1135DC000F05DBC1422DFF8181C8348DFF8145C73
S1135DD003F0F6FD0020A076DFF80C1DDFF80C0CB4
S1135DE0007800F040000128ACBF7CA27CA22846C9
S1135DF004F046F92146284603F0A7FC7F202070D2
S1135E007E2000F03CBC1422DFF8D41B7248DFF87B
S1135E10D45B03F0D5FD0020A076DFF8D81CDFF8B2
S1135E20CC0B007800F080000128ACBF6BA26CA200
S1135E30284604F025F92146284603F086FC7F20F5
S1135E4020707E2000F01BBC1422DFF8941B6248F3
S1135E50DFF8905B03F0B4FD0020A076DFF8981C17
S1135E60DFF8880B008800F480700128ACBF5BA2C7
S1135E705BA2284604F004F92146284603F065FC99
S1135E807F2020707E2000F0FABB1422DFF86C1C07
S1135E90514803F095FD0020A0761422DFF8601C21
S1135EA0204603F08DFD7E2000F0E9BB1422DFF8CC
S1135EB04C1C494803F084FD1422DFF8481C20469A
S1135EC003F07EFD7F2020707E20E07300F09FBEF3
S1135ED01422DFF8281C404803F072FD1422DFF876
S1135EE03C1D204603F06CFD7F2020707E20E07373
S1135EF000F08DBE10E501001422DFF8001C3648C6
S1135F0003F05EFD0020A0761422DFF8141D204665
S1135F1003F056FD7F2020707E20E07300F077BEF2
S1135F201422DFF8D81B2C4803F04AFD0020A07689
S1135F301422DFF8F01C204603F042FD7F2020707D
S1135F4000F067BE24E5010038E501001422DFF803
S1135F50D81C2148DFF88C5A03F032FD0020A076CB
S1135F60DFF8C81CDFF8C80C0978406801290CD197
S1135F7004F0A0F8DFF8BC2CDFF8BC3C04F0C6F851
S1135F800B460246DFF8B41C05E004F093F80B4618
S1135F900246DFF8AC1C284604F072F877E000BF34
S1135FA04CE5010060E501001422DFF8981C0A4862
S1135FB0DFF8305A03F004FD0020A0766421DFF8F6
S1135FC0880C006890FBF1F2DFF8801C284604F08E
S1135FD057F85CE074E50100741F00204F4646004A
S1135FE04F4E000088E501001422DFF8641CDFF83E
S1135FF0640CDFF8F05903F0E3FC0020A076DFF82E
S1136000581CDFF8580C0068086004F051F9DFF8F8
S1136010501C04F067F904F04DF80B460246DFF813
S1136020441C31E01422DFF8401CDFF8280CDFF8B0
S1136030B45903F0C5FC0020A076DFF8300C0068EA
S113604004F036F9DFF8281C04F04CF904F032F8B7
S11360500B460246DFF81C1C16E000BF9CE501005D
S11360601422DFF8141CDFF8EC0BDFF8785903F086
S1136070A7FC0020A076DFF8040C006804F01AF8EE
S11360800B460246DFF8F81B284603F0F9FF2146C9
S1136090284603F05AFB00F0BCBD1422DFF8F01BC5
S11360A0DFF8B00B03F08CFC1422DFF8E81B204669
S11360B003F086FC7E20E07300F0A9BD1422DFF813
S11360C0D01BDFF8900B03F07BFC1422DFF8C81B15
S11360D0204603F075FC7F2020707E20E07300F0E2
S11360E096BD00BFB0E50100C4E501001422DFF84D
S11360F0A01BDFF8600B03F063FC1422DFF89C1B89
S1136100204603F05DFC7F2020707E20E07300F0C9
S11361107EBD00BFD8E501001422DFF8741BDFF850
S1136120340B03F04DFC1422DFF8741B204603F0FB
S113613047FC7F2020707E20E07300F068BD00BF24
S1136140ECE501001422DFF8481BDFF8080B03F02C
S113615037FC1422DFF84C1B204603F031FC7F206F
S113616020707E20E07300F052BD00BF00E6010005
S113617014E6010028E601001422DFF8141BDFF8FE
S1136180D40A03F01DFC1422DFF81C1B204603F084
S113619017FC7F2020707E20E07300F038BD00BF24
S11361A03CE6010050E60100141F00201422DFF831
S11361B0E01ADFF8A00A03F003FC1422DFF8EC1A5B
S11361C0204603F0FDFB7F2020707E20E07300F06A
S11361D01EBD1422DFF8B81ADFF8780A03F0F0FBCA
S11361E01422DFF8CC1A204603F0EAFB00F00DBDC0
S11361F0DFF8F8174FF6F47008802A20CCE1142257
S1136200DFF8B01ADFF84C0A03F0DAFB1422DFF8E7
S1136210841A204603F0D4FB00F0F9BC64E60100C4
S113622078E601008CE60100A0E60100B4E6010076
S11362301422DFF8841ADFF81C0A03F0C1FB1422CD
S1136240DFF8781A204603F0BBFB0120A076DFF8C4
S1136250700A017861714178A17181782172C078E6
S11362606072A07D032800F2D484DFE810F03900C6
S113627004003B003D00CE203BE01422DFF8441A2A
S1136280DFF8D00903F09CFB1422DFF83C1A204607
S113629003F096FBDFF8280A017861714178A17157
S11362A02D21E17181782172C17861722D21A17251
S11362B00179E172407920730120A076A07D052840
S11362C000F2A784DFE810F00C0006000E001000B6
S11362D012001400CFE700BFC8E60100DCE60100AD
S11362E0CD2006E0D02004E0D12002E0D32000E05D
S11362F0D420607600F08DBC1422DFF8D019DFF8CA
S1136300540903F05DFB1422B249204603F058FB04
S113631000F07DBC1422DFF8B819DFF8380903F067
S11363204FFB1422AB49204603F04AFB00F06FBC3C
S1136330F0E6010004E701001422DFF89819DFF801
S1136340140903F03DFB1422DFF88C19204603F0F6
S113635037FB7E20E07300F05ABC1422DFF8741976
S1136360DFF8F00803F02CFB1422DFF87019204644
S113637003F026FB00F049BC1422DFF86419DFF8AF
S1136380D40803F01DFB1422DFF84C19204603F057
S113639017FB7E20E07300F03ABC00BF18E7010051
S11363A01422DFF83C19DFF8AC0803F009FB1422CF
S11363B0DFF82819204603F003FB00F026BC00BFD9
S11363C02CE7010040E7010054E7010064E7010005
S11363D078E701008CE701009CE70100DFF8045630
S11363E02022294640F2FD2003F016FC002085F807
S11363F020000021DFF8EC08DFF858680170A4F1F0
S1136400100231462B78FBB10778102F03DA0B709A
S113641000234B7002E01370002353707B1C037045
S11364206F788FB1DBB2102B03DA4F7000278F70B7
S113643002E05770002797705B1C0370921C891C44
S1136440AD1CDBB2202BDDDB0178202980F2E18357
S1136450102904DA20238B558A19002304E00A1931
S1136460202302F8103D00235370491C0170EBE710
S1136470DFF870552022294640F21D3003F0CCFB92
S1136480002085F820000021DFF85808DFF8C467F1
S11364900170A4F1100231462B78FBB10778102F5C
S11364A003DA0B7000234B7002E013700023537067
S11364B07B1C03706F788FB1DBB2102B03DA4F7043
S11364C000278F7002E05770002797705B1C0370E1
S11364D0921C891CAD1CDBB2202BDDDB017820294A
S11364E080F29783102904DA20238B558A1900231C
S11364F004E00A19202302F8103D00235370491CBC
S11365000170EBE7A37D0022190016D0DFF8B00775
S1136510DFF84067185C1D19A3F1480703F1640113
S1136520102BB9BF98558E4605F8100CBE46521C68
S1136530D2B29A4284F819E0F2D3DFF8A8070270C5
S1136540102B207FB9BFDFF80C279854191901F8D4
S1136550100C01205CE3DFF890070178CB3908D0F8
S1136560091F06D0891E022903D9C91E02290BD985
S11365700CE01422DFF87417DFF8D80603F020FAD1
S11365801422DFF86C1721E0B02005E0617F491C7C
S11365906177C9B211B1B12020623AE3CF21017011
S11365A037E31422DFF84417DFF8A80603F008FAEB
S11365B01422DFF8401709E01422DFF83017DFF85F
S11365C0940603F0FDF91422DFF82C17204603F09B
S11365D0F7F91EE320DF01001422DFF82017DFF8AB
S11365E0740603F0EDF91422DFF81417204603F0C3
S11365F0E7F9DFF8F80301884FF6F07211400180E3
S113660007E30020A076DFF8FC060078401E0ED0D9
S1136610401E032803D9401F042804D90BE00A2292
S1136620DFF8E4160AE00922DFF8E01606E00B22A0
S1136630DFF8DC1602E00922DFF8D816DFF8A4033D
S1136640DFF8A05303F0ACF9DFF80816284603F08E
S11366507CF8DFF8C40600686421B0FBF1F2DFF8CF
S1136660EC15284603F00CFD2146284603F06DF88E
S1136670DFF8A8060068002800F0CB822120E07330
S1136680C7E21422DFF89816DFF8C80503F098F97A
S11366901422DFF89016204603F092F9B7E20020A6
S11366A0A076DFF86076DFF880663878CD4D0F2865
S11366B000F2B280DFE800F0080B141D28455059A1
S11366C0626B747D868F98A6DFF86006A2E00522CF
S11366D0DFF85C16284603F063F9DFF8580699E002
S11366E00A22DFF85416284603F05AF9DFF84C065C
S11366F090E00722DFF84816284603F051F9DFF846
S1136700440687E0B0E701000622DFF83C1628467D
S113671003F046F9DFF83406DFF834160068097828
S113672069B9DFF83016DFF81C2609681268484397
S1136730DFF8081609685118B0FBF1F06BE0400867
S113674069E01022DFF81016284603F029F9DFF873
S11367500C065FE0C4E701000922DFF8B8152846FB
S113676003F01EF9DFF8CC0554E00E22DFF8F01533
S1136770284603F015F9DFF8EC054BE00F22DFF8AB
S1136780E815284603F00CF9DFF8E00542E00D2295
S1136790DFF8DC15284603F003F9DFF8D80539E003
S11367A00E22DFF8D415284603F0FAF8DFF8CC05FA
S11367B030E00A22DFF8C815284603F0F1F8DFF8C4
S11367C0C40527E01122DFF8C015284603F0E8F8D5
S11367D0DFF860051EE01022DFF8B015284603F04C
S11367E0DFF8DFF8AC0515E00C22DFF8A815284621
S11367F003F0D6F8DFF8A00500780CE0D8E7010034
S1136800ECE701000D22DFF89415284603F0C8F8E0
S1136810DFF88C0500683060DFF83814284602F091
S113682094FF3878012803D10622DFF8781504E0B4
S1136830062806D10622DFF87015284603F0B0F8C2
S113684010E0DFF8F01430680968411A11F10A0FFA
S1136850B8BF0146DFF8540501600A46A3A12846E3
S113686003F00EFCDFF848753268A1A1384603F046
S113687007FC3946284603F0B3FD214602F065FFC4
S11368807F2020707E20E073C1E11422DFF82415FC
S1136890DFF8C003534D03F093F8DFF81C050368D9
S11368A0DFF818050068191ADFF8000548BF002151
S11368B001600A46DFF80815284603F0E1FB21468B
S11368C0284602F042FF7F2020707E20E0739EE184
S11368D01422DFF8F014DFF87C03424D03F070F863
S11368E0DFF84813DFF8E0040978006801290AD1C9
S11368F003F0E0FBCF4AD04B03F008FC0B46024602
S1136900DFF8C81460E003F079FD0246DFF8C01434
S1136910284603F0B5FB5AE01422DFF8B814CD483A
S1136920DFF8046403F04CF800203080DFF8A8148A
S11369300CE000BF00E8010014E801005A5C1AB141
S113694010187278521C72705A1C32703378052BEE
S1136950F4DB7178234DB0FBF1F2DFF88004DFF84B
S113696080140260284603F08BFB2146284602F07F
S1136970ECFE7F2020707E20E07348E128E80100CF
S11369803CE8010050E8010064E801003C1D0020DF
S11369901422DFF85014AF48124D03F011F8A34944
S11369A0A34809784068012909D103F083FBA14A6F
S11369B0A14B03F0ABFB0B460246A04904E003F0F5
S11369C079FB0B4602469E49284603F059FB2146B3
S11369D0284602F0BAFE7F2020707E20E07316E184
S11369E078E80100981900208CE8010010200020AC
S11369F01422DFF8F4139748DFF8F05302F0E0FFB5
S1136A00DFF8EC03006803F053FCDFF8E81303F04D
S1136A1069FC03F04FFB02460B46DFF8DC13284603
S1136A2003F02EFB2146284602F08FFE7F202070C3
S1136A307E20E073EBE01422DFF8C0138548DFF812
S1136A40AC5302F0BDFFDFF8B803006803F030FC7C
S1136A50DFF8A01303F046FC03F02CFB02460B46C0
S1136A60DFF89413284603F00BFB2146284602F076
S1136A706CFE7F2020707E20E073C8E098E801005F
S1136A801422E0497348D94D02F09AFF7B4800680C
S1136A9003F010FB02460B467949284603F0F0FA4E
S1136AA02146284602F051FE7F2020707E20E073AC
S1136AB0ADE000BFA4E80100ACE801001422D24913
S1136AC06448CA4D02F07CFF94480068002814BF53
S1136AD06CA26DA26DA1284603F0D2FA91E000BF2A
S1136AE0B4E80100BCE80100CCE801002564000022
S1136AF02F256400DCE80100E8E80100F4E8010067
S1136B0008E901001CE90100002020E001201EE04A
S1136B1002201CE003201AE0042018E0052016E0FF
S1136B20062014E0072012E0082010E009200EE0FF
S1136B300A200CE00B200AE00C2008E00D2006E0FF
S1136B400E2004E00F2002E0102000E01120FDF7E9
S1136B5011FB5EE03F4EAD491422304602F030FF97
S1136B606E480068C0F3804028B1592070736520D6
S1136B70B0737320F07306228D4F394642F6BC3051
S1136B8003F04AF83879994D7B783A78A049029015
S1136B90F8780190B8780090284603F071FA002044
S1136BA028742146284602F0D0FD7F2020707E20E4
S1136BB0E0732CE0274E97491422304602F000FF80
S1136BC056480068C0F3005028B1592070736520FE
S1136BD0B0737320F0730622754F394642F6C830FD
S1136BE003F01AF83879814D7B783A788849029015
S1136BF0F8780190B8780090284603F041FA002014
S1136C0028742146284602F0A0FD7F202070002031
S1136C10A07603B0BDE8F04002F078BA30E9010094
S1136C2044E9010058E901006CE90100B7080020BB
S1136C309807002077D5F270AAE8D03F80E90100D8
S1136C4090E901009CE9010030080020B0E901004E
S1136C50BCE90100741F0020B8070020C007002011
S1136C6000007A44D0E90100DCE90100701F002033
S1136C7000002041F0E90100FCE90100D4200020DB
S1136C8010EA0100594553004E4F000025730000DF
S1136C901CEA010030EA010044EA010058EA01005C
S1136CA06CEA010080EA010094EA0100A8EA01000C
S1136CB0BCEA0100D0EA0100E4EA0100F8EA0100BC
S1136CC0141F00200CEB010020EB010034EB010049
S1136CD048EB01005CEB010070EB010084EB010068
S1136CE098EB010009210020091E0020ACEB0100F3
S1136CF0C0EB0100D4EB0100E8EB0100FCEB010068
S1136D0010EC0100B608002024EC010030EC010076
S1136D103CEC010048EC010068200020C020002069
S1136D2054EC010068EC0100D81F0020B81F0020BB
S1136D307CEC01003420002084EC01005808002081
S1136D4090EC01005C08002098EC01006008002031
S1136D501121002038200020A0EC01006C2000202C
S1136D60B0EC010068080020C0EC01006C080020B1
S1136D70D0EC010078080020E0EC01007C08002041
S1136D80F0EC010094080020FCEC010010ED01007F
S1136D909C08002020ED0100B80800202CED010023
S1136DA08008002064DD01003CED01002820002063
S1136DB078130020C4E7010064080020702000203C
S1136DC044ED01004CED01005420002060ED010071
S1136DD06CED010074ED0100F01F00203020002054
S1136DE088ED010090ED0100A4ED01009819002048
S1136DF06C1C00200000C842B8ED0100C0ED010089
S1136E00701C0020D4ED0100E8ED0100E8DE010073
S1136E1010DF0100FCDE010070B588B0FDF770F9E9
S1136E20DFF8244CE07D012842F064810020E07505
S1136E30607D032802F25981DFE810F00400FD00B0
S1136E4070028F0F206A401ECE2802F24E81DFE8C6
S1136E5010F068105E10C701E0004C114C114C1189
S1136E60341117021A021D022002230226022902EB
S1136E702C024C11330F2F02320235023802380231
S1136E803B023E024102440247024A024D025002C2
S1136E905302560259025C025F024C11EC00EF00EF
S1136EA04C114C114C114D033011D010D210D41090
S1136EB0D61010114C1188106C106E1070107210D6
S1136EC07410761078107A107C107E108010821066
S1136ED0841086108A108C108E10901092109410CA
S1136EE0961098109A109C109E10A0104C11ED0151
S1136EF0BE10C010C210C410C610C810CA10CC10E6
S1136F00E000E000E000E000E000E000E000E0007D
S1136F10E000E000E000E000E000E000E000E0006D
S1136F20E000E000E000E000E000E000E000E0005D
S1136F30E000E0004C114C11E9004C114C114C11D3
S1136F40E000E000E000E000E000E000E000E0003D
S1136F50E0004C114C114C114C114C114C114C11C2
S1136F604C114C114C114C114C114C114C114C1135
S1136F704C114C114C114C114C114C114C114C1125
S1136F804C114C114C114C114C114C114C114C1115
S1136F904C114C114C114C114C11E000E0004C11FF
S1136FA0D8104C11CF004C11EC104C11CF004C11E7
S1136FB04C114C114C114C114C114C112311251135
S1136FC04C114C11930EF601F901FC01FF01020270
S1136FD0050208024C113A11F001F30148114C1159
S1136FE04C114C114C114C114C1160106210641076
S1136FF0207F7A2808DA401C2077C0B25C2842F04F
S113700074805D2001F016BD01F01385202001F08D
S113701011BDA17DDFF8345A485D392882F26580BC
S1137020401CFAE0732002F05FB8252002F05CB83F
S1137030262002F059B8206ACE2802F25680DFE8F2
S113704010F0660FCF002F105410E40054101F01ED
S113705054102201250128012B012E013101340194
S11370603E10541037013A013D01400143014301F0
S1137070460149014C014F015201550158015B0180
S11370805E016101640167016A015410F200291074
S11370905410381054105410D80FDA0FDC0FDE0FD0
S11370A0181016015410740F760F780F7A0F7C0F96
S11370B07E0F800F820F840F860F880F8A0F8C0F2C
S11370C08E0F920F940F960F980F9A0F9C0F9E0F8E
S11370D0A00FA20FA40FA60FA80FF500C60F5410FF
S11370E0C80FCA0FCC0FCE0FD00FD20FD40FD60FAC
S11370F05410E400E400E400E400E400E400E400EC
S1137100E400E400E400E400E400E400E400E4005B
S1137110E400E400E400E400E400E400E400E4004B
S1137120E400E400E4005410EF0054105410541030
S11371305410E400E400E400E400E400E400E400AB
S1137140E400E4005410541054105410541054101B
S1137150541054105410541054105410541054100B
S113716054105410541054105410541054105410FB
S113717054105410541054105410541054105410EB
S1137180541054105410541054105410E400E400DB
S1137190190154105410D2001C0154105410D20080
S11371A05410541054105410541054102D104010F6
S11371B054105410FE000101040107010A010D01DD
S11371C0100113015410F800FB0050105210541019
S11371D0541054105410541054106A0F6C0F6E0F46
S11371E0022001F081BF207F2128C1F222847F2860
S11371F008BF7A2001F01E84401E2077C0B25C28AC
S113720041F073875B2001F015BCA17DDFF83C5889
S1137210485D3128C1F26987401E485501F065BFB9
S1137220742001F061BF262001F05EBF4D2001F003
S11372305BBFC32001F058BFC42001F055BFBA2082
S113724001F052BFBB2001F04FBFBC2001F04CBF86
S1137250BD2001F049BFBE2001F046BFBF2001F0B0
S113726043BFC02001F040BFC12001F03DBF312029
S113727001F03ABFA82001F037BFAC2001F034BFC1
S1137280082001F031BF092001F02EBF0A2001F0CF
S11372902BBF0B2001F028BF0C2001F025BF0D20CF
S11372A001F022BF0E2001F01FBF0F2001F01CBF10
S11372B0122001F019BF132001F016BF142001F0B1
S11372C013BF152001F010BF172001F00DBF1820C7
S11372D001F00ABF192001F007BF1A2001F004BF12
S11372E01B2001F001BF1C2001F0FEBE1D2001F097
S11372F0FBBE1E2001F0F8BE1F2001F0F5BE2020C9
S113730001F0F2BE212001F0EFBE222001F0ECBE1C
S1137310232001F0E9BE242001F0E6BE206ACF2834
S113732001F2E386DFE810F0D000F50DD500E200AD
S1137330E500E10E8F0CC50C8F0CE10EE10EE10EA1
S1137340E10EE10EE10EE10EC80CCA0CCD0CD00C1E
S1137350D90CDC0CDF0CE20CE10EED0CF00CF30CA0
S1137360F60CF90CFC0CFF0C020DE10EE10EE10E23
S1137370E10EE10E1D0EB80E6B0AE10EE10E6E0A6F
S1137380720AB50A6D0E810E460B520B9301010170
S113739009011101190121012901310139014101B9
S11373A0490151015901610169019B01B701D201F0
S11373B0DA01E201EA010C0235025E028702B00240
S11373C0B802BB02E10EC402ED0216033F036803D8
S11373D07003780380038803AA03D80305043404E4
S11373E063049004BD04EA04170547057405A10568
S11373F0D105FF052F065F068F06BF06EB061807AB
S113740044077307A107D007FF072D085B087C0812
S11374109208E10EE10EE10EB208FB0828095309B7
S11374207F09A709CF09F909240AE10EE10EE10E4B
S1137430E10EE10EE10EE10EE10EE10EE10EE10ED0
S1137440E10EE10EE10EE10EE10EE10EE10EE10EC0
S1137450E10EE10EE10EE10EE10EE10EE10EE10EB0
S1137460E10EE10EE10EE10EE10EE10EE10EE10EA0
S1137470E10E980BD20B0A0B0C0BE10E540B280BEC
S11374802A0BE10E540BE10EE10EE10EE10EE10ECA
S1137490E10E260C280CCF0EE10E2A0C350C400C04
S11374A04B0C560C610C6C0C770C820C070D090DFF
S11374B00F0D150D170DE10EE10EE10EE10EE10EBB
S11374C0F500F800FB00FE00002002F0A9FF01F027
S11374D00CBE0420206205220020A075DFF8701580
S11374E0DFF8680502F06CFA01F0FFBD282001F016
S11374F0FBBDA17D0329C1F2EC82DFF85815DFF84A
S11375004C0503F013F8002814BF0520262001F0D1
S1137510EBBDD02001F0E8BDD12001F0E5BDD220C3
S113752001F0E2BDD32001F0DFBDDFF82C050068D7
S113753001F0F0FF592001F0D7BDDFF82005006805
S113754001F0E8FF5A2001F0CFBDDFF81405006810
S113755001F0E0FF5B2001F0C7BDDFF8080500681B
S113756001F0D8FF5C2001F0BFBDDFF8FC04006827
S113757001F0D0FF5D2001F0B7BDDFF8F004006832
S113758001F0C8FF5E2001F0AFBDDFF8E40400683D
S113759001F0C0FF5F2001F0A7BDDFF8D804006848
S11375A001F0B8FF602001F09FBDDFF8CC04006853
S11375B001F0B0FF612001F097BDDFF8BC0E006858
S11375C001F0A8FF622001F08FBDDFF8B00E006863
S11375D001F0A0FF632001F087BDDFF8A40E00686E
S11375E001F098FF642001F07FBDDFF8980E006879
S11375F001F090FF652001F077BDDFF88C0EDFF815
S11376004C5400680A21B0FBF1F101EB8103A0EBBB
S113761043023032EA702E22AA700A22B1FBF2F23F
S113762002EB8203A1EB4301303169706421B0FBAA
S1137630F1F00A21B0FBF1F101EB8102A0EB420071
S1137640303028700020A075662001F04DBDDFF8B1
S1137650900E006801F05EFF582001F045BDDFF890
S1137660840EDFF8E85300680A21B0FBF1F101EB66
S1137670810230316970A0EB420264213032B0FBE8
S1137680F1F0EA70303028702E22AA700020A07524
S1137690672001F029BDDFF8500EEC4D00680A2187
S11376A0B0FBF1F101EB810230316970A0EB4202D1
S11376B064213032B0FBF1F0EA70303028702E22B1
S11376C0AA700020A075682001F00EBDDFF81C0E22
S11376D0006801F01FFF692001F006BDDFF8100EFD
S11376E0006801F017FF6A2001F0FEBCDFF8040E09
S11376F0006801F00FFF6B2001F0F6BCDFF8F80D15
S1137700D24D00680A21B0FBF1F101EB8103A0EB3B
S113771043023032EA700A22B1FBF2F202EB820336
S1137720A1EB43013031A9702E2169706421B0FBB3
S1137730F1F0303028700020A0756C2001F0D4BC2A
S1137740DFF8B80DC14D00680A21B0FBF1F101EB7F
S11377508103A0EB43023032EA700A22B1FBF2F259
S113776002EB8203A1EB43013031A9702E21697031
S11377706421B0FBF1F00A21B0FBF1F101EB8102CD
S1137780A0EB4200303028700020A0756D2001F07D
S1137790ABBCDFF86C0DAD4D00680A21B0FBF1F114
S11377A001EB8103A0EB43023032EA702E22AA706F
S11377B00A22B1FBF2F202EB8203A1EB4301303166
S11377C069706421B0FBF1F00A21B0FBF1F101EB27
S11377D08102A0EB4200303028700020A0756E209A
S11377E001F082BCDFF81C0D984D00680A21B0FB43
S11377F0F1F101EB8103A0EB43023032EA702E2257
S1137800AA700A22B1FBF2F202EB8203A1EB43015C
S1137810303169706421B0FBF1F00A21B0FBF1F161
S113782001EB8102A0EB4200303028700020A075EB
S11378306F2001F059BCDFF8D00C844D00680A2198
S1137840B0FBF1F101EB8103A0EB43023032EA70AB
S11378500A22B1FBF2F202EB8203A1EB43013031C5
S1137860A9702E2169706421B0FBF1F00A21B0FBEC
S1137870F1F101EB8102A0EB4200303028700020CE
S1137880A075702001F030BCDFF8800C806801F036
S113789041FE712001F028BC722001F025BCDFF804
S11378A0700C0078002814BF7420732001F01CBCF5
S11378B0DFF8600C654D00680A21B0FBF1F101EBC3
S11378C08103A0EB43023032EA700A22B1FBF2F2E8
S11378D002EB8203A1EB43013031A9702E216970C0
S11378E06421B0FBF1F00A21B0FBF1F101EB81025C
S11378F0A0EB4200303028700020A075782001F001
S1137900F3BBDFF8540E514D00680A21B0FBF1F1CE
S113791001EB8103A0EB43023032EA700A22B1FB8F
S1137920F2F202EB8203A1EB43013031A9702E2164
S113793069706421B0FBF1F00A21B0FBF1F101EBB5
S11379408102A0EB4200303028700020A07579201D
S113795001F0CABBDFF8540E3C4D00680A21B0FBAD
S1137960F1F101EB8103A0EB43023032EA700A2209
S1137970B1FBF2F202EB8203A1EB43013031A970B7
S11379802E2169706421B0FBF1F00A21B0FBF1F102
S113799001EB8102A0EB4200303028700020A0757A
S11379A07A2001F0A1BBDFF82C0E284D00680A21D3
S11379B0B0FBF1F101EB8103A0EB43023032EA703A
S11379C00A22B1FBF2F202EB8203A1EB4301303154
S11379D0A9702E2169706421B0FBF1F00A21B0FB7B
S11379E0F1F101EB8102A0EB42003030287000205D
S11379F0A0757B2001F078BBDFF8DC0D006801F096
S1137A0089FD7C2001F070BBDFF8D00D006801F027
S1137A1081FD7D2001F068BBDFF8C40D006801F032
S1137A2079FD7E2001F060BBDFF8B80D006801F03D
S1137A3071FD7F2001F058BBDFF8AC0D006801F048
S1137A4069FD802001F050BBF01E0020141F0020AF
S1137A50FCED0100C81D0020580800205C0800202F
S1137A60600800206C200020680800206C080020BA
S1137A70700800207408002078080020A17D0329E4
S1137A80C1F22780DFF8645DE878A9786B782A78FA
S1137A90DFF85C6D02EB820503EB450202EB820327
S1137AA001EB430101EB810200EB4200DFF8441DCE
S1137AB0081841F28931884230600AD2DFF8201A6E
S1137AC008600222DFF86C1E086040F2191000F012
S1137AD075BE812001F008BBA17D0329C0F2F9879E
S1137AE0DFF8085DE878A9786B782A78DFF8006D0C
S1137AF002EB820503EB450202EB820301EB430137
S1137B0001EB810200EB4200DFF8E81C0818811E3B
S1137B101D2930600AD2DFF8201E08600122DFF838
S1137B20141E08604FF4817000F048BE822001F0FA
S1137B30DBBAA17D0329C0F2CC87DFF8B05CE8781A
S1137B40A9786B782A78DFF8A86C02EB820503EB3E
S1137B50450202EB820301EB430101EB810200EBDE
S1137B604200DFF8901C0818A0F10A01B1F5F57F76
S1137B7030600AD8DFF8501E08600222DFF8B41D16
S1137B80086040F2031000F019BE832001F0ACBA83
S1137B90A17D0329C0F29D87DFF8505CE878A978BD
S1137BA06B782A78DFF8486C02EB820503EB450218
S1137BB002EB820301EB430101EB810200EB420083
S1137BC0DFF8301C0818A0F10A01B1F5F57F306028
S1137BD00AD8DFF83C1E08600222DFF8581D08604E
S1137BE040F2051000F0EABD842001F07DBAA17DC9
S1137BF00329C0F26E87DFF8F45BE878A9786B7824
S1137C002A78DFF8EC6B02EB820503EB450202EB0A
S1137C10820301EB430101EB810200EB4200DFF838
S1137C20D41B0818B0F5FA7F30600AD8DFF8241E98
S1137C3008600222DFF8FC1C086040F2071000F024
S1137C40BDBD852001F050BAA17D0329C0F2418752
S1137C50DFF8985BE878A9786B782A78DFF8906B7E
S1137C6002EB820503EB450202EB820301EB4301C5
S1137C7001EB810200EB4200DFF8781B081830604A
S1137C800CD0C9280AD2DFF8341E08600222DFF8BB
S1137C90A41C086040F2091000F090BD862001F099
S1137CA023BAA17D0329C0F21487DFF8405BE8788A
S1137CB0A9786B782A78DFF8386B02EB820503EB3E
S1137CC0450202EB820301EB430101EB810200EB6D
S1137CD04200DFF8201B081830600CD0C9280AD2F3
S1137CE0DFF8DC1D08600222DFF8481C086040F25F
S1137CF00B1000F063BD872001F0F6B9A17D0329C4
S1137D00C0F2E786DFF8E45AE878A9786B782A7835
S1137D10DFF8DC6A02EB820503EB450202EB820327
S1137D2001EB430101EB810200EB4200DFF8C41ACE
S1137D30081830600CD0C9280AD2DFF8201E086069
S1137D400222DFF8F01B086040F20D1000F036BD8F
S1137D50882001F0C9B9A17D0329C0F2BA86DFF8F1
S1137D608C5AE878A9786B782A78DFF8846A02EB71
S1137D70820503EB450202EB820301EB430101EBB5
S1137D80810200EB4200DFF86C1A41F6F522081874
S1137D90A0F59671914230600AD2DFF8C41D0860E4
S1137DA00222DFF8901B086040F20F1000F006BDBD
S1137DB0892001F099B9A17D0329C0F28A86DFF8F0
S1137DC02C5AE878A9786B782A78DFF8246A02EBD1
S1137DD0820503EB450202EB820301EB430101EB55
S1137DE0810200EB4200DFF80C1A081830600CD056
S1137DF015280AD2DFF86C1D08600122DFF8341B55
S1137E00086040F2111000F0D9BC8A2001F06CB96E
S1137E10A17D0329C0F25D86DFF8D059E878A978FE
S1137E206B782A78DFF8C86902EB820503EB450218
S1137E3002EB820301EB430101EB810200EB420000
S1137E40DFF8B019081830600CD03D280AD2DFF8EA
S1137E50281608600122DFF8DC1A08604FF48970E4
S1137E6000F0ACBC8B2001F03FB9A17D0329C0F226
S1137E703086DFF87859E878A9786B782A78DFF8C3
S1137E80706902EB820503EB450202EB820301EB0E
S1137E90430101EB810200EB4200DFF8581940F680
S1137EA0DF520818A0F13201914230600AD2DFF8A3
S1137EB0CC1508600222DFF87C1A086040F2131027
S1137EC000F07CBC8C2001F00FB9A17D0329C0F225
S1137ED00086DFF81859E878A9786B782A78DFF8F3
S1137EE0106902EB820503EB450202EB820301EB0E
S1137EF0430101EB810200EB4200DFF8F818081897
S1137F00A0F10A01332930600AD2DFF87415086041
S1137F100122DFF8201A086040F2151000F04EBC70
S1137F208D2001F0E1B8A17D0329C0F2D285DFF8EC
S1137F30BC58E878A9786B782A78DFF8B46802EB43
S1137F40820503EB450202EB820301EB430101EBE3
S1137F50810200EB4200DFF89C1840F6F352081847
S1137F60A0F11E01914230600AD2DFF818150860B2
S1137F700222DFF8C01908604FF48B7000F01EBCB9
S1137F808E2001F0B1B8A17D032908DA481CA07540
S1137F90C0B2022841F0A980032000F09BBDDFF8A5
S1137FA04C58DFF84C682A786B78A2F1300000EB6B
S1137FB08001A3F1300000EB4102E878303802EB95
S1137FC0820100EB41006528306009D2DFF8B81463
S1137FD008600122DFF85C1908604FF48C70EDE34F
S1137FE08F2001F081B8A17D032908DA481CA0750F
S1137FF0C0B2022841F07980032000F06BBDDFF8A5
S1138000EC57DFF8EC672A786B78A2F1300000EBCC
S11380108001A3F1300000EB4102E878303802EB34
S1138020820100EB41006528306009D2DFF8B41406
S113803008600122DFF8FC18086040F21B10BDE361
S1138040902001F051B8A17D032908DA481CA075DD
S1138050C0B2022841F04980032000F03BBDDFF8A4
S11380608C57DFF88C672A786B78A2F1300000EB2C
S11380708001A3F1300000EB4102E878303802EBD4
S1138080820100EB41006528306009D2DFF8581402
S113809008600122DFF89C1808604FF48E708DE3AD
S11380A0912001F021B8A17D0329C0F21285DFF8E7
S11380B03C57E878A9786B782A78DFF8346702EBC4
S11380C0820503EB450202EB820301EB430101EB62
S11380D0810200EB4200DFF81C170818B0F5FA6FB4
S11380E0306009D8DFF8041408600222DFF844186D
S11380F0086040F21D1061E3922000F0F5BFA17DFD
S11381000329C0F2E684DFF8E456E878A9786B78AE
S11381102A78DFF8DC6602EB820503EB450202EB0A
S1138120820301EB430101EB810200EB4200DFF823
S1138130C4160818A0F114012929306009D2DFF807
S1138140B01308600122DFF8EC17086040F21F103A
S113815034E3932000F0C8BFA17D0329C0F2B984A1
S1138160DFF88856E878A9786B782A78DFF8806693
S113817002EB820503EB450202EB820301EB4301B0
S113818001EB810200EB4200DFF868160818411F7A
S1138190B1F51C6F306008D2D64908600222DFF8BE
S11381A0941708604FF4907008E3942000F09CBF8B
S11381B0A17D032908DA481CA075C0B2012840F04B
S11381C09487022000F086BCDFF82056DFF8206692
S11381D02A78A978E878303A303902EB820301EB47
S11381E04301303801EB810200EB4200A0F1190198
S11381F0B029306008D2C04908600222DFF8341781
S1138200086040F22310D9E2952000F06DBFA17DF3
S1138210032908DA481CA075C0B2012840F065871C
S1138220022000F057BCDFF8C455DFF8C4652A7893
S1138230A978E878303A303902EB820301EB430144
S1138240303801EB810200EB4200B0F57A7F3060F8
S113825008D2AA4908600222DFF8D816086040F262
S11382602510ABE2962000F03FBFA17D032908DA78
S1138270481CA075C0B2022840F03787032000F0E4
S113828029BCDFF86855DFF868652A786B78A2F1B5
S1138290300000EB8001A3F1300000EB4102E878EC
S11382A0303802EB820100EB41007928306008D2BB
S11382B0934908600222DFF87C16086040F22B1014
S11382C07CE2972000F010BFA17D032908DA481C46
S11382D0A075C0B2022840F00887032000F0FABB62
S11382E0DFF80855DFF808652A786B78A2F13000CA
S11382F000EB8001A3F1300000EB4102E878303854
S113830002EB820100EB41007928306008D27D49FC
S113831008600222DFF81C16086040F22D104DE2BE
S1138320982000F0E1BEA17D032907DA481CA0755E
S1138330C0B2012840F0D9860220CBE3DFF8AC5468
S1138340DFF8AC642A78A978E878303A303902EB5F
S1138350820301EB4301303801EB810200EB420060
S1138360A0F132019729306008D2674908600222DF
S1138370DFF8C015086040F231101FE2992000F0C8
S1138380B3BEA17D0329C0F2A483DFF86054E8786A
S1138390A9786B782A78DFF8586402EB820503EB3E
S11383A0450202EB820301EB430101EB810200EB86
S11383B04200DFF8401440F2C7720818A0F10A0125
S11383C09142306008D2514988600222DFF8641576
S11383D0086040F23710F1E19A2000F085BE1422C3
S11383E0DFF8141DDFF8140D01F0EAFA1422DFF8A7
S11383F0101D204601F0E4FA00F088FE02F0B8F8FF
S11384001422DFF8001D204601F0DAFA00F07EFEA7
S113841004F0A0FE022005F08AF94C2000F064BEAE
S11384203B49002008700122DFF80815087040F26B
S1138430391001F0A9FB1422DFF8CC1C204601F00E
S1138440BFFA00F063FE012000F010BE30490120A5
S113845008700122DFF8DC14087040F2391001F0D2
S113846093FB1422DFF8A01C204601F0A9FA00F0C7
S11384704DFE012000F0FABD7C0800209408002085
S1138480980800209C08002088080020A17D03296A
S113849007DA481CA075C0B2012840F026860220E5
S11384A018E3D24DD24E2A78A978E878303A303998
S11384B002EB820301EB4301303801EB810200EB54
S11384C04200A0F13201B1F5077F306024D8114990
S11384D008600222DFF85C1408604FF4A0706DE1BC
S11384E08C080020480800204C0800206408002064
S11384F05408002090080020A0080020A4080020B0
S11385009C200020A0200020A42000209807002008
S1138510B7080020802000209B2000F0E5BDA17D4D
S1138520032907DA481CA075C0B2012840F0DD8594
S11385300220CFE2AD4DAE4E2A78A978E878303AE1
S1138540303902EB820301EB4301303801EB810245
S113855000EB4200A0F13201B1F5077F306008D88A
S11385607D4908600222DFF8CC1308604FF4A17043
S113857024E19C2000F0B8BDA17D032907DA481C42
S1138580A075C0B2012840F0B0850220A2E2974D48
S1138590974E2A78A978E878303A303902EB82038A
S11385A001EB4301303801EB810240F24F2100EB33
S11385B042008842306007D27C4908600222DD49CB
S11385C008604FF4A270F9E09D2000F08DBDA17DFC
S11385D0032907DA481CA075C0B2012840F085853C
S11385E0022077E2814D824E2A78A978E878303AE1
S11385F0303902EB820301EB4301303801EB810295
S113860000EB4200A0F13201B1F5077F306007D8DA
S1138610704908600222C74908604FF4A370CDE096
S11386209E2000F061BDA17D0329C0F252826F4DEE
S1138630E878A9786B782A786D4E02EB820503EB13
S1138640450202EB820301EB430101EB810200EBE3
S113865042006849081842F210718842306007D21B
S11386605D4908600222B34908604FF4A470A5E094
S11386709F2000F039BDA17D0329C0F22A825B4D01
S1138680E878A9786B782A78594E02EB820503EBD7
S1138690450202EB820301EB430101EB810200EB93
S11386A042005449081842F210718842306007D2DF
S11386B04A49086002229F4908604FF4A5707DE092
S11386C0A02000F011BDA17D0329C0F20282474D14
S11386D0E878A9786B782A78454E02EB820503EB9B
S11386E0450202EB820301EB430101EB810200EB43
S11386F04200404940F2B7320818A0F132019142D9
S1138700306007D23649086002228A49086040F284
S11387104D1053E0A12000F0E7BCA17D0329C0F275
S1138720D881324DE878A9786B782A78304E02EBFC
S1138730820503EB450202EB820301EB430101EBEB
S1138740810200EB42002B49081840F63811884298
S113875030600AD2234901E084200020086002220C
S11387607449086040F24F1028E0A22000F0BCBC1D
S1138770A17D0329C0F2AD811C4DE878A9786B78FE
S11387802A781B4E02EB820503EB450202EB8203BF
S113879001EB430101EB810200EB4200154908188B
S11387A0411F1A29306027D20F4901E08820002098
S11387B0086001225F49086040F2511001F0E4F9B9
S11387C01422DFF8081C204601F0FAF800F09EFCA1
S11387D000F08BBC8C20002080080020840800203E
S11387E0902000209420002098200020141F0020B6
S11387F030200020B02FFFFFA32000F075BC2920FB
S113880000F072BC01F050FE00F06FBC84B0DFF8E1
S1138810C01B68462C2201F0D3F80FBC05F042F8C7
S1138820DFF8882CDFF8AC1B1268DFF8845C1018C2
S11388300860084605F01AF9DFF8781C08600A2277
S11388404169643941610169491C0161816891FB95
S1138850F2F130312970816891FBF2F202EB82036C
S1138860A1EB4301303169700A22416891FBF2F1B6
S11388703031A9700A21406890FBF1F101EB8102CB
S1138880A0EB42003030E8700020A075A52000F075
S11388902BBC84B0DFF8381B68462C2201F090F81A
S11388A00FBC04F0FFFFDFF8042CDFF8281B12686C
S11388B0DFF8FC5B10180860084605F0D7F8DFF80D
S11388C0F41B086002694169521C64390261416108
S11388D00A2291FBF2F130312970416991FBF2F2E5
S11388E002EB8203A1EB4301303169700A22016972
S11388F091FBF2F13031A970016991FBF2F202EBC4
S11389008203A1EB43013031E9700A22C16891FB73
S1138910F2F1303129710A21C06890FBF1F101EBC9
S11389208102A0EB4200303068710020A075A620BF
S1138930DAE300BFD81F002058080020A920D3E3A1
S1138940DFF8C05BDFF8B4071422294601F038F8D9
S113895014222946204601F033F883A0DFF8A81B2F
S113896002780A707F2020770120A0766420607648
S11389700020A075AA20B7E3AD20B5E3DFF8845B3F
S1138980DFF878071422294601F01AF81422294640
S1138990204601F015F874A0DFF86C1B02780A7009
S11389A07F2020770120A076642060760020A075C7
S11389B0AE2099E3DFF8581BCF200870AF20206267
S11389C00020607791E300BF5C080020B2208BE3B5
S11389D0207FA17D7F282FD101291BD1DFF8245BC3
S11389E0DFF818071422294600F0EAFF142229466A
S11389F0204600F0E5FF5CA0DFF80C1B02780A704B
S1138A007F2020770120A07664206076002061E03A
S1138A1060080020002900F0688320202077FBF7FD
S1138A207FFCA07DDFF8882A401EA0750021C0B21B
S1138A3081547F20207758E3DFF8745A48557F200B
S1138A402029207780F25183481CA0750021C0B2F0
S1138A5041554AE36C200020A17D032939DBDFF86E
S1138A60505ADFF8146B2A786B78A2F1300000EBCF
S1138A708001A3F1300000EB4102182A326023D2B6
S1138A80DFF8F83A1A60A978E8783039303801EB21
S1138A90810200EB42013C29316013D2DFF8E00A85
S1138AA01A688161C261002141610020DFF8FC196C
S1138AB008600120DFF8CC1A4EE000BF68080020EF
S1138AC06C080020B3200FE3B3200DE3A17D062939
S1138AD002DA481CA07508E3DFF8D459DFF8986A75
S1138AE02A786B78A2F1300000EB8001A3F130000A
S1138AF000EB4102112A32603AD3A87800EB8001DE
S1138B00E87800EB4100A0F11001287900EB800324
S1138B10687900EB43001038D2B2C9B2C0B200F099
S1138B2079FD012822D1DFF8580A31688162A978D9
S1138B3001EB8102E97801EB4201A1F50471416284
S1138B40297901EB8102697901EB4201A1F50471F4
S1138B5001620120DFF8301A0870C6E270080020B4
S1138B60740800207808002000000000B420BBE254
S1138B70B420B9E2B820B7E2B920B5E2DFF80C0AB4
S1138B800188CA0758BF41F001015AD54FF6FE7259
S1138B9056E0DFF8F80901888A0758BF41F002015E
S1138BA04FD54FF6FD724BE0DFF8E00901884A0724
S1138BB058BF41F0040144D54FF6FB7240E0DFF8A2
S1138BC0CC0901880A0758BF41F0080139D54FF68E
S1138BD0F77235E0DFF8B4090188CA0658BF41F0DE
S1138BE010012ED54FF6EF722AE0DFF8A0090188B4
