S0390000736B2D666D332D3438706D632D757362737469636B5F7573625F6465766963655F7669727475616C5F636F6D5F706F72742E73726563CC
S113000020050020A5A10100C1A10100C5A1010096
S1130010C9A10100CDA10100D1A10100000000008F
S1130020000000000000000000000000D5A1010055
S1130030D9A1010000000000DDA10100E1A101003F
S1130040E5A10100E9A10100EDA10100F1A1010078
S1130050F5A10100F9A1010071990000F55A000011
S1130060D79F0100019C00000DA201005949010025
S113007015A20100E17700001DA2010061A20100A8
S113008061A2010021A2010025A2010061A20100D8
S113009061A2010061A2010061A2010029A2010084
S11300A02DA20100D59F010035A2010061A201002B
S11300B039A201003DA2010041A2010045A20100B4
S11300C061A2010061A20100E19F0100ED9F010016
S11300D061A2010061A2010051A2010055A2010028
S11300E059A201005DA2010061A2010061A2010008
S11300F061A2010061A2010061A2010061A20100EC
S113010038B5224DE87E012833D1214C21492046BF
S113011005F07DFE012802DB012102221BE019A16A
S1130120204605F074FE012802DB0121002212E0C2
S11301301949204605F06BFE012802DB012101224A
S113014009E011A1204605F062FEE97D6A7D0128DF
S1130150A4BF01210322E9750021287E6A75E9768E
S113016038B10E4805F09FFF2046BDE8324005F047
S11301709ABF31BD05487F217E2200230170C273DE
S1130180837670475550000045534300C4FEFF1F5B
S113019028FCFF1FFC790100047A01000C7A01009D
S11301A0F0B5DFF8C84C206AE92883B002F2BD81BB
S11301B0DFE810F0EA00F60002010E011F01580109
S11301C0F8114112511260137C139E13D4132C1492
S11301D04A1468147E149C14D0140015301560154C
S11301E0F21523165E168F16C016F1162217531732
S11301F08217AE17D91704182F185A188518BB116F
S1130200D701E301A00F2D103810B20FC40FD80F7F
S1130210EA0FFC0F10102210F40100020C02180265
S1130220240230023C024802540260026C0278024A
S1130230840290029C02A802B402C002CC02D8023A
S1130240E402F002FC020803140320032C03380325
S1130250440350035C036803740380038E039A030E
S1130260A603B203C503D403E303EF03FB030704AC
S1130270130436045D048604B004D604FC04220589
S113028048056E059305B805DE05030627064806EE
S113029052065E068206A506C906E60603070D0792
S11302A017073407580764076F077F079C07AF07D2
S11302B004082308420861088008A908D208FB083A
S11302C025094D099C09C309EA09110A380A820A59
S11302D08F0A9C0AA90AB60AC30AD00ADD0AEA0AE6
S11302E0F70A040B110B1D0B290B350B420B4F0B9B
S11302F05C0B690B760B830B900B9D0BAA0BB70B56
S1130300BB11C40BD10BDE0BEB0BF80B050C120C61
S11303101F0C2D0C62093A0C470C540C610C6E0C2A
S1130320BB114A107010C410D410FC100A11D8105C
S1130330EA1035110A118811C011CE11DE11B01066
S1130340BA107A0C890C930CAA0CD80CF80C150D65
S11303503C0D590D7A0D970DB60DD30DF40D160EF7
S11303603E0E650E9B0EAD0EBD0ECF0EE60EF80EC4
S1130370240F420F600F800F650171017D01890117
S11303809A01A701B401C1011422DFF83C1DDFF872
S11303903C0D05F0BFFE1422DFF8341D01F0B4BE9D
S11303A01422DFF8241DDFF8240D05F0B3FE142217
S11303B0DFF8201D01F0B5BD1422DFF80C1DDFF8B5
S11303C00C0D05F0A7FE1422DFF80C1D01F0A9BDE9
S11303D01422DFF8F41CDFF8F40C05F09BFE142261
S11303E0DFF8F81C204605F095FE7F20207001F010
S11303F090BE657EDFF8E81CDFF8D00C142205F00F
S113040089FE1422DFF8DC1C204605F083FEA07D63
S1130410032808D8DFE800F0020B131CDFF8C81C1F
S11304200878A071CE256576012002F012B97820F3
S1130430A071CF25DFF8B01C4878E071F3E778208D
S1130440A071E071D025DFF8A00C81782172EAE771
S11304507820A071E0712072D125DFF88C1CC87857
S11304606072E0E71422DFF8781CDFF8600C05F016
S113047051FE1422DFF8BC1C204602F0E7B8142217
S1130480DFF8B41CDFF8440C05F044FE1422DFF856
S1130490AC1C01F039BE1422DFF89C1CDFF82C0CD4
S11304A005F038FE1422DFF8981C01F03ABD14223E
S11304B0DFF8841CDFF8140C05F02CFE1422DFF89E
S11304C0841C01F02EBD1422DFF86C1CDFF8FC0B39
S11304D005F020FE1422DFF8701C204605F01AFEF9
S11304E07F20207001F015BE1422DFF8601CDFF8B5
S11304F0DC0B05F00FFE1422DFF8541C204602F03A
S1130500A5B81422DFF84C1CDFF8C00B05F002FE7E
S11305101422DFF8441C204602F098B81422DFF8B5
S11305203C1CDFF8A80B05F0F5FD1422DFF8301CA5
S1130530204602F08BB81422DFF8281CDFF88C0B5D
S1130540DFF8245C05F0E6FDDFF8200C0268DFA18B
S1130550284605F03FFE2146284605F0D5FC02F06A
S113056077B81422DFF8081CDFF8600B05F0D2FD21
S11305701422DFF8001C01F0C7BD1422DFF8F01BC1
S1130580DFF8480B05F0C6FD1422DFF8EC1B20460B
S113059005F0C0FD7F20207001F0BBBD1422DFF800
S11305A0DC1BDFF8280B05F0B5FD1422DFF8D01BA7
S11305B001F0AABD1422DFF8C41BDFF8100B05F00C
S11305C0A9FD1422DFF8BC1B01F0ABBC1422DFF838
S11305D0AC1BDFF8F80A05F09DFD1422DFF8A81B18
S11305E001F09FBC1422DFF8941BDFF8E00A05F049
S11305F091FD1422DFF8941B01F093BC1422DFF860
S11306007C1BDFF8C80A05F085FD1422DFF8801B87
S113061001F087BC1422DFF8641BDFF8B00A05F090
S113062079FD1422DFF86C1B01F07BBC1422DFF887
S11306304C1BDFF8980A05F06DFD1422DFF8581BF7
S113064001F06FBC1422DFF8341BDFF8800A05F0D8
S113065061FD1422DFF8441B01F063BC1422DFF8AF
S11306601C1BDFF8680A05F055FD1422DFF8301B67
S113067001F057BC1422DFF8041BDFF8500A05F020
S113068049FD1422DFF81C1B01F04BBC1422DFF8D7
S1130690EC1ADFF8380A05F03DFD1422DFF8081BD8
S11306A001F03FBC1422DFF8D41ADFF8200A05F069
S11306B031FD1422DFF8F41A01F033BC1422DFF800
S11306C0BC1ADFF8080A05F025FD1422DFF8E01A49
S11306D001F027BC1422DFF8A41ADFF8F00905F0B2
S11306E019FD1422DFF8CC1A01F01BBC1422DFF828
S11306F08C1ADFF8D80905F00DFD1422DFF8B81ABA
S113070001F00FBC1422DFF8741ADFF8C00905F0F9
S113071001FD1422DFF8501D01F003BC1422DFF8A0
S11307205C1ADFF8A80905F0F5FC1422DFF83C1D7B
S113073001F0F7BB1422DFF8441ADFF8900905F042
S1130740E9FC1422DFF8281D01F0EBBB1422DFF8CA
S11307502C1ADFF8780905F0DDFC1422DFF8141DEB
S113076001F0DFBB1422DFF8141ADFF8600905F08A
S1130770D1FC1422DFF8241D01F0D3BB1422DFF8CE
S1130780FC19DFF8480905F0C5FC1422DFF8101D38
S113079001F0C7BB1422DFF8E419DFF8300905F0D3
S11307A0B9FC1422DFF8FC1C01F0BBBB1422DFF8F7
S11307B0CC19DFF8180905F0ADFC1422DFF8E81CA9
S11307C001F0AFBB1422DFF8B419DFF8000905F01B
S11307D0A1FC1422DFF8D41C01F0A3BB1422DFF81F
S11307E09C19DFF8E80805F095FC1422DFF8C01C1A
S11307F001F097BB1422DFF88419DFF8D00805F064
S113080089FC1422DFF8AC1C01F08BBB1422DFF846
S11308106C19DFF8B80805F07DFC1422DFF8981C89
S113082001F07FBB1422DFF85419DFF8A00805F0AB
S113083071FC1422DFF8841C01F073BB1422DFF86E
S11308403C19DFF8880805F065FC1422DFF8701CF9
S113085001F067BB1422DFF82419DFF8700805F0F3
S113086059FC1422DFF85C1C01F05BBB1422DFF896
S11308700C19DFF8580805F04DFC1422DFF8481C69
S113088001F04FBB1422DFF8F418DFF8400805F03C
S113089041FC1422DFF8341C01F043BB1422DFF8BE
S11308A0DC18DFF8280805F035FC1422DFF8201CDA
S11308B001F037BB1422DFF8C418DFF8100805F084
S11308C029FC1422DFF80C1C01F02BBB256400006A
S11308D01422DFF8A818DFF8F40705F01BFC142233
S11308E0DFF8F41B01F01DBB1422DFF89018DFF8C9
S11308F0DC0705F00FFC1422DFF8E01B01F011BB4C
S11309001422DFF87818DFF8C40705F003FC14227A
S1130910DFF8CC1B01F005BB1422DFF86018DFF808
S1130920AC0705F0F7FB1422DFF8B81B204605F0EE
S1130930F1FB7F202070FFF71DFC01F0EABB1422BD
S1130940DFF83818DFF8840705F0E4FBDFF8980BCC
S113095090E82E0084E82E0001F0E6BA1422DFF8B5
S11309601C18DFF8680705F0D5FBDFF8000D90E8E8
S11309702E0084E82E0001F0D7BA1422DFF8FC1709
S1130980DFF8480705F0C6FB1422DFF8E41C01F089
S1130990C8BA1422DFF8E417DFF8300705F0BAFB11
S11309A01422DFF8D01C01F0BCBA1422DFF8CC17F3
S11309B0DFF8180705F0AEFB1422DFF8BC1C01F0C9
S11309C0B0BA1422DFF8B417DFF8000705F0A2FB71
S11309D01422DFF8A81C01F0DFBA1422DFF8A01CEF
S11309E0DFF8E80605F096FB41F288330022DFF8D1
S11309F0941C204605F0EEFBDFF8EC060178A171AB
S1130A004278E27181782172C278A07D62720328F3
S1130A1001F27F83DFE810F0650A26004F007900B9
S1130A201422DFF8641CDFF8A40605F073FB1E2310
S1130A300222DFF8501C204605F0CCFBDFF8A806A4
S1130A400178A1714278E27181782172C278A07D27
S1130A506272032801F25D83DFE810F0430A0400A8
S1130A602D005700CF216176012001F0F2BD142240
S1130A70DFF8181CDFF8540605F04CFB4FF4FA734A
S1130A800A22DFF8001C204605F0A4FBDFF8580614
S1130A900178A1714278E27181782172C278A07DD7
S1130AA06272032801F23583DFE810F01B0A0400A8
S1130AB005002F00D6E7D0216176012001F0C9BDE1
S1130AC01422DFF8CC1BDFF8040605F023FB4FF4F7
S1130AD0FA730A22DFF8AC1B204605F07BFBDFF833
S1130AE008060178A1714278E27181782172C27896
S1130AF0A07D6272032801F20C83DFE810F0F20992
S1130B00050004000600D6E7ACE7D1216176012098
S1130B1001F09FBD1422DFF87C1BDFF8B00505F05F
S1130B20F9FA4FF4FA730022DFF8581B204605F057
S1130B3051FBDFF8B4050178A1714278E271817844
S1130B402172C278A07D6272032801F2E282DFE89A
S1130B5010F0C809060005000400D6E7ABE781E7FA
S1130B601422DFF8341BDFF8640505F0D3FA4FF4E0
S1130B70FA630122DFF80C1B204605F02BFBDFF89B
S1130B8068050178A1714278E27181782172C27896
S1130B90A07D6272032801F2BC82DFE810F0A20992
S1130BA0060005000400B0E785E75BE71422DFF8E0
S1130BB0EC1ADFF8180505F0ADFA4FF4FA630122D8
S1130BC0DFF8C01A204605F005FBDFF81C050178A4
S1130BD0A1714278E27181782172C278A07D62723B
S1130BE0032801F29682DFE810F07C090600050074
S1130BF004008AE75FE735E71422DFF8A41ADFF878
S1130C00CC0405F087FA4FF4FA630122DFF8741A72
S1130C10204605F0DFFADFF8D0040178A1714278AC
S1130C20E27181782172C278A07D6272032801F298
S1130C307082DFE810F0560906000500040064E73E
S1130C4039E70FE71422DFF85C1ADFF8800405F0B7
S1130C5061FA4FF4E1530022DFF8281A204605F028
S1130C60B9FADFF884040178A1714278E2718178DD
S1130C702172C278A07D6272032801F24A82DFE801
S1130C8010F030090600050004003EE713E7E9E62A
S1130C901422DFF8141ADFF8340405F03BFAF023C9
S1130CA00022DFF8E019204605F094FADFF8380452
S1130CB00178A1714278E27181782172C278A07DB5
S1130CC06272032801F22582DFE810F00B090600A6
S1130CD00500040019E7EEE6C4E61422DFF8CC1997
S1130CE0DFF8E80305F016FA3C230022DFF8941934
S1130CF0204605F06FFADFF8F0030178A17142781D
S1130D00E27181782172C278A07D6272032801F2B7
S1130D100082DFE810F0E608060005000400F4E6AF
S1130D20C9E69FE61422DFF8D81DDFF8A00305F01A
S1130D30F1F94FF461633222DFF84819204605F0D7
S1130D4049FADFF8A4030178A1714278E27181784D
S1130D502172C278A07D6272032801F2DA81DFE891
S1130D6010F0C008060005000400CEE6A3E679E60C
S1130D701422DFF8901DDFF8540305F0CBF950235B
S1130D800A22DFF80019204605F024FADFF8580398
S1130D900178A1714278E27181782172C278A07DD4
S1130DA06272032801F2B581DFE810F09B080600A7
S1130DB005000400A9E67EE654E61422DFF8E01DEF
S1130DC0C24805F0A7F94FF461631E22DFF8B41896
S1130DD0204605F0FFF9C4480178A1714278E27118
S1130DE081782172C278A07D6272032801F2918118
S1130DF0DFE810F0770806000500040085E65AE6EF
S1130E0030E61422DFF8101EB04805F083F91422EE
S1130E10DFF8081E204605F07DF9B3480178A1717A
S1130E204278E27181782172A17DC07860720029D4
S1130E3001F0578001293FF415AE03293FF465AE54
S1130E4001F067B91422DFF8D81DA04805F062F953
S1130E501422DFF8D01DDDE71422DFF8CC1D9B48F7
S1130E6005F058F91422DFF8BC1DD3E7C4FEFF1FB8
S1130E701422DFF82C1E954805F04CF94FF4FA6360
S1130E800022DFF80018204605F0A4F996480178FE
S1130E90A1714278E27181782172C278A07D627278
S1130EA0032801F23681DFE810F01C080600050073
S1130EB004002AE6FFE5D5E51422DFF8E81D83489F
S1130EC005F028F93C231422DFF8B817204605F072
S1130ED081F985480178A1714278E27181782172A3
S1130EE0C278A07D6272032801F21381DFE810F05A
S1130EF0F90706000500040007E6DCE5B2E5142264
S1130F00DFF8181E714805F005F94FF47A630522DD
S1130F10DFF87017204605F05DF973480178A17178
S1130F204278E27181782172C278A07D62720328CE
S1130F3001F2EF80DFE810F0D50706000500040099
S1130F40E3E5B8E58EE51422DFF8481E5F4805F0B6
S1130F50E1F81422DFF8401E204605F0DBF8624871
S1130F600178A1714278E27181782172A17DC07803
S1130F706072002900F0B58702293FF49CAD5CE75C
S1130F801422DFF8501E514805F0C4F81422DFF88B
S1130F90481E204605F0BEF853480178A1714278F6
S1130FA0E27181782172A17DC0786072002900F01D
S1130FB0988702293FF47FAD3FE71422DFF81C1E17
S1130FC0424805F0A7F81422DFF8281E22E714226D
S1130FD0DFF8241E3D4805F09DF81422DFF8141EA6
S1130FE018E71422DFF8141E384805F093F8142289
S1130FF0DFF80C1E204605F08DF83B480178A171FE
S11310004278E27181782172A17DC07860720029F2
S113101000F0678702293FF44EAD0EE71422DFF893
S113102094142A4805F076F84FF4FA630A22DFF89C
S11310305416204605F0CEF82B480178A171427869
S1131040E27181782172C278A07D6272032801F274
S11310506080DFE810F0460706000500040054E550
S113106029E5FFE41422DFF89C1D184805F052F826
S11310701422DFF8941D204601F047BA1422DFF849
S11310808C1D124805F046F81422DFF8841D01F087
S11310903BB81422DFF8741D0C4805F03BF8142209
S11310A0DFF8781D204605F035F87F20207001F028
S11310B030B81422DFF8681D044805F02BF8142218
S11310C0DFF8601D01F020B8CC7B010048FFFF1F52
S11310D0E07B0100F47B0100087C01001C7C010022
S11310E0307C0100447C0100E8FEFF1F1422DFF87D
S11310F0301DDFF8340D05F00DF81422DFF82C1D37
S1131100204605F007F87F207E212070E17301F06E
S11311104AB91422DFF8081DDFF80C0D04F0FAFFB9
S11311201422DFF8581E204604F0F4FF7F202070BC
S113113000F0EFBF587C01006C7C0100807C010052
S1131140947C0100A87C0100BC7C0100D07C0100DF
S1131150E47C0100F87C01000C7D0100207D01008D
S1131160347D0100487D010048F9FF1F34FDFF1F55
S11311705C7D0100707D0100847D0100987D01008B
S1131180AC7D0100C07D0100D47D0100E87D01003B
S1131190FC7D0100107E0100247E0100387E0100E8
S11311A04C7E0100607E0100747E0100887E010097
S11311B09C7E0100B07E0100C47E01001422DFF891
S11311C0381EDFF8640C04F0A5FF1422DFF85C1E5F
S11311D0204604F09FFFDFF8580E0178A171427891
S11311E0E27181782172A17DC0786072002900F0DB
S11311F0788602293FF45FAC1FE61422DFF8341E20
S1131200DFF8240C04F086FF1422DFF8201E2046A9
S113121004F080FFDFF8180E0178A1714278E271C2
S113122081782172A17DC0786072002900F059860E
S113123002293FF440AC00E61422DFF8341EDFF844
S1131240E80B04F067FF1422DFF8601E204604F068
S113125061FFDFF8DC0D0178A1714278E2718178D9
S11312602172A17DC0786072002900F03A860229BB
S11312703FF421ACE1E51422DFF8341EDFF8A80BBB
S113128004F048FF1422DFF8A41D204604F042FFB6
S1131290DFF89C0D0178A1714278E27181782172A6
S11312A0A17DC0786072002900F01B8602293FF4FA
S11312B002ACC2E51422DFF8341EDFF86C0B04F034
S11312C029FF42F20F730022DFF8241E204604F0A7
S11312D081FFDFF85C0D0178A1714278E2718178B9
S11312E02172C278A07D6272032800F21287DFE8BF
S11312F010F0F805080006000400FFF706BCFFF72D
S1131300DABBFFF7AFBB1422DFF8541EDFF8180B6B
S113131004F000FF42F20F730022DFF8D41D2046D0
S113132004F058FFDFF8080D0178A1714278E271EA
S113133081782172C278A07D6272032800F2E98666
S1131340DFE810F0CF05080006000400FFF7DDBB5E
S1131350FFF7B1BBFFF786BB1422DFF8741EDFF87A
S1131360C80A04F0D7FE4FF47A733222DFF8801DE6
S1131370204604F02FFFDFF8B80C0178A171427801
S1131380E27181782172A17DC0786072032900F234
S1131390C086DFE811F0A605080006000400FFF788
S11313A0B4BBFFF788BBFFF75DBBDFF8740EDFF853
S11313B0781A90E86C0081E86C0040F6371300223C
S11313C0DFF82C1D204604F005FFDFF8640C0178DB
S11313D0A1714278E27181782172C278A07D627233
S11313E0032800F29686DFE810F07C05080006006A
S11313F00400FFF78ABBFFF75EBBFFF733BB142281
S1131400DFF8381EDFF8200A04F084FE1E230522CC
S1131410DFF8DC1C204604F0DDFEDFF8140C017854
S1131420A1714278E27181782172C278A07D6272E2
S1131430032800F26E86DFE810F054050800060069
S11314400400FFF762BBFFF736BBFFF70BBB1422A8
S1131450DFF8EC1DDFF8D00904F05CFE1422DFF89D
S1131460E41D00F051BE00BFD87E0100EC7E0100F7
S1131470007F0100147F01001422DFF8C41DDFF88F
S1131480A80904F047FE1422DFF8641E204604F085
S113149041FE7F20207000F03CBE00BF287F010089
S11314A03C7F0100507F0100647F0100787F0100D0
S11314B08C7F0100A07F0100B47F0100C87F010080
S11314C0DC7F0100F07F010004800100188001002E
S11314D02C800100408001005480010068800100DC
S11314E07C80010090800100A48001001422DFF8B8
S11314F0041EDFF8340904F00DFE1422DFF8F81D91
S1131500204604F007FEDFF8280B0178A171427829
S1131510E27181782172C278A07D6272032800F2A0
S1131520F885DFE810F0DE04080006000400FFF789
S1131530ECBAFFF7C0BAFFF795BA1422DFF8441EDD
S1131540DFF8E40804F0E6FD1422DFF8AC1D2046C1
S113155004F0E0FDDFF8D80A0178A1714278E27165
S113156081782172C278A07D6272032800F2D1854D
S1131570DFE810F0B704080006000400FFF7C5BA5E
S1131580FFF799BAFFF76EBA1422DFF8301EDFF8BE
S1131590980804F0BFFD1422DFF85C1D204604F017
S11315A0B9FDDFF88C0A0178A1714278E271817883
S11315B02172C278A07D6272032800F2AA85DFE856
S11315C010F09004080006000400FFF79EBAFFF72D
S11315D072BAFFF747BA1422DFF8E41DDFF84808AF
S11315E004F098FD1E2302222649204604F0F2FD51
S11315F0DFF83C0A0178A1714278E27181782172A6
S1131600C278A07D6272032800F28385DFE810F0BF
S11316106904080006000400FFF777BAFFF74BBA25
S1131620FFF720BA1422DFF89C1DDFF8FC0704F052
S113163071FD1E2302221349204604F0CBFDDFF87E
S1131640F0090178A1714278E27181782172C2783F
S1131650A07D6272032800F25C85DFE810F042048A
S11316602B0029000400FFF750BA00BFB48001002A
S1131670C4800100D8800100EC80010000810100D9
S113168014810100288101003C8101005081010086
S113169064810100788101008C810100A081010036
S11316A0B4810100C8810100DC810100F0810100E6
S11316B0FFF701BAFFF7D6B91422DFF8241EDFF8CA
S11316C0680704F027FD1422DFF8181E204600F0F6
S11316D0BDBF1422DFF8101EDFF84C0704F01AFD1A
S11316E01422DFF8001E204600F0B0BF1422DFF8F9
S11316F0FC1DDFF8340704F00DFD1422DFF8E41DAF
S1131700204600F0A3BF1422DFF8E41DDFF8180719
S113171004F000FD1422DFF8CC1D204600F096BF33
S11317201422DFF8281EDFF8000704F0F3FC14226B
S1131730DFF8B01D204600F089BF1422DFF8281E10
S1131740DFF8E40604F0E6FC1422DFF8981D2046D6
S113175000F07CBF1422DFF8141EDFF8CC0604F07E
S1131760D9FC1422DFF87C1D204600F06FBF142240
S1131770DFF8241EDFF8B00604F0CCFC1422DFF8F6
S1131780641D204600F062BF1422DFF8101EDFF84B
S1131790980604F0BFFC1422DFF8481D204600F030
S11317A055BF1422DFF8F81DDFF87C0604F0B2FC04
S11317B01422DFF8301D204600F048BF1422DFF861
S11317C0141EDFF8640604F0A5FC1422DFF8141DCF
S11317D0204600F03BBF1422C949DFF84C0604F050
S11317E099FC1422DFF8FC1C204600F02FBF1422C1
S11317F0C449DFF8340604F08DFC1422DFF8E41C3D
S1131800204600F023BF1422E549DFF81C0604F04B
S113181081FC1422DFF8CC1C204600F017BF1422F0
S1131820DFF8B41DDFF8000604F074FC1422DFF8BE
S1131830B41C204600F00ABF1422DFF8E413DFF8DA
S1131840E80504F067FC1422DFF8981C204600F039
S1131850FDBE1422DFF8D013DFF8CC0504F05AFCE7
S11318601422DFF8801C204600F0F0BE1422DFF8BA
S11318706C1DDFF8B40504F04DFC1422DFF8641C81
S1131880204600F0E3BE1422DFF81814DFF89805B0
S113189004F040FC1422DFF84C1C204600F0D6BEB5
S11318A01422DFF87814DFF8800504F033FC1422E6
S11318B0DFF8301C204600F0C9BE1422DFF8D4142F
S11318C0DFF8640504F026FC1422DFF8181C204617
S11318D000F0BCBE1422DFF8FC14DFF84C0504F061
S11318E019FC1422DFF8FC1B204600F0AFBE1422C2
S11318F0DFF8BC1DDFF8300504F00CFC1422DFF81F
S1131900E41B204600F0A2BE1422DFF8A81DDFF875
S1131910180504F0FFFB1422DFF8C81B204600F072
S113192095BE1422DFF8D414DFF8FC0404F0F2FBB3
S11319301422DFF8B01B204600F088BE1422DFF822
S1131940B816DFF8E40404F0E5FB1422DFF8941B76
S1131950204600F07BBE1422DFF8D816DFF8C80456
S113196004F0D8FB1422DFF87C1B204600F06EBE86
S11319701422DFF8FC16DFF8B00404F0CBFB1422C9
S1131980DFF8601B204600F061BE1422DFF8201748
S1131990DFF8940404F0BEFB1422DFF8481B204651
S11319A000F054BE1422DFF84417DFF87C0404F07E
S11319B0B1FB1422DFF82C1B204600F047BE142292
S11319C0DFF89C17DFF8600404F0A4FB1422DFF8AE
S11319D0141B204600F03ABE1422DFF8F417DFF897
S11319E0480404F097FB1422DFF8F81A204600F0AC
S11319F02DBEDFF82C08DFF8301490E86C0081E885
S1131A006C001422DFF8DC1A204600F01FBE1422FA
S1131A10DFF82818DFF8100404F07CFB1422DFF848
S1131A20C41A204600F012BE1422DFF8C818DFF8EA
S1131A30F80304F06FFB1422DFF8A81A204600F024
S1131A4005BE1422DFF8781DDFF8DC0304F062FB26
S1131A501422DFF8901A204600F0F8BD1422DFF8B3
S1131A605C19DFF8C40304F055FB1422DFF8741A80
S1131A70204600F0EBBD1422DFF84419DFF8A80378
S1131A8004F048FB1422DFF85C1A204600F0DEBDA7
S1131A901422DFF83019E44804F03CFB1422DFF888
S1131AA0441A204600F0D2BD1422DFF8541DDE484B
S1131AB004F030FB1422DFF84C1D204604F02AFB0E
S1131AC00020A07656E21422DFF8341DD64804F034
S1131AD021FB1422DFF8301D23E21422DFF8201D3D
S1131AE0D14804F017FB1422DFF8201D204604F02F
S1131AF011FB00207F21A076217000F016BD00BFED
S1131B0004820100188201001422DFF8041DC64873
S1131B1004F000FB1422DFF8FC1C204604F0FAFA5F
S1131B200020A076DFF8F02C107800F001010029E5
S1131B30C4BF4822A27010F00201C4BF48226271DF
S1131B4010F00401C4BF4822227210F00801C4BF7F
S1131B504822E27210F0100040F3E7844820A0739A
S1131B6000F0E3BC1422DFF8B41CAF4804F0D2FA4E
S1131B700020DFF8AC1CA0760A7802F00102002AEB
S1131B80CCBFA4A2A4A2DFF8845DDFF8841D28469C
S1131B9004F020FB2146284604F0B6F9B4E100BF66
S1131BA02C8201001422DFF8741C9F4804F0B2FA5E
S1131BB00020DFF86C1CA0760A7802F00202002AEA
S1131BC0CCBF94A294A2DFF8445DDFF8481D2846F8
S1131BD004F000FB2146284604F096F9C8E11422DB
S1131BE0DFF8381C904804F095FA0020DFF8301C28
S1131BF0A0760A7802F00402002ACCBF85A286A24D
S1131C00DFF8085DDFF8101D284604F0E3FA2146EA
S1131C10284604F079F9ABE14082010054820100C6
S1131C20688201007C820100908201001422DFF8A6
S1131C30EC1B7D4804F06EFA0020DFF8E41BA0766C
S1131C400A7802F00802002ACCBF72A272A2DFF85E
S1131C50BC5CDFF8C81C284604F0BCFA21462846C0
S1131C6004F052F984E11422DFF8B01B6E4804F04A
S1131C7051FA0020DFF8A81BA0760A7802F01002BF
S1131C80002ACCBF63A264A2DFF8805CDFF8901C5A
S1131C90284604F09FFA2146284604F035F967E106
S1131CA0A4820100B88201001422DFF8701B5E4890
S1131CB004F030FA0020DFF8681BA0760A7802F0FE
S1131CC02002002ACCBF53A253A2DFF8405CDFF805
S1131CD0BC1C284604F07EFA2146284604F014F978
S1131CE046E11422DFF8341B4F4804F013FA0020B5
S1131CF0DFF82C1BA0760A7802F04002002ACCBF41
S1131D0044A245A2DFF8045CDFF8841C284604F0F2
S1131D1061FA2146284604F0F7F829E1CC82010053
S1131D201422DFF8F81A404804F0F4F90020DFF830
S1131D30F01AA0760A7802F08002002ACCBF35A2FD
S1131D4035A2DFF8C85BDFF84C1C284604F042FAE1
S1131D502146284604F0D8F80AE11422DFF8BC1A18
S1131D60314804F0D7F90020DFF8B41AA0760A88C5
S1131D7002F48072002ACCBF26A227A2DFF88C5B73
S1131D80DFF8141C284604F025FA2146284604F0FE
S1131D90BBF8EDE0E0820100F48201001422DFF8D8
S1131DA07C1A214804F0B6F90021DFF8F02BA17663
S1131DB0107800280CBF17A217A2DFF8505BDFF8D9
S1131DC0E01B284604F006FA2146284604F09CF855
S1131DD0CEE000BF088301001C83010030830100B2
S1131DE01422DFF8381A104804F094F91422DFF8AA
S1131DF0B41B96E044830100588301006C83010006
S1131E008083010094830100A8830100BC83010046
S1131E10D08301004F4646004F4E0000E48301008A
S1131E20F88301000C84010048FFFF1F2084010097
S1131E301422DFF8701BDFF8780B04F06BF96423CD
S1131E400022DFF8701B204604F0C4F978480178BA
S1131E50A1714278E27181782172C278A07D6272A8
S1131E60032800F25681DFE810F03C000800060069
S1131E700400FEF74ABEFEF71EBEFEF7F3BD1422B1
S1131E80DFF89819DFF8280B04F044F9DFF8283B51
S1131E90DFF8281B1868096800EB8002500004F082
S1131EA0B9F91E230222DFF80C1B204604F092F934
S1131EB05F480178A1714278E27181782172C27819
S1131EC0A07D6272032800F22481DFE810F00A008A
S1131ED0080006000400FEF718BEFEF7ECBDFEF78E
S1131EE0C1BDCE2161760120B3E31422DFF8D01AFC
S1131EF0DFF8BC0A04F00EF90020A0761422DFF803
S1131F00C41A204604F006F97E20E0730DE314227F
S1131F10DFF8AC1ADFF8980A04F0FCF81422DFF8B2
S1131F20A81A204604F0F6F8FEF724F9FDE214227C
S1131F30DFF88C1ADFF8780A04F0ECF81422DFF8E2
S1131F408C1A204604F0E6F87F207E212070E1738D
S1131F5029E21422DFF8681ADFF8540A04F0DAF8E8
S1131F600020A0761422DFF8681A204604F0D2F884
S1131F707F2020707E21E173D7E200BF348401000A
S1131F801422DFF83C1ADFF8280A04F0C3F8002012
S1131F90A0761422DFF83C1A204604F0BBF87F2018
S1131FA02070C2E21422DFF8301ADFF8040ADFF8E6
S1131FB05C5904F0AFF80020A076DFF8201A4868D6
S1131FC0DFF81C1A0E78012E0CD104F07BFCDFF82C
S1131FD0142ADFF8143A04F099FC0B460246DFF8A1
S1131FE00C1A05E004F06EFC0B460246DFF8001AFA
S1131FF0284604F0EFF874E0488401001422DFF866
S1132000D41CDFF8AC09DFF8045904F083F800208D
S1132010A0766421DFF8C02C106890FBF1F2DFF8A1
S1132020BC1C284604F0D6F85BE000BF5C840100C9
S1132030E8FEFF1F708401001422DFF8A41CDFF8FF
S11320407009DFF8C85804F065F80021DFF8940C33
S1132050A176006804F03EFDDFF88C1C04F04CFD12
S113206004F030FC0B460246DFF8801C36E000BF6B
S1132070848401001422DFF8781CDFF83409DFF8C7
S11320808C5804F047F80021DFF8680CA17600684A
S113209004F020FDDFF8601C04F02EFD04F012FCB7
S11320A00B460246DFF8541C18E000BF9884010078
S11320B0AC8401001422DFF8481CDFF8F408DFF8D0
S11320C04C5804F027F80021DFF8440CA17600688E
S11320D004F0F8FB0B460246DFF8381C284604F0EF
S11320E079F82146284603F00FFF1EE2C084010060
S11320F0D48401001422DFF8201CDFF8B40804F0B3
S113210009F81422DFF8141C204604F003F87E209A
S1132110E0730021A17608E21422DFF8FC1BDFF84B
S1132120900803F0F7FF1422DFF8F41B204603F0B5
S1132130F1FF7F207E212070E17334E11422DFF867
S1132140D81BDFF86C0803F0E5FF1422DFF8D41B7A
S1132150204603F0DFFF7F207E222070E27377E2C7
S1132160E48401001422DFF8B01BDFF8440803F014
S1132170D1FF1422DFF8B01B204603F0CBFF7F20F1
S11321807E222070E27363E21422DFF88C1BDFF8F6
S1132190200803F0BFFF1422DFF8901B204603F051
S11321A0B9FF7F207E222070E27351E21422DFF80F
S11321B0681BDFF8FC0703F0ADFF1422DFF8701B87
S11321C0204603F0A7FF7F207E222070E2733FE2C7
S11321D0F88401001422DFF8401BDFF8D40703F071
S11321E099FF1422DFF84C1B204603F093FF7F2055
S11321F07E222070E2732BE21422DFF81C1BDFF82E
S1132200B00703F087FF1422DFF82C1BC6E0DFF8C9
S113221010164FF6F47008802A22226285E100BF6E
S11322200C8501001422DFF8141BDFF8840703F087
S113223071FF1422DFF8E41A07E200BF1C850100D5
S113224030850100448501001422DFF8F41ADFF818
S1132250600703F05FFF1422DFF8E81A204603F05A
S113226059FF0120A076DFF8E00A01786171417816
S1132270A171817821722146C0784872A07D03281B
S113228000F25381DFE810F03A0004003D003F0003
S1132290CE2134E01422DFF8B41ADFF8140703F077
S11322A039FF1422DFF8A81A204603F033FFDFF8C1
S11322B0980A017861712D234178A171E3718278C4
S11322C02272C2786272A37201220179E1722146FC
S11322D0407908738A76887D052800F22681DFE834
S11322E010F00D0006001000120014001600CFE7D5
S11322F0588501006C85010080850100CD2161763F
S113230013E1D02004E0D12002E0D32000E0D42067
S113231048760AE11422DFF83C1ADFF8940603F049
S1132320F9FE14226F4990E11422DFF82C1ADFF829
S1132330800603F0EFFE14226A4986E11422DFF8D6
S11323401C1ADFF86C0603F0E5FE1422DFF8101AFD
S1132350204603F0DFFE7E20E07324E01422DFF841
S1132360FC1914E01422DFF8FC19DFF8440603F02A
S1132370D1FE1422DFF8E819204603F0CBFE7E20BC
S1132380E07310E0948501001422DFF8D819DFF817
S1132390200603F0BFFE1422DFF8CC19204603F018
S11323A0B9FE7F2020700022A276BEE0DFF85C45F3
S11323B02022214640F2FD2037E000BFA88501001D
S11323C0BC850100D0850100A07D0021030018D048
S11323D0DFF87429DFF894C9D55CDFF8D425A0F1BF
S11323E0480600F164070F2BD9BFD554BE460CF83C
S11323F00350B64684F819E0491C5FFA81FE86450D
S1132400F1D3DFF86C0901700F2B207FC7BFDFF811
S11324105C29D054DFF89815C854FEF705B8DFF8E6
S1132420EC442022214640F21D3004F0EDFC002053
S1132430DFF87C25DFF83C5984F82000002113469E
S1132440207808B3CEB20F2E03DC18700020587029
S113245004E0A5F11006307000207070491C60780B
S113246090B1CEB20F2E03DC58700020987004E0B7
S1132470A5F1100670700020B070491CAD1C9B1CA7
S1132480A41CC8B22028DBDBCBB2202B16DAD01870
S1132490DFF8E0281A440025CBB20F2B03DC2023FD
S11324A00370457004E0A2F1100320241C705D70D9
S11324B0491C521C401CCBB2202BEDDBDFF8B028AA
S11324C0117032E0DFF8B0080178CB3912D0091F5F
S11324D010D0891E02290DD9C91E022918D91AE063
S11324E014810100B87B01003C810100508101008E
S11324F0648101001422DFF88418DFF8B40403F0C7
S113250009FE1422DFF87818204603F003FE0CE0DD
S1132510C220206209E0617F491CCAB2002A07BFB9
S1132520CF220270C3202062617703B0BDE8F0407F
S113253003F02EBA1422DFF84418DFF8740403F011
S1132540E9FD1422DFF83C18DEE700BFE485010052
S11325501422DFF82818DFF8580403F0DBFD1422F6
S1132560DFF82418D0E700BFF88501000C860100CD
S11325701422DFF81818DFF8380403F0CBFD142216
S1132580DFF80C18204603F0C5FDA5490A884FF66C
S1132590727002400A80C8E7208601003486010078
S11325A0488601000021DFF8EC37A1761878401E38
S11325B016D0401E032805D9401F042806D909381F
S11325C0012811D80A22DFF8481D10E00922DFF89B
S11325D0441D0CE05C8601007086010084860100C5
S11325E00B22DFF8341D02E00922DFF8301DC74852
S11325F0C64C03F07FFDDFF8B813204603F084FCDB
S1132600DFF81C2D10686421B0FBF1F2DFF8CC1662
S1132610204603F0DFFDDFF85C17204603F074FC6E
S1132620DFF8001D086800283FF47FAFDFF8440797
S11326302121C17379E71422DFF8EC1CDFF8700361
S113264003F068FD1422DFF8E41C204603F062FD69
S11326500020A07669E7DFF83C67DFF8D45C00204F
S1132660A076AA4C3078112800F2B680DFE800F09A
S1132670090E1724375568717AB4B4838C959EAAD1
S11326802D5EDFF8B01C0A682A60A5E00522DFF899
S1132690A81C204603F02EFDDFF8A00C9AE00A22C5
S11326A0DFF89C1C204603F025FDDFF8980C91E030
S11326B098860100AC8601000722DFF88C1C2046B6
S11326C003F018FDDFF8840C84E01022DFF8801C8E
S11326D0204603F00FFDDFF87C0C01787BE0062236
S11326E0DFF8741C204603F005FDDFF8701CDFF8EA
S11326F0702C0968107870B9DFF8683CDFF8447C06
S11327001868DFF8483C3A68414318688218B1FBFE
S1132710F2F0286060E049085DE01022DFF8481C10
S1132720204603F0E7FCDFF8440C53E01122DFF805
S1132730401C204603F0DEFCDFF8380C01784AE048
S11327400922DFF8D81B204603F0D4FCDFF8EC0B99
S113275040E00B22DFF8201C204603F0CBFCDFF81E
S11327601C0C37E01022DFF8181C204603F0C2FCD2
S1132770DFF8100C2EE00A22DFF80C1C204603F0D0
S1132780B9FCDFF8080C25E01122DFF8041C204610
S113279003F0B0FCDFF8A40B1CE01022DFF8F41BFC
S11327A0204603F0A7FCDFF8F00B13E00C22DFF85F
S11327B0EC1B204603F09EFCDFF8E40B01780AE0F2
S11327C0C08601000D22DFF8DC1B204603F092FCDA
S11327D0DFF8D40B016829607549204603F094FBA7
S11327E03078012803D10622DFF8C01B04E0062854
S11327F018D10622DFF8B81B204603F07BFC21E049
S1132800D4860100E8860100FC86010010870100DF
S11328102487010038870100ECFCFF1F4C8701006E
S1132820ECFFFF1FDFF8141B28680A68821A12F1F4
S11328300A0FB8BF0246DFF87C0B02605AA120469B
S113284003F0C8FCDFF8706B2A6858A1304603F027
S1132850C1FC3146204604F0F7FCDFF8181503F0FC
S113286053FBDFF810157F2008707E220020CA7306
S113287088765AE61422DFF8441B4D4803F04AFCDC
S1132880DFF83C1BDFF83C0B0B6802689A1A48BF60
S11328900022DFF8200B1D4CDFF82C1B02602046C1
S11328A003F098FCDFF8CC142046D8E71422DFF8B4
S11328B01C1B3F48154C03F02DFC4949DFF8100B55
S11328C00A780068012A0AD103F0FCFF454A464B06
S11328D004F01CF80B460246DFF8F81A90E004F006
S11328E0C7FC0246DFF8F01A204603F073FC8AE0C6
S11328F01422DFF8E81A2E4803F00CFCDFF8301A33
S1132900DFF8DC3A00200880002213E048F9FF1FBA
S1132910608701006C8701007887010080870100CF
S113292088870100185D18B182184878401C4870E7
S1132930641C0C700C78042CF4DD4878DFF8A41ABD
S1132940DFF8A44AB2FBF0F20A602046DFF89C1AD2
S113295003F040FCDFF81C14204680E71422DFF863
S1132960901A1348DFF8804A03F0D4FB1C491B4833
S11329700A784068012A3DD103F0A4FF194A1A4B92
S113298003F0C4FF0B460246184939E09087010062
S1132990A0870100B0870100BC8701000E01002060
S11329A0C8870100D8870100256400002F25640032
S11329B048FFFF1F288101008800002098000020A4
S11329C0EC870100008801001488010028880100B8
S11329D03C880100508801006488010024E0FF1F46
S11329E06BE8FF1F77D5F270AAE8D03F7888010022
S11329F08888010003F066FF0B460246DFF8F419ED
S1132A00204603F0E7FBDB49204628E71422DFF8E1
S1132A10E819DFF8E809DFF8D04903F07BFBDFF8B9
S1132A20E009006804F056F8DFF8D81904F064F8F7
S1132A3003F048FF02460B46DFF8CC19204603F0AA
S1132A40C9FBCC4920460AE71422DFF8C019DFF895
S1132A50AC09DFF8944903F05DFBDFF8B4090068C2
S1132A6004F038F8DFF89C1904F046F803F02AFF64
S1132A7002460B46DFF89019204603F0ABFBBD4934
S1132A802046ECE61422DFF88C19DFF87009DFF831
S1132A90584903F03FFB9E48006803F013FF0246C9
S1132AA00B469C49204603F095FBB2492046D6E6E6
S1132AB01422DFF86419DFF8440903F02BFBDFF874
S1132AC064180868002814BF8EA28FA2DFF8184982
S1132AD08EA1204603F07EFBA649204603F014FA9B
S1132AE0A4497F20087000228A761EE5DFF80C498D
S1132AF0DFF828191422204603F00CFBDFF8240821
S1132B000178CA0705D55920607365217320A17324
S1132B10E0730622DFF8A058294642F6503004F04C
S1132B2073F92879E978DFF8C0486B782A7802903D
S1132B300191A878DFF8E8180090204603F04AFBDA
S1132B400020207420468B4903F0DEF989497E2059
S1132B50C873C8E7DFF8A448DFF8C8181422204671
S1132B6003F0D8FADFF8BC070168C1F3400028B1CC
S1132B705920607365217320A173E0730622DFF886
S1132B803858294642F6563004F03EF92879E97857
S1132B90DFF854486B782A7802900191A878DFF81E
S1132BA080180090204603F015FB00202074204676
S1132BB0704954E6DFF84448DFF86C1814222046C4
S1132BC003F0A8FADFF85C070168C1F3800028B1BC
S1132BD05920607365217320A173E0730622DFF826
S1132BE0D857294642F65C3004F00EF92879E97882
S1132BF0DFF8F4476B782A7802900191A878DFF81F
S1132C0020180090204603F0E5FA002020742046A6
S1132C10584924E6DFF8E447DFF810181422204668
S1132C2003F078FADFF8FC060168C1F3C00028B1AC
S1132C305920607365217320A173E0730622DFF8C5
S1132C407857294642F6623004F0DEF82879E978AC
S1132C50DFF894476B782A7802900191A878DFF81E
S1132C60C0170090204603F0B5FA002020742046D7
S1132C704049F4E5DFF88447DFF8B417142220460E
S1132C8003F048FADFF89C060168C1F3001028B18C
S1132C905920607365217320A173E0730622DFF865
S1132CA01857294642F6683004F0AEF82879E978D6
S1132CB0DFF834476B782A7802900191A878DFF81E
S1132CC060170090204603F085FA00202074204607
S1132CD02849C4E59488010010E0FF1FA88801007A
S1132CE0B488010044E0FF1F00007A44C888010052
S1132CF0D488010044FFFF1F00002041E888010040
S1132D00F4880100594553004E4F0000257300001C
S1132D10C8000020088901001489010028890100E5
S1132D203C8901005089010064890100788901000F
S1132D308C890100A0890100B4890100C8890100BF
S1132D40DC890100F0890100E8FEFF1F048A01000C
S1132D50188A01002C8A0100408A0100548A01006B
S1132D60688A0100908A01007C8A0100B4FEFF1F7A
S1132D70FC000020C4FEFF1F79FDFF1FA48A010090
S1132D80B88A0100CC8A0100E08A0100F48A0100BB
S1132D90088B01006AE8FF1FDFF86046DFF894162D
S1132DA01422204603F0B6F9DFF878050168C1F370
S1132DB0401028B15920607365217320A173E0731A
S1132DC00622DFF8F455294642F66E3004F01CF86A
S1132DD02879E978DFF810466B782A780290019117
S1132DE0A878DFF83C160090204603F0F3F90020A1
S1132DF020742046DFF8401631E5DFF80046DFF89E
S1132E003C161422204603F085F9DFF834160868CE
S1132E1028B94E2161732E204521A073E173DFF898
S1132E2004050168C1F3801028B15920607365213D
S1132E307320A173E0730622DFF87C55294642F61D
S1132E40743003F0E1FF2879E978DFF89C456B786A
S1132E502A7802900191A878DFF8C41500902046E2
S1132E6003F0B8F9002020742046DFF8CC15F6E40E
S1132E70DFF88845DFF8CC151422204603F04AF920
S1132E80DFF8A0040168C1F3C01028B159206073B1
S1132E9065217320A173E0730622DFF81C552946CF
S1132EA042F67A3003F0B0FF2879E978DFF8384544
S1132EB06B782A7802900191A878DFF86415009065
S1132EC0204603F087F9002020742046DFF86815B7
S1132ED0C5E4DFF82845DFF870151422204603F016
S1132EE019F9DFF840040168C1F3002028B1592022
S1132EF0607365217320A173E0730622DFF8B85470
S1132F0029464FF42E5003F07FFF2879E978DFF843
S1132F10D8446B782A7802900191A878DFF80015DC
S1132F200090204603F056F9002020742046DFF874
S1132F30081594E4DFF8C444DFF810151422204681
S1132F4003F0E8F8DFF8DC030168C1F3402028B19E
S1132F505920607365217320A173E0730622DFF8A2
S1132F605854294642F6863003F04EFF2879E97812
S1132F70DFF874446B782A7802900191A878DFF81E
S1132F80A0140090204603F025F900202074204668
S1132F90DFF8A41463E4DFF86444DFF8B414142203
S1132FA0204603F0B7F8DFF87C030168C1F3802002
S1132FB028B15920607365217320A173E073062240
S1132FC0DFF8F453294642F68C3003F01DFF2879CC
S1132FD0E978DFF814446B782A7802900191A87894
S1132FE0DFF83C140090204603F0F4F8002020742D
S1132FF02046DFF8441432E4DFF80044DFF85414C8
S11330001422204603F086F8C6480168C1F3C020A4
S113301028B15920607365217320A173E0730622DF
S1133020DFF89453294642F6923003F0EDFE2879F6
S1133030E978DFF8B4436B782A7802900191A87894
S1133040DFF8DC130090204603F0C4F8002020745D
S11330502046DFF8E413FFF702BCDFF8A043DFF8F3
S1133060F8131422204603F055F8AE480168C1F362
S1133070003028B15920607365217320A173E07377
S11330800622CD4D294642F6983003F0BDFE28793C
S1133090E978D54C6B782A7802900191A878DFF80A
S11330A080130090204603F095F8002020742046F9
S11330B0DFF88413FFF7D3BBD04CDFF8A01314223E
S11330C0204603F027F897480168C1F3403028B13F
S11330D05920607365217320A173E0730622B64DF5
S11330E0294642F69E3003F08FFE2879E978BE4CDB
S11330F06B782A7802900191A878C94900902046FB
S113310003F068F8002020742046CB49FFF7A7BBE2
S1133110BA4CD3491422204602F0FCFF81480168CE
S1133120C1F3803028B15920607365217320A173E5
S1133130E0730622A04D294642F6A43003F064FE53
S11331402879E978A84C6B782A7802900191A878BC
S1133150B3490090204603F03DF800202074204637
S1133160B549FFF77CBBA54CBE491422204602F0AA
S1133170D1FF6C480168C1F3C03028B15920607395
S113318065217320A173E07306228B4D294642F614
S1133190AA3003F039FE2879E978934C6B782A78C1
S11331A002900191A8789E490090204603F012F8FD
S11331B0002020742046A049FFF751BB8F4CAA4938
S11331C01422204602F0A6FF56480168C1F30040CD
S11331D028B15920607365217320A173E07306221E
S11331E0754D294642F6B03003F00EFE2879E97891
S11331F07D4C6B782A7802900191A87888490090D8
S1133200204602F0E7FF0020207420468A49FFF799
S113321026BB7A4C95491422204602F07BFF414894
S11332200168C1F3404028B15920607365217320BF
S1133230A173E0730622604D294642F6B63003F0CE
S1133240E3FD2879E978684C6B782A78029001913B
S1133250A87873490090204602F0BCFF0020207437
S113326020467549FFF7FBBA644C81491422204675
S113327002F050FF2B480168C1F3804028B1592067
S1133280607365217320A173E07306224A4D2946B9
S113329042F6BC3003F0B8FD2879E978524C6B78DB
S11332A02A7802900191A8785D490090204602F0A6
S11332B091FF0020207420465F49FFF7D0BA4F4C9D
S11332C06C491422204602F025FF16480168C1F318
S11332D0005028B15920607365217320A173E073F5
S11332E00622354D294642F6C83003F08DFD287973
S11332F0E9783D4C6B782A7802900191A878484986
S11333000090204602F066FF00202074FFF7E4BB23
S11333101C8B0100288B0100348B0100408B0100C1
S11333204C000020B40000204C8B0100608B010095
S1133330C0FFFF1F8CFFFF1F748B010018000020CB
S11333407C8B01001CE8FF1F888B010020E8FF1F15
S1133350908B01000A010020A08B010024E8FF1FCC
S1133360040100201C000020A88B01005000002054
S1133370B88B01000B010020CC8B01002CE8FF1F4F
S1133380D88B010030E8FF1FE88B010048E8FF1FDD
S1133390F48B0100088C010050E8FF1F188C010019
S11333A06CE8FF1F248C010034E8FF1FFC79010046
S11333B0348C01000C00002028F3FF1F84860100D8
S11333C028E8FF1F540000203C8C0100448C0100BD
S11333D038000020588C0100648C01006C8C0100C2
S11333E0D8FFFF1F1400002048F9FF1F808C010044
S11333F0888C0100888801009C8C010048FFFF1F15
S11334001CFCFF1F0000C842B08C0100B88C0100F6
S113341020FCFF1FCC8C0100E08C0100187A010015
S1133420A87B01002C7A0100407A0100547A010043
S1133430687A01007C7A0100C4FEFF1F907A0100C3
S11334405C000020A47A0100B87A0100CC7A010063
S1133450E07A0100F47A0100087B01001C7B010082
S1133460307B0100447B0100587B01006C7B010030
S1133470807B0100947B0100F0B587B0FCF740FE2F
S1133480DFF87C4CE07D012840F00C81617D206AEE
S1133490002203290546E27500F2FE80DFE811F000
S11334A00400150172023610401EE42800F2F48074
S11334B0DFE810F030112111F601FA00F200F200F9
S11334C0F20050123402360238023A023C023E0242
S11334D040024202F2009A0F4402460248024A02A3
S11334E04A024C024E025002520254025602580240
S11334F05A025C025E02600262026402F200070188
S11335000901F200F200F20063034A12CA11CD115C
S1133510D011D3112412F2005D1133113611391177
S11335203C113F114211451148114B1145115111E4
S1133530541157115A1160116311661169116C11FC
S11335406F117211751178117B117E11E709160242
S11335509A119D11A011A311A611A911AC11AF11BB
S1133560B211B511B811BB11BE11C111C411FA00C9
S1133570FA00FA00FA00FA00FA00FA00FA00FA0077
S1133580FA00FA00FA00FA00FA00FA00FA00FA0067
S1133590FA00FA00FA00FA00FA00FA00FA00FA0057
S11335A0FA00F200F2000501F20013051605FA0014
S11335B0FA00FA00FA00FA00FA00FA00FA00FA0037
S11335C0F200FA00FA00FA00FA00FA00F200F2003F
S11335D0F200F200F200F200F200F200F200F20057
S11335E0F200F200F200F200F200F200F200F20047
S11335F0F200F200F200F200F200F200F200F20037
S1133600F200F200F200F200F200F200F200F20026
S1133610F2000301F200F200F200F200F200F20004
S1133620FA00FA00F200D611F200E500F200FD11F2
S1133630F200E500F200F200F200F200F200F20003
S1133640F20037123A12F200F200BA0E1C021E0205
S1133650200222022402260228022A022C02FA0054
S1133660F200F200591218021A026412F200F20077
S1133670F200F200F200F200241127112A11207F37
S11336807A2805DA401CC1B25C2904D15D2002E02D
S113369014BF20207F202077256207B0BDE8F040CA
S11336A0FCF77EBD07B0F0BDA07DDFF8581A0A5CB8
S11336B0392AF1DA521C0A54EEE78725ECE779251A
S11336C0EAE72525E8E72625E6E7E428E4D8DFE865
S11336D010F01210E7003111E500FA00E5002501B1
S11336E0E500270129012B012D012F0131013301AF
S11336F04411E5003501370139013B013D013D012C
S11337003F01410143014501470149014B014D017D
S11337104F015101530155015701E500E600251100
S1133720E5003B11E500E500BB10BE10C110C4105C
S113373015111F01E500241027102A102D10301038
S11337403310361042103C103F1042104510481000
S11337504B105110541057105A105D106010631024
S1133760661069106C106F10D80807018B108E104A
S11337709110941097109A109D10A010A310A610E9
S1133780A910AC10AF10B210B510B810E500FA00D3
S1133790FA00FA00FA00FA00FA00FA00FA00FA0055
S11337A0FA00FA00FA00FA00FA00FA00FA00FA0045
S11337B0FA00FA00FA00FA00FA00FA00FA00FA0035
S11337C0FA00E5000301E50007040A04E500FA0035
S11337D0FA00FA00FA00FA00FA00FA00FA00FA0015
S11337E00501FA00FA00FA00FA00FA00E500E50023
S11337F0E500E500E500E500E500E500E500E5009D
S1133800E500E500E500E500E500E500E500E5008C
S1133810E500E500E500E500E500E500E500E5007C
S1133820E500E500E500E500E500E500E500E5006C
S1133830E500E500E500E500E500E500E500E5005C
S1133840FA00FA002101E500E500E9002301E500A2
S1133850E500E900E500E500E500E500E500E50038
S11338602B114711E500E5000D010F0111011301B2
S11338701501170119011B011D012E11E500FA00A4
S1133880E50009010B0155115811E500E500E500BB
S1133890E500E500E50018101B101E10FCE612E719
S11338A00225F9E6207F20280BDD7F2808BF7A2037
S11338B03FF4F1AE401EC1B25C297FF4ECAE5B2054
S11338C0E9E67F20E7E6A07DDFF838180A5C312AB4
S11338D0FFF6E2AE521EEEE67A25DDE6B025DBE623
S11338E04D25D9E6D925D7E6DA25D5E6CC25D3E684
S11338F0CD25D1E6CE25CFE6CF25CDE6D025CBE626
S1133900D125C9E6D225C7E6D325C5E6D425C3E625
S11339103125C1E6BA25BFE6BE25BDE60825BBE6CE
S11339200925B9E60A25B7E60B25B5E60C25B3E665
S11339300D25B1E60E25AFE60F25ADE61225ABE663
S11339401325A9E61425A7E61525A5E61725A3E65C
S11339501825A1E619259FE61A259DE61B259BE659
S11339601C2599E61D2597E61E2595E61F2593E659
S1133970202591E621258FE622258DE623258BE659
S1133980242589E6E5283FF687AEDFE810F0E70056
S1133990B70EEC00F600F800E600F10C290DF10C6E
S11339A0E600E600E600E600E600E600E6002D0D8F
S11339B0300D360D3C0D500D560D5C0D620DE600BC
S11339C06E0D740D7A0D800D860D8C0D920D980D73
S11339D0E600E600E600E600E600F00ECA0F9E0AE6
S11339E0E600E600A10AA50AEC0A690F900F810B14
S11339F0890B77010F0116011D0124012B013201EE
S1133A00E600E600E600E6003901400147014E0108
S1133A107E019901B401BB01C201C901EB0113028A
S1133A203B0263028C02940297029F02AF02D80207
S1133A3001032A0353035B0363036B0373037B03D5
S1133A4083038D039703A103A903BD03E1030404C6
S1133A502A04500474049904E600E600E600E60033
S1133A60BE04E404090530056A059A05CA05EE0595
S1133A70120638067106A206D306040736075C0749
S1133A809F07B607CE07E507FD071508470878081E
S1133A90A708EC080D092E09510972099209E309D6
S1133AA0080A2D0A520A780AE600E600E600E60053
S1133AB0E600E600E600E600E600E600E600E600D2
S1133AC0E600E600E600E600E600E600E600E600C2
S1133AD0E600E600E600E600E600E600E600E600B2
S1133AE0E600E600E600E600E600E600E600A809D7
S1133AF0E600E600E600E600E600E600CB0BFE0B7F
S1133B00410B440BE6008C0B610B640BE6008C0B41
S1133B10E600E600E600E600E600E6004A0C4D0C8E
S1133B20EC0FE600500C5F0C6C0C780C840C900CC1
S1133B309C0CA80CB40CC00CB103C90CE6009E0D7F
S1133B40A10DA80DB90DBC0DE600E600E600E600E7
S1133B50E600070109010B010D019DE5002003F0BA
S1133B6093FB256A98E5A275DFF81C1DDFF8940520
S1133B70052202F0CFFA04258EE528258CE5A07DE8
S1133B800328C1F2D083DFF8041DDFF8780503F0C1
S1133B900FFC00283FF497AD05257DE5E6257BE580
S1133BA0E72579E5E82577E5E92575E5DFF8E00C13
S1133BB0006802F085F85F256EE5DFF8D80C006830
S1133BC002F07EF8602567E5DFF8CC0C006802F0AF
S1133BD077F8612560E5DFF8C40C006802F070F83E
S1133BE0622559E5DFF8B80C006802F069F863252E
S1133BF052E5DFF8B00C006802F062F864254BE58A
S1133C00DFF8A40C006802F05BF8692544E5DFF8EE
S1133C109C0C006802F054F86A253DE5DFF8900C2E
S1133C20006802F04DF86B2536E5DFF8881C09685A
S1133C300A20B1FBF0F202EB8205DFF8C804A1EB25
S1133C4045053035C5700A23B2FBF3F303EB830556
S1133C502E26A2EB45028670303242706426B1FBF8
S1133C60F6F10A22B1FBF2F202EB8203A1EB43016B
S1133C70303101700020A0756C250DE5DFF8380C9B
S1133C80006802F01DF85E2506E5DFF8301C0968BF
S1133C900A20B1FBF0F202EB82033032DFF8640455
S1133CA042706422A1EB4303B1FBF2F130332E25C1
S1133CB03031C370857001700020A0756D25EBE470
S1133CC0DFF8FC1B09680A20B1FBF0F202EB820367
S1133CD03032DFF8300442706422A1EB4303B1FBBD
S1133CE0F2F130332E253031C3708570017000201D
S1133CF0A0756E25D0E4DFF8CC0B006801F0E0FF7E
S1133D006F25C9E4DFF8C00B006801F0D9FF702506
S1133D10C2E4DFF8240E006801F0D2FF7125BBE491
S1133D20DFF8181E09680A20B1FBF0F202EB8205E5
S1133D30DFF8D003A1EB45053035C5700A23B2FB8B
S1133D40F3F303EB8305A2EB450230328270642364
S1133D50B1FBF3F12E223031427001700020A075C6
S1133D60722599E4DFF8D81D09680A20B1FBF0F246
S1133D7002EB8205E348A1EB45053035C5700A2303
S1133D80B2FBF3F303EB8305A2EB450230328270FE
S1133D902E2364254370B1FBF5F10A22B1FBF2F244
S1133DA002EB8203A1EB4301303101700020A075C6
S1133DB0732571E4DFF88C1D09680A20B1FBF0F269
S1133DC002EB8205CF48A1EB45053035C5700A23C7
S1133DD0B2FBF3F303EB83052E26A2EB45028670B8
S1133DE0303242706426B1FBF6F10A22B1FBF2F2E2
S1133DF002EB8203A1EB4301303101700020A07576
S1133E00742549E4DFF8401D09680A20B1FBF0F28B
S1133E1002EB8205BB48A1EB45053035C5700A238A
S1133E20B2FBF3F303EB83052E26A2EB4502867067
S1133E30303242706426B1FBF6F10A22B1FBF2F291
S1133E4002EB8203A1EB4301303101700020A07525
S1133E50752521E4DFF8F41C09680A20B1FBF0F2AF
S1133E6002EB8205A748A1EB45053035C5700A234E
S1133E70B2FBF3F303EB8305A2EB4502303282700D
S1133E802E2364254370B1FBF5F10A22B1FBF2F253
S1133E9002EB8203A1EB4301303101700020A075D5
S1133EA07625FFF7F9BBDFF8A80C806801F008FF5E
S1133EB07725FFF7F1BB7825FFF7EEBBDFF8941CFD
S1133EC0087800287FF408ADFFF7F9BBDFF8880C09
S1133ED00178012904D0022905D07B25FFF7DCBB3A
S1133EE07C25FFF7D9BB7D25FFF7D6BBDFF86C1C1B
S1133EF009680A20B1FBF0F202EB82058148A1EBCC
S1133F0045053035C5700A23B2FBF3F303EB830593
S1133F10A2EB4502303282702E2364254370B1FB3C
S1133F20F5F10A22B1FBF2F202EB8203A1EB4301A9
S1133F30303101700020A0757E25FFF7ADBBDFF89E
S1133F40CC1D09680A20B1FBF0F202EB82056D4832
S1133F50A1EB45053035C5700A23B2FBF3F303EB3F
S1133F608305A2EB4502303282702E236425437010
S1133F70B1FBF5F10A22B1FBF2F202EB8203A1EBF1
S1133F804301303101700020A0757F25FFF784BB09
S1133F90DFF87C1D09680A20B1FBF0F202EB820510
S1133FA05848A1EB45053035C5700A23B2FBF3F33D
S1133FB003EB8305A2EB4502303282702E23642585
S1133FC04370B1FBF5F10A22B1FBF2F202EB82037A
S1133FD0A1EB4301303101700020A0758025FFF76B
S1133FE05BBBDFF8301D09680A20B1FBF0F202EB7D
S1133FF082054448A1EB45053035C5700A23B2FB60
S1134000F3F303EB8305A2EB4502303282702E23D7
S113401064254370B1FBF5F10A22B1FBF2F202EB25
S11340208203A1EB4301303101700020A07581258A
S1134030FFF732BBDFF8E00C006801F041FE822597
S1134040FFF72ABBDFF8D40C006801F039FE8325A2
S1134050FFF722BBDFF8C80C006801F031FE8425AD
S1134060FFF71ABBDFF8BC0C006801F029FE8525B8
S1134070FFF712BBDFF8B00C006801F021FE8625C3
S1134080FFF70ABBDFF8A41C087800287FF426ACED
S1134090FFF713BBDFF8980C006801F011FE012054
S11340A0A0758825FFF7F8BADFF8880C006801F0DE
S11340B007FE0120A0758925FFF7EEBADFF8780C1A
S11340C0006801F0FDFD0120A0758A25FFF7E4BA20
S11340D0DFF8680C007801F0F3FD8B25FFF7DCBAFC
S11340E0DFF85C0C007801F0EBFD8C25FFF7D4BA07
S11340F0DFF8500C006801F0E3FDD625FFF7CCBAD9
S1134100C4FEFF1FE8FEFF1FA07D0328C1F20B8140
S1134110DFF8345C01F0BAFD41F28931884228604D
S113412013D2DFF89427DFF8241C10600860022201
S113413040F2191002F01BFE1422DFF8141C204672
S113414001F0E8FF01F024FC0BE58D25FFF7A4BA8C
S1134150A07D0328C1F2E780DFF8EC5B01F096FD57
S1134160811E1C29286013D8DFF82427DFF8DC1B04
S11341701060086001224FF4817002F0F8FD1422EF
S1134180DFF8CC1B204601F0C5FF01F001FCE8E498
S11341908E25FFF781BAA07D0328C1F2C480DFF821
S11341A0A85B01F073FDA0F10A0140F2EB12914209
S11341B0286013D2DFF8DC36DFF8901B1860086043
S11341C0022240F2031002F0D2FD1422DFF8801B19
S11341D0204601F09FFF01F0DBFBC2E48F25FFF7CF
S11341E05BBAA07D0328C1F29E80DFF85C5B01F01E
S11341F04DFDA0F10A0140F2EB129142286013D266
S1134200DFF89436DFF8441B18600860022240F29D
S1134210051002F0ACFD1422DFF8341B204601F037
S113422079FF01F0B5FB9CE49025FFF735BAA07D3A
S11342300328C1F27880DFF8105B01F027FD40F21B
S1134240F5118842286013D2DFF85026DFF8FC1AF3
S113425010600860022240F2071002F088FD142268
S1134260DFF8EC1A204601F055FF01F091FB78E4E9
S11342709125FFF711BAA07D0328C1F25480DFF81D
S1134280C85A01F003FD2860B8B140F2D1718842E8
S113429013D2DFF80C26DFF8B41A1060086002228B
S11342A040F2091002F063FD1422DFF8A41A20463C
S11342B001F030FF01F06CFB53E49225FFF7ECB9F9
S11342C0A07D0328C1F22F80DFF87C5A01F0DEFCC8
S11342D02860B8B140F2D171884213D2DFF8C42506
S11342E0DFF8681A10600860022240F20B1002F036
S11342F03EFD1422DFF8581A204601F00BFF01F0AE
S113430047FB2EE49325FFF7C7B9A07D0328C1F22C
S11343100A80DFF8345A01F0B9FCA0F1320140F60A
S1134320DF529142286013D2DFF87C35DFF81C1A83
S113433018600860022240F2131002F018FD1422E3
S1134340DFF80C1A204601F0E5FE01F021FB08E439
S11343509825FFF7A1B9A07D0328C0F2E487DFF810
S1134360E85901F093FCA0F10A014629286014D809
S1134370DFF83825DFF8D41910600860012240F214
S1134380151002F0F4FC1422DFF8C419204601F0E1
S1134390C1FE01F0FDFAFFF7E4BB9925FFF77CB9F4
S11343A0A07D0328C0F2BF87DFF89C5901F06EFCA2
S11343B0A0F11E0140F6F3529142286014D2DFF8B6
S11343C0F034DFF888191860086002224FF48B700B
S11343D002F0CDFC1422DFF87819204601F09AFE91
S11343E001F0D6FAFFF7BDBB9A25FFF755B9A07DBA
S11343F0032807DA401CC2B2022A08BF0320A075B2
S1134400FFF74AB9DFF8100E0278303A02EB820166
S11344104278C078303A02EB410202EB8201303834
S113442000EB4100DFF8201940F285329042086029
S113443014D2DFF88034DFF8141918600860012200
S11344404FF48C7002F093FC1422DFF80419204618
S113445001F060FE01F09CFAFFF783BB9B25FFF798
S11344601BB9A07D0328C5DBDFF8AC0D0278303A18
S113447002EB82014278C078303A02EB410202EB4F
S11344808201303800EB4100DFF8BC186428086072
S113449014D8DFF82824DFF8B4181060086001226B
S11344A040F21B1002F063FC1422DFF8A41820462B
S11344B001F030FE01F06CFAFFF753BB9C25FFF7C7
S11344C0EBB8A07D032895DBDFF84C0D0278303A79
S11344D002EB82014278C078303A02EB410202EBEF
S11344E08201303800EB4100DFF85C186428086072
S11344F014D8DFF8CC23DFF85418106008600122C8
S11345004FF48E7002F033FC1422DFF84418204676
S113451001F000FE01F03CFAFFF723BB9D25FFF7F5
S1134520BBB8A07D0328C0F2FE86DFF81C5801F05A
S1134530ADFB40F2D1718842286013D2E14ADFF822
S11345400C1810600860022240F21D1002F00FFCEB
S11345501422DFF8FC17204601F0DCFD01F018FA04
S1134560FFF7FFBA9E25FFF797B8A07D0328C0F296
S1134570DA86DFF8D45701F089FBA0F11401282969
S1134580286013D8D04ADFF8C417106008600122ED
S113459040F21F1002F0EBFB1422DFF8B4172046A0
S11345A001F0B8FD01F0F4F9FFF7DBBA9F25FFF73E
S11345B073B8A07D0328C0F2B686DFF88C5701F0EB
S11345C065FB411F40F69C729142286014D2DFF8CB
S11345D06835DFF878171860086002224FF490708D
S11345E002F0C5FB1422DFF86817204601F092FDA3
S11345F001F0CEF9FFF7B5BAA025FFF74DB8A07DBD
S1134600032806DA401CC2B2012A7FF4F8AE022065
S1134610F5E6DFF8040C0278303A02EB8201827886
S1134620C078303A02EB410202EB8201303800EBF1
S11346304100DFF81417A0F11902B02A086014D25F
S1134640DFF8F81408600222DFF80017086040F26F
S1134650231002F08CFB1422DFF8F416204601F03C
S113466059FD01F095F9FFF77CBAA125FFF714B8BD
S1134670A07D0328C6DBDFF8A00B0278303A02EBFA
S113468082018278C078303A02EB410202EB820167
S1134690303800EB4100DFF8B016B0F57A7F0860DF
S11346A014D2DFF89C24DFF8A416106008600222FC
S11346B040F2251002F05BFB1422DFF8941620462A
S11346C001F028FD01F064F9FFF74BBAA225FEF7CB
S11346D0E3BFA07D0328FFF68DAEDFF83C0B027824
S11346E0303A02EB82014278C078303A02EB410260
S11346F002EB8201303800EB4100DFF84C167928D8
S1134700086014D2DFF83C24DFF84016106008601B
S1134710022240F22B1002F02AFB1422DFF830169A
S1134720204601F0F7FC01F033F9FFF71ABAA3258C
S1134730FEF7B2BFA07D0328FFF65CAEDFF8D80A0F
S11347400278303A02EB82014278C078303A02EBC8
S1134750410202EB8201303800EB4100DFF8E8153A
S11347607928086014D2DFF8E023DFF8E015106040
S11347700860022240F22D1002F0F9FA1422DFF848
S1134780D015204601F0C6FC01F002F9FFF7E9B9A3
S1134790A425FEF781BFA07D0328FFF633AFDFF821
S11347A0780A0278303A02EB82018278C078303A93
S11347B002EB410202EB8201303800EB4100DFF8EA
S11347C08815A0F13202972A086013D2DF490860E5
S11347D00222DFF87815086040F2311002F0C7FABF
S11347E01422DFF86C15204601F094FC01F0D0F897
S11347F0FFF7B7B9A525FEF74FBFA07D0328C0F288
S11348009285DFF8445501F041FAA0F10A0140F223
S1134810C7729142286013D2CD4BDFF830159860EF
S11348200860022240F2371002F0A1FA1422DFF8E5
S11348302015204601F06EFC01F0AAF8FFF791B9AB
S1134840A625FEF729BF1422DFF8A01CDFF8A00C70
S113485001F060FC1422DFF89C1C204601F05AFC95
S113486001F096F802F0AEFD1422DFF88C1C20460D
S113487001F050FC01F08CF804F0A2FD022005F0D8
S11348805AF84C25FEF708BFF48C010038FDFF1FD1
S11348901CE8FF1F20E8FF1F24E8FF1F5000002032
S11348A02CE8FF1F30E8FF1F48E8FF1F4CE8FF1FFC
S11348B050E8FF1F3CE8FF1F40E8FF1F0CE8FF1F04
S11348C010E8FF1F28E8FF1F18E8FF1FA1490A701E
S11348D040F23910DFF874140A70012202F047FA2A
S11348E01422DFF8181C204601F014FC01F050F8E3
S11348F0012005F020F8FFF734B99649012008702B
S11349000122DFF848140A7040F2391002F02FFA3D
S11349101422DFF8E81B204601F0FCFB01F038F814
S1134920012005F008F8FFF71CB98B490A704FF411
S11349309F70DFF818140A70012202F018FA14228A
S1134940DFF8B81B204601F0E5FB01F021F8012057
S113495004F0F1FFFFF705B97F4901200870012237
S1134960DFF8E8130A704FF49F7002F000FA142283
S1134970DFF8881B204601F0CDFB01F009F8012087
S113498004F0D9FFFFF7EDB8734902200870012243
S1134990DFF8B81308704FF49F7002F0E8F914229E
S11349A0DFF8581B204601F0B5FB00F0F1FF0120B1
S11349B004F0C1FFFFF7D5B8A07D0328FFF622AEAF
S11349C0DFF85408DFF880330278303A02EB8201D2
S11349D08278C078303A02EB410202EB820130382F
S11349E040F21D2200EB4100A0F132019142186017
S11349F011D25A4BD5491860086002224FF4A070B6
S1134A0002F0B5F91422D249204601F083FB00F0EC
S1134A10BFFFFFF7A6B8A725FEF73EBEA07D03287B
S1134A20FFF6F0ADDFF8F007C74B0278303A02EB3F
S1134A3082018278C078303A02EB410202EB8201B3
S1134A40303840F21D2200EB4100A0F132019142C6
S1134A50186011D2AD4BBD491860086002224FF4B2
S1134A60A17002F084F91422B949204601F052FBE6
S1134A7000F08EFFFFF775B8A825FEF70DBEA07DE8
S1134A800328FFF6BFADDFF890070278303A02EB57
S1134A9082018278C078303A02EB410202EB820153
S1134AA0303800EB4100A84940F24F2290420860A0
S1134AB011D2974BA5491860086002224FF4A270E6
S1134AC002F055F91422A249204601F023FB00F01C
S1134AD05FFFFFF746B8A925FEF7DEBDA07D0328DA
S1134AE0FFF690ADDFF83007974B0278303A02EBCF
S1134AF082018278C078303A02EB410202EB8201F3
S1134B00303840F21D2200EB4100A0F13201914205
S1134B10186025D27F4B8D491860086002224FF43B
S1134B20A37002F024F914228949204601F0F2FA14
S1134B3000F02EFFFFF715B844E8FF1F54E8FF1FED
S1134B4058E8FF1F8C0000209000002094000020F3
S1134B5024E0FF1F6BE8FF1F130100206C000020FE
S1134B60AA25FEF799BDA07D0328C0F2DC83764D0B
S1134B7001F08CF842F210718842286011D2664A22
S1134B8072491060086002224FF4A47002F0EFF83A
S1134B9014226F49204601F0BDFA00F0F9FEFEF739
S1134BA0E0BFAB25FEF778BDA07D0328C0F2BB8330
S1134BB0654D01F06BF842F210718842286011D201
S1134BC0564A62491060086002224FF4A57002F050
S1134BD0CEF814225E49204601F09CFA00F0D8FE7B
S1134BE0FEF7BFBFAC25FEF757BDA07D0328C0F27A
S1134BF09A83554D01F04AF8A0F1320140F2B732E0
S1134C009142286011D2464B504918600860022234
S1134C1040F24D1002F0ABF814224D49204601F049
S1134C2079FA00F0B5FEFEF79CBFAD25FEF734BD62
S1134C30A07D0328C0F27783434D01F027F840F6A6
S1134C4038118842286011D2364A40491060086001
S1134C50022240F24F1002F08AF814223C49204606
S1134C6001F058FA00F094FEFEF77BBFAE25FEF784
S1134C7013BDA07D0328C0F25683334D01F006F81E
S1134C80411F1A29286011D2274A30491060086050
S1134C90012240F2511002F06AF814222C492046F5
S1134CA001F038FA00F074FEFEF75BBFAF25FEF7A3
S1134CB0F3BC1E490A704FF4D27024490A700122D1
S1134CC002F055F81422DFF83418204601F022FAD5
S1134CD000F05EFE012004F02EFEFEF742BF1349F1
S1134CE001200870012219490A704FF4D27002F0B1
S1134CF03EF81422DFF80418204601F00BFA00F005
S1134D0047FE012004F017FEFEF72BBF70000020C1
S1134D10740000207800002034E8FF1F38E8FF1FEB
S1134D207C00002080000020840000200D01002071
S1134D305CE8FF1F60E8FF1F64E8FF1F0B01002011
S1134D400A0100206000002014000020C0FFFF1FA3
S1134D50FC8C0100A07D0328C0F2E582DFF87C5DB5
S1134D6000F094FFA0F10A016E29286014D8DFF83E
S1134D70182CDFF86C1D10600860022240F2A510A8
S1134D8001F0F5FF1422DFF85C1D204601F0C2F9A2
S1134D9000F0FEFDFEF7E5BEB125FEF77DBCA07D6B
S1134DA00328C0F2C082DFF8345D00F06FFFA0F189
S1134DB00A016E29286014D8DFF8D02BDFF8201DF3
S1134DC010600860022240F2A71001F0D0FF142204
S1134DD0DFF8101D204601F09DF900F0D9FDFEF723
S1134DE0C0BEB225FEF758BCA07D0328C0F29B824A
S1134DF0DFF8E85C00F04AFFA0F10A016E292860A0
S1134E0014D8DFF8E42CDFF8D81C10600860022204
S1134E1040F2A91001F0ABFF1422DFF8C81C2046B1
S1134E2001F078F900F0B4FDFEF79BBEB325FEF760
S1134E3033BCA07D0328C0F27682DFF8A05C00F0CA
S1134E4025FF2860C0B140F2F511884214D2DFF882
S1134E509C2CDFF88C1C1070086001224FF4CE707B
S1134E6001F085FF1422DFF87C1C204601F052F982
S1134E7000F08EFDFEF775BEB425FEF70DBCA07DD7
S1134E800328C0F25082DFF8545C00F0FFFE286073
S1134E90C0B140F2F511884214D2DFF8542CDFF887
S1134EA0401C10700860012240F29D1001F05FFF69
S1134EB01422DFF8301C204601F02CF900F068FDC4
S1134EC0FEF74FBEB525FEF7E7BB2925FEF7E4BB89
S1134ED002F024FAFEF745BE84B0DFF8FC1C6846F5
S1134EE02C2201F017F90FBC04F0D1FDDFF8EC6CB3
S1134EF0DFF8EC5C3268DFF8EC6C00238018594171
S1134F00C5E90001284604F06BFE306001460A231F
S1134F1048698A686438486192FBF3F30869401C65
S1134F2008613033BC4803700A238A6892FBF3F3A8
S1134F3003EB8305A2EB4502303242700A234A6830
S1134F4092FBF3F3303383700A22496891FBF2F247
S1134F5002EB8203A1EB43013031C1700020A07544
S1134F60B725FEF799BB84B0DFF86C1C68462C2289
S1134F7001F0D0F80FBC04F08AFDDFF8606CDFF8B4
S1134F80605C3268DFF85C6C002380185941C5E925
S1134F900001284604F024FE014630600A234A69D1
S1134FA00869643A401C4A61086192FBF3F29A482A
S1134FB0303202704A6992FBF3F303EB8305A2EBF0
S1134FC04502303242700A230A6992FBF3F330330C
S1134FD083700A230A6992FBF3F303EB8305A2EBC4
S1134FE045023032C2700A23CA6892FBF3F33033AD
S1134FF003710A22C96891FBF2F202EB8203A1EB6E
S11350004301303141710020A075B825FEF744BB3F
S1135010BB25FEF741BBDFF8A05CDFF8D404142203
S1135020294601F077F814222946204601F072F847
S1135030CEA0DFF8881C02780A700120A0767F22B7
S11350406421002022776176A075BC25FEF724BB7D
S1135050BF25FEF721BBDFF8605CDFF8940414225F
S1135060294601F057F814222946204601F052F847
S1135070BEA0DFF8481C02780A700120A0767F22C7
S11350806421002022776176A075C025FEF704BB59
S1135090DFF8901CCF200870C1256277FEF7FCBAB8
S11350A0C425FEF7F9BA217FA07D7F292DD10128DF
S11350B019D1DFF8046CDFF838041422314601F00A
S11350C029F814223146204601F024F8A7A0DFF87D
S11350D0EC1B02780A70642001220021A27660761B
S11350E0A175FEF7D9BA00283EF43BAD2020207705
S11350F0FBF756F8A07D484A401EA0750021C0B2B7
S113510011547F202077FEF72CBD434B19547F2187
S113511020282177BEF6C0AA401CA075C0B21A543C
S1135120FEF7BABAA07D0328C0F2FD803A480178A0
S1135130303901EB81024178303901EB4201182901
S113514021D20A468178303901EB8103C1783039A4
S113515001EB43013B2914D8DFF8CC0BDFF87C6A60
S1135160DFF8C87BC261002381614361336001239E
S11351703B70DFF8BC0B0260DFF860291160FEF7BA
S11351808BBAC525F5E7C525F6E7A07D052840F3CC
S1135190CA80214EDFF8447931787278303901EBD6
S11351A08100303A02EB4002102A3A6036D9B078D6
S11351B0F378757900EB8001307903EB4103A3F1B7
S11351C0100100EB800305EB4305A5F11000D2B2FA
S11351D0C9B2C0B200F0FEFD256A01281ED1DFF875
S11351E0480B3A688262B178F37801EB810203EBF1
S11351F04203A3F5047343623179737901EB8102AD
S113520003EB4203A3F5047303620120DFF8241BBC
S11352100870FEF741BA00BFE8FEFF1FC625FEF77F
S11352203BBACA25FEF738BACB25FEF735BADFF804
S1135230081B0988C80746BF4FF6FE70014041F0BD
S11352400101DFF8F42A1180FEF726BADFF8E81A24
S11352500988880758BF41F00201F2D508464FF685
S1135260FD710140EDE7DFF8D01A0988480758BFFF
S113527041F00401E5D508464FF6FB71F1E7DFF88C
S1135280B81A0988080758BF41F00801D9D508465B
S11352904FF6F771E5E7DFF8A01A0988C80658BF8A
S11352A041F01001CDD508464FF6EF71D9E7DFF88C
S11352B0881A0988880658BF41F02001C1D50846DC
S11352C04FF6DF71CDE7DFF8701A0988480658BF3A
S11352D041F04001B5D508464FF6BF71C1E7DFF88C
S11352E0581A0988080658BF41F08001A9D5084614
S11352F04FF67F71B5E7DFF8401A0988C80558BF33
S113530041F480719DD508464FF6FF61A9E7DFF8A7
S11353102C0A0178491E8941C90F0170FEF7BCB9F6
S1135320A07D032803DAA07D401CFFF768B8DFF8EE
S1135330AC5700F0ABFC642828603FF652ADDFF8B0
S1135340001A08600222DFF89817086040F2AB10D8
S113535001F00DFD1422DFF88C17204600F0DAFE70
S113536000F016FB256A0020FFF749B80000000092
S1135370DFF8D009017801297EF4F3AB062202702C
S11353800020DFF8C419DFF8C459DFF8C4690860E5
S11353900021042003F0ECFE0021002003F0E8FECD
S11353A00021012003F0E4FE0021122003F0E0FEBE
S11353B00020287001272878327807FA00F10A4083
S11353C0002A07DC2878401C2870C0B20828F2DBC9
S11353D0FEF7C7BB08300021C0B203F0C9FEF1E7F5
S11353E001F0ABFFFEF7BDBB1125FEF755B9002157
S11353F0002003F0BDFEFEF7B4BB0021012003F042
S1135400B7FEFEF7AEBB0021022003F0B1FE256A11
S1135410DFF84019DFF84039002008701870DFF811
S11354203C19DFF83C3908701860FEF735B90021E3
S1135430032003F09DFEFEF794BB0021042003F03B
S113544097FEFEF78EBB0021052003F091FEFEF7C8
S113545088BB0021062003F08BFEDFF8081900202A
S1135460086003F0ADFFFEF77CBB0021082003F0C9
S11354707FFEFEF776BB0021092003F079FEFEF7DC
S113548070BB00210A2003F073FEFEF76ABB002103
S11354900B2003F06DFEFEF764BB00210C2003F02B
S11354A067FEFEF75EBB00210D2003F061FEFEF7F0
S11354B058BB00210E2003F05BFEFEF752BB002117
S11354C00F2003F055FEFEF74CBBDD25FEF7E4B8D4
S11354D0DFF80C1601200870DE25FEF7DDB8DFF8D2
S11354E0001601200870DF25FEF7D6B8108D0100E4
S11354F048FFFF1F248D0100388D01004C8D0100F1
S1135500E025FEF7C9B8E125FEF7C6B8401EE82835
S11355103EF6C2A8DFE810F0FE00FE00FE00FE002A
S1135520FE001B021E021E021E021E021E021E029C
S11355301E021E021E021E0221022102210221025B
S1135540210221022102210221022102210221023F
S1135550210221022102210221022102210221022F
S1135560FE00FE00FE000E02110211020E020E02E7
S11355700E020E020E020E020E02ED00ED00ED0010
S1135580ED00ED00ED00ED00ED00ED00ED00ED00AF
S1135590ED00ED00ED00ED00ED00ED00ED00ED009F
S11355A0ED00ED00ED00ED00ED00ED00ED00ED008F
S11355B0ED00ED00ED00ED00ED00ED00ED00ED007F
S11355C0ED00ED00ED00ED00ED00ED00ED00ED006F
S11355D0ED002B010101040107010A010D01100175
S11355E01301160119011C011F01220125012801C3
S11355F02E013101340137013A013D0140014301DB
S1135600460149014C01EB004F015B01680168014F
S113561068016B016E017101740177017A017D01EA
S113562080018301860189018C018F01920195011A
S11356302B010101040107010A010D0110011301ED
S1135640160119011C011F012201250128012E0147
S11356503101340137013A013D0140014301460162
S113566049014C016B016E017101740177017A01EA
S11356707D0180018301860189018C018F019201E2
S11356809501180298019B019E019E01A401A701A6
S1135690A101A101CB01CE01F201F201F201F50158
S11356A0FC01FF01020202020202050208020802D2
S11356B00802080208020802080208020802080296
S11356C008020B02E9002402240224022402240218
S11356D027022A022E0232023502EF00EF00EF0009
S11356E0EF00F200F500F800FB00FDF7D5BFFFF76F
S11356F0C8B8FDF7E8BF0125FDF7CEBFE225FDF7E9
S1135700CBBFE325FDF7C8BFE425FDF7C5BFE525FD
S1135710FDF7C2BF0025FDF7BFBF3325FDF7BCBFB2
S11357203425FDF7B9BF3525FDF7B6BF3625FDF79E
S1135730B3BF3725FDF7B0BF3825FDF7ADBF392519
S1135740FDF7AABF3A25FDF7A7BF3B25FDF7A4BF88
S11357503C25FDF7A1BF3D25FDF79EBF3E25FDF786
S11357609BBF3F25FDF798BF4025FDF795BF322528
S1135770FDF792BF4125FDF78FBF4225FDF78CBF92
S11357804325FDF789BF4425FDF786BF4525FDF771
S113579083BF4625FDF780BF4725FDF77DBF48251C
S11357A0FDF77ABF4925FDF777BF4A25FDF774BF9A
S11357B04B25FDF771BFDFF8B0150A7040F23910C0
S11357C0C7490A70012201F0D2FAFEF789B8DFF85E
S11357D09815012008700122C1490A7040F239105D
S11357E001F0C5FAFEF77CB84E25FDF755BF4F25ED
S11357F0FDF752BF5025FDF74FBF5125FDF74CBFB4
S11358005225FDF749BF5325FDF746BF5425FDF743
S113581043BF5525FDF740BF5625FDF73DBF57252E
S1135820FDF73ABF5825FDF737BF5925FDF734BFBB
S11358305A25FDF731BF5B25FDF72EBF5C25FDF72B
S11358402BBF5D25FDF728BF2C25FDF725BF2D2592
S1135850FDF722BF2E25FDF71FBF2F25FDF71CBF27
S1135860B925FDF719BFDFF804552946202000F0BB
S113587003FB2022294640F2FD2001F078FA2E2075
S113588020621422DFF8E814DFF8E80400F042FC98
S11358901422DFF8E414204600F03CFC0020A0763B
S11358A000F076F8032004F046F8FEF75AB9BD2557
S11358B0FDF7F2BEDFF8B4542946202000F0DCFAEC
S11358C02022294640F21D3001F051FA2F20206297
S11358D01422DFF8A814DFF89C0400F01BFC142247
S11358E0DFF89414204600F015FC0020A07600F0A8
S11358F04FF8032004F01FF8FEF733B93025FDF705
S1135900CBBEDFF834144FF6FF700880FEF700B802
S1135910A275FFF725BBA275FFF777BB2725FDF717
S1135920BBBEC725FDF7B8BEC825FDF7B5BED52556
S1135930FDF7B2BE0325FDF7AFBEDFF8FC134FF64B
S1135940FF700880FEF719B92B25FDF7A5BE0725C2
S1135950FDF7A2BE0625FDF79FBE1025FDF79CBEF0
S1135960C925FDF799BED825FDF796BE5C490A7096
S1135970FDF7B8BF5A490A70FDF7B6BFDB25FDF73E
S11359808BBEDC25FDF788BE5CE8FF1F60E8FF1FC7
S1135990FEB5DFF8EC73C94C3879DFF8E853DFF86B
S11359A0D46302280CD11422DFF8DC13304600F053
S11359B0B1FB1422DFF8D413284600F0ABFB11E04E
S11359C001280FD11422DFF8C813304600F0A2FBDF
S11359D03A68DFF8C013204600F0FCFB2946204655
S11359E000F092FA7B2000F028F900202875A6A781
S11359F0DFF8A40300F030F9304600F02DF9384602
S1135A0000F02AF9284600F027F9384600F024F976
S1135A10DFF8880300F020F9687E642190FBF1F040
S1135A203030C0B200F009F9687E0A2390FBF3F02D
S1135A300A2190FBF1F101EB8102A0EB420030302E
S1135A40C0B200F0FAF8687E0A2190FBF1F101EB94
S1135A508102A0EB42003030C0B200F0EEF8A87E24
S1135A6001280CBF4120492000F0E7F8CC4800F0A1
S1135A70F3F82A7D8FA1204600F0ACFB204600F00D
S1135A80EBF8287E012810D1A87E01280CBF412004
S1135A90492001902B46687EC24900903246204638
S1135AA000F098FB204600F0FEFA287E022813D16D
S1135AB0A87E01280CBF4120492001902B46687E16
S1135AC0B94900903246204600F084FB204603B0DA
S1135AD0BDE8F04004F011B903B0F0BD140000209B
S1135AE0C0FFFF1FFC8C010064E8FF1F0B010020B6
S1135AF00A010020F0B4AD49087810F0E00F09D095
S1135B00087840F080000870B1F80310A8480170CC
S1135B10F0BC70470A78500726D5A54AB1F803307F
S1135B20984C1370E07EF8B913787B2B02D07D2B50
S1135B302ED03EE090789F4CC0B9002525700124FA
S1135B409470D070507801280ED10A789007FCD553
S1135B501846A1F803008B48017D5B1803754FF4C8
S1135B60FA70F0BC03F0E6BEF0BC7047D07806468D
S1135B706427642596FBF7F705FB17667B27A75573
S1135B80401CC0B2642490FBF4F405FB1400D8E775
S1135B9090780128D6D1D578864F642695FBF6F601
S1135BA0642000FB1655002078550125E576907099
S1135BB0C8E7D07805466426642495FBF6F604FB12
S1135BC016557C4F7B55401CC0B2642590FBF5F5FF
S1135BD004FB1500B5E7000048FDFF1F90FFFF1F01
S1135BE0A8FFFF1F88FFFF1F7348016841F00601EB
S1135BF0016080217148026842F040020260012283
S1135C006F48417002700023437100210171AD227D
S1135C108281802143786B4A43F00303437011600F
S1135C208023DFF8A4C1CCF800302021674A11702A
S1135C30437843F01003437070475C490A78930734
S1135C40FCD50246A1F803204E490A7D8018087548
S1135C504FF4FA7003F06EBE38B50446534D0EE0AF
S1135C6029788A07FCD50146A5F80310641C454928
S1135C700A7D801808754FF4FA70C046C046207833
S1135C800028EDD131BD00000D0A0000374803782B
S1135C90427803EB830102EB41028178C07802EB86
S1135CA0820301EB430101EB810200EB420048490E
S1135CB00818704725647D00608D010048F9FF1FB6
S1135CC030B40A21B0FBF1F101EB8104274AA0EBC7
