S0390000736B2D666D332D3438706D632D757362737469636B5F7573625F6465766963655F7669727475616C5F636F6D5F706F72742E73726563CC
S113000080E3FF1F29100000451000004910000084
S11300104D100000511000005510000000000000B9
S11300200000000000000000000000005910000063
S11300305D10000000000000611000006510000069
S1130040691000006D1000007110000075100000B0
S1130050791000007D100000811000008510000060
S1130060891000008D10000091100000DD100000C8
S1130070DD1000009510000099100000DD10000054
S1130080DD1000009D100000A1100000DD10000034
S1130090DD100000DD100000DD100000A5100000E0
S11300A0A9100000AD100000B1100000DD10000028
S11300B0B5100000B9100000BD100000C110000010
S11300C0DD100000DD100000C5100000C9100000A4
S11300D0DD100000DD100000CD100000D110000084
S11300E0D5100000D9100000DD100000DD10000064
S11300F0DD100000DD100000DD100000DD10000048
S1130100DFF8D004016821F480410160DFF8C814ED
S11301100A6842F480420A60DFF8C0140A6822F4D4
S113012080420A60026822F480520260DFF8A02450
S1130130136843F4805313600B6843F480530B60DB
S1130140036823F400530360136843F400531360FB
S11301500B6843F400530B60036823F4806303606B
S1130160136843F4806313600B6843F480630B608B
S1130170036823F400630360136843F400631360AB
S11301800B6843F400630B60036823F4007303609B
S1130190106840F400701060086840F40070086053
S11301A0106840F400601060106840F40070106043
S11301B070472DE9F041044600250826DFF8208425
S11301C0DFF80C74386820F4805038603868C00454
S11301D0FCD4200638684CBF40F4005020F4005092
S11301E0386064001420C046C046D8F800006D0092
S11301F0400448BF45F00105386840F48050386039
S11302003868C004FCD54620C046C046761ED9D105
S1130210E8B2BDE8F0812DE9F04104464FF40470E2
S11302200D46B4FBF0F716465321384600F06AF940
S113023030194FF40471B0FBF1F8474503D0552150
S1130240404600F05FF933462A462146012000F07B
S113025074F83946832000F037F9474504D0414605
S1130260BDE8F04186202FE1BDE8F081F8B5D84F14
S11302700446386820F4806038600D461646322003
S1130280C046C0462046FFF794FF36B1FF20FFF773
S113029090FF761E05F8010BF8D1386840F48060B1
S11302A038604FF4FA70BDE8F24000F09BB92DE9D4
S11302B0F04182B004468846164601226946D7209A
S11302C0FFF7D4FF9DF800000006F6D5C04F38684C
S11302D020F4806038603220C046C0460B20FFF70F
S11302E068FF4FF40470B4FBF0F5A804000EFFF7A8
S11302F060FF05EB4510A4EB0010000A40EA8500FE
S1130300C0B2FFF756FFA4EB0510C0B2FFF751FFD0
S1130310FF20FFF74EFF36B1FF20FFF74AFF761E9E
S113032008F8010BF8D1386840F4806038604FF465
S1130330FA70C046C046BDE8F3812DE9F14F9046FE
S113034000284FF40470B1FBF0F000EB4012994622
S11303500CBFD4258425A1EB0216DFF884A29C4CA3
S1130360B9F1000F00F09780206820F480602060CD
S11303703220C046C046D720FFF71BFFFF20FFF7FF
S113038018FF0746206840F4806020604FF4FA703C
S1130390C046C0463806E7D5206820F48060206057
S11303A03220C046C0462846FFF703FFFF20FFF770
S11303B000FF3004000EFFF7FCFEF0B2FFF7F9FE79
S11303C0D42D12BFD62DFF20FFF7F3FE009868BB93
S11303D0FF2500274FF0080B206820F48050206090
S11303E02068C004FCD4280620684CBF40F40050A8
S11303F020F4005020606D001420C046C046DAF896
S113040000007F00400448BF47F00107206840F423
S1130410805020602068C004FCD54620C046C046F9
S1130420BBF1010BD8D188F8007023E098F8005094
S11304300827206820F4805020602068C004FCD481
S1130440280620684CBF40F4005020F4005020607F
S11304506D001420C046C046DAF80000206840F45D
S1130460805020602068C004FCD54620C046C046A9
S11304707F1EDED1761C4FF40470B6FBF0F000EB67
S11304804011B6EB0110A9F1010908F101080CD0E3
S1130490B9F1000F9AD1206840F4806020604FF4D5
S11304A0FA70BDE8F24F00F09DB8206840F4806017
S11304B0206000264FF4FA70C046C0460098002819
S11304C014BF8725D6254BE770B582B004460D4688
S11304D001226946D720FFF7C9FE9DF800000006F7
S11304E0F6D53B4E306820F4806030603220C04640
S11304F0C0462046FFF75DFEA804000EFFF759FE34
S1130500A8001CE070B582B004460D46012269467D
S1130510D720FFF7ABFE9DF800000006F6D52C4E61
S1130520306820F4806030603220C046C0462846DF
S1130530FFF73FFEA004000EFFF73BFEA000C0B291
S1130540FFF737FEFF20FFF734FE306840F4806089
S113055030604FF4FA70C046C04673BD38B51C4CC9
S1130560206820F4806020604FF6DC752846C04681
S1130570C0462846C046C0462846C046C04628460F
S1130580C046C0462846C046C0462846C046C04667
S11305909F20FFF70EFEFF20FFF70BFE1F280AD156
S11305A0FF20FFF706FE262805D1FF20FFF701FEF6
S11305B008B9002500E0FF25206840F48060206031
S11305C04FF4FA70C046C046284632BD0000000011
S11305D01034034010300340103103401032034004
S11305E010330340704730B142F6310100BF491E59
S11305F0FCD1401EF8D1704770B58F4D06002868B5
S113060040F040000C4628600FD02046FFF7EBFF77
S1130610286820F0400028602046FFF7E4FF28689F
S113062040F04000761E2860EFD170BD30B585B033
S113063000F008F9824CE06820F40070E060C82102
S1130640E06820F48060E060E06820F40060E0602E
S1130650E06820F48050E060E06820F40050E0603E
S11306606068400840006060206820F0020020605C
S1130670206820F004002060606820F008006060BA
S1130680206940F0800020610120FFF7B5FF4FF49E
S11306907A70FFF7A8FFFFF761FF48B14FF480407D
S11306A0016881F30888654A106040688047FEE766
S11306B001226946FFF7FBFD9DF8000088B1C821BF
S11306C00220FFF799FF4FF47A70FFF78CFF4FF485
S11306D08040016881F30888584A10604068804768
S11306E0FEE7C8210320FFF787FF40F6B835284608
S11306F0FFF779FF00F0F8F878B9C8210420FFF774
S11307007BFF2846FFF76FFF00F0FCF8C8210520A7
S1130710FFF772FF2846FFF766FF00F0E5F80128AF
S11307207AD1C8210620FFF767FF2846FFF75BFF51
S1130730FFF714FF48B14FF48040016881F3088843
S11307403E4A106040688047FEE7C8210720FFF753
S113075053FF2846FFF747FF012269460020FFF7B1
S1130760A6FD9DF80000002846D1C8210820FFF707
S113077043FF2846FFF737FF00F0DCF878B9C820BC
S1130780FFF731FF206920F0400020614FF4FA6048
S1130790FFF729FF206940F040002061EFE7FF20C8
S11307A08DF80000012269460020FFF734FD20691E
S11307B040F0400020610A254FF47A70FFF713FFE0
S11307C0206920F0400020614FF47A70FFF70BFF9E
S11307D0206940F040006D1E2061EDD141F2883067
S11307E0FFF701FF4FF48040016881F30888134A42
S11307F0106040688047FEE7C820FFF7F4FE2069D8
S113080020F04000206141F28830FFF7ECFE2069BF
S113081040F040002061EFE74FF47A710520FFF7C4
S1130820EBFE4FF48040016881F30888034A1060AE
S113083040688047FEE700001034034008ED00E004
S11308400034034080B500F017F90948016821F02D
S1130850C00101600748016821F0C0010160064839
S1130860016841F0C0010160BDE80140FFF748BCE8
S1130870103003401034034010320340DFF800F01E
S113088005E0FF1FDFF800F0C1E0FF1F30B142F6C2
S1130890310100BF491EFCD1401EF8D17047704A97
S11308A0136843F040031360E8B141B10B4642F6CC
S11308B0310C00BFBCF1010CFBD15B1EF7D11368F6
S11308C023F04003136041B10B4642F6310C00BFE4
S11308D0BCF1010CFBD15B1EF7D1136843F040035C
S11308E0401E1360E1D170474FF4804050F8041B60
S11308F011F1010F01D000207047B0F5003FF5D38E
S11309000120704780B572B600214FF48040FFF794
S1130910B5FF002144F20400FFF7B0FF00214FF4BB
S11309200040FFF7ABFF002148F20400FFF7A6FFE9
S113093062B601BD2DE9F04F83B000208DF80800A8
S11309406426DFF82081DFF820B1484F444C20684A
S113095080F0400020600A20FFF745FE02A93846D7
S113096000F04CF9814619F1010F0FD19DF80800F0
S113097028BBB046206880F0800020606420FFF728
S113098032FEB8F10108F5D1012071E019F1060F2A
S113099004BF9DF80800002811D1206840F04000F1
S11309A0206040F6B8342046FFF770FFC8210920C4
S11309B0FFF775FF2046FFF769FF002058E00A2083
S11309C000900098704300900098411E009140B13F
S11309D00A200190019800281CBF0198401EF8D1FC
S11309E0F2E772B60025A9F5804A04E0E95BFFF757
S11309F049FFAD1CEDB29DF80800854208DADA45DE
S1130A00F7D205EB090040452CBF01220022EDE797
S1130A100A2000900098704300900098411E0091B5
S1130A2040B10A200190019800281CBF0198401E83
S1130A30F8D1F2E762B60A20009000987043009063
S1130A400098411E002800913FF481AF0A2001E084
S1130A500198401E019001980028F9D1F0E70000A8
S1130A601034034000000C2005D00F0080E3FF1F6A
S1130A7003B0BDE8F08F000010B44448444A016854
S1130A80444C1140016044490B681A400A60434ACF
S1130A90136843F41C4343F01F03136000232360D3
S1130AA044683F4B1C4044604C6823404B6040F218
S1130AB0BF34536823435360836823F00E03836079
S1130AC08B6823F00E038B60936843F00E039360EE
S1130AD0C468344B1C40C460CC682340CB60D368EA
S1130AE043F47E4343F00803D3602F4B1C6804F0A7
S1130AF0FE041C602D4B04691C4004610C692340F6
S1130B000B61136943F4FC4343F0C003136143696D
S1130B109B089B0043614B699B089B004B61536995
S1130B2043F0030353618369DB08DB0083618B6952
S1130B30DB08DB008B61936943F007039361036A6D
S1130B409B089B0003620B6A9B089B000B62116A63
S1130B5041F003011162C168C908C900C1601449A8
S1130B600B6843F007030B60D368DB08DB00D3603A
S1130B70436923F004034361886840F004008860FB
S1130B80506920F00400506110BC704700300340ED
S1130B90E063FFFF003503400034034000320340AC
S1130BA040FCFFFFF701FFFF803503403F81FFFF5B
S1130BB00C31034002780021A2F1300CBCF10A0F81
S1130BC03CBF1101C9B2A2F14103062B03D2373A4B
S1130BD001EB0211C9B24078A0F130030A2B02D212
S1130BE041183039C9B2A0F14102062A03D2401893
S1130BF0A0F13701C9B20846704700002DE9F04D55
S1130C000D4682B00026804600270024B346B24633
S1130C102E7006E06846FFF7CDFFC01B841E2C70C3
S1130C2002260020ADF8000002223648006869461A
S1130C30FFF73DFB334833490068801C08609DF88A
S1130C400000FF280AD19DF80100FF280CD10020E4
S1130C5028704FF0FF3B5846BDE8F68D0D2804BFC1
S1130C609DF801000A28F6D0F6B28EB1072E05DAF7
S1130C706846FFF79FFF50445FFA80FA072ED0D8EA
S1130C80DFE806F00605161818182633C9E7C1E789
S1130C909DF80000532805D19DF80100A0F130070C
S1130CA0FFB201260FB1042FBBDB00270026B8E7F3
S1130CB04FF0000B6846FFF77DFFB91B891CC90084
S1130CC088408344B81B801C08BF0526761CA8E70F
S1130CD0641EE4B204B907266846FFF76BFF88F880
S1130CE00000002008F8010F9BE76846FFF762FF49
S1130CF080F0FF00504594D0002028706FF005006C
S1130D00BDE8F68D00E0FF1F604E00001CB4002219
S1130D10009211B1012913D04DE04FF080421368C5
S1130D2003F0FD031360136843F001031360AA2367
S1130D301268019241F25052138040F6A82308E051
S1130D401E4A00231360AA23126801921C4A1380CE
S1130D501C4B55241C8080241480AA241480552202
S1130D601A803022028002881207FCD5009A5AB9F0
S1130D700288920644BF4FF0FF32009202881206A6
S1130D80F4D501220092F1E711B1012910D012E04B
S1130D904FF080424FF6FE711068084010601068F2
S1130DA040F00200106010680190009816BC704773
S1130DB0024A0120F6E716BC61E0000000000E20A4
S1130DC0A80A0C2054050C203CB40023009312B153
S1130DD0012A15D052E04FF080434FF6FD751C6890
S1130DE02C401C6040F6A8251C6844F001041C60DB
S1130DF0AA241B68019341F250531C80552409E036
S1130E001B4B1C4D00241C60AA241B6801931A4B25
S1130E101C8055242C8001F08005A0241C800180B6
S1130E204FF0FF330AE00488A40648BF0093048807
S1130E3004F08004AC4204BF01240094009C002C04
S1130E40F1D012B1012A10D018E04FF080434FF6D0
S1130E50FE71186808401860186840F002001860B5
S1130E6018680190009836BC7047014B0120F6E7E2
S1130E7000000E2054050C20A80A0C2036BC6FF08C
S1130E8001007047244825490160832224490160F8
S1130E9000202449087000211E48017401210175B5
S1130EA081210176017720490A7000220A725C22AE
S1130EB00A74027842F00202027002799207FCD5A9
S1130EC000220A7504220A7609220A77017841F081
S1130ED0100101700179C906FCD5017841F0400187
S1130EE001700178027902F0E00201F0E0018A4227
S1130EF0F7D140F2FF320D4801688905890D91420E
S1130F0006D00B490B4A8A6000680880002088607C
S1130F107047000000000140001C014051E5CC1A5C
S1130F20AE1A33E5081001402000014000010040E2
S1130F3004E0024054E5CC1A19E050F8041BCB0736
S1130F4044BFA9F101035918121F0023042A41F8D0
S1130F50043BF9D25FEA827C0B4604D54FF0000CC7
S1130F60A1F800C09B1CD10744BF0021197050F8A0
S1130F70042B002AE1D1704710B450F8041B79B156
S1130F800268436812180830DC0744BFA9F1010461
S1130F90E31852F8044B43F8044B091FF9D1ECE76A
S1130FA010BC704710B5074979441831064C7C448D
S1130FB0163404E00A68081D511888470146A14206
S1130FC0F8D110BD08000000280000006DFFFFFFED
S1130FD0F401000080E3FF1F000000009DFFFFFFFD
S1130FE07C01000024FDFFFF00E0FF1F0000000063
S1130FF00120C046002801D0FFF7D4FF0020C046DE
S1131000C046FFF713FB00F000F800F001B8000041
S11310100746384600F002F8FBE7000020210903E8
S113102026311820ABBEF9E7014880470148004744
S1131030850E000039100000C046C046C046C046B8
S1131040FFF7D6FFFFF7FEBFFFF7FEBFFFF7FEBFB8
S1131050FFF7FEBFFFF7FEBFFFF7FEBFFFF7FEBFC0
S1131060FFF7FEBFFFF7FEBFFFF7FEBFFFF7FEBFB0
S1131070FFF7FEBFFFF7FEBFFFF7FEBFFFF7FEBFA0
S1131080FFF7FEBFFFF7FEBFFFF7FEBFFFF7FEBF90
S1131090FFF7FEBFFFF7FEBFFFF7FEBFFFF7FEBF80
S11310A0FFF7FEBFFFF7FEBFFFF7FEBFFFF7FEBF70
S11310B0FFF7FEBFFFF7FEBFFFF7FEBFFFF7FEBF60
S11310C0FFF7FEBFFFF7FEBFFFF7FEBFFFF7FEBF50
S11310D0FFF7FEBFFFF7FEBFFFF7FEBFFFF7FEBF40
S113400020250020A9FA0100CDFA0100D1FA01000F
S1134010D5FA0100D9FA0100DDFA01000000000020
S1134020000000000000000000000000E1FA0100B0
S1134030E5FA010000000000E9FA0100EDFA0100D0
S1134040F1FA0100F5FA0100F9FA0100FDFA0100A4
S113405001FB010005FB0100D1D60000959300008F
S1134060FBF90100DDD9000019FB01002D930100CB
S113407021FB01004BA9000029FB01006DFB01009D
S11340806DFB01002DFB010031FB01006DFB010004
S11340906DFB01006DFB01006DFB010035FB0100B0
S11340A039FB0100F9F9010041FB01006DFB01003E
S11340B045FB010049FB01004DFB010051FB0100E0
S11340C06DFB01006DFB010003FA01000DFA010014
S11340D06DFB01006DFB01005DFB010061FB010054
S11340E065FB010069FB01006DFB01006DFB010034
S11340F06DFB01006DFB01006DFB01006DFB010018
S113410038B5684CE07E012833D1674D67492846AD
S113411005F07DFA012803DB0120E07502201BE095
S11341205EA1284605F073FA012803DB0120E0753F
S1134130002011E05E49284605F069FA012802DBF7
S11341400120E07508E056A1284605F060FA012830
S113415003DB0120E075032060750020E076207EFB
S113416038B1544805F0A6FB2846BDE8324005F0B6
S1134170A1BB31BDF0B5142883B0044658D8DFE89C
S113418000F00B0E1114171A1D2E3134373A3D402E
S11341904346494C4F5752001422474945E01422E4
S11341A0464942E0142246493FE0142245493CE096
S11341B01422454939E01422444936E0444D454926
S11341C01422284605F0DCFB4348006800282FD160
S11341D04E2068732E20A8734520E87328E014222B
S11341E03E4922E014223E491FE014223D491CE0CE
S11341F014223D4919E014223C4916E014223C499A
S113420013E014223B4910E014223B490DE0142230
S11342103A490AE014223A4907E01422394904E0F1
S11342201422394901E014223849294805F0A8FB31
S113423037480068E040C00706D5254D592068730B
S11342406520A8737320E87304EB44004000314EEA
S1134250314F00F52C5006223146503005F0BCFC9D
S11342603079737832782D490290F0780190B078E3
S11342700C4E0090384605F0E3FE002038743146B9
S1134280384605F042FA0CB17F203070142CBCBFC4
S11342907E20F0730020B07603B0F0BD55500000CE
S11342A045534300E01E0020681C0020D8DB0100B9
S11342B0E0DB0100E8DB0100F4DB010008DC0100C5
S11342C01CDC010030DC010044DC010058DC01008E
S11342D0641F00206CDC01006820002080DC0100E9
S11342E094DC0100A8DC0100BCDC0100D0DC01008E
S11342F0E4DC0100F8DC01000CDD010020DD01003C
S113430034DD010048DD01005CDD010070DD0100E9
S1134310B4200020681300208819002084DD0100E7
S1134320F0B5DFF89C4B83B0206AD32802F2C38433
S1134330DFE810F0D400E500F8000B011A015A017F
S1134340B91102121412FB121E1344137E13B81374
S1134350DA13FC1318143C143E144014421444148D
S1134360461448144A144C144E1450145214541441
S1134370561458145A145C145E1462149214C11422
S1134380F2010302040FA60FB60F150F2A0F440FF4
S11343905E0F710F840F970F120223023602490237
S11343A05C026F0282029502A802BB02CE02E10205
S11343B0F40207031A032D0340035303660379032E
S11343C08C039F03B403C703DA03ED03000413044F
S11343D0260439044C045F04720485049804AB0475
S11343E0BE04D104E00403052A0553057D05A30595
S11343F0CA05EF05140639065D068006A406C7063D
S1134400EB060C0716072A07500774079907B70726
S1134410D507E007FA0719083F084B085C086E083F
S11344208608AA08E60805092409430962098B09D4
S1134430B409DD09050A610A6F0A7D0A8B0A990A23
S1134440A80AB70AC60AD50AE40AF30A020B100B33
S11344501E0B2C0B3B0B4A0B590B680B770B860B73
S1134460950BA40BB30BC20BC114D40BE30BF20BCF
S1134470040C130C260C350C440C560CC114D00F30
S1134480F50F52106310A6103A1172108810F01034
S11344903A11631189119411A41132104010650C62
S11344A0770C8A0C990CE00CFF0C200D410D620D69
S11344B0830DA40DC50DE60D070E180E2A0E3C0E35
S11344C0540E6C0E880EA80EC60EE10E69017A0118
S11344D08D01A001AF01BE01CD01DC011422DFF882
S11344E0941CDFF8940C05F04BFA1422DFF88C1CB2
S11344F0204605F045FA7E20E07302F0DABB142270
S1134500DFF8701CDFF8700C05F03AFA1422DFF8BB
S1134510701C204605F034FA7F2020707E20E07362
S113452002F0C7BB1422DFF84C1CDFF84C0C05F07A
S113453027FA1422DFF84C1C204605F021FA7F20CC
S113454020707E20E07302F0B4BB1422DFF8241C38
S1134550DFF8240C05F014FA1422DFF8B01D20460D
S113456005F00EFA02F0A3BB1422DFF8A41DDFF855
S1134570080C05F005FA1422DFF8981D204605F012
S1134580FFF9A07D032802F23680DFE810F0040072
S11345900C0016002100CE206076DFF87C0D007838
S11345A0A07102F028B8CF2060767820A071DFF8DF
S11345B0680D4078E07102F01EB8D0206076782053
S11345C0A071E071DFF8500D8078207202F013B80A
S11345D0D12060767820A071E0712072DFF8380D68
S11345E0C078607202F007B81422DFF8241DDFF8E7
S11345F0880B05F0C5F91422DFF8201D204605F0CC
S1134600BFF902F056BB1422DFF8141DDFF8680B63
S113461005F0B6F91422DFF80C1D204605F0B0F9B8
S11346207E20E07302F045BB1422DFF8F41CDFF8AF
S1134630480B05F0A5F91422DFF8D01D204605F03B
S11346409FF97F2020707E20E07302F032BB142299
S1134650DFF8CC1CDFF8200B05F092F91422DFF808
S1134660D41D204605F08CF97F2020707E20E07355
S113467002F01FBB1422DFF8A81CDFF8FC0A05F0C7
S11346807FF91422DFF8B01D204605F079F902F015
S11346900EBB1422DFF8A41DDFF8DC0A05F070F964
S11346A01422DFF8C41D204605F06AF902F001BBAC
S11346B01422DFF8B81DDFF8C00A05F061F91422EE
S11346C0DFF8AC1D204605F05BF902F0F2BA1422C3
S11346D0DFF8A01DDFF8A00A05F052F91422DFF874
S11346E0981D204605F04CF902F0E3BA1422DFF8D5
S11346F08C1DDFF8840ADFF8885D05F041F9DFF8E6
S1134700840D0268E4A1284605F09AFC2146284657
S113471004F0FBFF02F0CDBA1422DFF88C1DDFF8A1
S1134720580A05F02DF91422DFF8801D204605F003
S113473027F97E20E07302F0BCBA1422DFF8681D6A
S1134740DFF8340A05F01CF91422DFF8641D204652
S113475005F016F902F0ABBA1422DFF8581DDFF8A1
S1134760180A05F00DF91422DFF84C1D204605F057
S113477007F97E20E07302F09CBA1422DFF8341D9E
S1134780DFF8F40905F0FCF81422DFF8301D2046A8
S113479005F0F6F87F2020707E20E07302F089BADD
S11347A01422DFF8101DDFF8D00905F0E9F814220F
S11347B0DFF80C1D204605F0E3F87F2020707E20F2
S11347C0E07302F076BA1422DFF8E81CDFF8A809D7
S11347D005F0D6F81422DFF8EC1C204605F0D0F8DA
S11347E07F2020707E20E07302F063BA1422DFF889
S11347F0C41CDFF8840905F0C3F81422DFF8C81CD0
S1134800204605F0BDF87F2020707E20E07302F082
S113481050BA1422DFF89C1CDFF85C0905F0B0F8EC
S11348201422DFF8A81C204605F0AAF87F20207087
S11348307E20E07302F03DBA1422DFF8781CDFF822
S1134840380905F09DF81422DFF8841C204605F091
S113485097F87F2020707E20E07302F02ABA142299
S1134860DFF8501CDFF8100905F08AF81422DFF88D
S1134870641C204605F084F87F2020707E20E073BD
S113488002F017BA1422DFF82C1CDFF8EC0805F04C
S113489077F81422DFF8401C204605F071F87F20D9
S11348A020707E20E07302F004BA1422DFF8041CA6
S11348B0DFF8C40805F064F81422DFF8201C204651
S11348C005F05EF87F2020707E20E07302F0F1B9DD
S11348D01422DFF8E01BDFF8A00805F051F81422D9
S11348E0DFF8FC1B204605F04BF87F2020707E206B
S11348F0E07302F0DEB91422DFF8B81BDFF87808A1
S113490005F03EF81422DFF8DC1B204605F038F8E9
S11349107F2020707E20E07302F0CBB91422DFF8F0
S1134920941BDFF8540805F02BF81422DFF8B81BA9
S1134930204605F025F87F2020707E20E07302F0E9
S1134940B8B91422DFF86C1BDFF82C0805F018F84E
S11349501422DFF8981B204605F012F87F202070FF
S11349607E20E07302F0A5B91422DFF8481BDFF8BB
S1134970080805F005F81422DFF8741B204604F03B
S1134980FFFF7F2020707E20E07302F092B9142292
S1134990DFF8201BDFF8E00704F0F2FF1422DFF851
S11349A0541B204604F0ECFF7F2020707E20E0732F
S11349B002F07FB91422DFF8FC1ADFF8BC0704F018
S11349C0DFFF1422DFF8301B204604F0D9FF7F20DC
S11349D020707E20E07302F06CB91422DFF8D41A40
S11349E0DFF8940704F0CCFF1422DFF8101B2046F4
S11349F004F0C6FF7F2020707E20E07302F059B9D6
S1134A001422DFF8B01ADFF8700704F0B9FF14229B
S1134A10DFF8741D204604F0B3FF7F2020707E2051
S1134A20E07302F046B91422DFF8881ADFF8480769
S1134A3004F0A6FF1422DFF8541D204604F0A0FF62
S1134A407F2020707E20E07302F033B91422DFF857
S1134A50641ADFF8240704F093FF1422DFF8301DF2
S1134A60204604F08DFF7F2020707E20E07302F04A
S1134A7020B91422DFF83C1ADFF8FC0604F080FFAA
S1134A801422DFF8101D204604F07AFF7F202070E6
S1134A907E20E07302F00DB9256400001422DFF8D3
S1134AA0141ADFF8D40604F06BFF1422DFF8E81CB4
S1134AB0204604F065FF7F2020707E20E07302F022
S1134AC0F8B81422DFF8EC19DFF8AC0604F058FF4C
S1134AD01422DFF8C81C204604F052FF7F20207007
S1134AE07E20E07302F0E5B81422DFF8C819DFF87D
S1134AF0880604F045FF1422DFF8A41C204604F0C5
S1134B003FFF7F2020707E20E07302F0D2B8142291
S1134B10DFF8A019DFF8600604F032FF1422DFF892
S1134B20841C204604F02CFF7F2020707E20E0733C
S1134B3002F0BFB81422DFF87C19DFF83C0604F059
S1134B401FFF1422DFF8601C204604F019FF7F20A9
S1134B5020707E20E07302F0ACB81422DFF8541900
S1134B60DFF8140604F00CFF1422DFF8401C204682
S1134B7004F006FF7F2020707E20E07302F099B8D5
S1134B801422DFF83019DFF8F00504F0F9FE1422DE
S1134B90DFF81C1C204604F0F3FE7F2020707E20EA
S1134BA0E07302F086B81422DFF80819DFF8C805AC
S1134BB004F0E6FE1422DFF8FC1B204604F0E0FEBD
S1134BC07F2020707E20E07302F073B81422DFF897
S1134BD0E418DFF8A40504F0D3FE1422DFF8D81B90
S1134BE0204604F0CDFE7F2020707E20E07302F08A
S1134BF060B81422DFF8BC18DFF87C0504F0C0FEAE
S1134C001422DFF8B81B204604F0BAFE7F2020707F
S1134C107E20E07302F04DB81422DFF89818DFF814
S1134C20580504F0ADFE1422DFF8941B204604F06E
S1134C30A7FE7F2020707E20E07302F03AB8142291
S1134C40DFF87018DFF8300504F09AFE1422DFF85C
S1134C50741B204604F094FE7F2020707E20E073B5
S1134C6002F027B81422DFF84C18DFF80C0504F022
S1134C7087FE1422DFF8501B204604F081FE7F20BB
S1134C8020707E20E07302F014B81422DFF8241898
S1134C90DFF8E40404F074FE1422DFF8301B20462D
S1134CA004F06EFE7F2020707E20E07302F001B8D5
S1134CB01422DFF80018DFF8C00404F061FE1422A7
S1134CC0DFF80C1B204604F05BFE7F2020707E2062
S1134CD0E07301F0EEBF1422DFF8D817DFF8980470
S1134CE004F04EFE1422DFF8EC1A204604F048FECD
S1134CF001F0DDBF1422DFF8C81DDFF87C0404F0E6
S1134D003FFE41F288330022DFF8CC1A204605F03A
S1134D1097F9DFF804060178A1714178E17181788F
S1134D202172C0786072A07D032801F2C287DFE897
S1134D3010F05D0526004F0079001422DFF8E01D15
S1134D40DFF8340404F01CFE1E230222DFF8881A64
S1134D50204605F075F9DFF8C0050178A1714178A6
S1134D60E17181782172C0786072A07D032801F21C
S1134D70A087DFE810F03B0504002D005700CF208A
S1134D806076012001F096BF1422DFF8D81DDFF809
S1134D90E80304F0F5FD4FF4FA730A22DFF8381A39
S1134DA0204605F04DF9DFF870050178A1714178CE
S1134DB0E17181782172C0786072A07D032801F2CC
S1134DC07887DFE810F01305040005002F00D6E70C
S1134DD0D0206076012001F06DBF1422DFF8E41DBD
S1134DE0DFF8940304F0CCFD4FF4FA730A22DFF8E1
S1134DF0E819204605F024F9DFF81C050178A171B3
S1134E004178E17181782172C0786072A07D0328B5
S1134E1001F24F87DFE810F0EA0405000400060001
S1134E20D6E7ACE7D1206076012001F043BF14221D
S1134E30DFF8A819DFF8400304F0A2FD4FF4FA7379
S1134E400022DFF89419204605F0FAF8DFF8C804C8
S1134E500178A1714178E17181782172C078607222
S1134E60A07D032801F22587DFE810F0C0040600C6
S1134E7005000400D6E7ABE781E71422DFF86019E8
S1134E80BD4804F07DFD4FF4FA630122DFF84819B0
S1134E90204605F0D5F8DFF880040178A171417847
S1134EA0E17181782172C0786072A07D032801F2DB
S1134EB00087DFE810F09B04080007000400B1E756
S1134EC0E01E002084E75AE71422DFF8001EAA48F7
S1134ED004F056FD4FF4FA630122DFF8FC18204673
S1134EE005F0AEF8DFF830040178A1714178E17182
S1134EF081782172C0786072A07D032801F2D9867E
S1134F00DFE810F074040600050004008AE75FE798
S1134F1035E71422DFF8B81D974804F031FD4FF44B
S1134F20FA630122DFF8B018204605F089F8DFF8AB
S1134F30E8030178A1714178E17181782172C07828
S1134F406072A07D032801F2B486DFE810F04F04FC
S1134F5006000500040065E73AE710E71422DFF8CD
S1134F60741D854804F00CFD4FF4E1530022DFF872
S1134F706818204605F064F8DFF89C030178A171F5
S1134F804178E17181782172C0786072A07D032834
S1134F9001F28F86DFE810F02A0406000500040001
S1134FA040E715E7EBE61422DFF82C1D724804F005
S1134FB0E7FCF0230022DFF82018204605F040F833
S1134FC0DFF854030178A1714178E171817821728D
S1134FD0C0786072A07D032801F26B86DFE810F0D0
S1134FE006040600050004001CE7F1E6C7E61422E7
S1134FF0DFF8E81C604804F0C3FC3C230022DFF81F
S1135000D817204605F01CF8C3480178A1714178EF
S1135010E17181782172C0786072A07D032801F269
S11350204886DFE810F0E303060005000400F9E613
S1135030CEE6A4E61422DFF8A81C4F4804F0A0FC36
S11350404FF461633222DFF89017204604F0F8FF32
S1135050B1480178A1714178E17181782172C078F9
S11350606072A07D032801F22486DFE810F0BF03FC
S1135070060005000400D5E6AAE680E61422DFF85F
S1135080641C3D4804F07CFC50230A22DFF84817D6
S1135090204604F0D5FFA0480178A1714178E17160
S11350A081782172C0786072A07D032801F20186A4
S11350B0DFE810F09C03060005000400B2E687E672
S11350C05DE61422DFF8201C2B4804F059FC4FF451
S11350D061631E22DFF80017204604F0B1FF8E48FA
S11350E00178A1714178E17181782172C078607290
S11350F0A07D032801F2DD85DFE810F078030600C7
S1135100050004008EE663E639E61422DFF8DC1BB2
S1135110194804F035FC1422DFF8D41B204604F0AF
S11351202FFC7D480178A1714178E1718178217269
S1135130C0786072A07D002800F0588301283FF4F5
S11351401EAE03283FF46EAE01F0B3BD1422DFF8A7
S1135150841E094804F014FC1422DFF87C1EDDE7E9
S11351601422DFF89C1E044804F00AFC1422DFF821
S1135170681ED3E7A8DD0100641F0020BCDD010028
S1135180D0DD0100E4DD01001422DFF8781EDFF831
S1135190780E04F0F5FB4FF4FA634FF4FA72DFF87B
S11351A03816204604F04CFF5B480178A171417821
S11351B0E17181782172C0786072A07D032801F2C8
S11351C07885DFE810F0130306000500040029E6E3
S11351D0FEE5D4E51422DFF89C1EDFF82C0E04F063
S11351E0CFFB3C231422DFF8F015204604F028FFFF
S11351F049480178A1714178E17181782172C078C0
S11352006072A07D032801F25485DFE810F0EF02FC
S113521006000500040005E6DAE5B0E51422DFF82F
S1135220601EDFF8E40D04F0ABFB4FF47A63052253
S1135230DFF8A415204604F003FF37480178A17174
S11352404178E17181782172C0786072A07D032871
S113525001F22F85DFE810F0CA0206000500040001
S1135260E0E5B5E58BE51422DFF8C41EDFF8980D00
S113527004F086FB1422DFF8BC1E204604F080FBF9
S113528025480178A1714178E17181782172C07853
S11352906072A07D002800F0A98202283FF498AD36
S11352A04FE71422DFF8901EDFF85C0D04F068FB72
S11352B01422DFF8D01E204604F062FB1648017861
S11352C0A1714178E17181782172C0786072A07D0A
S11352D0002800F08B8202283FF47AAD31E71422D3
S11352E0DFF8CC1EDFF8200D04F04AFB1422DFF8AF
S11352F0C41E13E71422DFF8C01EDFF80C0D04F0FF
S11353003FFB1422DFF8AC1E08E700BFF8DD010004
S11353100CDE010020DE0100041F002034DE010049
S113532048DE01005CDE01001422DFF8B81EDFF85D
S1135330D80C04F025FB1422DFF8AC1E204604F040
S11353401FFBDFF8A80E0178A1714178E171817823
S11353502172C0786072A07D002800F04782022884
S11353603FF436ADEDE61422DFF83814DFF8980C7C
S113537004F006FB4FF4FA630A22DFF85C142046BB
S113538004F05EFEDFF8640E0178A1714178E171EA
S113539081782172C0786072A07D032801F289842B
S11353A0DFE810F024020600050004003AE50FE5EA
S11353B0E5E41422DFF8D81EDFF84C0C04F0E0FA20
S11353C01422DFF8D01E01F053B91422DFF8C81EEE
S11353D0DFF8340C04F0D4FA1422DFF8C01E20469F
S11353E004F0CEFA7E20E07301F063BC1422DFF8EF
S11353F0A81EDFF8140C04F0C3FA1422DFF8C01E50
S1135400204604F0BDFA01F052BC00BF70DE01007A
S11354101422DFF8B01EDFF8F00B04F0B1FA142206
S1135420DFF8A41E204604F0ABFA7E20E07301F0FE
S113543040BC00BF84DE010098DE0100ACDE010048
S11354401422DFF8801EDFF8C00B04F099FA14224E
S1135450DFF8781E204604F093FA7F2020707E2027
S1135460E07301F026BC00BFC0DE0100D4DE010001
S1135470E8DE0100FCDE010010DF010024DF010092
S113548088190020B41D00201422DFF8381EDFF82C
S1135490780B04F075FA1422DFF8341E204604F069
S11354A06FFA01F004BC00BF38DF01004CDF0100DB
S11354B060DF010074DF010088DF01009CDF010070
S11354C0B0DF0100C4DF0100D8DF0100ECDF010020
S11354D000E0010014E0010028E001003CE00100CC
S11354E050E0010064E0010078E001008CE001007C
S11354F0A0E00100B4E00100C8E00100DCE001002C
S11355001422DFF8781EDFF8000B04F039FA1422B5
S1135510DFF8BC1E204604F033FADFF8D00C017823
S1135520A1714178E17181782172C0786072A07DA7
S1135530002800F05B8102283FF44AAC01E6142203
S1135540DFF8901EDFF8C00A04F01AFA1422DFF81C
S1135550801E204604F014FADFF8900C0178A17143
S11355604178E17181782172C0786072A07D002851
S113557000F03C8102283FF42BACE2E51422DFF872
S1135580BC1EDFF8840A04F0FBF91422DFF8B01E15
S1135590204604F0F5F9DFF8540C0178A171417844
S11355A0E17181782172C0786072A07D002800F0DA
S11355B01D8102283FF40CACC3E51422DFF8A41EBD
S11355C0DFF8440A04F0DCF91422DFF8041E204654
S11355D004F0D6F9DFF8140C0178A1714178E17177
S11355E081782172C0786072A07D002800F0FE806E
S11355F002283FF4EDABA4E51422DFF86C1EDFF8BB
S1135600080A04F0BDF942F20F730022DFF85C1EB1
S1135610204604F015FDDFF8D40B0178A171417820
S1135620E17181782172C0786072A07D032801F253
S11356304083DFE810F0DB00080006000400FFF7F9
S1135640F1BBFFF7C5BBFFF79ABB1422DFF8201E9E
S1135650DFF8B40904F094F942F20F730022DFF882
S11356600C1E204604F0ECFCDFF8800B0178A171DD
S11356704178E17181782172C0786072A07D03283D
S113568001F21783DFE810F0B200080006000400FE
S1135690FFF7C8BBFFF79CBBFFF771BB1422DFF811
S11356A0D41DDFF8640904F06BF94FF47A733222E5
S11356B0DFF8B81D204604F0C3FCDFF8300B017896
S11356C0A1714178E17181782172C0786072A07D06
S11356D0032801F2EE82DFE810F0890008000600DA
S11356E00400FFF79FBBFFF773BBFFF748BBDFF86E
S11356F0880DDFF814196CC86CC140F6371300220A
S1135700DFF8681D204604F09BFCDFF8E00A01780E
S1135710A1714178E17181782172C0786072A07DB5
S1135720032801F2C682DFE810F0610008000600D9
S11357300400FFF777BBFFF74BBBFFF720BB142236
S1135740DFF8381DDFF8C00804F01AF91E2305221B
S1135750DFF8181D204604F073FCDFF8900A017886
S1135760A1714178E17181782172C0786072A07D65
S1135770032801F29E82DFE810F03900370035007B
S11357800400FFF74FBB00BFF0E0010004E101009B
S113579018E101002CE1010040E1010054E10100A5
S11357A068E101007CE1010090E10100A4E1010055
S11357B0B8E10100CCE10100E0E10100F4E1010005
S11357C008E201001CE2010030E2010044E20100B1
S11357D058E201006CE2010094E20100E4E20100FD
S11357E0F8E20100FFF7F4BAFFF7C9BACE206076F9
S11357F0012001F05FBA1422B149DFF80C0804F06B
S1135800BFF81422DFF8701E204604F0B9F801F046
S113581050BA1422C249DFF8F00704F0B1F8142298
S1135820DFF8541E204604F0ABF801F042BA14220B
S1135830CC49DFF8D40704F0A3F81422DFF8381EAB
S1135840204604F09DF801F034BA1422DD49DFF853
S1135850B80704F095F81422DFF81C1E204604F063
S11358608FF801F026BA1422DFF8701EDFF89807CB
S113587004F086F81422DFF8001E204604F080F8B5
S113588001F017BA1422DFF8581EDFF87C0704F081
S113589077F81422DFF8E01D204604F071F801F0D7
S11358A008BA1422DFF83C1EDFF85C0704F068F83D
S11358B01422DFF8C41D204604F062F801F0F9B99F
S11358C01422DFF8241EDFF8400704F059F81422EC
S11358D0DFF8A41D204604F053F801F0EAB91422BD
S11358E0DFF8701EDFF8200704F04AF81422DFF80E
S11358F0881D204604F044F801F0DBB91422DFF8D7
S1135900581EDFF8040704F03BF81422DFF8681D82
S1135910204604F035F801F0CCB91422DFF86C1EEF
S1135920DFF8E40604F02CF81422DFF84C1D2046BE
S113593004F026F801F0BDB91422E949DFF8C806DD
S113594004F01EF81422DFF8301D204604F018F885
S113595001F0AFB91422E349DFF8AC0604F010F803
S11359601422DFF8141D204604F00AF801F0A1B94E
S11359701422DD49DFF8900604F002F81422DFF85F
S1135980F81C204603F0FCFF01F093B91422DFF861
S1135990001EDFF8740603F0F3FF1422DFF8D81CAE
S11359A0204603F0EDFF01F084B91422DFF8241639
S11359B0DFF8540603F0E4FF1422DFF8BC1C204691
S11359C003F0DEFF01F075B91422DFF83416DFF8B6
S11359D0380603F0D5FF1422DFF89C1C204603F0A0
S11359E0CFFF01F066B91422DFF82C1EDFF8180689
S11359F003F0C6FF1422DFF8801C204603F0C0FF2A
S1135A0001F057B91422DFF86C16DFF8FC0503F037
S1135A10B7FF1422DFF8601C204603F0B1FF01F049
S1135A2048B91422DFF85816DFF8DC0503F0A8FFA4
S1135A301422DFF8441C204603F0A2FF01F039B918
S1135A401422DFF8EC16DFF8C00503F099FF1422E6
S1135A50DFF8241C204603F093FF01F02AB9142236
S1135A60DFF8D416DFF8A00503F08AFF1422DFF86C
S1135A70081C204603F084FF01F01BB91422DFF850
S1135A801C1EDFF8840503F07BFF1422DFF8E81BFB
S1135A90204603F075FF01F00CB91422DFF8001E54
S1135AA0DFF8640503F06CFF1422DFF8CC1B2046FA
S1135AB003F066FF01F0FDB81422DFF8281701E0B7
S1135AC080E20100DFF8400503F05AFF1422DFF8FA
S1135AD0A81B204603F054FF01F0EBB81422DFF8B2
S1135AE09C18DFF8240503F04BFF1422DFF8881B11
S1135AF0204603F045FF01F0DCB81422DFF8D41887
S1135B00DFF8040503F03CFF1422DFF86C1B204689
S1135B1003F036FF01F0CDB81422DFF8201901E0BC
S1135B20A8E20100DFF8E00403F02AFF1422DFF802
S1135B30481B204603F024FF01F0BBB81422DFF811
S1135B402419DFF8C40403F01BFF1422DFF8281B18
S1135B50204603F015FF01F0ACB81422DFF8081951
S1135B6002E000BFBCE20100DFF89C0403F008FF80
S1135B701422DFF8041B204603F002FF01F099B859
S1135B801422DFF8EC18DFF8800403F0F9FE142285
S1135B90DFF8E41A204603F0F3FE01F08AB8142279
S1135BA0DFF8D018DFF8600403F0EAFE1422DFF80F
S1135BB0C81A204603F0E4FE01F07BB8DFF8B80809
S1135BC002E000BFD0E20100DFF83C146CC86CC1F5
S1135BD01422DFF8A41A204603F0D2FE01F069B8BB
S1135BE01422DFF89818DFF8200403F0C9FE142209
S1135BF0DFF8841A204603F0C3FE01F05AB81422D9
S1135C00DFF8D41DDFF8000403F0BAFE1422DFF835
S1135C100C1E204603F0B4FE0020A0767E2000F087
S1135C2089BD1422DFF8B01DDFF8DC0303F0A8FE01
S1135C301422DFF8EC1D204603F0A2FE7F20207022
S1135C407E20E07301F035B81422DFF88C1DEE4895
S1135C5003F096FE1422DFF8CC1D204603F090FEDC
S1135C600020A076C8E11422DFF8BC1DE64803F04A
S1135C7087FE1422DFF8B41D204603F081FE0020C5
S1135C80A076DFF8080E007800F001010129A4BF16
S1135C904821A17000F002010129A4BF48216171CB
S1135CA000F004010129A4BF4821217200F0080179
S1135CB00129A4BF4821E17200F010000128C0F2BC
S1135CC0FA874820A07300F0F6BF00BF0CE3010080
S1135CD020E3010034E3010048E301005CE3010038
S1135CE070E3010084E3010098E30100ACE30100E8
S1135CF0C0E301001422DFF8981DC348DFF8945D67
S1135D0003F03EFE0020A076DFF88C1DDFF88C0D3A
S1135D10007800F001000128ACBFD7A2D7A2284622
S1135D2004F08EF92146284603F0EFFC7E2000F0B3
S1135D3001BD1422DFF8581DB348DFF8585D03F0A5
S1135D401FFE0020A076DFF8581DDFF8500D007804
S1135D5000F002000128ACBFC7A2C8A2284604F084
S1135D606FF92146284603F0D0FC7F2020707E2066
S1135D7000F0E0BC1422DFF8181DA348DFF8145D1E
S1135D8003F0FEFD0020A076DFF8D41DDFF80C0D33
S1135D90007800F004000128ACBFB7A2B7A22846DF
S1135DA004F04EF92146284603F0AFFC7F20207012
S1135DB07E2000F0BFBC1422DFF8D41C9248DFF828
S1135DC0D45C03F0DDFD0020A076DFF8BC1DDFF815
S1135DD0CC0C007800F008000128ACBFA6A2A7A252
S1135DE0284604F02DF92146284603F08EFC7F2036
S1135DF020707E2000F09EBC1422DFF8941C8248A0
S1135E00DFF8905C03F0BCFD0020A076DFF87C1D79
S1135E10DFF8880C007800F010000128ACBF96A2CF
S1135E2096A2284604F00CF92146284603F06DFC9E
S1135E307F2020707E2000F07DBC1422DFF8501CEF
S1135E407148DFF8505C03F09BFD0020A076DFF87A
S1135E50401DDFF8480C007800F020000128ACBF9A
S1135E6085A286A2284604F0EBF82146284603F0D2
S1135E704CFC7F2020707E2000F05CBC1422DFF8F4
S1135E80101C6148DFF80C5C03F07AFD0020A0765A
S1135E90DFF8081DDFF8040C007800F0400001284A
S1135EA0ACBF75A275A2284604F0CAF8214628465C
S1135EB003F02BFC7F2020707E2000F03BBC1422DA
S1135EC0DFF8CC1B5048DFF8CC5B03F059FD002011
S1135ED0A076DFF8CC1CDFF8C40B007800F080005B
S1135EE00128ACBF64A265A2284604F0A9F82146A3
S1135EF0284603F00AFC7F2020707E2000F01ABCA4
S1135F001422DFF88C1B4048DFF8885B03F038FD6F
S1135F100020A076DFF88C1CDFF8800B008800F4EA
S1135F2080700128ACBF54A254A2284604F088F81B
S1135F302146284603F0E9FB7F2020707E2000F0F4
S1135F40F9BB1422DFF8601C2F4803F019FD002070
S1135F50A0761422DFF8681D204603F011FD7E2090
S1135F6000F0E8BB1422DFF8401C274803F008FDCA
S1135F701422DFF8501D204603F002FD7F2020701C
S1135F807E20E07300F095BE1422DFF81C1C1E482E
S1135F9003F0F6FC1422DFF8301D204603F0F0FC79
S1135FA07F2020707E20E07300F083BE1422DFF88F
S1135FB0F81B154803F0E4FC0020A0761422DFF857
S1135FC00C1D204603F0DCFC7F2020707E20E07353
S1135FD000F06FBED4E30100E8E301001422DFF80F
S1135FE0C81B094803F0CCFC0020A0761422DFF87B
S1135FF0E01C204603F0C4FC7F20207000F05BBE50
S1136000FCE3010010E40100641F00201422DFF807
S1136010C41CDFF8C40CDFF87C5A03F0B1FC002088
S1136020A076DFF8B81CDFF8B80C406804F022F85A
S1136030DFF8B01C086004F09BF80B460246DFF85A
S1136040A81C6CE01422DFF8A41CDFF88C0CDFF829
S1136050445A03F095FC0020A0766421DFF8900CEC
S1136060006890FBF1F2DFF88C1C284603F0E8FF8F
S113607058E000BF24E401004F4646004F4E0000A4
S113608038E401001422DFF8701CDFF84C0CDFF850
S1136090045A03F075FC0020A076DFF8601CDFF8DA
S11360A0600C0068086004F08FF8DFF8581C03F0F7
S11360B0E1FF04F05DF80B460246DFF84C1C2EE0CD
S11360C01422DFF8481CDFF8100CDFF8C85903F07D
S11360D057FC0020A076DFF8380C006804F074F850
S11360E0DFF8301C03F0C6FF04F042F80B4602460A
S11360F0DFF8241C13E01422DFF8201CDFF8D80B8F
S1136100DFF8905903F03CFC0020A076DFF8100C77
S1136110006804F02DF80B460246DFF8081C2846F8
S113612003F08EFF2146284603F0EFFA00F0C3BDCA
S11361304CE4010060E4010074E401001422DFF87F
S1136140F41BDFF8940B03F01BFC1422DFF8E81BAC
S1136150204603F015FC7E20E07300F0AABD142253
S1136160DFF8D01BDFF8700B03F00AFC1422DFF811
S1136170CC1B204603F004FC7F2020707E20E073BB
S113618000F097BD88E401001422DFF8A81BDFF8B3
S1136190480B03F0F5FB1422DFF8A41B204603F0A0
S11361A0EFFB7F2020707E20E07300F082BD00BFF3
S11361B09CE40100B0E40100C4E401001422DFF80F
S11361C0741BDFF8140B03F0DBFB1422DFF8741BE1
S11361D0204603F0D5FB7F2020707E20E07300F082
S11361E068BD00BFD8E40100ECE40100041F0020F6
S11361F01422DFF8401BDFF8E00A03F0C1FB14228D
S1136200DFF8441B204603F0BBFB7F2020707E2078
S1136210E07300F04EBD1422DFF8181BDFF8B80A53
S113622003F0AEFB1422DFF8241B204603F0A8FB86
S11362307F2020707E20E07300F03BBD1422DFF845
S1136240F41ADFF8940A03F09BFB1422DFF8001B16
S1136250204603F095FB7F2020707E20E07300F041
S113626028BD1422DFF8CC1ADFF86C0A03F088FB8F
S11362701422DFF8E01A204603F082FB00F017BD79
S1136280DFF818184FF6F47008802A20D6E100BF12
S113629000E5010014E5010028E501003CE50100EA
S11362A01422DFF8B41ADFF8300A03F069FB142271
S11362B0DFF8841A204603F063FB00F0FABC00BF49
S11362C050E5010064E5010078E501008CE501007A
S11362D0A0E501001422DFF8841ADFF8FC0903F0BA
S11362E04FFB1422DFF8781A204603F049FB012003
S11362F0A076DFF8700A017861714178A171817824
S11363002172C0786072A07D032800F2D484DFE893
S113631010F03700040039003B00CE2039E014228D
S1136320DFF8441ADFF8B00903F02AFB1422DFF87F
S11363303C1A204603F024FBDFF8280A0178617137
S11363404178A1712D21E17181782172C178617246
S11363502D21A1720179E172407920730120A07688
S1136360A07D052800F2A784DFE810F00A000600EB
S11363700C000E0010001200CFE700BFB4E50100CE
S1136380CD2006E0D02004E0D12002E0D32000E0BC
S1136390D420607600F08FBC1422DFF8D419DFF823
S11363A0380903F0EDFA1422B349204603F0E8FA61
S11363B000F07FBC1422DFF8BC19DFF81C0903F0DD
S11363C0DFFA1422AC49204603F0DAFA00F071BC7B
S11363D0C8E50100DCE501001422DFF89C19DFF8B0
S11363E0F80803F0CDFA1422DFF89019204603F0E0
S11363F0C7FA7E20E07300F05CBC1422DFF8781941
S1136400DFF8D40803F0BCFA1422DFF8741920462C
S113641003F0B6FA00F04BBC1422DFF86819DFF879
S1136420B80803F0ADFA1422DFF85019204603F03F
S1136430A7FA7E20E07300F03CBC00BFF0E5010049
S113644004E601001422DFF83C19DFF88C0803F09D
S113645097FA1422DFF82819204603F091FA00F085
S113646026BC00BF18E601002CE6010040E601004E
S113647050E6010064E6010078E6010088E60100C8
S1136480DFF810562022294640F2FD2003F0A4FB39
S1136490002085F820000021DFF8EC08DFF83868D8
S11364A00170A4F1100231462B78FBB10778102F4C
S11364B003DA0B7000234B7002E013700023537057
S11364C07B1C03706F788FB1DBB2102B03DA4F7033
S11364D000278F7002E05770002797705B1C0370D1
S11364E0921C891CAD1CDBB2202BDDDB017820293A
S11364F080F2E183102904DA20238B558A190023C2
S113650004E00A19202302F8103D00235370491CAB
S11365100170EBE7DFF87C552022294640F21D305C
S113652003F05AFB002085F820000021DFF858080A
S1136530DFF8A4670170A4F1100231462B78FBB197
S11365400778102F03DA0B7000234B7002E01370EE
S1136550002353707B1C03706F788FB1DBB2102B58
S113656003DA4F7000278F7002E05770002797708E
S11365705B1C0370921C891CAD1CDBB2202BDDDB81
S11365800178202980F29783102904DA20238B557F
S11365908A19002304E00A19202302F8103D00237D
S11365A05370491C0170EBE7A37D0022190016D03B
S11365B0DFF8B007DFF82067185C1D19A3F148075E
S11365C003F16401102BB9BF98558E4605F8100CE1
S11365D0BE46521CD2B29A4284F819E0F2D3DFF8D4
S11365E0A8070270102B207FB9BFDFF8EC2698545F
S11365F0191901F8100C01205CE3DFF89007017809
S1136600CB3908D0091F06D0891E022903D9C91E17
S113661002290BD90CE01422DFF87417DFF8B8064E
S113662003F0AEF91422DFF86C1721E0B02005E086
S1136630617F491C6177C9B211B1B12020623AE38C
S1136640CF21017037E31422DFF84417DFF88806FE
S113665003F096F91422DFF8401709E01422DFF85A
S11366603017DFF8740603F08BF91422DFF82C17C7
S1136670204603F085F91EE394DD01001422DFF8BF
S11366802017DFF8540603F07BF91422DFF81417FF
S1136690204603F075F9DFF8040401884FF672729E
S11366A01140018007E30020A076DFF8FC060078A3
S11366B0401E0ED0401E032803D9401F042804D9CD
S11366C014E00A22DFF8E41613E00922DFF8E016EA
S11366D00FE00B22DFF8DC160BE000BF9CE60100A4
S11366E0B0E60100C4E60100D8E601000922DFF8A3
S11366F0C816DFF8A003DFF89C5303F031F9DFF884
S1136700D815284603F001F8DFF8B00600686421C4
S1136710B0FBF1F2DFF8DC15284603F091FC2146CA
S1136720284602F0F2FFDFF898060068002800F01F
S1136730C2822120E073BEE21422DFF88816DFF85B
S1136740980503F01DF91422DFF87C16204603F0A7
S113675017F9AEE2ECE6010000E701000020A076A4
S1136760DFF84476DFF864663878CA4D0F2800F203
S1136770A380DFE800F0080F18212A47535C65A1C5
S1136780A16E77808997DFF8480693E014E701004B
S113679028E701000522DFF83C16284603F0E0F85C
S11367A0DFF8340686E00A22DFF83016284603F0C4
S11367B0D7F8DFF82C067DE00722DFF828162846F4
S11367C003F0CEF8DFF8200674E00622DFF81C168A
S11367D0284603F0C5F8DFF81806DFF81816006835
S11367E0097869B9DFF81016DFF8FC250968126822
S11367F04843DFF8EC1509685118B0FBF1F05AE092
S1136800400858E01022DFF8F415284603F0A8F8F1
S1136810DFF8EC054EE000BF3CE701000922DFF899
S11368209815284603F09CF8DFF8AC0542E00B22EB
S1136830DFF8D015284603F093F8DFF8CC0539E0EB
S11368401022DFF8C815284603F08AF8DFF8C005DF
S113685030E00A22DFF8BC15284603F081F8DFF89F
S1136860B80527E01122DFF8B415284603F078F8BC
S1136870DFF864051EE01022DFF8A415284603F0B3
S11368806FF8DFF8A00515E00C22DFF89C15284608
S113689003F066F8DFF8940500780CE050E7010097
S11368A064E701000D22DFF88815284603F058F844
S11368B0DFF8800500683060DFF81C14284602F019
S11368C024FF3878012803D10622DFF86C1504E090
S11368D0062806D10622DFF86415284603F040F89E
S11368E010E0DFF8F41430680968411A11F10A0F56
S11368F0B8BF0146DFF8480501600A46A5A128464D
S113690003F09EFBDFF83C753268A3A1384603F020
S113691097FB3946284603F070FC214602F0F5FE49
S11369207F2020707E20E073C3E11422DFF8181565
S1136930DFF8A403574D03F023F8DFF810050368CC
S1136940DFF80C050068191ADFF8F40448BF0021C9
S113695001600A46DFF8FC14284603F071FB214667
S1136960284602F0D2FE7F2020707E20E073A0E152
S11369701422DFF8E414DFF86003464D03F000F856
S1136980DFF8D814DFF8D8040978006801290CD19D
S113699003F0EEFBDFF8CC24DFF8CC3403F03CFC4E
S11369A00B460246DFF8C41463E003F007FD024619
S11369B0DFF8BC14284603F043FB5DE01422DFF843
S11369C0B414C548DFF8046402F0DAFF0020308014
S11369D0DFF8A4140AE000BF78E701005A5C1AB19A
S11369E010187278521C72705A1C32703378052B4E
S11369F0F4DB7178274DB0FBF1F2DFF88004DFF8A7
S1136A0080140260284603F01BFB2146284602F04E
S1136A107CFE7F2020707E20E0734AE18CE7010039
S1136A20A0E70100B4E70100C8E70100DCE70100CA
S1136A301422DFF85014A848164D02F0A1FFDFF825
S1136A401C14A7480978406801290CD103F090FB75
S1136A50DFF81024DFF8103403F0DEFB0B460246A7
S1136A60DFF8241405E003F083FB0B460246DFF84D
S1136A701C14284603F0E4FA2146284602F045FE99
S1136A807F2020707E20E07313E100BF2C1D0020C6
S1136A90F0E701008819002004E80100002000202C
S1136AA010E801001422DFF8E8138B48DFF8E45300
S1136AB002F066FFDFF8E003006803F085FB874916
S1136AC003F0D8FA03F054FB02460B46DFF8CC136C
S1136AD0284603F0B5FA2146284602F016FE7F2028
S1136AE020707E20E073E4E01422DFF8B4137A48C7
S1136AF0DFF8A05302F044FFDFF8A803006803F0B6
S1136B0063FB764903F0B6FA03F032FB02460B4608
S1136B10DFF88813284603F093FA2146284602F04A
S1136B20F4FD7F2020707E20E073C2E01422DE4951
S1136B306948D84D02F024FF7948006803F018FB37
S1136B4002460B467749284603F07AFA214628463E
S1136B5002F0DBFD7F2020707E20E073A9E000BFFF
S1136B601CE801001422D1495B48CA4D02F008FF19
S1136B7093480068002814BF6BA26CA26CA128463D
S1136B8003F05EFA8FE000BF24E801002CE8010066
S1136B9034E80100256400002F25640044E8010066
S1136BA054E8010060E801006CE80100002020E0E6
S1136BB001201EE002201CE003201AE0042018E05B
S1136BC0052016E0062014E0072012E0082010E05B
S1136BD009200EE00A200CE00B200AE00C2008E05B
S1136BE00D2006E00E2004E00F2002E0102000E05B
S1136BF01120FDF7BFFA5EE0374EAD49142230464E
S1136C0002F0BEFE6E480068C0F3804028B15920EF
S1136C1070736520B0737320F0730622894F394670
S1136C2042F6BC3002F0D8FF38799A4D7B783A7836
S1136C30A0490290F8780190B8780090284603F0B3
S1136C40FFF9002028742146284602F05EFD7F20CB
S1136C5020707E20E0732CE01F4E974914223046AA
S1136C6002F08EFE56480068C0F3005028B1592047
S1136C7070736520B0737320F0730622714F394628
S1136C8042F6C83002F0A8FF3879824D7B783A7812
S1136C9088490290F8780190B8780090284603F06B
S1136CA0CFF9002028742146284602F02EFD7F20CB
S1136CB020700020A07603B0BDE8F04002F002BAD4
S1136CC080E8010094E80100A8E80100BCE80100A4
S1136CD0D0E80100E4E80100641F00200000C8427D
S1136CE0980700201C200020F8E8010004E90100B6
S1136CF03008002018E9010024E90100B807002049
S1136D00C007002000007A4438E9010044E901008A
S1136D10601F00200000204158E9010064E90100DF
S1136D20C820002078E90100594553004E4F000067
S1136D302573000084E9010098E90100ACE9010031
S1136D40C0E90100D4E90100E8E90100FCE901001F
S1136D5010EA010024EA010038EA01004CEA0100CB
S1136D6060EA0100041F002074EA010088EA0100BF
S1136D709CEA0100B0EA0100C4EA0100D8EA01007B
S1136D80ECEA010000EB0100FD200020F91D0020C9
S1136D9014EB010028EB01003CEB010050EB010077
S1136DA064EB010078EB0100A60800208CEB0100E5
S1136DB098EB0100A4EB0100B0EB01005820002087
S1136DC0B4200020BCEB0100D0EB0100C81F002060
S1136DD0A81F0020E4EB010024200020ECEB0100BC
S1136DE058080020F8EB01005C08002000EC0100CA
S1136DF060080020052100202820002008EC010064
S1136E005C20002018EC01006808002024EC01003C
S1136E106C08002034EC01008408002040EC0100E0
S1136E2054EC01008C08002064EC0100A808002048
S1136E3070EC010070080020D8DB010080EC010038
S1136E4018200020681300203CE70100640800209B
S1136E506020002088EC010090EC0100A7080020CD
S1136E604420002077D5F270AAE8D03FA4EC0100BA
S1136E70B0EC0100B8EC0100E01F0020202000204D
S1136E80CCEC0100D4EC0100E8EC0100F8EC0100CA
S1136E9004ED0100881900205C1C002018ED01009D
S1136EA020ED0100601C002034ED010048ED0100DC
S1136EB05CDD010084DD010070DD010070B588B087
S1136EC0FDF71EF9DFF8084CE07D012842F0EE8062
S1136ED00020E075607D032802F2E380DFE810F013
S1136EE00400FD007002170F206A401ECE2802F233
S1136EF0D880DFE810F0F00FE60FC701E000D610ED
S1136F00D610D610BE1017021A021D022002230248
S1136F10260229022C02D610B20E2F0232023502AA
S1136F20380238023B023E024102440247024A024E
S1136F304D0250025302560259025C025F02D610FF
S1136F40EC00EF00D610D610D6104D03BA105A102C
S1136F505C105E1060109A10D6101010F40FF60F2B
S1136F60F80FFA0FFC0FFE0F0010021004100010AF
S1136F7008100A100C100E1012101410161018100D
S1136F801A101C101E102010221024102610281075
S1136F90ED01461048104A104C104E10501052107B
S1136FA054105610E000E000E000E000E000E000D3
S1136FB0E000E000E000E000E000E000E000E000CD
S1136FC0E000E000E000E000E000E000E000E000BD
S1136FD0E000E000E000E000D610D610E900D61092
S1136FE017051A05E000E000E000E000E000E00022
S1136FF0E000E000E000D610D610D610D610D6106F
S1137000D610D610D610D610D610D610D610D6104C
S1137010D610D610D610D610D610D610D610D6103C
S1137020D610D610D610D610D610D610D610D6102C
S1137030D610D610D610D610D610D610D610E00022
S1137040E000D6106210D610CF00D6107610D610FD
S1137050CF00D610D610D610D610D610D610D61013
S1137060AD10AF10D610D610100EF601F901FC01C8
S1137070FF01020205020802D610C410F001F30158
S1137080D210D610D610D610D610D610D610E80FBF
S1137090EA0FEC0F207F7A2808DA401C2077C0B270
S11370A05C2841F0FE875D2001F0A2BC01F09F84C2
S11370B0202001F09DBCA17DDFF8185A485D3928D5
S11370C081F2EF87401CFAE0732001F0E9BF25202C
S11370D001F0E6BF262001F0E3BF206ACE2801F2CA
S11370E0E087DFE810F0EE0ECF00B90FDE0FE4000A
S11370F0DE0F1F01DE0F2201250128012B012E01C5
S113710031013401C80FDE0F37013A013D0140015E
S113711043014301460149014C014F01520155010C
S113712058015B015E016101640167016A01DE0FC0
S1137130F200B30FDE0FC20FDE0FDE0F620F640F1B
S1137140660F680FA20F1601DE0FFC0EFE0E000F75
S1137150020F040F060F080F100F0C0F0E0F100F65
S1137160120F140F160F1A0F1C0F1E0F200F220FD1
S1137170240F260F280F2A0F2C0F2E0F300FF50087
S11371804E0F500F520F540F560F580F5A0F5C0FDB
S11371905E0F600FDE0FE400E400E400E400E400AE
S11371A0E400E400E400E400E400E400E400E400BB
S11371B0E400E400E400E400E400E400E400E400AB
S11371C0E400E400E400E400E400DE0FEF00DE0F7E
S11371D022042504DE0FE400E400E400E400E400FB
S11371E0E400E400E400E400DE0FDE0FDE0FDE0F57
S11371F0DE0FDE0FDE0FDE0FDE0FDE0FDE0FDE0F23
S1137200DE0FDE0FDE0FDE0FDE0FDE0FDE0FDE0F12
S1137210DE0FDE0FDE0FDE0FDE0FDE0FDE0FDE0F02
S1137220DE0FDE0FDE0FDE0FDE0FDE0FDE0FDE0FF2
S1137230E400E4001901DE0FDE0FD2001C01DE0FB2
S1137240DE0FD200DE0FDE0FDE0FDE0FDE0FDE0FED
S1137250B70FCA0FDE0FDE0FFE00010104010701A4
S11372600A010D0110011301DE0FF800FB00DA0F13
S1137270DC0FDE0FDE0FDE0FDE0FDE0FDE0FF20E91
S1137280F40EF60E022001F00BBF207F2128C1F27C
S1137290AE837F2808BF7A2001F0AA83401E20779E
S11372A0C0B25C2841F0FD865B2001F0A1BBA17D4A
S11372B0DFF82058485D3128C1F2F386401E485556
S11372C001F0EFBE742001F0EBBE262001F0E8BE11
S11372D04D2001F0E5BEC32001F0E2BEC42001F060
S11372E0DFBEBA2001F0DCBEBB2001F0D9BEBC2059
S11372F001F0D6BEBD2001F0D3BEBE2001F0D0BE49
S1137300BF2001F0CDBEC02001F0CABEC12001F0F3
S1137310C7BE312001F0C4BEA82001F0C1BEAC201C
S113732001F0BEBE082001F0BBBE092001F0B8BECA
S11373300A2001F0B5BE0B2001F0B2BE0C2001F012
S1137340AFBE0D2001F0ACBE0E2001F0A9BE0F208F
S113735001F0A6BE122001F0A3BE132001F0A0BECE
S1137360142001F09DBE152001F09ABE172001F0F3
S113737097BE182001F094BE192001F091BE1A2086
S113738001F08EBE1B2001F08BBE1C2001F088BED4
S11373901D2001F085BE1E2001F082BE1F2001F0D9
S11373A07FBE202001F07CBE212001F079BE222086
S11373B001F076BE232001F073BE242001F070BEDC
S11373C0206ACF2801F26D86DFE810F0D0007D0D31
S11373D0D500E200E5006B0E0C0C440C0C0C6B0E9B
S11373E06B0E6B0E6B0E6B0E6B0E6B0E470C490C1B
S11373F04C0C4F0C610C640C670C6A0C6B0E750C16
S1137400780C7B0C7E0C810C840C870C8A0C6B0E24
S11374106B0E6B0E6B0E6B0EA50D420EEF096B0E11
S11374206B0EF209F609380AF70D0B0ECE0AE00AC4
S113743073010101090111011901210129016B0ED7
S11374406B0E6B0E6B0E31013901410149017B0159
S11374509701B301BB01C301CB01ED0116023F0249
S11374606802910299029C02A502B502DE0207039A
S11374703003590361036903710379038603B40379
S1137480E10310043F046C049A046B0E6B0E6B0E44
S11374906B0EC804F804260556058805B905E905E8
S11374A0180645067306A306D206020732076107CB
S11374B08F07B007C707DE07F5070C0842087108F5
S11374C0A008CE080F0937095F098909B1096B0EB5
S11374D06B0E6B0E6B0E6B0E6B0E6B0E6B0E6B0EE0
S11374E06B0E6B0E6B0E6B0E6B0E6B0E6B0E6B0ED0
S11374F06B0E6B0E6B0E6B0E6B0E6B0E6B0E6B0EC0
S11375006B0E6B0E6B0E6B0E6B0E6B0E6B0E6B0EAF
S11375106B0E6B0E6B0E220B570B920A940A6B0EBA
S1137520E20AB00AB20A6B0EE20A6B0E6B0E6B0E25
S11375306B0E6B0E6B0EA30BA50B590E6B0EA70BEC
S1137540B20BBD0BC80BD30BDE0BE90BF40BFF0B1B
S11375508F0C910C970C9D0C9F0C6B0E6B0E6B0E8D
S11375606B0E6B0EF500F800FB00FE00002002F02D
S113757037FF01F096BD0420206205220020A0758B
S1137580DFF8901EDFF84C0502F0FAF901F089BD2E
S1137590282001F085BDA17D0329C1F27182DFF8A5
S11375A0781EDFF8300502F0A1FF002814BF052083
S11375B0262001F075BDD02001F072BDD12001F06C
S11375C06FBDD22001F06CBDD32001F069BDDFF89E
S11375D04C0E006801F078FF592001F061BDDFF81E
S11375E0400E006801F070FF5A2001F059BDDFF829
S11375F0340E006801F068FF5B2001F051BDDFF834
S1137600280E006801F060FF5C2001F049BDDFF83E
S11376101C0E006801F058FF5D2001F041BDDFF849
S1137620100E006801F050FF5E2001F039BDDFF854
S1137630040E006801F048FF632001F031BDDFF85B
S1137640F80D006801F040FF642001F029BDDFF867
S1137650EC0D006801F038FF652001F021BDDFF872
S1137660E00DDFF8705400680A21B0FBF1F101EB82
S11376708103A0EB43023032EA702E22AA700A2260
S1137680B1FBF2F202EB8203A1EB430130316970EA
S11376906421B0FBF1F00A21B0FBF1F101EB8102AE
S11376A0A0EB4200303028700020A075662001F065
S11376B0F7BCDFF8900D006801F006FF582001F0D8
S11376C0EFBCDFF8840DDFF80C5400680A21B0FB2E
S11376D0F1F101EB810230316970A0EB42026421C7
S11376E03032B0FBF1F0EA70303028702E22AA70EC
S11376F00020A075672001F0D3BCDFF8500DDFF83F
S1137700D45300680A21B0FBF1F101EB810230315E
S11377106970A0EB420264213032B0FBF1F0EA70F0
S1137720303028702E22AA700020A075682001F045
S1137730B7BCDFF88C0E006801F0C6FE692001F0CA
S1137740AFBCDFF8800E006801F0BEFE6A2001F0D5
S1137750A7BCDFF8740E006801F0B6FE6B2001F0E0
S11377609FBCDFF8680EDB4D00680A21B0FBF1F125
S113777001EB8103A0EB43023032EA700A22B1FB31
S1137780F2F202EB8203A1EB43013031A9702E2106
S113779069706421B0FBF1F0303028700020A075CE
S11377A06C2001F07DBCDFF8280ECA4D00680A2168
S11377B0B0FBF1F101EB8103A0EB43023032EA703C
S11377C00A22B1FBF2F202EB8203A1EB4301303156
S11377D0A9702E2169706421B0FBF1F00A21B0FB7D
S11377E0F1F101EB8102A0EB42003030287000205F
S11377F0A0756D2001F054BCDFF8D80DB54D0068BC
S11378000A21B0FBF1F101EB8103A0EB430230321A
S1137810EA702E22AA700A22B1FBF2F202EB820372
S1137820A1EB4301303169706421B0FBF1F00A210E
S1137830B0FBF1F101EB8102A0EB42003030287083
S11378400020A0756E2001F02BBCDFF88C0DA14D3B
S113785000680A21B0FBF1F101EB8103A0EB4302C4
S11378603032EA702E22AA700A22B1FBF2F202EB45
S11378708203A1EB4301303169706421B0FBF1F064
S11378800A21B0FBF1F101EB8102A0EB42003030A0
S113789028700020A0756F2001F002BCDFF83C0DB9
S11378A08C4D00680A21B0FBF1F101EB8103A0EBE0
S11378B043023032EA700A22B1FBF2F202EB820395
S11378C0A1EB43013031A9702E2169706421B0FB12
S11378D0F1F00A21B0FBF1F101EB8102A0EB4200CF
S11378E0303028700020A075702001F0D9BBDFF87B
S11378F0F00C806801F0E8FD712001F0D1BB72202A
S113790001F0CEBBDFF8840E0078002814BF742089
S1137910732001F0C5BBDFF8780E0078012804D08D
S1137920022805D0752001F0BBBB762001F0B8BB5E
S1137930772001F0B5BBDFF85C0E664D00680A21C4
S1137940B0FBF1F101EB8103A0EB43023032EA70AA
S11379500A22B1FBF2F202EB8203A1EB43013031C4
S1137960A9702E2169706421B0FBF1F00A21B0FBEB
S1137970F1F101EB8102A0EB4200303028700020CD
S1137980A075782001F08CBBDFF80C0E514D006817
S11379900A21B0FBF1F101EB8103A0EB4302303289
S11379A0EA700A22B1FBF2F202EB8203A1EB43017B
S11379B03031A9702E2169706421B0FBF1F00A21E5
S11379C0B0FBF1F101EB8102A0EB420030302870F2
S11379D00020A075792001F063BBDFF8C00D3D4D98
S11379E000680A21B0FBF1F101EB8103A0EB430233
S11379F03032EA700A22B1FBF2F202EB8203A1EB0D
S1137A0043013031A9702E2169706421B0FBF1F07B
S1137A100A21B0FBF1F101EB8102A0EB420030300E
S1137A2028700020A0757A2001F03ABBDFF8700DB1
S1137A30284D00680A21B0FBF1F101EB8103A0EBB2
S1137A4043023032EA700A22B1FBF2F202EB820303
S1137A50A1EB43013031A9702E2169706421B0FB80
S1137A60F1F00A21B0FBF1F101EB8102A0EB42003D
S1137A70303028700020A0757B2001F011BBDFF8A6
S1137A805C0E006801F020FD7C2001F009BBDFF8EA
S1137A90500E006801F018FD7D2001F001BBDFF8F5
S1137AA0440E006801F010FD7E2001F0F9BADFF801
S1137AB0380E006801F008FD7F2001F0F1BADFF80C
S1137AC02C0E006801F000FD802001F0E9BA00BF2F
S1137AD0E01E0020041F0020A17D0329C0F2D087EE
S1137AE0DFF8985EE878A9786B782A78DFF8906EEA
S1137AF002EB820503EB450202EB820301EB430137
S1137B0001EB810200EB4200DFF8781E081841F215
S1137B108931884230600AD2DFF8281908600222CD
S1137B20DFF8641E086040F2191000F023BE8120C3
S1137B3001F0B6BAA17D0329C0F2A287DFF83C5E4A
S1137B40E878A9786B782A78DFF8346E02EB82053E
S1137B5003EB450202EB820301EB430101EB8102DB
S1137B6000EB4200DFF81C1E0818811E1D2930603E
S1137B700AD2DFF8A81808600122DFF80C1E08609A
S1137B804FF4817000F0F6BD822001F089BAA17D26
S1137B900329C0F27587DFF8E45DE878A9786B788B
S1137BA02A78DFF8DC6D02EB820503EB450202EB79
S1137BB0820301EB430101EB810200EB4200DFF899
S1137BC0C41D0818A0F10A01B1F5F57F30600AD888
S1137BD0DFF84C1808600222DFF8AC1D086040F2A0
S1137BE0031000F0C7BD832001F05ABAA17D032918
S1137BF0C0F24687DFF8845DE878A9786B782A7844
S1137C00DFF87C6D02EB820503EB450202EB820395
S1137C1001EB430101EB810200EB4200DFF8641D3C
S1137C200818A0F10A01B1F5F57F30600AD8DFF831
S1137C30F41708600222DFF8501D086040F20510B6
S1137C4000F098BD842001F02BBAA17D0329C0F275
S1137C501787DFF8285DE878A9786B782A78DFF849
S1137C60206D02EB820503EB450202EB820301EB7C
S1137C70430101EB810200EB4200DFF8081D081804
S1137C80B0F5FA7F30600AD8DFF89C17086002224A
S1137C90DFF8F41C086040F2071000F06BBD85208B
S1137CA001F0FEB9A17D0329C0F2EA86DFF8CC5CBD
S1137CB0E878A9786B782A78DFF8C46C02EB82053F
S1137CC003EB450202EB820301EB430101EB81026A
S1137CD000EB4200DFF8AC1C081830600DD0B0F5A2
S1137CE0FA6F0AD8DFF8441708600222DFF8981CFC
S1137CF0086040F2091000F03DBD862001F0D0B9C3
S1137D00A17D0329C0F2BC86DFF8705CE878A9780D
S1137D106B782A78DFF8686C02EB820503EB450286
S1137D2002EB820301EB430101EB810200EB420011
S1137D30DFF8501C081830600DD0B0F5FA6F0AD87F
S1137D40DFF8EC1608600222DFF83C1C086040F201
S1137D500B1000F00FBD872001F0A2B9A17D03290B
S1137D60C0F28E86DFF8145CE878A9786B782A78FC
S1137D70DFF80C6C02EB820503EB450202EB820395
S1137D8001EB430101EB810200EB4200DFF8F41B3D
S1137D9040F6DF520818A0F13201914230600AD255
S1137DA0DFF8901608600222DFF8DC1B086040F25E
S1137DB0131000F0DFBC8C2001F072B9A17D0329FF
S1137DC0C0F25E86DFF8B45BE878A9786B782A782D
S1137DD0DFF8AC6B02EB820503EB450202EB820396
S1137DE001EB430101EB810200EB4200DFF8941B3D
S1137DF00818A0F10A01472930600AD2DFF83816C2
S1137E0008600122DFF8801B086040F2151000F0C2
S1137E10B1BC8D2001F044B9A17D0329C0F23086A4
S1137E20DFF8585BE878A9786B782A78DFF8506B2C
S1137E3002EB820503EB450202EB820301EB4301F3
S1137E4001EB810200EB4200DFF8381B40F6F352ED
S1137E500818A0F11E01914230600AD2DFF8DC1547
S1137E6008600222DFF8201B08604FF48B7000F0DA
S1137E7081BC8E2001F014B9A17D032908DA481CC5
S1137E80A075C0B2022841F00C81032000F0F9BDB6
S1137E90DFF8E85ADFF8E86A2A786B78A2F1300054
S1137EA000EB8001A3F1300000EB4102E8783038A8
S1137EB002EB820100EB4100B0F5617F30600AD82B
S1137EC0DFF87C1508600122DFF8BC1A08604FF463
S1137ED08C7000F04FBC8F2001F0E2B8A17D032923
S1137EE008DA481CA075C0B2022841F0DA800320E9
S1137EF000F0C7BDDFF8845ADFF8846A2A786B780B
S1137F00A2F1300000EB8001A3F1300000EB41024C
S1137F10E878303802EB820100EB410065283060DC
S1137F200AD2DFF8241508600122DFF85C1A086021
S1137F3040F21B1000F01EBC902001F0B1B8A17DEE
S1137F40032908DA481CA075C0B2022841F0A980B0
S1137F50032000F096BDDFF8245ADFF8246A2A785B
S1137F606B78A2F1300000EB8001A3F1300000EB4C
S1137F704102E878303802EB820100EB41006528C9
S1137F80306009D2DFF8C41408600122DFF8F81960
S1137F9008604FF48E70EDE3912001F081B8A17D6B
S1137FA00329C0F26D85DFF8D459E878A9786B7895
S1137FB02A78DFF8CC6902EB820503EB450202EB79
S1137FC0820301EB430101EB810200EB4200DFF885
S1137FD0B41940F2DD520818A0F5FA7191423060EC
S1137FE009D2DFF8DC1508600222DFF89C1908606A
S1137FF040F21D10BEE3922001F052B8A17D032986
S1138000C0F23E85DFF87459E878A9786B782A784D
S1138010DFF86C6902EB820503EB450202EB820395
S113802001EB430101EB810200EB4200DFF854193C
S11380300818A0F114012929306009D2DFF8841549
S113804008600122DFF84019086040F21F1091E334
S1138050932001F025B8A17D0329C0F21185DFF832
S11380601C59E878A9786B782A78DFF8146902EB50
S1138070820503EB450202EB820301EB430101EBB2
S1138080810200EB4200DFF8FC1840F69C720818ED
S1138090411F9142306009D2DFF82C15086002229A
S11380A0DFF8E41808604FF4907063E3942000F064
S11380B0F7BFA17D032908DA481CA075C0B20128C6
S11380C040F0EF87022000F0DCBCDFF8B058DFF8A6
S11380D0B0682A78A978E878303A303902EB82031C
S11380E001EB4301303801EB810200EB4200A0F1C7
S11380F01901B029306009D2DFF8D01408600222D7
S1138100DFF88418086040F2231033E3952000F070
S1138110C7BFA17D032908DA481CA075C0B2012895
S113812040F0BF87022000F0ACBCDFF85058DFF805
S113813050682A78A978E878303A303902EB82031B
S113814001EB4301303801EB810200EB4200B0F552
S11381507A7F306009D2DFF8781408600222DFF8F1
S11381602818086040F2251004E3962000F098BF18
S1138170A17D032908DA481CA075C0B2022840F08A
S11381809087032000F07DBCDFF8F057DFF8F0673C
S11381902A786B78A2F1300000EB8001A3F1300063
S11381A000EB4102E878303802EB820100EB410039
S11381B07928306009D2DFF81C1408600222DFF845
S11381C0C817086040F22B10D4E2972000F068BF73
S11381D0A17D032908DA481CA075C0B2022840F02A
S11381E06087032000F04DBCDFF89057DFF89067FC
S11381F02A786B78A2F1300000EB8001A3F1300003
S113820000EB4102E878303802EB820100EB4100D8
S11382107928306009D2DFF8C01308600222DFF841
S11382206817086040F22D10A4E2982000F038BFCF
S1138230A17D032908DA481CA075C0B2012840F0CA
S11382403087022000F01DBCDFF83057DFF83067BC
S11382502A78A978E878303A303902EB820301EBC6
S11382604301303801EB810200EB4200A0F13201FE
S11382709729306008D2D94908600222DFF808172C
S1138280086040F2311075E2992000F009BFA17D29
S11382900329C0F2F583DFF8E456E878A9786B780F
S11382A02A78DFF8DC6602EB820503EB450202EB79
S11382B0820301EB430101EB810200EB4200DFF892
S11382C0C41640F2C7720818A0F10A019142306046
S11382D008D2C34988600222DFF8AC16086040F275
S11382E0371047E29A2000F0DBBE1422DFF8C01DED
S11382F0DFF8C00D01F044FB1422DFF8BC1D20465A
S113830001F03EFB00F0DEFE02F012F91422DFF869
S1138310AC1D204601F034FB00F0D4FE04F0BAFE9C
S1138320022005F09CF94C2000F0BABEDFF85C1482
S1138330002008700122DFF85016087040F239104E
S113834001F002FC1422DFF8781D204601F018FB2E
S113835000F0B8FE012000F065BEDFF83014012003
S113836008700122DFF82016087040F2391001F07D
S1138370EBFB1422DFF8481D204601F001FB00F05E
S1138380A1FE012000F04EBEDFF8041400200870A6
S11383900122DFF8F41508704FF49F7001F0D4FB4C
S11383A01422DFF81C1D204601F0EAFA00F08AFED0
S11383B0012000F037BEDFF8D81301200870012235
S11383C0DFF8C41508704FF49F7001F0BDFB142250
S11383D0DFF8EC1C204601F0D3FA00F073FE012014
S11383E000F020BEDFF8A813022008700122DFF895
S11383F0981508704FF49F7001F0A6FB1422DFF863
S1138400C01C204601F0BCFA00F05CFE012000F024
S113841009BE00BF5CED0100B81D00205808002013
S11384205C080020600800205C2000206808002010
S11384306C08002084080020880800208C08002094
S1138440780800207C080020480800204C08002000
S1138450A17D032907DA481CA075C0B2012840F0A9
S1138460208602200DE3DFF81455DFF814652A781E
S1138470A978E878303A303902EB820301EB430102
S1138480303801EB810200EB4200A0F13201B1F57A
S1138490077F306008D8BF4908600222DFF8E8147B
S11384A008604FF4A07065E19B2000F0F9BDA17D48
S11384B0032907DA481CA075C0B2012840F0F185F1
S11384C00220DEE2DFF8B454DFF8B4642A78A97835
S11384D0E878303A303902EB820301EB430130385B
S11384E001EB810200EB4200A0F13201B1F5077FFC
S11384F0306008D8A84908600222DFF88C140860AC
S11385004FF4A17036E19C2000F0CABDA17D03297F
S113851007DA481CA075C0B2012840F0C2850220C9
S1138520AFE2DFF85854DFF858642A78A978E8787D
S1138530303A303902EB820301EB4301303801EB6E
S1138540810240F24F2100EB42008842306008D2A1
S1138550924908600222DFF8301408604FF4A270D8
S113856008E19D2000F09CBDA17D032907DA481C89
S1138570A075C0B2012840F09485022081E2DFF8A2
S1138580FC53DFF8FC632A78A978E878303A30396C
S113859002EB820301EB4301303801EB810200EB73
S11385A04200A0F13201B1F5077F30601AD87C494E
S11385B008600222DFF8D01308604FF4A370D9E0FA
S11385C0640800205408002080080020900800203F
S11385D0940800209020002094200020982000205F
S11385E0980700209E2000F05BBDA17D0329C0F206
S11385F04782E24DE878A9786B782A78E04E02EB5E
S1138600820503EB450202EB820301EB430101EB1C
S1138610810200EB4200DB49081842F210718842E3
S1138620306007D2AD4908600222D74908604FF490
S1138630A4709FE09F2000F033BDA17D0329C0F208
S11386401F82CE4DE878A9786B782A78CC4E02EB5D
S1138650820503EB450202EB820301EB430101EBCC
S1138660810200EB4200C749081842F210718842A7
S1138670306007D29A4908600222C34908604FF467
S1138680A57077E0A02000F00BBDA17D0329C0F206
S1138690F781BA4DE878A9786B782A78B84E02EB5E
S11386A0820503EB450202EB820301EB430101EB7C
S11386B0810200EB4200B34940F2B7320818A0F13E
S11386C032019142306007D2864908600222AE49E5
S11386D0086040F24D104DE0A12000F0E1BCA17D06
S11386E00329C0F2CD81A54DE878A9786B782A7862
S11386F0A34E02EB820503EB450202EB820301EB7E
S1138700430101EB810200EB42009E49081840F648
S113871038118842306007D27349086002229A49AE
S1138720086040F24F1025E0A22000F0B9BCA17D02
S11387300329C0F2A581914DE878A9786B782A784D
S11387408F4E02EB820503EB450202EB820301EB41
S1138750430101EB810200EB42008A490818411FE2
S11387601A2930601ED261490860012286490860D6
S113877040F2511001F0E8F91422DFF8081C2046F9
S113878001F0FEF800F09EFC00F08BBCA70800206E
S11387901121002074200020782000207C2000205B
S11387A080200020A32000F07BBC292000F078BCAE
S11387B001F05AFE00F075BC84B0DFF8CC1B6846AB
S11387C02C2201F0DDF80FBC05F010F8DFF8982C2E
S11387D0DFF8B81B1268694D10180860084605F0E8
S11387E0EFF8DFF8AC1B08600A2241696439416183
S11387F00169491C0161816891FBF2F130312970F2
S1138800816891FBF2F202EB8203A1EB4301303168
S113881069700A22416891FBF2F13031A9700A2192
S1138820406890FBF1F101EB8102A0EB4200303093
S1138830E8700020A075A52000F032BC84B0DFF8F9
S1138840481B68462C2201F09BF80FBC04F0CEFFB5
S1138850DFF8142CDFF8341B1268484D1018086038
S1138860084605F0ADF8DFF8281B08600269416985
S1138870521C6439026141610A2291FBF2F13031E8
S11388802970416991FBF2F202EB8203A1EB4301EF
S1138890303169700A22016991FBF2F13031A9701B
S11388A0016991FBF2F202EB8203A1EB4301303147
S11388B0E9700A22C16891FBF2F1303129710A2171
S11388C0C06890FBF1F101EB8102A0EB4200303073
S11388D068710020A075A620E2E300BF70080020A4
S11388E07408002084200020882000208C20002090
S11388F0A920D5E3DFF8C05BDFF8B80714222946C6
S113890001F03EF814222946204601F039F8D0A09F
S1138910DFF8A81B02780A707F2020770120A07658
S1138920642060760020A075AA20B9E3AD20B7E3E7
S1138930DFF8845BDFF87C071422294601F020F875
S113894014222946204601F01BF8C1A0DFF86C1B55
S113895002780A707F2020770120A0766420607658
S11389600020A075AE209BE3DFF8581BCF200870D1
S1138970AF2020620020607793E300BF041F002033
S113898020200020B02FFFFFC81F0020B22087E363
S1138990207FA17D7F282DD1012919D1DFF8185B13
S11389A0DFF810071422294600F0EAFF14222946B2
S11389B0204600F0E5FFA6A0DFF8001B02780A704D
S11389C07F2020770120A07664206076002058E084
S11389D0002900F0668320202077FBF7A1FCA07D0E
S11389E0DFF8482B401EA0750021C0B281547F20BF
S11389F0207756E3DFF8345B48557F202029207721
S1138A0080F24F83481CA0750021C0B2415548E351
S1138A10A17D032934DBDFF8145BDFF8146B2A78BB
S1138A206B78A2F1300000EB8001A3F1300000EB81
S1138A304102182A32601ED2DFF8F83A1A60A97887
S1138A40E8783039303801EB810200EB42013C29EF
S1138A5031600ED2DFF8E00A1A688161C261002138
S1138A6041610020DFF8001A08600120DFF8CC1A09
S1138A7049E0B32014E3B32012E3A17D062902DA0E
S1138A80481CA0750DE3DFF8A45ADFF8A46A2A781D
S1138A906B78A2F1300000EB8001A3F1300000EB11
S1138AA04102112A326032D3A87800EB8001E878C1
S1138AB000EB4100A0F11001287900EB80036879F4
S1138AC000EB43001038D2B2C9B2C0B200F082FD4C
S1138AD001281AD1DFF8600A31688162A97801EBB4
S1138AE08102E97801EB4201A1F50471416229791F
S1138AF001EB8102697901EB4201A1F50471016284
S1138B000120DFF83C1A0870CBE2B420C8E2B4209C
S1138B10C6E2B820C4E2B920C2E2DFF8280A01881C
S1138B20CA0758BF41F001015AD54FF6FE7256E00C
S1138B30DFF8100A01888A0758BF41F002014FD5B7
S1138B404FF6FD724BE0DFF8FC0901884A0758BF75
S1138B5041F0040144D54FF6FB7240E0DFF8E4092C
S1138B6001880A0758BF41F0080139D54FF6F7725A
S1138B7035E0DFF8D0090188CA0658BF41F010017A
S1138B802ED54FF6EF722AE0DFF8B80901888A067D
S1138B9058BF41F0200123D54FF6DF721FE0DFF804
S1138BA0A40901884A0658BF41F0400118D54FF680
S1138BB0BF7214E0DFF88C0901880A0658BF41F03F
S1138BC080010DD54FF67F7209E0DFF8780901883E
S1138BD0CA0558BF41F4807102D54FF6FF621140B7
S1138BE001805EE2DFF860090178012940F05982D2
