S0390000736B2D666D332D3438706D632D757362737469636B5F7573625F6465766963655F7669727475616C5F636F6D5F706F72742E73726563CC
S113000080E3FF1F29100000451000004910000084
S11300104D100000511000005510000000000000B9
S11300200000000000000000000000005910000063
S11300305D10000000000000611000006510000069
S1130040691000006D1000007110000075100000B0
S1130050791000007D100000811000008510000060
S1130060891000008D10000091100000DD100000C8
S1130070DD1000009510000099100000DD10000054
S1130080DD1000009D100000A1100000DD10000034
S1130090DD100000DD100000DD100000A5100000E0
S11300A0A9100000AD100000B1100000DD10000028
S11300B0B5100000B9100000BD100000C110000010
S11300C0DD100000DD100000C5100000C9100000A4
S11300D0DD100000DD100000CD100000D110000084
S11300E0D5100000D9100000DD100000DD10000064
S11300F0DD100000DD100000DD100000DD10000048
S1130100DFF8D004016821F480410160DFF8C814ED
S11301100A6842F480420A60DFF8C0140A6822F4D4
S113012080420A60026822F480520260DFF8A02450
S1130130136843F4805313600B6843F480530B60DB
S1130140036823F400530360136843F400531360FB
S11301500B6843F400530B60036823F4806303606B
S1130160136843F4806313600B6843F480630B608B
S1130170036823F400630360136843F400631360AB
S11301800B6843F400630B60036823F4007303609B
S1130190106840F400701060086840F40070086053
S11301A0106840F400601060106840F40070106043
S11301B070472DE9F041044600250826DFF8208425
S11301C0DFF80C74386820F4805038603868C00454
S11301D0FCD4200638684CBF40F4005020F4005092
S11301E0386064001420C046C046D8F800006D0092
S11301F0400448BF45F00105386840F48050386039
S11302003868C004FCD54620C046C046761ED9D105
S1130210E8B2BDE8F0812DE9F04104464FF40470E2
S11302200D46B4FBF0F716465321384600F06AF940
S113023030194FF40471B0FBF1F8474503D0552150
S1130240404600F05FF933462A462146012000F07B
S113025074F83946832000F037F9474504D0414605
S1130260BDE8F04186202FE1BDE8F081F8B5D84F14
S11302700446386820F4806038600D461646322003
S1130280C046C0462046FFF794FF36B1FF20FFF773
S113029090FF761E05F8010BF8D1386840F48060B1
S11302A038604FF4FA70BDE8F24000F09BB92DE9D4
S11302B0F04182B004468846164601226946D7209A
S11302C0FFF7D4FF9DF800000006F6D5C04F38684C
S11302D020F4806038603220C046C0460B20FFF70F
S11302E068FF4FF40470B4FBF0F5A804000EFFF7A8
S11302F060FF05EB4510A4EB0010000A40EA8500FE
S1130300C0B2FFF756FFA4EB0510C0B2FFF751FFD0
S1130310FF20FFF74EFF36B1FF20FFF74AFF761E9E
S113032008F8010BF8D1386840F4806038604FF465
S1130330FA70C046C046BDE8F3812DE9F14F9046FE
S113034000284FF40470B1FBF0F000EB4012994622
S11303500CBFD4258425A1EB0216DFF884A29C4CA3
S1130360B9F1000F00F09780206820F480602060CD
S11303703220C046C046D720FFF71BFFFF20FFF7FF
S113038018FF0746206840F4806020604FF4FA703C
S1130390C046C0463806E7D5206820F48060206057
S11303A03220C046C0462846FFF703FFFF20FFF770
S11303B000FF3004000EFFF7FCFEF0B2FFF7F9FE79
S11303C0D42D12BFD62DFF20FFF7F3FE009868BB93
S11303D0FF2500274FF0080B206820F48050206090
S11303E02068C004FCD4280620684CBF40F40050A8
S11303F020F4005020606D001420C046C046DAF896
S113040000007F00400448BF47F00107206840F423
S1130410805020602068C004FCD54620C046C046F9
S1130420BBF1010BD8D188F8007023E098F8005094
S11304300827206820F4805020602068C004FCD481
S1130440280620684CBF40F4005020F4005020607F
S11304506D001420C046C046DAF80000206840F45D
S1130460805020602068C004FCD54620C046C046A9
S11304707F1EDED1761C4FF40470B6FBF0F000EB67
S11304804011B6EB0110A9F1010908F101080CD0E3
S1130490B9F1000F9AD1206840F4806020604FF4D5
S11304A0FA70BDE8F24F00F09DB8206840F4806017
S11304B0206000264FF4FA70C046C0460098002819
S11304C014BF8725D6254BE770B582B004460D4688
S11304D001226946D720FFF7C9FE9DF800000006F7
S11304E0F6D53B4E306820F4806030603220C04640
S11304F0C0462046FFF75DFEA804000EFFF759FE34
S1130500A8001CE070B582B004460D46012269467D
S1130510D720FFF7ABFE9DF800000006F6D52C4E61
S1130520306820F4806030603220C046C0462846DF
S1130530FFF73FFEA004000EFFF73BFEA000C0B291
S1130540FFF737FEFF20FFF734FE306840F4806089
S113055030604FF4FA70C046C04673BD38B51C4CC9
S1130560206820F4806020604FF6DC752846C04681
S1130570C0462846C046C0462846C046C04628460F
S1130580C046C0462846C046C0462846C046C04667
S11305909F20FFF70EFEFF20FFF70BFE1F280AD156
S11305A0FF20FFF706FE262805D1FF20FFF701FEF6
S11305B008B9002500E0FF25206840F48060206031
S11305C04FF4FA70C046C046284632BD0000000011
S11305D01034034010300340103103401032034004
S11305E010330340704730B142F6310100BF491E59
S11305F0FCD1401EF8D1704770B58F4D06002868B5
S113060040F040000C4628600FD02046FFF7EBFF77
S1130610286820F0400028602046FFF7E4FF28689F
S113062040F04000761E2860EFD170BD30B585B033
S113063000F008F9824CE06820F40070E060C82102
S1130640E06820F48060E060E06820F40060E0602E
S1130650E06820F48050E060E06820F40050E0603E
S11306606068400840006060206820F0020020605C
S1130670206820F004002060606820F008006060BA
S1130680206940F0800020610120FFF7B5FF4FF49E
S11306907A70FFF7A8FFFFF761FF48B14FF480407D
S11306A0016881F30888654A106040688047FEE766
S11306B001226946FFF7FBFD9DF8000088B1C821BF
S11306C00220FFF799FF4FF47A70FFF78CFF4FF485
S11306D08040016881F30888584A10604068804768
S11306E0FEE7C8210320FFF787FF40F6B835284608
S11306F0FFF779FF00F0F8F878B9C8210420FFF774
S11307007BFF2846FFF76FFF00F0FCF8C8210520A7
S1130710FFF772FF2846FFF766FF00F0E5F80128AF
S11307207AD1C8210620FFF767FF2846FFF75BFF51
S1130730FFF714FF48B14FF48040016881F3088843
S11307403E4A106040688047FEE7C8210720FFF753
S113075053FF2846FFF747FF012269460020FFF7B1
S1130760A6FD9DF80000002846D1C8210820FFF707
S113077043FF2846FFF737FF00F0DCF878B9C820BC
S1130780FFF731FF206920F0400020614FF4FA6048
S1130790FFF729FF206940F040002061EFE7FF20C8
S11307A08DF80000012269460020FFF734FD20691E
S11307B040F0400020610A254FF47A70FFF713FFE0
S11307C0206920F0400020614FF47A70FFF70BFF9E
S11307D0206940F040006D1E2061EDD141F2883067
S11307E0FFF701FF4FF48040016881F30888134A42
S11307F0106040688047FEE7C820FFF7F4FE2069D8
S113080020F04000206141F28830FFF7ECFE2069BF
S113081040F040002061EFE74FF47A710520FFF7C4
S1130820EBFE4FF48040016881F30888034A1060AE
S113083040688047FEE700001034034008ED00E004
S11308400034034080B500F017F90948016821F02D
S1130850C00101600748016821F0C0010160064839
S1130860016841F0C0010160BDE80140FFF748BCE8
S1130870103003401034034010320340DFF800F01E
S113088005E0FF1FDFF800F0C1E0FF1F30B142F6C2
S1130890310100BF491EFCD1401EF8D17047704A97
S11308A0136843F040031360E8B141B10B4642F6CC
S11308B0310C00BFBCF1010CFBD15B1EF7D11368F6
S11308C023F04003136041B10B4642F6310C00BFE4
S11308D0BCF1010CFBD15B1EF7D1136843F040035C
S11308E0401E1360E1D170474FF4804050F8041B60
S11308F011F1010F01D000207047B0F5003FF5D38E
S11309000120704780B572B600214FF48040FFF794
S1130910B5FF002144F20400FFF7B0FF00214FF4BB
S11309200040FFF7ABFF002148F20400FFF7A6FFE9
S113093062B601BD2DE9F04F83B000208DF80800A8
S11309406426DFF82081DFF820B1484F444C20684A
S113095080F0400020600A20FFF745FE02A93846D7
S113096000F04CF9814619F1010F0FD19DF80800F0
S113097028BBB046206880F0800020606420FFF728
S113098032FEB8F10108F5D1012071E019F1060F2A
S113099004BF9DF80800002811D1206840F04000F1
S11309A0206040F6B8342046FFF770FFC8210920C4
S11309B0FFF775FF2046FFF769FF002058E00A2083
S11309C000900098704300900098411E009140B13F
S11309D00A200190019800281CBF0198401EF8D1FC
S11309E0F2E772B60025A9F5804A04E0E95BFFF757
S11309F049FFAD1CEDB29DF80800854208DADA45DE
S1130A00F7D205EB090040452CBF01220022EDE797
S1130A100A2000900098704300900098411E0091B5
S1130A2040B10A200190019800281CBF0198401E83
S1130A30F8D1F2E762B60A20009000987043009063
S1130A400098411E002800913FF481AF0A2001E084
S1130A500198401E019001980028F9D1F0E70000A8
S1130A601034034000000C2005D00F0080E3FF1F6A
S1130A7003B0BDE8F08F000010B44448444A016854
S1130A80444C1140016044490B681A400A60434ACF
S1130A90136843F41C4343F01F03136000232360D3
S1130AA044683F4B1C4044604C6823404B6040F218
S1130AB0BF34536823435360836823F00E03836079
S1130AC08B6823F00E038B60936843F00E039360EE
S1130AD0C468344B1C40C460CC682340CB60D368EA
S1130AE043F47E4343F00803D3602F4B1C6804F0A7
S1130AF0FE041C602D4B04691C4004610C692340F6
S1130B000B61136943F4FC4343F0C003136143696D
S1130B109B089B0043614B699B089B004B61536995
S1130B2043F0030353618369DB08DB0083618B6952
S1130B30DB08DB008B61936943F007039361036A6D
S1130B409B089B0003620B6A9B089B000B62116A63
S1130B5041F003011162C168C908C900C1601449A8
S1130B600B6843F007030B60D368DB08DB00D3603A
S1130B70436923F004034361886840F004008860FB
S1130B80506920F00400506110BC704700300340ED
S1130B90E063FFFF003503400034034000320340AC
S1130BA040FCFFFFF701FFFF803503403F81FFFF5B
S1130BB00C31034002780021A2F1300CBCF10A0F81
S1130BC03CBF1101C9B2A2F14103062B03D2373A4B
S1130BD001EB0211C9B24078A0F130030A2B02D212
S1130BE041183039C9B2A0F14102062A03D2401893
S1130BF0A0F13701C9B20846704700002DE9F04D55
S1130C000D4682B00026804600270024B346B24633
S1130C102E7006E06846FFF7CDFFC01B841E2C70C3
S1130C2002260020ADF8000002223648006869461A
S1130C30FFF73DFB334833490068801C08609DF88A
S1130C400000FF280AD19DF80100FF280CD10020E4
S1130C5028704FF0FF3B5846BDE8F68D0D2804BFC1
S1130C609DF801000A28F6D0F6B28EB1072E05DAF7
S1130C706846FFF79FFF50445FFA80FA072ED0D8EA
S1130C80DFE806F00605161818182633C9E7C1E789
S1130C909DF80000532805D19DF80100A0F130070C
S1130CA0FFB201260FB1042FBBDB00270026B8E7F3
S1130CB04FF0000B6846FFF77DFFB91B891CC90084
S1130CC088408344B81B801C08BF0526761CA8E70F
S1130CD0641EE4B204B907266846FFF76BFF88F880
S1130CE00000002008F8010F9BE76846FFF762FF49
S1130CF080F0FF00504594D0002028706FF005006C
S1130D00BDE8F68D00E0FF1F604E00001CB4002219
S1130D10009211B1012913D04DE04FF080421368C5
S1130D2003F0FD031360136843F001031360AA2367
S1130D301268019241F25052138040F6A82308E051
S1130D401E4A00231360AA23126801921C4A1380CE
S1130D501C4B55241C8080241480AA241480552202
S1130D601A803022028002881207FCD5009A5AB9F0
S1130D700288920644BF4FF0FF32009202881206A6
S1130D80F4D501220092F1E711B1012910D012E04B
S1130D904FF080424FF6FE711068084010601068F2
S1130DA040F00200106010680190009816BC704773
S1130DB0024A0120F6E716BC61E0000000000E20A4
S1130DC0A80A0C2054050C203CB40023009312B153
S1130DD0012A15D052E04FF080434FF6FD751C6890
S1130DE02C401C6040F6A8251C6844F001041C60DB
S1130DF0AA241B68019341F250531C80552409E036
S1130E001B4B1C4D00241C60AA241B6801931A4B25
S1130E101C8055242C8001F08005A0241C800180B6
S1130E204FF0FF330AE00488A40648BF0093048807
S1130E3004F08004AC4204BF01240094009C002C04
S1130E40F1D012B1012A10D018E04FF080434FF6D0
S1130E50FE71186808401860186840F002001860B5
S1130E6018680190009836BC7047014B0120F6E7E2
S1130E7000000E2054050C20A80A0C2036BC6FF08C
S1130E8001007047244825490160832224490160F8
S1130E9000202449087000211E48017401210175B5
S1130EA081210176017720490A7000220A725C22AE
S1130EB00A74027842F00202027002799207FCD5A9
S1130EC000220A7504220A7609220A77017841F081
S1130ED0100101700179C906FCD5017841F0400187
S1130EE001700178027902F0E00201F0E0018A4227
S1130EF0F7D140F2FF320D4801688905890D91420E
S1130F0006D00B490B4A8A6000680880002088607C
S1130F107047000000000140001C014051E5CC1A5C
S1130F20AE1A33E5081001402000014000010040E2
S1130F3004E0024054E5CC1A19E050F8041BCB0736
S1130F4044BFA9F101035918121F0023042A41F8D0
S1130F50043BF9D25FEA827C0B4604D54FF0000CC7
S1130F60A1F800C09B1CD10744BF0021197050F8A0
S1130F70042B002AE1D1704710B450F8041B79B156
S1130F800268436812180830DC0744BFA9F1010461
S1130F90E31852F8044B43F8044B091FF9D1ECE76A
S1130FA010BC704710B5074979441831064C7C448D
S1130FB0163404E00A68081D511888470146A14206
S1130FC0F8D110BD08000000280000006DFFFFFFED
S1130FD0F401000080E3FF1F000000009DFFFFFFFD
S1130FE07C01000024FDFFFF00E0FF1F0000000063
S1130FF00120C046002801D0FFF7D4FF0020C046DE
S1131000C046FFF713FB00F000F800F001B8000041
S11310100746384600F002F8FBE7000020210903E8
S113102026311820ABBEF9E7014880470148004744
S1131030850E000039100000C046C046C046C046B8
S1131040FFF7D6FFFFF7FEBFFFF7FEBFFFF7FEBFB8
S1131050FFF7FEBFFFF7FEBFFFF7FEBFFFF7FEBFC0
S1131060FFF7FEBFFFF7FEBFFFF7FEBFFFF7FEBFB0
S1131070FFF7FEBFFFF7FEBFFFF7FEBFFFF7FEBFA0
S1131080FFF7FEBFFFF7FEBFFFF7FEBFFFF7FEBF90
S1131090FFF7FEBFFFF7FEBFFFF7FEBFFFF7FEBF80
S11310A0FFF7FEBFFFF7FEBFFFF7FEBFFFF7FEBF70
S11310B0FFF7FEBFFFF7FEBFFFF7FEBFFFF7FEBF60
S11310C0FFF7FEBFFFF7FEBFFFF7FEBFFFF7FEBF50
S11310D0FFF7FEBFFFF7FEBFFFF7FEBFFFF7FEBF40
S11340002025002085FA0100A9FA0100ADFA01007B
S1134010B1FA0100B5FA0100B9FA0100000000008C
S1134020000000000000000000000000BDFA0100D4
S1134030C1FA010000000000C5FA0100C9FA01003C
S1134040CDFA0100D1FA0100D5FA0100D9FA010034
S1134050DDFA0100E1FA0100E1D600008D930000D1
S1134060D7F90100EDD90000F5FA01009D93010094
S1134070FDFA010043A9000005FB010049FB010012
S113408049FB010009FB01000DFB010049FB010094
S113409049FB010049FB010049FB010011FB010040
S11340A015FB0100D5F901001DFB010049FB0100CE
S11340B021FB010025FB010029FB01002DFB010070
S11340C049FB010049FB0100DFF90100E9F90100A6
S11340D049FB010049FB010039FB01003DFB0100E4
S11340E041FB010045FB010049FB010049FB0100C4
S11340F049FB010049FB010049FB010049FB0100A8
S113410038B5684CE07E012833D1674D67492846AD
S113411005F079FA012803DB0120E07502201BE099
S11341205EA1284605F06FFA012803DB0120E07543
S1134130002011E05E49284605F065FA012802DBFB
S11341400120E07508E056A1284605F05CFA012834
S113415003DB0120E075032060750020E076207EFB
S113416038B1544805F0A2FB2846BDE8324005F0BA
S11341709DBB31BDF0B5142883B0044658D8DFE8A0
S113418000F00B0E1114171A1D2E3134373A3D402E
S11341904346494C4F5752001422474945E01422E4
S11341A0464942E0142246493FE0142245493CE096
S11341B01422454939E01422444936E0444D454926
S11341C01422284605F0D8FB4348006800282FD164
S11341D04E2068732E20A8734520E87328E014222B
S11341E03E4922E014223E491FE014223D491CE0CE
S11341F014223D4919E014223C4916E014223C499A
S113420013E014223B4910E014223B490DE0142230
S11342103A490AE014223A4907E01422394904E0F1
S11342201422394901E014223849294805F0A4FB35
S113423037480068E040C00706D5254D592068730B
S11342406520A8737320E87304EB44004000314EEA
S1134250314F00F52C5006223146503005F0B8FCA1
S11342603079737832782D490290F0780190B078E3
S11342700C4E0090384605F0DFFE002038743146BD
S1134280384605F03EFA0CB17F203070142CBCBFC8
S11342907E20F0730020B07603B0F0BD55500000CE
S11342A045534300E01E0020681C0020C0DB0100D1
S11342B0C8DB0100D0DB0100DCDB0100F0DB010026
S11342C004DC010018DC01002CDC010040DC0100EE
S11342D0641F002054DC01006820002068DC010019
S11342E07CDC010090DC0100A4DC0100B8DC0100EE
S11342F0CCDC0100E0DC0100F4DC010008DD01009D
S11343001CDD010030DD010044DD010058DD010049
S1134310B420002068130020881900206CDD0100FF
S1134320F0B5DFF89C4B83B0206AD32802F2C9842D
S1134330DFE810F0D400E500F8000B011A015A017F
S1134340C3110E122012051328134C138813BA1329
S1134350DD13FF131C1442144414461448144A1465
S11343604C144E14501452145414561458145A1411
S11343705C145E1460146214641468149814C714F2
S1134380F2010302120FBC0FC30F230F3C0F560F91
S1134390690F7C0F8F0FA40F120223023602490209
S11343A05C026F0282029502A802BB02CE02E10205
S11343B0F40207031A032D0340035303660379032E
S11343C08C039F03B403C703DA03ED03000413044F
S11343D0260439044C045F04720485049804AB0475
S11343E0BE04D104E00403052A0553057D05A30595
S11343F0CA05EF05140639065D068006A406C7063D
S1134400EB060C0716072A074F0773079807B6072A
S1134410D407DF07F80717083D0849085A086C084D
S11344208408A808E40803092209410960098909E4
S1134430B209DB09030A5F0A6D0A7B0A890A970A33
S1134440A60AB50AC40AD30AE20AF10A000B0E0B43
S11344501C0B2A0B390B480B570B660B750B840B83
S1134460930BA20BB10BC00BC714D20BE10BF00BD7
S1134470020C110C200C320C410C520CC714DA0F34
S1134480FF0F60107110B010441180109410FA10D6
S113449044116D119311A011AE113E104C10610C1A
S11344A0730C860C950CDC0CFB0C1C0D3D0D5E0D89
S11344B07F0DA00DC10DE20D030E140E260E380E55
S11344C0500E680E940EB00ED00EF00E69017A01F3
S11344D08D01A001AF01BE01CD01DC011422DFF882
S11344E0941CDFF8940C05F047FA1422DFF88C1CB6
S11344F0204605F041FA7E20E07302F0E0BB14226E
S1134500DFF8701CDFF8700C05F036FA1422DFF8BF
S1134510701C204605F030FA7F2020707E20E07366
S113452002F0CDBB1422DFF84C1CDFF84C0C05F074
S113453023FA1422DFF84C1C204605F01DFA7F20D4
S113454020707E20E07302F0BABB1422DFF8241C32
S1134550DFF8240C05F010FA1422DFF8AC1D204615
S113456005F00AFA02F0A9BB1422DFF8A01DDFF857
S1134570080C05F001FA1422DFF8941D204605F01A
S1134580FBF9A07D032802F24080DFE810F004006C
S11345900C0016002100CE206076DFF8780D00783C
S11345A0A07102F032B8CF2060767820A071DFF8D5
S11345B0640D4078E07102F028B8D020607678204D
S11345C0A071E071DFF84C0D8078207202F01DB804
S11345D0D12060767820A071E0712072DFF8340D6C
S11345E0C078607202F011B81422DFF8201DDFF8E1
S11345F0880B05F0C1F91422DFF81C1D204605F0D4
S1134600BBF902F05CBB1422DFF8101DDFF8680B65
S113461005F0B2F91422DFF8081D204605F0ACF9C4
S11346207E20E07302F04BBB1422DFF8F01CDFF8AD
S1134630480B05F0A1F91422DFF8CC1D204605F043
S11346409BF97F2020707E20E07302F038BB142297
S1134650DFF8C81CDFF8200B05F08EF91422DFF810
S1134660D01D204605F088F97F2020707E20E0735D
S113467002F025BB1422DFF8A41CDFF8FC0A05F0C5
S11346807BF91422DFF8AC1D204605F075F902F021
S113469014BB1422DFF8A01DDFF8DC0A05F06CF966
S11346A01422DFF8C01D204605F066F902F007BBAE
S11346B01422DFF8B41DDFF8C00A05F05DF91422F6
S11346C0DFF8A81D204605F057F902F0F8BA1422C5
S11346D0DFF89C1DDFF8A00A05F04EF91422DFF87C
S11346E0941D204605F048F902F0E9BA1422DFF8D7
S11346F0881DDFF8840ADFF8845D05F03DF9DFF8F2
S1134700800D0268E4A1284605F096FC214628465F
S113471004F0F7FF02F0D3BA1422DFF8881DDFF8A3
S1134720580A05F029F91422DFF87C1D204605F00B
S113473023F97E20E07302F0C2BA1422DFF8641D6C
S1134740DFF8340A05F018F91422DFF8601D20465A
S113475005F012F902F0B1BA1422DFF8541DDFF8A3
S1134760180A05F009F91422DFF8481D204605F05F
S113477003F97E20E07302F0A2BA1422DFF8301DA0
S1134780DFF8F40905F0F8F81422DFF82C1D2046B0
S113479005F0F2F87F2020707E20E07302F08FBADB
S11347A01422DFF80C1DDFF8D00905F0E5F8142217
S11347B0DFF8081D204605F0DFF87F2020707E20FA
S11347C0E07302F07CBA1422DFF8E41CDFF8A809D5
S11347D005F0D2F81422DFF8E81C204605F0CCF8E6
S11347E07F2020707E20E07302F069BA1422DFF883
S11347F0C01CDFF8840905F0BFF81422DFF8C41CDC
S1134800204605F0B9F87F2020707E20E07302F086
S113481056BA1422DFF8981CDFF85C0905F0ACF8EE
S11348201422DFF8A41C204605F0A6F87F2020708F
S11348307E20E07302F043BA1422DFF8741CDFF820
S1134840380905F099F81422DFF8801C204605F099
S113485093F87F2020707E20E07302F030BA142297
S1134860DFF84C1CDFF8100905F086F81422DFF895
S1134870601C204605F080F87F2020707E20E073C5
S113488002F01DBA1422DFF8281CDFF8EC0805F04A
S113489073F81422DFF83C1C204605F06DF87F20E5
S11348A020707E20E07302F00ABA1422DFF8001CA4
S11348B0DFF8C40805F060F81422DFF81C1C204659
S11348C005F05AF87F2020707E20E07302F0F7B9DB
S11348D01422DFF8DC1BDFF8A00805F04DF81422E1
S11348E0DFF8F81B204605F047F87F2020707E2073
S11348F0E07302F0E4B91422DFF8B41BDFF878089F
S113490005F03AF81422DFF8D81B204605F034F8F5
S11349107F2020707E20E07302F0D1B91422DFF8EA
S1134920901BDFF8540805F027F81422DFF8B41BB5
S1134930204605F021F87F2020707E20E07302F0ED
S1134940BEB91422DFF8681BDFF82C0805F014F850
S11349501422DFF8941B204605F00EF87F20207007
S11349607E20E07302F0ABB91422DFF8441BDFF8B9
S1134970080805F001F81422DFF8701B204604F043
S1134980FBFF7F2020707E20E07302F098B9142290
S1134990DFF81C1BDFF8E00704F0EEFF1422DFF859
S11349A0501B204604F0E8FF7F2020707E20E07337
S11349B002F085B91422DFF8F81ADFF8BC0704F016
S11349C0DBFF1422DFF82C1B204604F0D5FF7F20E8
S11349D020707E20E07302F072B91422DFF8D01A3E
S11349E0DFF8940704F0C8FF1422DFF80C1B2046FC
S11349F004F0C2FF7F2020707E20E07302F05FB9D4
S1134A001422DFF8AC1ADFF8700704F0B5FF1422A3
S1134A10DFF8701D204604F0AFFF7F2020707E2059
S1134A20E07302F04CB91422DFF8841ADFF8480767
S1134A3004F0A2FF1422DFF8501D204604F09CFF6E
S1134A407F2020707E20E07302F039B91422DFF851
S1134A50601ADFF8240704F08FFF1422DFF82C1DFE
S1134A60204604F089FF7F2020707E20E07302F04E
S1134A7026B91422DFF8381ADFF8FC0604F07CFFAC
S1134A801422DFF80C1D204604F076FF7F202070EE
S1134A907E20E07302F013B9256400001422DFF8CD
S1134AA0101ADFF8D40604F067FF1422DFF8E41CC0
S1134AB0204604F061FF7F2020707E20E07302F026
S1134AC0FEB81422DFF8E819DFF8AC0604F054FF4E
S1134AD01422DFF8C41C204604F04EFF7F2020700F
S1134AE07E20E07302F0EBB81422DFF8C419DFF87B
S1134AF0880604F041FF1422DFF8A01C204604F0CD
S1134B003BFF7F2020707E20E07302F0D8B814228F
S1134B10DFF89C19DFF8600604F02EFF1422DFF89A
S1134B20801C204604F028FF7F2020707E20E07344
S1134B3002F0C5B81422DFF87819DFF83C0604F057
S1134B401BFF1422DFF85C1C204604F015FF7F20B5
S1134B5020707E20E07302F0B2B81422DFF85019FE
S1134B60DFF8140604F008FF1422DFF83C1C20468A
S1134B7004F002FF7F2020707E20E07302F09FB8D3
S1134B801422DFF82C19DFF8F00504F0F5FE1422E6
S1134B90DFF8181C204604F0EFFE7F2020707E20F2
S1134BA0E07302F08CB81422DFF80419DFF8C805AA
S1134BB004F0E2FE1422DFF8F81B204604F0DCFEC9
S1134BC07F2020707E20E07302F079B81422DFF891
S1134BD0E018DFF8A40504F0CFFE1422DFF8D41B9C
S1134BE0204604F0C9FE7F2020707E20E07302F08E
S1134BF066B81422DFF8B818DFF87C0504F0BCFEB0
S1134C001422DFF8B41B204604F0B6FE7F20207087
S1134C107E20E07302F053B81422DFF89418DFF812
S1134C20580504F0A9FE1422DFF8901B204604F076
S1134C30A3FE7F2020707E20E07302F040B814228F
S1134C40DFF86C18DFF8300504F096FE1422DFF864
S1134C50701B204604F090FE7F2020707E20E073BD
S1134C6002F02DB81422DFF84818DFF80C0504F020
S1134C7083FE1422DFF84C1B204604F07DFE7F20C7
S1134C8020707E20E07302F01AB81422DFF8201896
S1134C90DFF8E40404F070FE1422DFF82C1B204635
S1134CA004F06AFE7F2020707E20E07302F007B8D3
S1134CB01422DFF8FC17DFF8C00404F05DFE1422B0
S1134CC0DFF8081B204604F057FE7F2020707E206A
S1134CD0E07301F0F4BF1422DFF8D417DFF898046E
S1134CE004F04AFE1422DFF8E81A204604F044FED9
S1134CF001F0E3BF1422DFF8C41DDFF87C0404F0E4
S1134D003BFE41F288330022DFF8C81A204605F042
S1134D1093F9DFF800060178A1714178E171817897
S1134D202172C0786072A07D032801F2C887DFE891
S1134D3010F05B0526004F0079001422DFF8DC1D1B
S1134D40DFF8340404F018FE1E230222DFF8841A6C
S1134D50204605F071F9DFF8BC050178A1714178AE
S1134D60E17181782172C0786072A07D032801F21C
S1134D70A687DFE810F0390504002D005700CF2086
S1134D806076012001F09CBF1422DFF8F01DDFF8EB
S1134D90E80304F0F1FD4FF4FA730A22DFF8341A41
S1134DA0204605F049F9DFF86C050178A1714178D6
S1134DB0E17181782172C0786072A07D032801F2CC
S1134DC07E87DFE810F01105040005002F00D6E708
S1134DD0D0206076012001F073BF1422DFF8DC1DBF
S1134DE0DFF8940304F0C8FD4FF4FA730A22DFF8E5
S1134DF0E419204605F020F9DFF818050178A171BF
S1134E004178E17181782172C0786072A07D0328B5
S1134E1001F25587DFE810F0E804050004000600FD
S1134E20D6E7ACE7D1206076012001F049BF142217
S1134E30DFF8A419DFF8400304F09EFD4FF4FA7381
S1134E400022DFF89019204605F0F6F8DFF8C404D4
S1134E500178A1714178E17181782172C078607222
S1134E60A07D032801F22B87DFE810F0BE040600C2
S1134E7005000400D6E7ABE781E71422DFF85C19EC
S1134E80BD4804F079FD4FF4FA630122DFF84419B8
S1134E90204605F0D1F8DFF87C040178A17141784F
S1134EA0E17181782172C0786072A07D032801F2DB
S1134EB00687DFE810F09904080007000400B1E752
S1134EC0E01E002084E75AE71422DFF8F81DAA4800
S1134ED004F052FD4FF4FA630122DFF8F81820467B
S1134EE005F0AAF8DFF82C040178A1714178E1718A
S1134EF081782172C0786072A07D032801F2DF8678
S1134F00DFE810F072040600050004008AE75FE79A
S1134F1035E71422DFF8B01D974804F02DFD4FF457
S1134F20FA630122DFF8AC18204605F085F8DFF8B3
S1134F30E4030178A1714178E17181782172C0782C
S1134F406072A07D032801F2BA86DFE810F04D04F8
S1134F5006000500040065E73AE710E71422DFF8CD
S1134F606C1D854804F008FD4FF4E1530022DFF87E
S1134F706418204605F060F8DFF898030178A17101
S1134F804178E17181782172C0786072A07D032834
S1134F9001F29586DFE810F02804060005000400FD
S1134FA040E715E7EBE61422DFF8241D724804F00D
S1134FB0E3FCF0230022DFF81C18204605F03CF83F
S1134FC0DFF850030178A1714178E1718178217291
S1134FD0C0786072A07D032801F27186DFE810F0CA
S1134FE004040600050004001CE7F1E6C7E61422E9
S1134FF0DFF8E01C604804F0BFFC3C230022DFF82B
S1135000D417204605F018F8C2480178A1714178F8
S1135010E17181782172C0786072A07D032801F269
S11350204E86DFE810F0E103060005000400F9E60F
S1135030CEE6A4E61422DFF8A01C4F4804F09CFC42
S11350404FF461633222DFF88C17204604F0F4FF3A
S1135050B0480178A1714178E17181782172C078FA
S11350606072A07D032801F22A86DFE810F0BD03F8
S1135070060005000400D5E6AAE680E61422DFF85F
S11350805C1C3D4804F078FC50230A22DFF84417E6
S1135090204604F0D1FF9F480178A1714178E17165
S11350A081782172C0786072A07D032801F207869E
S11350B0DFE810F09A03060005000400B2E687E674
S11350C05DE61422DFF8181C2B4804F055FC4FF45D
S11350D061631E22DFF8FC16204604F0ADFF8D4804
S11350E00178A1714178E17181782172C078607290
S11350F0A07D032801F2E385DFE810F076030600C3
S1135100050004008EE663E639E61422DFF8D41BBA
S1135110194804F031FC1422DFF8CC1B204604F0BB
S11351202BFC7C480178A1714178E171817821726E
S1135130C0786072A07D002800F0568301283FF4F7
S11351401EAE03283FF46EAE01F0B9BD1422DFF8A1
S11351507C1E094804F010FC1422DFF8741EDDE7FD
S11351601422DFF8941E044804F006FC1422DFF82D
S1135170601ED3E790DD0100641F0020A4DD010060
S1135180B8DD0100CCDD01001422DFF8701EDFF869
S1135190700E04F0F1FB4FF4FA630022DFF83416CA
S11351A0204604F049FF5B480178A1714178E17120
S11351B081782172C0786072A07D032801F27F8516
S11351C0DFE810F012030600050004002AE6FFE5FC
S11351D0D5E51422DFF8801EDFF8240E04F0CCFBA2
S11351E03C231422DFF8EC15204604F025FF49483F
S11351F00178A1714178E17181782172C07860727F
S1135200A07D032801F25B85DFE810F0EE020600C2
S11352100500040006E6DBE5B1E51422DFF8B01E64
S1135220DFF8DC0D04F0A8FB4FF47A630522DFF805
S1135230A415204604F000FF36480178A171417896
S1135240E17181782172C0786072A07D032801F237
S11352503685DFE810F0C902060005000400E1E528
S1135260B6E58CE51422DFF8A41EDFF8940D04F0F3
S113527083FB1422DFF8981E204604F07DFB2548AA
S11352800178A1714178E17181782172C0786072EE
S1135290A07D002800F0A88202283FF499AD50E7D1
S11352A01422DFF8AC1EDFF8580D04F065FB14225D
S11352B0DFF8A01E204604F05FFB16480178A171B8
S11352C04178E17181782172C0786072A07D0028F4
S11352D000F08A8202283FF47BAD32E71422DFF823
S11352E0C01EDFF81C0D04F047FB1422DFF8B41EC7
S11352F014E71422DFF8B01EDFF8040D04F03CFBC1
S11353001422DFF8A01E09E7E0DD0100F4DD01004E
S113531008DE0100041F00201CDE010030DE010055
S113532044DE01001422DFF8AC1EDFF8D40C04F0D4
S113533023FB1422DFF8A01E204604F01DFBDFF837
S11353409C0E0178A1714178E17181782172C07855
S11353506072A07D002800F0478202283FF438AD37
S1135360EFE61422DFF83814DFF8940C04F004FBA1
S11353704FF4FA630A22DFF85C14204604F05CFE62
S1135380DFF8580E0178A1714178E17181782172BA
S1135390C0786072A07D032801F29184DFE810F0E8
S11353A024020600050004003CE511E5E7E41422AC
S11353B0DFF8C41EDFF8480C04F0DEFA1422DFF82C
S11353C0DC1E01F061B91422DFF8D41EDFF8300CC2
S11353D004F0D2FA1422DFF8CC1E204604F0CCFAF2
S11353E07E20E07301F06BBC1422DFF8B41EDFF8FA
S11353F0100C04F0C1FA1422DFF8AC1E204604F0AD
S1135400BBFA01F05ABC00BF58DE01001422DFF8D9
S1135410C81EDFF8EC0B04F0AFFA1422DFF8BC1E50
S1135420204604F0A9FA7E20E07301F048BC00BFD6
S11354306CDE010080DE010094DE01001422DFF83E
S1135440981EDFF8BC0B04F097FA1422DFF8901EC4
S1135450204604F091FA7F2020707E20E07301F052
S11354602EBC00BFA8DE0100BCDE0100D0DE0100BE
S1135470E4DE0100F8DE01000CDF010088190020E1
S1135480B41D00201422DFF8501EDFF8740B04F062
S113549073FA1422DFF84C1E204604F06DFA01F072
S11354A00CBC00BF20DF010034DF010048DF010035
S11354B05CDF010070DF010084DF010098DF010080
S11354C0ACDF0100C0DF0100D4DF0100E8DF010030
S11354D0FCDF010010E0010024E0010038E00100DD
S11354E04CE0010060E0010074E0010088E001008C
S11354F09CE00100B0E00100C4E001001422DFF8E8
S1135500901EDFF8FC0A04F037FA1422DFF8841E38
S1135510204604F031FADFF8C40C0178A171417817
S1135520E17181782172C0786072A07D002800F05A
S11355305B8102283FF44CAC03E61422DFF8A81E7A
S1135540DFF8BC0A04F018FA1422DFF8481E2046DB
S113555004F012FADFF8840C0178A1714178E1714A
S113556081782172C0786072A07D002800F03C81AF
S113557002283FF42DACE4E51422DFF8701EDFF8B6
S1135580800A04F0F9F91422DFF8641E204604F0BE
S1135590F3F9DFF8480C0178A1714178E171817861
S11355A02172C0786072A07D002800F01D8102285D
S11355B03FF40EACC5E51422DFF89C1EDFF8400A68
S11355C004F0DAF91422DFF8CC1D204604F0D4F9F3
S11355D0DFF8080C0178A1714178E17181782172BA
S11355E0C0786072A07D002800F0FE8002283FF49D
S11355F0EFABA6E51422DFF8841EDFF8040A04F0FA
S1135600BBF942F20F730022DFF8741E204604F047
S113561013FDDFF8C80B0178A1714178E17181783D
S11356202172C0786072A07D032801F24883DFE80C
S113563010F0DB00080006000400FFF7F3BBFFF7DF
S1135640C7BBFFF79CBB1422DFF8381EDFF8B00994
S113565004F092F942F20F730022DFF8241E204670
S113566004F0EAFCDFF8740B0178A1714178E17170
S113567081782172C0786072A07D032801F21F83B3
S1135680DFE810F0B200080006000400FFF7CABB10
S1135690FFF79EBBFFF773BB1422DFF8EC1DDFF8A6
S11356A0600904F069F94FF47A733222DFF8D01DEF
S11356B0204604F0C1FCDFF8240B0178A171417885
S11356C0E17181782172C0786072A07D032801F2B3
S11356D0F682DFE810F08900080006000400FFF7F6
S11356E0A1BBFFF775BBFFF74ABBDFF8A00DDFF8DE
S11356F010196CC86CC140F637130022DFF8801D06
S1135700204604F099FCDFF8D40A0178A1714178AD
S1135710E17181782172C0786072A07D032801F262
S1135720CE82DFE810F06100080006000400FFF7F5
S113573079BBFFF74DBBFFF722BB1422DFF8501DE6
S1135740DFF8BC0804F018F91E230522DFF8301D29
S1135750204604F071FCDFF8840A0178A1714178D5
S1135760E17181782172C0786072A07D032801F212
S1135770A682DFE810F03900370035000400FFF797
S113578051BB00BFD8E00100ECE0010000E10100E2
S113579014E1010028E101003CE1010050E10100B5
S11357A064E1010078E101008CE10100A0E1010065
S11357B0B4E10100C8E10100DCE10100F0E1010015
S11357C004E2010018E201002CE2010040E20100C1
S11357D054E201007CE20100CCE20100E0E20100BD
S11357E0FFF7F6BAFFF7CBBACE206076012001F0BE
S11357F067BA1422B149DFF8080804F0BDF814228E
S1135800DFF86C1E204604F0B7F801F058BA1422F1
S1135810C249DFF8EC0704F0AFF81422DFF8501E99
S1135820204604F0A9F801F04ABA1422D349DFF85B
S1135830D00704F0A1F81422DFF8341E204604F047
S11358409BF801F03CBA1422DC49DFF8B40704F0F9
S113585093F81422DFF8181E204604F08DF801F0A6
S11358602EBA1422DFF8801EDFF8940704F084F8BF
S11358701422DFF8FC1D204604F07EF801F01FBA64
S11358801422DFF8681EDFF8780704F075F8142294
S1135890DFF8DC1D204604F06FF801F010BA142282
S11358A0DFF84C1EDFF8580704F066F81422DFF81E
S11358B0C01D204604F060F801F001BA1422DFF89C
S11358C0341EDFF83C0704F057F81422DFF8A01D5B
S11358D0204604F051F801F0F2B91422DFF8181E42
S11358E0DFF81C0704F048F81422DFF8841D204672
S11358F004F042F801F0E3B91422DFF8701EDFF877
S1135900000704F039F81422DFF8641D204604F07F
S113591033F801F0D4B91422DFF8541EDFF8E0069E
S113592004F02AF81422DFF8481D204604F024F875
S113593001F0C5B91422E849DFF8C40604F01CF8E4
S11359401422DFF82C1D204604F016F801F0B7B934
S11359501422E249DFF8A80604F00EF81422DFF856
S1135960101D204604F008F801F0A9B91422DC49FE
S1135970DFF88C0604F000F81422DFF8F41C20464B
S113598003F0FAFF01F09BB91422DFF8501EDFF890
S1135990700603F0F1FF1422DFF8D41C204603F054
S11359A0EBFF01F08CB91422DFF82016DFF8500663
S11359B003F0E2FF1422DFF8B81C204603F0DCFFFA
S11359C001F07DB91422DFF83016DFF8340603F055
S11359D0D3FF1422DFF8981C204603F0CDFF01F01A
S11359E06EB91422DFF8F81DDFF8140603F0C4FFC3
S11359F01422DFF87C1C204603F0BEFF01F05FB9DF
S1135A001422DFF85416DFF8F80503F0B5FF14226A
S1135A10DFF85C1C204603F0AFFF01F050B91422FC
S1135A20DFF8AC16DFF8D80503F0A6FF1422DFF880
S1135A30401C204603F0A0FF01F041B91422DFF816
S1135A40CC16DFF8BC0503F097FF1422DFF8201C06
S1135A50204603F091FF01F032B91422DFF8F0166A
S1135A60DFF89C0503F088FF1422DFF8041C2046AD
S1135A7003F082FF01F023B91422DFF8341EDFF8AB
S1135A80800503F079FF1422DFF8E41B204603F0BD
S1135A9073FF01F014B91422DFF8181EDFF8600553
S1135AA003F06AFF1422DFF8C81B204603F064FFEA
S1135AB001F005B91422DFF81C1701E068E20100C7
S1135AC0DFF83C0503F058FF1422DFF8A41B20463E
S1135AD003F052FF01F0F3B81422DFF8B418DFF832
S1135AE0200503F049FF1422DFF8841B204603F04D
S1135AF043FF01F0E4B81422DFF8EC18DFF80005E6
S1135B0003F03AFF1422DFF8681B204603F034FF49
S1135B1001F0D5B81422DFF8D41801E090E20100B6
S1135B20DFF8DC0403F028FF1422DFF8441B2046CE
S1135B3003F022FF01F0C3B81422DFF81C19DFF8C8
S1135B40C00403F019FF1422DFF8241B204603F0DD
S1135B5013FF01F0B4B81422DFF82019DFF8A00411
S1135B6003F00AFF1422DFF8081B204603F004FFA9
S1135B7001F0A5B81422DFF80C1901E0A4E2010039
S1135B80DFF87C0403F0F8FE1422DFF8E41A204660
S1135B9003F0F2FE01F093B81422DFF8EC18DFF8FA
S1135BA0600403F0E9FE1422DFF8C41A204603F06F
S1135BB0E3FE01F084B8DFF8D40801E0B8E20100A4
S1135BC0DFF83C146CC86CC11422DFF8A41A204618
S1135BD003F0D2FE01F073B81422DFF8B418DFF832
S1135BE0200403F0C9FE1422DFF8841A204603F0CF
S1135BF0C3FE01F064B81422DFF8EC1DDFF80004E2
S1135C0003F0BAFE1422DFF8E41D204603F0B4FECC
S1135C100020A0767E2000F099BD1422DFF8C81D74
S1135C20DFF8DC0303F0A8FE1422DFF8041E20468C
S1135C3003F0A2FE7F2020707E20E07301F03FB8C5
S1135C401422DFF8A41DEE4803F096FE1422DFF8B8
S1135C50E41D204603F090FE0020A076C8E1142243
S1135C60DFF8D41DE64803F087FE1422DFF8CC1DCC
S1135C70204603F081FE0020A076DFF8C40D0078F2
S1135C8000F001010129A4BF4821A17000F0020124
S1135C900129A4BF4821617100F004010129A4BFB6
S1135CA04821217200F008010129A4BF4821E172B2
S1135CB000F010000128C1F204804820A07301F014
S1135CC000B800BFF4E2010008E301001CE3010096
S1135CD030E3010044E3010058E301006CE30100F8
S1135CE080E3010094E30100A8E301001422DFF83B
S1135CF0A41DC348DFF8A05D03F03EFE0020A0769B
S1135D00DFF8981DDFF8980D007800F001000128F5
S1135D10ACBFDEA2DEA2284604F08EF92146284656
S1135D2003F0EFFC7E2000F011BD1422DFF8641DA7
S1135D30B348DFF8645D03F01FFE0020A076DFF8AF
S1135D40641DDFF85C0D007800F002000128ACBF90
S1135D50CEA2CFA2284604F06FF92146284603F0CC
S1135D60D0FC7F2020707E2000F0F0BC1422DFF8ED
S1135D70241DA348DFF8205D03F0FEFD0020A0767B
S1135D80DFF8E01DDFF8180D007800F004000128AA
S1135D90ACBFBEA2BEA2284604F04EF92146284656
S1135DA003F0AFFC7F2020707E2000F0CFBC1422D3
S1135DB0DFF8E01C9248DFF8E05C03F0DDFD002032
S1135DC0A076DFF8A41DDFF8D80C007800F00800F6
S1135DD00128ACBFADA2AEA2284604F02DF921469D
S1135DE0284603F08EFC7F2020707E2000F0AEBC9D
S1135DF01422DFF8A01C8248DFF89C5C03F0BCFD91
S1135E000020A076DFF8881DDFF8940C007800F0FD
S1135E1010000128ACBF9DA29DA2284604F00CF9F5
S1135E202146284603F06DFC7F2020707E2000F080
S1135E308DBC1422DFF85C1C7148DFF85C5C03F055
S1135E409BFD0020A076DFF84C1DDFF8540C007891
S1135E5000F020000128ACBF8CA28DA2284604F0DB
S1135E60EBF82146284603F04CFC7F2020707E206E
S1135E7000F06CBC1422DFF81C1C6148DFF8185CCD
S1135E8003F07AFD0020A076DFF80C1DDFF8100C7B
S1135E90007800F040000128ACBF7CA27CA2284618
S1135EA004F0CAF82146284603F02BFC7F2020701A
S1135EB07E2000F04BBC1422DFF8D81B5048DFF8DA
S1135EC0D85B03F059FD0020A076DFF8D81CDFF87A
S1135ED0D00B007800F080000128ACBF6BA26CA24C
S1135EE0284604F0A9F82146284603F00AFC7F203E
S1135EF020707E2000F02ABC1422DFF8981B404852
S1135F00DFF8945B03F038FD0020A076DFF8981CDE
S1135F10DFF88C0B008800F480700128ACBF5BA212
S1135F205BA2284604F088F82146284603F0E9FBE2
S1135F307F2020707E2000F009BC1422DFF86C1C46
S1135F402F4803F019FD0020A0761422DFF8601C0E
S1135F50204603F011FD7E2000F0F8BB1422DFF888
S1135F604C1C274803F008FD1422DFF8481C204687
S1135F7003F002FD7F2020707E20E07300F09FBEBE
S1135F801422DFF8281C1E4803F0F6FC1422DFF864
S1135F903C1D204603F0F0FC7F2020707E20E0733F
S1135FA000F08DBE1422DFF8041C154803F0E4FC55
S1135FB00020A0761422DFF8181D204603F0DCFC34
S1135FC07F2020707E20E07300F079BEBCE30100E6
S1135FD0D0E301001422DFF8D41B094803F0CCFC01
S1135FE00020A0761422DFF8EC1C204603F0C4FC49
S1135FF07F20207000F065BEE4E30100F8E30100B7
S1136000641F00201422DFF8D01CDFF8D00CDFF866
S1136010885A03F0B1FC0020A076DFF8C41CDFF836
S1136020C40C0978406801290CD104F01FF8DFF88A
S1136030B82CDFF8B83C04F045F80B460246DFF80C
S1136040B01C05E004F012F80B460246DFF8A41C6D
S1136050284603F0F1FF74E00CE401001422DFF899
S1136060981CDFF8780CDFF8305A03F085FC002028
S1136070A0766421DFF8840C006890FBF1F2DFF86D
S1136080801C284603F0D8FF5BE000BF4F46460063
S11360904F4E00001422DFF86C1CDFF8400CDFF8D0
S11360A0F85903F069FC0020A076DFF85C1CDFF8E7
S11360B05C0C0068086004F0D7F8DFF8541C04F0A6
S11360C0EDF803F0D3FF0B460246DFF8481C35E039
S11360D020E401001422DFF8401CDFF8000CDFF894
S11360E0B85903F049FC0020A076DFF8300C0068B2
S11360F004F0BAF8DFF8281C04F0D0F803F0B6FF77
S11361000B460246DFF81C1C18E000BF34E4010013
S113611048E401001422DFF8101CDFF8C00BDFF89C
S1136120785903F029FC0020A076DFF8000C006801
S113613003F09CFF0B460246DFF8F81B284603F0E9
S11361407BFF2146284603F0DCFA00F0BABD00BF0D
S11361505CE4010070E401001422DFF8E41BDFF8C2
S11361607C0B03F009FC1422DFF8D81B204603F053
S113617003FC7E20E07300F0A2BD1422DFF8C01BF4
S1136180DFF8580B03F0F8FB1422DFF8BC1B2046A1
S113619003F0F2FB7F2020707E20E07300F08FBDBF
S11361A084E4010098E40100ACE401001422DFF867
S11361B0901BDFF8280B03F0DFFB1422DFF88C1BA5
S11361C0204603F0D9FB7F2020707E20E07300F08E
S11361D076BD00BFC0E40100D4E40100041F002028
S11361E01422DFF85C1BDFF8F40A03F0C5FB142269
S11361F0DFF85C1B204603F0BFFB7F2020707E206D
S1136200E07300F05CBD1422DFF8341BDFF8CC0A25
S113621003F0B2FB1422DFF83C1B204603F0ACFB76
S11362207F2020707E20E07300F049BD1422DFF847
S1136230101BDFF8A80A03F09FFB1422DFF8181BD9
S1136240204603F099FB7F2020707E20E07300F04D
S113625036BD1422DFF8E81ADFF8800A03F08CFB5D
S11362601422DFF8F81A204603F086FB7F20207002
S11362707E20E07300F023BDE8E401001422DFF87F
S1136280C01ADFF8580A03F077FB1422DFF8D01A9B
S1136290204603F071FB00F010BD00BFFCE40100D8
S11362A010E5010024E5010038E50100DFF8F017EE
S11362B04FF6F47008802A20CAE11422DFF8A41AE9
S11362C0DFF8180A03F058FB1422DFF8781A204686
S11362D003F052FB00F0F3BC4CE5010060E5010063
S11362E074E5010088E501001422DFF87C1ADFF868
S11362F0EC0903F041FB1422DFF8701A204603F086
S11363003BFB0120A076DFF8680A017861714178CF
S1136310A17181782172C0786072A07D032800F297
S1136320D084DFE810F0390004003B003D00CE20AB
S11363303BE01422DFF83C1ADFF8A00903F01CFB51
S11363401422DFF8341A204603F016FBDFF8200A83
S1136350017861714178A1712D21E17181782172F7
S1136360C17861722D21A1720179E17240792073A3
S11363700120A076A07D052800F2A384DFE810F0B8
S11363800C0006000E00100012001400CFE700BF3E
S11363909CE50100B0E50100CD2006E0D02004E03A
S11363A0D12002E0D32000E0D420607600F089BC44
S11363B01422DFF8C819DFF8240903F0DDFA1422E7
S11363C0AB49204603F0D8FA00F079BC1422DFF878
S11363D0B019DFF8080903F0CFFA1422A4492046C3
S11363E003F0CAFA00F06BBCC4E50100D8E5010073
S11363F0ECE501001422DFF88C19DFF8E00803F063
S1136400BBFA1422DFF88019204603F0B5FA7E2087
S1136410E07300F054BC1422DFF86819DFF8BC08FC
S113642003F0AAFA1422DFF86419204603F0A4FA50
S113643000F043BC1422DFF85819DFF8A00803F079
S11364409BFA1422DFF84019204603F095FA7E20C7
S1136450E07300F034BC00BF00E601001422DFF852
S11364603019DFF8780803F087FA1422DFF81C19D2
S1136470204603F081FA00F020BC00BF14E60100BE
S113648028E6010038E601004CE6010060E6010060
S113649070E60100DFF800562022294640F2FD2074
S11364A003F096FB002085F820000021DFF8E408C3
S11364B0DFF828680170A4F1100231462B78FBB193
S11364C00778102F03DA0B7000234B7002E013706F
S11364D0002353707B1C03706F788FB1DBB2102BD9
S11364E003DA4F7000278F7002E05770002797700F
S11364F05B1C0370921C891CAD1CDBB2202BDDDB02
S11365000178202980F2DD83102904DA20238B55B9
S11365108A19002304E00A19202302F8103D0023FD
S11365205370491C0170EBE7DFF86C5520222946B3
S113653040F21D3003F04CFB002085F820000021C0
S1136540DFF85008DFF894670170A4F110023146B7
S11365502B78FBB10778102F03DA0B7000234B70F4
S113656002E01370002353707B1C03706F788FB1AB
S1136570DBB2102B03DA4F7000278F7002E05770E4
S1136580002797705B1C0370921C891CAD1CDBB246
S1136590202BDDDB0178202980F29383102904DA93
S11365A020238B558A19002304E00A19202302F8BA
S11365B0103D00235370491C0170EBE7A37D0022BA
S11365C0190016D0DFF8A807DFF81067185C1D194A
S11365D0A3F1480703F16401102BB9BF98558E4607
S11365E005F8100CBE46521CD2B29A4284F819E047
S11365F0F2D3DFF8A0070270102B207FB9BFDFF8B9
S1136600DC269854191901F8100C012058E3DFF81E
S113661088070178CB3908D0091F06D0891E0229C2
S113662003D9C91E02290BD90CE01422DFF86C1718
S1136630DFF8A80603F0A0F91422DFF8641723E0BA
S1136640B02005E0617F491C6177C9B211B1B12066
S1136650206236E3CF21017033E31422DFF83C17C4
S1136660DFF8780603F088F91422DFF838170BE016
S11366707CDD01001422DFF82417DFF8600603F044
S11366807BF91422DFF82017204603F075F918E38C
S11366901422DFF81817DFF8440603F06DF914220A
S11366A0DFF80C17204603F067F9DFF8F4030188DC
S11366B04FF672721140018003E30020A076DFF8E8
S11366C0F4060078401E19D0401E032803D9401F49
S11366D0042804D916E00A22DFF8DC1615E00922A2
S11366E0DFF8D81611E000BF84E6010098E6010047
S11366F0ACE60100C0E60100D4E601000B22DFF89D
S1136700C01602E00922DFF8BC16DFF88C03DFF8BC
S1136710885303F021F9DFF8C415284602F0F1FF8D
S1136720DFF8A40600686421B0FBF1F2DFF8D015AD
S1136730284603F081FC2146284602F0E2FFDFF8F8
S11367408C060068002800F0BC822120E073B8E2C7
S11367501422DFF87C16DFF8840503F00DF9142207
S1136760DFF87016204603F007F9A8E2E8E6010016
S1136770FCE601000020A076DFF83876DFF85866E2
S11367803878C54D0F2800F2A180DFE800F0080B2F
S1136790141D2B48515A639F9F6C757E8795DFF8B3
S11367A03C0691E00522DFF83816284603F0D4F8B9
S11367B0DFF8300688E00A22DFF82C16284603F0BA
S11367C0CBF8DFF828067FE00722DFF824162846F6
S11367D003F0C2F8DFF81C0676E000BF10E7010002
S11367E024E701000622DFF81016284603F0B4F867
S11367F0DFF80806DFF808160068097869B9DFF8D9
S11368000416DFF8F025096812684843DFF8DC1540
S113681009685118B0FBF1F057E0400855E0102228
S1136820DFF8E415284603F097F8DFF8E0054BE0BD
S11368300922DFF89015284603F08EF8DFF8A40546
S113684042E00B22DFF8C815284603F085F8DFF88C
S1136850C40539E01022DFF8C015284603F07CF89F
S1136860DFF8B80530E00A22DFF8B415284603F053
S113687073F8DFF8B00527E01122DFF8AC152846DD
S113688003F06AF8DFF85C051EE01022DFF89C15BF
S1136890284603F061F8DFF8980515E00C22DFF8CC
S11368A09415284603F058F8DFF88C0500780CE0BE
S11368B038E701004CE701000D22DFF88015284677
S11368C003F04AF8DFF8780500683060DFF80C144C
S11368D0284602F016FF3878012803D10622DFF893
S11368E0641504E0062806D10622DFF85C15284664
S11368F003F032F810E0DFF8EC1430680968411A4C
S113690011F10A0FB8BF0146DFF8400501600A46DD
S1136910A2A1284603F090FBDFF834753268A0A1E9
S1136920384603F089FB3946284603F035FD2146F5
S113693002F0E7FE7F2020707E20E073BFE1142286
S1136940DFF81015DFF89403534D03F015F8DFF862
S113695008050368DFF804050068191ADFF8EC0479
S113696048BF002101600A46DFF8F414284603F00A
S113697063FB2146284602F0C4FE7F2020707E205F
S1136980E0739CE11422DFF8DC14DFF85003424D7D
S113699002F0F2FFDFF84813DFF8CC04097800684E
S11369A001290AD103F062FBCF4AD04B03F08AFBE2
S11369B00B460246DFF8B41460E003F0FBFC024629
S11369C0DFF8AC14284603F037FB5AE01422DFF852
S11369D0A414C248DFF8006402F0CEFF0020308027
S11369E0DFF894140CE000BF60E7010074E70100D5
S11369F05A5C1AB110187278521C72705A1C327098
S1136A003378052BF4DB7178234DB0FBF1F2DFF81A
S1136A106C04DFF86C140260284603F00DFB214679
S1136A20284602F06EFE7F2020707E20E07346E14F
S1136A3088E701009CE70100B0E70100C4E701001A
S1136A402C1D00201422DFF83C14A448124D02F03F
S1136A5093FFA349A34809784068012909D103F0A9
S1136A6005FBA14AA14B03F02DFB0B460246A049AE
S1136A7004E003F0FBFA0B4602469E49284603F065
S1136A80DBFA2146284602F03CFE7F2020707E205F
S1136A90E07314E1D8E7010088190020ECE7010055
S1136AA000200020F8E701001422DFF8DC138B48F3
S1136AB0DFF8D85302F060FFDFF8D403006803F076
S1136AC0D3FBDFF8D01303F0E9FB03F0CFFA02465F
S1136AD00B46DFF8C413284603F0AEFA21462846D5
S1136AE002F00FFE7F2020707E20E073E7E0142286
S1136AF0DFF8A8137948DFF8945302F03DFFDFF87C
S1136B00A003006803F0B0FBDFF8881303F0C6FBB2
S1136B1003F0ACFA02460B46DF49284603F08CFA30
S1136B202146284602F0EDFD7F2020707E20E07390
S1136B30C5E01422DB496948D44D02F01DFF7B48AF
S1136B40006803F093FA02460B467A49284603F09C
S1136B5073FA2146284602F0D4FD7F2020707E205F
S1136B60E073ACE004E801000CE801001422CE4913
S1136B705A48C64D02F000FF94480068002814BF2C
S1136B806BA26DA26DA1284603F056FA91E000BFF6
S1136B9014E801001CE801002CE801002564000051
S1136BA02F2564003CE8010048E8010054E8010096
S1136BB068E801007CE80100002020E001201EE0DC
S1136BC002201CE003201AE0042018E0052016E04F
S1136BD0062014E0072012E0082010E009200EE04F
S1136BE00A200CE00B200AE00C2008E00D2006E04F
S1136BF00E2004E00F2002E0102000E01120FDF739
S1136C00B9FA5EE0354EA9491422304602F0B4FECA
S1136C106E480068C0F3804028B159207073652025
S1136C20B0737320F0730622894F394642F6BC30A4
S1136C3002F0CEFF3879954D7B783A789C490290E2
S1136C40F8780190B8780090284603F0F5F9002010
S1136C5028742146284602F054FD7F2020707E20AF
S1136C60E0732CE01D4E93491422304602F084FE5A
S1136C7056480068C0F3005028B15920707365204D
S1136C80B0737320F0730622714F394642F6C83050
S1136C9002F09EFF38797D4D7B783A7884490290E2
S1136CA0F8780190B8780090284603F0C5F90020E0
S1136CB028742146284602F024FD7F2020700020FD
S1136CC0A07603B0BDE8F04002F0F8B990E8010006
S1136CD0A4E80100B8E80100CCE80100641F00202A
S1136CE0A70800209807002077D5F270AAE8D03FC3
S1136CF0E0E80100F0E80100FCE8010030080020B1
S1136D0010E901001CE90100B8070020C0070020B9
S1136D1000007A4430E901003CE90100601F0020D2
S1136D200000204150E901005CE90100C820002076
S1136D305945530070E901004E4F000025730000CF
S1136D407CE9010090E90100A4E90100B8E901002F
S1136D50CCE90100E0E90100F4E9010008EA0100DE
S1136D601CEA010030EA010044EA010058EA01008B
S1136D70041F00206CEA010080EA010094EA01008B
S1136D80A8EA0100BCEA0100D0EA0100E4EA01003B
S1136D90F8EA0100FD200020F91D00200CEB0100A1
S1136DA020EB010034EB010048EB01005CEB010037
S1136DB070EB0100A608002084EB010090EB0100B9
S1136DC09CEB0100A8EB010058200020B420002017
S1136DD0B4EB0100C8EB0100C81F0020A81F00206D
S1136DE0DCEB010024200020E4EB01005808002023
S1136DF0F0EB01005C080020F8EB010060080020C3
S1136E00052100202820002000EC01005C20002047
S1136E1010EC0100680800201CEC01006C08002044
S1136E202CEC01008408002038EC01004CEC01003B
S1136E308C0800205CEC0100A808002068EC01002C
S1136E4070080020C0DB010078EC0100182000204D
S1136E506813002024E7010064080020602000205B
S1136E6080EC010088EC0100442000209CEC01002F
S1136E70A8EC0100B0EC0100E01F0020202000205D
S1136E80C4EC0100CCEC0100E0EC01008819002006
S1136E905C1C00200000C842F4EC0100FCEC010082
S1136EA0601C002010ED010024ED010044DD010010
S1136EB06CDD010058DD010070B588B0FDF720F9E4
S1136EC0DFF8084CE07D012842F0EC800020E075FA
S1136ED0607D032802F2E180DFE810F00400FD0089
S1136EE07002150F206A401ECE2802F2D680DFE819
S1136EF010F0EE0FE40FC701E000D410D410D4104A
S1136F00BC1017021A021D022002230226022902C3
S1136F102C02D410B00E2F0232023502380238028D
S1136F203B023E024102440247024A024D02500221
S1136F305302560259025C025F02D410EC00EF00C7
S1136F40D410D410D4104D03B81058105A105C103B
S1136F505E109810D4100E10F20FF40FF60FF80F05
S1136F60FA0FFC0FFE0F00100210FE0F061008109F
S1136F700A100C10101012101410161018101A10F9
S1136F801C101E102010221024102610ED01441095
S1136F90461048104A104C104E1050105210541005
S1136FA0E000E000E000E000E000E000E000E000DD
S1136FB0E000E000E000E000E000E000E000E000CD
S1136FC0E000E000E000E000E000E000E000E000BD
S1136FD0E000E000D410D410E900D41017051A051D
S1136FE0E000E000E000E000E000E000E000E0009D
S1136FF0E000D410D410D410D410D410D410D41071
S1137000D410D410D410D410D410D410D410D4105C
S1137010D410D410D410D410D410D410D410D4104C
S1137020D410D410D410D410D410D410D410D4103C
S1137030D410D410D410D410D410E000E000D41034
S11370406010D410CF00D4107410D410CF00D4101A
S1137050D410D410D410D410D410D410AB10AD105C
S1137060D410D4100E0EF601F901FC01FF01020246
S113707005020802D410C210F001F301D010D4109C
S1137080D410D410D410D410D410E60FE80FEA0FA3
S1137090207F7A2808DA401C2077C0B25C2841F0AF
S11370A0FC875D2001F0A0BC01F09D84202001F04C
S11370B09BBCA17DDFF8185A485D392881F2ED8721
S11370C0401CFAE0732001F0E7BF252001F0E4BF83
S11370D0262001F0E1BF206ACE2801F2DE87DFE836
S11370E010F0EC0ECF00B70FDC0FE400DC0F1F0133
S11370F0DC0F2201250128012B012E01310134016D
S1137100C60FDC0F37013A013D0140014301430141
S1137110460149014C014F015201550158015B01DF
S11371205E016101640167016A01DC0FF200B10FC5
S1137130DC0FC00FDC0FDC0F600F620F640F660FF3
S1137140A00F1601DC0FFA0EFC0EFE0E000F020F4C
S1137150040F060F0E0F0A0F0C0F0E0F100F120F55
S1137160140F180F1A0F1C0F1E0F200F220F240FBD
S1137170260F280F2A0F2C0F2E0FF5004C0F4E0F41
S1137180500F520F540F560F580F5A0F5C0F5E0FCB
S1137190DC0FE400E400E400E400E400E400E400C4
S11371A0E400E400E400E400E400E400E400E400BB
S11371B0E400E400E400E400E400E400E400E400AB
S11371C0E400E400E400DC0FEF00DC0F22042504FB
S11371D0DC0FE400E400E400E400E400E400E40084
S11371E0E400E400DC0FDC0FDC0FDC0FDC0FDC0F51
S11371F0DC0FDC0FDC0FDC0FDC0FDC0FDC0FDC0F33
S1137200DC0FDC0FDC0FDC0FDC0FDC0FDC0FDC0F22
S1137210DC0FDC0FDC0FDC0FDC0FDC0FDC0FDC0F12
S1137220DC0FDC0FDC0FDC0FDC0FDC0FE400E40010
S11372301901DC0FDC0FD2001C01DC0FDC0FD200C3
S1137240DC0FDC0FDC0FDC0FDC0FDC0FB50FC80F1D
S1137250DC0FDC0FFE000101040107010A010D012E
S113726010011301DC0FF800FB00D80FDA0FDC0F5C
S1137270DC0FDC0FDC0FDC0FDC0FF00EF20EF40E73
S1137280022001F009BF207F2128C1F2AC837F28AE
S113729008BF7A2001F0A883401E2077C0B25C2882
S11372A041F0FB865B2001F09FBBA17DDFF82058F5
S11372B0485D3128C1F2F186401E485501F0EDBE0B
S11372C0742001F0E9BE262001F0E6BE4D2001F055
S11372D0E3BEC32001F0E0BEC42001F0DDBEBA204D
S11372E001F0DABEBB2001F0D7BEBC2001F0D4BE51
S11372F0BD2001F0D1BEBE2001F0CEBEBF2001F002
S1137300CBBEC02001F0C8BEC12001F0C5BE3120F3
S113731001F0C2BEA82001F0BFBEAC2001F0BCBE8B
S1137320082001F0B9BE092001F0B6BE0A2001F020
S1137330B3BE0B2001F0B0BE0C2001F0ADBE0D2099
S113734001F0AABE0E2001F0A7BE0F2001F0A4BEDA
S1137350122001F0A1BE132001F09EBE142001F002
S11373609BBE152001F098BE172001F095BE182091
S113737001F092BE192001F08FBE1A2001F08CBEDC
S11373801B2001F089BE1C2001F086BE1D2001F0E7
S113739083BE1E2001F080BE1F2001F07DBE202090
S11373A001F07ABE212001F077BE222001F074BEE4
S11373B0232001F071BE242001F06EBE206ACF2884
S11373C001F26B86DFE810F0D0007B0DD500E200FF
S11373D0E500690E0A0C420C0A0C690E690E690E6E
S11373E0690E690E690E690E450C470C4A0C4D0C6A
S11373F05F0C620C650C680C690E730C760C790CCE
S11374007C0C7F0C820C850C880C690E690E690E4D
S1137410690E690EA30D400EEB09690E690EEE09A3
S1137420F209340AF50D090ECC0ADE0A73010101D2
S113743009011101190121012901690E690E690E61
S1137440690E31013901410149017B019701B30101
S1137450BB01C301CB01ED0116023F026802910298
S113746099029C02A502B502DE0207033003590308
S113747061036903710379038603B403E103100410
S11374803F046C049A04690E690E690E690EC804FF
S1137490F804260556058805B905E90515064206CA
S11374A07006A006CF06FF062F075E078D07AE07FE
S11374B0C507DC07F3070A0840086F089E08CC08D4
S11374C00B0933095B098509AD09690E690E690E5B
S11374D0690E690E690E690E690E690E690E690EF0
S11374E0690E690E690E690E690E690E690E690EE0
S11374F0690E690E690E690E690E690E690E690ED0
S1137500690E690E690E690E690E690E690E690EBF
S1137510690E200B550B900A920A690EE00AAE0A16
S1137520B00A690EE00A690E690E690E690E690EE9
S1137530690EA10BA30B570E690EA50BB00BBB0B69
S1137540C60BD10BDC0BE70BF20BFD0B8D0C8F0C78
S1137550950C9B0C9D0C690E690E690E690E690EE3
S1137560F500F800FB00FE00002002F035FF01F0FA
S113757094BD0420206205220020A075DFF88C1E33
S1137580DFF84C0502F0F8F901F087BD282001F07E
S113759083BDA17D0329C1F26F82DFF8741EDFF879
S11375A0300502F09FFF002814BF0520262001F0BB
S11375B073BDD02001F070BDD12001F06DBDD2208B
S11375C001F06ABDD32001F067BDDFF8480E006802
S11375D001F076FF592001F05FBDDFF83C0E006832
S11375E001F06EFF5A2001F057BDDFF8300E00683D
S11375F001F066FF5B2001F04FBDDFF8240E006848
S113760001F05EFF5C2001F047BDDFF8180E006852
S113761001F056FF5D2001F03FBDDFF80C0E00685D
S113762001F04EFF5E2001F037BDDFF8000E006868
S113763001F046FF632001F02FBDDFF8F40D006870
S113764001F03EFF642001F027BDDFF8E80D00687B
S113765001F036FF652001F01FBDDFF8DC0DDFF817
S1137660705400680A21B0FBF1F101EB8103A0EB37
S113767043023032EA702E22AA700A22B1FBF2F2DF
S113768002EB8203A1EB4301303169706421B0FB4A
S1137690F1F00A21B0FBF1F101EB8102A0EB420011
S11376A0303028700020A075662001F0F5BCDFF8AA
S11376B08C0D006801F004FF582001F0EDBCDFF8E8
S11376C0800DDFF80C5400680A21B0FBF1F101EBE6
S11376D0810230316970A0EB420264213032B0FB88
S11376E0F1F0EA70303028702E22AA700020A075C4
S11376F0672001F0D1BCDFF84C0DDFF8D4530068EB
S11377000A21B0FBF1F101EB810230316970A0EB89
S1137710420264213032B0FBF1F0EA70303028705C
S11377202E22AA700020A075682001F0B5BCDFF8F5
S1137730880E006801F0C4FE692001F0ADBCDFF8DA
S11377407C0E006801F0BCFE6A2001F0A5BCDFF8E5
S1137750700E006801F0B4FE6B2001F09DBCDFF8F0
S1137760640EDB4D00680A21B0FBF1F101EB8103EB
S1137770A0EB43023032EA700A22B1FBF2F202EBD0
S11377808203A1EB43013031A9702E216970642179
S1137790B0FBF1F0303028700020A0756C2001F0AF
S11377A07BBCDFF8240ECA4D00680A21B0FBF1F15E
S11377B001EB8103A0EB43023032EA700A22B1FBF1
S11377C0F2F202EB8203A1EB43013031A9702E21C6
S11377D069706421B0FBF1F00A21B0FBF1F101EB17
S11377E08102A0EB4200303028700020A0756D208B
S11377F001F052BCDFF8D40DB54D00680A21B0FB8E
S1137800F1F101EB8103A0EB43023032EA702E2246
S1137810AA700A22B1FBF2F202EB8203A1EB43014C
S1137820303169706421B0FBF1F00A21B0FBF1F151
S113783001EB8102A0EB4200303028700020A075DB
S11378406E2001F029BCDFF8880DA14D00680A21E3
S1137850B0FBF1F101EB8103A0EB43023032EA709B
S11378602E22AA700A22B1FBF2F202EB8203A1EBF0
S11378704301303169706421B0FBF1F00A21B0FB9F
S1137880F1F101EB8102A0EB4200303028700020BE
S1137890A0756F2001F000BCDFF8380D8C4D006836
S11378A00A21B0FBF1F101EB8103A0EB430230327A
S11378B0EA700A22B1FBF2F202EB8203A1EB43016C
S11378C03031A9702E2169706421B0FBF1F00A21D6
S11378D0B0FBF1F101EB8102A0EB420030302870E3
S11378E00020A075702001F0D7BBDFF8940E8068EB
S11378F001F0E6FD712001F0CFBB722001F0CCBB9A
S1137900DFF8800E0078002814BF7420732001F083
S1137910C3BBDFF8740E0078012804D0022805D018
S1137920752001F0B9BB762001F0B6BB772001F0D9
S1137930B3BBDFF8580E664D00680A21B0FBF1F1C5
S113794001EB8103A0EB43023032EA700A22B1FB5F
S1137950F2F202EB8203A1EB43013031A9702E2134
S113796069706421B0FBF1F00A21B0FBF1F101EB85
S11379708102A0EB4200303028700020A0757820EE
S113798001F08ABBDFF8080E514D00680A21B0FBF4
S1137990F1F101EB8103A0EB43023032EA700A22D9
S11379A0B1FBF2F202EB8203A1EB43013031A97087
S11379B02E2169706421B0FBF1F00A21B0FBF1F1D2
S11379C001EB8102A0EB4200303028700020A0754A
S11379D0792001F061BBDFF8BC0D3D4D00680A2140
S11379E0B0FBF1F101EB8103A0EB43023032EA700A
S11379F00A22B1FBF2F202EB8203A1EB4301303124
S1137A00A9702E2169706421B0FBF1F00A21B0FB4A
S1137A10F1F101EB8102A0EB42003030287000202C
S1137A20A0757A2001F038BBDFF8A40E284D006859
S1137A300A21B0FBF1F101EB8103A0EB43023032E8
S1137A40EA700A22B1FBF2F202EB8203A1EB4301DA
S1137A503031A9702E2169706421B0FBF1F00A2144
S1137A60B0FBF1F101EB8102A0EB42003030287051
S1137A700020A0757B2001F00FBBDFF8580E0068D2
S1137A8001F01EFD7C2001F007BBDFF84C0E0068FE
S1137A9001F016FD7D2001F0FFBADFF8400E00680A
S1137AA001F00EFD7E2001F0F7BADFF8340E006815
S1137AB001F006FD7F2001F0EFBADFF8280E006820
S1137AC001F0FEFC802001F0E7BA00BFE01E0020B8
S1137AD0041F0020A17D0329C0F2CE87DFF8945E45
S1137AE0E878A9786B782A78DFF88C6E02EB820547
S1137AF003EB450202EB820301EB430101EB81023C
S1137B0000EB4200DFF8741E081841F28931884204
S1137B1030600AD2DFF8241908600222DFF8601E00
S1137B20086040F2191000F01FBE812001F0B4BAC1
S1137B30A17D0329C0F2A087DFF8385EE878A97830
S1137B406B782A78DFF8306E02EB820503EB45028E
S1137B5002EB820301EB430101EB810200EB4200E3
S1137B60DFF8181E0818811E1D2930600AD2DFF8BC
S1137B70A41808600122DFF8081E08604FF4817021
S1137B8000F0F2BD822001F087BAA17D0329C0F282
S1137B907387DFF8E05DE878A9786B782A78DFF8F6
S1137BA0D86D02EB820503EB450202EB820301EB85
S1137BB0430101EB810200EB4200DFF8C01D08180D
S1137BC0A0F10A01B1F5F57F30600AD8DFF8481852
S1137BD008600222DFF8A81D086040F2031000F0DC
S1137BE0C3BD832001F058BAA17D0329C0F24487A4
S1137BF0DFF8805DE878A9786B782A78DFF8786D0B
S1137C0002EB820503EB450202EB820301EB430125
S1137C1001EB810200EB4200DFF8601D0818A0F1BF
S1137C200A01B1F5F57F30600AD8DFF8F017086073
S1137C300222DFF84C1D086040F2051000F094BDEC
S1137C40842001F029BAA17D0329C0F21587DFF849
S1137C50245DE878A9786B782A78DFF81C6D02EB4C
S1137C60820503EB450202EB820301EB430101EBC6
S1137C70810200EB4200DFF8041D0818B0F5FA7F1A
S1137C8030600AD8DFF8981708600222DFF8F01C89
S1137C90086040F2071000F067BD852001F0FCB9D0
S1137CA0A17D0329C0F2E886DFF8C85CE878A978EA
S1137CB06B782A78DFF8C06C02EB820503EB45028F
S1137CC002EB820301EB430101EB810200EB420072
S1137CD0DFF8A81C081830600DD0B0F5FA6F0AD888
S1137CE0DFF8401708600222DFF8941C086040F2B5
S1137CF0091000F039BD862001F0CEB9A17D032919
S1137D00C0F2BA86DFF86C5CE878A9786B782A78D8
S1137D10DFF8646C02EB820503EB450202EB82039D
S1137D2001EB430101EB810200EB4200DFF84C1C44
S1137D30081830600DD0B0F5FA6F0AD8DFF8E816ED
S1137D4008600222DFF8381C086040F20B1000F0D3
S1137D500BBD872001F0A0B9A17D0329C0F28C8658
S1137D60DFF8105CE878A9786B782A78DFF8086C7B
S1137D7002EB820503EB450202EB820301EB4301B4
S1137D8001EB810200EB4200DFF8F01B40F6DF520A
S1137D900818A0F13201914230600AD2DFF88C1643
S1137DA008600222DFF8D81B086040F2131000F0CC
S1137DB0DBBC8C2001F070B9A17D0329C0F25C8684
S1137DC0DFF8B05BE878A9786B782A78DFF8A86BDD
S1137DD002EB820503EB450202EB820301EB430154
S1137DE001EB810200EB4200DFF8901B0818A0F1C0
S1137DF00A01472930600AD2DFF8341608600122EC
S1137E00DFF87C1B086040F2151000F0ADBC8D203B
S1137E1001F042B9A17D0329C0F22E86DFF8545B3C
S1137E20E878A9786B782A78DFF84C6B02EB820546
S1137E3003EB450202EB820301EB430101EB8102F8
S1137E4000EB4200DFF8341B40F6F3520818A0F1AF
S1137E501E01914230600AD2DFF8D8150860022270
S1137E60DFF81C1B08604FF48B7000F07DBC8E2083
S1137E7001F012B9A17D032908DA481CA075C0B22B
S1137E80022841F00A81032000F0F7BDDFF8E45A2C
S1137E90DFF8E46A2A786B78A2F1300000EB800105
S1137EA0A3F1300000EB4102E878303802EB8201A4
S1137EB000EB4100B0F5617F30600AD8DFF8781537
S1137EC008600122DFF8B81A08604FF48C7000F0E3
S1137ED04BBC8F2001F0E0B8A17D032908DA481CCF
S1137EE0A075C0B2022841F0D880032000F0C5BDBF
S1137EF0DFF8805ADFF8806A2A786B78A2F13000C4
S1137F0000EB8001A3F1300000EB4102E878303847
S1137F1002EB820100EB4100652830600AD2DFF8F1
S1137F20201508600122DFF8581A086040F21B107F
S1137F3000F01ABC902001F0AFB8A17D032908DA43
S1137F40481CA075C0B2022841F0A780032000F0AD
S1137F5094BDDFF8205ADFF8206A2A786B78A2F102
S1137F60300000EB8001A3F1300000EB4102E8781F
S1137F70303802EB820100EB41006528306009D201
S1137F80DFF8C01408600122DFF8F41908604FF428
S1137F908E70E9E3912001F07FB8A17D0329C0F23E
S1137FA06B85DFF8D059E878A9786B782A78DFF800
S1137FB0C86902EB820503EB450202EB820301EB85
S1137FC0430101EB810200EB4200DFF8B01908180D
S1137FD0B0F5FA6F306009D8DFF8DC1508600222CA
S1137FE0DFF89C19086040F21D10BDE3922001F0F7
S1137FF053B8A17D0329C0F23F85DFF87859E878AA
S1138000A9786B782A78DFF8706902EB820503EBB4
S1138010450202EB820301EB430101EB810200EB19
S11380204200DFF858190818A0F11401292930601A
S113803009D2DFF8881508600122DFF844190860C6
S113804040F21F1090E3932001F026B8A17D03298C
S1138050C0F21285DFF81C59E878A9786B782A7881
S1138060DFF8146902EB820503EB450202EB82039D
S113807001EB430101EB810200EB4200DFF8FC1845
S113808040F69C720818411F9142306009D2DFF813
S1138090301508600222DFF8E81808604FF4907089
S11380A062E3942000F0F8BFA17D032908DA481C9C
S11380B0A075C0B2012840F0F087022000F0DDBCBA
S11380C0DFF8B058DFF8B0682A78A978E878303A51
S11380D0303902EB820301EB4301303801EB8102BA
S11380E000EB4200A0F11901B029306009D2DFF899
S11380F0D41408600222DFF88818086040F22310C4
S113810032E3952000F0C8BFA17D032908DA481C9A
S1138110A075C0B2012840F0C087022000F0ADBCB9
S1138120DFF85058DFF850682A78A978E878303AB0
S1138130303902EB820301EB4301303801EB810259
S113814000EB4200B0F57A7F306009D2DFF8781492
S113815008600222DFF82818086040F2251003E3C3
S1138160962000F099BFA17D032908DA481CA07568
S1138170C0B2022840F09187032000F07EBCDFF8F3
S1138180F457DFF8F4672A786B78A2F1300000EB3B
S11381908001A3F1300000EB4102E878303802EBB3
S11381A0820100EB41007928306009D2DFF81C1409
S11381B008600222DFF8C817086040F22B10D3E2EF
S11381C0972000F069BFA17D032908DA481CA07537
S11381D0C0B2022840F06187032000F04EBCDFF8F3
S11381E09457DFF894672A786B78A2F1300000EB9B
S11381F08001A3F1300000EB4102E878303802EB53
S1138200820100EB41007928306009D2DFF8C01305
S113821008600222DFF86817086040F22D10A3E21C
S1138220982000F039BFA17D032908DA481CA07505
S1138230C0B2012840F03187022000F01EBCDFF8F4
S11382403457DFF834672A78A978E878303A303937
S113825002EB820301EB4301303801EB810200EBB6
S11382604200A0F132019729306008D2D949086050
S11382700222DFF80C17086040F2311074E29920F2
S113828000F00ABFA17D0329C0F2F683DFF8E456AB
S1138290E878A9786B782A78DFF8DC6602EB820547
S11382A003EB450202EB820301EB430101EB810284
S11382B000EB4200DFF8C41640F2C7720818A0F1C0
S11382C00A019142306009D2DFF8B41488600222B6
S11382D0DFF8AC16086040F2371045E29A2000F04F
S11382E0DBBE1422DFF8C01DDFF8C00D01F044FB33
S11382F01422DFF8BC1D204601F03EFB00F0DEFE38
S113830002F012F91422DFF8AC1D204601F034FB10
S113831000F0D4FE04F0C6FE022005F0A8F94C20BB
S113832000F0BABEDFF85C14002008700122DFF808
S11383305016087040F2391001F002FC1422DFF8E4
S1138340781D204601F018FB00F0B8FE012000F073
S113835065BEDFF83014012008700122DFF8201612
S1138360087040F2391001F0EBFB1422DFF8481DCD
S1138370204601F001FB00F0A1FE012000F04EBEFA
S1138380DFF80414002008700122DFF8F4150870E7
S11383904FF49F7001F0D4FB1422DFF81C1D20461B
S11383A001F0EAFA00F08AFE012000F037BEDFF89F
S11383B0D813012008700122DFF8C41508704FF4A7
S11383C09F7001F0BDFB1422DFF8EC1C204601F085
S11383D0D3FA00F073FE012000F020BEDFF8A813EA
S11383E0022008700122DFF8981508704FF49F707E
S11383F001F0A6FB1422DFF8C01C204601F0BCFAF1
S113840000F05CFE012000F009BE00BF38ED010061
S1138410B81D0020580800205C08002060080020D7
S11384205C200020680800206C08002084080020DC
S1138430880800208C080020780800207C08002090
S1138440480800204C080020A17D032907DA481CB5
S1138450A075C0B2012840F0208602200DE3DFF8A9
S11384601455DFF814652A78A978E878303A303959
S113847002EB820301EB4301303801EB810200EB94
S11384804200A0F13201B1F5077F306008D8BF493E
S113849008600222DFF8E81408604FF4A07063E17A
S11384A09B2000F0F9BDA17D032907DA481CA075C3
S11384B0C0B2012840F0F1850220DEE2DFF8B454B6
S11384C0DFF8B4642A78A978E878303A303902EBD6
S11384D0820301EB4301303801EB810200EB4200DF
S11384E0A0F13201B1F5077F306008D8A8490860CF
S11384F00222DFF88C1408604FF4A17034E19C2050
S113850000F0CABDA17D032907DA481CA075C0B2DA
S1138510012840F0C2850220AFE2DFF85854DFF8AA
S113852058642A78A978E878303A303902EB820323
S113853001EB4301303801EB810240F24F2100EBA3
S113854042008842306008D2924908600222DFF873
S1138550301408604FF4A27006E19D2000F09CBD29
S1138560A17D032907DA481CA075C0B2012840F098
S11385709485022081E2DFF8FC53DFF8FC632A785B
S1138580A978E878303A303902EB820301EB4301F1
S1138590303801EB810200EB4200A0F13201B1F569
S11385A0077F306018D8CA4908600222DFF8D01368
S11385B008604FF4A370D7E064080020540800203A
S11385C080080020900800209408002090200020BB
S11385D094200020982000209E2000F05DBDA17D05
S11385E00329C0F24982E34DE878A9786B782A78A8
S11385F0E14E02EB820503EB450202EB820301EB41
S1138600430101EB810200EB4200DC49081842F20D
S113861010718842306007D2AE4908600222D849FE
S113862008604FF4A4709FE09F2000F035BDA17D49
S11386300329C0F22182CF4DE878A9786B782A7893
S1138640CD4E02EB820503EB450202EB820301EB04
S1138650430101EB810200EB4200C849081842F2D1
S113866010718842306007D29B4908600222C449D5
S113867008604FF4A57077E0A02000F00DBDA17D47
S11386800329C0F2F981BB4DE878A9786B782A7880
S1138690B94E02EB820503EB450202EB820301EBC8
S11386A0430101EB810200EB4200B44940F2B732CE
S11386B00818A0F132019142306007D2874908605E
S11386C00222AF49086040F24D104DE0A12000F0B5
S11386D0E3BCA17D0329C0F2CF81A64DE878A97837
S11386E06B782A78A44E02EB820503EB450202EB79
S11386F0820301EB430101EB810200EB42009F493D
S1138700081840F638118842306007D2744908606E
S113871002229B49086040F24F1025E0A22000F09D
S1138720BBBCA17D0329C0F2A781924DE878A9784A
S11387306B782A78904E02EB820503EB450202EB3C
S1138740820301EB430101EB810200EB42008B4900
S11387500818411F1A2930601ED26249086001229C
S11387608749086040F2511001F0EAF91422DFF859
S11387700C1C204601F000F900F0A0FC00F08DBCB8
S113878098070020A7080020122100207420002050
S1138790782000207C200020A32000F07DBC29202C
S11387A000F07ABC01F05CFE00F077BC84B0DFF826
S11387B0D01B68462C2201F0DFF80FBC05F01EF830
S11387C0DFF89C2CDFF8BC1B12686A4D1018086097
S11387D0084605F0FDF8DFF8B01B08600A2241697D
S11387E0643941610169491C0161816891FBF2F1BD
S11387F030312970816891FBF2F202EB8203A1EB24
S11388004301303169700A22416891FBF2F1303141
S1138810A9700A21406890FBF1F101EB8102A0EB01
S113882042003030E8700020A075A52000F034BC70
S113883084B0DFF84C1B68462C2201F09DF80FBC75
S113884004F0DCFFDFF8182CDFF8381B1268494D00
S113885010180860084605F0BBF8DFF82C1B086008
S113886002694169521C6439026141610A2291FB27
S1138870F2F130312970416991FBF2F202EB82038B
S1138880A1EB4301303169700A22016991FBF2F1D5
S11388903031A970016991FBF2F202EB8203A1EB82
S11388A043013031E9700A22C16891FBF2F13031A1
S11388B029710A21C06890FBF1F101EB8102A0EB60
S11388C04200303068710020A075A620E4E300BFA8
S11388D080200020700800207408002084200020DC
S11388E0882000208C200020A920D5E3DFF8C05B7D
S11388F0DFF8B8071422294601F03EF8142229466D
S1138900204601F039F8D0A0DFF8A81B02780A70DD
S11389107F2020770120A076642060760020A07557
S1138920AA20B9E3AD20B7E3DFF8845BDFF87C0766
S11389301422294601F020F814222946204601F089
S11389401BF8C1A0DFF86C1B02780A707F20207727
S11389500120A076642060760020A075AE209BE301
S1138960DFF8581BCF200870AF202062002060770A
S113897093E300BF041F002020200020B02FFFFF3E
S1138980C81F0020B22087E3207FA17D7F282DD13E
S1138990012919D1DFF8185BDFF8100714222946E2
S11389A000F0EAFF14222946204600F0E5FFA6A0C5
S11389B0DFF8001B02780A707F2020770120A07660
S11389C064206076002058E0002900F066832020AF
S11389D02077FBF7A5FCA07DDFF8482B401EA0758F
S11389E00021C0B281547F20207756E3DFF8345B46
S11389F048557F202029207780F24F83481CA0759A
S1138A000021C0B2415548E3A17D032934DBDFF8DE
S1138A10145BDFF8146B2A786B78A2F1300000EB5A
S1138A208001A3F1300000EB4102182A32601ED20B
S1138A30DFF8F83A1A60A978E8783039303801EB71
S1138A40810200EB42013C2931600ED2DFF8E00ADA
S1138A501A688161C261002141610020DFF8001AB7
S1138A6008600120DFF8CC1A49E0B32014E3B320F6
S1138A7012E3A17D062902DA481CA0750DE3DFF894
S1138A80A45ADFF8A46A2A786B78A2F1300000EBCC
S1138A908001A3F1300000EB4102112A326032D38D
S1138AA0A87800EB8001E87800EB4100A0F1100108
S1138AB0287900EB8003687900EB43001038D2B2C8
S1138AC0C9B2C0B200F082FD01281AD1DFF8600AF1
S1138AD031688162A97801EB8102E97801EB4201F6
S1138AE0A1F504714162297901EB8102697901EBF5
S1138AF04201A1F5047101620120DFF83C1A0870FB
S1138B00CBE2B420C8E2B420C6E2B820C4E2B92063
S1138B10C2E2DFF8280A0188CA0758BF41F0010100
S1138B205AD54FF6FE7256E0DFF8100A01888A071C
S1138B3058BF41F002014FD54FF6FD724BE0DFF80C
S1138B40FC0901884A0758BF41F0040144D54FF697
S1138B50FB7240E0DFF8E40901880A0758BF41F0DE
S1138B60080139D54FF6F77235E0DFF8D0090188EE
S1138B70CA0658BF41F010012ED54FF6EF722AE015
S1138B80DFF8B80901888A0658BF41F0200123D5CF
S1138B904FF6DF721FE0DFF8A40901884A0658BFC8
S1138BA041F0400118D54FF6BF7214E0DFF88C098C
S1138BB001880A0658BF41F080010DD54FF67F7237
S1138BC009E0DFF878090188CA0558BF41F48071CB
S1138BD002D54FF6FF62114001805EE2DFF86009C2
S1138BE00178012940F05982062101700020DFF844
