S0390000736B2D666D332D3438706D632D757362737469636B5F7573625F6465766963655F7669727475616C5F636F6D5F706F72742E73726563CC
S113000080E3FF1F29100000451000004910000084
S11300104D100000511000005510000000000000B9
S11300200000000000000000000000005910000063
S11300305D10000000000000611000006510000069
S1130040691000006D1000007110000075100000B0
S1130050791000007D100000811000008510000060
S1130060891000008D10000091100000DD100000C8
S1130070DD1000009510000099100000DD10000054
S1130080DD1000009D100000A1100000DD10000034
S1130090DD100000DD100000DD100000A5100000E0
S11300A0A9100000AD100000B1100000DD10000028
S11300B0B5100000B9100000BD100000C110000010
S11300C0DD100000DD100000C5100000C9100000A4
S11300D0DD100000DD100000CD100000D110000084
S11300E0D5100000D9100000DD100000DD10000064
S11300F0DD100000DD100000DD100000DD10000048
S1130100DFF8D004016821F480410160DFF8C814ED
S11301100A6842F480420A60DFF8C0140A6822F4D4
S113012080420A60026822F480520260DFF8A02450
S1130130136843F4805313600B6843F480530B60DB
S1130140036823F400530360136843F400531360FB
S11301500B6843F400530B60036823F4806303606B
S1130160136843F4806313600B6843F480630B608B
S1130170036823F400630360136843F400631360AB
S11301800B6843F400630B60036823F4007303609B
S1130190106840F400701060086840F40070086053
S11301A0106840F400601060106840F40070106043
S11301B070472DE9F041044600250826DFF8208425
S11301C0DFF80C74386820F4805038603868C00454
S11301D0FCD4200638684CBF40F4005020F4005092
S11301E0386064001420C046C046D8F800006D0092
S11301F0400448BF45F00105386840F48050386039
S11302003868C004FCD54620C046C046761ED9D105
S1130210E8B2BDE8F0812DE9F04104464FF40470E2
S11302200D46B4FBF0F716465321384600F06AF940
S113023030194FF40471B0FBF1F8474503D0552150
S1130240404600F05FF933462A462146012000F07B
S113025074F83946832000F037F9474504D0414605
S1130260BDE8F04186202FE1BDE8F081F8B5D84F14
S11302700446386820F4806038600D461646322003
S1130280C046C0462046FFF794FF36B1FF20FFF773
S113029090FF761E05F8010BF8D1386840F48060B1
S11302A038604FF4FA70BDE8F24000F09BB92DE9D4
S11302B0F04182B004468846164601226946D7209A
S11302C0FFF7D4FF9DF800000006F6D5C04F38684C
S11302D020F4806038603220C046C0460B20FFF70F
S11302E068FF4FF40470B4FBF0F5A804000EFFF7A8
S11302F060FF05EB4510A4EB0010000A40EA8500FE
S1130300C0B2FFF756FFA4EB0510C0B2FFF751FFD0
S1130310FF20FFF74EFF36B1FF20FFF74AFF761E9E
S113032008F8010BF8D1386840F4806038604FF465
S1130330FA70C046C046BDE8F3812DE9F14F9046FE
S113034000284FF40470B1FBF0F000EB4012994622
S11303500CBFD4258425A1EB0216DFF884A29C4CA3
S1130360B9F1000F00F09780206820F480602060CD
S11303703220C046C046D720FFF71BFFFF20FFF7FF
S113038018FF0746206840F4806020604FF4FA703C
S1130390C046C0463806E7D5206820F48060206057
S11303A03220C046C0462846FFF703FFFF20FFF770
S11303B000FF3004000EFFF7FCFEF0B2FFF7F9FE79
S11303C0D42D12BFD62DFF20FFF7F3FE009868BB93
S11303D0FF2500274FF0080B206820F48050206090
S11303E02068C004FCD4280620684CBF40F40050A8
S11303F020F4005020606D001420C046C046DAF896
S113040000007F00400448BF47F00107206840F423
S1130410805020602068C004FCD54620C046C046F9
S1130420BBF1010BD8D188F8007023E098F8005094
S11304300827206820F4805020602068C004FCD481
S1130440280620684CBF40F4005020F4005020607F
S11304506D001420C046C046DAF80000206840F45D
S1130460805020602068C004FCD54620C046C046A9
S11304707F1EDED1761C4FF40470B6FBF0F000EB67
S11304804011B6EB0110A9F1010908F101080CD0E3
S1130490B9F1000F9AD1206840F4806020604FF4D5
S11304A0FA70BDE8F24F00F09DB8206840F4806017
S11304B0206000264FF4FA70C046C0460098002819
S11304C014BF8725D6254BE770B582B004460D4688
S11304D001226946D720FFF7C9FE9DF800000006F7
S11304E0F6D53B4E306820F4806030603220C04640
S11304F0C0462046FFF75DFEA804000EFFF759FE34
S1130500A8001CE070B582B004460D46012269467D
S1130510D720FFF7ABFE9DF800000006F6D52C4E61
S1130520306820F4806030603220C046C0462846DF
S1130530FFF73FFEA004000EFFF73BFEA000C0B291
S1130540FFF737FEFF20FFF734FE306840F4806089
S113055030604FF4FA70C046C04673BD38B51C4CC9
S1130560206820F4806020604FF6DC752846C04681
S1130570C0462846C046C0462846C046C04628460F
S1130580C046C0462846C046C0462846C046C04667
S11305909F20FFF70EFEFF20FFF70BFE1F280AD156
S11305A0FF20FFF706FE262805D1FF20FFF701FEF6
S11305B008B9002500E0FF25206840F48060206031
S11305C04FF4FA70C046C046284632BD0000000011
S11305D01034034010300340103103401032034004
S11305E010330340704730B142F6310100BF491E59
S11305F0FCD1401EF8D1704770B58F4D06002868B5
S113060040F040000C4628600FD02046FFF7EBFF77
S1130610286820F0400028602046FFF7E4FF28689F
S113062040F04000761E2860EFD170BD30B585B033
S113063000F008F9824CE06820F40070E060C82102
S1130640E06820F48060E060E06820F40060E0602E
S1130650E06820F48050E060E06820F40050E0603E
S11306606068400840006060206820F0020020605C
S1130670206820F004002060606820F008006060BA
S1130680206940F0800020610120FFF7B5FF4FF49E
S11306907A70FFF7A8FFFFF761FF48B14FF480407D
S11306A0016881F30888654A106040688047FEE766
S11306B001226946FFF7FBFD9DF8000088B1C821BF
S11306C00220FFF799FF4FF47A70FFF78CFF4FF485
S11306D08040016881F30888584A10604068804768
S11306E0FEE7C8210320FFF787FF40F6B835284608
S11306F0FFF779FF00F0F8F878B9C8210420FFF774
S11307007BFF2846FFF76FFF00F0FCF8C8210520A7
S1130710FFF772FF2846FFF766FF00F0E5F80128AF
S11307207AD1C8210620FFF767FF2846FFF75BFF51
S1130730FFF714FF48B14FF48040016881F3088843
S11307403E4A106040688047FEE7C8210720FFF753
S113075053FF2846FFF747FF012269460020FFF7B1
S1130760A6FD9DF80000002846D1C8210820FFF707
S113077043FF2846FFF737FF00F0DCF878B9C820BC
S1130780FFF731FF206920F0400020614FF4FA6048
S1130790FFF729FF206940F040002061EFE7FF20C8
S11307A08DF80000012269460020FFF734FD20691E
S11307B040F0400020610A254FF47A70FFF713FFE0
S11307C0206920F0400020614FF47A70FFF70BFF9E
S11307D0206940F040006D1E2061EDD141F2883067
S11307E0FFF701FF4FF48040016881F30888134A42
S11307F0106040688047FEE7C820FFF7F4FE2069D8
S113080020F04000206141F28830FFF7ECFE2069BF
S113081040F040002061EFE74FF47A710520FFF7C4
S1130820EBFE4FF48040016881F30888034A1060AE
S113083040688047FEE700001034034008ED00E004
S11308400034034080B500F017F90948016821F02D
S1130850C00101600748016821F0C0010160064839
S1130860016841F0C0010160BDE80140FFF748BCE8
S1130870103003401034034010320340DFF800F01E
S113088005E0FF1FDFF800F0C1E0FF1F30B142F6C2
S1130890310100BF491EFCD1401EF8D17047704A97
S11308A0136843F040031360E8B141B10B4642F6CC
S11308B0310C00BFBCF1010CFBD15B1EF7D11368F6
S11308C023F04003136041B10B4642F6310C00BFE4
S11308D0BCF1010CFBD15B1EF7D1136843F040035C
S11308E0401E1360E1D170474FF4804050F8041B60
S11308F011F1010F01D000207047B0F5003FF5D38E
S11309000120704780B572B600214FF48040FFF794
S1130910B5FF002144F20400FFF7B0FF00214FF4BB
S11309200040FFF7ABFF002148F20400FFF7A6FFE9
S113093062B601BD2DE9F04F83B000208DF80800A8
S11309406426DFF82081DFF820B1484F444C20684A
S113095080F0400020600A20FFF745FE02A93846D7
S113096000F04CF9814619F1010F0FD19DF80800F0
S113097028BBB046206880F0800020606420FFF728
S113098032FEB8F10108F5D1012071E019F1060F2A
S113099004BF9DF80800002811D1206840F04000F1
S11309A0206040F6B8342046FFF770FFC8210920C4
S11309B0FFF775FF2046FFF769FF002058E00A2083
S11309C000900098704300900098411E009140B13F
S11309D00A200190019800281CBF0198401EF8D1FC
S11309E0F2E772B60025A9F5804A04E0E95BFFF757
S11309F049FFAD1CEDB29DF80800854208DADA45DE
S1130A00F7D205EB090040452CBF01220022EDE797
S1130A100A2000900098704300900098411E0091B5
S1130A2040B10A200190019800281CBF0198401E83
S1130A30F8D1F2E762B60A20009000987043009063
S1130A400098411E002800913FF481AF0A2001E084
S1130A500198401E019001980028F9D1F0E70000A8
S1130A601034034000000C2005D00F0080E3FF1F6A
S1130A7003B0BDE8F08F000010B44448444A016854
S1130A80444C1140016044490B681A400A60434ACF
S1130A90136843F41C4343F01F03136000232360D3
S1130AA044683F4B1C4044604C6823404B6040F218
S1130AB0BF34536823435360836823F00E03836079
S1130AC08B6823F00E038B60936843F00E039360EE
S1130AD0C468344B1C40C460CC682340CB60D368EA
S1130AE043F47E4343F00803D3602F4B1C6804F0A7
S1130AF0FE041C602D4B04691C4004610C692340F6
S1130B000B61136943F4FC4343F0C003136143696D
S1130B109B089B0043614B699B089B004B61536995
S1130B2043F0030353618369DB08DB0083618B6952
S1130B30DB08DB008B61936943F007039361036A6D
S1130B409B089B0003620B6A9B089B000B62116A63
S1130B5041F003011162C168C908C900C1601449A8
S1130B600B6843F007030B60D368DB08DB00D3603A
S1130B70436923F004034361886840F004008860FB
S1130B80506920F00400506110BC704700300340ED
S1130B90E063FFFF003503400034034000320340AC
S1130BA040FCFFFFF701FFFF803503403F81FFFF5B
S1130BB00C31034002780021A2F1300CBCF10A0F81
S1130BC03CBF1101C9B2A2F14103062B03D2373A4B
S1130BD001EB0211C9B24078A0F130030A2B02D212
S1130BE041183039C9B2A0F14102062A03D2401893
S1130BF0A0F13701C9B20846704700002DE9F04D55
S1130C000D4682B00026804600270024B346B24633
S1130C102E7006E06846FFF7CDFFC01B841E2C70C3
S1130C2002260020ADF8000002223648006869461A
S1130C30FFF73DFB334833490068801C08609DF88A
S1130C400000FF280AD19DF80100FF280CD10020E4
S1130C5028704FF0FF3B5846BDE8F68D0D2804BFC1
S1130C609DF801000A28F6D0F6B28EB1072E05DAF7
S1130C706846FFF79FFF50445FFA80FA072ED0D8EA
S1130C80DFE806F00605161818182633C9E7C1E789
S1130C909DF80000532805D19DF80100A0F130070C
S1130CA0FFB201260FB1042FBBDB00270026B8E7F3
S1130CB04FF0000B6846FFF77DFFB91B891CC90084
S1130CC088408344B81B801C08BF0526761CA8E70F
S1130CD0641EE4B204B907266846FFF76BFF88F880
S1130CE00000002008F8010F9BE76846FFF762FF49
S1130CF080F0FF00504594D0002028706FF005006C
S1130D00BDE8F68D00E0FF1F604E00001CB4002219
S1130D10009211B1012913D04DE04FF080421368C5
S1130D2003F0FD031360136843F001031360AA2367
S1130D301268019241F25052138040F6A82308E051
S1130D401E4A00231360AA23126801921C4A1380CE
S1130D501C4B55241C8080241480AA241480552202
S1130D601A803022028002881207FCD5009A5AB9F0
S1130D700288920644BF4FF0FF32009202881206A6
S1130D80F4D501220092F1E711B1012910D012E04B
S1130D904FF080424FF6FE711068084010601068F2
S1130DA040F00200106010680190009816BC704773
S1130DB0024A0120F6E716BC61E0000000000E20A4
S1130DC0A80A0C2054050C203CB40023009312B153
S1130DD0012A15D052E04FF080434FF6FD751C6890
S1130DE02C401C6040F6A8251C6844F001041C60DB
S1130DF0AA241B68019341F250531C80552409E036
S1130E001B4B1C4D00241C60AA241B6801931A4B25
S1130E101C8055242C8001F08005A0241C800180B6
S1130E204FF0FF330AE00488A40648BF0093048807
S1130E3004F08004AC4204BF01240094009C002C04
S1130E40F1D012B1012A10D018E04FF080434FF6D0
S1130E50FE71186808401860186840F002001860B5
S1130E6018680190009836BC7047014B0120F6E7E2
S1130E7000000E2054050C20A80A0C2036BC6FF08C
S1130E8001007047244825490160832224490160F8
S1130E9000202449087000211E48017401210175B5
S1130EA081210176017720490A7000220A725C22AE
S1130EB00A74027842F00202027002799207FCD5A9
S1130EC000220A7504220A7609220A77017841F081
S1130ED0100101700179C906FCD5017841F0400187
S1130EE001700178027902F0E00201F0E0018A4227
S1130EF0F7D140F2FF320D4801688905890D91420E
S1130F0006D00B490B4A8A6000680880002088607C
S1130F107047000000000140001C014051E5CC1A5C
S1130F20AE1A33E5081001402000014000010040E2
S1130F3004E0024054E5CC1A19E050F8041BCB0736
S1130F4044BFA9F101035918121F0023042A41F8D0
S1130F50043BF9D25FEA827C0B4604D54FF0000CC7
S1130F60A1F800C09B1CD10744BF0021197050F8A0
S1130F70042B002AE1D1704710B450F8041B79B156
S1130F800268436812180830DC0744BFA9F1010461
S1130F90E31852F8044B43F8044B091FF9D1ECE76A
S1130FA010BC704710B5074979441831064C7C448D
S1130FB0163404E00A68081D511888470146A14206
S1130FC0F8D110BD08000000280000006DFFFFFFED
S1130FD0F401000080E3FF1F000000009DFFFFFFFD
S1130FE07C01000024FDFFFF00E0FF1F0000000063
S1130FF00120C046002801D0FFF7D4FF0020C046DE
S1131000C046FFF713FB00F000F800F001B8000041
S11310100746384600F002F8FBE7000020210903E8
S113102026311820ABBEF9E7014880470148004744
S1131030850E000039100000C046C046C046C046B8
S1131040FFF7D6FFFFF7FEBFFFF7FEBFFFF7FEBFB8
S1131050FFF7FEBFFFF7FEBFFFF7FEBFFFF7FEBFC0
S1131060FFF7FEBFFFF7FEBFFFF7FEBFFFF7FEBFB0
S1131070FFF7FEBFFFF7FEBFFFF7FEBFFFF7FEBFA0
S1131080FFF7FEBFFFF7FEBFFFF7FEBFFFF7FEBF90
S1131090FFF7FEBFFFF7FEBFFFF7FEBFFFF7FEBF80
S11310A0FFF7FEBFFFF7FEBFFFF7FEBFFFF7FEBF70
S11310B0FFF7FEBFFFF7FEBFFFF7FEBFFFF7FEBF60
S11310C0FFF7FEBFFFF7FEBFFFF7FEBFFFF7FEBF50
S11310D0FFF7FEBFFFF7FEBFFFF7FEBFFFF7FEBF40
S1134000202500206DF8010091F8010095F80100C9
S113401099F801009DF80100A1F8010000000000DA
S1134020000000000000000000000000A5F80100EE
S1134030A9F8010000000000ADF80100B1F801008A
S1134040B5F80100B9F80100BDF80100C1F801009C
S1134050C5F80100C9F80100F5D50000459300003A
S1134060BFF7010001D90000DDF80100E59101006E
S1134070E5F80100C7A80000EDF8010031F90100DE
S113408031F90100F1F80100F5F8010031F90100FE
S113409031F9010031F9010031F90100F9F80100A9
S11340A0FDF80100BDF7010005F9010031F9010037
S11340B009F901000DF9010011F9010015F90100D8
S11340C031F9010031F90100C7F70100D1F701000E
S11340D031F9010031F9010021F9010025F901004C
S11340E029F901002DF9010031F9010031F901002C
S11340F031F9010031F9010031F9010031F9010010
S113410038B5684CE07E012833D1674D67492846AD
S113411005F057FA012803DB0120E07502201BE0BB
S11341205EA1284605F04DFA012803DB0120E07565
S1134130002011E05E49284605F043FA012802DB1D
S11341400120E07508E056A1284605F03AFA012856
S113415003DB0120E075032060750020E076207EFB
S113416038B1544805F080FB2846BDE8324005F0DC
S11341707BBB31BDF0B5142883B0044658D8DFE8C2
S113418000F00B0E1114171A1D2E3134373A3D402E
S11341904346494C4F5752001422474945E01422E4
S11341A0464942E0142246493FE0142245493CE096
S11341B01422454939E01422444936E0444D454926
S11341C01422284605F0B6FB4348006800282FD186
S11341D04E2068732E20A8734520E87328E014222B
S11341E03E4922E014223E491FE014223D491CE0CE
S11341F014223D4919E014223C4916E014223C499A
S113420013E014223B4910E014223B490DE0142230
S11342103A490AE014223A4907E01422394904E0F1
S11342201422394901E014223849294805F082FB57
S113423037480068E040C00706D5254D592068730B
S11342406520A8737320E87304EB44004000314EEA
S1134250314F00F52C5006223146503005F096FCC3
S11342603079737832782D490290F0780190B078E3
S11342700C4E0090384605F0BDFE002038743146DF
S1134280384605F01CFA0CB17F203070142CBCBFEA
S11342907E20F0730020B07603B0F0BD55500000CE
S11342A045534300E01E0020681C0020F4D901009F
S11342B0FCD9010004DA010010DA010024DA01005B
S11342C038DA01004CDA010060DA010074DA010026
S11342D0641F002088DA0100682000209CDA0100B5
S11342E0B0DA0100C4DA0100D8DA0100ECDA010026
S11342F000DB010014DB010028DB01003CDB0100D2
S113430050DB010064DB010078DB01008CDB010081
S1134310B42000206813002088190020A0DB0100CD
S1134320F0B5DFF89C4B83B0206AD22802F2C18436
S1134330DFE810F0D300E400F7000A011901590185
S1134340B711FE111412F9121C1342137C13B61385
S1134350D813FA1316143A143C143E14401442149D
S11343604414461448144A144C144E145014521451
S11343705414561458145A145C1460149014BF1432
S1134380F1010202030FAE0F160F2C0F460F600F40
S1134390730F860F990F11022202350248025B0245
S11343A06E0281029402A702BA02CD02E002F30275
S11343B0060319032C033F035203650378038B039D
S11343C09E03B403C703DA03ED03000413042604B5
S11343D039044C045F04720485049804AB04BE04DD
S11343E0D104E00403052A0553057D05A305CA0588
S11343F0EF05140639065D068006A406C706EB061B
S11344000C0716072A07500774079907B707D5073B
S1134410E007FA0719083F084B085C086E0886088D
S1134420AA08E60805092409430962098B09B409A5
S1134430DD09050A610A6F0A7D0A8B0A990AA80A2E
S1134440B70AC60AD50AE40AF30A020B100B1E0BBC
S11344502C0B3B0B4A0B590B680B770B860B950BFC
S1134460A40BB30BC20BBF14D40BE30BF20B040C61
S1134470130C260C350C440C560CBF14CE0FF30F42
S113448050106110A410381170108610EE103811FD
S1134490611187119211A21130103E10650C770C36
S11344A08A0C990CE00CFF0C200D410D620D830D5C
S11344B0A40DC50DE60D070E180E2A0E3C0E540E63
S11344C06C0E880EA80EC60EE60E680179018C01EA
S11344D09F01AE01BD01CC01DB011422DFF8941C65
S11344E0DFF8940C05F026FA1422DFF8901C20461D
S11344F005F020FA7E20E07302F0D9BB1422DFF825
S1134500741CDFF8740C05F015FA1422DFF8701C23
S1134510204605F00FFA7F2020707E20E07302F021
S1134520C6BB1422DFF84C1CDFF84C0C05F002FA71
S11345301422DFF8501C204605F0FCF97F2020707F
S11345407E20E07302F0B3BB1422DFF8281CDFF8EE
S1134550280C05F0EFF91422DFF8B01D204605F011
S1134560E9F902F0A2BB1422DFF8A41DDFF8080C5D
S113457005F0E0F91422DFF89C1D204605F0DAF975
S1134580A07D032802F23580DFE810F004000C005F
S113459016002100CE206076DFF87C0D0078A07133
S11345A002F027B8CF2060767820A071DFF8680D7C
S11345B04078E07102F01DB8D02060767820A071B8
S11345C0E071DFF8540D8078207202F012B8D12027
S11345D060767820A071E0712072DFF83C0DC0781D
S11345E0607202F006B81422DFF8241DDFF8880B8D
S11345F005F0A0F91422DFF8241D204605F09AF9ED
S113460002F055BB1422DFF8181DDFF86C0B05F01F
S113461091F91422DFF80C1D204605F08BF97E2059
S1134620E07302F044BB1422DFF8F41CDFF8480BFB
S113463005F080F91422DFF8D41D204605F07AF93C
S11346407F2020707E20E07302F031BB1422DFF85B
S1134650D01CDFF8240B05F06DF91422DFF8D41D0B
S1134660204605F067F97F2020707E20E07302F079
S11346701EBB1422DFF8A81CDFF8FC0A05F05AF967
S11346801422DFF8B41D204605F054F902F00DBBE6
S11346901422DFF8A81DDFF8E00A05F04BF9142214
S11346A0DFF8C41D204605F045F902F000BB1422D2
S11346B0DFF8B81DDFF8C00A05F03CF91422DFF872
S11346C0B01D204605F036F902F0F1BA1422DFF8E5
S11346D0A41DDFF8A40A05F02DF91422DFF8981DB3
S11346E0204605F027F902F0E2BA1422DFF88C1D07
S11346F0DFF8840ADFF8885D05F01CF9DFF8840D23
S11347000268E5A1284605F075FC2146284604F018
S1134710D6FF02F0CCBA1422DFF88C1DDFF8580A59
S113472005F008F91422DFF8841D204605F002F98B
S11347307E20E07302F0BBBA1422DFF86C1DDFF8B0
S1134740380A05F0F7F81422DFF8641D204605F056
S1134750F1F802F0AABA1422DFF8581DDFF8180A9B
S113476005F0E8F81422DFF8501D204605F0E2F8C1
S11347707E20E07302F09BBA1422DFF8381DDFF8C4
S1134780F80905F0D7F81422DFF8301D204605F0AB
S1134790D1F87F2020707E20E07302F088BA1422C2
S11347A0DFF8101DDFF8D00905F0C4F81422DFF893
S11347B0101D204605F0BEF87F2020707E20E07397
S11347C002F075BA1422DFF8EC1CDFF8AC0905F02E
S11347D0B1F81422DFF8EC1C204605F0ABF87F207A
S11347E020707E20E07302F062BA1422DFF8C41C49
S11347F0DFF8840905F09EF81422DFF8CC1C20466B
S113480005F098F87F2020707E20E07302F04FBA04
S11348101422DFF8A01CDFF8600905F08BF81422DD
S1134820DFF8A81C204605F085F87F2020707E2044
S1134830E07302F03CBA1422DFF8781CDFF8380980
S113484005F078F81422DFF8881C204605F072F889
S11348507F2020707E20E07302F029BA1422DFF852
S1134860541CDFF8140905F065F81422DFF8641C01
S1134870204605F05FF87F2020707E20E07302F070
S113488016BA1422DFF82C1CDFF8EC0805F052F8F5
S11348901422DFF8441C204605F04CF87F202070D9
S11348A07E20E07302F003BA1422DFF8081CDFF85C
S11348B0C80805F03FF81422DFF8201C204605F054
S11348C039F87F2020707E20E07302F0F0B91422C2
S11348D0DFF8E01BDFF8A00805F02CF81422DFF85D
S11348E0001C204605F026F87F2020707E20E0730F
S11348F002F0DDB91422DFF8BC1BDFF87C0805F0F8
S113490019F81422DFF8DC1B204605F013F87F2089
S113491020707E20E07302F0CAB91422DFF8941BE1
S1134920DFF8540805F006F81422DFF8BC1B204613
S113493005F000F87F2020707E20E07302F0B7B904
S11349401422DFF8701BDFF8300804F0F3FF1422A0
S1134950DFF8981B204604F0EDFF7F2020707E20B6
S1134960E07302F0A4B91422DFF8481BDFF808084A
S113497004F0E0FF1422DFF8781B204604F0DAFF8D
S11349807F2020707E20E07302F091B91422DFF8BA
S1134990241BDFF8E40704F0CDFF1422DFF8541BD6
S11349A0204604F0C7FF7F2020707E20E07302F0D1
S11349B07EB91422DFF8FC1ADFF8BC0704F0BAFF52
S11349C01422DFF8341B204604F0B4FF7F2020704B
S11349D07E20E07302F06BB91422DFF8D81ADFF8F6
S11349E0980704F0A7FF1422DFF8101B204604F0F8
S11349F0A1FF7F2020707E20E07302F058B91422BA
S1134A00DFF8B01ADFF8700704F094FF1422DFF81F
S1134A10781D204604F08EFF7F2020707E20E073F6
S1134A2002F045B91422DFF88C1ADFF84C0704F0C1
S1134A3081FF1422DFF8541D204604F07BFF7F2001
S1134A4020707E20E07302F032B91422DFF8641A79
S1134A50DFF8240704F06EFF1422DFF8341D20462B
S1134A6004F068FF7F2020707E20E07302F01FB9FD
S1134A701422DFF8401ADFF8000704F05BFF142269
S1134A80DFF8101D204604F055FF7F2020707E20A3
S1134A90E07302F00CB900BF256400001422DFF8B3
S1134AA0141ADFF8D40604F045FF1422DFF8E81CDA
S1134AB0204604F03FFF7F2020707E20E07302F048
S1134AC0F6B81422DFF8EC19DFF8AC0604F032FF74
S1134AD01422DFF8C81C204604F02CFF7F2020702D
S1134AE07E20E07302F0E3B81422DFF8C819DFF87F
S1134AF0880604F01FFF1422DFF8A41C204604F0EB
S1134B0019FF7F2020707E20E07302F0D0B81422B9
S1134B10DFF8A019DFF8600604F00CFF1422DFF8B8
S1134B20841C204604F006FF7F2020707E20E07362
S1134B3002F0BDB81422DFF87C19DFF83C0604F05B
S1134B40F9FE1422DFF8601C204604F0F3FE7F20F7
S1134B5020707E20E07302F0AAB81422DFF8541902
S1134B60DFF8140604F0E6FE1422DFF8401C2046A9
S1134B7004F0E0FE7F2020707E20E07302F097B8FE
S1134B801422DFF83019DFF8F00504F0D3FE142204
S1134B90DFF81C1C204604F0CDFE7F2020707E2010
S1134BA0E07302F084B81422DFF80819DFF8C805AE
S1134BB004F0C0FE1422DFF8FC1B204604F0BAFE09
S1134BC07F2020707E20E07302F071B81422DFF899
S1134BD0E418DFF8A40504F0ADFE1422DFF8D81BB6
S1134BE0204604F0A7FE7F2020707E20E07302F0B0
S1134BF05EB81422DFF8BC18DFF87C0504F09AFED6
S1134C001422DFF8B81B204604F094FE7F202070A5
S1134C107E20E07302F04BB81422DFF89818DFF816
S1134C20580504F087FE1422DFF8941B204604F094
S1134C3081FE7F2020707E20E07302F038B81422B9
S1134C40DFF87018DFF8300504F074FE1422DFF882
S1134C50741B204604F06EFE7F2020707E20E073DB
S1134C6002F025B81422DFF84C18DFF80C0504F024
S1134C7061FE1422DFF8501B204604F05BFE7F2007
S1134C8020707E20E07302F012B81422DFF824189A
S1134C90DFF8E40404F04EFE1422DFF8301B204653
S1134CA004F048FE7F2020707E20E07301F0FFBFF7
S1134CB01422DFF80018DFF8C00404F03BFE1422CD
S1134CC0DFF80C1B204604F035FE7F2020707E2088
S1134CD0E07301F0ECBF1422DFF8D817DFF8980472
S1134CE004F028FE1422DFF8EC1A204604F022FE19
S1134CF001F0DBBF1422DFF8C81DDFF87C0404F0E8
S1134D0019FE41F288330022DFF8CC1A204605F060
S1134D1071F9DFF804060178A1714178E1718178B5
S1134D202172C0786072A07D032801F2C087DFE899
S1134D3010F05D0526004F0079001422DFF8E01D15
S1134D40DFF8340404F0F6FD1E230222DFF8881A8B
S1134D50204605F04FF9DFF8C0050178A1714178CC
S1134D60E17181782172C0786072A07D032801F21C
S1134D709E87DFE810F03B0504002D005700CF208C
S1134D806076012001F094BF1422DFF8D81DDFF80B
S1134D90E80304F0CFFD4FF4FA730A22DFF8381A5F
S1134DA0204605F027F9DFF870050178A1714178F4
S1134DB0E17181782172C0786072A07D032801F2CC
S1134DC07687DFE810F01305040005002F00D6E70E
S1134DD0D0206076012001F06BBF1422DFF8E41DBF
S1134DE0DFF8940304F0A6FD4FF4FA730A22DFF807
S1134DF0E819204605F0FEF8DFF81C050178A171DA
S1134E004178E17181782172C0786072A07D0328B5
S1134E1001F24D87DFE810F0EA0405000400060003
S1134E20D6E7ACE7D1206076012001F041BF14221F
S1134E30DFF8A819DFF8400304F07CFD4FF4FA739F
S1134E400022DFF89419204605F0D4F8DFF8C804EE
S1134E500178A1714178E17181782172C078607222
S1134E60A07D032801F22387DFE810F0C0040600C8
S1134E7005000400D6E7ABE781E71422DFF86019E8
S1134E80BD4804F057FD4FF4FA630122DFF84819D6
S1134E90204605F0AFF8DFF880040178A17141786D
S1134EA0E17181782172C0786072A07D032801F2DB
S1134EB0FE86DFE810F09B04080007000400B1E759
S1134EC0E01E002084E75AE71422DFF8001EAA48F7
S1134ED004F030FD4FF4FA630122DFF8FC18204699
S1134EE005F088F8DFF830040178A1714178E171A8
S1134EF081782172C0786072A07D032801F2D78680
S1134F00DFE810F074040600050004008AE75FE798
S1134F1035E71422DFF8B81D974804F00BFD4FF471
S1134F20FA630122DFF8B018204605F063F8DFF8D1
S1134F30E8030178A1714178E17181782172C07828
S1134F406072A07D032801F2B286DFE810F04F04FE
S1134F5006000500040065E73AE710E71422DFF8CD
S1134F60741D854804F0E6FC4FF4E1530022DFF899
S1134F706818204605F03EF8DFF89C030178A1711B
S1134F804178E17181782172C0786072A07D032834
S1134F9001F28D86DFE810F02A0406000500040003
S1134FA040E715E7EBE61422DFF82C1D724804F005
S1134FB0C1FCF0230022DFF82018204605F01AF87F
S1134FC0DFF854030178A1714178E171817821728D
S1134FD0C0786072A07D032801F26986DFE810F0D2
S1134FE006040600050004001CE7F1E6C7E61422E7
S1134FF0DFF8E81C604804F09DFC3C230022DFF845
S1135000D817204604F0F6FFC3480178A17141780F
S1135010E17181782172C0786072A07D032801F269
S11350204686DFE810F0E303060005000400F9E615
S1135030CEE6A4E61422DFF8A81C4F4804F07AFC5C
S11350404FF461633222DFF89017204604F0D2FF58
S1135050B1480178A1714178E17181782172C078F9
S11350606072A07D032801F22286DFE810F0BF03FE
S1135070060005000400D5E6AAE680E61422DFF85F
S1135080641C3D4804F056FC50230A22DFF84817FC
S1135090204604F0AFFFA0480178A1714178E17186
S11350A081782172C0786072A07D032801F2FF85A7
S11350B0DFE810F09C03060005000400B2E687E672
S11350C05DE61422DFF8201C2B4804F033FC4FF477
S11350D061631E22DFF80017204604F08BFF8E4820
S11350E00178A1714178E17181782172C078607290
S11350F0A07D032801F2DB85DFE810F078030600C9
S1135100050004008EE663E639E61422DFF8DC1BB2
S1135110194804F00FFC1422DFF8D41B204604F0D5
S113512009FC7D480178A1714178E171817821728F
S1135130C0786072A07D002800F0588301283FF4F5
S11351401EAE03283FF46EAE01F0B1BD1422DFF8A9
S1135150841E094804F0EEFB1422DFF87C1EDDE710
S11351601422DFF89C1E044804F0E4FB1422DFF848
S1135170681ED3E7C4DB0100641F0020D8DB0100F4
S1135180ECDB010000DC01001422DFF8781EDFF8FC
S1135190780E04F0CFFB4FF4FA634FF4FA72DFF8A1
S11351A03816204604F026FF5B480178A171417847
S11351B0E17181782172C0786072A07D032801F2C8
S11351C07685DFE810F0130306000500040029E6E5
S11351D0FEE5D4E51422DFF89C1EDFF82C0E04F063
S11351E0A9FB3C231422DFF8F015204604F002FF4B
S11351F049480178A1714178E17181782172C078C0
S11352006072A07D032801F25285DFE810F0EF02FE
S113521006000500040005E6DAE5B0E51422DFF82F
S1135220601EDFF8E40D04F085FB4FF47A63052279
S1135230DFF8A415204604F0DDFE37480178A1719B
S11352404178E17181782172C0786072A07D032871
S113525001F22D85DFE810F0CA0206000500040003
S1135260E0E5B5E58BE51422DFF88C1EDFF8980D38
S113527004F060FB1422DFF8841E204604F05AFB7D
S113528025480178A1714178E17181782172C07853
S11352906072A07D002800F0A98202283FF498AD36
S11352A04FE71422DFF8B41EDFF85C0D04F042FB74
S11352B01422DFF8D41E204604F03CFB1648017883
S11352C0A1714178E17181782172C0786072A07D0A
S11352D0002800F08B8202283FF47AAD31E71422D3
S11352E0DFF8D01EDFF8200D04F024FB1422DFF8D1
S11352F0C81E13E71422DFF8C41EDFF80C0D04F0F7
S113530019FB1422DFF8B01E08E700BF14DC01000B
S113531028DC01003CDC0100041F002050DC0100FB
S113532064DC010078DC01001422DFF8BC1EDFF825
S1135330D80C04F0FFFA1422DFF8B01E204604F063
S1135340F9FADFF8AC0E0178A1714178E171817846
S11353502172C0786072A07D002800F04782022884
S11353603FF436ADEDE61422DFF83814DFF8980C7C
S113537004F0E0FA4FF4FA630A22DFF85C142046E2
S113538004F038FEDFF8680E0178A1714178E1710C
S113539081782172C0786072A07D032801F287842D
S11353A0DFE810F024020600050004003AE50FE5EA
S11353B0E5E41422DFF8CC1EDFF84C0C04F0BAFA52
S11353C01422DFF8C41E01F051B91422DFF8BC1E08
S11353D0DFF8340C04F0AEFA1422DFF8DC1E2046A9
S11353E004F0A8FA7E20E07301F061BC1422DFF817
S11353F09C1EDFF8140C04F09DFA1422DFF8BC1E86
S1135400204604F097FA01F050BC00BF8CDC010088
S11354101422DFF8AC1EDFF8F00B04F08BFA142230
S1135420DFF8A01E204604F085FA7E20E07301F028
S11354303EBC00BFA0DC0100B4DC0100C8DC0100FC
S11354401422DFF87C1EDFF8C00B04F073FA142278
S1135450DFF8741E204604F06DFA7F2020707E2051
S1135460E07301F024BC00BFDCDC0100F0DC0100CF
S113547004DD010018DD01002CDD010040DD010028
S113548088190020B41D00201422DFF8341EDFF830
S1135490780B04F04FFA1422DFF8301E204604F093
S11354A049FA01F002BC00BF54DD010068DD0100CF
S11354B07CDD010090DD0100A4DD0100B8DD010008
S11354C0CCDD0100E0DD0100F4DD010008DE0100B7
S11354D01CDE010030DE010044DE010058DE010064
S11354E06CDE010080DE010094DE0100A8DE010014
S11354F0BCDE0100D0DE0100E4DE0100F8DE0100C4
S11355001422DFF8741EDFF8000B04F013FA1422DF
S1135510DFF8B81E204604F00DFADFF8D40C017849
S1135520A1714178E17181782172C0786072A07DA7
S1135530002800F05B8102283FF44AAC01E6142203
S1135540DFF88C1EDFF8C00A04F0F4F91422DFF847
S11355507C1E204604F0EEF9DFF8940C0178A1716A
S11355604178E17181782172C0786072A07D002851
S113557000F03C8102283FF42BACE2E51422DFF872
S1135580B81EDFF8840A04F0D5F91422DFF8AC1E43
S1135590204604F0CFF9DFF8580C0178A171417866
S11355A0E17181782172C0786072A07D002800F0DA
S11355B01D8102283FF40CACC3E51422DFF8A01EC1
S11355C0DFF8440A04F0B6F91422DFF8001E20467E
S11355D004F0B0F9DFF8180C0178A1714178E17199
S11355E081782172C0786072A07D002800F0FE806E
S11355F002283FF4EDABA4E51422DFF8681EDFF8BF
S1135600080A04F097F942F20F730022DFF8581EDB
S1135610204604F0EFFCDFF8D80B0178A171417843
S1135620E17181782172C0786072A07D032801F253
S11356303E83DFE810F0DB00080006000400FFF7FB
S1135640F1BBFFF7C5BBFFF79ABB1422DFF81C1EA2
S1135650DFF8B40904F06EF942F20F730022DFF8A8
S1135660081E204604F0C6FCDFF8840B0178A17103
S11356704178E17181782172C0786072A07D03283D
S113568001F21583DFE810F0B20008000600040000
S1135690FFF7C8BBFFF79CBBFFF771BB1422DFF811
S11356A0D01DDFF8640904F045F94FF47A7332220F
S11356B0DFF8B41D204604F09DFCDFF8340B0178BC
S11356C0A1714178E17181782172C0786072A07D06
S11356D0032801F2EC82DFE810F0890008000600DC
S11356E00400FFF79FBBFFF773BBFFF748BBDFF86E
S11356F0840DDFF814196CC86CC140F6371300220E
S1135700DFF8641D204604F075FCDFF8E40A017834
S1135710A1714178E17181782172C0786072A07DB5
S1135720032801F2C482DFE810F0610008000600DB
S11357300400FFF777BBFFF74BBBFFF720BB142236
S1135740DFF8341DDFF8C00804F0F4F81E23052246
S1135750DFF8141D204604F04DFCDFF8940A0178AC
S1135760A1714178E17181782172C0786072A07D65
S1135770032801F29C82DFE810F03900370035007D
S11357800400FFF74FBB00BF0CDF010020DF010066
S113579034DF010048DF01005CDF010070DF01003D
S11357A084DF010098DF0100ACDF0100C0DF0100ED
S11357B0D4DF0100E8DF0100FCDF010010E001009C
S11357C024E0010038E001004CE0010060E0010049
S11357D074E0010088E00100B0E0010000E1010094
S11357E014E10100FFF7F4BAFFF7C9BACE206076DE
S11357F0012001F05DBA1422B149DFF80C0804F06D
S113580099F81422DFF86C1E204604F093F801F096
S11358104EBA1422C249DFF8F00704F08BF81422C0
S1135820DFF8501E204604F085F801F040BA142237
S1135830CC49DFF8D40704F07DF81422DFF8341ED5
S1135840204604F077F801F032BA1422DD49DFF87B
S1135850B80704F06FF81422DFF8181E204604F08D
S113586069F801F024BA1422DFF86C1EDFF89807F7
S113587004F060F81422DFF8FC1D204604F05AF806
S113588001F015BA1422DFF8541EDFF87C0704F087
S113589051F81422DFF8DC1D204604F04BF801F027
S11358A006BA1422DFF8841EDFF85C0704F042F81D
S11358B01422DFF8C01D204604F03CF801F0F7B9CB
S11358C01422DFF8881EDFF8400704F033F81422AE
S11358D0DFF8A01D204604F02DF801F0E8B91422E9
S11358E0DFF86C1EDFF8200704F024F81422DFF838
S11358F0841D204604F01EF801F0D9B91422DFF803
S1135900541EDFF8040704F015F81422DFF8641DB0
S1135910204604F00FF801F0CAB91422DFF8381E4B
S1135920DFF8E40604F006F81422DFF8481D2046E8
S113593004F000F801F0BBB91422E949DFF8C80605
S113594003F0F8FF1422DFF82C1D204603F0F2FFC9
S113595001F0ADB91422E349DFF8AC0603F0EAFF25
S11359601422DFF8101D204603F0E4FF01F09FB974
S11359701422DD49DFF8900603F0DCFF1422DFF87F
S1135980F41C204603F0D6FF01F091B91422DFF88D
S1135990341EDFF8740603F0CDFF1422DFF8D41CA4
S11359A0204603F0C7FF01F082B91422DFF8241661
S11359B0DFF8540603F0BEFF1422DFF8B81C2046BB
S11359C003F0B8FF01F073B91422DFF83416DFF8DE
S11359D0380603F0AFFF1422DFF8981C204603F0CA
S11359E0A9FF01F064B91422DFF8281EDFF81806B5
S11359F003F0A0FF1422DFF87C1C204603F09AFF7A
S1135A0001F055B91422DFF86C16DFF8FC0503F039
S1135A1091FF1422DFF85C1C204603F08BFF01F099
S1135A2046B91422DFF85816DFF8DC0503F082FFCC
S1135A301422DFF8401C204603F07CFF01F037B944
S1135A401422DFF8B416DFF8C00503F073FF142244
S1135A50DFF8201C204603F06DFF01F028B9142262
S1135A60DFF8F816DFF8A00503F064FF1422DFF86E
S1135A70041C204603F05EFF01F019B91422DFF87C
S1135A80181EDFF8840503F055FF1422DFF8E41B29
S1135A90204603F04FFF01F00AB91422DFF8FC1D81
S1135AA0DFF8640503F046FF1422DFF8C81B204624
S1135AB003F040FF01F0FBB81422DFF82C1701E0DB
S1135AC09CE00100DFF8400503F034FF1422DFF806
S1135AD0A41B204603F02EFF01F0E9B81422DFF8DE
S1135AE09818DFF8240503F025FF1422DFF8841B3F
S1135AF0204603F01FFF01F0DAB81422DFF8D018B3
S1135B00DFF8040503F016FF1422DFF8681B2046B3
S1135B1003F010FF01F0CBB81422DFF81C1901E0E8
S1135B20C4E00100DFF8E00403F004FF1422DFF80E
S1135B30441B204603F0FEFE01F0B9B81422DFF83E
S1135B402019DFF8C40403F0F5FE1422DFF8241B47
S1135B50204603F0EFFE01F0AAB81422DFF804197E
S1135B6002E000BFD8E00100DFF89C0403F0E2FE8D
S1135B701422DFF8001B204603F0DCFE01F097B886
S1135B801422DFF8E818DFF8800403F0D3FE1422AF
S1135B90DFF8E01A204603F0CDFE01F088B81422A5
S1135BA0DFF8CC18DFF8600403F0C4FE1422DFF839
S1135BB0C41A204603F0BEFE01F079B8DFF8B40839
S1135BC002E000BFECE00100DFF83C146CC86CC1DB
S1135BD01422DFF8A01A204603F0ACFE01F067B8E7
S1135BE01422DFF89418DFF8200403F0A3FE142233
S1135BF0DFF8801A204603F09DFE01F058B8142205
S1135C00DFF8D01DDFF8000403F094FE1422DFF85F
S1135C10081E204603F08EFE0020A0767E2000F0B1
S1135C2083BD1422DFF8AC1DDFF8DC0303F082FE31
S1135C301422DFF8E81D204603F07CFE7F2020704C
S1135C407E20E07301F033B81422DFF8881DEE489B
S1135C5003F070FE1422DFF8C81D204603F06AFE2C
S1135C600020A076C8E11422DFF8B81DE64803F04E
S1135C7061FE1422DFF8B01D204603F05BFE002015
S1135C80A076DFF8040E007800F001010129A4BF1A
S1135C904821A17000F002010129A4BF48216171CB
S1135CA000F004010129A4BF4821217200F0080179
S1135CB00129A4BF4821E17200F010000128C0F2BC
S1135CC0F8874820A07300F0F4BF00BF28E101006A
S1135CD03CE1010050E1010064E1010078E10100D0
S1135CE08CE10100A0E10100B4E10100C8E1010080
S1135CF0DCE101001422DFF8941DC348DFF8905D55
S1135D0003F018FE0020A076DFF8881DDFF8880D68
S1135D10007800F001000128ACBFD7A2D7A2284622
S1135D2004F068F92146284603F0C9FC7E2000F0FF
S1135D30FBBC1422DFF8541DB348DFF8545D03F0B4
S1135D40F9FD0020A076DFF8541DDFF84C0D007833
S1135D5000F002000128ACBFC7A2C8A2284604F084
S1135D6049F92146284603F0AAFC7F2020707E20B2
S1135D7000F0DABC1422DFF8141DA348DFF8105D2C
S1135D8003F0D8FD0020A076DFF8D01DDFF8080D61
S1135D90007800F004000128ACBFB7A2B7A22846DF
S1135DA004F028F92146284603F089FC7F2020705E
S1135DB07E2000F0B9BC1422DFF8D01C9248DFF832
S1135DC0D05C03F0B7FD0020A076DFF8B81DDFF843
S1135DD0C80C007800F008000128ACBFA6A2A7A256
S1135DE0284604F007F92146284603F068FC7F2082
S1135DF020707E2000F098BC1422DFF8901C8248AA
S1135E00DFF88C5C03F096FD0020A076DFF8781DA7
S1135E10DFF8840C007800F010000128ACBF96A2D3
S1135E2096A2284604F0E6F82146284603F047FCEB
S1135E307F2020707E2000F077BC1422DFF84C1CF9
S1135E407148DFF84C5C03F075FD0020A076DFF8A4
S1135E503C1DDFF8440C007800F020000128ACBFA2
S1135E6085A286A2284604F0C5F82146284603F0F8
S1135E7026FC7F2020707E2000F056BC1422DFF820
S1135E800C1C6148DFF8085C03F054FD0020A07688
S1135E90DFF8041DDFF8000C007800F04000012852
S1135EA0ACBF75A275A2284604F0A4F82146284682
S1135EB003F005FC7F2020707E2000F035BC142206
S1135EC0DFF8C81B5048DFF8C85B03F033FD00203F
S1135ED0A076DFF8C81CDFF8C00B007800F0800063
S1135EE00128ACBF64A265A2284604F083F82146C9
S1135EF0284603F0E4FB7F2020707E2000F014BCD1
S1135F001422DFF8881B4048DFF8845B03F012FD9D
S1135F100020A076DFF8881CDFF87C0B008800F4F2
S1135F2080700128ACBF54A254A2284604F062F841
S1135F302146284603F0C3FB7F2020707E2000F01A
S1135F40F3BB1422DFF85C1C2F4803F0F3FC0020A1
S1135F50A0761422DFF8641D204603F0EBFC7E20BB
S1135F6000F0E2BB1422DFF83C1C274803F0E2FCFB
S1135F701422DFF84C1D204603F0DCFC7F20207047
S1135F807E20E07300F093BE1422DFF8181C1E4834
S1135F9003F0D0FC1422DFF82C1D204603F0CAFCC9
S1135FA07F2020707E20E07300F081BE1422DFF891
S1135FB0F41B154803F0BEFC0020A0761422DFF881
S1135FC0081D204603F0B6FC7F2020707E20E0737D
S1135FD000F06DBEF0E1010004E201001422DFF8DC
S1135FE0C41B094803F0A6FC0020A0761422DFF8A5
S1135FF0DC1C204603F09EFC7F20207000F059BE7C
S113600018E201002CE20100641F00201422DFF8D2
S1136010C01CDFF8C00CDFF8785A03F08BFC0020BA
S1136020A076DFF8B41CDFF8B40C406803F0FCFF82
S1136030DFF8AC1C086004F075F80B460246DFF884
S1136040A41C71E01422DFF8A01CDFF8880CDFF830
S1136050405A03F06FFC0020A0766421DFF88C0C1A
S1136060006890FBF1F2DFF8881C284603F0C2FFB9
S11360705DE000BF40E201004F4646004F4E000085
S113608054E201001422DFF86C1CDFF8480CDFF83E
S1136090005A03F04FFC0020A076DFF85C1CDFF808
S11360A05C0C0068086004F069F8DFF8541C03F025
S11360B0BBFF04F037F80B460246DFF8481C33E018
S11360C01422DFF8441CDFF80C0CDFF8C45903F089
S11360D031FC0020A076DFF8340C006804F04EF8A0
S11360E0DFF82C1C03F0A0FF04F01CF80B4602465A
S11360F0DFF8201C18E000BF68E201007CE2010028
S11361001422DFF8141CDFF8CC0BDFF8845903F0F9
S113611011FC0020A076DFF8040C006804F002F8FB
S11361200B460246DFF8041C284603F063FF2146B1
S1136130284603F0C4FA00F0BCBD1422DFF8F01BBB
S1136140DFF8900B03F0F6FB1422DFF8E81B20467F
S113615003F0F0FB7E20E07300F0A9BD90E20100A3
S11361601422DFF8CC1BDFF86C0B03F0E3FB1422E2
S1136170DFF8C41B204603F0DDFB7F2020707E2067
S1136180E07300F094BD00BFA4E201001422DFF824
S1136190A01BDFF8400B03F0CDFB1422DFF89C1B9F
S11361A0204603F0C7FB7F2020707E20E07300F0C0
S11361B07EBD00BFB8E20100CCE20100E0E20100D4
S11361C01422DFF86C1BDFF80C0B03F0B3FB142272
S11361D0DFF86C1B204603F0ADFB7F2020707E208F
S11361E0E07300F064BD00BFF4E2010008E30100C5
S11361F0041F00201422DFF8381BDFF8D80A03F04C
S113620099FB1422DFF83C1B204603F093FB7F200C
S113621020707E20E07300F04ABD1422DFF8101BCA
S1136220DFF8B00A03F086FB1422DFF81C1B2046BB
S113623003F080FB7F2020707E20E07300F037BDE8
S11362401422DFF8EC1ADFF88C0A03F073FB142233
S1136250DFF8F81A204603F06DFB7F2020707E20C3
S1136260E07300F024BD1422DFF8C41ADFF8640AD6
S113627003F060FB1422DFF8D81A204603F05AFB1F
S113628000F013BD1CE3010030E3010044E301000E
S11362901422DFF8C01ADFF83C0A03F04BFB142287
S11362A0DFF8901A204603F045FBDFF8EC174FF6B1
S11362B0F470088000F0FBBC58E301006CE30100BB
S11362C080E3010094E30100A8E30100BCE30100C2
S11362D01422DFF8841ADFF8FC0903F02BFB1422E4
S11362E0DFF8781A204603F025FB0120A076DFF8BA
S11362F0700A017861714178A17181782172C07846
S11363006072A07D032800F2D484DFE810F0370027
S1136310040039003B00CE2039E01422DFF8441A8F
S1136320DFF8B00903F006FB1422DFF83C1A20461C
S113633003F000FBDFF8280A017861714178A1714C
S11363402D21E17181782172C17861722D21A172B0
S11363500179E172407920730120A076A07D05289F
S113636000F2A784DFE810F00A0006000C000E001B
S113637010001200CFE700BFD0E30100CD2006E0FB
S1136380D02004E0D12002E0D32000E0D4206076C5
S113639000F08FBC1422DFF8D419DFF8380903F0B9
S11363A0C9FA1422B349204603F0C4FA00F07FBCB2
S11363B01422DFF8BC19DFF81C0903F0BBFA14221D
S11363C0AC49204603F0B6FA00F071BCE4E30100E6
S11363D0F8E301001422DFF89C19DFF8F80803F051
S11363E0A9FA1422DFF89019204603F0A3FA7E20BC
S11363F0E07300F05CBC1422DFF87819DFF8D408ED
S113640003F098FA1422DFF87419204603F092FA84
S113641000F04BBC1422DFF86819DFF8B80803F069
S113642089FA1422DFF85019204603F083FA7E20FB
S1136430E07300F03CBC00BF0CE4010020E4010068
S11364401422DFF83C19DFF88C0803F073FA1422E5
S1136450DFF82819204603F06DFA00F026BC00BFCF
S113646034E4010048E401005CE401006CE4010050
S113647080E4010094E40100A4E40100DFF8105674
S11364802022294640F2FD2003F080FB002085F8FD
S113649020000021DFF8EC08DFF838680170A4F16F
S11364A0100231462B78FBB10778102F03DA0B70FA
S11364B000234B7002E01370002353707B1C0370A5
S11364C06F788FB1DBB2102B03DA4F7000278F7017
S11364D002E05770002797705B1C0370921C891CA4
S11364E0AD1CDBB2202BDDDB0178202980F2E183B7
S11364F0102904DA20238B558A19002304E00A1991
S1136500202302F8103D00235370491C0170EBE76F
S1136510DFF87C552022294640F21D3003F036FB7B
S1136520002085F820000021DFF85808DFF8A46770
S11365300170A4F1100231462B78FBB10778102FBB
S113654003DA0B7000234B7002E0137000235370C6
S11365507B1C03706F788FB1DBB2102B03DA4F70A2
S113656000278F7002E05770002797705B1C037040
S1136570921C891CAD1CDBB2202BDDDB01782029A9
S113658080F29783102904DA20238B558A1900237B
S113659004E00A19202302F8103D00235370491C1B
S11365A00170EBE7A37D0022190016D0DFF8B007D5
S11365B0DFF82067185C1D19A3F1480703F1640193
S11365C0102BB9BF98558E4605F8100CBE46521CC8
S11365D0D2B29A4284F819E0F2D3DFF8A807027025
S11365E0102B207FB9BFDFF8EC269854191901F855
S11365F0100C01205CE3DFF890070178CB3908D058
S1136600091F06D0891E022903D9C91E02290BD9E4
S11366100CE01422DFF87417DFF8B80603F08AF9E7
S11366201422DFF86C1721E0AF2005E0617F491CDC
S11366306177C9B211B1B02020623AE3CF21017071
S113664037E31422DFF84417DFF8880603F072F901
S11366501422DFF8401709E01422DFF83017DFF8BE
S1136660740603F067F91422DFF82C17204603F0B0
S113667061F91EE3B0DB01001422DFF82017DFF814
S1136680540603F057F91422DFF81417204603F0D8
S113669051F9DFF8040401884FF672721140018049
S11366A007E30020A076DFF8FC060078401E0ED039
S11366B0401E032803D9401F042804D910E00A22ED
S11366C0DFF8E4160FE00922DFF8E0160BE00B22F6
S11366D0DFF8DC1607E000BFB8E40100CCE40100F9
S11366E00922DFF8D016DFF8A803DFF8A45303F07B
S11366F011F9DFF8E015284602F0E1FFDFF8B806EB
S113670000686421B0FBF1F2DFF8E415284603F0D9
S113671071FC2146284602F0D2FFDFF8A00600688B
S1136720002800F0C6822120E073C2E2E0E4010008
S11367301422DFF88C16DFF89C0503F0FBF8142212
S1136740DFF88016204603F0F5F8B0E2F4E4010027
S113675008E501001CE5010030E501000020A076F9
S1136760DFF84076DFF860663878C94D0F2800F20C
S1136770A180DFE800F0080B141D2946515A639FDD
S11367809F6C757E8795DFF8440691E00522DFF85B
S11367904016284603F0BEF8DFF8380688E00A22DF
S11367A0DFF83416284603F0B5F8DFF830067FE04A
S11367B00722DFF82C16284603F0ACF8DFF824068D
S11367C076E000BF44E501000622DFF81C162846E7
S11367D003F0A0F8DFF81406DFF81416006809784F
S11367E069B9DFF81016DFF8FC2509681268484318
S11367F0DFF8E81509685118B0FBF1F059E04008DA
S113680057E01022DFF8F015284603F083F8DFF88C
S1136810EC054DE058E501000922DFF898152846FB
S113682003F078F8DFF8AC0542E00B22DFF8D0156E
S1136830284603F06FF8DFF8CC0539E01022DFF8C2
S1136840C815284603F066F8DFF8C00530E00A22D0
S1136850DFF8BC15284603F05DF8DFF8B80527E03B
S11368601122DFF8B415284603F054F8DFF8640564
S11368701EE01022DFF8A415284603F04BF8DFF8D9
S1136880A00515E00C22DFF89C15284603F042F819
S1136890DFF8940500780CE06CE5010080E5010068
S11368A00D22DFF88815284603F034F8DFF8800558
S11368B000683060DFF81C14284602F000FF3878C6
S11368C0012803D10622DFF86C1504E0062806D15E
S11368D00622DFF86415284603F01CF810E0DFF800
S11368E0F41430680968411A11F10A0FB8BF01465F
S11368F0DFF8480501600A46A5A1284603F07AFBA3
S1136900DFF83C753268A3A1384603F073FB3946BF
S1136910284603F04CFC214602F0D1FE7F20207073
S11369207E20E073C3E11422DFF81815DFF8A40316
S1136930574D02F0FFFFDFF810050368DFF80C0580
S11369400068191ADFF8F40448BF002101600A4600
S1136950DFF8FC14284603F04DFB2146284602F0DC
S1136960AEFE7F2020707E20E073A0E11422DFF8C9
S1136970E414DFF86003464D02F0DCFFDFF8D814BE
S1136980DFF8D8040978006801290CD103F0CAFBA8
S1136990DFF8CC24DFF8CC3403F018FC0B460246B5
S11369A0DFF8C41463E003F0E3FC0246DFF8BC1430
S11369B0284603F01FFB5DE01422DFF8B414C54839
S11369C0DFF8046402F0B6FF00203080DFF8A4147E
S11369D00AE000BF94E501005A5C1AB110187278FD
S11369E0521C72705A1C32703378052BF4DB7178A8
S11369F0274DB0FBF1F2DFF88004DFF88014026069
S1136A00284603F0F7FA2146284602F058FE7F2074
S1136A1020707E20E0734AE1A8E50100BCE5010096
S1136A20D0E50100E4E50100F8E501001422DFF8F7
S1136A305014A848164D02F07DFFDFF81C14A74837
S1136A400978406801290CD103F06CFBDFF81024AD
S1136A50DFF8103403F0BAFB0B460246DFF82414C7
S1136A6005E003F05FFB0B460246DFF81C142846E2
S1136A7003F0C0FA2146284602F021FE7F20207050
S1136A807E20E07313E100BF2C1D00200CE6010002
S1136A908819002020E60100002000202CE60100D7
S1136AA01422DFF8E8138B48DFF8E45302F042FFC6
S1136AB0DFF8E003006803F061FB874903F0B4FAF0
S1136AC003F030FB02460B46DFF8CC13284603F0F4
S1136AD091FA2146284602F0F2FD7F2020707E20A4
S1136AE0E073E4E01422DFF8B4137A48DFF8A0532B
S1136AF002F020FFDFF8A803006803F03FFB7649AB
S1136B0003F092FA03F00EFB02460B46DFF88813FB
S1136B10284603F06FFA2146284602F0D0FD7F2074
S1136B2020707E20E073C2E01422DE496948D84D0B
S1136B3002F000FF7948006803F0F4FA02460B46BD
S1136B407A49284603F056FA2146284602F0B7FD52
S1136B507F2020707E20E073A9E000BF38E60100AA
S1136B601422D1495B48CA4D02F0E4FE9348006800
S1136B70002814BF6AA26BA26BA1284603F03AFA5C
S1136B808FE000BF40E6010048E6010050E6010046
S1136B90256400002F25640060E6010070E6010012
S1136BA07CE6010088E60100002020E001201EE0D0
S1136BB002201CE003201AE0042018E0052016E05F
S1136BC0062014E0072012E0082010E009200EE05F
S1136BD00A200CE00B200AE00C2008E00D2006E05F
S1136BE00E2004E00F2002E0102000E01120FDF749
S1136BF0C1FA5EE0374EAD491422304602F09AFEE7
S1136C006E480068C0F3804028B159207073652035
S1136C10B0737320F0730622894F394642F6BC30B4
S1136C2002F0B4FF38799A4D7B783A78A049029003
S1136C30F8780190B8780090284603F0DBF900203A
S1136C4028742146284602F03AFD7F2020707E20D9
S1136C50E0732CE01F4E97491422304602F06AFE7E
S1136C6056480068C0F3005028B15920707365205D
S1136C70B0737320F0730622714F394642F6C83060
S1136C8002F084FF3879824D7B783A788849029003
S1136C90F8780190B8780090284603F0ABF900200A
S1136CA028742146284602F00AFD7F202070002027
S1136CB0A07603B0BDE8F04002F0E2B99CE6010022
S1136CC0B0E60100C4E60100D8E60100ECE60100EC
S1136CD000E70100641F00200000C842980700205C
S1136CE01C20002014E7010020E7010030080020E8
S1136CF034E7010040E70100B8070020C007002086
S1136D0000007A4454E7010060E70100601F00209E
S1136D100000204174E7010080E70100C820002042
S1136D20594553004E4F00002573000094E70100BD
S1136D30A0E70100B4E70100C8E70100DCE70100B7
S1136D40F0E7010004E8010018E801002CE8010064
S1136D5040E8010054E8010068E801007CE8010013
S1136D60041F002090E80100A4E80100B8E8010035
S1136D70CCE80100E0E80100F4E8010008E90100C2
S1136D801CE90100FD200020F91D002030E901006C
S1136D9044E9010058E901006CE9010080E90100BF
S1136DA094E90100A6080020A8E90100B4E9010063
S1136DB0C0E90100CCE9010058200020B4200020E3
S1136DC0D8E90100ECE90100C81F0020A81F002039
S1136DD000EA01002420002008EA010058080020ED
S1136DE014EA01005C0800201CEA0100600800208D
S1136DF0052100202820002024EA01005C20002036
S1136E0034EA01006808002040EA01006C08002010
S1136E1050EA0100840800205CEA010070EA0100E5
S1136E208C08002080EA0100A80800208CEA0100F8
S1136E3070080020F4D901009CEA01001820002009
S1136E406813002058E50100640800206020002039
S1136E50A4EA0100ACEA0100A708002044200020B5
S1136E6077D5F270AAE8D03FC0EA0100CCEA01006D
S1136E70D4EA0100E01F002020200020E8EA0100FD
S1136E80F0EA010004EB010014EB010020EB010027
S1136E90881900205C1C002034EB01003CEB01004D
S1136EA0601C002050EB010064EB010078DB010062
S1136EB0A0DB01008CDB010070B588B0FDF720F980
S1136EC0DFF8004CE07D012842F0CE800020E07520
S1136ED0607D032802F2C380DFE810F00400FC00A8
S1136EE06E02F80E206A401ECD2802F2B880DFE858
S1136EF010F0D00FC60FC501DF00B610B610B610E3
S1136F009E10150218021B021E02210224022702EF
S1136F102A02B610910E2D023002330236023602D6
S1136F2039023C023F024202450248024B024E0231
S1136F305102540257025A025D02B610EB00EE00F1
S1136F40B610B6104A039A103A103C103E10401086
S1136F507A10B610F00FD40FD60FD80FDA0FDC0F5B
S1136F60DE0FE00FE20FE40FE00FE80FEA0FEC0F83
S1136F70EE0FF20FF40FF60FF80FFA0FFC0FFE0FDF
S1136F8000100210041006100810EB01261028103F
S1136F902A102C102E103010321034103610DF004E
S1136FA0DF00DF00DF00DF00DF00DF00DF00DF00E5
S1136FB0DF00DF00DF00DF00DF00DF00DF00DF00D5
S1136FC0DF00DF00DF00DF00DF00DF00DF00DF00C5
S1136FD0DF00B610B610E800B61014051705DF0080
S1136FE0DF00DF00DF00DF00DF00DF00DF00DF00A5
S1136FF0B610B610B610B610B610B610B610B6105D
S1137000B610B610B610B610B610B610B610B6104C
S1137010B610B610B610B610B610B610B610B6103C
S1137020B610B610B610B610B610B610B610B6102C
S1137030B610B610B610B610DF00DF00B61042105E
S1137040B610CE00B6105610B610CE00B610B6105C
S1137050B610B610B610B610B6108D108F10B6104C
S1137060B6100C0EF401F701FA01FD01000203024F
S11370700602B610A410EE01F101B210B610B6105B
S1137080B610B610B610B610C80FCA0FCC0F207FBA
S11370907A2808DA401C2077C0B25C2841F0DF87E8
S11370A05D2001F09FBC01F09C84202001F09ABC7B
S11370B0A17DDFF8145A485D392881F2D087401C3D
S11370C0F9E0722001F0CABF252001F0C7BF2620D5
S11370D001F0C4BF206ACD2801F2C187DFE810F0B7
S11370E0CF0ECE009A0FBF0FE300BF0F1E01BF0FDC
S11370F02101240127012A012D0130013301A90FA7
S1137100BF0F360139013C013F01420142014501F3
S113711048014B014E015101540157015A015D01CF
S11371206001630166016901BF0FF100940FBF0F95
S1137130A30FBF0F430F450F470F490F830F1501CF
S1137140BF0FDD0EDF0EE10EE30EE50EE70EE90ED6
S1137150F10EED0EEF0EF10EF30EF50EF70EFB0E23
S1137160FD0EFF0E010F030F050F070F090F0B0F85
S11371700D0F0F0F110FF4002F0F310F330F350FB9
S1137180370F390F3B0F3D0F3F0F410FBF0FE30088
S1137190E300E300E300E300E300E300E300E300D3
S11371A0E300E300E300E300E300E300E300E300C3
S11371B0E300E300E300E300E300E300E300E300B3
S11371C0E300BF0FEE00BF0F20042304BF0FE30052
S11371D0E300E300E300E300E300E300E300E30093
S11371E0BF0FBF0FBF0FBF0FBF0FBF0FBF0FBF0F2B
S11371F0BF0FBF0FBF0FBF0FBF0FBF0FBF0FBF0F1B
S1137200BF0FBF0FBF0FBF0FBF0FBF0FBF0FBF0F0A
S1137210BF0FBF0FBF0FBF0FBF0FBF0FBF0FBF0FFA
S1137220BF0FBF0FBF0FBF0FE300E3001801BF0F75
S1137230BF0FD1001B01BF0FBF0FD100BF0FBF0F86
S1137240BF0FBF0FBF0FBF0F980FAB0FBF0FBF0F05
S1137250FD0000010301060109010C010F011201E7
S1137260BF0FF700FA00BB0FBD0FBF0FBF0FBF0F5B
S1137270BF0FBF0FBF0FD30ED50ED70E022001F0E4
S1137280EDBE207F2128C1F2AC837F2808BF7A207D
S113729001F0A883401E2077C0B25C2841F0DF864D
S11372A05B2001F09FBBA17DDFF81C58485D3128AD
S11372B0C1F2D586401E485501F0D1BE732001F0BD
S11372C0CDBE262001F0CABE4C2001F0C7BEC220AC
S11372D001F0C4BEC32001F0C1BEB92001F0BEBE9E
S11372E0BA2001F0BBBEBB2001F0B8BEBC2001F047
S11372F0B5BEBD2001F0B2BEBE2001F0AFBEBF20BE
S113730001F0ACBEC02001F0A9BE302001F0A6BE41
S1137310A72001F0A3BEAB2001F0A0BE082001F01D
S11373209DBE092001F09ABE0A2001F097BE0B20F1
S113733001F094BE0C2001F091BE0D2001F08EBE30
S11373400E2001F08BBE0F2001F088BE122001F048
S113735085BE132001F082BE142001F07FBE1520EB
S113736001F07CBE172001F079BE182001F076BE32
S1137370192001F073BE1A2001F070BE1B2001F029
S11373806DBE1C2001F06ABE1D2001F067BE1E20E8
S113739001F064BE1F2001F061BE202001F05EBE3A
S11373A0212001F05BBE222001F058BE232001F011
S11373B055BE242001F052BE206ACE2801F24F8629
S11373C0DFE810F0CF005F0DD400E100E4004D0EC3
S11373D00A0C250C0A0C4D0E4D0E4D0E4D0E4D0E85
S11373E04D0E4D0E280C2A0C2D0C300C440C470C61
S11373F04A0C4D0C4D0E580C5B0C5E0C610C640C6D
S1137400670C6A0C6D0C4D0E4D0E4D0E4D0E4D0E4F
S1137410870D240EED094D0EF009F409360AD90D35
S1137420ED0DCC0ADE0A72010001080110011801F9
S1137430200128014D0E4D0E4D0E4D0E3001380128
S1137440400148017A019601B201BA01C201CA01A0
S1137450EC0115023E026702900298029B02A4020C
S1137460B402DD0206032F035803600368037003AC
S113747078038403B203DF030E043D046A04980412
S11374804D0E4D0E4D0E4D0EC604F6042405540546
S11374908605B705E705160643067106A106D0065C
S11374A0000730075F078D07AE07C507DC07F30742
S11374B00A0840086F089E08CC080D0935095D09C3
S11374C08709AF094D0E4D0E4D0E4D0E4D0E4D0E4E
S11374D04D0E4D0E4D0E4D0E4D0E4D0E4D0E4D0ED0
S11374E04D0E4D0E4D0E4D0E4D0E4D0E4D0E4D0EC0
S11374F04D0E4D0E4D0E4D0E4D0E4D0E4D0E4D0EB0
S11375004D0E4D0E4D0E4D0E4D0E4D0E200B550BCA
S1137510900A920A4D0EE00AAE0AB00A4D0EE00A35
S11375204D0E4D0E4D0E4D0E4D0E4D0EA10BA30BDB
S11375303B0E4D0EA50BB00BBB0BC60BD10BDC0BDE
S1137540E70BF20BFD0B720C740C7A0C800C820CA2
S11375504D0E4D0E4D0E4D0E4D0EF400F700FA007B
S1137560FD00002002F016FF01F079BD0420206226
S113757005220020A075DFF8901EDFF84C0502F00C
S1137580D9F901F06CBD282001F068BDA17D032963
S1137590C1F27082DFF8741EDFF82C0502F064FF7C
S11375A0002814BF0520262001F058BDCF2001F08B
S11375B055BDD02001F052BDD12001F04FBDD220E5
S11375C001F04CBDDFF8480E006801F059FF582067
S11375D001F044BDDFF83C0E006801F051FF592072
S11375E001F03CBDDFF8300E006801F049FF5A207D
S11375F001F034BDDFF8240E006801F041FF5B2088
S113760001F02CBDDFF8180E006801F039FF5C2092
S113761001F024BDDFF80C0E006801F031FF5D209D
S113762001F01CBDDFF8000E006801F029FF6220A4
S113763001F014BDDFF8F40D006801F021FF6320B0
S113764001F00CBDDFF8E80D006801F019FF6420BB
S113765001F004BDDFF8DC0DDFF86C5400680A218A
S1137660B0FBF1F101EB8103A0EB43023032EA708D
S11376702E22AA700A22B1FBF2F202EB8203A1EBE2
S11376804301303169706421B0FBF1F00A21B0FB91
S1137690F1F101EB8102A0EB4200303028700020B0
S11376A0A075652001F0DABCDFF88C0D006801F0EC
S11376B0E7FE572001F0D2BCDFF8800DDFF8085454
S11376C000680A21B0FBF1F101EB810230316970ED
S11376D0A0EB420264213032B0FBF1F0EA703030AA
S11376E028702E22AA700020A075662001F0B6BC76
S11376F0DFF84C0DDFF8D05300680A21B0FBF1F13C
S113770001EB810230316970A0EB42026421303216
S1137710B0FBF1F0EA70303028702E22AA700020FD
S1137720A075672001F09ABCDFF8880E006801F0AC
S1137730A7FE682001F092BCDFF87C0E006801F01F
S11377409FFE692001F08ABCDFF8700E006801F02A
S113775097FE6A2001F082BCDFF8640EDA4D0068FF
S11377600A21B0FBF1F101EB8103A0EB43023032BB
S1137770EA700A22B1FBF2F202EB8203A1EB4301AD
S11377803031A9702E2169706421B0FBF1F03030E2
S113779028700020A0756B2001F060BCDFF8240E77
S11377A0C94D00680A21B0FBF1F101EB8103A0EBA4
S11377B043023032EA700A22B1FBF2F202EB820396
S11377C0A1EB43013031A9702E2169706421B0FB13
S11377D0F1F00A21B0FBF1F101EB8102A0EB4200D0
S11377E0303028700020A0756C2001F037BCDFF821
S11377F0D80DB54D00680A21B0FBF1F101EB81030E
S1137800A0EB43023032EA702E22AA700A22B1FBA6
S1137810F2F202EB8203A1EB43013031697064217F
S1137820B0FBF1F00A21B0FBF1F101EB8102A0EB16
S11378304200303028700020A0756D2001F00EBC8D
S1137840DFF8880DA04D00680A21B0FBF1F101EBCF
S11378508103A0EB43023032EA702E22AA700A227E
S1137860B1FBF2F202EB8203A1EB43013031697008
S11378706421B0FBF1F00A21B0FBF1F101EB8102CC
S1137880A0EB4200303028700020A0756E2001F07B
S1137890E5BBDFF83C0D8C4D00680A21B0FBF1F12B
S11378A001EB8103A0EB43023032EA700A22B1FB00
S11378B0F2F202EB8203A1EB43013031A9702E21D5
S11378C069706421B0FBF1F00A21B0FBF1F101EB26
S11378D08102A0EB4200303028700020A0756F2098
S11378E001F0BCBBDFF8EC0C806801F0C9FD70202E
S11378F001F0B4BB712001F0B1BBDFF8840E007855
S1137900002814BF7320722001F0A8BBDFF8740EA6
S11379100078012804D0022805D0742001F09EBB11
S1137920752001F09BBB762001F098BBDFF8580E60
S1137930654D00680A21B0FBF1F101EB8103A0EB76
S113794043023032EA700A22B1FBF2F202EB820304
S1137950A1EB43013031A9702E2169706421B0FB81
S1137960F1F00A21B0FBF1F101EB8102A0EB42003E
S1137970303028700020A075772001F06FBBDFF84D
S11379800C0E514D00680A21B0FBF1F101EB8103AB
S1137990A0EB43023032EA700A22B1FBF2F202EBAE
S11379A08203A1EB43013031A9702E216970642157
S11379B0B0FBF1F00A21B0FBF1F101EB8102A0EB85
S11379C04200303028700020A075782001F046BBBA
S11379D0DFF8BC0D3C4D00680A21B0FBF1F101EB6E
S11379E08103A0EB43023032EA700A22B1FBF2F2C7
S11379F002EB8203A1EB43013031A9702E2169709F
S1137A006421B0FBF1F00A21B0FBF1F101EB81023A
S1137A10A0EB4200303028700020A075792001F0DE
S1137A201DBBDFF8700D284D00680A21B0FBF1F191
S1137A3001EB8103A0EB43023032EA700A22B1FB6E
S1137A40F2F202EB8203A1EB43013031A9702E2143
S1137A5069706421B0FBF1F00A21B0FBF1F101EB94
S1137A608102A0EB4200303028700020A0757A20FB
S1137A7001F0F4BADFF8580E006801F001FD7B2034
S1137A8001F0ECBADFF84C0E006801F0F9FC7C2040
S1137A9001F0E4BADFF8400E006801F0F1FC7D204B
S1137AA001F0DCBADFF8340E006801F0E9FC7E2056
S1137AB001F0D4BADFF8280E006801F0E1FC7F2061
S1137AC001F0CCBAE01E0020041F0020A17D032990
S1137AD0C0F2D087DFF8985EE878A9786B782A78C6
S1137AE0DFF8906E02EB820503EB450202EB8203A2
S1137AF001EB430101EB810200EB4200DFF8781E49
S1137B00081841F28931884230600AD2DFF8281916
S1137B1008600222DFF8641E086040F2191000F0C9
S1137B2023BE802001F09ABAA17D0329C0F2A28766
S1137B30DFF83C5EE878A9786B782A78DFF8346E51
S1137B4002EB820503EB450202EB820301EB4301E6
S1137B5001EB810200EB4200DFF81C1E0818811EB5
S1137B601D2930600AD2DFF8A81808600122DFF866
S1137B700C1E08604FF4817000F0F6BD812001F006
S1137B806DBAA17D0329C0F27587DFF8E45DE8785A
S1137B90A9786B782A78DFF8DC6D02EB820503EBB9
S1137BA0450202EB820301EB430101EB810200EB8E
S1137BB04200DFF8C41D0818A0F10A01B1F5F57FF1
S1137BC030600AD8DFF84C1808600222DFF8AC1DD8
S1137BD0086040F2031000F0C7BD822001F03EBAF5
S1137BE0A17D0329C0F24687DFF8845DE878A9788F
S1137BF06B782A78DFF87C6D02EB820503EB450293
S1137C0002EB820301EB430101EB810200EB420032
S1137C10DFF8641D0818A0F10A01B1F5F57F3060A2
S1137C200AD8DFF8F41708600222DFF8501D086054
S1137C3040F2051000F098BD832001F00FBAA17D39
S1137C400329C0F21787DFF8285DE878A9786B78F4
S1137C502A78DFF8206D02EB820503EB450202EB84
S1137C60820301EB430101EB810200EB4200DFF8E8
S1137C70081D0818B0F5FA7F30600AD8DFF89C17A1
S1137C8008600222DFF8F41C086040F2071000F0DC
S1137C906BBD842001F0E2B9A17D0329C0F2EA861C
S1137CA0DFF8CC5CE878A9786B782A78DFF8C46CC4
S1137CB002EB820503EB450202EB820301EB430175
S1137CC001EB810200EB4200DFF8AC1C08183060C5
S1137CD00DD0B0F5FA6F0AD8DFF844170860022215
S1137CE0DFF8981C086040F2091000F03DBD8520C3
S1137CF001F0B4B9A17D0329C0F2BC86DFF8705C41
S1137D00E878A9786B782A78DFF8686C02EB82054A
S1137D1003EB450202EB820301EB430101EB810219
S1137D2000EB4200DFF8501C081830600DD0B0F5AD
S1137D30FA6F0AD8DFF8EC1608600222DFF83C1C60
S1137D40086040F20B1000F00FBD862001F086B9E8
S1137D50A17D0329C0F28E86DFF8145CE878A97847
S1137D606B782A78DFF80C6C02EB820503EB450292
S1137D7002EB820301EB430101EB810200EB4200C1
S1137D80DFF8F41B40F6DF520818A0F132019142EB
S1137D9030600AD2DFF8901608600222DFF8DC1B9C
S1137DA0086040F2131000F0DFBC8B2001F056B9DC
S1137DB0A17D0329C0F25E86DFF8B45BE878A97878
S1137DC06B782A78DFF8AC6B02EB820503EB450293
S1137DD002EB820301EB430101EB810200EB420061
S1137DE0DFF8941B0818A0F10A01472930600AD271
S1137DF0DFF8381608600122DFF8801B086040F2C3
S1137E00151000F0B1BC8C2001F028B9A17D032924
S1137E10C0F23086DFF8585BE878A9786B782A7866
S1137E20DFF8506B02EB820503EB450202EB8203A1
S1137E3001EB430101EB810200EB4200DFF8381B48
S1137E4040F6F3520818A0F11E01914230600AD2A4
S1137E50DFF8DC1508600222DFF8201B08604FF40D
S1137E608B7000F081BC8D2001F0F8B8A17D03294E
S1137E7008DA481CA075C0B2022841F0F080032043
S1137E8000F0F9BDDFF8E85ADFF8E86A2A786B7881
S1137E90A2F1300000EB8001A3F1300000EB4102BD
S1137EA0E878303802EB820100EB4100B0F5617FE5
S1137EB030600AD8DFF87C1508600122DFF8BC1AAC
S1137EC008604FF48C7000F04FBC8E2001F0C6B8EF
S1137ED0A17D032908DA481CA075C0B2022841F02C
S1137EE0BE80032000F0C7BDDFF8845ADFF8846A3F
S1137EF02A786B78A2F1300000EB8001A3F1300006
S1137F0000EB4102E878303802EB820100EB4100DB
S1137F10652830600AD2DFF8241508600122DFF8F2
S1137F205C1A086040F21B1000F01EBC8F2001F0A8
S1137F3095B8A17D032908DA481CA075C0B20228AF
S1137F4041F08D80032000F096BDDFF8245ADFF85D
S1137F50246A2A786B78A2F1300000EB8001A3F147
S1137F60300000EB4102E878303802EB820100EB8C
S1137F7041006528306009D2DFF8C414086001228A
S1137F80DFF8F81908604FF48E70EDE3902001F0EB
S1137F9065B8A17D0329C0F26D85DFF8D459E8786E
S1137FA0A9786B782A78DFF8CC6902EB820503EBB9
S1137FB0450202EB820301EB430101EB810200EB7A
S1137FC04200DFF8B41940F2DD520818A0F5FA7146
S1137FD09142306009D2DFF8DC1508600222DFF834
S1137FE09C19086040F21D10BEE3912001F036B8E0
S1137FF0A17D0329C0F23E85DFF87459E878A97899
S11380006B782A78DFF86C6902EB820503EB450292
S113801002EB820301EB430101EB810200EB42001E
S1138020DFF854190818A0F114012929306009D285
S1138030DFF8841508600122DFF84019086040F277
S11380401F1091E3922001F009B8A17D0329C0F229
S11380501185DFF81C59E878A9786B782A78DFF85D
S1138060146902EB820503EB450202EB820301EB88
S1138070430101EB810200EB4200DFF8FC1840F6FB
S11380809C720818411F9142306009D2DFF82C1508
S113809008600222DFF8E41808604FF4907063E38C
S11380A0932000F0DBBFA17D032908DA481CA075EA
S11380B0C0B2012840F0D387022000F0DCBCDFF816
S11380C0B058DFF8B0682A78A978E878303A3039BF
S11380D002EB820301EB4301303801EB810200EB38
S11380E04200A0F11901B029306009D2DFF8D014A0
S11380F008600222DFF88418086040F2231033E39A
S1138100942000F0ABBFA17D032908DA481CA075B8
S1138110C0B2012840F0A387022000F0ACBCDFF815
S11381205058DFF850682A78A978E878303A30391E
S113813002EB820301EB4301303801EB810200EBD7
S11381404200B0F57A7F306009D2DFF87814086015
S11381500222DFF82818086040F2251004E3952075
S113816000F07CBFA17D032908DA481CA075C0B2C9
S1138170022840F07487032000F07DBCDFF8F0573C
S1138180DFF8F0672A786B78A2F1300000EB800109
S1138190A3F1300000EB4102E878303802EB8201B1
S11381A000EB41007928306009D2DFF81C14086024
S11381B00222DFF8C817086040F22B10D4E29620A0
S11381C000F04CBFA17D032908DA481CA075C0B299
S11381D0022840F04487032000F04DBCDFF890579C
S11381E0DFF890672A786B78A2F1300000EB800109
S11381F0A3F1300000EB4102E878303802EB820151
S113820000EB41007928306009D2DFF8C013086020
S11382100222DFF86817086040F22D10A4E29720CC
S113822000F01CBFA17D032908DA481CA075C0B268
S1138230012840F01487022000F01DBCDFF83057FD
S1138240DFF830672A78A978E878303A303902EBD9
S1138250820301EB4301303801EB810200EB420061
S1138260A0F132019729306008D2D949086002226E
S1138270DFF80817086040F2311075E2982000F02A
S1138280EDBEA17D0329C0F2F583DFF8E456E8785A
S1138290A9786B782A78DFF8DC6602EB820503EBB9
S11382A0450202EB820301EB430101EB810200EB87
S11382B04200DFF8C41640F2C7720818A0F10A01A0
S11382C09142306008D2C34988600222DFF8AC16BC
S11382D0086040F2371047E2992000F0BFBE142234
S11382E0DFF8881DDFF8880D01F024FB1422DFF885
S11382F0841D204601F01EFB00F0C2FE02F0D6F8F9
S11383001422DFF8741D204601F014FB00F0B8FEBF
S113831004F04CFE022005F034F94B2000F09EBE20
S1138320DFF85C14002008700122DFF85016087092
S113833040F2391001F0E2FB1422DFF8401D204620
S113834001F0F8FA00F09CFE012000F049BEDFF8CD
S11383503014012008700122DFF82016087040F262
S1138360391001F0CBFB1422DFF8101D204601F078
S1138370E1FA00F085FE012000F032BEDFF80414BB
S1138380002008700122DFF8F41508704FF49F7084
S113839001F0B4FB1422DFF8E41C204601F0CAFA11
S11383A000F06EFE012000F01BBEDFF8D8130120A0
S11383B008700122DFF8C41508704FF49F7001F0B3
S11383C09DFB1422DFF8B41C204601F0B3FA00F040
S11383D057FE012000F004BEDFF8A8130220087045
S11383E00122DFF8981508704FF49F7001F086FBA6
S11383F01422DFF8881C204601F09CFA00F040FEAD
S1138400012000F0EDBD00BF78EB0100B81D002095
S1138410580800205C080020600800205C20002030
S1138420680800206C0800208408002088080020C8
S11384308C080020780800207C08002048080020D0
S11384404C080020A17D032907DA481CA075C0B29E
S1138450012840F0048602200DE3DFF81455DFF80C
S113846014652A78A978E878303A303902EB820327
S113847001EB4301303801EB810200EB4200A0F133
S11384803201B1F5077F306008D8BF490860022285
S1138490DFF8E81408604FF4A07065E19A2000F05A
S11384A0DDBDA17D032907DA481CA075C0B20128EF
S11384B040F0D5850220DEE2DFF8B454DFF8B4647E
S11384C02A78A978E878303A303902EB820301EB54
S11384D04301303801EB810200EB4200A0F132018C
S11384E0B1F5077F306008D8A84908600222DFF898
S11384F08C1408604FF4A17036E19B2000F0AEBDEF
S1138500A17D032907DA481CA075C0B2012840F0F8
S1138510A6850220AFE2DFF85854DFF858642A78C1
S1138520A978E878303A303902EB820301EB430151
S1138530303801EB810240F24F2100EB42008842C7
S1138540306008D2924908600222DFF830140860D3
S11385504FF4A27008E19C2000F080BDA17D0329A6
S113856007DA481CA075C0B2012840F078850220C3
S113857081E2DFF8FC53DFF8FC632A78A978E87815
S1138580303A303902EB820301EB4301303801EB1E
S1138590810200EB4200A0F13201B1F5077F3060A7
S11385A01AD87C4908600222DFF8D01308604FF41F
S11385B0A370D9E06408002054080020800800203B
S11385C0900800209408002090200020942000208F
S11385D098200020980700209D2000F03FBDA17D39
S11385E00329C0F24782E24DE878A9786B782A78AB
S11385F0E04E02EB820503EB450202EB820301EB42
S1138600430101EB810200EB4200DB49081842F20E
S113861010718842306007D2AD4908600222D74900
S113862008604FF4A4709FE09E2000F017BDA17D68
S11386300329C0F21F82CE4DE878A9786B782A7896
S1138640CC4E02EB820503EB450202EB820301EB05
S1138650430101EB810200EB4200C749081842F2D2
S113866010718842306007D29A4908600222C349D7
S113867008604FF4A57077E09F2000F0EFBCA17D67
S11386800329C0F2F781BA4DE878A9786B782A7883
S1138690B84E02EB820503EB450202EB820301EBC9
S11386A0430101EB810200EB4200B34940F2B732CF
S11386B00818A0F132019142306007D2864908605F
S11386C00222AE49086040F24D104DE0A02000F0B7
S11386D0C5BCA17D0329C0F2CD81A54DE878A97858
S11386E06B782A78A34E02EB820503EB450202EB7A
S11386F0820301EB430101EB810200EB42009E493E
S1138700081840F638118842306007D2734908606F
S113871002229A49086040F24F1025E0A12000F09F
S11387209DBCA17D0329C0F2A581914DE878A9786B
S11387306B782A788F4E02EB820503EB450202EB3D
S1138740820301EB430101EB810200EB42008A4901
S11387500818411F1A2930601ED26149086001229D
S11387608649086040F2511001F0C8F91422DFF87C
S1138770D01B204601F0DEF800F082FC00F06FBC54
S1138780A70800200F21002074200020782000205A
S11387907C20002080200020A22000F05FBC292043
S11387A000F05CBC01F023FE00F059BC84B0DFF89B
S11387B0681C68462C2201F0BDF80FBC04F0A8FF29
S11387C0DFF8582CDFF8581C1268694D101808603F
S11387D0084605F087F8DFF84C1C08600A22416956
S11387E0643941610169491C0161816891FBF2F1BD
S11387F030312970816891FBF2F202EB8203A1EB24
S11388004301303169700A22416891FBF2F1303141
S1138810A9700A21406890FBF1F101EB8102A0EB01
S113882042003030E8700020A075A42000F016BC8F
S113883084B0DFF8E41B68462C2201F07BF80FBCFF
S113884004F066FFDFF8D42BDFF8D41B1268484D20
S113885010180860084605F045F8DFF8C81B0860E2
S113886002694169521C6439026141610A2291FB27
S1138870F2F130312970416991FBF2F202EB82038B
S1138880A1EB4301303169700A22016991FBF2F1D5
S11388903031A970016991FBF2F202EB8203A1EB82
S11388A043013031E9700A22C16891FBF2F13031A1
S11388B029710A21C06890FBF1F101EB8102A0EB60
S11388C04200303068710020A075A520C6E300BFC7
S11388D070080020740800208420002088200020D4
S11388E08C200020A820B9E3DFF88C5BDFF8800738
S11388F01422294601F01EF814222946204601F0CC
S113890019F8D1A0DFF8741B02780A707F20207751
S11389100120A076642060760020A075A9209DE344
S1138920AC209BE3DFF8505BDFF8440714222946B0
S113893001F000F814222946204600F0FBFFC2A0F3
S1138940DFF8381B02780A707F2020770120A07698
S1138950642060760020A075AD207FE3DFF8841BDF
S1138960CF200870AE2020620020607777E300BF3C
S1138970041F002020200020B02FFFFFC81F00206C
S1138980B1206BE3207FA17D7F282DD1012919D14E
S1138990DFF8E45ADFF8D8061422294600F0CAFFAB
S11389A014222946204600F0C5FFA7A0DFF8CC1A00
S11389B002780A707F2020770120A07664206076F8
S11389C0002058E0002900F04A8320202077FBF79C
S11389D0A7FCA07DDFF8102B401EA0750021C0B2BB
S11389E081547F2020773AE3DFF8FC5A48557F20F2
S11389F02029207780F23383481CA0750021C0B25F
S1138A0041552CE3A17D032934DBDFF8DC5ADFF880
S1138A10DC6A2A786B78A2F1300000EB8001A3F1C4
S1138A20300000EB4102182A32601ED2DFF8C03A4F
S1138A301A60A978E8783039303801EB810200EB0C
S1138A4042013C2931600ED2DFF8A80A1A6881611C
S1138A50C261002141610020DFF8C01908600120D3
S1138A60DFF8941A49E0B220F8E2B220F6E2A17DE0
S1138A70062902DA481CA075F1E2DFF86C5ADFF827
S1138A806C6A2A786B78A2F1300000EB8001A3F1C4
S1138A90300000EB4102112A326032D3A87800EB97
S1138AA08001E87800EB4100A0F11001287900EB87
S1138AB08003687900EB43001038D2B2C9B2C0B267
S1138AC000F062FD01281AD1DFF8280A31688162BA
S1138AD0A97801EB8102E97801EB4201A1F5047167
S1138AE04162297901EB8102697901EB4201A1F527
S1138AF0047101620120DFF8041A0870AFE2B320A8
S1138B00ACE2B320AAE2B720A8E2B820A6E2DFF8DC
S1138B10F0090188CA0758BF41F001015AD54FF640
S1138B20FE7256E0DFF8D80901888A0758BF41F081
S1138B3002014FD54FF6FD724BE0DFF8C4090188FE
S1138B404A0758BF41F0040144D54FF6FB7240E098
S1138B50DFF8AC0901880A0758BF41F0080139D58C
S1138B604FF6F77235E0DFF898090188CA0658BF56
S1138B7041F010012ED54FF6EF722AE0DFF880099C
S1138B8001888A0658BF41F0200123D54FF6DF72D1
S1138B901FE0DFF86C0901884A0658BF41F0400124
S1138BA018D54FF6BF7214E0DFF8540901880A069D
S1138BB058BF41F080010DD54FF67F7209E0DFF810
S1138BC040090188CA0558BF41F4807102D54FF6A7
S1138BD0FF621140018042E2DFF82809017801298F
S1138BE040F03D82062101700020DFF81C19086066
