S0390000736B2D666D332D3438706D632D757362737469636B5F7573625F6465766963655F7669727475616C5F636F6D5F706F72742E73726563CC
S113000028050020BDA20100D9A20100DDA2010043
S1130010E1A20100E5A20100E9A201000000000044
S1130020000000000000000000000000EDA201003C
S1130030F1A2010000000000F5A20100F9A20100F4
S1130040FDA2010001A3010005A3010009A3010011
S11300500DA3010011A30100019A0000115B00002F
S1130060CFA001006D9C000025A30100754A01008A
S11300702DA30100F577000035A3010079A3010049
S113008079A3010039A301003DA3010079A3010074
S113009079A3010079A3010079A3010041A3010020
S11300A045A30100CDA001004DA3010079A30100E7
S11300B051A3010055A3010059A301005DA3010050
S11300C079A3010079A30100D9A00100E5A00100F2
S11300D079A3010079A3010069A301006DA30100C4
S11300E071A3010075A3010079A3010079A30100A4
S11300F079A3010079A3010079A3010079A3010088
S113010038B5224DE87E012833D1214C21492046BF
S113011005F087FE012802DB012102221BE019A160
S1130120204605F07EFE012802DB0121002212E0B8
S11301301949204605F075FE012802DB0121012240
S113014009E011A1204605F06CFEE97D6A7D0128D5
S1130150A4BF01210322E9750021287E6A75E9768E
S113016038B10E4805F0A9FF2046BDE8324005F03D
S1130170A4BF31BD05487F217E2200230170C273D4
S1130180837670475550000045534300D4FEFF1F4B
S113019038FCFF1F8C7B0100947B01009C7B0100D9
S11301A0F0B5DFF8944C206AE92883B002F26D813F
S11301B0DFE810F0EA00F60002010E011F01580109
S11301C09A11E011F0111413311354138813E0132E
S11301D0FE131C14321450148414B414E4141415AF
S11301E0AA15DB15161647167816A916DA160B1774
S11301F03A1766179117BC17E71712183D186B11B9
S1130200D701E301560FE50FF00F680F7C0F8E0F37
S1130210A20FB40FC80FDA0FF40100020C02180287
S1130220240230023C024802540260026C0278024A
S1130230840290029C02A802B402C002CC02D8023A
S1130240E402F002FC020803140320032C03380325
S11302506B11440350035C036803740380038E032F
S11302609A03A603B903C803D703E303EF03FB030D
S113027007042A0451047A04A404CA04EF041405EC
S1130280390560058505AA05D005F4051806390663
S11302903D06440668068B06AF06CC06E906F3065F
S11302A0FD061A073E074A075A076B116B116B11BB
S11302B0B007CF07EE070D082C0855087E08A708DD
S11302C0D108F90846096D099409BB09E209260A0F
S11302D0330A3F0A4B0A570A630A6F0A7B0A870AE2
S11302E0930A9F0AAB0AB70AC40AD10AE20AEF0AC0
S11302F0FC0A0C0B190B260B360B430B500B5D0B36
S11303006B116E0B7B0B880B980BA50BB20BC20BFE
S1130310CF0BDD0B0E09EE0BFB0B080C180C250C98
S11303206B1106102C107C108C10B410C41090109B
S1130330A210EF10C410421170117B1186116610C7
S11303407010310C420C4C0C620C900CB00CCD0CA7
S1130350F00C0D0D300D4D0D6E0D8B0DA80DCA0D4D
S1130360F40D1B0E510E630E750E8A0E9E0EB60E04
S1130370E20E000F1B0F3A0F650171017D01890127
S11303809A01A701B401C1011422DFF8D41CDFF8DB
S1130390D40C05F0C9FE1422DFF8F01C01F06ABE8B
S11303A01422DFF8BC1CDFF8BC0C05F0BDFE1422DF
S11303B0DFF8DC1C01F0D1BC1422DFF8A41CDFF848
S11303C0A40C05F0B1FE1422DFF8C81C01F0C5BC72
S11303D01422DFF88C1CDFF88C0C05F0A5FE142227
S11303E0DFF8B41C204605F09FFE7F20207001F04A
S11303F046BE657EDFF8A41CDFF8680C142205F005
S113040093FE1422DFF8981C204605F08DFEA07D93
S1130410032808D8DFE800F0020B131CDFF8841C63
S11304200878A071CE256576012002F0B1B8782055
S1130430A071CF25DFF86C1C4878E071F3E77820D1
S1130440A071E071D025DFF85C0C81782172EAE7B5
S11304507820A071E0712072D125DFF8481CC8789B
S11304606072E0E71422DFF8341CDFF8F80B05F0C3
S11304705BFE1422DFF8301C204602F086B81422FA
S1130480DFF8281CDFF8DC0B05F04EFE1422DFF841
S1130490201C01F0EFBD1422DFF8101CDFF8C40BA0
S11304A005F042FE1422DFF80C1C01F056BC1422A5
S11304B0DFF8F81BDFF8AC0B05F036FE1422DFF88A
S11304C0F81B01F04ABC1422DFF8E01BDFF8940BA0
S11304D005F02AFE1422DFF8E41B204605F024FE72
S11304E07F20207001F0CBBD1422DFF8D41BDFF88D
S11304F0740B05F019FE1422DFF8C81B204602F025
S113050044B81422DFF8C01BDFF8580B05F00CFECA
S11305101422DFF8B81B204602F037B81422DFF8A3
S1130520B01BDFF8400B05F0FFFD1422DFF8A41B1D
S1130530204602F02AB81422DFF89C1BDFF8240BB3
S1130540DFF8985B05F0F0FDDFF8940B0268DFA19B
S1130550284605F049FE2146284605F0DFFC02F056
S113056016B81422DFF87C1BDFF8F80A05F0DCFD6E
S11305701422DFF8741B01F07DBD1422DFF8641B24
S1130580DFF8E00A05F0D0FD1422DFF8601B2046F6
S113059005F0CAFD7F20207001F071BD1422DFF840
S11305A0501BDFF8C00A05F0BFFD1422DFF8441B1E
S11305B001F060BD1422DFF8381BDFF8A80A05F04B
S11305C0B3FD1422DFF8301B01F0C7BB1422DFF89F
S11305D0201BDFF8900A05F0A7FD1422DFF81C1B8E
S11305E001F0BBBB1422DFF8081BDFF8780A05F022
S11305F09BFD1422DFF8081B01F0AFBB1422DFF8C7
S1130600F01ADFF8600A05F08FFD1422DFF8F41AFF
S113061001F0A3BB1422DFF8D81ADFF8480A05F06A
S113062083FD1422DFF8E01A01F097BB1422DFF8EF
S1130630C01ADFF8300A05F077FD1422DFF8CC1A6F
S113064001F08BBB1422DFF8A81ADFF8180A05F0B2
S11306506BFD1422DFF8B81A01F07FBB1422DFF817
S1130660901ADFF8000A05F05FFD1422DFF8501D30
S113067001F073BB1422DFF8781ADFF8E80905F0FB
S113068053FD1422DFF83C1D01F067BB1422DFF890
S1130690601ADFF8D00905F047FD1422DFF8281DA1
S11306A001F05BBB1422DFF8481ADFF8B80905F043
S11306B03BFD1422DFF8141D01F04FBB1422DFF8B8
S11306C0301ADFF8A00905F02FFD1422DFF8241DED
S11306D001F043BB1422DFF8181ADFF8880905F08B
S11306E023FD1422DFF8101D01F037BB1422DFF8BC
S11306F0001ADFF8700905F017FD1422DFF8FC1C5E
S113070001F02BBB1422DFF8E819DFF8580905F0D3
S11307100BFD1422DFF8E81C01F01FBB1422DFF8E4
S1130720D019DFF8400905F0FFFC1422DFF8D41CCF
S113073001F013BB1422DFF8B819DFF8280905F01B
S1130740F3FC1422DFF8C01C01F007BB1422DFF80D
S1130750A019DFF8100905F0E7FC1422DFF8AC1C3F
S113076001F0FBBA1422DFF88819DFF8F80805F065
S1130770DBFC1422DFF8981C01F0EFBA1422DFF836
S11307807019DFF8E00805F0CFFC1422DFF8841CB0
S113079001F0E3BA1422DFF85819DFF8C80805F0AD
S11307A0C3FC1422DFF8701C01F0D7BA1422DFF85E
S11307B04019DFF8B00805F0B7FC1422DFF85C1C20
S11307C001F0CBBA1422DFF82819DFF8980805F0F5
S11307D0ABFC1422DFF8481C01F0BFBA1422DFF886
S11307E01019DFF8800805F09FFC1422DFF8341C90
S11307F001F0B3BA1422DFF8F818DFF8680805F03E
S113080093FC1422DFF8201C01F0A7BA1422DFF8AD
S1130810E018DFF8500805F087FC1422DFF80C1C00
S113082001F09BBA1422DFF8C818DFF8380805F085
S11308307BFC1422DFF8F81B01F08FBA1422DFF8D6
S1130840B018DFF8200805F06FFC1422DFF8E41B71
S113085001F083BA1422DFF89818DFF8080805F0CD
S113086063FC1422DFF8D01B01F077BA1422DFF8FE
S11308708018DFF8F00705F057FC1422DFF8BC1BE2
S113088001F06BBA1422DFF86818DFF8D80705F016
S11308904BFC1422DFF8281D01F05FBA1422DFF8A4
S11308A05018DFF8C00705F03FFC1422DFF8141DD0
S11308B001F053BA1422DFF83818DFF8A80705F05E
S11308C033FC1422DFF8001D01F047BA2564000050
S11308D01422DFF81C18DFF88C0705F025FC14221D
S11308E0DFF8E81C01F039BA1422DFF80418DFF845
S11308F0740705F019FC1422DFF8D41C01F02DBA9A
S11309001422DFF8EC17DFF85C0705F00DFC142265
S1130910DFF8C01C204605F007FC7F202070FFF79D
S113092029FC01F0ACBB1422DFF8C417DFF834074C
S113093005F0FAFBDFF8A00C90E82E0084E82E0006
S113094001F00EBA1422DFF8A817DFF8180705F033
S1130950EBFBDFF8880C90E82E0084E82E0001F011
S1130960FFB91422DFF88817DFF8F80605F0DCFB7E
S11309701422DFF86C1C01F0F0B91422DFF87017B0
S1130980DFF8E00605F0D0FB1422DFF8581C01F074
S1130990E4B91422DFF85817DFF8C80605F0C4FBE1
S11309A01422DFF8441C01F0D8B91422DFF84017F0
S11309B0DFF8B00605F0B8FB1422DFF8301C01F0B4
S11309C0A3BA1422DFF8281CDFF8980605F0ACFB64
S11309D041F288330022DFF81C1C204605F004FC99
S11309E0DFF8C0060178A1714278E2718178217242
S11309F0C278A07D6272032801F24183DFE810F01F
S1130A00270A26004F0079001422DFF8541DDFF86E
S1130A10540605F089FB1E230222DFF8D81B20466A
S1130A2005F0E2FBDFF87C060178A1714278E271FF
S1130A3081782172C278A07D6272032801F21F833B
S1130A40DFE810F0050A04002D005700CF2161767D
S1130A50012001F09DBD1422DFF8581DDFF80406C3
S1130A6005F062FB4FF4FA730A22DFF8881B204674
S1130A7005F0BAFBDFF82C060178A1714278E27127
S1130A8081782172C278A07D6272032801F2F78214
S1130A90DFE810F0DD09040005002F00D6E7D021BF
S1130AA06176012001F074BD1422DFF85C1DDFF8CB
S1130AB0B40505F039FB4FF4FA730A22DFF8341B4E
S1130AC0204605F091FBDFF8DC050178A17142783E
S1130AD0E27181782172C278A07D6272032801F2EA
S1130AE0CE82DFE810F0B409050004000600D6E762
S1130AF0ACE7D1216176012001F04ABD1422DFF870
S1130B00781DDFF8600505F00FFB4FF4FA7300223F
S1130B10DFF8E01A204605F067FBDFF88805017866
S1130B20A1714278E27181782172C278A07D6272EB
S1130B30032801F2A482DFE810F08A090600050008
S1130B400400D6E7ABE781E71422DFF8801DDFF865
S1130B50140505F0E9FAC8230122DFF8981A2046A3
S1130B6005F042FBDFF83C050178A1714278E2719F
S1130B7081782172C278A07D6272032801F27F829B
S1130B80DFE810F06509060005000400B1E786E718
S1130B905CE71422DFF8881DDFF8C80405F0C4FA06
S1130BA0C8230122DFF84C1A204605F01DFBDFF8AC
S1130BB0F4040178A1714278E27181782172C278DB
S1130BC0A07D6272032801F25A82DFE810F0400926
S1130BD00600050004008CE761E737E71422DFF81C
S1130BE0981DDFF8800405F09FFAC8230122DFF87E
S1130BF0041A204605F0F8FADFF8A8040178A17178
S1130C004278E27181782172C278A07D62720328F1
S1130C1001F23582DFE810F01B090600050004002C
S1130C2067E73CE712E71422DFF8A01DDFF834047D
S1130C3005F07AFA4FF4E1534FF49672DFF8B419E1
S1130C40204605F0D1FADFF85C040178A1714278FE
S1130C50E27181782172C278A07D6272032801F268
S1130C600E82DFE810F0F40806000500040040E7F7
S1130C7015E7EBE61422DFF8BC1DDFF8E80305F006
S1130C8053FA14230122DFF86C19204605F0ACFA5C
S1130C90DFF810040178A1714278E2718178217241
S1130CA0C278A07D6272032801F2E981DFE810F0C6
S1130CB0CF080600050004001BE7F0E6C6E6142290
S1130CC0DFF8AC1DDFF89C0305F02EFA3C2301226B
S1130CD0DFF82019204605F087FADFF8C803017809
S1130CE0A1714278E27181782172C278A07D62722A
S1130CF0032801F2C481DFE810F0AA080600050009
S1130D000400F6E6CBE6A1E61422DFF8681DDFF85E
S1130D10540305F009FA4FF461633222DFF8D41862
S1130D20204605F061FADFF87C030178A17142786E
S1130D30E27181782172C278A07D6272032801F287
S1130D409E81DFE810F08408060005000400D0E668
S1130D50A5E67BE61422DFF8B81DC24805F0E4F9E5
S1130D603C230A22DFF88C18204605F03DFADFF810
S1130D7034030178A1714278E27181782172C278DA
S1130D80A07D6272032801F27A81DFE810F0600826
S1130D90060005000400ACE681E657E61422DFF8FD
S1130DA0E81DB04805F0C0F94FF461631E22DFF876
S1130DB04418204605F018FABA480178A17142781F
S1130DC0E27181782172C278A07D6272032801F2F7
S1130DD05681DFE810F03C0806000500040088E6B0
S1130DE05DE633E61422DFF8A41D9E4805F09CF965
S1130DF01422DFF89C1D204605F096F9A9480178D5
S1130E00A1714278E27181782172A17DC07860720B
S1130E10002901F01C8001293FF418AE03293FF496
S1130E2068AE01F02CB91422DFF8DC1DDDE71422D2
S1130E30DFF8D81DD9E700BFD4FEFF1F1422DFF866
S1130E40D01D884805F070F94FF4FA630022DFF8EA
S1130E50A417204605F0C8F992480178A171427898
S1130E60E27181782172C278A07D6272032801F256
S1130E700681DFE810F0EC0706000500040038E600
S1130E800DE6E3E51422DFF8001E764805F04CF980
S1130E903C231422DFF85C17204605F0A5F98148AD
S1130EA00178A1714278E27181782172C278A07DC3
S1130EB06272032801F2E380DFE810F0C90706003C
S1130EC00500040015E6EAE5C0E51422DFF8BC1DC0
S1130ED0644805F029F940F6C4130522DFF8141715
S1130EE0204605F081F96F480178A1714278E271DA
S1130EF081782172C278A07D6272032801F2BF80DA
S1130F00DFE810F0A507060005000400F1E5C6E5DA
S1130F109CE51422DFF8241E524805F005F914223A
S1130F20DFF81C1E204605F0FFF85E480178A17129
S1130F304278E27181782172A17DC07860720029C3
S1130F4000F0858702293FF4AAAD67E71422DFF891
S1130F50F41D444805F0E8F81422DFF80C1E20467E
S1130F6005F0E2F84F480178A1714278E271817886
S1130F702172A17DC0786072002900F0688702297F
S1130F803FF48DAD4AE71422DFF8E01D354805F043
S1130F90CBF81422DFF8D81D2DE71422DFF8D41D76
S1130FA0304805F0C1F81422DFF8C41D23E71422E9
S1130FB0DFF8C41D2B4805F0B7F81422DFF8BC1D78
S1130FC0204605F0B1F837480178A1714278E27102
S1130FD081782172A17DC0786072002900F0378782
S1130FE002293FF45CAD19E71422DFF83C141D48D4
S1130FF005F09AF84FF4FA630A22DFF8F815204650
S113100005F0F2F827480178A1714278E2718178FD
S11310102172C278A07D6272032801F23080DFE879
S113102010F0160706000500040062E537E50DE53B
S11310301422DFF8541D0B4805F076F81422DFF86B
S11310404C1D204601F011BA1422DFF8441D054856
S113105005F06AF81422DFF83C1D01F00BB800BF5C
S11310605C7D010058FFFF1F1422DFF8241DDFF808
S1131070280D05F059F81422DFF8481E204605F023
S113108053F87F20207000F0FABF00BF707D01008C
S1131090847D0100987D0100AC7D0100C07D0100CC
S11310A0D47D0100F8FEFF1FE87D0100FC7D0100F6
S11310B0107E0100247E0100387E01004C7E010078
S11310C0607E0100747E0100887E01009C7E010028
S11310D0B07E0100C47E0100D87E010058F9FF1FD4
S11310E044FDFF1FEC7E0100007F0100147F01001E
S11310F0287F01003C7F0100507F0100647F0100D4
S1131100787F01008C7F0100A07F0100B47F010083
S1131110C87F01001422DFF8FC1DDFF87C0C05F009
S113112003F81422DFF8F01D204604F0FDFFDFF879
S1131130EC0D0178A1714278E27181782172A17D70
S1131140C0786072002900F0828602293FF4A7ACBF
S113115064E61422DFF81C1EDFF83C0C04F0E4FF04
S11311601422DFF8B41D204604F0DEFFDFF8AC0DD6
S11311700178A1714278E27181782172A17DC078F1
S11311806072002900F0638602293FF488AC45E6CA
S11311901422DFF8141EDFF8000C04F0C5FF14223B
S11311A0DFF8081E204604F0BFFFDFF8700D017859
S11311B0A1714278E27181782172A17DC078607258
S11311C0002900F0448602293FF469AC26E6142283
S11311D0DFF8DC1DDFF8C00B04F0A6FF1422DFF8F3
S11311E0381D204604F0A0FFDFF8300D0178A1710E
S11311F04278E27181782172A17DC0786072002901
S113120000F0258602293FF44AAC07E61422DFF8F1
S1131210101EDFF8840B04F087FF42F20F730022E4
S1131220DFF8001E204604F0DFFFDFF8F00C017841
S1131230A1714278E27181782172C278A07D6272D4
S1131240032800F21C87DFE810F0020608000600FD
S11312500400FFF74EBCFFF722BCFFF7F7BB1422D4
S1131260DFF8441EDFF8300B04F05EFF42F20F7328
S11312700022DFF8B01D204604F0B6FFDFF89C0C16
S11312800178A1714278E27181782172C278A07DDF
S11312906272032800F2F386DFE810F0D905080033
S11312A006000400FFF725BCFFF7F9BBFFF7CEBB30
S11312B01422DFF8401EDFF8E00A04F035FF4FF493
S11312C07A733222DFF85C1D204604F08DFFDFF8CC
S11312D04C0C0178A1714278E27181782172A17D70
S11312E0C0786072032900F2CA86DFE811F0B00505
S11312F0080006000400FFF7FCBBFFF7D0BBFFF7B4
S1131300A5BBDFF83C0EDFF8901A90E86C0081E88A
S11313106C0040F637130022DFF8081D204604F065
S113132063FFDFF8F80B0178A1714278E2718178EC
S11313302172C278A07D6272032800F2A086DFE8E1
S113134010F08605080006000400FFF7D2BBFFF783
S1131350A6BBFFF77BBB1422DFF8341EDFF8380A84
S113136004F0E2FE1E230522DFF8B81C204604F038
S11313703BFFDFF8A80B0178A1714278E271817814
S11313802172C278A07D6272032800F27886DFE8B9
S113139010F05E05080006000400FFF7AABBFFF783
S11313A07EBBFFF753BB1422DFF8001EDFF8E80909
S11313B004F0BAFE1422DFF8F81D00F05BBE00BF93
S11313C0DC7F0100F07F010004800100188001002F
S11313D01422DFF8D81DDFF8C00904F0A5FE14229A
S11313E0DFF8D01D204604F09FFE7F20207000F01F
S11313F046BE00BF2C8001004080010054800100E3
S1131400688001007C80010090800100A4800100BC
S1131410B8800100CC800100E0800100F48001006C
S1131420088101001C810100308101004481010018
S1131430588101006C8101008081010094810100C8
S11314401422DFF8741DDFF8500904F06DFE142235
S1131450DFF8681D204604F067FEDFF8C00A017853
S1131460A1714278E27181782172C278A07D6272A2
S1131470032800F20486DFE810F0EA0408000600FE
S11314800400FFF736BBFFF70ABBFFF7DFBA1422ED
S1131490DFF8141EDFF8000904F046FE1422DFF81A
S11314A01C1D204604F040FEDFF8700A0178A1718B
S11314B04278E27181782172C278A07D6272032839
S11314C000F2DD85DFE810F0C30408000600040024
S11314D0FFF70FBBFFF7E3BAFFF7B8BA1422DFF840
S11314E0141EDFF8B40804F01FFE1422DFF8CC1C2D
S11314F0204604F019FEDFF8240A0178A17142782D
S1131500E27181782172C278A07D6272032800F2B0
S1131510B685DFE810F09C04080006000400FFF71D
S1131520E8BAFFF7BCBAFFF791BA1422DFF8FC1D42
S1131530DFF8640804F0F8FD1E2302222D4920463A
S113154004F052FEDFF8D4090178A1714278E27107
S113155081782172C278A07D6272032800F28F859F
S1131560DFE810F07504080006000400FFF7C1BAB4
S1131570FFF795BAFFF76ABA1422DFF8B41DDFF853
S1131580180804F0D1FD1E2302221A49204604F053
S11315902BFEDFF888090178A1714278E271817825
S11315A02172C278A07D6272032800F26885DFE8A8
S11315B010F04E04250023000400FFF79ABA00BF80
S11315C0A8810100BC810100D0810100E4810100F7
S11315D0F88101000C8201002082010030820100A8
S11315E04082010054820100688201007C82010073
S11315F090820100A4820100FFF751BAFFF726BAD6
S11316001422DFF8301DDFF8900704F08DFD14225A
S1131610DFF8241D204600F0B8BF14225049DFF83B
S1131620780704F081FD1422DFF80C1D204600F039
S1131630ACBF14225F49DFF8600704F075FD142283
S1131640DFF8F41C204600F0A0BF14226E49DFF836
S1131650480704F069FD1422DFF8DC1C204600F082
S113166094BF14228449DFF8300704F05DFD14228E
S1131670DFF8C41C204600F088BF14229349DFF829
S1131680180704F051FD1422DFF8AC1C204600F0CA
S11316907CBF1422A249DFF8000704F045FD1422A0
S11316A0DFF8941C204600F070BF1422B249DFF822
S11316B0E80604F039FD1422DFF87C1C204600F013
S11316C064BF1422C149DFF8D00604F02DFD1422B2
S11316D0DFF8641C204600F058BF1422D549DFF817
S11316E0B80604F021FD1422DFF84C1C204600F05B
S11316F04CBF1422DE49DFF8A00604F015FD1422C5
S1131700DFF8341C204600F040BF1422D949DFF82A
S1131710880604F009FD1422DFF81C1C204600F0A2
S113172034BF1422DFF8E813DFF86C0604F0FCFC85
S11317301422DFF8041C204600F027BF1422DFF82F
S11317404814DFF8540604F0EFFC1422DFF8E81B19
S1131750204600F01ABF1422DFF8C41D02E000BFC7
S1131760B8820100DFF8300604F0DEFC1422DFF852
S1131770C81B204600F009BF1422DFF88C14DFF8E0
S1131780180604F0D1FC1422DFF8AC1B204600F04C
S1131790FCBE1422DFF87414DFF8FC0504F0C4FC6A
S11317A01422DFF8941B204600F0EFBE1422DFF869
S11317B0741D01E0CC820100DFF8DC0504F0B4FC08
S11317C01422DFF8741B204600F0DFBE1422DFF879
S11317D0B814DFF8C40504F0A7FC1422DFF8581B82
S11317E0204600F0D2BE1422DFF8A014DFF8A805CA
S11317F004F09AFC1422DFF8401B204600F0C5BE1A
S11318001422DFF8381501E0E0820100DFF88805D2
S113181004F08AFC1422DFF8201B204600F0B5BE39
S11318201422DFF82015DFF8700504F07DFC142283
S1131830DFF8041B204600F0A8BE1422DFF8B01D18
S1131840DFF8540504F070FC1422DFF8EC1A20468B
S113185000F09BBE1422DFF89C1DDFF83C0504F069
S113186063FC1422DFF8D01A204600F08EBE142246
S1131870DFF8041502E000BFF4820100DFF8180568
S113188004F052FC1422DFF8B01A204600F07DBEAA
S11318901422DFF88016DFF8000504F045FC14225A
S11318A0DFF8941A204600F070BE1422DFF8C41644
S11318B0DFF8E40404F038FC1422DFF87C1A204634
S11318C000F063BE1422DFF8E01601E00883010093
S11318D0DFF8C40404F028FC1422DFF85C1A204664
S11318E000F053BE1422DFF8C816DFF8AC0404F08D
S11318F01BFC1422DFF8401A204600F046BE1422D6
S1131900DFF81C17DFF8900404F00EFC1422DFF853
S1131910281A204600F039BE1422DFF88C1701E0A3
S11319201C830100DFF8700404F0FEFB1422DFF8CE
S1131930081A204600F029BE1422DFF8B817DFF891
S1131940580404F0F1FB1422DFF8EC19204600F0EF
S11319501CBEDFF8EC07DFF8401490E86C0081E867
S11319606C001422DFF8D019204600F00EBE1422B9
S1131970DFF81C1802E000BF30830100DFF8180410
S113198004F0D2FB1422DFF8B019204600F0FDBDAC
S11319901422DFF82418DFF8000404F0C5FB142235
S11319A0DFF89419204600F0F0BD1422DFF8601D22
S11319B0DFF8E40304F0B8FB1422DFF87C192046B6
S11319C000F0E3BD1422DFF82C1901E04483010088
S11319D0DFF8C40304F0A8FB1422DFF85C192046E6
S11319E000F0D3BD1422DFF84419DFF8AC0304F08F
S11319F09BFB1422DFF84019204600F0C6BD1422D8
S1131A00DFF82C19E44804F08FFB1422DFF82819BE
S1131A10204600F0BABD1422DFF8481DDE4804F069
S1131A2083FB1422DFF8401D204604F07DFB0020D8
S1131A30A0765AE2588301001422DFF8281DD64804
S1131A4004F072FB1422DFF8241D86E11422DFF86F
S1131A50141DD14804F068FB1422DFF8141D20463D
S1131A6004F062FB00207F21A076217000F00DBD00
S1131A706C830100808301001422DFF8F81CC6483F
S1131A8004F052FB1422DFF8F01C204604F04CFB57
S1131A900020A076DFF8E42C107800F00101002982
S1131AA0C4BF4822A27010F00201C4BF4822627170
S1131AB010F00401C4BF4822227210F00801C4BF10
S1131AC04822E27210F0100040F3DF844820A07333
S1131AD000F0DBBC1422DFF8A81CAF4804F024FBA0
S1131AE00020DFF8A01CA0760A7802F00102002A88
S1131AF0CCBFA3A2A3A2DFF8905CDFF87C1D28462C
S1131B0004F072FB2146284604F008FAB2E100BF53
S1131B10948301001422DFF8681C9F4804F004FB3E
S1131B200020DFF8601CA0760A7802F00202002A86
S1131B30CCBF93A293A2DFF8505CDFF8401D284687
S1131B4004F052FB2146284604F0E8F9CBE11422C4
S1131B50DFF82C1C904804F0E7FA0020DFF8241C7E
S1131B60A0760A7802F00402002ACCBF84A285A2DF
S1131B70DFF8145CDFF8081D284604F035FB214625
S1131B80284604F0CBF9AEE1A8830100BC83010030
S1131B90D08301001422DFF8E81B7F4804F0C4FA64
S1131BA00020DFF8E01BA0760A7802F00802002A81
S1131BB0CCBF73A273A2DFF8D05BDFF8C81C284641
S1131BC004F012FB2146284604F0A8F98BE1142204
S1131BD0DFF8AC1B704804F0A7FA0020DFF8A41B60
S1131BE0A0760A7802F01002002ACCBF64A265A293
S1131BF0DFF8945BDFF8901C284604F0F5FA2146E0
S1131C00284604F08BF96EE1E4830100F8830100B7
S1131C100C8401001422DFF8681B5F4804F084FA86
S1131C200020DFF8601BA0760A7802F02002002A68
S1131C30CCBF53A253A2DFF8505BDFF8B81C284690
S1131C4004F0D2FA2146284604F068F94BE1142244
S1131C50DFF82C1B504804F067FA0020DFF8241B3F
S1131C60A0760A7802F04002002ACCBF44A245A222
S1131C70DFF8145BDFF8801C284604F0B5FA21462F
S1131C80284604F04BF92EE120840100348401003D
S1131C901422DFF8EC1A404804F046FA0020DFF87A
S1131CA0E41AA0760A7802F08002002ACCBF34A29B
S1131CB034A2DFF8D45ADFF8441C284604F094FA1E
S1131CC02146284604F02AF90DE11422DFF8B01A5F
S1131CD0314804F029FA0020DFF8A81AA0760A880F
S1131CE002F48072002ACCBF25A226A2DFF8985AFB
S1131CF0DFF80C1C284604F077FA2146284604F045
S1131D000DF9F0E01422DFF8781A234804F00CFAF5
S1131D100021DFF8F02BA176107800280CBF18A260
S1131D2018A2DFF8645ADFF8E01B284604F05CFAD6
S1131D302146284604F0F2F8D5E000BF48840100AB
S1131D405C840100708401001422DFF8341A124804
S1131D5004F0EAF91422DFF8B41B204604F0E4F995
S1131D60FEF708FA91E300BF84840100988401001F
S1131D70AC840100C0840100D4840100E884010023
S1131D804F4646004F4E0000FC84010010850100C0
S1131D90248501003885010058FFFF1F1422DFF855
S1131DA06C1BDFF8740B04F0BFF964230022DFF826
S1131DB06C1B204604F018FA58480178A171427847
S1131DC0E27181782172C278A07D6272032800F2E8
S1131DD05681DFE810F03C00080006000400FEF71E
S1131DE088BEFEF75CBEFEF731BE1422DFF8901900
S1131DF0DFF8240B04F098F9DFF8243BDFF8241B08
S1131E001868096800EB8002500004F00DFA1E23E4
S1131E100222DFF8081B204604F0E6F93F48017867
S1131E20A1714278E27181782172C278A07D6272D8
S1131E30032800F22481DFE810F00A0008000600FD
S1131E400400FEF756BEFEF72ABEFEF7FFBDCE2104
S1131E50617601209CE31422DFF8CC1ADFF8B80A7B
S1131E6004F062F90020A0761422DFF8C01A20469C
S1131E7004F05AF97E20E07307E31422DFF8A81A6D
S1131E80DFF8940A04F050F91422DFF8A41A20466B
S1131E9004F04AF97F207E212070E1733BE2142292
S1131EA0DFF8841ADFF8700A04F03EF91422DFF830
S1131EB0841A204604F038F97F207E212070E173D3
S1131EC029E200BF4C8501001422DFF85C1ADFF818
S1131ED0480A04F029F90020A0761422DFF8581AE1
S1131EE0204604F021F97F2020707E21E173CCE2AA
S1131EF01422DFF8341ADFF8200A04F015F9002060
S1131F00A0761422DFF8341A204604F00DF97F205D
S1131F102070BAE26085010074850100F8FEFF1F9D
S1131F201422DFF81C1ADFF8F009DFF85C5804F01B
S1131F30FBF80020A076DFF80C1A4868DFF8081ACE
S1131F400E78012E0CD104F0C7FCDFF8002ADFF86C
S1131F50003A04F0E5FC0B460246DFF8F81905E008
S1131F6004F0BAFC0B460246DFF8EC19284604F0EC
S1131F703BF970E0888501001422DFF8C01CDFF80B
S1131F809809DFF8045804F0CFF80020A076642103
S1131F90DFF8AC2C106890FBF1F2DFF8A81C28469F
S1131FA004F022F957E000BF9C850100B0850100D0
S1131FB0C48501001422DFF8901CDFF85C09DFF807
S1131FC0C85704F0B1F80021DFF8800CA17600684E
S1131FD004F08AFDDFF8781C04F098FD04F07CFC22
S1131FE00B460246DFF86C1C32E01422DFF8681C52
S1131FF0DFF82409DFF8905704F096F80021DFF8A1
S11320005C0CA176006804F06FFDDFF8541C04F04A
S11320107DFD04F061FC0B460246DFF8481C17E026
S1132020D8850100EC8501001422DFF8401CDFF89C
S1132030E808DFF8545704F077F80021DFF8380C8B
S1132040A176006804F048FC0B460246DFF82C1C1D
S1132050284604F0C9F82146284603F05FFF14E23D
S11320601422DFF81C1CDFF8B00804F05DF8142219
S1132070DFF8101C204604F057F87E20E07300219E
S1132080A17602E21422DFF8F81BDFF88C0804F0D2
S11320904BF81422DFF8F01B204604F045F87F20AB
S11320A07E212070E17336E1FC8501001422DFF803
S11320B0D01BDFF8640804F037F81422DFF8CC1BD7
S11320C0204604F031F87F207E222070E2735EE225
S11320D01422DFF8AC1BDFF8400804F025F81422C2
S11320E0DFF8AC1B204604F01FF87F207E2220700E
S11320F0E2734CE2108601001422DFF8841BDFF83F
S1132100180804F011F81422DFF8881B204604F0A4
S11321100BF87F207E222070E27338E21422DFF86D
S1132120601BDFF8F40703F0FFFF1422DFF8681BDD
S1132130204603F0F9FF7F207E222070E27326E21E
S1132140248601001422DFF8381BDFF8CC0703F0E3
S1132150EBFF1422DFF8441B204603F0E5FF7F2049
S11321607E222070E27312E21422DFF8141BDFF8DF
S1132170A80703F0D9FF1422DFF8241BC6E0DFF818
S113218004164FF6F47008802A2222627DE100BF13
S1132190348601001422DFF80C1BDFF87C0703F0FF
S11321A0C3FF1422DFF8DC1AEEE100BF4886010009
S11321B05C86010070860100848601009886010017
S11321C01422DFF8E41ADFF8500703F0ADFF1422FD
S11321D0DFF8D81A204603F0A7FF0120A076DFF825
S11321E0D00A017861714178A17181782172214608
S11321F0C0784872A07D032800F24781DFE810F020
S11322003400040037003900CE212EE01422DFF818
S1132210A41ADFF8040703F087FF1422DFF8981AE2
S1132220204603F081FFDFF8880A017861712D23CD
S11322304178A171E37182782272C2786272A372CA
S113224001220179E1722146407908738A76887DFA
S1132250052800F21A81DFE810F0070006000A00E2
S11322600C000E001000CFE7CD2161760DE1D020E7
S113227004E0D12002E0D32000E0D420487604E139
S11322801422DFF8381ADFF8900603F04DFF142209
S1132290294979E11422DFF8281ADFF87C0603F0D3
S11322A043FF142224496FE1AC8601001422DFF8B5
S11322B0141ADFF8640603F037FF1422DFF8081A53
S11322C0204603F031FF7E20E07324E01422DFF87F
S11322D0F41914E01422DFF8F419DFF83C0603F0D3
S11322E023FF1422DFF8E019204603F01DFF7E20AF
S11322F0E07310E0C08601001422DFF8D019DFF883
S1132300180603F011FF1422DFF8C419204603F065
S11323100BFF7F2020700022A276B6E0DFF868442D
S11323202022214640F2FD2039E000BFD48601007E
S1132330E886010090820100487D0100A07D002113
S1132340030018D0DFF86829DFF888C9D55CDFF806
S1132350C825A0F1480600F164070F2BD9BFD55456
S1132360BE460CF80350B64684F819E0491C5FFADF
S113237081FE8645F1D3DFF8600901700F2B207FC1
S1132380C7BFDFF85029D054DFF88C15C854FEF7C6
S11323904BB8DFF8F4432022214640F21D3004F00C
S11323A03DFD0020DFF87025DFF8305984F8200067
S11323B000211346207808B3CEB20F2E03DC187028
S11323C00020587004E0A5F11006307000207070F1
S11323D0491C607890B1CEB20F2E03DC58700020F7
S11323E0987004E0A5F1100670700020B070491CCC
S11323F0AD1C9B1CA41CC8B22028DBDBCBB2202B59
S113240016DAD018DFF8D4281A440025CBB20F2BE3
S113241003DC20230370457004E0A2F110032024A0
S11324201C705D70491C521C401CCBB2202BEDDB90
S1132430DFF8A428117028E0DFF8A4080178CB396C
S113244008D0091F06D0891E022903D9C91E0229F2
S11324500ED910E01422DFF88C18DFF8BC0403F066
S113246063FE1422DFF88018204603F05DFE0CE0C2
S1132470C220206209E0617F491CCAB2002A07BF5A
S1132480CF220270C3202062617703B0BDE8F04020
S113249003F08CBA1422DFF84C18DFF87C0403F044
S11324A043FE1422DFF84418DEE71422DFF8341860
S11324B0DFF8640403F038FE1422DFF83418D3E79D
S11324C01422DFF83018DFF8500403F02DFE142234
S11324D0DFF82418204603F027FEAA490A884FF69D
S11324E0F07002400A80D0E70021DFF81038A176AE
S11324F01878401E10D0401E032805D9401F042818
S113250006D9093801280FD80A22DFF8F4170EE09B
S11325100922DFF8F0170AE00B22DFF8641D06E059
S1132520FC860100108701000922DFF8581D964837
S1132530954C03F0E9FDDFF8E013204603F0EEFCD0
S1132540DFF8442D10686421B0FBF1F2DFF8F416D3
S1132550204603F049FEDFF88417204603F0DEFC32
S1132560DFF8281D086800288FD0DFF870072121C4
S1132570C1738AE71422DFF8181DDFF89C0303F007
S1132580D3FD1422DFF80C1D204603F0CDFD0020FE
S1132590A0767AE7DFF86467DFF8FC5C0020A076B9
S11325A0794C3078112800F2C980DFE800F0090E78
S11325B01725385669727B848D969FA8B3BD2E5F0C
S11325C0DFF8D81C0A682A60B8E00522DFF8D01CBE
S11325D0204603F099FDDFF8CC0CADE00A22DFF8C9
S11325E0C81C204603F090FDDFF8C00CA4E000BF37
S11325F024870100388701000722DFF8B41C204635
S113260003F082FDDFF8AC0C96E01022DFF8A81C82
S1132610204603F079FDDFF8A40C01788DE0062252
S1132620DFF89C1C204603F06FFDDFF8981CDFF8F0
S1132630982C0968107870B9DFF8903CDFF86C7C4E
S11326401868DFF8703C3A68414318688218B1FB97
S1132650F2F0286072E049086FE01022DFF8701C85
S1132660204603F051FDDFF86C0C65E01122DFF821
S1132670681C204603F048FDDFF8600C01785CE03C
S11326800922DFF8001C204603F03EFDDFF8140C9D
S113269052E00E22DFF8481C204603F035FDDFF837
S11326A0440C49E00F22DFF8401C204603F02CFDC7
S11326B0DFF8380C40E00D22DFF8341C204603F02C
S11326C023FDDFF8300C37E00E22DFF82C1C204607
S11326D003F01AFDDFF8240C2EE00A22DFF8201C98
S11326E0204603F011FDDFF81C0C25E01122DFF871
S11326F0181C204603F008FDDFF8A80B1CE010228C
S1132700DFF8081C204603F0FFFCDFF8040C13E09C
S11327104C8701000C22DFF8FC1B204603F0F4FC7C
S1132720DFF8F40B017808E00D22DFF8F01B2046F7
S113273003F0EAFCDFF8E80B0168296076492046DB
S113274003F0ECFB3078012803D10622DFF8D41B18
S113275004E006281AD10622DFF8CC1B204603F039
S1132760D3FC23E06087010074870100888701009F
S11327709C870100B0870100C4870100FCFCFF1F97
S1132780D8870100FCFFFF1F58F9FF1FDFF8141B57
S113279028680A68821A12F10A0FB8BF0246DFF8E5
S11327A08C0B02605AA1204603F01EFDDFF8806BFB
S11327B02A6858A1304603F017FD3146204604F03C
S11327C04DFDDFF8181503F0A9FBDFF810157F2085
S11327D008707E220020CA73887656E61422DFF839
S11327E0541B4D4803F0A0FCDFF84C1BDFF84C0BE6
S11327F00B6802689A1A48BF0022DFF8300BDFF832
S1132800404BDFF8401B0260204603F0EDFCDFF88C
S1132810CC142046D7E71422DFF82C1B3E48DFF8FF
S1132820204B03F081FC4849DFF8200B0A7800684C
S1132830012A0AD104F050F8444A454B04F070F8D8
S11328400B460246DFF8081B8EE004F01BFD02462F
S1132850DFF8001B204603F0C7FC88E01422DFF8F1
S1132860F81A2D4803F060FCDFF82C1ADFF8EC3A74
S113287000200880002211E0EC870100F8870100A5
S1132880048801000C88010014880100185D18B147
S113289082184878401C4870641C0C700C78042C16
S11328A0F4DD4878DFF8B81ADFF8944AB2FBF0F2A6
S11328B00A602046DFF8AC1A03F096FCDFF81C141B
S11328C0204680E71422DFF8A01A1348DFF8704A84
S11328D003F02AFC1C491B480A784068012A3DD1B0
S11328E003F0FAFF194A1A4B04F01AF80B46024691
S11328F0184939E01C8801002C8801003C8801003B
S1132900488801001A0100205488010064880100ED
S1132910256400002F25640058FFFF1FA4820100D6
S113292094000020A4000020788801008C88010015
S1132930A0880100B4880100C8880100DC88010077
S1132940F088010024E0FF1F7BE8FF1F77D5F270B9
S1132950AAE8D03F048901001489010003F0BCFFF8
S11329600B460246DFF8041A204603F03DFCDB491F
S1132970204628E71422DFF8F819DFF8F809DFF811
S1132980C04903F0D1FBDFF8F009006804F0ACF8AB
S1132990DFF8E81904F0BAF803F09EFF02460B468C
S11329A0DFF8DC19204603F01FFCCC4920460AE777
S11329B01422DFF8D019DFF8BC09DFF8844903F0EA
S11329C0B3FBDFF8C409006804F08EF8DFF8AC1933
S11329D004F09CF803F080FF02460B46DFF8A019D0
S11329E0204603F001FCBD492046ECE61422DFF842
S11329F09C19DFF88009DFF8484903F095FB9E48ED
S1132A00006803F069FF02460B469C49204603F028
S1132A10EBFBB2492046D6E61422DFF87419DFF83E
S1132A20540903F081FBDFF864180868002814BF18
S1132A308DA28FA2DFF808498EA1204603F0D4FBB3
S1132A40A649204603F06AFAA4497F2008700022B0
S1132A508A761AE5DFF81C49DFF838191422204673
S1132A6003F062FBDFF824080178CA0705D5592072
S1132A70607365217320A173E0730622DFF8B058F8
S1132A80294642F6503004F0C9F92879E978DFF88C
S1132A90B0486B782A7802900191A878DFF8F8188A
S1132AA00090204603F0A0FB0020207420468B49B0
S1132AB003F034FA89497E20C873C8E7DFF8B448C4
S1132AC0DFF8D8181422204603F02EFBDFF8BC07E9
S1132AD00168C1F3400028B1592060736521732057
S1132AE0A173E0730622DFF84858294642F65630AF
S1132AF004F094F92879E978DFF844486B782A7867
S1132B0002900191A878DFF890180090204603F015
S1132B106BFB002020742046704954E6DFF85448CB
S1132B20DFF87C181422204603F0FEFADFF85C0775
S1132B300168C1F3800028B15920607365217320B6
S1132B40A173E0730622DFF8E857294642F65C30A9
S1132B5004F064F92879E978DFF8E4476B782A7897
S1132B6002900191A878DFF830180090204603F015
S1132B703BFB002020742046584924E6DFF8F44744
S1132B80DFF820181422204603F0CEFADFF8FC0602
S1132B900168C1F3C00028B1592060736521732016
S1132BA0A173E0730622DFF88857294642F66230A3
S1132BB004F034F92879E978DFF884476B782A78C7
S1132BC002900191A878DFF8D0170090204603F016
S1132BD00BFB0020207420464049F4E5DFF89447BD
S1132BE0DFF8C4171422204603F09EFADFF89C068F
S1132BF00168C1F3001028B1592060736521732066
S1132C00A173E0730622DFF82857294642F668309C
S1132C1004F004F92879E978DFF824476B782A78F6
S1132C2002900191A878DFF870170090204603F015
S1132C30DBFA0020207420462849C4E520890100DD
S1132C4010E0FF1F348901004089010044E0FF1FA8
S1132C5000007A44548901006089010054FFFF1F79
S1132C600000204174890100594553008089010006
S1132C704E4F000025730000D40000209489010009
S1132C80A0890100B4890100C8890100DC89010020
S1132C90F0890100048A0100188A01002C8A0100CD
S1132CA0408A0100548A0100688A01007C8A01007C
S1132CB0F8FEFF1F908A0100A48A0100B88A01006F
S1132CC0CC8A0100E08A0100F48A01001C8B010017
S1132CD0088B0100C4FEFF1F08010020D4FEFF1F63
S1132CE089FDFF1F308B0100448B0100588B0100CC
S1132CF06C8B0100808B0100948B01007AE8FF1F2C
S1132D00A88B0100B48B0100DFF86846DFF89C163D
S1132D101422204603F008FADFF870050168C1F3B5
S1132D20401028B15920607365217320A173E073AA
S1132D300622DFF8FC55294642F66E3004F06EF8A0
S1132D402879E978DFF8F8456B782A7802900191C0
S1132D50A878DFF844160090204603F045FA0020D6
S1132D6020742046DFF848162DE5DFF80846DFF822
S1132D7044161422204603F0D7F9DFF83C160868FD
S1132D8028B94E2161732E204521A073E173DFF829
S1132D90FC040168C1F3801028B1592060736521D7
S1132DA07320A173E0730622DFF88455294642F6A6
S1132DB0743004F033F82879E978DFF884456B78C7
S1132DC02A7802900191A878DFF8CC15009020466B
S1132DD003F00AFA002020742046DFF8D415F2E448
S1132DE0DFF89045DFF8D4151422204603F09CF94F
S1132DF0DFF898040168C1F3C01028B1592060734A
S1132E0065217320A173E0730622DFF82455294657
S1132E1042F67A3004F002F82879E978DFF82045A0
S1132E206B782A7802900191A878DFF86C150090ED
S1132E30204603F0D9F9002020742046DFF87015ED
S1132E40C1E4DFF83045DFF878151422204603F09A
S1132E506BF9DFF838040168C1F3002028B1592068
S1132E60607365217320A173E0730622DFF8C054F8
S1132E7029464FF42E5003F0D1FF2879E978DFF882
S1132E80C0446B782A7802900191A878DFF808157D
S1132E900090204603F0A8F9002020742046DFF8B3
S1132EA0101590E4DFF8CC44DFF8181514222046FE
S1132EB003F03AF9DFF8D4030168C1F3402028B1E4
S1132EC05920607365217320A173E0730622DFF833
S1132ED06054294642F6863003F0A0FF2879E97849
S1132EE0DFF85C446B782A7802900191A878DFF8C7
S1132EF0A8140090204603F077F90020207420469F
S1132F00DFF8AC145FE4DFF86C44DFF8BC1414227F
S1132F10204603F009F9DFF874030168C1F3802047
S1132F2028B15920607365217320A173E0730622D0
S1132F30DFF8FC53294642F68C3003F06FFF287902
S1132F40E978DFF8FC436B782A7802900191A8783D
S1132F50DFF844140090204603F046F90020207462
S1132F602046DFF84C142EE4DFF80844DFF85C1444
S1132F701422204603F0D8F8C4480168C1F3C020E5
S1132F8028B15920607365217320A173E073062270
S1132F90DFF89C53294642F6923003F03FFF28792C
S1132FA0E978DFF89C436B782A7802900191A8783D
S1132FB0DFF8E4130090204603F016F90020207493
S1132FC02046DFF8EC13FFF7FEBBDFF8A843DFF879
S1132FD000141422204603F0A7F8AC480168C1F39A
S1132FE0003028B15920607365217320A173E07308
S1132FF00622CF4D294642F6983003F00FFF287978
S1133000E978CF4C6B782A7802900191A878DFF8A0
S113301088130090204603F0E7F80020207420462F
S1133020DFF88C13FFF7CFBBD24CDFF8A8131422C0
S1133030204603F079F895480168C1F3403028B17F
S11330405920607365217320A173E0730622B84D83
S1133050294642F69E3003F0E1FE2879E978B84C1F
S11330606B782A7802900191A878CB490090204689
S113307003F0BAF8002020742046CD49FFF7A3BB23
S1133080BC4CD5491422204603F04EF87F48016811
S1133090C1F3803028B15920607365217320A17376
S11330A0E0730622A24D294642F6A43003F0B6FE90
S11330B02879E978A24C6B782A7802900191A87853
S11330C0B5490090204603F08FF800202074204674
S11330D0B749FFF778BBA74CC0491422204603F038
S11330E023F86A480168C1F3C03028B159206073DD
S11330F065217320A173E07306228D4D294642F6A3
S1133100AA3003F08BFE2879E9788D4C6B782A7805
S113311002900191A878A0490090204603F064F839
S1133120002020742046A249FFF74DBB914CAC49C6
S11331301422204602F0F8FF54480168C1F300400D
S113314028B15920607365217320A173E0730622AE
S1133150774D294642F6B03003F060FE2879E978CD
S1133160774C6B782A7802900191A8788A4900906C
S1133170204603F039F80020207420468C49FFF7DC
S113318022BB7C4C97491422204602F0CDFF3F48D5
S11331900168C1F3404028B1592060736521732050
S11331A0A173E0730622624D294642F6B63003F05D
S11331B035FE2879E978624C6B782A78029001917F
S11331C0A87875490090204603F00EF8002020747A
S11331D020467749FFF7F7BA664C83491422204604
S11331E002F0A2FF29480168C1F3804028B15920A8
S11331F0607365217320A173E07306224C4D294648
S113320042F6BC3003F00AFE2879E9784C4C6B781E
S11332102A7802900191A8785F490090204602F034
S1133220E3FF0020207420466149FFF7CCBA514CDB
S11332306E491422204602F077FF14480168C1F356
S1133240005028B15920607365217320A173E07385
S11332500622374D294642F6C83003F0DFFD2879AF
S1133260E978374C6B782A7802900191A8784A491A
S11332700090204602F0B8FF00202074FFF7E0BB66
S1133280C08B0100CC8B01005C000020C00000203A
S1133290D88B0100EC8B0100D0FFFF1F9CFFFF1FA8
S11332A0008C010028000020088C01001CE8FF1F8E
S11332B0148C010020E8FF1F1C8C01001601002063
S11332C02C8C010024E8FF1F100100202C0000209A
S11332D0348C010060000020448C010017010020A0
S11332E0588C01002CE8FF1F688C010030E8FF1F98
S11332F0788C01003CE8FF1F888C010040E8FF1F28
S1133300988C010058E8FF1FA48C0100B88C0100C0
S113331060E8FF1FC88C01007CE8FF1FD48C01000B
S113332044E8FF1F8C7B0100E48C01001C0000209A
S113333038F3FF1F1087010028E8FF1F64000020F6
S113334058F9FF1FEC8C0100F48C010048000020A8
S1133350088D0100148D01001C8D0100E8FFFF1F82
S113336024000020308D0100388D010014890100F3
S11333704C8D010058FFFF1F2CFCFF1F0000C842AA
S1133380608D0100688D010030FCFF1F7C8D010001
S1133390908D0100A87B0100387D0100BC7B0100F9
S11333A0D07B0100E47B0100F87B01000C7C010070
S11333B0D4FEFF1F207C01006C000020347C01003F
S11333C0487C01005C7C0100707C0100847C01006D
S11333D0987C0100AC7C0100C07C0100D47C01001D
S11333E0E87C0100FC7C0100107D0100247D0100CB
S11333F0F0B587B0FCF784FEDFF8944CE07D01283B
S113340040F00C81617D206A002203290546E275A3
S113341000F2FE80DFE811F00400150172028A1048
S1133420401EE42800F2F480DFE810F084117511E6
S1133430F601FA00F200F200F200A312340236029E
S113344038023A023C023E0240024202F200F60F07
S11334504402460248024A024A024C024E02500208
S113346052025402560258025A025C025E02600280
S113347062026402F20007010901F200F200F200A4
S113348063039D121D122012231226127712F200DA
S1133490B11187118A118D119011931196119911FF
S11334A09C119F11A211A511A811AB11AE11B41159
S11334B0B711BA11BD11C011C311C611C911CC1174
S11334C0CF11D211860AF2001602F011F311F6118F
S11334D0F911FC11FF110212051208120B120E123F
S11334E0111214121712FA00FA00FA00FA00FA0084
S11334F0FA00FA00FA00FA00FA00FA00FA00FA00F8
S1133500FA00FA00FA00FA00FA00FA00FA00FA00E7
S1133510FA00FA00FA00FA00FA00F200F2000501DB
S1133520F200F200F200FA00FA00FA00FA00FA00DF
S1133530FA00FA00FA00FA00F200FA00FA00FA00BF
S1133540FA00FA00F200F200F200F200F200F200D7
S1133550F200F200F200F200F200F200F200F200D7
S1133560F200F200F200F200F200F200F200F200C7
S1133570F200F200F200F200F200F200F200F200B7
S1133580F200F200F200F200F2000301F200F20095
S1133590F200F200F200F200FA00FA00F20029123E
S11335A0F200E500F2005012F200E500F200F20031
S11335B0F200F200F200F200F2008A128D12F20020
S11335C0F200160F1C021E0220022202240226020E
S11335D028022A022C02FA00F200F200AC121802AD
S11335E01A02B712F200F200F200F200F200F20046
S11335F078117B117E11207F7A2805DA401CC1B234
S11336005C2904D15D2002E014BF20207F202077B4
S1133610256207B0BDE8F040FCF7C2BD07B0F0BDBD
S1133620A07DDFF8701A0A5C392AF1DA521C0A54B8
S1133630EEE78725ECE77925EAE72525E8E726255F
S1133640E6E7E428E4D8DFE810F06610E700841128
S1133650E500FA00E5002501E500270129012B0119
S11336602D012F01310133019711E5003501370197
S113367039013B013D013D013F0141014301450148
S1133680470149014B014D014F01510153015501BE
S11336905701E500E6007811E5008E11E500E5002C
S11336A00E1111111411171168111F01E500781082
S11336B07B107E108110841087108A108D1090105A
S11336C09310961099109C109F10A510A810AB1081
S11336D0AE10B110B410B710BA10BD10C010C310A2
S11336E077090701E110E500E410E710EA10ED1096
S11336F0F010F310F610F910FC10FF100211051170
S113370008110B11E500FA00FA00FA00FA00FA00B9
S1133710FA00FA00FA00FA00FA00FA00FA00FA00D5
S1133720FA00FA00FA00FA00FA00FA00FA00FA00C5
S1133730FA00FA00FA00FA00FA00E5000301E500D5
S1133740E500E500E500FA00FA00FA00FA00FA00E4
S1133750FA00FA00FA00FA000501FA00FA00FA0089
S1133760FA00FA00E500E500E500E500E500E50003
S1133770E500E500E500E500E500E500E500E5001D
S1133780E500E500E500E500E500E500E500E5000D
S1133790E500E500E500E500E500E500E500E500FD
S11337A0E500E500E500E500E500E500E500E500ED
S11337B0E500E500E500E500FA00FA002101E50076
S11337C0E500E9002301E500E500E900E500E50086
S11337D0E500E500E500E5007E119A11E500E5004D
S11337E00D010F01110113011501170119011B012D
S11337F01D018111E500FA00E50009010B01A81182
S1133800AB11E500E500E500E500E500E5006C101E
S11338106F107210FCE612E70225F9E6207F2028DB
S11338200BDD7F2808BF7A203FF4F1AE401EC1B201
S11338305C297FF4ECAE5B20E9E67F20E7E6A07D1F
S1133840DFF850180A5C312AFFF6E2AE521EEEE6AB
S11338507A25DDE6B025DBE64D25D9E6D925D7E680
S1133860DA25D5E6CC25D3E6CD25D1E6CE25CFE69F
S1133870CF25CDE6D025CBE6D125C9E6D225C7E6AE
S1133880D325C5E6D425C3E63125C1E6BA25BFE66E
S1133890BE25BDE60825BBE60925B9E60A25B7E637
S11338A00B25B5E60C25B3E60D25B1E60E25AFE6EE
S11338B00F25ADE61225ABE61325A9E61425A7E6E8
S11338C01525A5E61725A3E61825A1E619259FE6E3
S11338D01A259DE61B259BE61C2599E61D2597E6E2
S11338E01E2595E61F2593E6202591E621258FE6E2
S11338F022258DE623258BE6242589E6E5283FF657
S113390087AEDFE810F0E7000B0FEC00F600F800DC
S1133910E6004D0D850D4D0DE600E600E600E600DF
S1133920E600E600E600890D8C0D920D980DA30DBE
S1133930A90DAF0DB50DE600C10DC70DCD0DD30D0D
S1133940D90DDF0DE50DEB0DE600E600E600E6001F
S1133950E600440F1D10FA0AE600E600FD0A010B1A
S1133960480BBC0FE30FDD0BE50B93010F011601B0
S11339701D0124012B0132013901400147014E018F
S113398055015C0163016A019A01B501D001D701B7
S1133990DE01E50106022E0256027F02A802B002F1
S11339A0B302E600BB02E4020D0336035F036703C0
S11339B06F0377037F0387038F039903A303AD0387
S11339C0B503D303F7031A04400466048A04AD0460
S11339D0D004F4041B053F0563058A05AF05D6052D
S11339E00E063E066E069206B606DA061207430770
S11339F07307A307D507FB0741085808E600E6004C
S1133A00E6007008A208D308140945096609870965
S1133A10AA09CB09EB093F0A640A890AAE0AD40A47
S1133A20E600E600E600E600E600E600E600E60062
S1133A30E600E600E600E600E600E600E600E60052
S1133A40E600E600E600E600E600E600E600E60042
S1133A50E600E600E600E600E600E600E600E60032
S1133A60E600E600E600010AE600E600E600E600FD
S1133A70E600E600270C5A0C9D0BA00BE600E80BB1
S1133A80BD0BC00BE600E80BE600E600E600E6002E
S1133A90E600E600A60CA90C3F10E600AC0CBB0C3B
S1133AA0C80CD40CE00CEC0CF80C040D100D1C0D1F
S1133AB0BD03250DE600F10DF40DFB0D0D0E100EEA
S1133AC0E600E600E600E600E600070109010B0156
S1133AD00D019DE5002003F0E1FB256A98E5A27540
S1133AE0DFF8B415DFF8AC05052202F01DFB042550
S1133AF08EE528258CE5A07D0328C1F22C84DFF80F
S1133B009C15DFF8900503F05DFC00283FF497ADA9
S1133B1005257DE5E6257BE5E72579E5E82577E5D7
S1133B20E92575E5DFF87805006802F0D9F85F2526
S1133B306EE5DFF87005006802F0D2F8602567E5ED
S1133B40DFF86405006802F0CBF8612560E5DFF872
S1133B50F00D006802F0C4F8622559E5DFF8E40DC1
S1133B60006802F0BDF8632552E5DFF8DC0D00685B
S1133B7002F0B6F864254BE5DFF8D00D006802F0DA
S1133B80AFF8652544E5DFF8C80D006802F0A8F831
S1133B9066253DE5DFF8BC0D006802F0A1F8672555
S1133BA036E5DFF8B40D006802F09AF868252FE5D1
S1133BB0DFF8A80D006802F093F8692528E5DFF81E
S1133BC0A00D006802F08CF86A2521E5DFF8940D59
S1133BD0006802F085F86B251AE5DFF88C1D09688A
S1133BE00A20B1FBF0F202EB8205DFF8A804A1EB96
S1133BF045053035C5700A23B2FBF3F303EB8305A7
S1133C002E26A2EB45028670303242706426B1FB48
S1133C10F6F10A22B1FBF2F202EB8203A1EB4301BB
S1133C20303101700020A0756C25F1E4DFF83C0D03
S1133C30006802F055F85E25EAE4DFF8341D0968EF
S1133C400A20B1FBF0F202EB82033032DFF84404C5
S1133C5042706422A1EB4303B1FBF2F130332E2511
S1133C603031C370857001700020A0756D25CFE4DC
S1133C70DFF8001D09680A20B1FBF0F202EB8203B1
S1133C803032DFF8100442706422A1EB4303B1FB2D
S1133C90F2F130332E253031C3708570017000206D
S1133CA0A0756E25B4E4DFF8D00C006802F018F8B3
S1133CB06F25ADE4DFF8C40C006802F011F870253C
S1133CC0A6E4DFF8BC0C006802F00AF871259FE452
S1133CD0DFF8B01C09680A20B1FBF0F202EB8205A0
S1133CE0EC48A1EB45053035C5700A23B2FBF3F36C
S1133CF003EB8305A2EB4502303282706423B1FBEF
S1133D00F3F12E223031427001700020A07572252B
S1133D107EE4DFF8F01D09680A20B1FBF0F202EB43
S1133D208205DC48A1EB45053035C5700A23B2FB9A
S1133D30F3F303EB8305A2EB4502303282702E23AA
S1133D4064254370B1FBF5F10A22B1FBF2F202EBF8
S1133D508203A1EB4301303101700020A07573256B
S1133D6056E4DFF8A41D09680A20B1FBF0F202EB67
S1133D708205C848A1EB45053035C5700A23B2FB5E
S1133D80F3F303EB83052E26A2EB45028670303253
S1133D9042706426B1FBF6F10A22B1FBF2F202EBA7
S1133DA08203A1EB4301303101700020A07574251A
S1133DB02EE4DFF8581D09680A20B1FBF0F202EB8B
S1133DC08205B448A1EB45053035C5700A23B2FB22
S1133DD0F3F303EB83052E26A2EB45028670303203
S1133DE042706426B1FBF6F10A22B1FBF2F202EB57
S1133DF08203A1EB4301303101700020A0757525C9
S1133E00FFF706BCDFF8081D09680A20B1FBF0F2D1
S1133E1002EB82059F48A1EB45053035C5700A23A6
S1133E20B2FBF3F303EB8305A2EB4502303282705D
S1133E302E2364254370B1FBF5F10A22B1FBF2F2A3
S1133E4002EB8203A1EB4301303101700020A07525
S1133E507625FFF7DDBBDFF8BC0C806801F040FF7E
S1133E607725FFF7D5BB7825FFF7D2BBDFF8A81C71
S1133E70087800287FF4ECACFFF7DDBBDFF89C1C6E
S1133E8009680A20B1FBF0F202EB82058148A1EB3C
S1133E9045053035C5700A23B2FBF3F303EB830504
S1133EA0A2EB4502303282702E2364254370B1FBAD
S1133EB0F5F10A22B1FBF2F202EB8203A1EB43011A
S1133EC0303101700020A0757E25FFF7A1BBDFF81B
S1133ED0501C09680A20B1FBF0F202EB82056D4820
S1133EE0A1EB45053035C5700A23B2FBF3F303EBB0
S1133EF08305A2EB4502303282702E236425437081
S1133F00B1FBF5F10A22B1FBF2F202EB8203A1EB61
S1133F104301303101700020A0757F25FFF778BB85
S1133F20DFF8001C09680A20B1FBF0F202EB8205FD
S1133F305848A1EB45053035C5700A23B2FBF3F3AD
S1133F4003EB8305A2EB4502303282702E236425F5
S1133F504370B1FBF5F10A22B1FBF2F202EB8203EA
S1133F60A1EB4301303101700020A0758025FFF7DB
S1133F704FBBDFF8981D09680A20B1FBF0F202EB91
S1133F8082054448A1EB45053035C5700A23B2FBD0
S1133F90F3F303EB8305A2EB4502303282702E2348
S1133FA064254370B1FBF5F10A22B1FBF2F202EB96
S1133FB08203A1EB4301303101700020A0758125FB
S1133FC0FFF726BBDFF8740D006801F089FE822537
S1133FD0FFF71EBBDFF8680D006801F081FE832542
S1133FE0FFF716BBDFF85C0D006801F079FE84254D
S1133FF0FFF70EBBDFF8500D006801F071FE852558
S1134000FFF706BBDFF8440D006801F069FE862562
S1134010FFF7FEBADFF8381D087800287FF41AACE1
S1134020FFF707BBDFF82C0D006801F059FE0120F3
S1134030A0758825FFF7ECBADFF81C0D006801F0C5
S11340404FFE0120A0758925FFF7E2BADFF80C0DB9
S1134050006801F045FE0120A0758A25FFF7D8BA53
S1134060DFF8FC0C007801F03BFE8B25FFF7D0BA9B
S1134070DFF8F00C007801F033FE8C25FFF7C8BAA6
S1134080DFF8E40C006801F02BFED625FFF7C0BA78
S1134090D4FEFF1FF8FEFF1FA48D010048FDFF1F83
S11340A01CE8FF1F20E8FF1F24E8FF1FA07D032852
S11340B0C1F25181DFF8B45C01F0F8FD41F28931BD
S11340C08842286013D2DFF8A428DFF8A41C10600B
S11340D00860022240F2191002F053FE1422DFF8A5
S11340E0941C204602F020F801F060FCF5E48D25D4
S11340F0FFF78EBAA07D0328C1F22D81DFF86C5C36
S113410001F0D4FD811E1C29286013D8DFF8682C27
S1134110DFF85C1C1060086001224FF4817002F02B
S113412030FE1422DFF84C1C204601F0FDFF01F0A4
S11341303DFCD2E48E25FFF76BBAA07D0328C1F2C3
S11341400A81DFF8285C01F0B1FDA0F10A0140F218
S1134150EB129142286013D2DFF8203CDFF8101CE8
S113416018600860022240F2031002F00AFE1422D2
S1134170DFF8001C204601F0D7FF01F017FCACE487
S11341808F25FFF745BAA07D0328C1F2E480DFF84C
S1134190DC5B01F08BFDA0F10A0140F2EB129142CD
S11341A0286013D2DFF8D83BDFF8C41B186008601E
S11341B0022240F2051002F0E4FD1422DFF8B41BE1
S11341C0204601F0B1FF01F0F1FB86E49025FFF7F2
S11341D01FBAA07D0328C1F2BE80DFF8905B01F016
S11341E065FD40F2F5118842286013D2DFF85027AC
S11341F0DFF87C1B10600860022240F2071002F016
S1134200C0FD1422DFF86C1B204601F08DFF01F085
S1134210CDFB62E49125FFF7FBB9A07D0328C1F231
S11342209A80DFF8485B01F041FD2860A8B1C828F6
S113423013D8DFF8101708600222DFF8341B086077
S113424040F2091002F09DFD1422DFF8281B2046DD
S113425001F06AFF01F0AAFB3FE49225FFF7D8B909
S1134260A07D0328C1F27780DFF8005B01F01EFD1A
S11342702860A8B1C82813D8DFF8CC160860022239
S1134280DFF8EC1A086040F20B1002F07AFD1422F9
S1134290DFF8E01A204601F047FF01F087FB1CE439
S11342A09325FFF7B5B9A07D0328C1F25480DFF848
S11342B0BC5A01F0FBFC2860B0B1C82814D8DFF860
S11342C08C1608600222DFF8A81A086040F20D106C
S11342D002F057FD1422DFF89C1A204601F024FF57
S11342E001F064FBFFF7F9BB9425FFF791B9A07DBA
S11342F00328C1F23080DFF8745A01F0D7FCA0F52E
S1134300967141F6F5229142286014D2DFF84036C6
S1134310DFF85C1A18600860022240F20F1002F005
S113432030FD1422DFF84C1A204601F0FDFE01F0A6
S11343303DFBFFF7D2BB9525FFF76AB9A07D0328A3
S1134340C1F20980DFF8245A01F0B0FC2860B0B152
S1134350142814D8DFF8FC1508600122DFF8101ABD
S1134360086040F2111002F00CFD1422DFF8041A68
S1134370204601F0D9FE01F019FBFFF7AEBB9625EC
S1134380FFF746B9A07D0328C0F2E587DFF8DC59C2
S113439001F08CFC2860B0B13C2814D8DFF8B815C3
S11343A008600122DFF8C81908604FF4897002F030
S11343B0E8FC1422DFF8BC19204601F0B5FE01F038
S11343C0F5FAFFF78ABB9725FFF722B9A07D0328EA
S11343D0C0F2C187DFF8945901F068FCA0F1320102
S11343E040F6DF529142286014D2DFF87035DFF8CE
S11343F0801918600860022240F2131002F0C1FC18
S11344001422DFF87019204601F08EFE01F0CEFA76
S1134410FFF763BB9825FFF7FBB8A07D0328C0F224
S11344209A87DFF8485901F041FCA0F10A013229CA
S1134430286014D8DFF82825DFF8341910600860E4
S1134440012240F2151002F09CFC1422DFF824191A
S1134450204601F069FE01F0A9FAFFF73EBB992559
S1134460FFF7D6B8A07D0328C0F27587DFF8FC58A3
S113447001F01CFCA0F11E0140F6F35291422860A9
S113448014D2DFF8E034DFF8E8181860086002227C
S11344904FF48B7002F075FC1422DFF8D818204614
S11344A001F042FE01F082FAFFF717BB9A25FFF7ED
S11344B0AFB8A07D032807DA401CC2B2022A08BFA5
S11344C00320A075FFF7A4B8DFF87C0D0278303A1A
S11344D002EB82014278C078303A02EB410202EBEF
S11344E08201303800EB4100DFF88018642808604E
S11344F014D8DFF87424DFF87818106008600122FB
S11345004FF48C7002F03DFC1422DFF8681820464A
S113451001F00AFE01F04AFAFFF7DFBA9B25FFF724
S113452077B8A07D0328C7DBDFF81C0D0278303A8A
S113453002EB82014278C078303A02EB410202EB8E
S11345408201303800EB4100DFF82018642808604D
S113455014D8DFF81C24DFF8181810600860012252
S113456040F21B1002F00DFC1422DFF8081820465C
S113457001F0DAFD01F01AFAFFF7AFBA9C25FFF754
S113458047B8A07D032897DBDFF8BC0C0278303AEB
S113459002EB82014278C078303A02EB410202EB2E
S11345A08201303800EB4100DFF8C017642808604E
S11345B014D8DFF8C023DFF8B817106008600122B0
S11345C04FF48E7002F0DDFB1422DFF8A8172046AA
S11345D001F0AAFD01F0EAF9FFF77FBA9D25FFF784
S11345E017B8A07D0328C0F2B686DFF8805701F023
S11345F05DFB40F2D1718842286013D2DE4ADFF8B5
S1134600701710600860022240F21D1002F0B9FB1E
S11346101422DFF86017204601F086FD01F0C6F988
S1134620FFF75BBA9E25FEF7F3BFA07D0328C0F217
S11346309286DFF8385701F039FBA0F114012829DC
S1134640286013D8CD4ADFF82817106008600122CB
S113465040F21F1002F095FB1422DFF818172046D1
S113466001F062FD01F0A2F9FFF737BA9F25FEF7CA
S1134670CFBFA07D0328C0F26E86DFF8F05601F0AC
S113468015FB411FB1F51C6F286013D2BC4ADFF83B
S1134690E0161060086002224FF4907002F071FB83
S11346A01422DFF8D016204601F03EFD01F07EF919
S11346B0FFF713BAA025FEF7ABBFA07D032806DAE7
S11346C0401CC2B2012A7FF4FCAE0220F9E6DFF8F6
S11346D0780B0278303A02EB82018278C078303A63
S11346E002EB410202EB8201303800EB4100DFF8BB
S11346F07C16A0F11902B02A086013D2A1490860FF
S11347000222DFF86C16086040F2231002F039FB35
S11347101422DFF86016204601F006FD01F046F988
S1134720FFF7DBB9A125FEF773BFA07D0328C7DB24
S1134730DFF8140B0278303A02EB82018278C078F9
S1134740303A02EB410202EB8201303800EB4100C7
S1134750DFF81816B0F57A7F086014D2DFF8A423C6
S1134760DFF80C1610600860022240F2251002F0F7
S113477008FB1422DFF8FC15204601F0D5FC01F0FB
S113478015F9FFF7AAB9A225FEF742BFA07D0328B9
S1134790FFF692AEDFF8B00A0278303A02EB8201FB
S11347A04278C078303A02EB410202EB82013038A1
S11347B000EB4100DFF8B4157928086013D2D24A1F
S11347C0DFF8AC1510600860022240F22B1002F0F2
S11347D0D8FA1422DFF89C15204601F0A5FC01F05C
S11347E0E5F8FFF77AB9A325FEF712BFA07D0328E9
S11347F0FFF662AEDFF8500A0278303A02EB82012B
S11348004278C078303A02EB410202EB8201303840
S113481000EB4100DFF854157928086013D2BB4A35
S1134820DFF84C1510600860022240F22D1002F0EF
S1134830A8FA1422DFF83C15204601F075FC01F0BB
S1134840B5F8FFF74AB9A425FEF7E2BEA07D032818
S1134850FFF636AFDFF8F0090278303A02EB820156
S11348608278C078303A02EB410202EB82013038A0
S113487000EB4100DFF8F414A0F13202962A08603C
S113488013D8A34908600222DFF8E414086040F258
S1134890311002F076FA1422DFF8D814204601F021
S11348A043FC01F083F8FFF718B9A525FEF7B0BE65
S11348B0A07D0328C0F24F85DFF8B05401F0F6F96B
S11348C0A0F10A0140F2C7729142286013D2914BC1
S11348D0DFF89C1498600860022240F2371002F05E
S11348E050FA1422DFF88C14204601F01DFC01F06C
S11348F05DF8FFF7F2B8A625FEF78ABE1422DFF8AA
S11349000C1CDFF80C0C01F00FFC1422DFF8041C63
S1134910204601F009FC01F049F802F05DFD142283
S1134920DFF8F41B204601F0FFFB01F03FF804F030
S113493085FD022005F047F84C25FEF769BE00BF4F
S1134940600000202CE8FF1F30E8FF1F34E8FF1F41
S113495038E8FF1F3CE8FF1F40E8FF1F58E8FF1F2F
S11349605CE8FF1F60E8FF1F4CE8FF1F50E8FF1FD3
S11349700CE8FF1F10E8FF1F28E8FF1F18E8FF1FBF
S113498054E8FF1F64E8FF1F63490A7040F23910BE
S1134990DFF8DC130A70012202F0F3F91422DFF8C5
S11349A07C1B204601F0C0FB01F000F8012005F05B
S11349B00AF8FFF792B85849012008700122DFF87D
S11349C0B0130A7040F2391002F0DBF91422DFF858
S11349D04C1B204601F0A8FB00F0E8FF012004F086
S11349E0F2FFFFF77AB8A07D0328FFF669AEDFF87F
S11349F05808DFF878330278303A02EB8201827883
S1134A00C078303A02EB410202EB8201303840F2C6
S1134A101D2200EB4100A0F132019142186011D235
S1134A203E4BD3491860086002224FF4A07002F094
S1134A30A8F91422CF49204601F076FB00F0B6FF16
S1134A40FFF74BB8A725FEF7E3BDA07D0328FFF6CB
S1134A5037AEDFF8F407C54B0278303A02EB820137
S1134A608278C078303A02EB410202EB820130389E
S1134A7040F21D2200EB4100A0F132019142186086
S1134A8011D2274BBA491860086002224FF4A17072
S1134A9002F077F91422B749204601F045FB00F0F3
S1134AA085FFFFF71AB8A825FEF7B2BDA07D03283D
S1134AB0FFF606AEDFF890070278303A02EB820187
S1134AC08278C078303A02EB410202EB820130383E
S1134AD000EB4100A54940F24F229042086023D2E6
S1134AE0104BA3491860086002224FF4A27002F030
S1134AF048F914229F49204601F016FB00F056FFA6
S1134B00FEF7EBBF68E8FF1F980000209C00002020
S1134B10A000002024E0FF1F7BE8FF1F7800002096
S1134B207C00002080000020A925FEF771BDA07D37
S1134B300328FFF6C5ADDFF810078C4B0278303A36
S1134B4002EB82018278C078303A02EB410202EB38
S1134B508201303840F21D2200EB4100A0F1320105
S1134B609142186011D2694B814918600860022291
S1134B704FF4A37002F005F914227E49204601F097
S1134B80D3FA00F013FFFEF7A8BFAA25FEF740BD35
S1134B90A07D0328C0F2DF83744D01F087F842F250
S1134BA010718842286011D2644A7149106008600B
S1134BB002224FF4A47002F0E4F814226D49204656
S1134BC001F0B2FA00F0F2FEFEF787BFAB25FEF764
S1134BD01FBDA07D0328C0F2BE83644D01F066F8BA
S1134BE042F210718842286011D2554A604910601F
S1134BF0086002224FF4A57002F0C3F814225D4944
S1134C00204601F091FA00F0D1FEFEF766BFAC2514
S1134C10FEF7FEBCA07D0328C0F29D83534D01F036
S1134C2045F8A0F1320140F2B7329142286011D226
S1134C30444B4F4918600860022240F24D1002F0C4
S1134C40A0F814224B49204601F06EFA00F0AEFEA3
S1134C50FEF743BFAD25FEF7DBBCA07D0328C0F201
S1134C607A83424D01F022F840F6381188422860D8
S1134C7011D2354A3E4910600860022240F24F10BA
S1134C8002F07FF814223B49204601F04DFA00F06F
S1134C908DFEFEF722BFAE25FEF7BABCA07D032829
S1134CA0C0F25983314D01F001F8411F1A292860DF
S1134CB011D2264A2E4910600860012240F2511098
S1134CC002F05FF814222B49204601F02DFA00F07F
S1134CD06DFEFEF702BFAF25FEF79ABC1C490A70B1
S1134CE04FF4D27022490A70012202F04AF81422C9
S1134CF0DFF82818204601F017FA00F057FE0120CB
S1134D0004F061FEFEF7E9BE114901E084000020D1
S1134D1001200870012216490A704FF4D27002F083
S1134D2030F81422DFF8F417204601F0FDF900F002
S1134D303DFE012004F047FEFEF7CFBE44E8FF1F0E
S1134D4048E8FF1F880000208C000020900000200D
S1134D50190100206CE8FF1F70E8FF1F74E8FF1FB3
S1134D6017010020160100207000002024000020FC
S1134D70D0FFFF1FAC8D01001CE8FF1F20E8FF1FC0
S1134D8024E8FF1FA07D0328C0F2E582DFF8685DF8
S1134D9000F08CFFA0F10A016E29286014D8DFF816
S1134DA0082CDFF8501E10600860022240F2A510A3
S1134DB001F0E7FF1422DFF8441D204601F0B4F9A6
S1134DC000F0F4FDFEF789BEB125FEF721BCA07DFD
S1134DD00328C0F2C082DFF8205D00F067FFA0F175
S1134DE00A016E29286014D8DFF8142DDFF8041E98
S1134DF010600860022240F2A71001F0C2FF1422E2
S1134E00DFF8F81C204601F08FF900F0CFFDFEF723
S1134E1064BEB225FEF7FCBBA07D0328C0F29B82D2
S1134E20DFF8D45C00F042FFA0F10A016E2928608B
S1134E3014D8DFF8D02CDFF8BC1D10600860022203
S1134E4040F2A91001F09DFF1422DFF8B01C2046A7
S1134E5001F06AF900F0AAFDFEF73FBEB325FEF7A4
S1134E60D7BBA07D0328C0F27682DFF88C5C00F00B
S1134E701DFF2860C0B140F2F511884214D2DFF85A
S1134E80882CDFF8701D1070086001224FF4CE707A
S1134E9001F077FF1422DFF8641C204601F044F986
S1134EA000F084FDFEF719BEB425FEF7B1BBA07D6A
S1134EB00328C0F25082DFF8405C00F0F7FE28605F
S1134EC0C0B140F2F511884214D2DFF8402CDFF86B
S1134ED0241D10700860012240F29D1001F051FF62
S1134EE01422DFF8181C204601F01EF900F05EFDC4
S1134EF0FEF7F3BDB525FEF78BBB2925FEF788BB6E
S1134F0002F016FAFEF7E9BD84B0DFF8EC1C68463F
S1134F102C2201F009F90FBC04F0F5FDDFF8DC6C7C
S1134F20DFF8DC5C3268DFF8DC6C00238018594160
S1134F30C5E90001284604F089FE306001460A23D1
S1134F4048698A686438486192FBF3F30869401C35
S1134F5008613033BC4803700A238A6892FBF3F378
S1134F6003EB8305A2EB4502303242700A234A6800
S1134F7092FBF3F3303383700A22496891FBF2F217
S1134F8002EB8203A1EB43013031C1700020A07514
S1134F90B725FEF73DBB84B0DFF85C1C68462C22C5
S1134FA001F0C2F80FBC04F0AEFDDFF8506CDFF87E
S1134FB0505C3268DFF84C6C002380185941C5E915
S1134FC00001284604F042FE014630600A234A6983
S1134FD00869643A401C4A61086192FBF3F29A48FA
S1134FE0303202704A6992FBF3F303EB8305A2EBC0
S1134FF04502303242700A230A6992FBF3F33033DC
S113500083700A230A6992FBF3F303EB8305A2EB93
S113501045023032C2700A23CA6892FBF3F330337C
S113502003710A22C96891FBF2F202EB8203A1EB3D
S11350304301303141710020A075B825FEF7E8BA6C
S1135040BB25FEF7E5BADFF8905CDFF8C404142250
S1135050294601F069F814222946204601F064F833
S1135060CEA0DFF8781C02780A700120A0767F2297
S11350706421002022776176A075BC25FEF7C8BAAA
S1135080BF25FEF7C5BADFF8505CDFF884041422AC
S1135090294601F049F814222946204601F044F833
S11350A0BEA0DFF8381C02780A700120A0767F22A7
S11350B06421002022776176A075C025FEF7A8BA86
S11350C0DFF8801CCF200870C1256277FEF7A0BAF4
S11350D0C425FEF79DBA217FA07D7F292DD101280B
S11350E019D1DFF8F46BDFF828041422314601F0FB
S11350F01BF814223146204601F016F8A7A0DFF869
S1135100DC1B02780A70642001220021A2766076FA
S1135110A175FEF77DBA00283EF4DFAC202020778D
S1135120FBF73EF8A07D484A401EA0750021C0B29E
S113513011547F202077FEF7D0BC434B19547F21B4
S113514020282177BEF664AA401CA075C0B21A5468
S1135150FEF75EBAA07D0328C0F2FD803A480178CC
S1135160303901EB81024178303901EB42011829D1
S113517021D20A468178303901EB8103C178303974
S113518001EB43013B2914D8DFF8BC0BDFF86C6A50
S1135190DFF8B87BC261002381614361336001237E
S11351A03B70DFF8AC0B0260DFF84C291160FEF7AE
S11351B02FBAC525F5E7C525F6E7A07D052840F3F8
S11351C0CA80214EDFF8307931787278303901EBBA
S11351D08100303A02EB4002102A3A6036D9B078A6
S11351E0F378757900EB8001307903EB4103A3F187
S11351F0100100EB800305EB4305A5F11000D2B2CA
S1135200C9B2C0B200F0F0FD256A01281ED1DFF852
S1135210380B3A688262B178F37801EB810203EBD0
S11352204203A3F5047343623179737901EB81027C
S113523003EB4203A3F5047303620120DFF8141B9C
S11352400870FEF7E5B900BFF8FEFF1FC625FEF79C
S1135250DFB9CA25FEF7DCB9CB25FEF7D9B9DFF8EB
S1135260F81A0988C80746BF4FF6FE70014041F09E
S11352700101DFF8E42A1180FEF7CAB9DFF8D81A71
S11352800988880758BF41F00201F2D508464FF655
S1135290FD710140EDE7DFF8C01A0988480758BFDF
S11352A041F00401E5D508464FF6FB71F1E7DFF85C
S11352B0A81A0988080758BF41F00801D9D508463B
S11352C04FF6F771E5E7DFF8901A0988C80658BF6A
S11352D041F01001CDD508464FF6EF71D9E7DFF85C
S11352E0781A0988880658BF41F02001C1D50846BC
S11352F04FF6DF71CDE7DFF8601A0988480658BF1A
S113530041F04001B5D508464FF6BF71C1E7DFF85B
S1135310481A0988080658BF41F08001A9D50846F3
S11353204FF67F71B5E7DFF8301A0988C80558BF12
S113533041F480719DD508464FF6FF61A9E7DFF877
S11353401C0A0178491E8941C90F0170FEF760B932
S1135350A07D032803DAA07D401CFFF7B2B8DFF874
S1135360985700F0A3FC642828603FF652ADDFF89C
S1135370F01908600222DFF87C18086040F2AB10D4
S113538001F0FFFC1422DFF87417204600F0CCFE75
S113539000F00CFB256A0020FFF793B80000000022
S11353A0DFF8C009017801297EF497AB0622027068
S11353B00020DFF8B419DFF8B459DFF8B4690860E5
S11353C00021042003F00EFF0021002003F00AFF57
S11353D00021012003F006FF0021122003F002FF48
S11353E00020287001272878327807FA00F10A4053
S11353F0002A07DC2878401C2870C0B20828F2DB99
S1135400FEF76BBB08300021C0B203F0EBFEF1E7FE
S113541001F09DFFFEF761BB1125FEF7F9B80021ED
S1135420002003F0DFFEFEF758BB0021012003F04B
S1135430D9FEFEF752BB0021022003F0D3FE256AF9
S1135440DFF8301900200860FEF7E2B800210320DD
S113545003F0C8FEFEF741BB0021042003F0C2FEA6
S1135460FEF73BBB0021052003F0BCFEFEF735BB75
S11354700021062003F0B6FEDFF8FC1800200860C7
S113548003F0DCFFFEF729BB0021082003F0AAFE8D
S1135490FEF723BB0021092003F0A4FEFEF71DBB89
S11354A000210A2003F09EFEFEF717BB00210B200B
S11354B003F098FEFEF711BB00210C2003F092FECE
S11354C0FEF70BBB00210D2003F08CFEFEF705BB9D
S11354D000210E2003F086FEFEF7FFBA00210F2004
S11354E003F080FEFEF7F9BADD25FEF791B8DFF888
S11354F0041701200870DE25FEF78AB8DFF8F416D9
S113550001200870DF25FEF783B800BFC08D0100BD
S113551058FFFF1FD48D0100E88D0100FC8D0100B0
S1135520E025FEF775B8E125FEF772B8401EE828BD
S11355303EF66EA8DFE810F0FE00FE00FE00FE005E
S1135540FE001A021D021D021D021D021D021D0283
S11355501D021D021D021D02200220022002200243
S11355602002200220022002200220022002200227
S11355702002200220022002200220022002200217
S1135580FE00FE00FE000D02100210020D020D02CC
S11355900D020D020D020D020D02ED00ED00ED00F5
S11355A0ED00ED00ED00ED00ED00ED00ED00ED008F
S11355B0ED00ED00ED00ED00ED00ED00ED00ED007F
S11355C0ED00ED00ED00ED00ED00ED00ED00ED006F
S11355D0ED00E900ED00ED00ED00ED00ED00ED0063
S11355E0ED00ED00ED00ED00ED00ED00ED00ED004F
S11355F0ED002B010101040107010A010D01100155
S11356001301160119011C011F01220125012801A2
S11356102E013101340137013A013D0140014301BA
S1135620460149014C01EB004F015C01E900E9002E
S1135630E9006A016D0170017301760179017C0151
S11356407F018201850188018B018E019101940102
S11356502B010101040107010A010D0110011301CD
S1135660160119011C011F012201250128012E0127
S11356703101340137013A013D0140014301460142
S113568049014C016A016D017001730176017901D0
S11356907C017F018201850188018B018E019101CA
S11356A09401170297019A019D019D01A301A6018E
S11356B0A001A001CA01CD01F101F101F101F40140
S11356C0FB01FE01010201020102040207020702BA
S11356D0070207020702070207020702070207027E
S11356E007020A02E90023022302230223022302FF
S11356F0260229022D0231023402EF00EF00EF00EE
S1135700EF00F200F500F800FB00FDF781BFFFF7A2
S113571013B9FDF794BF0125FDF77ABFE225FDF724
S113572077BFE325FDF774BFE425FDF771BFE525D9
S1135730FDF76EBF0025FDF76BBF3325FDF768BF8E
S11357403425FDF765BF3525FDF762BF3625FDF726
S11357505FBF3725FDF75CBF3825FDF759BF3925F5
S1135760FDF756BF3A25FDF753BF3B25FDF750BF64
S11357703C25FDF74DBF3D25FDF74ABF3E25FDF70E
S113578047BF3F25FDF744BF4025FDF741BF322504
S1135790FDF73EBF4125FDF73BBF4225FDF738BF6E
S11357A04325FDF735BF4425FDF732BF4525FDF7F9
S11357B02FBF4625FDF72CBF4725FDF729BF4825F8
S11357C0FDF726BF4925FDF723BF4A25FDF720BF76
S11357D04B25FDF71DBFDFF8A4150A7040F2391000
S11357E0DFF810140A70012201F0CBFAFEF734B886
S11357F0DFF88815012008700122DFF8F8130A7019
S113580040F2391001F0BDFAFEF726B84F25FDF736
S1135810FFBE5025FDF7FCBE5125FDF7F9BE52250C
S1135820FDF7F6BE5325FDF7F3BE5425FDF7F0BE94
S11358305525FDF7EDBE5625FDF7EABE5725FDF7C4
S1135840E7BE5825FDF7E4BE5925FDF7E1BE5A250C
S1135850FDF7DEBE5B25FDF7DBBE5C25FDF7D8BE9C
S11358605D25FDF7D5BE2C25FDF7D2BE2D25FDF710
S1135870CFBE2E25FDF7CCBE2F25FDF7C9BEB92519
S1135880FDF7C6BEDFF8F8542946202000F0FEFAE2
S11358902022294640F2FD2001F073FA2E202062D6
S11358A01422DFF8E014DFF8E00400F03DFC1422D9
S11358B0DFF8D814204600F037FC0020A07600F072
S11358C075F8032004F07FF8FEF707B9BD25FDF74E
S11358D09FBEDFF8AC542946202000F0D7FA2022DE
S11358E0294640F21D3001F04CFA2F202062142288
S11358F0DFF89C14DFF8900400F016FC1422DFF8A3
S11359008C14204600F010FC0020A07600F04EF825
S1135910032004F058F8FEF7E0B83025FDF778BE10
S1135920DFF834144FF6FF700880FDF7ADBFA275A1
S1135930FFF72EBBA275FFF780BB2725FDF768BED6
S1135940C725FDF765BEC825FDF762BED525FDF761
S11359505FBE0325FDF75CBEDFF8FC134FF6FF7056
S11359600880FEF7C6B82B25FDF752BE0725FDF7C4
S11359704FBE0625FDF74CBE1025FDF749BEC925CF
S1135980FDF746BED825FDF743BE9A490A70FDF7D8
S113599065BF98490A70FDF763BFDB25FDF738BE84
S11359A0DC25FDF735BE00006CE8FF1FFEB5DFF80F
S11359B0E473CA4C3879DFF8E053DFF8CC6302288B
S11359C00CD11422DFF8D413304600F0ADFB1422BE
S11359D0DFF8CC13284600F0A7FB11E001280FD113
S11359E01422DFF8C013304600F09EFB3A68DFF85B
S11359F0B813204600F0F8FB2946204600F08EFA42
S1135A007B2000F02AF900202875A7A7DFF89C0363
S1135A1000F032F9304600F02FF9384600F02CF946
S1135A20284600F029F9384600F026F9DFF880030B
S1135A3000F022F9687E642190FBF1F03030C0B2AE
S1135A4000F00BF9687E0A2390FBF3F00A2190FB27
S1135A50F1F101EB8102A0EB42003030C0B200F062
S1135A60FCF8687E0A2190FBF1F101EB8102A0EBC6
S1135A7042003030C0B200F0F0F8A87E01280CBF1C
S1135A804120492000F0E9F8CA4800F0F5F82A7DE1
S1135A9090A1204600F0A8FB204600F0EDF8287EF7
S1135AA0012810D1A87E01280CBF41204920019073
S1135AB02B46687EC04900903246204600F094FB95
S1135AC0204600F0FAFA287E022813D1A87E012885
S1135AD00CBF4120492001902B46687EB7490090B5
S1135AE03246204600F080FB204603B0BDE8F0407B
S1135AF004F039B903B0F0BD24000020AC8D0100DE
S1135B0070E8FF1F74E8FF1F170100201601002032
S1135B10F0B4AB49087810F0E00F09D0087840F0F1
S1135B2080000870B1F80310A6480170F0BC7047FB
S1135B300A78500726D5A34AB1F80330964C13705F
S1135B40E07EF8B913787B2B02D07D2B2ED03EE07B
S1135B5090789D4CC0B90025257001249470D070B4
S1135B60507801280ED10A789007FCD51846A1F880
S1135B7003008948017D5B1803754FF4FA70F0BC8B
S1135B8003F020BFF0BC7047D07806466427642534
S1135B9096FBF7F705FB17667B27A755401CC0B299
S1135BA0642490FBF4F405FB1400D8E790780128F2
S1135BB0D6D1D578844F642695FBF6F6642000FB95
S1135BC01655002078550125E5769070C8E7D07801
S1135BD005466426642495FBF6F604FB16557A4FB5
S1135BE07B55401CC0B2642590FBF5F504FB150001
S1135BF0B5E70000D0FFFF1F58FDFF1FA0FFFF1FE8
S1135C00B8FFFF1F98FFFF1F7048016841F00601AD
S1135C10016080216E48026842F040020260012265
S1135C206C48417002700023437100210171AD2260
S1135C30828180214378684A43F0030343701160F2
S1135C408023DFF898C1CCF800302021644A117019
S1135C50437843F010034370704759490A78930717
S1135C60FCD50246A1F803204B490A7D801808752B
S1135C704FF4FA7003F0A6BE38B50446504D0EE05A
S1135C8029788A07FCD50146A5F80310641C42490B
S1135C900A7D801808754FF4FA70C046C046207813
S1135CA00028EDD131BD00000D0A0000344803780E
S1135CB0427803EB830102EB41028178C07802EB66
S1135CC0820301EB430101EB810200EB42004549F1
