S0390000736B2D666D332D3438706D632D757362737469636B5F7573625F6465766963655F7669727475616C5F636F6D5F706F72742E73726563CC
S113000080E3FF1F29100000451000004910000084
S11300104D100000511000005510000000000000B9
S11300200000000000000000000000005910000063
S11300305D10000000000000611000006510000069
S1130040691000006D1000007110000075100000B0
S1130050791000007D100000811000008510000060
S1130060891000008D10000091100000DD100000C8
S1130070DD1000009510000099100000DD10000054
S1130080DD1000009D100000A1100000DD10000034
S1130090DD100000DD100000DD100000A5100000E0
S11300A0A9100000AD100000B1100000DD10000028
S11300B0B5100000B9100000BD100000C110000010
S11300C0DD100000DD100000C5100000C9100000A4
S11300D0DD100000DD100000CD100000D110000084
S11300E0D5100000D9100000DD100000DD10000064
S11300F0DD100000DD100000DD100000DD10000048
S1130100DFF8D004016821F480410160DFF8C814ED
S11301100A6842F480420A60DFF8C0140A6822F4D4
S113012080420A60026822F480520260DFF8A02450
S1130130136843F4805313600B6843F480530B60DB
S1130140036823F400530360136843F400531360FB
S11301500B6843F400530B60036823F4806303606B
S1130160136843F4806313600B6843F480630B608B
S1130170036823F400630360136843F400631360AB
S11301800B6843F400630B60036823F4007303609B
S1130190106840F400701060086840F40070086053
S11301A0106840F400601060106840F40070106043
S11301B070472DE9F041044600250826DFF8208425
S11301C0DFF80C74386820F4805038603868C00454
S11301D0FCD4200638684CBF40F4005020F4005092
S11301E0386064001420C046C046D8F800006D0092
S11301F0400448BF45F00105386840F48050386039
S11302003868C004FCD54620C046C046761ED9D105
S1130210E8B2BDE8F0812DE9F04104464FF40470E2
S11302200D46B4FBF0F716465321384600F06AF940
S113023030194FF40471B0FBF1F8474503D0552150
S1130240404600F05FF933462A462146012000F07B
S113025074F83946832000F037F9474504D0414605
S1130260BDE8F04186202FE1BDE8F081F8B5D84F14
S11302700446386820F4806038600D461646322003
S1130280C046C0462046FFF794FF36B1FF20FFF773
S113029090FF761E05F8010BF8D1386840F48060B1
S11302A038604FF4FA70BDE8F24000F09BB92DE9D4
S11302B0F04182B004468846164601226946D7209A
S11302C0FFF7D4FF9DF800000006F6D5C04F38684C
S11302D020F4806038603220C046C0460B20FFF70F
S11302E068FF4FF40470B4FBF0F5A804000EFFF7A8
S11302F060FF05EB4510A4EB0010000A40EA8500FE
S1130300C0B2FFF756FFA4EB0510C0B2FFF751FFD0
S1130310FF20FFF74EFF36B1FF20FFF74AFF761E9E
S113032008F8010BF8D1386840F4806038604FF465
S1130330FA70C046C046BDE8F3812DE9F14F9046FE
S113034000284FF40470B1FBF0F000EB4012994622
S11303500CBFD4258425A1EB0216DFF884A29C4CA3
S1130360B9F1000F00F09780206820F480602060CD
S11303703220C046C046D720FFF71BFFFF20FFF7FF
S113038018FF0746206840F4806020604FF4FA703C
S1130390C046C0463806E7D5206820F48060206057
S11303A03220C046C0462846FFF703FFFF20FFF770
S11303B000FF3004000EFFF7FCFEF0B2FFF7F9FE79
S11303C0D42D12BFD62DFF20FFF7F3FE009868BB93
S11303D0FF2500274FF0080B206820F48050206090
S11303E02068C004FCD4280620684CBF40F40050A8
S11303F020F4005020606D001420C046C046DAF896
S113040000007F00400448BF47F00107206840F423
S1130410805020602068C004FCD54620C046C046F9
S1130420BBF1010BD8D188F8007023E098F8005094
S11304300827206820F4805020602068C004FCD481
S1130440280620684CBF40F4005020F4005020607F
S11304506D001420C046C046DAF80000206840F45D
S1130460805020602068C004FCD54620C046C046A9
S11304707F1EDED1761C4FF40470B6FBF0F000EB67
S11304804011B6EB0110A9F1010908F101080CD0E3
S1130490B9F1000F9AD1206840F4806020604FF4D5
S11304A0FA70BDE8F24F00F09DB8206840F4806017
S11304B0206000264FF4FA70C046C0460098002819
S11304C014BF8725D6254BE770B582B004460D4688
S11304D001226946D720FFF7C9FE9DF800000006F7
S11304E0F6D53B4E306820F4806030603220C04640
S11304F0C0462046FFF75DFEA804000EFFF759FE34
S1130500A8001CE070B582B004460D46012269467D
S1130510D720FFF7ABFE9DF800000006F6D52C4E61
S1130520306820F4806030603220C046C0462846DF
S1130530FFF73FFEA004000EFFF73BFEA000C0B291
S1130540FFF737FEFF20FFF734FE306840F4806089
S113055030604FF4FA70C046C04673BD38B51C4CC9
S1130560206820F4806020604FF6DC752846C04681
S1130570C0462846C046C0462846C046C04628460F
S1130580C046C0462846C046C0462846C046C04667
S11305909F20FFF70EFEFF20FFF70BFE1F280AD156
S11305A0FF20FFF706FE262805D1FF20FFF701FEF6
S11305B008B9002500E0FF25206840F48060206031
S11305C04FF4FA70C046C046284632BD0000000011
S11305D01034034010300340103103401032034004
S11305E010330340704730B142F6310100BF491E59
S11305F0FCD1401EF8D1704770B58F4D06002868B5
S113060040F040000C4628600FD02046FFF7EBFF77
S1130610286820F0400028602046FFF7E4FF28689F
S113062040F04000761E2860EFD170BD30B585B033
S113063000F008F9824CE06820F40070E060C82102
S1130640E06820F48060E060E06820F40060E0602E
S1130650E06820F48050E060E06820F40050E0603E
S11306606068400840006060206820F0020020605C
S1130670206820F004002060606820F008006060BA
S1130680206940F0800020610120FFF7B5FF4FF49E
S11306907A70FFF7A8FFFFF761FF48B14FF480407D
S11306A0016881F30888654A106040688047FEE766
S11306B001226946FFF7FBFD9DF8000088B1C821BF
S11306C00220FFF799FF4FF47A70FFF78CFF4FF485
S11306D08040016881F30888584A10604068804768
S11306E0FEE7C8210320FFF787FF40F6B835284608
S11306F0FFF779FF00F0F8F878B9C8210420FFF774
S11307007BFF2846FFF76FFF00F0FCF8C8210520A7
S1130710FFF772FF2846FFF766FF00F0E5F80128AF
S11307207AD1C8210620FFF767FF2846FFF75BFF51
S1130730FFF714FF48B14FF48040016881F3088843
S11307403E4A106040688047FEE7C8210720FFF753
S113075053FF2846FFF747FF012269460020FFF7B1
S1130760A6FD9DF80000002846D1C8210820FFF707
S113077043FF2846FFF737FF00F0DCF878B9C820BC
S1130780FFF731FF206920F0400020614FF4FA6048
S1130790FFF729FF206940F040002061EFE7FF20C8
S11307A08DF80000012269460020FFF734FD20691E
S11307B040F0400020610A254FF47A70FFF713FFE0
S11307C0206920F0400020614FF47A70FFF70BFF9E
S11307D0206940F040006D1E2061EDD141F2883067
S11307E0FFF701FF4FF48040016881F30888134A42
S11307F0106040688047FEE7C820FFF7F4FE2069D8
S113080020F04000206141F28830FFF7ECFE2069BF
S113081040F040002061EFE74FF47A710520FFF7C4
S1130820EBFE4FF48040016881F30888034A1060AE
S113083040688047FEE700001034034008ED00E004
S11308400034034080B500F017F90948016821F02D
S1130850C00101600748016821F0C0010160064839
S1130860016841F0C0010160BDE80140FFF748BCE8
S1130870103003401034034010320340DFF800F01E
S113088005E0FF1FDFF800F0C1E0FF1F30B142F6C2
S1130890310100BF491EFCD1401EF8D17047704A97
S11308A0136843F040031360E8B141B10B4642F6CC
S11308B0310C00BFBCF1010CFBD15B1EF7D11368F6
S11308C023F04003136041B10B4642F6310C00BFE4
S11308D0BCF1010CFBD15B1EF7D1136843F040035C
S11308E0401E1360E1D170474FF4804050F8041B60
S11308F011F1010F01D000207047B0F5003FF5D38E
S11309000120704780B572B600214FF48040FFF794
S1130910B5FF002144F20400FFF7B0FF00214FF4BB
S11309200040FFF7ABFF002148F20400FFF7A6FFE9
S113093062B601BD2DE9F04F83B000208DF80800A8
S11309406426DFF82081DFF820B1484F444C20684A
S113095080F0400020600A20FFF745FE02A93846D7
S113096000F04CF9814619F1010F0FD19DF80800F0
S113097028BBB046206880F0800020606420FFF728
S113098032FEB8F10108F5D1012071E019F1060F2A
S113099004BF9DF80800002811D1206840F04000F1
S11309A0206040F6B8342046FFF770FFC8210920C4
S11309B0FFF775FF2046FFF769FF002058E00A2083
S11309C000900098704300900098411E009140B13F
S11309D00A200190019800281CBF0198401EF8D1FC
S11309E0F2E772B60025A9F5804A04E0E95BFFF757
S11309F049FFAD1CEDB29DF80800854208DADA45DE
S1130A00F7D205EB090040452CBF01220022EDE797
S1130A100A2000900098704300900098411E0091B5
S1130A2040B10A200190019800281CBF0198401E83
S1130A30F8D1F2E762B60A20009000987043009063
S1130A400098411E002800913FF481AF0A2001E084
S1130A500198401E019001980028F9D1F0E70000A8
S1130A601034034000000C2005D00F0080E3FF1F6A
S1130A7003B0BDE8F08F000010B44448444A016854
S1130A80444C1140016044490B681A400A60434ACF
S1130A90136843F41C4343F01F03136000232360D3
S1130AA044683F4B1C4044604C6823404B6040F218
S1130AB0BF34536823435360836823F00E03836079
S1130AC08B6823F00E038B60936843F00E039360EE
S1130AD0C468344B1C40C460CC682340CB60D368EA
S1130AE043F47E4343F00803D3602F4B1C6804F0A7
S1130AF0FE041C602D4B04691C4004610C692340F6
S1130B000B61136943F4FC4343F0C003136143696D
S1130B109B089B0043614B699B089B004B61536995
S1130B2043F0030353618369DB08DB0083618B6952
S1130B30DB08DB008B61936943F007039361036A6D
S1130B409B089B0003620B6A9B089B000B62116A63
S1130B5041F003011162C168C908C900C1601449A8
S1130B600B6843F007030B60D368DB08DB00D3603A
S1130B70436923F004034361886840F004008860FB
S1130B80506920F00400506110BC704700300340ED
S1130B90E063FFFF003503400034034000320340AC
S1130BA040FCFFFFF701FFFF803503403F81FFFF5B
S1130BB00C31034002780021A2F1300CBCF10A0F81
S1130BC03CBF1101C9B2A2F14103062B03D2373A4B
S1130BD001EB0211C9B24078A0F130030A2B02D212
S1130BE041183039C9B2A0F14102062A03D2401893
S1130BF0A0F13701C9B20846704700002DE9F04D55
S1130C000D4682B00026804600270024B346B24633
S1130C102E7006E06846FFF7CDFFC01B841E2C70C3
S1130C2002260020ADF8000002223648006869461A
S1130C30FFF73DFB334833490068801C08609DF88A
S1130C400000FF280AD19DF80100FF280CD10020E4
S1130C5028704FF0FF3B5846BDE8F68D0D2804BFC1
S1130C609DF801000A28F6D0F6B28EB1072E05DAF7
S1130C706846FFF79FFF50445FFA80FA072ED0D8EA
S1130C80DFE806F00605161818182633C9E7C1E789
S1130C909DF80000532805D19DF80100A0F130070C
S1130CA0FFB201260FB1042FBBDB00270026B8E7F3
S1130CB04FF0000B6846FFF77DFFB91B891CC90084
S1130CC088408344B81B801C08BF0526761CA8E70F
S1130CD0641EE4B204B907266846FFF76BFF88F880
S1130CE00000002008F8010F9BE76846FFF762FF49
S1130CF080F0FF00504594D0002028706FF005006C
S1130D00BDE8F68D00E0FF1F604E00001CB4002219
S1130D10009211B1012913D04DE04FF080421368C5
S1130D2003F0FD031360136843F001031360AA2367
S1130D301268019241F25052138040F6A82308E051
S1130D401E4A00231360AA23126801921C4A1380CE
S1130D501C4B55241C8080241480AA241480552202
S1130D601A803022028002881207FCD5009A5AB9F0
S1130D700288920644BF4FF0FF32009202881206A6
S1130D80F4D501220092F1E711B1012910D012E04B
S1130D904FF080424FF6FE711068084010601068F2
S1130DA040F00200106010680190009816BC704773
S1130DB0024A0120F6E716BC61E0000000000E20A4
S1130DC0A80A0C2054050C203CB40023009312B153
S1130DD0012A15D052E04FF080434FF6FD751C6890
S1130DE02C401C6040F6A8251C6844F001041C60DB
S1130DF0AA241B68019341F250531C80552409E036
S1130E001B4B1C4D00241C60AA241B6801931A4B25
S1130E101C8055242C8001F08005A0241C800180B6
S1130E204FF0FF330AE00488A40648BF0093048807
S1130E3004F08004AC4204BF01240094009C002C04
S1130E40F1D012B1012A10D018E04FF080434FF6D0
S1130E50FE71186808401860186840F002001860B5
S1130E6018680190009836BC7047014B0120F6E7E2
S1130E7000000E2054050C20A80A0C2036BC6FF08C
S1130E8001007047244825490160832224490160F8
S1130E9000202449087000211E48017401210175B5
S1130EA081210176017720490A7000220A725C22AE
S1130EB00A74027842F00202027002799207FCD5A9
S1130EC000220A7504220A7609220A77017841F081
S1130ED0100101700179C906FCD5017841F0400187
S1130EE001700178027902F0E00201F0E0018A4227
S1130EF0F7D140F2FF320D4801688905890D91420E
S1130F0006D00B490B4A8A6000680880002088607C
S1130F107047000000000140001C014051E5CC1A5C
S1130F20AE1A33E5081001402000014000010040E2
S1130F3004E0024054E5CC1A19E050F8041BCB0736
S1130F4044BFA9F101035918121F0023042A41F8D0
S1130F50043BF9D25FEA827C0B4604D54FF0000CC7
S1130F60A1F800C09B1CD10744BF0021197050F8A0
S1130F70042B002AE1D1704710B450F8041B79B156
S1130F800268436812180830DC0744BFA9F1010461
S1130F90E31852F8044B43F8044B091FF9D1ECE76A
S1130FA010BC704710B5074979441831064C7C448D
S1130FB0163404E00A68081D511888470146A14206
S1130FC0F8D110BD08000000280000006DFFFFFFED
S1130FD0F401000080E3FF1F000000009DFFFFFFFD
S1130FE07C01000024FDFFFF00E0FF1F0000000063
S1130FF00120C046002801D0FFF7D4FF0020C046DE
S1131000C046FFF713FB00F000F800F001B8000041
S11310100746384600F002F8FBE7000020210903E8
S113102026311820ABBEF9E7014880470148004744
S1131030850E000039100000C046C046C046C046B8
S1131040FFF7D6FFFFF7FEBFFFF7FEBFFFF7FEBFB8
S1131050FFF7FEBFFFF7FEBFFFF7FEBFFFF7FEBFC0
S1131060FFF7FEBFFFF7FEBFFFF7FEBFFFF7FEBFB0
S1131070FFF7FEBFFFF7FEBFFFF7FEBFFFF7FEBFA0
S1131080FFF7FEBFFFF7FEBFFFF7FEBFFFF7FEBF90
S1131090FFF7FEBFFFF7FEBFFFF7FEBFFFF7FEBF80
S11310A0FFF7FEBFFFF7FEBFFFF7FEBFFFF7FEBF70
S11310B0FFF7FEBFFFF7FEBFFFF7FEBFFFF7FEBF60
S11310C0FFF7FEBFFFF7FEBFFFF7FEBFFFF7FEBF50
S11310D0FFF7FEBFFFF7FEBFFFF7FEBFFFF7FEBF40
S113400028250020B1F90100D5F90100D9F90100F2
S1134010DDF90100E1F90100E5F90100000000000B
S1134020000000000000000000000000E9F90100A9
S1134030EDF9010000000000F1F90100F5F90100BB
S1134040F9F90100FDF9010001FA010005FA010086
S113405009FA01000DFA010011D70000D193000004
S113406003F90100F9D9000021FA01007592010059
S113407029FA010083A9000031FA010075FA010050
S113408075FA010035FA010039FA010075FA0100E8
S113409075FA010075FA010075FA01003DFA010094
S11340A041FA010001F9010049FA010075FA010021
S11340B04DFA010051FA010055FA010059FA0100C4
S11340C075FA010075FA01000BF9010015F90100F8
S11340D075FA010075FA010065FA010069FA010038
S11340E06DFA010071FA010075FA010075FA010018
S11340F075FA010075FA010075FA010075FA0100FC
S113410038B5684CE07E012833D1674D67492846AD
S113411005F099FA012803DB0120E07502201BE079
S11341205EA1284605F08FFA012803DB0120E07523
S1134130002011E05E49284605F085FA012802DBDB
S11341400120E07508E056A1284605F07CFA012814
S113415003DB0120E075032060750020E076207EFB
S113416038B1544805F0C2FB2846BDE8324005F09A
S1134170BDBB31BDF0B5142883B0044658D8DFE880
S113418000F00B0E1114171A1D2E3134373A3D402E
S11341904346494C4F5752001422474945E01422E4
S11341A0464942E0142246493FE0142245493CE096
S11341B01422454939E01422444936E0444D454926
S11341C01422284605F0F8FB4348006800282FD144
S11341D04E2068732E20A8734520E87328E014222B
S11341E03E4922E014223E491FE014223D491CE0CE
S11341F014223D4919E014223C4916E014223C499A
S113420013E014223B4910E014223B490DE0142230
S11342103A490AE014223A4907E01422394904E0F1
S11342201422394901E014223849294805F0C4FB15
S113423037480068E040C00706D5254D592068730B
S11342406520A8737320E87304EB44004000314EEA
S1134250314F00F52C5006223146503005F0D8FC81
S11342603079737832782D490290F0780190B078E3
S11342700C4E0090384605F0FFFE0020387431469D
S1134280384605F05EFA0CB17F203070142CBCBFA8
S11342907E20F0730020B07603B0F0BD55500000CE
S11342A045534300F01E0020781C002000DB010071
S11342B008DB010010DB01001CDB010030DB010026
S11342C044DB010058DB01006CDB010080DB0100F2
S11342D0741F002094DB010078200020A8DB01007B
S11342E0BCDB0100D0DB0100E4DB0100F8DB0100F2
S11342F00CDC010020DC010034DC010048DC01009E
S11343005CDC010070DC010084DC010098DC01004D
S1134310C02000207813002098190020ACDC010094
S1134320F0B5DFF80C4E83B0206AD22802F2638421
S1134330DFE810F0D300E400F7000A011901590185
S113434056119611A4119B12BE12E4121E13581397
S11343507A139C13B813DC13DE13E013E213E41393
S1134360E613E813EA13EC13EE13F013F213F41349
S1134370F613F813FA13FC13FE1302143214611427
S1134380F1010202A20E4D0FB30EC60EDE0EF40EA4
S11343900A0F240F3E0F11022202350248025B026B
S11343A06E0281029402A702BA02CD02E002F30275
S11343B0060319032C033F035203650378038B039D
S11343C09E03B403C703DA03ED030004130461146A
S11343D0260439044C045F04720485049804AB0475
S11343E0BE04CD04F004170540056A059005B40524
S11343F0D805FC052206460669068D06B006D406D5
S1134400F506F90606072C07500775079307B10749
S1134410BC07D407F307190825083E086114611482
S113442061148608A508C408E30802092B09540985
S11344307D09A509050A130A210A300A3F0A4E0A12
S11344405D0A6C0A7B0A8A0A990AA70AB50AC30A92
S1134450D10AE00AEF0AFE0A0D0B1C0B2B0B3A0BD8
S1134460490B580B670B6114760B850B940BA30B4C
S1134470B20BC40BD30BE20BF40B61146C0F910F52
S1134480EE0FFF0F4210D6100E1024108C10D61011
S1134490FF10251130113E11CB0FD90F030C180C4E
S11344A02B0C400C860CA50CC60CE70C080D290D32
S11344B04A0D6B0D8C0DAD0DBD0DCF0DE10DF50D40
S11344C0070E260E440E680E830E680179018C01D6
S11344D09F01AE01BD01CC01DB011422DFF8541CA5
S11344E0DFF8540C05F068FA1422DFF8501C20465B
S11344F005F062FA7E20E07302F07BBB1422DFF841
S1134500341CDFF8340C05F057FA1422DFF8B41D1C
S1134510204605F051FA7F2020707E20E07302F0DF
S113452068BB1422DFF80C1CDFF80C0C05F044FA0D
S11345301422DFF8941D204605F03EFA7F202070F7
S11345407E20E07302F055BB1422DFF8E81BDFF88D
S1134550E80B05F031FA1422DFF8701D204605F04F
S11345602BFA02F044BB1422DFF8641DDFF8C80BF9
S113457005F022FA1422DFF85C1D204605F01CFA2F
S1134580A07D032801F2D387DFE810F004000C00BB
S113459016002100CE206076DFF83C0D0078A07173
S11345A001F0C5BFCF2060767820A071DFF8280D18
S11345B04078E07101F0BBBFD02060767820A07114
S11345C0E071DFF8140D8078207201F0B0BFD120C3
S11345D060767820A071E0712072DFF8FC0CC0785E
S11345E0607201F0A4BF1422DFF8E41CDFF8480B6A
S11345F005F0E2F91422DFF8A81D204605F0DCF9E5
S113460002F0F7BA1422DFF89C1DDFF82C0B05F03A
S1134610D3F91422DFF8901D204605F0CDF97E2051
S1134620E07302F0E6BA1422DFF8781DDFF8080B15
S113463005F0C2F91422DFF8741D204605F0BCF918
S11346407F2020707E20E07302F0D3BA1422DFF8BA
S1134650541DDFF8E40A05F0AFF91422DFF8701DE9
S1134660204605F0A9F97F2020707E20E07302F037
S1134670C0BA1422DFF82C1DDFF8BC0A05F09CF93F
S11346801422DFF8501D204605F096F902F0AFBA67
S11346901422DFF8441DDFF8A00A05F08DF9142276
S11346A0DFF8381D204605F087F902F0A2BA14227B
S11346B0DFF82C1DDFF8800A05F07EF91422DFF8FC
S11346C0241D204605F078F902F093BA1422DFF88D
S11346D0181DDFF8640A05F06FF91422DFF80C1DC9
S11346E0204605F069F902F084BA1422DFF8001DAF
S11346F0DFF8440ADFF8FC5C05F05EF9DFF8F80C3B
S11347000268E5A1284605F0B7FC2146284605F0D5
S113471018F802F06EBA1422DFF8E01CDFF8180A69
S113472005F04AF91422DFF8D81C204605F044F9B4
S11347307E20E07302F05DBA1422DFF8C01CDFF8BB
S1134740F80905F039F91422DFF8B81C204605F001
S113475033F902F04CBA1422DFF8AC1CDFF8D809A4
S113476005F02AF91422DFF8A41C204605F024F9E8
S11347707E20E07302F03DBA1422DFF88C1CDFF8CF
S1134780B80905F019F91422DFF8841C204605F055
S113479013F97F2020707E20E07302F02ABA1422DD
S11347A0DFF8641CDFF8900905F006F91422DFF83D
S11347B0641C204605F000F97F2020707E20E07301
S11347C002F017BA1422DFF8401CDFF86C0905F078
S11347D0F3F81422DFF8401C204605F0EDF87F20A2
S11347E020707E20E07302F004BA1422DFF8181C53
S11347F0DFF8440905F0E0F81422DFF8201C204615
S113480005F0DAF87F2020707E20E07302F0F1B921
S11348101422DFF8F41BDFF8200905F0CDF8142288
S1134820DFF8FC1B204605F0C7F87F2020707E20AF
S1134830E07302F0DEB91422DFF8CC1BDFF8F808CD
S113484005F0BAF81422DFF8DC1B204605F0B4F8B2
S11348507F2020707E20E07302F0CBB91422DFF8B1
S1134860A81BDFF8D40805F0A7F81422DFF8B81B5A
S1134870204605F0A1F87F2020707E20E07302F02E
S1134880B8B91422DFF8801BDFF8AC0805F094F8FF
S11348901422DFF8981B204605F08EF87F20207044
S11348A07E20E07302F0A5B91422DFF85C1BDFF868
S11348B0880805F081F81422DFF8741B204605F0FF
S11348C07BF87F2020707E20E07302F092B91422DE
S11348D0DFF8341BDFF8600805F06EF81422DFF807
S11348E0541B204605F068F87F2020707E20E0737A
S11348F002F07FB91422DFF8101BDFF83C0805F042
S11349005BF81422DFF8301B204605F055F87F20B1
S113491020707E20E07302F06CB91422DFF8E81AEC
S1134920DFF8140805F048F81422DFF8101B2046BD
S113493005F042F87F2020707E20E07302F059B920
S11349401422DFF8C41ADFF8F00705F035F8142252
S1134950DFF8741D204605F02FF87F2020707E209C
S1134960E07302F046B91422DFF89C1ADFF8C80796
S113497005F022F81422DFF8541D204605F01CF837
S11349807F2020707E20E07302F033B91422DFF818
S1134990781ADFF8A40705F00FF81422DFF8301DA9
S11349A0204605F009F87F2020707E20E07302F095
S11349B020B91422DFF8501ADFF87C0704F0FCFF5A
S11349C01422DFF8101D204604F0F6FF7F2020702B
S11349D07E20E07302F00DB91422DFF82C1ADFF800
S11349E0580704F0E9FF1422DFF8EC1C204604F019
S11349F0E3FF7F2020707E20E07302F0FAB81422D7
S1134A00DFF8041ADFF8300704F0D6FF1422DFF8C9
S1134A10CC1C204604F0D0FF7F2020707E20E07361
S1134A2002F0E7B81422DFF8E019DFF80C0704F00D
S1134A30C3FF1422DFF8A81C204604F0BDFF7F202A
S1134A4020707E20E07302F0D4B81422DFF8B81985
S1134A50DFF8E40604F0B0FF1422DFF8881C2046D7
S1134A6004F0AAFF7F2020707E20E07302F0C1B81A
S1134A701422DFF89419DFF8C00604F09DFF142215
S1134A80DFF8641C204604F097FF7F2020707E200E
S1134A90E07302F0AEB800BF256400001422DFF812
S1134AA06819DFF8940604F087FF1422DFF83C1C31
S1134AB0204604F081FF7F2020707E20E07302F006
S1134AC098B81422DFF84019DFF86C0604F074FF7C
S1134AD01422DFF81C1C204604F06EFF7F20207097
S1134AE07E20E07302F085B81422DFF81C19DFF889
S1134AF0480604F061FF1422DFF8F81B204604F096
S1134B005BFF7F2020707E20E07302F072B81422D5
S1134B10DFF8F418DFF8200604F04EFF1422DFF863
S1134B20D81B204604F048FF7F2020707E20E073CD
S1134B3002F05FB81422DFF8D018DFF8FC0504F0A7
S1134B403BFF1422DFF8B41B204604F035FF7F201E
S1134B5020707E20E07302F04CB81422DFF8A8180D
S1134B60DFF8D40504F028FF1422DFF8941B204654
S1134B7004F022FF7F2020707E20E07302F039B819
S1134B801422DFF88418DFF8B00504F015FF1422AE
S1134B90DFF8701B204604F00FFF7F2020707E207A
S1134BA0E07302F026B81422DFF85C18DFF88805F9
S1134BB004F002FF1422DFF8501B204604F0FCFE30
S1134BC07F2020707E20E07302F013B81422DFF8F7
S1134BD03818DFF8640504F0EFFE1422DFF82C1B0C
S1134BE0204604F0E9FE7F2020707E20E07302F06E
S1134BF000B81422DFF81018DFF83C0504F0DCFEDE
S1134C001422DFF80C1B204604F0D6FE7F2020700F
S1134C107E20E07301F0EDBF1422DFF8EC17DFF81B
S1134C20180504F0C9FE1422DFF8E81A204604F03F
S1134C30C3FE7F2020707E20E07301F0DABF1422CF
S1134C40DFF8C417DFF8F00404F0B6FE1422DFF82E
S1134C50C81A204604F0B0FE7F2020707E20E07346
S1134C6001F0C7BF1422DFF8A017DFF8CC0404F06A
S1134C70A3FE1422DFF8A41A204604F09DFE7F2030
S1134C8020707E20E07301F0B4BF1422DFF878179F
S1134C90DFF8A40404F090FE1422DFF8841A2046FE
S1134CA004F08AFE7F2020707E20E07301F0A1BF13
S1134CB01422DFF85417DFF8800404F07DFE142278
S1134CC0DFF8601A204604F077FE01F090BF14224A
S1134CD0DFF8CC1DDFF8600404F06EFE41F2883387
S1134CE00022DFF8441A204605F0C6F9DFF8E8058B
S1134CF00178A1714178E17181782172C078607284
S1134D00A07D032801F27587DFE810F01405260062
S1134D104F0079001422DFF8E81DDFF81C0404F0CA
S1134D204BFE1E230222DFF8001A204605F0A4F9E8
S1134D30DFF8A4050178A1714178E17181782172CD
S1134D40C0786072A07D032801F25387DFE810F079
S1134D50F20404002D005700CF206076012001F0FA
S1134D6049BF1422DFF8F81DDFF8CC0304F024FE59
S1134D704FF4FA730A22DFF8B019204605F07CF9E3
S1134D80DFF854050178A1714178E17181782172CD
S1134D90C0786072A07D032801F22B87DFE810F051
S1134DA0CA04040005002F00D6E7D0206076012055
S1134DB001F020BF1422DFF8F41DDFF87C0304F0B7
S1134DC0FBFD4FF4FA730A22DFF85C19204605F064
S1134DD053F9DFF804050178A1714178E171817814
S1134DE02172C0786072A07D032801F20287DFE897
S1134DF010F0A104050004000600D6E7ACE7D120BA
S1134E006076012001F0F6BE1422DFF8A41DDFF85D
S1134E10280304F0D1FD4FF4FA730022DFF80819D7
S1134E20204605F029F9DFF8B0040178A171417832
S1134E30E17181782172C0786072A07D032801F24B
S1134E40D886DFE810F07704060005000400D6E7F2
S1134E50ABE781E71422DFF8C41DB74804F0ACFDCA
S1134E60C8230122DFF8C018204605F005F9DFF851
S1134E7068040178A1714178E17181782172C07868
S1134E806072A07D032801F2B486DFE810F05304B9
S1134E90060005000400B2E787E75DE71422DFF8A7
S1134EA0801DA54804F088FDC8230122DFF8781886
S1134EB0204605F0E1F8DFF820040178A17141787B
S1134EC0E17181782172C0786072A07D032801F2BB
S1134ED09086DFE810F02F040600050004008EE73A
S1134EE063E739E71422DFF83C1D934804F064FDBE
S1134EF0C8230122DFF83018204605F0BDF8DFF89A
S1134F00D8030178A1714178E17181782172C07868
S1134F106072A07D032801F26C86DFE810F00B04B8
S1134F200600050004006AE73FE715E71422DFF8EE
S1134F30F81C814804F040FD4FF4E1534FF496729D
S1134F40DFF8E417204605F097F8DFF88C030178C2
S1134F50A1714178E17181782172C0786072A07D7D
S1134F60032801F24686DFE810F0E5030600050099
S1134F70040044E719E7EFE61422DFF8B01C6E489A
S1134F8004F01AFD14230122DFF89C17204605F0D3
S1134F9073F8DFF844030178A1714178E1718178F5
S1134FA02172C0786072A07D032801F22286DFE8B6
S1134FB010F0C10306000500040020E7F5E6CBE687
S1134FC01422DFF86C1C5C4804F0F6FC3C2301223C
S1134FD0DFF85417204605F04FF8BF480178A17157
S1134FE04178E17181782172C0786072A07D0328D4
S1134FF001F2FF85DFE810F09E03060005000400BF
S1135000FDE6D2E6A8E61422DFF8281C4A4804F09C
S1135010D3FC4FF461633222DFF80C17204605F00D
S11350202BF8AD480178A1714178E1718178217242
S1135030C0786072A07D032801F2DB85DFE810F000
S11350407A03060005000400D9E6AEE684E61422DD
S1135050DFF8E41B384804F0AFFC3C230A22DFF8F5
S1135060C816204605F008F89B480178A1714178DC
S1135070E17181782172C0786072A07D032801F209
S1135080B885DFE810F05703060005000400B6E613
S11350908BE661E61422DFF8A41B274804F08CFC9D
S11350A04FF461631E22DFF88016204604F0E4FF0B
S11350B089480178A1714178E17181782172C078C1
S11350C06072A07D032801F29485DFE810F03303B9
S11350D006000500040092E667E63DE61422DFF8C8
S11350E0981E154804F068FC1422DFF8901E204630
S11350F004F062FC78480178A1714178E17181780B
S11351002172C0786072A07D002800F0138301280A
S11351103FF422AE03283FF472AE01F06ABD1422BC
S1135120DFF8881EDDE71422DFF8841ED9E700BF0C
S1135130F01E0020D0DC0100741F0020E4DC01001C
S11351401422DFF8701EDFF8700E04F035FC4FF403
S1135150FA634FF4FA72DFF8D015204604F08CFF9E
S11351605D480178A1714178E17181782172C0783C
S11351706072A07D032801F23C85DFE810F0DB02B9
S11351800600050004003AE60FE6E5E51422DFF820
S1135190701EDFF8240E04F00FFC3C231422DFF809
S11351A08815204604F068FF4B480178A1714178C6
S11351B0E17181782172C0786072A07D032801F2C8
S11351C01885DFE810F0B70206000500040016E6B3
S11351D0EBE5C1E51422DFF89C1EDFF8DC0D04F0DA
S11351E0EBFB40F6C4130522DFF83C15204604F01F
S11351F043FF39480178A1714178E17181782172C6
S1135200C0786072A07D032801F2F384DFE810F017
S11352109202060005000400F1E5C6E59CE51422AF
S1135220DFF8C41EDFF8900D04F0C6FB1422DFF88B
S1135230BC1E204604F0C0FB27480178A1714178C8
S1135240E17181782172C0786072A07D002800F03D
S1135250718202283FF4A9AD5CE71422DFF8B81E7E
S1135260DFF8540D04F0A8FB1422DFF8D81E204602
S113527004F0A2FB18480178A1714178E1718178AA
S11352802172C0786072A07D002800F05382022849
S11352903FF48BAD3EE71422DFF8D41EDFF8180D7F
S11352A004F08AFB1422DFF8CC1E20E71422DFF876
S11352B0C81EDFF8040D04F07FFB1422DFF8B41ECF
S11352C015E700BFF8DC01000CDD010020DD010062
S11352D034DD010048DD0100141F00201422DFF832
S11352E0C41EDFF8D40C04F067FB1422DFF8B81EE8
S11352F0204604F061FBDFF8B40E0178A171417817
S1135300E17181782172C0786072A07D002800F07C
S1135310118202283FF449ADFCE61422DFF8D813C9
S1135320DFF8940C04F048FB4FF4FA630A22DFF828
S1135330F813204604F0A0FEDFF8700E0178A17186
S11353404178E17181782172C0786072A07D032870
S113535001F24F84DFE810F0EE01060005000400BE
S11353604DE522E5F8E41422DFF88C1EDFF8480C42
S113537004F022FB1422DFF8841E01F015B9142274
S1135380DFF87C1EDFF8300C04F016FB1422DFF883
S1135390741E204604F010FB7E20E07301F029BC4B
S11353A05CDD010070DD010084DD010098DD010099
S11353B01422DFF84C1EDFF8000C04F0FDFA14226E
S11353C0DFF8441E204604F0F7FA01F010BC00BFD9
S11353D0ACDD0100C0DD0100D4DD0100E8DD010029
S11353E0FCDD010010DE010024DE010038DE0100D6
S11353F04CDE010098190020C41D002060DE01006D
S113540074DE010088DE01009CDE0100B0DE0100D4
S1135410C4DE0100D8DE0100ECDE010000DF010083
S113542014DF010028DF01003CDF010050DF010030
S113543064DF010078DF01008CDF0100A0DF0100E0
S11354401422DFF8C01EDFF8700B04F0B5FA142242
S1135450DFF8B41E204604F0AFFADFF8500D0178EF
S1135460A1714178E17181782172C0786072A07D68
S1135470002800F05F8102283FF497AC4AE614222A
S1135480DFF8881EDFF8300B04F096FA1422DFF8F8
S1135490781E204604F090FADFF8100D0178A1710F
S11354A04178E17181782172C0786072A07D002812
S11354B000F0408102283FF478AC2BE61422DFF898
S11354C0B41EDFF8F40A04F077FA1422DFF8A81EF9
S11354D0204604F071FADFF8D40C0178A171417808
S11354E0E17181782172C0786072A07D002800F09B
S11354F0218102283FF459AC0CE61422DFF89C1EEB
S1135500DFF8B40A04F058FA1422DFF8FC1D204630
S113551004F052FADFF8940C0178A1714178E1713A
S113552081782172C0786072A07D002800F0028129
S113553002283FF43AACEDE51422DFF8641EDFF8EC
S1135540780A04F039FA42F20F730022DFF8541E8D
S1135550204604F091FDDFF8540C0178A1714178E4
S1135560E17181782172C0786072A07D032801F214
S11355704083DFE810F0DF00080006000400FFF7B6
S11355803EBCFFF712BCFFF7E7BB1422DFF8181E7E
S1135590DFF8240A04F010FA42F20F730022DFF855
S11355A0041E204604F068FDDFF8000C0178A171A8
S11355B04178E17181782172C0786072A07D0328FE
S11355C001F21783DFE810F0B600080006000400BB
S11355D0FFF715BCFFF7E9BBFFF7BEBB1422DFF8EA
S11355E0CC1DDFF8D40904F0E7F94FF47A733222C2
S11355F0DFF8B01D204604F03FFDDFF8B00B017862
S1135600A1714178E17181782172C0786072A07DC6
S1135610032801F2EE82DFE810F08D000800060096
S11356200400FFF7ECBBFFF7C0BBFFF795BBDFF847
S1135630800DDFF884196CC86CC140F63713002262
S1135640DFF8601D204604F017FDDFF8600B0178D9
S1135650A1714178E17181782172C0786072A07D76
S1135660032801F2C682DFE810F065000800060096
S11356700400FFF7C4BBFFF798BBFFF76DBB142210
S1135680DFF8301DDFF8300904F096F91E230522F7
S1135690DFF8101D204604F0EFFCDFF8100B017852
S11356A0A1714178E17181782172C0786072A07D26
S11356B0032801F29E82DFE810F03D003B00390030
S11356C00400FFF79CBB00BFB4DF0100C8DF01008A
S11356D0DCDF0100F0DF010004E0010018E001005C
S11356E02CE0010040E0010054E0010068E001000A
S11356F07CE0010090E00100A4E00100B8E00100BA
S1135700CCE00100E0E00100F4E0010008E1010068
S11357101CE1010030E1010044E1010058E1010015
S11357206CE1010080E10100A8E10100FFF73DBB4D
S1135730FFF712BBCE206076012001F05BBA142281
S1135740D749DFF8740804F037F91422DFF88C1E07
S1135750204604F031F901F04CBA1422E849DFF88C
S1135760580804F029F91422DFF8701E204604F0CA
S113577023F901F03EBA1422DFF8E413DFF8380805
S113578004F01AF91422DFF8541E204604F014F928
S113579001F02FBA1422DFF81414DFF81C0804F007
S11357A00BF91422DFF8341E204604F005F901F049
S11357B020BA1422DFF8F813DFF8FC0704F0FCF831
S11357C01422DFF8181E204604F0F6F801F011BA8E
S11357D01422DFF84814DFF8E00704F0EDF814228F
S11357E0DFF8F81D204604F0E7F801F002BA1422AD
S11357F0DFF82C14DFF8C00704F0DEF81422DFF819
S1135800DC1D204604F0D8F801F0F3B91422DFF8C7
S11358101414DFF8A40704F0CFF81422DFF8BC1D39
S1135820204604F0C9F801F0E4B91422DFF8F813B3
S1135830DFF8840704F0C0F81422DFF8A01D204626
S113584004F0BAF801F0D5B91422DFF8E013DFF858
S1135850680704F0B1F81422DFF8801D204604F034
S1135860ABF801F0C6B91422F149DFF84C0704F093
S1135870A3F81422DFF8641D204604F09DF801F01B
S1135880B8B91422EB49DFF8300704F095F8142274
S1135890DFF8481D204604F08FF801F0AAB914225D
S11358A0E549DFF8140704F087F81422DFF82C1D0B
S11358B0204604F081F801F09CB91422DF49DFF896
S11358C0F80604F079F81422DFF8101D204604F0DD
S11358D073F801F08EB91422DFF8081EDFF8D80639
S11358E004F06AF81422DFF8F41C204604F064F88B
S11358F001F07FB91422DFF8B416DFF8BC0604F017
S11359005BF81422DFF8D41C204604F055F801F0AB
S113591070B91422DFF89816DFF89C0604F04CF8EE
S11359201422DFF8B81C204604F046F801F061B9EF
S11359301422DFF8481EDFF8800604F03DF8142234
S1135940DFF8981C204604F037F801F052B914220D
S1135950DFF8AC16DFF8600604F02EF81422DFF846
S11359607C1C204604F028F801F043B91422DFF827
S11359700417DFF8440604F01FF81422DFF85C1C57
S1135980204604F019F801F034B91422DFF858174E
S1135990DFF8240604F010F81422DFF8401C204637
S11359A004F00AF801F025B91422DFF86C17DFF8C7
S11359B0080604F001F81422DFF8201C204603F046
S11359C0FBFF01F016B91422DFF83C1EDFF8E805EE
S11359D003F0F2FF1422DFF8041C204603F0ECFF6E
S11359E001F007B91422DFF8241EDFF8CC0503F018
S11359F0E3FF1422DFF8E41B204603F0DDFF01F08F
S1135A00F8B81422DFF89C17DFF8AC0503F0D4FFD4
S1135A101422DFF8C81B204603F0CEFF01F0E9B8DA
S1135A201422DFF8E018DFF8900503F0C5FF142214
S1135A30DFF8A81B204603F0BFFF01F0DAB81422F8
S1135A40DFF8C818DFF8700503F0B6FF1422DFF89A
S1135A508C1B204603F0B0FF01F0CBB81422DFF812
S1135A601419DFF8540503F0A7FF1422DFF86C1BA8
S1135A70204603F0A1FF01F0BCB81422DFF81C1982
S1135A80DFF8340503F098FF1422DFF8501B20469A
S1135A9003F092FF01F0ADB81422DFF8041901E01D
S1135AA094E10100DFF8100503F086FF1422DFF80B
S1135AB02C1B204603F080FF01F09BB81422DFF872
S1135AC0E818DFF8F40403F077FF1422DFF80C1B66
S1135AD0204603F071FF01F08CB81422DFF8CC18D3
S1135AE0DFF8D40403F068FF1422DFF8F01A20462C
S1135AF003F062FF01F07DB8DFF8B40802E000BFF4
S1135B00BCE10100DFF8B0146CC86CC11422DFF8EA
S1135B10CC1A204603F050FF01F06BB81422DFF8D2
S1135B209418DFF8940403F047FF1422DFF8AC1A4A
S1135B30204603F041FF01F05CB81422DFF8D81DC1
S1135B40DFF8740403F038FF1422DFF8101E204637
S1135B5003F032FF0020A0767E2000F07FBD00BF5E
S1135B60D0E101001422DFF8B01DDFF84C0403F08B
S1135B7023FF1422DFF8E81D204603F01DFF7F20D9
S1135B8020707E20E07301F034B81422DFF8881D01
S1135B90DFF8240403F010FF1422DFF8C81D2046A8
S1135BA003F00AFF0020A076C7E100BFE4E1010092
S1135BB0F8E101001422DFF8B01DDFF8FC0303F064
S1135BC0FBFE1422DFF8A41D204603F0F5FE00209E
S1135BD0A076DFF8F80D007800F001010129A4BFD8
S1135BE04821A17000F002010129A4BF482161717C
S1135BF000F004010129A4BF4821217200F008012A
S1135C000129A4BF4821E17200F010000128C0F26C
S1135C10F2874820A07300F0EEBF00BF0CE2010041
S1135C2020E2010034E2010048E201005CE20100EC
S1135C3070E2010084E2010098E20100ACE201009C
S1135C401422DFF88C1DDC48DFF8885D03F0B4FE15
S1135C500020A076DFF8801DDFF8800D007800F0CA
S1135C6001000128ACBFE4A2E4A2284604F004FA2F
S1135C702146284603F065FD7E2000F0EFBC142287
S1135C80DFF84C1DCC48DFF84C5D03F095FE002096
S1135C90A076DFF84C1DDFF8440D007800F0020018
S1135CA00128ACBFD4A2D5A2284604F0E5F92146C8
S1135CB0284603F046FD7F2020707E2000F0CEBCF5
S1135CC01422DFF80C1DBC48DFF8085D03F074FEF5
S1135CD00020A076DFF8C81DDFF8000D007800F082
S1135CE004000128ACBFC4A2C4A2284604F0C4F92D
S1135CF02146284603F025FD7F2020707E2000F0F9
S1135D00ADBC1422DFF8C81CAB48DFF8C85C03F054
S1135D1053FE0020A076DFF8B01DDFF8C00C007839
S1135D2000F008000128ACBFB3A2B4A2284604F0D6
S1135D30A3F92146284603F004FD7F2020707E202D
S1135D4000F08CBC1422DFF8881C9B48DFF8845CCC
S1135D5003F032FE0020A076DFF8701DDFF87C0C23
S1135D60007800F010000128ACBFA3A2A3A228462B
S1135D7004F082F92146284603F0E3FC7F202070DA
S1135D807E2000F06BBC1422DFF8441C8A48DFF844
S1135D90445C03F011FE0020A076DFF8341DDFF828
S1135DA03C0C007800F020000128ACBF92A293A222
S1135DB0284604F061F92146284603F0C2FC7F20FE
S1135DC020707E2000F04ABC1422DFF8041C7A48BC
S1135DD0DFF8005C03F0F0FD0020A076DFF8FC1C87
S1135DE0DFF8F80B007800F040000128ACBF82A275
S1135DF082A2284604F040F92146284603F0A1FC7B
S1135E007F2020707E2000F029BC1422DFF8C01B04
S1135E106948DFF8C05B03F0CFFD0020A076DFF80F
S1135E20C01CDFF8B80B007800F080000128ACBF7C
S1135E3071A272A2284604F01FF92146284603F0F5
S1135E4080FC7F2020707E2000F008BC1422DFF844
S1135E50801B5948DFF87C5B03F0AEFD0020A07680
S1135E60DFF8801CDFF8740B008800F480700128D0
S1135E70ACBF61A261A2284604F0FEF82146284680
S1135E8003F05FFC7F2020707E2000F0E7BB14222B
S1135E90DFF8541C484803F08FFD0020A07614223C
S1135EA0DFF85C1D204603F087FD7E20D6E3142234
S1135EB0DFF8341C404803F07FFD1422DFF8441D52
S1135EC0204603F079FD7F2020707E20E07300F0EF
S1135ED090BE1422DFF8101C374803F06DFD142225
S1135EE0DFF8241D204603F067FD7F2020707E200C
S1135EF0E07300F07EBE1422DFF8EC1B2E4803F0A2
S1135F005BFD0020A0761422DFF8001D204603F07C
S1135F1053FD7F2020707E20E07300F06ABE1422BF
S1135F20DFF8C41B244803F047FD0020A0761422A8
S1135F30DFF8DC1C204603F03FFD7F20207000F0DA
S1135F405ABE1422DFF8CC1C1B48DFF8885A03F031
S1135F5033FD0020A076DFF8C01CDFF8C00C4068D9
S1135F6004F0A4F8DFF8B81C086004F01DF90B462F
S1135F700246DFF8B01C74E0C0E20100D4E2010084
S1135F801422DFF8A41C0C48DFF8485A03F014FD6F
S1135F900020A0766421DFF8940C006890FBF1F2F5
S1135FA0DFF88C1C284604F067F85DE0E8E20100A5
S1135FB0FCE2010010E30100741F00201422DFF84A
S1135FC0741CDFF8740CDFF80C5A03F0F5FC0020A5
S1135FD0A076DFF8681CDFF8680C0068086004F03D
S1135FE00FF9DFF8601C04F061F804F0DDF80B46EB
S1135FF00246DFF8541C34E04F4646004F4E000082
S113600024E301001422DFF8441CDFF82C0CDFF831
S1136010C45903F0D1FC0020A076DFF8340C0068EA
S113602004F0EEF8DFF82C1C04F040F804F0BCF89F
S11360300B460246DFF8201C13E01422DFF81C1C78
S1136040DFF8F40BDFF88C5903F0B6FC0020A076DF
S1136050DFF80C0C006804F0A7F80B460246DFF8E2
S1136060041C284604F008F82146284603F069FB7E
S113607000F0C1BD38E301001422DFF8F81BDFF89B
S1136080B80B03F099FC1422DFF8EC1B204603F054
S113609093FC7E20E07300F0ACBD1422DFF8D41B27
S11360A0DFF8940B03F088FC1422DFF8D01B2046A1
S11360B003F082FC7F2020707E20E07300F099BD05
S11360C01422DFF8B01BDFF8700B03F075FC142208
S11360D0DFF8AC1B204603F06FFC7F2020707E208D
S11360E0E07300F086BD00BF4CE3010060E30100F3
S11360F01422DFF8801BDFF8400B03F05DFC142250
S1136100DFF8801B204603F057FC7F2020707E20A0
S1136110E07300F06EBD00BF74E301001422DFF8E9
S1136120541BDFF8140B03F047FC1422DFF8581B50
S1136130204603F041FC7F2020707E20E07300F0B5
S113614058BD00BF88E301001422DFF8281BDFF8E4
S1136150E80A03F031FC1422DFF8301B204603F078
S11361602BFC7F2020707E20E07300F042BD00BF36
S11361709CE30100B0E30100C4E301001422DFF852
S1136180F41ADFF8B40A03F017FC1422DFF8001B3A
S1136190204603F011FC7F2020707E20E07300F085
S11361A028BD00BFD8E30100ECE30100141F002068
S11361B01422DFF8C01ADFF8800A03F0FDFB142272
S11361C0DFF8D01A204603F0F7FB00F010BD1422CC
S11361D0DFF8C41ADFF8600A03F0EEFB1422DFF8DC
S11361E0981A204603F0E8FBDFF8F0174FF6F47036
S11361F0088000F0FEBC00BF00E4010014E40100CC
S113620028E401003CE4010050E401001422DFF81A
S11362108C1ADFF8240A03F0CFFB1422DFF8801A6B
S1136220204603F0C9FB0120A076DFF8780A017844
S113623061714178A17181782172C0786072A07D0A
S1136240032800F2D884DFE810F03400040036009C
S11362503800CE2036E01422DFF84C1ADFF8D809D3
S113626003F0AAFB1422DFF8441A204603F0A4FB2F
S1136270DFF8300A017861714178A1712D21E17153
S113628081782172C17861722D21A1720179E17244
S1136290407920730120A076A07D052800F2AB840C
S11362A0DFE810F00700060009000B000D000F00E6
S11362B0CFE7CD2006E0D02004E0D12002E0D320B7
S11362C000E0D420607600F096BC1422DFF8E019D8
S11362D0DFF8640903F070FB1422C049204603F080
S11362E06BFB00F086BC1422DFF8C819DFF84809FC
S11362F003F062FB1422B949204603F05DFB00F071
S113630078BC00BF64E4010078E401008CE401007F
S11363101422DFF8A419DFF8200903F04DFB14223E
S1136320DFF89819204603F047FB7E20E07300F065
S113633060BC1422DFF88019DFF8FC0803F03CFB92
S11363401422DFF87C19204603F036FB00F04FBC22
S11363501422DFF87019DFF8E00803F02DFB142293
S1136360DFF85819204603F027FB7E20E07300F085
S113637040BC00BFA0E40100B4E401001422DFF833
S11363804419DFF8B40803F017FB1422DFF83019BE
S1136390204603F011FB00F02ABC00BFC8E4010052
S11363A0DCE40100F0E4010000E5010014E5010073
S11363B028E5010038E50100DFF8185620222946B7
S11363C040F2FD2003F024FC002085F82000002189
S11363D0DFF8F408DFF860680170A4F110023146B8
S11363E02B78FBB10778102F03DA0B7000234B7066
S11363F002E01370002353707B1C03706F788FB11D
S1136400DBB2102B03DA4F7000278F7002E0577055
S1136410002797705B1C0370921C891CAD1CDBB2B7
S1136420202BDDDB0178202980F2E583102904DAB2
S113643020238B558A19002304E00A19202302F82B
S1136440103D00235370491C0170EBE7DFF88455BD
S11364502022294640F21D3003F0DAFB002085F8A3
S113646020000021DFF86008DFF8CC670170A4F198
S1136470100231462B78FBB10778102F03DA0B702A
S113648000234B7002E01370002353707B1C0370D5
S11364906F788FB1DBB2102B03DA4F7000278F7047
S11364A002E05770002797705B1C0370921C891CD4
S11364B0AD1CDBB2202BDDDB0178202980F29B832D
S11364C0102904DA20238B558A19002304E00A19C1
S11364D0202302F8103D00235370491C0170EBE7A0
S11364E0A37D0022190016D0DFF8B807DFF848674B
S11364F0185C1D19A3F1480703F16401102BB9BFFF
S113650098558E4605F8100CBE46521CD2B29A42DB
S113651084F819E0F2D3DFF8B0070270102B207F63
S1136520B9BFDFF814279854191901F8100C012089
S113653060E3DFF898070178CB3908D0091F06D04B
S1136540891E022903D9C91E02290BD90CE0142281
S1136550DFF87C17DFF8E00603F02EFA1422DFF8E8
S1136560741721E0AF2005E0617F491C6177C9B24F
S113657011B1B02020623EE3CF2101703BE314222D
S1136580DFF84C17DFF8B00603F016FA1422DFF830
S1136590481709E01422DFF83817DFF89C0603F0E7
S11365A00BFA1422DFF83417204603F005FA22E32D
S11365B01422DFF82C17DFF8800603F0FDF914220B
S11365C0DFF82017204603F0F7F9DFF810040188FC
S11365D04FF6F072114001800DE300BFBCDC0100F6
S11365E00020A076DFF800070078401E0ED0401E81
S11365F0032803D9401F042804D90BE00A22DFF83A
S1136600EC160AE00922DFF8E81606E00B22DFF8B0
S1136610E41602E00922DFF8E016DFF8B803DFF839
S1136620B45303F0B9F9DFF81016284603F089F8DB
S1136630DFF8C80600686421B0FBF1F2DFF8F0155A
S1136640284603F019FD2146284603F07AF8DFF8BE
S1136650B0060068002800F0CE822120E073CAE270
S11366601422DFF8A016DFF8D00503F0A5F91422F0
S1136670DFF89416204603F09FF9BAE20020A076D2
S1136680DFF86476DFF884663878D24D0F2800F29C
S1136690AF80DFE800F0080B141D29464F58616AEB
S11366A0757E879099A3DFF868069FE00522DFF8DE
S11366B06416284603F070F9DFF85C0696E00A22B7
S11366C0DFF85816284603F067F9DFF854068DE022
S11366D00722DFF85016284603F05EF9DFF8480673
S11366E084E000BF4CE501000622DFF8401628468E
S11366F003F052F9DFF83806DFF838160068097835
S113670069B9DFF83416DFF82026096812684843AF
S1136710DFF80C1609685118B0FBF1F067E0400887
S113672065E01022DFF81416284603F035F9DFF887
S113673010065BE00922DFF8C015284603F02CF9A7
S1136740DFF8D40552E00E22DFF8F815284603F0EE
S113675023F9DFF8F40549E00F22DFF8F0152846A5
S113676003F01AF9DFF8E80540E00D22DFF8E4153C
S1136770284603F011F9DFF8E00537E060E5010091
S11367800E22DFF8D815284603F006F9DFF8D00505
S11367902CE00A22DFF8CC15284603F0FDF8DFF8D8
S11367A0C80523E01122DFF8C415284603F0F4F8E5
S11367B0DFF864051AE01022DFF8B415284603F068
S11367C0EBF8DFF8B00511E00C22DFF8AC15284631
S11367D003F0E2F8DFF8A405007808E00D22DFF802
S11367E0A015284603F0D8F8DFF898050068306053
S11367F0DFF84414284602F0A4FF3878012807D1B2
S11368000622DFF8841508E074E5010088E501003C
S1136810062806D10622DFF87415284603F0BCF8D2
S113682010E0DFF8F41430680968411A11F10A0F16
S1136830B8BF0146DFF8580501600A46A5A12846FD
S113684003F01AFCDFF84C753268A3A1384603F054
S113685013FC3946284603F0ECFC214602F071FF94
S11368607F2020707E20E073C3E11422DFF8281516
S1136870DFF8C403574D03F09FF8DFF820050368E1
S1136880DFF81C050068191ADFF8040548BF002169
S113689001600A46DFF80C15284603F0EDFB21469B
S11368A0284602F04EFF7F2020707E20E073A0E196
S11368B01422DFF8F414DFF88003464D03F07CF86B
S11368C0DFF8E814DFF8E8040978006801290CD13E
S11368D003F06AFCDFF8DC24DFF8DC3403F0B8FCF6
S11368E00B460246DFF8D41463E003F083FD02464E
S11368F0DFF8CC14284603F0BFFB5DE01422DFF878
S1136900C414CD48DFF8046403F056F80020308046
S1136910DFF8B4140AE000BF9CE501005A5C1AB128
S113692010187278521C72705A1C32703378052B0E
S1136930F4DB7178274DB0FBF1F2DFF89004DFF857
S113694090140260284603F097FB2146284602F083
S1136950F8FE7F2020707E20E0734AE1B0E501005C
S1136960C4E50100D8E50100ECE5010000E6010002
S11369701422DFF86014B048164D03F01DF8DFF858
S11369802C14A6480978406801290CD103F00CFCAA
S1136990DFF82024DFF8203403F05AFC0B460246CB
S11369A0DFF8341405E003F0FFFB0B460246DFF882
S11369B02C14284603F060FB2146284602F0C1FE51
S11369C07F2020707E20E07313E100BF3C1D002077
S11369D014E601009819002028E601001020002088
S11369E034E601001422DFF8F8139348DFF8F45377
S11369F002F0E2FFDFF8F003006803F001FC8649CF
S1136A0003F054FB03F0D0FB02460B46DFF8DC1323
S1136A10284603F031FB2146284602F092FE7F20EF
S1136A2020707E20E073E4E01422DFF8C41382486F
S1136A30DFF8B05302F0C0FFDFF8B803006803F0DA
S1136A40DFFB754903F032FB03F0AEFB02460B4655
S1136A50DFF89813284603F00FFB2146284602F07E
S1136A6070FE7F2020707E20E073C2E01422DFF8E5
S1136A7088137148DB4D02F09FFF7948006803F0EA
S1136A8093FB02460B467749284603F0F5FA214664
S1136A90284602F056FE7F2020707E20E073A8E096
S1136AA040E601001422D5496348CE4D02F084FF2C
S1136AB093480068002814BF6BA26CA26CA12846FE
S1136AC003F0DAFA8FE000BF48E6010050E6010067
S1136AD058E60100256400002F25640068E60100E3
S1136AE078E6010084E6010090E60100002020E041
S1136AF001201EE002201CE003201AE0042018E01C
S1136B00052016E0062014E0072012E0082010E01B
S1136B1009200EE00A200CE00B200AE00C2008E01B
S1136B200D2006E00E2004E00F2002E0102000E01B
S1136B301120FDF71FFB5EE03F4EB14914223046A1
S1136B4002F03AFF6E480068C0F3804028B1592033
S1136B5070736520B0737320F07306228D4F39462D
S1136B6042F6BC3003F054F838799E4D7B783A787D
S1136B70A4490290F8780190B8780090284603F070
S1136B807BFA002028742146284602F0DAFD7F2093
S1136B9020707E20E0732CE0274E9B49142230465F
S1136BA002F00AFF56480068C0F3005028B159208B
S1136BB070736520B0737320F0730622754F3946E5
S1136BC042F6C83003F024F83879864D7B783A7859
S1136BD08C490290F8780190B8780090284603F028
S1136BE04BFA002028742146284602F0AAFD7F2093
S1136BF020700020A07603B0BDE8F04002F082BA15
S1136C00A4E60100B8E60100CCE60100E0E60100DC
S1136C10F4E6010008E701000000C84298070020DC
S1136C202C2000201CE7010028E701003008002088
S1136C303CE7010048E70100741F0020B80700206A
S1136C40C007002000007A445CE7010068E7010007
S1136C50701F0020000020417CE7010088E701004C
S1136C60D42000209CE70100594553004E4F0000FA
S1136C7025730000A8E70100BCE70100D0E701008C
S1136C80E4E70100F8E701000CE8010020E8010056
S1136C9034E8010048E801005CE8010070E8010004
S1136CA084E80100141F002098E80100ACE801000A
S1136CB0C0E80100D4E80100E8E80100FCE80100B4
S1136CC010E9010024E9010009210020091E002027
S1136CD038E901004CE9010060E9010074E90100B0
S1136CE088E901009CE90100B6080020B0E9010030
S1136CF0BCE90100C8E90100D4E9010068200020D2
S1136D00C0200020E0E90100F4E90100D81F0020C0
S1136D10B81F002008EA01003420002010EA010016
S1136D20580800201CEA01005C08002024EA010045
S1136D306008002011210020382000202CEA0100E6
S1136D406C2000203CEA0100680800204CEA0100A5
S1136D506C0800205CEA0100780800206CEA01005D
S1136D607C0800207CEA01009408002088EA0100E5
S1136D709CEA01009C080020ACEA0100B80800204D
S1136D80B8EA01008008002000DB0100C8EA010025
S1136D90282000207813002060E50100640800200A
S1136DA070200020D0EA0100D8EA0100B7080020D2
S1136DB05420002077D5F270AAE8D03FECEA010015
S1136DC0F8EA010000EB0100F01F00203020002051
S1136DD014EB01001CEB010030EB010040EB01005F
S1136DE04CEB0100981900206C1C002060EB0100A2
S1136DF068EB0100701C00207CEB010090EB0100AB
S1136E0084DC0100ACDC010098DC010070B588B0C2
S1136E10FDF776F9DFF8204CE07D012842F065812A
S1136E200020E075607D032802F25A81DFE810F04B
S1136E300400FC006E02910F206A401ECD2802F26D
S1136E404F81DFE810F069105F10C501DF004D11BC
S1136E504D114D113511150218021B021E0221029B
S1136E60240227022A024D11350F2D02300233026B
S1136E703602360239023C023F024202450248020F
S1136E804B024E025102540257025A025D024D1146
S1136E90EB00EE004D114D114A033111D110D31006
S1136EA0D510D71011114D1189106D106F1071107C
S1136EB073107510771079107B107D107F1081107E
S1136EC08310851087108B108D108F1091109310E4
S1136ED09510971099109B109D109F10A1104D11A3
S1136EE0EB01BF10C110C310C510C710C910CB10DF
S1136EF0CD10DF00DF00DF00DF00DF00DF00DF0098
S1136F00DF00DF00DF00DF00DF00DF00DF00DF0085
S1136F10DF00DF00DF00DF00DF00DF00DF00DF0075
S1136F20DF00DF00DF004D114D11E8004D114D1160
S1136F304D11DF00DF00DF00DF00DF00DF00DF00D6
S1136F40DF00DF004D114D114D114D114D114D114B
S1136F504D114D114D114D114D114D114D114D113D
S1136F604D114D114D114D114D114D114D114D112D
S1136F704D114D114D114D114D114D114D114D111D
S1136F804D114D114D114D114D114D11DF00DF000B
S1136F904D11D9104D11CE004D11ED104D11CE00F3
S1136FA04D114D114D114D114D114D114D11241116
S1136FB026114D114D11950EF401F701FA01FD0151
S1136FC00002030206024D113B11EE01F1014911C9
S1136FD04D114D114D114D114D114D116110631095
S1136FE06510207F7A2808DA401C2077C0B25C281C
S1136FF042F076805D2001F019BD01F01685202055
S113700001F014BDA17DDFF8345A485D392882F2BD
S11370106780401CF9E0722002F061B8252002F07C
S11370205EB8262002F05BB8206ACD2802F25880B0
S1137030DFE810F0680FCE0031105610E300561050
S11370401E0156102101240127012A012D013001BE
S1137050330140105610360139013C013F01420111
S11370604201450148014B014E01510154015701B0
S11370705A015D0160016301660169015610F10066
S11370802B1056103A105610DA0FDC0FDE0FE00FFB
S11370901A1015015610760F780F7A0F7C0F7E0F99
S11370A0800F820F840F860F880F8A0F8C0F8E0F2C
S11370B0900F940F960F980F9A0F9C0F9E0FA00F8E
S11370C0A20FA40FA60FA80FAA0FF400C80F561002
S11370D0CA0FCC0FCE0FD00FD20FD40FD60FD80FAC
S11370E05610E300E300E300E300E300E300E30001
S11370F0E300E300E300E300E300E300E300E30074
S1137100E300E300E300E300E300E300E300E30063
S1137110E300E300E3005610EE005610561056103C
S11371205610E300E300E300E300E300E300E300C0
S1137130E300E30056105610561056105610561021
S1137140561056105610561056105610561056100B
S113715056105610561056105610561056105610FB
S113716056105610561056105610561056105610EB
S1137170561056105610561056105610E300E300E1
S1137180180156105610D1001B0156105610D1008C
S11371905610561056105610561056102F104210F6
S11371A056105610FD0000010301060109010C01EF
S11371B00F0112015610F700FA0052105410561025
S11371C0561056105610561056106C0F6E0F700F46
S11371D0022001F084BF207F2128C1F226847F2869
S11371E008BF7A2001F02284401E2077C0B25C28B8
S11371F041F076875B2001F019BCA17DDFF83C5893
S1137200485D3128C1F26C87401E485501F068BFC3
S1137210732001F064BF262001F061BF4C2001F00F
S11372205EBFC22001F05BBFC32001F058BFB9208C
S113723001F055BFBA2001F052BFBB2001F04FBF8F
S1137240BC2001F04CBFBD2001F049BFBE2001F0BD
S113725046BFBF2001F043BFC02001F040BF302033
S113726001F03DBFA72001F03ABFAB2001F037BFCA
S1137270082001F034BF092001F031BF0A2001F0D9
S11372802EBF0B2001F02BBF0C2001F028BF0D20D6
S113729001F025BF0E2001F022BF0F2001F01FBF17
S11372A0122001F01CBF132001F019BF142001F0BB
S11372B016BF152001F013BF172001F010BF1820CE
S11372C001F00DBF192001F00ABF1A2001F007BF19
S11372D01B2001F004BF1C2001F001BF1D2001F0A0
S11372E0FEBE1E2001F0FBBE1F2001F0F8BE2020D0
S11372F001F0F5BE212001F0F2BE222001F0EFBE24
S1137300232001F0ECBE242001F0E9BE206ACE283F
S113731001F2E686DFE810F0CF00F80DD400E100BA
S1137320E400E40E930CC90C930CE40EE40EE40E9A
S1137330E40EE40EE40EE40ECC0CCE0CD10CD40C12
S1137340DD0CE00CE30CE60CE40EF10CF40CF70C91
S1137350FA0CFD0C000D030D060DE40EE40EE40E14
S1137360E40EE40E200EBB0E6F0AE40E720A760AD7
S1137370B90A700E840E4A0B560B920100010801E3
S11373801001180120012801300138014001480191
S113739050015801600168019A01B601D101D90177
S11373A0E101E9010B0234025D028602AF02B70279
S11373B0BA02E40EC302EC0215033E0367036F0333
S11373C077037F038703AA03D80305043404630403
S11373D09004BD04EA04170547057405A105D10509
S11373E0FF052F065F068F06BF06EE061B0747073D
S11373F07607A407D307020830085E087F089508BB
S1137400E40EE40EE40EB608FF082C0957098309BC
S1137410AB09D309FD09280AE40EE40EE40EE40ED8
S1137420E40EE40EE40EE40EE40EE40EE40EE40EC8
S1137430E40EE40EE40EE40EE40EE40EE40EE40EB8
S1137440E40EE40EE40EE40EE40EE40EE40EE40EA8
S1137450E40EE40EE40EE40EE40EE40EE40EE40E98
S11374609C0BD60B0E0B100BE40E580B2C0B2E0B97
S1137470E40E580BE40EE40EE40EE40EE40EE40E07
S11374802A0C2C0CD20EE40E2E0C390C440C4F0C8E
S11374905A0C650C700C7B0C860C0B0D0D0D130D2A
S11374A0190D1B0DE40EE40EE40EE40EE40EF400DC
S11374B0F700FA00FD00002002F0AEFF01F010BE5C
S11374C00420206205220020A075DFF87415DFF87F
S11374D06C0502F071FA01F003BE282001F0FFBD33
S11374E0A17D0329C1F2F182DFF85815DFF84C05BC
S11374F003F018F8002814BF0520262001F0EFBD82
S1137500CF2001F0ECBDD02001F0E9BDD12001F085
S1137510E6BDD22001F0E3BDDFF82C05006801F0E0
S1137520F5FF582001F0DBBDDFF82005006801F00D
S1137530EDFF592001F0D3BDDFF81405006801F018
S1137540E5FF5A2001F0CBBDDFF80805006801F023
S1137550DDFF5B2001F0C3BDDFF8FC04006801F02F
S1137560D5FF5C2001F0BBBDDFF8F004006801F03A
S1137570CDFF5D2001F0B3BDDFF8E404006801F045
S1137580C5FF5E2001F0ABBDDFF8D804006801F050
S1137590BDFF5F2001F0A3BDDFF8CC04006801F05B
S11375A0B5FF602001F09BBDDFF8C40E006801F058
S11375B0ADFF612001F093BDDFF8B80E006801F063
S11375C0A5FF622001F08BBDDFF8AC0E006801F06E
S11375D09DFF632001F083BDDFF8A00E006801F079
S11375E095FF642001F07BBDDFF8940EDFF84C5466
S11375F000680A21B0FBF1F101EB8103A0EB430227
S11376003032EA702E22AA700A22B1FBF2F202EBA7
S11376108203A1EB4301303169706421B0FBF1F0C6
S11376200A21B0FBF1F101EB8102A0EB4200303002
S113763028700020A075652001F051BDDFF8980E78
S1137640006801F063FF572001F049BDDFF88C0E9C
S1137650DFF8E85300680A21B0FBF1F101EB810285
S113766030316970A0EB420264213032B0FBF1F09A
S1137670EA70303028702E22AA700020A07566208F
S113768001F02DBDDFF8580EEC4D00680A21B0FB67
S1137690F1F101EB810230316970A0EB4202642107
S11376A03032B0FBF1F0EA70303028702E22AA702C
S11376B00020A075672001F012BDDFF8280E0068D5
S11376C001F024FF682001F00ABDDFF81C0E0068F9
S11376D001F01CFF692001F002BDDFF8100E006804
S11376E001F014FF6A2001F0FABCDFF8040ED34D58
S11376F000680A21B0FBF1F101EB8103A0EB430226
S11377003032EA700A22B1FBF2F202EB8203A1EBFF
S113771043013031A9702E2169706421B0FBF1F06E
S1137720303028700020A0756B2001F0D8BCDFF841
S1137730C40DC24D00680A21B0FBF1F101EB8103D5
S1137740A0EB43023032EA700A22B1FBF2F202EB00
S11377508203A1EB43013031A9702E2169706421A9
S1137760B0FBF1F00A21B0FBF1F101EB8102A0EBD7
S11377704200303028700020A0756C2001F0AFBCAE
S1137780DFF8740DAD4D00680A21B0FBF1F101EB97
S11377908103A0EB43023032EA702E22AA700A223F
S11377A0B1FBF2F202EB8203A1EB430130316970C9
S11377B06421B0FBF1F00A21B0FBF1F101EB81028D
S11377C0A0EB4200303028700020A0756D2001F03D
S11377D086BCDFF8280D994D00680A21B0FBF1F151
S11377E001EB8103A0EB43023032EA702E22AA702F
S11377F00A22B1FBF2F202EB8203A1EB4301303126
S113780069706421B0FBF1F00A21B0FBF1F101EBE6
S11378108102A0EB4200303028700020A0756E2059
S113782001F05DBCDFF8D80C844D00680A21B0FB80
S1137830F1F101EB8103A0EB43023032EA700A223A
S1137840B1FBF2F202EB8203A1EB43013031A970E8
S11378502E2169706421B0FBF1F00A21B0FBF1F133
S113786001EB8102A0EB4200303028700020A075AB
S11378706F2001F034BCDFF88C0C806801F046FE08
S1137880702001F02CBC712001F029BCDFF8780CC9
S11378900078002814BF7320722001F020BCDFF8A8
S11378A06C0C664D00680A21B0FBF1F101EB810319
S11378B0A0EB43023032EA700A22B1FBF2F202EB8F
S11378C08203A1EB43013031A9702E216970642138
S11378D0B0FBF1F00A21B0FBF1F101EB8102A0EB66
S11378E04200303028700020A075772001F0F7BBEB
S11378F0DFF85C0E514D00680A21B0FBF1F101EB99
S11379008103A0EB43023032EA700A22B1FBF2F2A7
S113791002EB8203A1EB43013031A9702E2169707F
S11379206421B0FBF1F00A21B0FBF1F101EB81021B
S1137930A0EB4200303028700020A075782001F0C0
S1137940CEBBDFF8600E3D4D00680A21B0FBF1F1BB
S113795001EB8103A0EB43023032EA700A22B1FB4F
S1137960F2F202EB8203A1EB43013031A9702E2124
S113797069706421B0FBF1F00A21B0FBF1F101EB75
S11379808102A0EB4200303028700020A0757920DD
S113799001F0A5BBDFF8340E284D00680A21B0FBC6
S11379A0F1F101EB8103A0EB43023032EA700A22C9
S11379B0B1FBF2F202EB8203A1EB43013031A97077
S11379C02E2169706421B0FBF1F00A21B0FBF1F1C2
S11379D001EB8102A0EB4200303028700020A0753A
S11379E07A2001F07CBBDFF8E80D006801F08EFD21
S11379F07B2001F074BBDFF8DC0D006801F086FD2C
S1137A007C2001F06CBBDFF8D00D006801F07EFD36
S1137A107D2001F064BBDFF8C40D006801F076FD41
S1137A207E2001F05CBBDFF8B80D006801F06EFD4C
S1137A307F2001F054BB00BFF01E0020141F002063
S1137A40A4EB0100C81D0020580800205C08002099
S1137A50600800206C200020680800206C080020CA
S1137A60700800207408002078080020A17D0329F4
S1137A70C1F22B80DFF86C5DE878A9786B782A78FE
S1137A80DFF8646D02EB820503EB450202EB82032F
S1137A9001EB430101EB810200EB4200DFF84C1DD6
S1137AA0081841F28931884230600AD2DFF8281A76
S1137AB008600222DFF8741E086040F2191000F01A
S1137AC079BE802001F00BBBA17D0329C0F2FD87A4
S1137AD0DFF8105DE878A9786B782A78DFF8086D0C
S1137AE002EB820503EB450202EB820301EB430147
S1137AF001EB810200EB4200DFF8F01C0818811E44
S1137B001D2930600AD2DFF8281E08600122DFF840
S1137B101C1E08604FF4817000F04CBE812001F0FF
S1137B20DEBAA17D0329C0F2D087DFF8B85CE8781B
S1137B30A9786B782A78DFF8B06C02EB820503EB46
S1137B40450202EB820301EB430101EB810200EBEE
S1137B504200DFF8981C0818A0F10A01B1F5F57F7E
S1137B6030600AD8DFF8581E08600222DFF8BC1D16
S1137B70086040F2031000F01DBE822001F0AFBA8D
S1137B80A17D0329C0F2A187DFF8585CE878A978C1
S1137B906B782A78DFF8506C02EB820503EB450220
S1137BA002EB820301EB430101EB810200EB420093
S1137BB0DFF8381C0818A0F10A01B1F5F57F306030
S1137BC00AD8DFF8441E08600222DFF8601D08604E
S1137BD040F2051000F0EEBD832001F080BAA17DD3
S1137BE00329C0F27287DFF8FC5BE878A9786B7828
S1137BF02A78DFF8F46B02EB820503EB450202EB13
S1137C00820301EB430101EB810200EB4200DFF848
S1137C10DC1B0818B0F5FA7F30600AD8DFF82C1E98
S1137C2008600222DFF8041D086040F2071000F02B
S1137C30C1BD842001F053BAA17D0329C0F2458758
S1137C40DFF8A05BE878A9786B782A78DFF8986B7E
S1137C5002EB820503EB450202EB820301EB4301D5
S1137C6001EB810200EB4200DFF8801B0818306052
S1137C700CD0C9280AD2DFF83C1E08600222DFF8C3
S1137C80AC1C086040F2091000F094BD852001F09E
S1137C9026BAA17D0329C0F21887DFF8485BE8788B
S1137CA0A9786B782A78DFF8406B02EB820503EB46
S1137CB0450202EB820301EB430101EB810200EB7D
S1137CC04200DFF8281B081830600CD0C9280AD2FB
S1137CD0DFF8E41D08600222DFF8501C086040F25F
S1137CE00B1000F067BD862001F0F9B9A17D0329CE
S1137CF0C0F2EB86DFF8EC5AE878A9786B782A783A
S1137D00DFF8E46A02EB820503EB450202EB82032F
S1137D1001EB430101EB810200EB4200DFF8CC1AD6
S1137D20081830600CD0C9280AD2DFF8281E086071
S1137D300222DFF8F81B086040F20D1000F03ABD93
S1137D40872001F0CCB9A17D0329C0F2BE86DFF8FB
S1137D50945AE878A9786B782A78DFF88C6A02EB71
S1137D60820503EB450202EB820301EB430101EBC5
S1137D70810200EB4200DFF8741A41F6F52208187C
S1137D80A0F59671914230600AD2DFF8CC1D0860EC
S1137D900222DFF8981B086040F20F1000F00ABDC1
S1137DA0882001F09CB9A17D0329C0F28E86DFF8FA
S1137DB0345AE878A9786B782A78DFF82C6A02EBD1
S1137DC0820503EB450202EB820301EB430101EB65
S1137DD0810200EB4200DFF8141A081830600CD05E
S1137DE015280AD2DFF8741D08600122DFF83C1B55
S1137DF0086040F2111000F0DDBC892001F06FB979
S1137E00A17D0329C0F26186DFF8D859E878A97802
S1137E106B782A78DFF8D06902EB820503EB450220
S1137E2002EB820301EB430101EB810200EB420010
S1137E30DFF8B819081830600CD03D280AD2DFF8F2
S1137E40301608600122DFF8E41A08604FF48970E4
S1137E5000F0B0BC8A2001F042B9A17D0329C0F230
S1137E603486DFF88059E878A9786B782A78DFF8C7
S1137E70786902EB820503EB450202EB820301EB16
S1137E80430101EB810200EB4200DFF8601940F688
S1137E90DF520818A0F13201914230600AD2DFF8B3
S1137EA0D41508600222DFF8841A086040F2131027
S1137EB000F080BC8B2001F012B9A17D0329C0F22F
S1137EC00486DFF82059E878A9786B782A78DFF8F7
S1137ED0186902EB820503EB450202EB820301EB16
S1137EE0430101EB810200EB4200DFF8001908189E
S1137EF0A0F10A01332930600AD2DFF87C1508604A
S1137F000122DFF8281A086040F2151000F052BC74
S1137F108C2001F0E4B8A17D0329C0F2D685DFF8F6
S1137F20C458E878A9786B782A78DFF8BC6802EB43
S1137F30820503EB450202EB820301EB430101EBF3
S1137F40810200EB4200DFF8A41840F6F35208184F
S1137F50A0F11E01914230600AD2DFF820150860BA
S1137F600222DFF8C81908604FF48B7000F022BCBD
S1137F708D2001F0B4B8A17D032908DA481CA0754E
S1137F80C0B2022841F0AC80032000F09FBDDFF8AE
S1137F905458DFF854682A786B78A2F1300000EB6B
S1137FA08001A3F1300000EB4102E878303802EBA5
S1137FB0820100EB41006528306009D2DFF8C0146B
S1137FC008600122DFF8641908604FF48C70F1E353
S1137FD08E2001F084B8A17D032908DA481CA0751D
S1137FE0C0B2022841F07C80032000F06FBDDFF8AE
S1137FF0F457DFF8F4672A786B78A2F1300000EBCD
S11380008001A3F1300000EB4102E878303802EB44
S1138010820100EB41006528306009D2DFF8BC140E
S113802008600122DFF80419086040F21B10C1E364
S11380308F2001F054B8A17D032908DA481CA075EB
S1138040C0B2022841F04C80032000F03FBDDFF8AD
S11380509457DFF894672A786B78A2F1300000EB2C
S11380608001A3F1300000EB4102E878303802EBE4
S1138070820100EB41006528306009D2DFF860140A
S113808008600122DFF8A41808604FF48E7091E3B1
S1138090902001F024B8A17D0329C0F21685DFF8F1
S11380A04457E878A9786B782A78DFF83C6702EBC4
S11380B0820503EB450202EB820301EB430101EB72
S11380C0810200EB4200DFF8241740F2DD52081869
S11380D0A0F5FA719142306009D2DFF80814086003
S11380E00222DFF84818086040F21D1062E3912074
S11380F000F0F5BFA17D0329C0F2E784DFF8E45660
S1138100E878A9786B782A78DFF8DC6602EB8205D8
S113811003EB450202EB820301EB430101EB810215
S113812000EB4200DFF8C4160818A0F11401292955
S1138130306009D2DFF8B01308600122DFF8EC17D1
S1138140086040F21F1035E3922000F0C8BFA17D03
S11381500329C0F2BA84DFF88C56E878A9786B78E2
S11381602A78DFF8846602EB820503EB450202EB12
S1138170820301EB430101EB810200EB4200DFF8D3
S11381806C160818411FB1F51C6F306008D2D7492E
S113819008600222DFF8941708604FF4907009E336
S11381A0932000F09CBFA17D032908DA481CA07528
S11381B0C0B2012840F09487022000F087BCDFF8A9
S11381C02456DFF824662A78A978E878303A3039DA
S11381D002EB820301EB4301303801EB810200EB37
S11381E04200A0F11901B029306008D2C0490860EA
S11381F00222DFF83817086040F22310DAE29420F4
S113820000F06DBFA17D032908DA481CA075C0B237
S1138210012840F06587022000F058BCDFF8C455FF
S1138220DFF8C4652A78A978E878303A303902EB67
S1138230820301EB4301303801EB810200EB420081
S1138240B0F57A7F306008D2AA4908600222DFF8CC
S1138250DC16086040F22510ACE2952000F03FBF28
S1138260A17D032908DA481CA075C0B2022840F099
S11382703787032000F02ABCDFF86855DFF868650B
S11382802A786B78A2F1300000EB8001A3F1300072
S113829000EB4102E878303802EB820100EB410048
S11382A07928306008D2944908600222DFF87C16ED
S11382B0086040F22B107DE2962000F010BFA17DF3
S11382C0032908DA481CA075C0B2022840F00887C8
S11382D0032000F0FBBBDFF80C55DFF80C652A78AF
S11382E06B78A2F1300000EB8001A3F1300000EBC9
S11382F04102E878303802EB820100EB4100792832
S1138300306008D27D4908600222DFF82016086038
S113831040F22D104EE2972000F0E1BEA17D03292A
S113832007DA481CA075C0B2012840F0D9860220A3
S1138330CCE3DFF8B054DFF8B0642A78A978E878A1
S1138340303A303902EB820301EB4301303801EB60
S1138350810200EB4200A0F132019729306008D27B
S1138360674908600222DFF8C415086040F2311042
S113837020E2982000F0B3BEA17D0329C0F2A583BA
S1138380DFF86054E878A9786B782A78DFF85864C5
S113839002EB820503EB450202EB820301EB43018E
S11383A001EB810200EB4200DFF8401440F2C77297
S11383B00818A0F10A019142306008D2514988603E
S11383C00222DFF86815086040F23710F2E19920C4
S11383D000F085BE1422DFF8181DDFF8180D01F037
S11383E0EBFA1422DFF8101D204601F0E5FA00F044
S11383F089FE02F0B9F81422DFF8001D204601F0CE
S1138400DBFA00F07FFE04F05DFE022005F047F980
S11384104B2000F064BE3C49002008700122DFF8C4
S11384200C15087040F2391001F0AAFB1422DFF891
S1138430D01C204601F0C0FA00F064FE012000F0D8
S113844010BE3149012008700122DFF8E0140870E1
S113845040F2391001F094FB1422DFF8A41C2046EA
S113846001F0AAFA00F04EFE012000F0FABD00BFB0
S11384707C08002094080020980800209C08002014
S113848088080020A17D032907DA481CA075C0B222
S1138490012840F02586022018E3D24DD24E2A78D6
S11384A0A978E878303A303902EB820301EB4301D2
S11384B0303801EB810200EB4200A0F13201B1F54A
S11384C0077F306024D8114908600222DFF85C1469
S11384D008604FF4A0706DE18C080020480800206B
S11384E04C08002064080020540800209008002054
S11384F0A0080020A40800209C200020A020002028
S1138500A420002098070020B70800208020002025
S11385109A2000F0E4BDA17D032907DA481CA07568
S1138520C0B2012840F0DC850220CFE2AD4DAE4E52
S11385302A78A978E878303A303902EB820301EBE3
S11385404301303801EB810200EB4200A0F132011B
S1138550B1F5077F306008D87D4908600222DFF852
S1138560CC1308604FF4A17024E19B2000F0B7BD48
S1138570A17D032907DA481CA075C0B2012840F088
S1138580AF850220A2E2974D974E2A78A978E87821
S1138590303A303902EB820301EB4301303801EB0E
S11385A0810240F24F2100EB42008842306007D242
S11385B07C4908600222DD4908604FF4A270F9E0AA
S11385C09C2000F08CBDA17D032907DA481CA0750E
S11385D0C0B2012840F08485022077E2814D824EAA
S11385E02A78A978E878303A303902EB820301EB33
S11385F04301303801EB810200EB4200A0F132016B
S1138600B1F5077F306007D8704908600222C74976
S113861008604FF4A370CDE09D2000F060BDA17D03
S11386200329C0F252826F4DE878A9786B782A78D2
S11386306D4E02EB820503EB450202EB820301EB74
S1138640430101EB810200EB42006849081842F241
S113865010718842306007D25D4908600222B34934
S113866008604FF4A470A5E09E2000F038BDA17D01
S11386700329C0F22A825B4DE878A9786B782A78BE
S1138680594E02EB820503EB450202EB820301EB38
S1138690430101EB810200EB42005449081842F205
S11386A010718842306007D24A49086002229F490B
S11386B008604FF4A5707DE09F2000F010BDA17DFF
S11386C00329C0F20282474DE878A9786B782A78AA
S11386D0454E02EB820503EB450202EB820301EBFC
S11386E0430101EB810200EB4200404940F2B73202
S11386F00818A0F132019142306007D2364908606F
S113870002228A49086040F24D1053E0A02000F094
S1138710E6BCA17D0329C0F2D881324DE878A9785E
S11387206B782A78304E02EB820503EB450202EBAC
S1138730820301EB430101EB810200EB42002B4970
S1138740081840F63811884230600AD2234901E003
S113875084200020086002227449086040F24F100F
S113876028E0A12000F0BBBCA17D0329C0F2AD81AB
S11387701C4DE878A9786B782A781B4E02EB8205A9
S113878003EB450202EB820301EB430101EB81029F
S113879000EB420015490818411F1A29306027D2FE
S11387A00F4901E088200020086001225F49086029
S11387B040F2511001F0E4F91422DFF8081C2046BD
S11387C001F0FAF800F09EFC00F08ABC8C20002036
S11387D0800800208408002090200020942000209D
S11387E098200020141F002030200020B02FFFFF0D
S11387F0A22000F074BC292000F071BC01F050FEEE
S113880000F06EBC84B0DFF8C01B68462C2201F077
S1138810D3F80FBC04F0FEFFDFF8882CDFF8AC1BA4
S11388201268DFF8845C10180860084605F0D6F872
S1138830DFF8781C08600A224169643941610169E2
S1138840491C0161816891FBF2F130312970816822
S113885091FBF2F202EB8203A1EB43013031697028
S11388600A22416891FBF2F13031A9700A21406873
S113887090FBF1F101EB8102A0EB42003030E87093
S11388800020A075A42000F02ABC84B0DFF8381BB7
S113889068462C2201F090F80FBC04F0BBFFDFF80F
S11388A0042CDFF8281B1268DFF8FC5B1018086042
S11388B0084605F093F8DFF8F41B08600269416983
S11388C0521C6439026141610A2291FBF2F1303198
S11388D02970416991FBF2F202EB8203A1EB43019F
S11388E0303169700A22016991FBF2F13031A970CB
S11388F0016991FBF2F202EB8203A1EB43013031F7
S1138900E9700A22C16891FBF2F1303129710A2120
S1138910C06890FBF1F101EB8102A0EB4200303022
S113892068710020A075A520D9E300BFD81F0020DE
S113893058080020A820D2E3DFF8C05BDFF8B407B2
S11389401422294601F038F814222946204601F061
S113895033F883A0DFF8A81B02780A707F20207701
S11389600120A076642060760020A075A920B6E3DB
S1138970AC20B4E3DFF8845BDFF8780714222946DF
S113898001F01AF814222946204601F015F874A0C3
S1138990DFF86C1B02780A707F2020770120A07614
S11389A0642060760020A075AD2098E3DFF8581BA2
S11389B0CF200870AE2020620020607790E300BFD3
S11389C05C080020B1208AE3207FA17D7F282FD17D
S11389D001291BD1DFF8245BDFF81807142229468C
S11389E000F0EAFF14222946204600F0E5FF5CA0CF
S11389F0DFF80C1B02780A707F2020770120A07614
S1138A0064206076002061E060080020002900F006
S1138A10678320202077FBF783FCA07DDFF8882A7A
S1138A20401EA0750021C0B281547F20207757E3F7
S1138A30DFF8745A48557F202029207780F250832C
S1138A40481CA0750021C0B2415549E36C200020A8
S1138A50A17D032939DBDFF8505ADFF8146B2A783B
S1138A606B78A2F1300000EB8001A3F1300000EB41
S1138A704102182A326023D2DFF8F83A1A60A97842
S1138A80E8783039303801EB810200EB42013C29AF
S1138A90316013D2DFF8E00A1A688161C2610021F3
S1138AA041610020DFF8FC1908600120DFF8CC1ACE
S1138AB04EE000BF680800206C080020B2200EE3DE
S1138AC0B2200CE3A17D062902DA481CA07507E355
S1138AD0DFF8D459DFF8986A2A786B78A2F130006D
S1138AE000EB8001A3F1300000EB4102112A326057
S1138AF03AD3A87800EB8001E87800EB4100A0F1BC
S1138B001001287900EB8003687900EB43001038EA
S1138B10D2B2C9B2C0B200F079FD012822D1DFF887
S1138B20580A31688162A97801EB8102E97801EB86
S1138B304201A1F504714162297901EB810269794D
S1138B4001EB4201A1F5047101620120DFF8301A42
S1138B500870C5E27008002074080020780800201E
S1138B6000000000B320BAE2B320B8E2B720B6E2B6
S1138B70B820B4E2DFF80C0A0188CA0758BF41F0F4
S1138B8001015AD54FF6FE7256E0DFF8F809018864
S1138B908A0758BF41F002014FD54FF6FD724BE0F2
S1138BA0DFF8E00901884A0758BF41F0040144D5C1
S1138BB04FF6FB7240E0DFF8CC0901880A0758BF82
S1138BC041F0080139D54FF6F77235E0DFF8B40902
S1138BD00188CA0658BF41F010012ED54FF6EF7236
S1138BE02AE0DFF8A00901888A0658BF41F0200175
