S0390000736B2D666D332D3438706D632D757362737469636B5F7573625F6465766963655F7669727475616C5F636F6D5F706F72742E73726563CC
S113000080E3FF1F29100000451000004910000084
S11300104D100000511000005510000000000000B9
S11300200000000000000000000000005910000063
S11300305D10000000000000611000006510000069
S1130040691000006D1000007110000075100000B0
S1130050791000007D100000811000008510000060
S1130060891000008D10000091100000DD100000C8
S1130070DD1000009510000099100000DD10000054
S1130080DD1000009D100000A1100000DD10000034
S1130090DD100000DD100000DD100000A5100000E0
S11300A0A9100000AD100000B1100000DD10000028
S11300B0B5100000B9100000BD100000C110000010
S11300C0DD100000DD100000C5100000C9100000A4
S11300D0DD100000DD100000CD100000D110000084
S11300E0D5100000D9100000DD100000DD10000064
S11300F0DD100000DD100000DD100000DD10000048
S1130100DFF8D004016821F480410160DFF8C814ED
S11301100A6842F480420A60DFF8C0140A6822F4D4
S113012080420A60026822F480520260DFF8A02450
S1130130136843F4805313600B6843F480530B60DB
S1130140036823F400530360136843F400531360FB
S11301500B6843F400530B60036823F4806303606B
S1130160136843F4806313600B6843F480630B608B
S1130170036823F400630360136843F400631360AB
S11301800B6843F400630B60036823F4007303609B
S1130190106840F400701060086840F40070086053
S11301A0106840F400601060106840F40070106043
S11301B070472DE9F041044600250826DFF8208425
S11301C0DFF80C74386820F4805038603868C00454
S11301D0FCD4200638684CBF40F4005020F4005092
S11301E0386064001420C046C046D8F800006D0092
S11301F0400448BF45F00105386840F48050386039
S11302003868C004FCD54620C046C046761ED9D105
S1130210E8B2BDE8F0812DE9F04104464FF40470E2
S11302200D46B4FBF0F716465321384600F06AF940
S113023030194FF40471B0FBF1F8474503D0552150
S1130240404600F05FF933462A462146012000F07B
S113025074F83946832000F037F9474504D0414605
S1130260BDE8F04186202FE1BDE8F081F8B5D84F14
S11302700446386820F4806038600D461646322003
S1130280C046C0462046FFF794FF36B1FF20FFF773
S113029090FF761E05F8010BF8D1386840F48060B1
S11302A038604FF4FA70BDE8F24000F09BB92DE9D4
S11302B0F04182B004468846164601226946D7209A
S11302C0FFF7D4FF9DF800000006F6D5C04F38684C
S11302D020F4806038603220C046C0460B20FFF70F
S11302E068FF4FF40470B4FBF0F5A804000EFFF7A8
S11302F060FF05EB4510A4EB0010000A40EA8500FE
S1130300C0B2FFF756FFA4EB0510C0B2FFF751FFD0
S1130310FF20FFF74EFF36B1FF20FFF74AFF761E9E
S113032008F8010BF8D1386840F4806038604FF465
S1130330FA70C046C046BDE8F3812DE9F14F9046FE
S113034000284FF40470B1FBF0F000EB4012994622
S11303500CBFD4258425A1EB0216DFF884A29C4CA3
S1130360B9F1000F00F09780206820F480602060CD
S11303703220C046C046D720FFF71BFFFF20FFF7FF
S113038018FF0746206840F4806020604FF4FA703C
S1130390C046C0463806E7D5206820F48060206057
S11303A03220C046C0462846FFF703FFFF20FFF770
S11303B000FF3004000EFFF7FCFEF0B2FFF7F9FE79
S11303C0D42D12BFD62DFF20FFF7F3FE009868BB93
S11303D0FF2500274FF0080B206820F48050206090
S11303E02068C004FCD4280620684CBF40F40050A8
S11303F020F4005020606D001420C046C046DAF896
S113040000007F00400448BF47F00107206840F423
S1130410805020602068C004FCD54620C046C046F9
S1130420BBF1010BD8D188F8007023E098F8005094
S11304300827206820F4805020602068C004FCD481
S1130440280620684CBF40F4005020F4005020607F
S11304506D001420C046C046DAF80000206840F45D
S1130460805020602068C004FCD54620C046C046A9
S11304707F1EDED1761C4FF40470B6FBF0F000EB67
S11304804011B6EB0110A9F1010908F101080CD0E3
S1130490B9F1000F9AD1206840F4806020604FF4D5
S11304A0FA70BDE8F24F00F09DB8206840F4806017
S11304B0206000264FF4FA70C046C0460098002819
S11304C014BF8725D6254BE770B582B004460D4688
S11304D001226946D720FFF7C9FE9DF800000006F7
S11304E0F6D53B4E306820F4806030603220C04640
S11304F0C0462046FFF75DFEA804000EFFF759FE34
S1130500A8001CE070B582B004460D46012269467D
S1130510D720FFF7ABFE9DF800000006F6D52C4E61
S1130520306820F4806030603220C046C0462846DF
S1130530FFF73FFEA004000EFFF73BFEA000C0B291
S1130540FFF737FEFF20FFF734FE306840F4806089
S113055030604FF4FA70C046C04673BD38B51C4CC9
S1130560206820F4806020604FF6DC752846C04681
S1130570C0462846C046C0462846C046C04628460F
S1130580C046C0462846C046C0462846C046C04667
S11305909F20FFF70EFEFF20FFF70BFE1F280AD156
S11305A0FF20FFF706FE262805D1FF20FFF701FEF6
S11305B008B9002500E0FF25206840F48060206031
S11305C04FF4FA70C046C046284632BD0000000011
S11305D01034034010300340103103401032034004
S11305E010330340704730B142F6310100BF491E59
S11305F0FCD1401EF8D1704770B58F4D06002868B5
S113060040F040000C4628600FD02046FFF7EBFF77
S1130610286820F0400028602046FFF7E4FF28689F
S113062040F04000761E2860EFD170BD30B585B033
S113063000F008F9824CE06820F40070E060C82102
S1130640E06820F48060E060E06820F40060E0602E
S1130650E06820F48050E060E06820F40050E0603E
S11306606068400840006060206820F0020020605C
S1130670206820F004002060606820F008006060BA
S1130680206940F0800020610120FFF7B5FF4FF49E
S11306907A70FFF7A8FFFFF761FF48B14FF480407D
S11306A0016881F30888654A106040688047FEE766
S11306B001226946FFF7FBFD9DF8000088B1C821BF
S11306C00220FFF799FF4FF47A70FFF78CFF4FF485
S11306D08040016881F30888584A10604068804768
S11306E0FEE7C8210320FFF787FF40F6B835284608
S11306F0FFF779FF00F0F8F878B9C8210420FFF774
S11307007BFF2846FFF76FFF00F0FCF8C8210520A7
S1130710FFF772FF2846FFF766FF00F0E5F80128AF
S11307207AD1C8210620FFF767FF2846FFF75BFF51
S1130730FFF714FF48B14FF48040016881F3088843
S11307403E4A106040688047FEE7C8210720FFF753
S113075053FF2846FFF747FF012269460020FFF7B1
S1130760A6FD9DF80000002846D1C8210820FFF707
S113077043FF2846FFF737FF00F0DCF878B9C820BC
S1130780FFF731FF206920F0400020614FF4FA6048
S1130790FFF729FF206940F040002061EFE7FF20C8
S11307A08DF80000012269460020FFF734FD20691E
S11307B040F0400020610A254FF47A70FFF713FFE0
S11307C0206920F0400020614FF47A70FFF70BFF9E
S11307D0206940F040006D1E2061EDD141F2883067
S11307E0FFF701FF4FF48040016881F30888134A42
S11307F0106040688047FEE7C820FFF7F4FE2069D8
S113080020F04000206141F28830FFF7ECFE2069BF
S113081040F040002061EFE74FF47A710520FFF7C4
S1130820EBFE4FF48040016881F30888034A1060AE
S113083040688047FEE700001034034008ED00E004
S11308400034034080B500F017F90948016821F02D
S1130850C00101600748016821F0C0010160064839
S1130860016841F0C0010160BDE80140FFF748BCE8
S1130870103003401034034010320340DFF800F01E
S113088005E0FF1FDFF800F0C1E0FF1F30B142F6C2
S1130890310100BF491EFCD1401EF8D17047704A97
S11308A0136843F040031360E8B141B10B4642F6CC
S11308B0310C00BFBCF1010CFBD15B1EF7D11368F6
S11308C023F04003136041B10B4642F6310C00BFE4
S11308D0BCF1010CFBD15B1EF7D1136843F040035C
S11308E0401E1360E1D170474FF4804050F8041B60
S11308F011F1010F01D000207047B0F5003FF5D38E
S11309000120704780B572B600214FF48040FFF794
S1130910B5FF002144F20400FFF7B0FF00214FF4BB
S11309200040FFF7ABFF002148F20400FFF7A6FFE9
S113093062B601BD2DE9F04F83B000208DF80800A8
S11309406426DFF82081DFF820B1484F444C20684A
S113095080F0400020600A20FFF745FE02A93846D7
S113096000F04CF9814619F1010F0FD19DF80800F0
S113097028BBB046206880F0800020606420FFF728
S113098032FEB8F10108F5D1012071E019F1060F2A
S113099004BF9DF80800002811D1206840F04000F1
S11309A0206040F6B8342046FFF770FFC8210920C4
S11309B0FFF775FF2046FFF769FF002058E00A2083
S11309C000900098704300900098411E009140B13F
S11309D00A200190019800281CBF0198401EF8D1FC
S11309E0F2E772B60025A9F5804A04E0E95BFFF757
S11309F049FFAD1CEDB29DF80800854208DADA45DE
S1130A00F7D205EB090040452CBF01220022EDE797
S1130A100A2000900098704300900098411E0091B5
S1130A2040B10A200190019800281CBF0198401E83
S1130A30F8D1F2E762B60A20009000987043009063
S1130A400098411E002800913FF481AF0A2001E084
S1130A500198401E019001980028F9D1F0E70000A8
S1130A601034034000000C2005D00F0080E3FF1F6A
S1130A7003B0BDE8F08F000010B44448444A016854
S1130A80444C1140016044490B681A400A60434ACF
S1130A90136843F41C4343F01F03136000232360D3
S1130AA044683F4B1C4044604C6823404B6040F218
S1130AB0BF34536823435360836823F00E03836079
S1130AC08B6823F00E038B60936843F00E039360EE
S1130AD0C468344B1C40C460CC682340CB60D368EA
S1130AE043F47E4343F00803D3602F4B1C6804F0A7
S1130AF0FE041C602D4B04691C4004610C692340F6
S1130B000B61136943F4FC4343F0C003136143696D
S1130B109B089B0043614B699B089B004B61536995
S1130B2043F0030353618369DB08DB0083618B6952
S1130B30DB08DB008B61936943F007039361036A6D
S1130B409B089B0003620B6A9B089B000B62116A63
S1130B5041F003011162C168C908C900C1601449A8
S1130B600B6843F007030B60D368DB08DB00D3603A
S1130B70436923F004034361886840F004008860FB
S1130B80506920F00400506110BC704700300340ED
S1130B90E063FFFF003503400034034000320340AC
S1130BA040FCFFFFF701FFFF803503403F81FFFF5B
S1130BB00C31034002780021A2F1300CBCF10A0F81
S1130BC03CBF1101C9B2A2F14103062B03D2373A4B
S1130BD001EB0211C9B24078A0F130030A2B02D212
S1130BE041183039C9B2A0F14102062A03D2401893
S1130BF0A0F13701C9B20846704700002DE9F04D55
S1130C000D4682B00026804600270024B346B24633
S1130C102E7006E06846FFF7CDFFC01B841E2C70C3
S1130C2002260020ADF8000002223648006869461A
S1130C30FFF73DFB334833490068801C08609DF88A
S1130C400000FF280AD19DF80100FF280CD10020E4
S1130C5028704FF0FF3B5846BDE8F68D0D2804BFC1
S1130C609DF801000A28F6D0F6B28EB1072E05DAF7
S1130C706846FFF79FFF50445FFA80FA072ED0D8EA
S1130C80DFE806F00605161818182633C9E7C1E789
S1130C909DF80000532805D19DF80100A0F130070C
S1130CA0FFB201260FB1042FBBDB00270026B8E7F3
S1130CB04FF0000B6846FFF77DFFB91B891CC90084
S1130CC088408344B81B801C08BF0526761CA8E70F
S1130CD0641EE4B204B907266846FFF76BFF88F880
S1130CE00000002008F8010F9BE76846FFF762FF49
S1130CF080F0FF00504594D0002028706FF005006C
S1130D00BDE8F68D00E0FF1F604E00001CB4002219
S1130D10009211B1012913D04DE04FF080421368C5
S1130D2003F0FD031360136843F001031360AA2367
S1130D301268019241F25052138040F6A82308E051
S1130D401E4A00231360AA23126801921C4A1380CE
S1130D501C4B55241C8080241480AA241480552202
S1130D601A803022028002881207FCD5009A5AB9F0
S1130D700288920644BF4FF0FF32009202881206A6
S1130D80F4D501220092F1E711B1012910D012E04B
S1130D904FF080424FF6FE711068084010601068F2
S1130DA040F00200106010680190009816BC704773
S1130DB0024A0120F6E716BC61E0000000000E20A4
S1130DC0A80A0C2054050C203CB40023009312B153
S1130DD0012A15D052E04FF080434FF6FD751C6890
S1130DE02C401C6040F6A8251C6844F001041C60DB
S1130DF0AA241B68019341F250531C80552409E036
S1130E001B4B1C4D00241C60AA241B6801931A4B25
S1130E101C8055242C8001F08005A0241C800180B6
S1130E204FF0FF330AE00488A40648BF0093048807
S1130E3004F08004AC4204BF01240094009C002C04
S1130E40F1D012B1012A10D018E04FF080434FF6D0
S1130E50FE71186808401860186840F002001860B5
S1130E6018680190009836BC7047014B0120F6E7E2
S1130E7000000E2054050C20A80A0C2036BC6FF08C
S1130E8001007047244825490160832224490160F8
S1130E9000202449087000211E48017401210175B5
S1130EA081210176017720490A7000220A725C22AE
S1130EB00A74027842F00202027002799207FCD5A9
S1130EC000220A7504220A7609220A77017841F081
S1130ED0100101700179C906FCD5017841F0400187
S1130EE001700178027902F0E00201F0E0018A4227
S1130EF0F7D140F2FF320D4801688905890D91420E
S1130F0006D00B490B4A8A6000680880002088607C
S1130F107047000000000140001C014051E5CC1A5C
S1130F20AE1A33E5081001402000014000010040E2
S1130F3004E0024054E5CC1A19E050F8041BCB0736
S1130F4044BFA9F101035918121F0023042A41F8D0
S1130F50043BF9D25FEA827C0B4604D54FF0000CC7
S1130F60A1F800C09B1CD10744BF0021197050F8A0
S1130F70042B002AE1D1704710B450F8041B79B156
S1130F800268436812180830DC0744BFA9F1010461
S1130F90E31852F8044B43F8044B091FF9D1ECE76A
S1130FA010BC704710B5074979441831064C7C448D
S1130FB0163404E00A68081D511888470146A14206
S1130FC0F8D110BD08000000280000006DFFFFFFED
S1130FD0F401000080E3FF1F000000009DFFFFFFFD
S1130FE07C01000024FDFFFF00E0FF1F0000000063
S1130FF00120C046002801D0FFF7D4FF0020C046DE
S1131000C046FFF713FB00F000F800F001B8000041
S11310100746384600F002F8FBE7000020210903E8
S113102026311820ABBEF9E7014880470148004744
S1131030850E000039100000C046C046C046C046B8
S1131040FFF7D6FFFFF7FEBFFFF7FEBFFFF7FEBFB8
S1131050FFF7FEBFFFF7FEBFFFF7FEBFFFF7FEBFC0
S1131060FFF7FEBFFFF7FEBFFFF7FEBFFFF7FEBFB0
S1131070FFF7FEBFFFF7FEBFFFF7FEBFFFF7FEBFA0
S1131080FFF7FEBFFFF7FEBFFFF7FEBFFFF7FEBF90
S1131090FFF7FEBFFFF7FEBFFFF7FEBFFFF7FEBF80
S11310A0FFF7FEBFFFF7FEBFFFF7FEBFFFF7FEBF70
S11310B0FFF7FEBFFFF7FEBFFFF7FEBFFFF7FEBF60
S11310C0FFF7FEBFFFF7FEBFFFF7FEBFFFF7FEBF50
S11310D0FFF7FEBFFFF7FEBFFFF7FEBFFFF7FEBF40
S11340003825002085F00100A9F00100ADF0010081
S1134010B1F00100B5F00100B9F0010000000000AA
S1134020000000000000000000000000BDF00100DE
S1134030C1F0010000000000C5F00100C9F001005A
S1134040CDF00100D1F00100D5F00100D9F001005C
S1134050DDF00100E1F00100E9CA00000D94000068
S1134060D7EF0100D1CD0000F5F00100C5880100B3
S1134070FDF00100BFA9000005F1010049F10100B4
S113408049F1010009F101000DF1010049F10100BC
S113409049F1010049F1010049F1010011F1010068
S11340A015F10100D5EF01001DF1010049F10100F6
S11340B021F1010025F1010029F101002DF1010098
S11340C049F1010049F10100DFEF0100E9EF0100CE
S11340D049F1010049F1010039F101003DF101000C
S11340E041F1010045F1010049F1010049F10100EC
S11340F049F1010049F1010049F1010049F10100D0
S113410038B5684CE07E012833D1674D67492846AD
S113411005F0B7FA012803DB0120E07502201BE05B
S11341205EA1284605F0ADFA012803DB0120E07505
S1134130002011E05E49284605F0A3FA012802DBBD
S11341400120E07508E056A1284605F09AFA0128F6
S113415003DB0120E075032060750020E076207EFB
S113416038B1544805F0E0FB2846BDE8324005F07C
S1134170DBBB31BDF0B5142883B0044658D8DFE862
S113418000F00B0E1114171A1D2E3134373A3D402E
S11341904346494C4F5752001422474945E01422E4
S11341A0464942E0142246493FE0142245493CE096
S11341B01422454939E01422444936E0444D454926
S11341C01422284605F016FC4348006800282FD125
S11341D04E2068732E20A8734520E87328E014222B
S11341E03E4922E014223E491FE014223D491CE0CE
S11341F014223D4919E014223C4916E014223C499A
S113420013E014223B4910E014223B490DE0142230
S11342103A490AE014223A4907E01422394904E0F1
S11342201422394901E014223849294805F0E2FBF7
S113423037480068E040C00706D5254D592068730B
S11342406520A8737320E87304EB44004000314EEA
S1134250314F00F52C5006223146503005F0F6FC63
S11342603079737832782D490290F0780190B078E3
S11342700C4E0090384605F01DFF0020387431467E
S1134280384605F07CFA0CB17F203070142CBCBF8A
S11342907E20F0730020B07603B0F0BD55500000CE
S11342A045534300F01E0020781C002044D2010036
S11342B04CD2010054D2010060D2010074D201003A
S11342C088D201009CD20100B0D20100C4D2010006
S11342D0741F0020D8D2010080200020ECD20100FD
S11342E000D3010014D3010028D301003CD3010002
S11342F050D3010064D3010078D301008CD30100B2
S1134300A0D30100B4D30100C8D30100DCD3010061
S1134310D02000207813002098190020F0D3010049
S1134320F0B5DFF80C4E83B0206AD32802F28784FC
S1134330DFE810F0D400E500F8000B011A015A017F
S11343406311A511B311BF12E2120A1342137613BB
S11343509913BC13DA130014021404140614081479
S11343600A140C140E141014121414141614181421
S11343701A141C141E142014221426145614851402
S1134380F2010302AF0E590F600FC00ED60EEC0EF1
S1134390040F1E0F310F4A0F120223023602490284
S11343A05C026F0282029502A802BB02CE02E10205
S11343B0F40207031A032D0340035303660379032E
S11343C08C039F03B403C703DA03ED03000413044F
S11343D08514260439044C045F047204850498048B
S11343E0AB04BE04CD04F004170540056A0590052E
S11343F0B405D805FC052206460669068D06B006F6
S1134400D406F506F906040729074D077207900735
S1134410AE07B907D207F107170823083C0885142B
S1134420851485148408A308C208E1080009290931
S113443052097B09A309030A110A1F0A2E0A3D0A1D
S11344404C0A5B0A6A0A790A880A970AA50AB30A17
S1134450C10AD00ADF0AEE0AFD0A0C0B1B0B2A0B59
S1134460390B480B570B660B8514750B840B930B98
S1134470A20BB10BC40BD30BE20BF40B85147A0F14
S11344809F0FFE0F0F105010E4101E1032109A10E0
S1134490E4100D1133113E114E11DE0FEC0F030C1D
S11344A0180C2B0C400C840CA30CC40CE50C060D4E
S11344B0270D480D690D8A0DAB0DBC0DCE0DE20D17
S11344C0F60D0C0E3A0E5A0E750E920E69017A0113
S11344D08D01A001AF01BE01CD01DC011422DFF882
S11344E0541CDFF8540C05F085FA1422DFF8CC1DB7
S11344F0204605F07FFA7E20E07302F09EBB142272
S1134500DFF8301CDFF8300C05F074FA1422DFF801
S1134510B01D204605F06EFA7F2020707E20E073E7
S113452002F08BBB1422DFF80C1CDFF80C0C05F036
S113453061FA1422DFF88C1D204605F05BFA7F2017
S113454020707E20E07302F078BB1422DFF8E41BB5
S1134550DFF8E40B05F04EFA1422DFF86C1D204658
S113456005F048FA02F067BB1422DFF8601DDFF89B
S1134570C80B05F03FFA1422DFF8541D204605F05D
S113458039FAA07D032801F2E087DFE810F0040087
S11345900C0016002100CE206076DFF8380D00787C
S11345A0A07101F0D2BFCF2060767820A071DFF82F
S11345B0240D4078E07101F0C8BFD02060767820E7
S11345C0A071E071DFF80C0D8078207201F0BDBF9E
S11345D0D12060767820A071E0712072DFF8F40CAD
S11345E0C078607201F0B1BF1422DFF8E01CDFF87C
S11345F0480B05F0FFF91422DFF8A01D204605F052
S1134600F9F902F01ABB1422DFF8941DDFF8280B25
S113461005F0F0F91422DFF88C1D204605F0EAF9C4
S11346207E20E07302F009BB1422DFF8741DDFF86A
S1134630080B05F0DFF91422DFF86C1D204605F0A5
S1134640D9F97F2020707E20E07302F0F6BA14229C
S1134650DFF84C1DDFF8E00A05F0CCF91422DFF88E
S11346606C1D204605F0C6F97F2020707E20E07383
S113467002F0E3BA1422DFF8281DDFF8BC0A05F0C3
S1134680B9F91422DFF8481D204605F0B3F902F009
S1134690D2BA1422DFF83C1DDFF89C0A05F0AAF90F
S11346A01422DFF8341D204605F0A4F902F0C5BA3F
S11346B01422DFF8281DDFF8800A05F09BF9142284
S11346C0DFF81C1D204605F095F902F0B6BA142255
S11346D0DFF8101DDFF8600A05F08CF91422DFF80A
S11346E0081D204605F086F902F0A7BA1422DFF867
S11346F0FC1CDFF8440ADFF8F85C05F07BF9DFF80E
S1134700F40C0268E4A1284605F0D4FC21462846AE
S113471005F035F802F091BA1422DFF8DC1CDFF85A
S1134720180A05F067F91422DFF8D01C204605F0BA
S113473061F97E20E07302F080BA1422DFF8B81C1D
S1134740DFF8F40905F056F91422DFF8B41C20460A
S113475005F050F902F06FBA1422DFF8A81CDFF854
S1134760D80905F047F91422DFF89C1C204605F00F
S113477041F97E20E07302F060BA1422DFF8841C51
S1134780DFF8B40905F036F91422DFF8801C20465E
S113479005F030F97F2020707E20E07302F04DBADE
S11347A01422DFF8601CDFF8900905F023F91422C5
S11347B0DFF85C1C204605F01DF97F2020707E2068
S11347C0E07302F03ABA1422DFF8381CDFF8680903
S11347D005F010F91422DFF83C1C204605F00AF914
S11347E07F2020707E20E07302F027BA1422DFF8C5
S11347F0141CDFF8440905F0FDF81422DFF8181C36
S1134800204605F0F7F87F2020707E20E07302F048
S113481014BA1422DFF8EC1BDFF81C0905F0EAF8DF
S11348201422DFF8F81B204605F0E4F87F202070FE
S11348307E20E07302F001BA1422DFF8C81BDFF80F
S1134840F80805F0D7F81422DFF8D41B204605F049
S1134850D1F87F2020707E20E07302F0EEB914229C
S1134860DFF8A01BDFF8D00805F0C4F81422DFF845
S1134870B41B204605F0BEF87F2020707E20E07334
S113488002F0DBB91422DFF87C1BDFF8AC0805F07A
S1134890B1F81422DFF8901B204605F0ABF87F2016
S11348A020707E20E07302F0C8B91422DFF8541B94
S11348B0DFF8840805F09EF81422DFF8701B204608
S11348C005F098F87F2020707E20E07302F0B5B9DF
S11348D01422DFF8301BDFF8600805F08BF814228F
S11348E0DFF84C1B204605F085F87F2020707E20E1
S11348F0E07302F0A2B91422DFF8081BDFF83808CD
S113490005F078F81422DFF82C1B204605F072F825
S11349107F2020707E20E07302F08FB91422DFF82C
S1134920E41ADFF8140805F065F81422DFF8081B10
S1134930204605F05FF87F2020707E20E07302F0AF
S11349407CB91422DFF8BC1ADFF8EC0705F052F842
S11349501422DFF8701D204605F04CF87F202070EB
S11349607E20E07302F069B91422DFF8981ADFF8A8
S1134970C80705F03FF81422DFF84C1D204605F067
S113498039F87F2020707E20E07302F056B914229B
S1134990DFF8701ADFF8A00705F02CF81422DFF80E
S11349A02C1D204605F026F87F2020707E20E07321
S11349B002F043B91422DFF84C1ADFF87C0705F043
S11349C019F81422DFF8081D204605F013F87F209B
S11349D020707E20E07302F030B91422DFF8241A2C
S11349E0DFF8540705F006F81422DFF8E81C204627
S11349F005F000F87F2020707E20E07302F01DB9DE
S1134A001422DFF8001ADFF8300704F0F3FF142251
S1134A10DFF8C41C204604F0EDFF7F2020707E20C8
S1134A20E07302F00AB91422DFF8D819DFF8080796
S1134A3004F0E0FF1422DFF8A41C204604F0DAFF9F
S1134A407F2020707E20E07302F0F7B81422DFF894
S1134A50B419DFF8E40604F0CDFF1422DFF8801C5B
S1134A60204604F0C7FF7F2020707E20E07302F010
S1134A70E4B81422DFF88C19DFF8BC0604F0BAFF9E
S1134A801422DFF8601C204604F0B4FF7F2020705D
S1134A907E20E07302F0D1B8256400001422DFF810
S1134AA06419DFF8940604F0A5FF1422DFF8381C1B
S1134AB0204604F09FFF7F2020707E20E07302F0E8
S1134AC0BCB81422DFF83C19DFF86C0604F092FF3E
S1134AD01422DFF8181C204604F08CFF7F2020707D
S1134AE07E20E07302F0A9B81422DFF81819DFF869
S1134AF0480604F07FFF1422DFF8F41B204604F07C
S1134B0079FF7F2020707E20E07302F096B8142293
S1134B10DFF8F018DFF8200604F06CFF1422DFF849
S1134B20D41B204604F066FF7F2020707E20E073B3
S1134B3002F083B81422DFF8CC18DFF8FC0504F087
S1134B4059FF1422DFF8B01B204604F053FF7F20E6
S1134B5020707E20E07302F070B81422DFF8A418ED
S1134B60DFF8D40504F046FF1422DFF8901B20463A
S1134B7004F040FF7F2020707E20E07302F05DB8D7
S1134B801422DFF88018DFF8B00504F033FF142294
S1134B90DFF86C1B204604F02DFF7F2020707E2060
S1134BA0E07302F04AB81422DFF85818DFF88805D9
S1134BB004F020FF1422DFF84C1B204604F01AFFF7
S1134BC07F2020707E20E07302F037B81422DFF8D3
S1134BD03418DFF8640504F00DFF1422DFF8281BF5
S1134BE0204604F007FF7F2020707E20E07302F04F
S1134BF024B81422DFF80C18DFF83C0504F0FAFEA0
S1134C001422DFF8081B204604F0F4FE7F202070F5
S1134C107E20E07302F011B81422DFF8E817DFF801
S1134C20180504F0E7FE1422DFF8E41A204604F025
S1134C30E1FE7F2020707E20E07301F0FEBF14228D
S1134C40DFF8C017DFF8F00404F0D4FE1422DFF814
S1134C50C41A204604F0CEFE7F2020707E20E0732C
S1134C6001F0EBBF1422DFF89C17DFF8CC0404F04A
S1134C70C1FE1422DFF8A01A204604F0BBFE7F20F8
S1134C8020707E20E07301F0D8BF1422DFF874177F
S1134C90DFF8A40404F0AEFE1422DFF8801A2046E4
S1134CA004F0A8FE7F2020707E20E07301F0C5BFD1
S1134CB01422DFF85017DFF8800404F09BFE14225E
S1134CC0DFF85C1A204604F095FE01F0B4BF14220C
S1134CD0DFF8CC1DDFF8600404F08CFE41F2883369
S1134CE00022DFF8401A204605F0E4F9DFF8E40575
S1134CF00178A1714178E17181782172C078607284
S1134D00A07D032801F29987DFE810F01205260040
S1134D104F0079001422DFF8E81DDFF81C0404F0CA
S1134D2069FE1E230222DFF8FC19204605F0C2F9B1
S1134D30DFF8A0050178A1714178E17181782172D1
S1134D40C0786072A07D032801F27787DFE810F055
S1134D50F00404002D005700CF206076012001F0FC
S1134D606DBF1422DFF8F81DDFF8CC0304F042FE17
S1134D704FF4FA730A22DFF8AC19204605F09AF9C9
S1134D80DFF850050178A1714178E17181782172D1
S1134D90C0786072A07D032801F24F87DFE810F02D
S1134DA0C804040005002F00D6E7D0206076012057
S1134DB001F044BF1422DFF8F41DDFF87C0304F093
S1134DC019FE4FF4FA730A22DFF85819204605F049
S1134DD071F9DFF800050178A1714178E1718178FA
S1134DE02172C0786072A07D032801F22687DFE873
S1134DF010F09F04050004000600D6E7ACE7D120BC
S1134E006076012001F01ABF1422DFF8A41DDFF838
S1134E10280304F0EFFD4FF4FA730022DFF80419BD
S1134E20204605F047F9DFF8AC040178A171417818
S1134E30E17181782172C0786072A07D032801F24B
S1134E40FC86DFE810F07504060005000400D6E7D0
S1134E50ABE781E71422DFF8C41DB74804F0CAFDAC
S1134E60C8230122DFF8BC18204605F023F9DFF837
S1134E7064040178A1714178E17181782172C0786C
S1134E806072A07D032801F2D886DFE810F0510497
S1134E90060005000400B2E787E75DE71422DFF8A7
S1134EA0801DA54804F0A6FDC8230122DFF874186C
S1134EB0204605F0FFF8DFF81C040178A171417861
S1134EC0E17181782172C0786072A07D032801F2BB
S1134ED0B486DFE810F02D040600050004008EE718
S1134EE063E739E71422DFF83C1D934804F082FDA0
S1134EF0C8230122DFF82C18204605F0DBF8DFF880
S1134F00D4030178A1714178E17181782172C0786C
S1134F106072A07D032801F29086DFE810F0090496
S1134F200600050004006AE73FE715E71422DFF8EE
S1134F30F81C814804F05EFD4FF4E1534FF496727F
S1134F40DFF8E017204605F0B5F8DFF888030178AC
S1134F50A1714178E17181782172C0786072A07D7D
S1134F60032801F26A86DFE810F0E3030600050077
S1134F70040044E719E7EFE61422DFF8B01C6E489A
S1134F8004F038FD14230122DFF89817204605F0B9
S1134F9091F8DFF840030178A1714178E1718178DB
S1134FA02172C0786072A07D032801F24686DFE892
S1134FB010F0BF0306000500040020E7F5E6CBE689
S1134FC01422DFF86C1C5C4804F014FD3C2301221D
S1134FD0DFF85017204605F06DF8BE480178A1713E
S1134FE04178E17181782172C0786072A07D0328D4
S1134FF001F22386DFE810F09C030600050004009C
S1135000FDE6D2E6A8E61422DFF8281C4A4804F09C
S1135010F1FC4FF461633222DFF80817204605F0F3
S113502049F8AC480178A1714178E1718178217225
S1135030C0786072A07D032801F2FF85DFE810F0DC
S11350407803060005000400D9E6AEE684E61422DF
S1135050DFF8E41B384804F0CDFC3C230A22DFF8D7
S1135060C416204605F026F89A480178A1714178C3
S1135070E17181782172C0786072A07D032801F209
S1135080DC85DFE810F05503060005000400B6E6F1
S11350908BE661E61422DFF85C1E274804F0AAFCC4
S11350A04FF461631E22DFF87C16204605F002F8F7
S11350B088480178A1714178E17181782172C078C2
S11350C06072A07D032801F2B885DFE810F0310397
S11350D006000500040092E667E63DE61422DFF8C8
S11350E0641E154804F086FC1422DFF85C1E20467A
S11350F004F080FC77480178A1714178E1718178EE
S11351002172C0786072A07D002800F0118301280C
S11351103FF422AE03283FF472AE01F08EBD142298
S1135120DFF87C1EDDE71422DFF8781ED9E700BF24
S1135130F01E002014D40100741F00201422DFF894
S1135140941EDFF8940E04F055FC4FF4FA63002229
S1135150DFF8D015204604F0ADFF5E480178A17158
S11351604178E17181782172C0786072A07D032852
S113517001F26385DFE810F0DC020600050004009C
S11351803DE612E6E8E51422DFF8581EDFF8480E83
S113519004F030FC3C231422DFF88815204604F088
S11351A089FF4C480178A1714178E17181782172BD
S11351B0C0786072A07D032801F23F85DFE810F01B
S11351C0B80206000500040019E6EEE5C4E5142261
S11351D0DFF8801EDFF8000E04F00CFC40F6C41368
S11351E00522DFF84015204604F064FF39480178B1
S11351F0A1714178E17181782172C0786072A07DDB
S1135200032801F21A85DFE810F093020600050076
S11352100400F4E5C9E59FE51422DFF8C01EDFF8B9
S1135220B80D04F0E7FB1422DFF8DC1E204604F07E
S1135230E1FB28480178A1714178E17181782172FC
S1135240C0786072A07D002800F0728202283FF4CA
S1135250ACAD5FE71422DFF8DC1EDFF87C0D04F050
S1135260C9FB1422DFF8D01E204604F0C3FB194802
S11352700178A1714178E17181782172C0786072FE
S1135280A07D002800F0548202283FF48EAD41E74F
S11352901422DFF8D01EDFF8400D04F0ABFB14221B
S11352A0DFF8C41E23E71422DFF8C01EDFF8280D40
S11352B004F0A0FB1422DFF8B01E18E728D4010084
S11352C03CD4010050D4010064D4010078D401001E
S11352D08CD40100141F00201422DFF8E01EDFF834
S11352E0F80C04F087FB1422DFF8D41E204604F0E7
S11352F081FBDFF8D00E0178A1714178E1718178EA
S11353002172C0786072A07D002800F0118202280A
S11353103FF44BADFEE61422DFF8D813DFF8B80CE7
S113532004F068FB4FF4FA630A22DFF8F81320460E
S113533004F0C0FEDFF88C0E0178A1714178E171B0
S113534081782172C0786072A07D032801F275848F
S1135350DFE810F0EE010600050004004FE524E547
S1135360FAE41422DFF8AC1EDFF86C0C04F042FB04
S11353701422DFF8A41E01F025B91422DFF89C1EC4
S1135380DFF8540C04F036FB1422DFF8941E204698
S113539004F030FB7E20E07301F04FBCA0D4010088
S11353A0B4D40100C8D40100DCD401001422DFF815
S11353B06C1EDFF8240C04F01DFB1422DFF8641EBD
S11353C0204604F017FB01F036BC00BFF0D4010006
S11353D004D5010018D501002CD5010040D50100E9
S11353E054D5010068D501007CD5010090D5010099
S11353F098190020C41D0020A4D50100B8D50100CF
S1135400CCD50100E0D50100F4D5010008D6010097
S11354101CD6010030D6010044D6010058D6010044
S11354206CD6010080D6010094D60100A8D60100F4
S1135430BCD60100D0D60100E4D601001422DFF866
S1135440901EDFF8940B04F0D5FA1422DFF8841EC2
S1135450204604F0CFFADFF86C0D0178A171417891
S1135460E17181782172C0786072A07D002800F01B
S11354705F8102283FF499AC4CE61422DFF8A81EA1
S1135480DFF8540B04F0B6FA1422DFF8481E204665
S113549004F0B0FADFF82C0D0178A1714178E171C4
S11354A081782172C0786072A07D002800F040816C
S11354B002283FF47AAC2DE61422DFF8701EDFF8E0
S11354C0180B04F097FA1422DFF8C81E204604F0E3
S11354D091FADFF8F00C0178A1714178E1718178DB
S11354E02172C0786072A07D002800F0218102281A
S11354F03FF45BAC0EE61422DFF8BC1EDFF8D80ADA
S113550004F078FA1422DFF8CC1D204604F072FA75
S1135510DFF8B00C0178A1714178E17181782172D2
S1135520C0786072A07D002800F0028102283FF458
S11355303CACEFE51422DFF8841EDFF89C0A04F08B
S113554059FA42F20F730022DFF8741E204604F069
S1135550B1FDDFF8700C0178A1714178E1718178B7
S11355602172C0786072A07D032801F26683DFE8AF
S113557010F0DF00080006000400FFF740BCFFF74E
S113558014BCFFF7E9BB1422DFF8381EDFF8480A21
S113559004F030FA42F20F730022DFF8241E204692
S11355A004F088FDDFF81C0C0178A1714178E171E9
S11355B081782172C0786072A07D032801F23D8356
S11355C0DFE810F0B600080006000400FFF717BC7F
S11355D0FFF7EBBBFFF7C0BB1422DFF8EC1DDFF8CD
S11355E0F80904F007FA4FF47A733222DFF8D01D79
S11355F0204604F05FFDDFF8CC0B0178A1714178FF
S1135600E17181782172C0786072A07D032801F273
S11356101483DFE810F08D00080006000400FFF793
S1135620EEBBFFF7C2BBFFF797BBDFF8A00DDFF8B7
S1135630A8196CC86CC140F637130022DFF8801D2E
S1135640204604F037FDDFF87C0B0178A171417826
S1135650E17181782172C0786072A07D032801F223
S1135660EC82DFE810F06500080006000400FFF794
S1135670C6BBFFF79ABBFFF76FBB1422DFF8501DC0
S1135680DFF8540904F0B6F91E230522DFF8301DB3
S1135690204604F00FFDDFF82C0B0178A17141784E
S11356A0E17181782172C0786072A07D032801F2D3
S11356B0C482DFE810F03D003B0039000400FFF72E
S11356C09EBB00BFF8D601000CD7010020D7010013
S11356D034D7010048D701005CD7010070D701001E
S11356E084D7010098D70100ACD70100C0D70100CE
S11356F0D4D70100E8D70100FCD7010010D801007D
S113570024D8010038D801004CD8010060D8010029
S113571074D8010088D801009CD80100B0D80100D9
S1135720C4D80100ECD80100FFF73FBBFFF714BB5E
S1135730CE206076012001F081BA1422D849DFF826
S1135740980804F057F91422DFF8801E204604F06C
S113575051F901F072BA1422E949DFF87C0804F027
S113576049F91422DFF8641E204604F043F901F0DD
S113577064BA1422DFF8E813DFF85C0804F03AF99D
S11357801422DFF8481E204604F034F901F055BA1B
S11357901422DFF81814DFF8400804F02BF914225F
S11357A0DFF8281E204604F025F901F046BA142239
S11357B0DFF8FC13DFF8200804F01CF91422DFF8EA
S11357C00C1E204604F016F901F037BA1422DFF853
S11357D04C14DFF8040804F00DF91422DFF8EC1D72
S11357E0204604F007F901F028BA1422DFF8301437
S11357F0DFF8E40704F0FEF81422DFF8D01D204699
S113580004F0F8F801F019BA1422DFF81814DFF8DC
S1135810C80704F0EFF81422DFF8B01D204604F0A6
S1135820E9F801F00ABA1422DFF8FC13DFF8A8073C
S113583004F0E0F81422DFF8941D204604F0DAF8AE
S113584001F0FBB91422DFF8E413DFF88C0704F04D
S1135850D1F81422DFF8741D204604F0CBF801F0CF
S1135860ECB91422F249DFF8700704F0C3F81422EB
S1135870DFF8581D204604F0BDF801F0DEB914220B
S1135880EC49DFF8540704F0B5F81422DFF83C1DA6
S1135890204604F0AFF801F0D0B91422E649DFF84D
S11358A0380704F0A7F81422DFF8201D204604F07E
S11358B0A1F801F0C2B91422DFF83816DFF818078E
S11358C004F098F81422DFF8041D204604F092F83E
S11358D001F0B3B91422DFF8401EDFF8FC0604F02F
S11358E089F81422DFF8E41C204604F083F801F060
S11358F0A4B91422DFF8A816DFF8DC0604F07AF85D
S11359001422DFF8C81C204604F074F801F095B99D
S11359101422DFF89016DFF8C00604F06BF81422A6
S1135920DFF8A81C204604F065F801F086B91422BB
S1135930DFF8E81DDFF8A00604F05CF81422DFF8B5
S11359408C1C204604F056F801F077B91422DFF8D5
S11359509416DFF8840604F04DF81422DFF86C1C6A
S1135960204604F047F801F068B91422DFF8E41681
S1135970DFF8640604F03EF81422DFF8501C2046D9
S113598004F038F801F059B91422DFF85017DFF8A1
S1135990480604F02FF81422DFF8301C204604F0E7
S11359A029F801F04AB91422DFF88817DFF828062D
S11359B004F020F81422DFF8141C204604F01AF82E
S11359C001F03BB91422DFF8241EDFF80C0604F0C2
S11359D011F81422DFF8F41B204604F00BF801F050
S11359E02CB91422DFF82C1EDFF8EC0504F002F8C1
S11359F01422DFF8D81B204603F0FCFF01F01DB988
S1135A001422DFF8B817DFF8D00503F0F3FF1422EF
S1135A10DFF8B81B204603F0EDFF01F00EB91422A5
S1135A20DFF8AC18DFF8B00503F0E4FF1422DFF868
S1135A309C1B204603F0DEFF01F0FFB81422DFF8C0
S1135A40E818DFF8940503F0D5FF1422DFF87C1B77
S1135A50204603F0CFFF01F0F0B81422DFF8CC1891
S1135A60DFF8740503F0C6FF1422DFF8601B20463C
S1135A7003F0C0FF01F0E1B81422DFF83C19DFF8AD
S1135A80580503F0B7FF1422DFF8401B204603F04B
S1135A90B1FF01F0D2B81422DFF8201902E000BFF0
S1135AA0D8D80100DFF8300503F0A4FF1422DFF892
S1135AB01C1B204603F09EFF01F0BFB81422DFF840
S1135AC00419DFF8140503F095FF1422DFF8FC1A1B
S1135AD0204603F08FFF01F0B0B81422DFF8E81875
S1135AE0DFF8F40403F086FF1422DFF8E01A2046FE
S1135AF003F080FF01F0A1B8DFF8D00802E000BF96
S1135B0000D90100DFF8D0146CC86CC11422DFF88E
S1135B10BC1A204603F06EFF01F08FB81422DFF8A0
S1135B20B018DFF8B40403F065FF1422DFF89C1A00
S1135B30204603F05FFF01F080B81422DFF8001E56
S1135B40DFF8940403F056FF1422DFF8F81D204612
S1135B5003F050FF0020A0767E2000F08EBD00BF31
S1135B6014D901001422DFF8D81DDFF86C0403F007
S1135B7041FF1422DFF8EC1D204603F03BFF7F2099
S1135B8020707E20E07301F058B81422DFF8B01DB5
S1135B90DFF8440403F02EFF1422DFF8CC1D204666
S1135BA003F028FF0020A076C8E100BF28D9010037
S1135BB03CD901001422DFF8F41DDFF81C0403F0C3
S1135BC019FF1422DFF8E81D204603F013FF00201C
S1135BD0A076DFF8E00D007800F001010129A4BFF0
S1135BE04821A17000F002010129A4BF482161717C
S1135BF000F004010129A4BF4821217200F008012A
S1135C000129A4BF4821E17200F010000128C1F26B
S1135C1016804820A07301F012B800BF50D90100CB
S1135C2064D9010078D901008CD90100A0D9010000
S1135C30B4D90100C8D90100DCD901001422DFF86D
S1135C40C81DE548DFF8C45D03F0D4FE0020A0764B
S1135C50DFF8BC1DDFF8BC0D007800F0010001285E
S1135C60ACBFDEA2DEA2284604F024FA2146284670
S1135C7003F085FD7E2000F000BD1422DFF8881DAE
S1135C80D548DFF8885D03F0B5FE0020A076DFF884
S1135C90881DDFF8800D007800F002000128ACBFF9
S1135CA0CEA2CFA2284604F005FA2146284603F0E6
S1135CB066FD7F2020707E2000F0DFBC1422DFF818
S1135CC0481DC548DFF8445D03F094FE0020A0762B
S1135CD0DFF8481DDFF83C0D007800F004000128CF
S1135CE0ACBFBEA2BEA2284604F0E4F92146284671
S1135CF003F045FD7F2020707E2000F0BEBC1422FE
S1135D00DFF8041DB448DFF8045D03F073FE0020DF
S1135D10A076DFF8CC1DDFF8FC0C007800F008005A
S1135D200128ACBFADA2AEA2284604F0C3F92146B7
S1135D30284603F024FD7F2020707E2000F09DBCC7
S1135D401422DFF8C41CA448DFF8C05C03F052FE40
S1135D500020A076DFF88C1DDFF8B80C007800F086
S1135D6010000128ACBF9DA29DA2284604F0A2F910
S1135D702146284603F003FD7F2020707E2000F09A
S1135D807CBC1422DFF8801C9348DFF8805C03F0AD
S1135D9031FE0020A076DFF8741DDFF8780C00785F
S1135DA000F020000128ACBF8CA28DA2284604F08C
S1135DB081F92146284603F0E2FC7F2020707E20F2
S1135DC000F05BBC1422DFF8401C8348DFF83C5C25
S1135DD003F010FE0020A076DFF8341DDFF8340C49
S1135DE0007800F040000128ACBF7CA27CA22846C9
S1135DF004F060F92146284603F0C1FC7F2020709E
S1135E007E2000F03ABC1422DFF8FC1B7248DFF855
S1135E10FC5B03F0EFFD0020A076DFF8FC1CDFF84C
S1135E20F40B007800F080000128ACBF6BA26CA2D8
S1135E30284604F03FF92146284603F0A0FC7F20C1
S1135E4020707E2000F019BC1422DFF8BC1B6248CD
S1135E50DFF8B85B03F0CEFD0020A076DFF8C01CAD
S1135E60DFF8B00B008800F480700128ACBF5BA29F
S1135E705BA2284604F01EF92146284603F07FFC65
S1135E807F2020707E2000F0F8BB1422DFF8941CE1
S1135E90514803F0AFFD0020A0761422DFF8881CDF
S1135EA0204603F0A7FD7E2000F0E7BB1422DFF8B4
S1135EB0741C494803F09EFD1422DFF8701C204630
S1135EC003F098FD7F2020707E20E07300F0B5BEC3
S1135ED01422DFF8501C404803F08CFD1422DFF834
S1135EE0501C204603F086FD7F2020707E20E07346
S1135EF000F0A3BEF0D901001422DFF8281C3648B4
S1135F0003F078FD0020A0761422DFF83C1D204623
S1135F1003F070FD7F2020707E20E07300F08DBEC2
S1135F201422DFF8001C2C4803F064FD0020A07646
S1135F301422DFF8181D204603F05CFD7F2020703A
S1135F4000F07DBE04DA010018DA01001422DFF843
S1135F50001D2148DFF8B45A03F04CFD0020A07660
S1135F60DFF8F01CDFF8F00C0978406801290CD147
S1135F7004F0BAF8DFF8E42CDFF8E43C04F0E0F8CD
S1135F800B460246DFF8DC1C05E004F0ADF80B46D6
S1135F900246DFF8D41C284604F08CF873E000BFF6
S1135FA02CDA010040DA01001422DFF8C01C0A4890
S1135FB0DFF8585A03F01EFD0020A0766421DFF8B4
S1135FC0B00C006890FBF1F2DFF8A81C284604F03E
S1135FD071F858E054DA0100741F00204F4646005F
S1135FE04F4E000068DA01001422DFF88C1CDFF841
S1135FF08C0CDFF8185A03F0FDFC0020A076DFF8C3
S1136000800C006804F06EF9DFF8781C04F084F961
S113601004F06AF80B460246DFF86C1C30E01422E8
S1136020DFF8681CDFF8540CDFF8E05903F0E2FCF9
S11360300020A076DFF8580C006804F053F9DFF86C
S1136040541C04F069F904F04FF80B460246DFF8DB
S1136050481C15E07CDA01001422DFF8401CDFF84C
S11360601C0CDFF8A85903F0C5FC0020A076DFF86B
S1136070300C006804F038F80B460246DFF8241CA4
S1136080284604F017F82146284603F078FB00F070
S1136090D6BD1422DFF8101CDFF8E00B03F0AAFCD5
S11360A01422DFF8081C204603F0A4FC7E20E073D1
S11360B000F0C3BD1422DFF8F01BDFF8C00B03F0BF
S11360C099FC1422DFF8F41B204603F093FC7F2094
S11360D020707E20E07300F0B0BD00BF90DA0100B4
S11360E01422DFF8C41BDFF8940B03F083FC1422A2
S11360F0DFF8CC1B204603F07DFC7F2020707E203F
S1136100E07300F09ABD00BFA4DA01001422DFF8A6
S1136110981BDFF8680B03F06DFC1422DFF8A41B56
S1136120204603F067FC7F2020707E20E07300F09F
S113613084BD00BFB8DA0100CCDA01001422DFF814
S1136140681BDFF8380B03F055FC1422DFF8781BCA
S1136150204603F04FFC7F2020707E20E07300F087
S11361606CBD00BFE0DA0100F4DA010008DB0100D5
S11361701422DFF8341BDFF8040B03F03BFC142279
S1136180DFF8481B204603F035FC7F2020707E207A
S1136190E07300F052BD1422DFF80C1BDFF8DC0AB8
S11361A003F028FC1422DFF8281B204603F022FC0D
S11361B07F2020707E20E07300F03FBD1CDB0100D7
S11361C030DB0100141F00201422DFF8DC1ADFF892
S11361D0AC0A03F00FFC1422DFF8F81A204603F08F
S11361E009FC00F028BDDFF82C184FF6F470088085
S11361F02A20CDE11422DFF8E01ADFF8800A03F048
S1136200F9FB1422DFF8A41A204603F0F3FB00F094
S113621014BD00BF44DB010058DB01006CDB01004E
S113622080DB010094DB01001422DFF8B01ADFF8F0
S11362304C0A03F0DFFB1422DFF8A41A204603F013
S1136240D9FB0120A076DFF89C0A017861714178BE
S1136250A17181782172C0786072A07D032800F258
S1136260EE84DFE810F0390004003B003D00CE204E
S11362703BE01422DFF8701ADFF8000A03F0BAFBDF
S11362801422DFF8681A204603F0B4FBDFF8540A3E
S1136290017861714178A1712D21E17181782172B8
S11362A0C17861722D21A1720179E1724079207364
S11362B00120A076A07D052800F2C184DFE810F05B
S11362C00C0006000E00100012001400CFE700BFFF
S11362D0A8DB0100BCDB0100CD2006E0D02004E0F7
S11362E0D12002E0D32000E0D420607600F0A7BCE7
S11362F01422DFF8FC19DFF8840903F07BFB142275
S1136300B249204603F076FB00F097BC1422DFF874
S1136310E419DFF8680903F06DFB1422AB49204649
S113632003F068FB00F089BCD0DB0100E4DB010072
S11363301422DFF8C419DFF8440903F05BFB1422CC
S1136340DFF8B819204603F055FB7E20E07300F017
S113635074BC1422DFF8A019DFF8200903F04AFB0B
S11363601422DFF89C19204603F044FB00F063BCC0
S11363701422DFF89019DFF8040903F03BFB142220
S1136380DFF87819204603F035FB7E20E07300F037
S113639054BC00BFF8DB01001422DFF86819DFF8F1
S11363A0DC0803F027FB1422DFF85419204603F01D
S11363B021FB00F040BC00BF0CDC010020DC01002C
S11363C034DC010044DC010058DC01006CDC010019
S11363D07CDC0100DFF834562022294640F2FD20FF
S11363E003F034FC002085F820000021DFF81809B0
S11363F0DFF888680170A4F1100231462B78FBB1F4
S11364000778102F03DA0B7000234B7002E013702F
S1136410002353707B1C03706F788FB1DBB2102B99
S113642003DA4F7000278F7002E0577000279770CF
S11364305B1C0370921C891CAD1CDBB2202BDDDBC2
S11364400178202980F2FB83102904DA20238B555C
S11364508A19002304E00A19202302F8103D0023BE
S11364605370491C0170EBE7DFF8A0552022294640
S113647040F21D3003F0EAFB002085F820000021E3
S1136480DFF88408DFF8F4670170A4F110023146E4
S11364902B78FBB10778102F03DA0B7000234B70B5
S11364A002E01370002353707B1C03706F788FB16C
S11364B0DBB2102B03DA4F7000278F7002E05770A5
S11364C0002797705B1C0370921C891CAD1CDBB207
S11364D0202BDDDB0178202980F2B183102904DA36
S11364E020238B558A19002304E00A19202302F87B
S11364F0103D00235370491C0170EBE7A37D00227B
S1136500190016D0DFF8DC07DFF87067185C1D1976
S1136510A3F1480703F16401102BB9BF98558E46C7
S113652005F8100CBE46521CD2B29A4284F819E007
S1136530F2D3DFF8D4070270102B207FB9BFDFF845
S11365403C279854191901F8100C012076E3DFF860
S1136550BC070178CB3908D0091F06D0891E02294F
S113656003D9C91E02290BD90CE01422DFF8A017A5
S1136570DFF8080703F03EFA1422DFF8981721E049
S1136580B02005E0617F491C6177C9B211B1B12027
S1136590206254E3CF21017051E31422DFF8701715
S11365A0DFF8D80603F026FA1422DFF86C1709E0A6
S11365B01422DFF85C17DFF8C40603F01BFA142278
S11365C0DFF85817204603F015FA38E300D4010029
S11365D01422DFF84C17DFF8A40603F00BFA142298
S11365E0DFF84017204603F005FADFF82804018895
S11365F04FF6F0721140018021E30020A076DFF80D
S113660028070078401E10D0401E032805D9401FDB
S1136610042806D9093801280BD80A22DFF80C17F8
S11366200AE00922DFF8081706E00B22DFF8041756
S113663002E00922DFF80017DFF8D003DFF8CC53BB
S113664003F0C8F9DFF83416284603F098F8DFF8A9
S1136650EC0600686421B0FBF1F2DFF81816284656
S113666003F028FD2146284603F089F8DFF8D00618
S11366700068002800F0E3822120E073DFE21422A6
S1136680DFF8C016DFF8F40503F0B4F91422DFF8DC
S1136690B816204603F0AEF9CFE20020A076DFF86A
S11366A08876DFF8A8663878DFF86053112800F29E
S11366B0C780DFE800F0090C151E3552656E77803F
S11366C089929DA6B1BB275BDFF88406B6E005225C
S11366D0DFF88016284603F07DF9DFF87C06ADE08C
S11366E00A22DFF87816284603F074F9DFF87006FA
S11366F0A4E00722DFF86C16284603F06BF9DFF8F4
S113670068069BE01022DFF86416284603F062F95D
S1136710DFF85C06007892E090DC0100A4DC010064
S11367200622DFF85016284603F054F9DFF848062D
S1136730DFF848160068097869B9DFF84416DFF80D
S11367402826096812684843DFF8141609685118A6
S1136750B0FBF1F073E0400871E01022DFF824167A
S1136760284603F037F9DFF8200667E01122DFF846
S11367701C16284603F02EF9DFF8140600785EE0B4
S11367800922DFF8B415284603F024F9DFF8C80518
S113679054E00E22DFF8FC15284603F01BF9DFF85D
S11367A0F8054BE00F22DFF8F415284603F012F940
S11367B0DFF8EC0542E00D22DFF8E815284603F087
S11367C009F9DFF8E40539E00E22DFF8E015284680
S11367D003F000F9DFF8D80530E00A22DFF8D41519
S11367E0284603F0F7F8DFF8D00527E0B8DC01000D
S11367F01122DFF8C815284603F0ECF8DFF8580535
S11368001CE01022DFF8B815284603F0E3F8DFF89F
S1136810B40513E0CCDC01000C22DFF8AC152846EB
S113682003F0D8F8DFF8A405007808E00D22DFF8BB
S1136830A015284603F0CEF8DFF89805006830600C
S1136840DFF83814284602F09AFF3878012803D17B
S11368500622DFF8841504E0062806D10622DFF8B4
S11368607C15284603F0B6F810E0DFF8EC14306825
S11368700968411A11F10A0FB8BF0146DFF8600533
S113688001600A46A3A1284603F014FCDFF85475FE
S11368903268A2A1384603F00DFC3946284603F0BD
S11368A0B9FD214602F06BFF7F2020707E20E0734B
S11368B0C3E11422DFF83015DFF8C003534D03F0B1
S11368C099F8DFF828050368DFF824050068191A29
S11368D0DFF80C0548BF002101600A46DFF81415F3
S11368E0284603F0E7FB2146284602F048FF7F20B4
S11368F020707E20E073A0E11422DFF8FC14DFF89E
S11369007C03424D03F076F8DFF84813DFF8EC041B
S11369100978006801290AD103F0E6FBCF4AD04B7D
S113692003F00EFC0B460246DFF8D41460E003F0DB
S11369307FFD0246DFF8CC14284603F0BBFB5AE087
S1136940E0DC0100F4DC01001422DFF8BC14CB48C5
S1136950DFF8F86303F04EF800203080DFF8AC1461
S11369600CE000BF08DD01001CDD01005A5C1AB117
S113697010187278521C72705A1C32703378052BBE
S1136980F4DB7178214DB0FBF1F2DFF88404DFF819
S113699084140260284603F08DFB2146284602F049
S11369A0EEFE7F2020707E20E07346E130DD0100A2
S11369B044DD01003C1D00201422DFF85C14AF48C4
S11369C0124D03F017F8A349A34809784068012938
S11369D009D103F089FBA14AA14B03F0B1FB0B469B
S11369E00246A04904E003F07FFB0B4602469E49A1
S11369F0284603F05FFB2146284602F0C0FE7F20B4
S1136A0020707E20E07318E158DD01009819002001
S1136A106CDD01001020002078DD010084DD010020
S1136A201422DFF8F8139548DFF8F45302F0E2FF7C
S1136A30DFF8F003006803F055FCDFF8EC1303F013
S1136A406BFC03F051FB02460B46DFF8E0132846CB
S1136A5003F030FB2146284602F091FE7F2020708F
S1136A607E20E073E9E01422DFF8C4138348DFF8E2
S1136A70B05302F0BFFFDFF8BC03006803F032FC40
S1136A80DFF8A41303F048FC03F02EFB02460B4688
S1136A90DFF89813284603F00DFB2146284602F040
S1136AA06EFE7F2020707E20E073C6E01422DFF8A3
S1136AB088137248DA4D02F09DFF7948006803F0AC
S1136AC013FB02460B467749284603F0F3FA2146A6
S1136AD0284602F054FE7F2020707E20E073ACE054
S1136AE08CDD010094DD01001422D4496348CC4DAF
S1136AF002F080FF92480068002814BF6CA26DA2C7
S1136B006DA1284603F0D6FA91E000BF9CDD010098
S1136B10ACDD010025640000BCDD01002F2564000C
S1136B20C8DD0100D4DD0100E8DD0100FCDD010069
S1136B3010DE0100002020E001201EE002201CE005
S1136B4003201AE0042018E0052016E0062014E0D3
S1136B50072012E0082010E009200EE00A200CE0D3
S1136B600B200AE00C2008E00D2006E00E2004E0D3
S1136B700F2002E0102000E01120FDF7FBFA5EE098
S1136B803E4EAF491422304602F034FF6C48006890
S1136B90C0F3804028B1592070736520B07373200E
S1136BA0F07306228F4F394642F6BC3003F04EF89C
S1136BB038799B4D7B783A78A2490290F878019015
S1136BC0B8780090284603F075FA0020287421460E
S1136BD0284602F0D4FD7F2020707E20E0732CE054
S1136BE0264E99491422304602F004FF54480068A6
S1136BF0C0F3005028B1592070736520B07373201E
S1136C00F0730622774F394642F6C83003F01EF877
S1136C103879834D7B783A788A490290F8780190E4
S1136C20B8780090284603F045FA002028742146DD
S1136C30284602F0A4FD7F2020700020A07603B037
S1136C40BDE8F04002F07CBA24DE010038DE010029
S1136C504CDE0100B70800209807002077D5F270B9
S1136C60AAE8D03F60DE010070DE01007CDE010096
S1136C703008002090DE01009CDE0100741F00201B
S1136C80B807002000007A44B0DE0100BCDE010039
S1136C90701F002000002041D0DE0100DCDE010076
S1136CA0E4200020F0DE0100FCDE010010DF010022
S1136CB0594553004E4F00002573000024DF0100A6
S1136CC038DF01004CDF010060DF010074DF0100E8
S1136CD088DF01009CDF0100B0DF0100C4DF010098
S1136CE0D8DF0100141F0020ECDF010000E00100E8
S1136CF014E0010028E001003CE0010050E0010044
S1136D0064E0010078E0010019210020091E002040
S1136D108CE00100A0E00100B4E00100C8E0010043
S1136D20DCE00100F0E00100B608002004E101000D
S1136D3010E101001CE1010028E1010070200020A5
S1136D40D020002034E1010048E10100D81F0020D8
S1136D50B81F00205CE101003C20002064E1010038
S1136D605808002070E101005C08002078E101006F
S1136D702721002088E10100600800202121002053
S1136D804020002090E1010074200020A0E10100D7
S1136D9028210020B4E1010068080020C4E10100BA
S1136DA06C080020D4E1010078080020E4E101002F
S1136DB07C080020F4E101009408002000E20100B6
S1136DC014E201009C08002024E20100B80800201D
S1136DD030E201008008002044D2010040E20100BA
S1136DE03020002078130020A4DC01006408002077
S1136DF07820002048E2010050E201005C200020DD
S1136E0064E2010070E2010078E20100F01F00205A
S1136E10382000208CE2010094E20100A8E2010085
S1136E20981900206C1C00200000C842BCE201003C
S1136E30C4E20100701C0020D8E20100ECE2010071
S1136E40C8D30100F0D30100DCD3010070B588B0D1
S1136E50FDF756F9DFF8244CE07D012842F0648107
S1136E600020E075607D032802F25981DFE810F00C
S1136E700400FD0070028F0F206A401ECE2802F22B
S1136E804E81DFE810F068105E10C701E0004C117D
S1136E904C114C11341117021A021D022002230254
S1136EA0260229022C024C11330F2F023202350222
S1136EB0380238023B023E024102440247024A02BF
S1136EC04D0250025302560259025C025F024C11F9
S1136ED0EC00EF004C114C114C114D033011D0104B
S1136EE0D210D410D61010114C1188106C106E10E2
S1136EF0701072107410761078107A107C107E1056
S1136F0080108210841086108A108C108E109010BD
S1136F1092109410961098109A109C109E10A01025
S1136F204C11ED01BE10C010C210C410C610C81020
S1136F30CA10CC10E000E000E000E000E000E00057
S1136F40E000E000E000E000E000E000E000E0003D
S1136F50E000E000E000E000E000E000E000E0002D
S1136F60E000E000E000E0004C114C11E9004C119D
S1136F704C114C11E000E000E000E000E000E00013
S1136F80E000E000E0004C114C114C114C114C118C
S1136F904C114C114C114C114C114C114C114C1105
S1136FA04C114C114C114C114C114C114C114C11F5
S1136FB04C114C114C114C114C114C114C114C11E5
S1136FC04C114C114C114C114C114C114C11E00052
S1136FD0E0004C11D8104C11CF004C11EC104C11A6
S1136FE0CF004C114C114C114C114C114C114C1143
S1136FF0231125114C114C11930EF601F901FC01DA
S1137000FF010202050208024C113A11F001F301DA
S113701048114C114C114C114C114C114C11601075
S113702062106410207F7A2808DA401C2077C0B2EE
S11370305C2842F074805D2001F016BD01F01385D8
S1137040202001F011BDA17DDFF8345A485D3928B4
S113705082F26580401CFAE0732002F05FB82520BC
S113706002F05CB8262002F059B8206ACE2802F259
S11370705680DFE810F0660FCF002F105410E400A4
S113708054101F0154102201250128012B012E0147
S1137090310134013E10541037013A013D014001E1
S11370A043014301460149014C014F01520155017D
S11370B058015B015E016101640167016A015410BA
S11370C0F20029105410381054105410D80FDA0F4D
S11370D0DC0FDE0F181016015410740F760F780FA2
S11370E07A0F7C0F7E0F800F820F840F860F880F1C
S11370F08A0F8C0F8E0F920F940F960F980F9A0F82
S11371009C0F9E0FA00FA20FA40FA60FA80FF500AF
S1137110C60F5410C80FCA0FCC0FCE0FD00FD20F0A
S1137120D40FD60F5410E400E400E400E400E400BB
S1137130E400E400E400E400E400E400E400E4002B
S1137140E400E400E400E400E400E400E400E4001B
S1137150E400E400E400E400E4005410EF00541000
S1137160541054105410E400E400E400E400E4007B
S1137170E400E400E400E4005410541054105410EB
S113718054105410541054105410541054105410DB
S113719054105410541054105410541054105410CB
S11371A054105410541054105410541054105410BB
S11371B054105410541054105410541054105410AB
S11371C0E400E400190154105410D2001C015410BE
S11371D05410D2005410541054105410541054101D
S11371E02D10401054105410FE0001010401070139
S11371F00A010D01100113015410F800FB00501096
S113720052105410541054105410541054106A0F47
S11372106C0F6E0F022001F081BF207F2128C1F284
S113722022847F2808BF7A2001F01E84401E207724
S1137230C0B25C2841F073875B2001F015BCA17DCE
S1137240DFF83C58485D3128C1F26987401E485533
S113725001F065BF742001F061BF262001F05EBF1C
S11372604D2001F05BBFC32001F058BFC42001F0E2
S113727055BFBA2001F052BFBB2001F04FBFBC2064
S113728001F04CBFBD2001F049BFBE2001F046BF54
S1137290BF2001F043BFC02001F040BFC12001F076
S11372A03DBF312001F03ABFA82001F037BFAC2028
S11372B001F034BF082001F031BF092001F02EBFD6
S11372C00A2001F02BBF0B2001F028BF0C2001F095
S11372D025BF0D2001F022BF0E2001F01FBF0F209B
S11372E001F01CBF122001F019BF132001F016BFDA
S11372F0142001F013BF152001F010BF172001F076
S11373000DBF182001F00ABF192001F007BF1A2091
S113731001F004BF1B2001F001BF1C2001F0FEBEE0
S11373201D2001F0FBBE1E2001F0F8BE1F2001F05D
S1137330F5BE202001F0F2BE212001F0EFBE222094
S113734001F0ECBE232001F0E9BE242001F0E6BEEA
S1137350206ACF2801F2E386DFE810F0D000F50DB3
S1137360D500E200E500E10E8F0CC50C8F0CE10E98
S1137370E10EE10EE10EE10EE10EE10EC80CCA0CC5
S1137380CD0CD00CD90CDC0CDF0CE20CE10EED0CB6
S1137390F00CF30CF60CF90CFC0CFF0C020DE10ED6
S11373A0E10EE10EE10EE10E1D0EB80E6B0AE10EC8
S11373B0E10E6E0A720AB50A6D0E810E460B520B6F
S11373C0930101010901110119012101290131016F
S11373D039014101490151015901610169019B01CF
S11373E0B701D201DA01E201EA010C0235025E02C0
S11373F08702B002B802BB02E10EC402ED0216031A
S11374003F0368037003780380038803AA03D80347
S11374100504340463049004BD04EA041705470515
S11374207405A105D105FF052F065F068F06BF066B
S1137430EB06180744077307A107D007FF072D08B9
S11374405B087C089208E10EE10EE10EB208FB082D
S1137450280953097F09A709CF09F909240AE10E6C
S1137460E10EE10EE10EE10EE10EE10EE10EE10EA0
S1137470E10EE10EE10EE10EE10EE10EE10EE10E90
S1137480E10EE10EE10EE10EE10EE10EE10EE10E80
S1137490E10EE10EE10EE10EE10EE10EE10EE10E70
S11374A0E10EE10EE10E980BD20B0A0B0C0BE10E70
S11374B0540B280B2A0BE10E540BE10EE10EE10EE6
S11374C0E10EE10EE10E260C280CCF0EE10E2A0C83
S11374D0350C400C4B0C560C610C6C0C770C820C6C
S11374E0070D090D0F0D150D170DE10EE10EE10E3F
S11374F0E10EE10EF500F800FB00FE00002002F0B2
S1137500A9FF01F00CBE0420206205220020A07512
S1137510DFF87015DFF8680502F06CFA01F0FFBDC2
S1137520282001F0FBBDA17D0329C1F2EC82DFF824
S11375305815DFF84C0503F013F8002814BF052094
S1137540262001F0EBBDD02001F0E8BDD12001F0F0
S1137550E5BDD22001F0E2BDD32001F0DFBDDFF8AC
S11375602C05006801F0F0FF592001F0D7BDDFF8C9
S11375702005006801F0E8FF5A2001F0CFBDDFF8D4
S11375801405006801F0E0FF5B2001F0C7BDDFF8DF
S11375900805006801F0D8FF5C2001F0BFBDDFF8EA
S11375A0FC04006801F0D0FF5D2001F0B7BDDFF8F6
S11375B0F004006801F0C8FF5E2001F0AFBDDFF801
S11375C0E404006801F0C0FF5F2001F0A7BDDFF80C
S11375D0D804006801F0B8FF602001F09FBDDFF817
S11375E0CC04006801F0B0FF612001F097BDDFF822
S11375F0BC0E006801F0A8FF622001F08FBDDFF827
S1137600B00E006801F0A0FF632001F087BDDFF831
S1137610A40E006801F098FF642001F07FBDDFF83C
S1137620980E006801F090FF652001F077BDDFF847
S11376308C0EDFF84C5400680A21B0FBF1F101EB29
S11376408103A0EB43023032EA702E22AA700A2290
S1137650B1FBF2F202EB8203A1EB4301303169701A
S11376606421B0FBF1F00A21B0FBF1F101EB8102DE
S1137670A0EB4200303028700020A075662001F095
S11376804DBDDFF8900E006801F05EFF582001F058
S113769045BDDFF8840EDFF8E85300680A21B0FB2B
S11376A0F1F101EB810230316970A0EB42026421F7
S11376B03032B0FBF1F0EA70303028702E22AA701C
S11376C00020A075672001F029BDDFF8500EEC4DB5
S11376D000680A21B0FBF1F101EB810230316970DD
S11376E0A0EB420264213032B0FBF1F0EA7030309A
S11376F028702E22AA700020A075682001F00EBD0B
S1137700DFF81C0E006801F01FFF692001F006BDC0
S1137710DFF8100E006801F017FF6A2001F0FEBCCC
S1137720DFF8040E006801F00FFF6B2001F0F6BCD7
S1137730DFF8F80DD24D00680A21B0FBF1F101EB3E
S11377408103A0EB43023032EA700A22B1FBF2F269
S113775002EB8203A1EB43013031A9702E21697041
S11377606421B0FBF1F0303028700020A0756C204B
S113777001F0D4BCDFF8B80DC14D00680A21B0FB9C
S1137780F1F101EB8103A0EB43023032EA700A22EB
S1137790B1FBF2F202EB8203A1EB43013031A97099
S11377A02E2169706421B0FBF1F00A21B0FBF1F1E4
S11377B001EB8102A0EB4200303028700020A0755C
S11377C06D2001F0ABBCDFF86C0DAD4D00680A21F3
S11377D0B0FBF1F101EB8103A0EB43023032EA701C
S11377E02E22AA700A22B1FBF2F202EB8203A1EB71
S11377F04301303169706421B0FBF1F00A21B0FB20
S1137800F1F101EB8102A0EB42003030287000203E
S1137810A0756E2001F082BCDFF81C0D984D006845
S11378200A21B0FBF1F101EB8103A0EB43023032FA
S1137830EA702E22AA700A22B1FBF2F202EB820352
S1137840A1EB4301303169706421B0FBF1F00A21EE
S1137850B0FBF1F101EB8102A0EB42003030287063
S11378600020A0756F2001F059BCDFF8D00C844DC6
S113787000680A21B0FBF1F101EB8103A0EB4302A4
S11378803032EA700A22B1FBF2F202EB8203A1EB7E
S113789043013031A9702E2169706421B0FBF1F0ED
S11378A00A21B0FBF1F101EB8102A0EB4200303080
S11378B028700020A075702001F030BCDFF8800C27
S11378C0806801F041FE712001F028BC722001F0B3
S11378D025BCDFF8700C0078002814BF74207320D6
S11378E001F01CBCDFF8600C654D00680A21B0FB98
S11378F0F1F101EB8103A0EB43023032EA700A227A
S1137900B1FBF2F202EB8203A1EB43013031A97027
S11379102E2169706421B0FBF1F00A21B0FBF1F172
S113792001EB8102A0EB4200303028700020A075EA
S1137930782001F0F3BBDFF8540E514D00680A21A2
S1137940B0FBF1F101EB8103A0EB43023032EA70AA
S11379500A22B1FBF2F202EB8203A1EB43013031C4
S1137960A9702E2169706421B0FBF1F00A21B0FBEB
S1137970F1F101EB8102A0EB4200303028700020CD
S1137980A075792001F0CABBDFF8540E3C4D0068A5
S11379900A21B0FBF1F101EB8103A0EB4302303289
S11379A0EA700A22B1FBF2F202EB8203A1EB43017B
S11379B03031A9702E2169706421B0FBF1F00A21E5
S11379C0B0FBF1F101EB8102A0EB420030302870F2
S11379D00020A0757A2001F0A1BBDFF82C0E284D01
S11379E000680A21B0FBF1F101EB8103A0EB430233
S11379F03032EA700A22B1FBF2F202EB8203A1EB0D
S1137A0043013031A9702E2169706421B0FBF1F07B
S1137A100A21B0FBF1F101EB8102A0EB420030300E
S1137A2028700020A0757B2001F078BBDFF8DC0D06
S1137A30006801F089FD7C2001F070BBDFF8D00DF7
S1137A40006801F081FD7D2001F068BBDFF8C40D02
S1137A50006801F079FD7E2001F060BBDFF8B80D0D
S1137A60006801F071FD7F2001F058BBDFF8AC0D18
S1137A70006801F069FD802001F050BBF01E002079
S1137A80141F002000E30100C81D00205808002036
S1137A905C08002060080020742000206808002092
S1137AA06C0800207008002074080020780800206A
S1137AB0A17D0329C1F22780DFF8645DE878A97805
S1137AC06B782A78DFF85C6D02EB820503EB4502E4
S1137AD002EB820301EB430101EB810200EB420064
S1137AE0DFF8441D081841F28931884230600AD217
S1137AF0DFF8201A08600222DFF86C1E086040F2EA
S1137B00191000F075BE812001F008BBA17D032986
S1137B10C0F2F987DFF8085DE878A9786B782A78ED
S1137B20DFF8006D02EB820503EB450202EB8203F2
S1137B3001EB430101EB810200EB4200DFF8E81C9A
S1137B400818811E1D2930600AD2DFF8201E086043
S1137B500122DFF8141E08604FF4817000F048BE63
S1137B60822001F0DBBAA17D0329C0F2CC87DFF8C3
S1137B70B05CE878A9786B782A78DFF8A86C02EB17
S1137B80820503EB450202EB820301EB430101EBA7
S1137B90810200EB4200DFF8901C0818A0F10A01F2
S1137BA0B1F5F57F30600AD8DFF8501E0860022274
S1137BB0DFF8B41D086040F2031000F019BE832002
S1137BC001F0ACBAA17D0329C0F29D87DFF8505CB7
S1137BD0E878A9786B782A78DFF8486C02EB82059C
S1137BE003EB450202EB820301EB430101EB81024B
S1137BF000EB4200DFF8301C0818A0F10A01B1F5CF
S1137C00F57F30600AD8DFF83C1E08600222DFF8F6
S1137C10581D086040F2051000F0EABD842001F010
S1137C207DBAA17D0329C0F26E87DFF8F45BE878A2
S1137C30A9786B782A78DFF8EC6B02EB820503EB0A
S1137C40450202EB820301EB430101EB810200EBED
S1137C504200DFF8D41B0818B0F5FA7F30600AD868
S1137C60DFF8241E08600222DFF8FC1C086040F2E2
S1137C70071000F0BDBD852001F050BAA17D032995
S1137C80C0F24187DFF8985BE878A9786B782A78A6
S1137C90DFF8906B02EB820503EB450202EB8203F3
S1137CA001EB430101EB810200EB4200DFF8781B9A
S1137CB0081830600CD0C9280AD2DFF8341E0860D6
S1137CC00222DFF8A41C086040F2091000F090BD05
S1137CD0862001F023BAA17D0329C0F21487DFF8BE
S1137CE0405BE878A9786B782A78DFF8386B02EB88
S1137CF0820503EB450202EB820301EB430101EB36
S1137D00810200EB4200DFF8201B081830600CD021
S1137D10C9280AD2DFF8DC1D08600222DFF8481CFB
S1137D20086040F20B1000F063BD872001F0F6B943
S1137D30A17D0329C0F2E786DFF8E45AE878A97840
S1137D406B782A78DFF8DC6A02EB820503EB4502E4
S1137D5002EB820301EB430101EB810200EB4200E1
S1137D60DFF8C41A081830600CD0C9280AD2DFF82A
S1137D70201E08600222DFF8F01B086040F20D109C
S1137D8000F036BD882001F0C9B9A17D0329C0F2F5
S1137D90BA86DFF88C5AE878A9786B782A78DFF805
S1137DA0846A02EB820503EB450202EB820301EBDA
S1137DB0430101EB810200EB4200DFF86C1A41F64B
S1137DC0F5220818A0F59671914230600AD2DFF8C6
S1137DD0C41D08600222DFF8901B086040F20F10F7
S1137DE000F006BD892001F099B9A17D0329C0F2F4
S1137DF08A86DFF82C5AE878A9786B782A78DFF835
S1137E00246A02EB820503EB450202EB820301EBD9
S1137E10430101EB810200EB4200DFF80C1A081861
S1137E2030600CD015280AD2DFF86C1D08600122DE
S1137E30DFF8341B086040F2111000F0D9BC8A202E
S1137E4001F06CB9A17D0329C0F25D86DFF8D05939
S1137E50E878A9786B782A78DFF8C86902EB82059C
S1137E6003EB450202EB820301EB430101EB8102C8
S1137E7000EB4200DFF8B019081830600CD03D2840
S1137E800AD2DFF8281608600122DFF8DC1A08603D
S1137E904FF4897000F0ACBC8B2001F03FB9A17D98
S1137EA00329C0F23086DFF87859E878A9786B782E
S1137EB02A78DFF8706902EB820503EB450202EBD6
S1137EC0820301EB430101EB810200EB4200DFF886
S1137ED0581940F6DF520818A0F13201914230607F
S1137EE00AD2DFF8CC1508600222DFF87C1A086099
S1137EF040F2131000F07CBC8C2001F00FB9A17D7E
S1137F000329C0F20086DFF81859E878A9786B785D
S1137F102A78DFF8106902EB820503EB450202EBD5
S1137F20820301EB430101EB810200EB4200DFF825
S1137F30F8180818A0F10A01332930600AD2DFF8D2
S1137F40741508600122DFF8201A086040F2151049
S1137F5000F04EBC8D2001F0E1B8A17D0329C0F2F0
S1137F60D285DFF8BC58E878A9786B782A78DFF8EE
S1137F70B46802EB820503EB450202EB820301EBDA
S1137F80430101EB810200EB4200DFF89C1840F64C
S1137F90F3520818A0F11E01914230600AD2DFF8B2
S1137FA0181508600222DFF8C01908604FF48B70BE
S1137FB000F01EBC8E2001F0B1B8A17D032908DABF
S1137FC0481CA075C0B2022841F0A980032000F02B
S1137FD09BBDDFF84C58DFF84C682A786B78A2F127
S1137FE0300000EB8001A3F1300000EB4102E8789F
S1137FF0303802EB820100EB41006528306009D281
S1138000DFF8B81408600122DFF85C1908604FF447
S11380108C70EDE38F2001F081B8A17D032908DA8B
S1138020481CA075C0B2022841F07980032000F0FA
S11380306BBDDFF8EC57DFF8EC672A786B78A2F1B8
S1138040300000EB8001A3F1300000EB4102E8783E
S1138050303802EB820100EB41006528306009D220
S1138060DFF8B41408600122DFF8FC18086040F25D
S11380701B10BDE3902001F051B8A17D032908DA5B
S1138080481CA075C0B2022841F04980032000F0CA
S11380903BBDDFF88C57DFF88C672A786B78A2F148
S11380A0300000EB8001A3F1300000EB4102E878DE
S11380B0303802EB820100EB41006528306009D2C0
S11380C0DFF8581408600122DFF89C1808604FF4A8
S11380D08E708DE3912001F021B8A17D0329C0F2B7
S11380E01285DFF83C57E878A9786B782A78DFF8AE
S11380F0346702EB820503EB450202EB820301EBDA
S1138100430101EB810200EB4200DFF81C17081861
S1138110B0F5FA6F306009D8DFF804140860022261
S1138120DFF84418086040F21D1061E3922000F06B
S1138130F5BFA17D0329C0F2E684DFF8E456E878B0
S1138140A9786B782A78DFF8DC6602EB820503EB0A
S1138150450202EB820301EB430101EB810200EBD8
S11381604200DFF8C4160818A0F114012929306070
S113817009D2DFF8B01308600122DFF8EC170860B9
S113818040F21F1034E3932000F0C8BFA17D0329FF
S1138190C0F2B984DFF88856E878A9786B782A7831
S11381A0DFF8806602EB820503EB450202EB8203F3
S11381B001EB430101EB810200EB4200DFF868169A
S11381C00818411FB1F51C6F306008D2D649086009
S11381D00222DFF8941708604FF4907008E39420AB
S11381E000F09CBFA17D032908DA481CA075C0B229
S11381F0012840F09487022000F086BCDFF8205666
S1138200DFF820662A78A978E878303A303902EB2A
S1138210820301EB4301303801EB810200EB4200A1
S1138220A0F11901B029306008D2C04908600222C7
S1138230DFF83417086040F22310D9E2952000F0EB
S11382406DBFA17D032908DA481CA075C0B20128BE
S113825040F06587022000F057BCDFF8C455DFF812
S1138260C4652A78A978E878303A303902EB820379
S113827001EB4301303801EB810200EB4200B0F521
S11382807A7F306008D2AA4908600222DFF8D81643
S1138290086040F22510ABE2962000F03FBFA17DBC
S11382A0032908DA481CA075C0B2022840F03787B9
S11382B0032000F029BCDFF86855DFF868652A78E8
S11382C06B78A2F1300000EB8001A3F1300000EBE9
S11382D04102E878303802EB820100EB4100792852
S11382E0306008D2934908600222DFF87C160860E7
S11382F040F22B107CE2972000F010BFA17D0329EF
S113830008DA481CA075C0B2022840F00887032090
S113831000F0FABBDFF80855DFF808652A786B78B7
S1138320A2F1300000EB8001A3F1300000EB410228
S1138330E878303802EB820100EB410079283060A4
S113834008D27D4908600222DFF81C16086040F25A
S11383502D104DE2982000F0E1BEA17D032907DA3B
S1138360481CA075C0B2012840F0D9860220CBE396
S1138370DFF8AC54DFF8AC642A78A978E878303AAE
S1138380303902EB820301EB4301303801EB810207
S113839000EB4200A0F132019729306008D267490E
S11383A008600222DFF8C015086040F231101FE2B5
S11383B0992000F0B3BEA17D0329C0F2A483DFF8A5
S11383C06054E878A9786B782A78DFF8586402EB6F
S11383D0820503EB450202EB820301EB430101EB4F
S11383E0810200EB4200DFF8401440F2C772081823
S11383F0A0F10A019142306008D2514988600222FA
S1138400DFF86415086040F23710F1E19A2000F0BB
S113841085BE1422DFF8141DDFF8140D01F0EAFA0A
S11384201422DFF8101D204601F0E4FA00F088FE63
S113843002F0B8F81422DFF8001D204601F0DAFA41
S113844000F07EFE04F05EF8022004F014FB4C20E1
S113845000F064BE3B49002008700122DFF80815D3
S1138460087040F2391001F0A9FB1422DFF8CC1C8B
S1138470204601F0BFFA00F063FE012000F010BEB8
S11384803049012008700122DFF8DC14087040F242
S1138490391001F093FB1422DFF8A01C204601F0F0
S11384A0A9FA00F04DFE012000F0FABD7C0800207E
S11384B094080020980800209C08002088080020C8
S11384C0A17D032907DA481CA075C0B2012840F039
S11384D02686022018E3D24DD24E2A78A978E8786D
S11384E0303A303902EB820301EB4301303801EBBF
S11384F0810200EB4200A0F13201B1F5077F306048
S113850024D8114908600222DFF85C1408604FF493
S1138510A0706DE18C080020480800204C08002061
S1138520640800205408002090080020A0080020BF
S1138530A4080020A8200020AC200020B0200020A7
S113854098070020B7080020882000209B2000F016
S1138550E5BDA17D032907DA481CA075C0B2012836
S113856040F0DD850220CFE2AD4DAE4E2A78A978E9
S1138570E878303A303902EB820301EB43013038BA
S113858001EB810200EB4200A0F13201B1F5077F5B
S1138590306008D87D4908600222DFF8CC130860F7
S11385A04FF4A17024E19C2000F0B8BDA17D032903
S11385B007DA481CA075C0B2012840F0B08502203B
S11385C0A2E2974D974E2A78A978E878303A303964
S11385D002EB820301EB4301303801EB810240F2EC
S11385E04F2100EB42008842306007D27C4908608A
S11385F00222DD4908604FF4A270F9E09D2000F0EA
S11386008DBDA17D032907DA481CA075C0B20128DD
S113861040F08585022077E2814D824E2A78A97840
S1138620E878303A303902EB820301EB4301303809
S113863001EB810200EB4200A0F13201B1F5077FAA
S1138640306007D8704908600222C74908604FF4B7
S1138650A370CDE09E2000F061BDA17D0329C0F28E
S113866052826F4DE878A9786B782A786D4E02EBC8
S1138670820503EB450202EB820301EB430101EBAC
S1138680810200EB42006849081842F210718842E6
S1138690306007D25D4908600222B34908604FF494
S11386A0A470A5E09F2000F039BDA17D0329C0F28C
S11386B02A825B4DE878A9786B782A78594E02EBC8
S11386C0820503EB450202EB820301EB430101EB5C
S11386D0810200EB42005449081842F210718842AA
S11386E0306007D24A49086002229F4908604FF46B
S11386F0A5707DE0A02000F011BDA17D0329C0F28A
S11387000282474DE878A9786B782A78454E02EBC7
S1138710820503EB450202EB820301EB430101EB0B
S1138720810200EB4200404940F2B7320818A0F140
S113873032019142306007D23649086002228A49E8
S1138740086040F24D1053E0A12000F0E7BCA17D89
S11387500329C0F2D881324DE878A9786B782A7859
S1138760304E02EB820503EB450202EB820301EB80
S1138770430101EB810200EB42002B49081840F64B
S11387803811884230600AD2234901E08C2000204D
S1138790086002227449086040F24F1028E0A220C9
S11387A000F0BCBCA17D0329C0F2AD811C4DE8786A
S11387B0A9786B782A781B4E02EB820503EB4502FD
S11387C002EB820301EB430101EB810200EB420067
S11387D015490818411F1A29306027D20F4901E0B2
S11387E090200020086001225F49086040F2511087
S11387F001F0E4F91422DFF8081C204601F0FAF82D
S113880000F09EFC00F08BBC942000208008002027
S113881084080020982000209C200020A020002014
S1138820141F002038200020B02FFFFFA32000F0E9
S113883075BC292000F072BC01F050FE00F06FBC42
S113884084B0DFF8C01B68462C2201F0D3F80FBCBB
S113885004F0CCF9DFF8882CDFF8AC1B1268DFF8E1
S1138860845C10180860084604F0A4FADFF8781C49
S113887008600A224169643941610169491C016146
S1138880816891FBF2F130312970816891FBF2F239
S113889002EB8203A1EB4301303169700A22416883
S11388A091FBF2F13031A9700A21406890FBF1F19B
S11388B001EB8102A0EB42003030E8700020A0758B
S11388C0A52000F02BBC84B0DFF8381B68462C22AE
S11388D001F090F80FBC04F089F9DFF8042CDFF8FC
S11388E0281B1268DFF8FC5B10180860084604F0C7
S11388F061FADFF8F41B086002694169521C6439AB
S1138900026141610A2291FBF2F13031297041691F
S113891091FBF2F202EB8203A1EB43013031697067
S11389200A22016991FBF2F13031A970016991FBCE
S1138930F2F202EB8203A1EB43013031E9700A2227
S1138940C16891FBF2F1303129710A21C06890FBB2
S1138950F1F101EB8102A0EB42003030687100209C
S1138960A075A620DAE300BFD81F00205808002015
S1138970A920D3E3DFF8C05BDFF8B407142229464B
S113898001F038F814222946204601F033F883A078
S1138990DFF8A81B02780A707F2020770120A076D8
S11389A0642060760020A075AA20B7E3AD20B5E36B
S11389B0DFF8845BDFF878071422294601F01AF8FF
S11389C014222946204601F015F874A0DFF86C1B28
S11389D002780A707F2020770120A07664206076D8
S11389E00020A075AE2099E3DFF8581BCF20087053
S11389F0AF2020620020607791E300BF5C08002074
S1138A00B2208BE3207FA17D7F282FD101291BD1A8
S1138A10DFF8245BDFF818071422294600F0EAFF88
S1138A2014222946204600F0E5FF5CA0DFF80C1B69
S1138A3002780A707F2020770120A0766420607677
S1138A40002061E060080020002900F068832020F5
S1138A502077FBF765FCA07DDFF8882A401EA0750F
S1138A600021C0B281547F20207758E3DFF8745A84
S1138A7048557F202029207780F25183481CA07517
S1138A800021C0B241554AE374200020A17D03298E
S1138A9039DBDFF8505ADFF8146B2A786B78A2F1CF
S1138AA0300000EB8001A3F1300000EB4102182AF2
S1138AB0326023D2DFF8F83A1A60A978E8783039BE
S1138AC0303801EB810200EB42013C29316013D2C2
S1138AD0DFF8E00A1A688161C26100214161002067
S1138AE0DFF8FC1908600120DFF8CC1A4EE000BF63
S1138AF0680800206C080020B3200FE3B3200DE3C6
S1138B00A17D062902DA481CA07508E3DFF8D459D0
S1138B10DFF8986A2A786B78A2F1300000EB8001C4
S1138B20A3F1300000EB4102112A32603AD3A87855
S1138B3000EB8001E87800EB4100A0F110012879F6
S1138B4000EB8003687900EB43001038D2B2C9B25D
S1138B50C0B200F079FD012822D1DFF8580A31684B
S1138B608162A97801EB8102E97801EB4201A1F568
S1138B7004714162297901EB8102697901EB4201B7
S1138B80A1F5047101620120DFF8301A0870C6E211
S1138B9070080020740800207808002000000000FD
S1138BA0B420BBE2B420B9E2B820B7E2B920B5E200
S1138BB0DFF80C0A0188CA0758BF41F001015AD5F1
S1138BC04FF6FE7256E0DFF8F80901888A0758BFAD
S1138BD041F002014FD54FF6FD724BE0DFF8E0099A
S1138BE001884A0758BF41F0040144D54FF6FB728F
