S0390000736B2D666D332D3438706D632D757362737469636B5F7573625F6465766963655F7669727475616C5F636F6D5F706F72742E73726563CC
S113000080E3FF1F29100000451000004910000084
S11300104D100000511000005510000000000000B9
S11300200000000000000000000000005910000063
S11300305D10000000000000611000006510000069
S1130040691000006D1000007110000075100000B0
S1130050791000007D100000811000008510000060
S1130060891000008D10000091100000DD100000C8
S1130070DD1000009510000099100000DD10000054
S1130080DD1000009D100000A1100000DD10000034
S1130090DD100000DD100000DD100000A5100000E0
S11300A0A9100000AD100000B1100000DD10000028
S11300B0B5100000B9100000BD100000C110000010
S11300C0DD100000DD100000C5100000C9100000A4
S11300D0DD100000DD100000CD100000D110000084
S11300E0D5100000D9100000DD100000DD10000064
S11300F0DD100000DD100000DD100000DD10000048
S1130100DFF8D004016821F480410160DFF8C814ED
S11301100A6842F480420A60DFF8C0140A6822F4D4
S113012080420A60026822F480520260DFF8A02450
S1130130136843F4805313600B6843F480530B60DB
S1130140036823F400530360136843F400531360FB
S11301500B6843F400530B60036823F4806303606B
S1130160136843F4806313600B6843F480630B608B
S1130170036823F400630360136843F400631360AB
S11301800B6843F400630B60036823F4007303609B
S1130190106840F400701060086840F40070086053
S11301A0106840F400601060106840F40070106043
S11301B070472DE9F041044600250826DFF8208425
S11301C0DFF80C74386820F4805038603868C00454
S11301D0FCD4200638684CBF40F4005020F4005092
S11301E0386064001420C046C046D8F800006D0092
S11301F0400448BF45F00105386840F48050386039
S11302003868C004FCD54620C046C046761ED9D105
S1130210E8B2BDE8F0812DE9F04104464FF40470E2
S11302200D46B4FBF0F716465321384600F06AF940
S113023030194FF40471B0FBF1F8474503D0552150
S1130240404600F05FF933462A462146012000F07B
S113025074F83946832000F037F9474504D0414605
S1130260BDE8F04186202FE1BDE8F081F8B5D84F14
S11302700446386820F4806038600D461646322003
S1130280C046C0462046FFF794FF36B1FF20FFF773
S113029090FF761E05F8010BF8D1386840F48060B1
S11302A038604FF4FA70BDE8F24000F09BB92DE9D4
S11302B0F04182B004468846164601226946D7209A
S11302C0FFF7D4FF9DF800000006F6D5C04F38684C
S11302D020F4806038603220C046C0460B20FFF70F
S11302E068FF4FF40470B4FBF0F5A804000EFFF7A8
S11302F060FF05EB4510A4EB0010000A40EA8500FE
S1130300C0B2FFF756FFA4EB0510C0B2FFF751FFD0
S1130310FF20FFF74EFF36B1FF20FFF74AFF761E9E
S113032008F8010BF8D1386840F4806038604FF465
S1130330FA70C046C046BDE8F3812DE9F14F9046FE
S113034000284FF40470B1FBF0F000EB4012994622
S11303500CBFD4258425A1EB0216DFF884A29C4CA3
S1130360B9F1000F00F09780206820F480602060CD
S11303703220C046C046D720FFF71BFFFF20FFF7FF
S113038018FF0746206840F4806020604FF4FA703C
S1130390C046C0463806E7D5206820F48060206057
S11303A03220C046C0462846FFF703FFFF20FFF770
S11303B000FF3004000EFFF7FCFEF0B2FFF7F9FE79
S11303C0D42D12BFD62DFF20FFF7F3FE009868BB93
S11303D0FF2500274FF0080B206820F48050206090
S11303E02068C004FCD4280620684CBF40F40050A8
S11303F020F4005020606D001420C046C046DAF896
S113040000007F00400448BF47F00107206840F423
S1130410805020602068C004FCD54620C046C046F9
S1130420BBF1010BD8D188F8007023E098F8005094
S11304300827206820F4805020602068C004FCD481
S1130440280620684CBF40F4005020F4005020607F
S11304506D001420C046C046DAF80000206840F45D
S1130460805020602068C004FCD54620C046C046A9
S11304707F1EDED1761C4FF40470B6FBF0F000EB67
S11304804011B6EB0110A9F1010908F101080CD0E3
S1130490B9F1000F9AD1206840F4806020604FF4D5
S11304A0FA70BDE8F24F00F09DB8206840F4806017
S11304B0206000264FF4FA70C046C0460098002819
S11304C014BF8725D6254BE770B582B004460D4688
S11304D001226946D720FFF7C9FE9DF800000006F7
S11304E0F6D53B4E306820F4806030603220C04640
S11304F0C0462046FFF75DFEA804000EFFF759FE34
S1130500A8001CE070B582B004460D46012269467D
S1130510D720FFF7ABFE9DF800000006F6D52C4E61
S1130520306820F4806030603220C046C0462846DF
S1130530FFF73FFEA004000EFFF73BFEA000C0B291
S1130540FFF737FEFF20FFF734FE306840F4806089
S113055030604FF4FA70C046C04673BD38B51C4CC9
S1130560206820F4806020604FF6DC752846C04681
S1130570C0462846C046C0462846C046C04628460F
S1130580C046C0462846C046C0462846C046C04667
S11305909F20FFF70EFEFF20FFF70BFE1F280AD156
S11305A0FF20FFF706FE262805D1FF20FFF701FEF6
S11305B008B9002500E0FF25206840F48060206031
S11305C04FF4FA70C046C046284632BD0000000011
S11305D01034034010300340103103401032034004
S11305E010330340704730B142F6310100BF491E59
S11305F0FCD1401EF8D1704770B58F4D06002868B5
S113060040F040000C4628600FD02046FFF7EBFF77
S1130610286820F0400028602046FFF7E4FF28689F
S113062040F04000761E2860EFD170BD30B585B033
S113063000F008F9824CE06820F40070E060C82102
S1130640E06820F48060E060E06820F40060E0602E
S1130650E06820F48050E060E06820F40050E0603E
S11306606068400840006060206820F0020020605C
S1130670206820F004002060606820F008006060BA
S1130680206940F0800020610120FFF7B5FF4FF49E
S11306907A70FFF7A8FFFFF761FF48B14FF480407D
S11306A0016881F30888654A106040688047FEE766
S11306B001226946FFF7FBFD9DF8000088B1C821BF
S11306C00220FFF799FF4FF47A70FFF78CFF4FF485
S11306D08040016881F30888584A10604068804768
S11306E0FEE7C8210320FFF787FF40F6B835284608
S11306F0FFF779FF00F0F8F878B9C8210420FFF774
S11307007BFF2846FFF76FFF00F0FCF8C8210520A7
S1130710FFF772FF2846FFF766FF00F0E5F80128AF
S11307207AD1C8210620FFF767FF2846FFF75BFF51
S1130730FFF714FF48B14FF48040016881F3088843
S11307403E4A106040688047FEE7C8210720FFF753
S113075053FF2846FFF747FF012269460020FFF7B1
S1130760A6FD9DF80000002846D1C8210820FFF707
S113077043FF2846FFF737FF00F0DCF878B9C820BC
S1130780FFF731FF206920F0400020614FF4FA6048
S1130790FFF729FF206940F040002061EFE7FF20C8
S11307A08DF80000012269460020FFF734FD20691E
S11307B040F0400020610A254FF47A70FFF713FFE0
S11307C0206920F0400020614FF47A70FFF70BFF9E
S11307D0206940F040006D1E2061EDD141F2883067
S11307E0FFF701FF4FF48040016881F30888134A42
S11307F0106040688047FEE7C820FFF7F4FE2069D8
S113080020F04000206141F28830FFF7ECFE2069BF
S113081040F040002061EFE74FF47A710520FFF7C4
S1130820EBFE4FF48040016881F30888034A1060AE
S113083040688047FEE700001034034008ED00E004
S11308400034034080B500F017F90948016821F02D
S1130850C00101600748016821F0C0010160064839
S1130860016841F0C0010160BDE80140FFF748BCE8
S1130870103003401034034010320340DFF800F01E
S113088005E0FF1FDFF800F0C1E0FF1F30B142F6C2
S1130890310100BF491EFCD1401EF8D17047704A97
S11308A0136843F040031360E8B141B10B4642F6CC
S11308B0310C00BFBCF1010CFBD15B1EF7D11368F6
S11308C023F04003136041B10B4642F6310C00BFE4
S11308D0BCF1010CFBD15B1EF7D1136843F040035C
S11308E0401E1360E1D170474FF4804050F8041B60
S11308F011F1010F01D000207047B0F5003FF5D38E
S11309000120704780B572B600214FF48040FFF794
S1130910B5FF002144F20400FFF7B0FF00214FF4BB
S11309200040FFF7ABFF002148F20400FFF7A6FFE9
S113093062B601BD2DE9F04F83B000208DF80800A8
S11309406426DFF82081DFF820B1484F444C20684A
S113095080F0400020600A20FFF745FE02A93846D7
S113096000F04CF9814619F1010F0FD19DF80800F0
S113097028BBB046206880F0800020606420FFF728
S113098032FEB8F10108F5D1012071E019F1060F2A
S113099004BF9DF80800002811D1206840F04000F1
S11309A0206040F6B8342046FFF770FFC8210920C4
S11309B0FFF775FF2046FFF769FF002058E00A2083
S11309C000900098704300900098411E009140B13F
S11309D00A200190019800281CBF0198401EF8D1FC
S11309E0F2E772B60025A9F5804A04E0E95BFFF757
S11309F049FFAD1CEDB29DF80800854208DADA45DE
S1130A00F7D205EB090040452CBF01220022EDE797
S1130A100A2000900098704300900098411E0091B5
S1130A2040B10A200190019800281CBF0198401E83
S1130A30F8D1F2E762B60A20009000987043009063
S1130A400098411E002800913FF481AF0A2001E084
S1130A500198401E019001980028F9D1F0E70000A8
S1130A601034034000000C2005D00F0080E3FF1F6A
S1130A7003B0BDE8F08F000010B44448444A016854
S1130A80444C1140016044490B681A400A60434ACF
S1130A90136843F41C4343F01F03136000232360D3
S1130AA044683F4B1C4044604C6823404B6040F218
S1130AB0BF34536823435360836823F00E03836079
S1130AC08B6823F00E038B60936843F00E039360EE
S1130AD0C468344B1C40C460CC682340CB60D368EA
S1130AE043F47E4343F00803D3602F4B1C6804F0A7
S1130AF0FE041C602D4B04691C4004610C692340F6
S1130B000B61136943F4FC4343F0C003136143696D
S1130B109B089B0043614B699B089B004B61536995
S1130B2043F0030353618369DB08DB0083618B6952
S1130B30DB08DB008B61936943F007039361036A6D
S1130B409B089B0003620B6A9B089B000B62116A63
S1130B5041F003011162C168C908C900C1601449A8
S1130B600B6843F007030B60D368DB08DB00D3603A
S1130B70436923F004034361886840F004008860FB
S1130B80506920F00400506110BC704700300340ED
S1130B90E063FFFF003503400034034000320340AC
S1130BA040FCFFFFF701FFFF803503403F81FFFF5B
S1130BB00C31034002780021A2F1300CBCF10A0F81
S1130BC03CBF1101C9B2A2F14103062B03D2373A4B
S1130BD001EB0211C9B24078A0F130030A2B02D212
S1130BE041183039C9B2A0F14102062A03D2401893
S1130BF0A0F13701C9B20846704700002DE9F04D55
S1130C000D4682B00026804600270024B346B24633
S1130C102E7006E06846FFF7CDFFC01B841E2C70C3
S1130C2002260020ADF8000002223648006869461A
S1130C30FFF73DFB334833490068801C08609DF88A
S1130C400000FF280AD19DF80100FF280CD10020E4
S1130C5028704FF0FF3B5846BDE8F68D0D2804BFC1
S1130C609DF801000A28F6D0F6B28EB1072E05DAF7
S1130C706846FFF79FFF50445FFA80FA072ED0D8EA
S1130C80DFE806F00605161818182633C9E7C1E789
S1130C909DF80000532805D19DF80100A0F130070C
S1130CA0FFB201260FB1042FBBDB00270026B8E7F3
S1130CB04FF0000B6846FFF77DFFB91B891CC90084
S1130CC088408344B81B801C08BF0526761CA8E70F
S1130CD0641EE4B204B907266846FFF76BFF88F880
S1130CE00000002008F8010F9BE76846FFF762FF49
S1130CF080F0FF00504594D0002028706FF005006C
S1130D00BDE8F68D00E0FF1F604E00001CB4002219
S1130D10009211B1012913D04DE04FF080421368C5
S1130D2003F0FD031360136843F001031360AA2367
S1130D301268019241F25052138040F6A82308E051
S1130D401E4A00231360AA23126801921C4A1380CE
S1130D501C4B55241C8080241480AA241480552202
S1130D601A803022028002881207FCD5009A5AB9F0
S1130D700288920644BF4FF0FF32009202881206A6
S1130D80F4D501220092F1E711B1012910D012E04B
S1130D904FF080424FF6FE711068084010601068F2
S1130DA040F00200106010680190009816BC704773
S1130DB0024A0120F6E716BC61E0000000000E20A4
S1130DC0A80A0C2054050C203CB40023009312B153
S1130DD0012A15D052E04FF080434FF6FD751C6890
S1130DE02C401C6040F6A8251C6844F001041C60DB
S1130DF0AA241B68019341F250531C80552409E036
S1130E001B4B1C4D00241C60AA241B6801931A4B25
S1130E101C8055242C8001F08005A0241C800180B6
S1130E204FF0FF330AE00488A40648BF0093048807
S1130E3004F08004AC4204BF01240094009C002C04
S1130E40F1D012B1012A10D018E04FF080434FF6D0
S1130E50FE71186808401860186840F002001860B5
S1130E6018680190009836BC7047014B0120F6E7E2
S1130E7000000E2054050C20A80A0C2036BC6FF08C
S1130E8001007047244825490160832224490160F8
S1130E9000202449087000211E48017401210175B5
S1130EA081210176017720490A7000220A725C22AE
S1130EB00A74027842F00202027002799207FCD5A9
S1130EC000220A7504220A7609220A77017841F081
S1130ED0100101700179C906FCD5017841F0400187
S1130EE001700178027902F0E00201F0E0018A4227
S1130EF0F7D140F2FF320D4801688905890D91420E
S1130F0006D00B490B4A8A6000680880002088607C
S1130F107047000000000140001C014051E5CC1A5C
S1130F20AE1A33E5081001402000014000010040E2
S1130F3004E0024054E5CC1A19E050F8041BCB0736
S1130F4044BFA9F101035918121F0023042A41F8D0
S1130F50043BF9D25FEA827C0B4604D54FF0000CC7
S1130F60A1F800C09B1CD10744BF0021197050F8A0
S1130F70042B002AE1D1704710B450F8041B79B156
S1130F800268436812180830DC0744BFA9F1010461
S1130F90E31852F8044B43F8044B091FF9D1ECE76A
S1130FA010BC704710B5074979441831064C7C448D
S1130FB0163404E00A68081D511888470146A14206
S1130FC0F8D110BD08000000280000006DFFFFFFED
S1130FD0F401000080E3FF1F000000009DFFFFFFFD
S1130FE07C01000024FDFFFF00E0FF1F0000000063
S1130FF00120C046002801D0FFF7D4FF0020C046DE
S1131000C046FFF713FB00F000F800F001B8000041
S11310100746384600F002F8FBE7000020210903E8
S113102026311820ABBEF9E7014880470148004744
S1131030850E000039100000C046C046C046C046B8
S1131040FFF7D6FFFFF7FEBFFFF7FEBFFFF7FEBFB8
S1131050FFF7FEBFFFF7FEBFFFF7FEBFFFF7FEBFC0
S1131060FFF7FEBFFFF7FEBFFFF7FEBFFFF7FEBFB0
S1131070FFF7FEBFFFF7FEBFFFF7FEBFFFF7FEBFA0
S1131080FFF7FEBFFFF7FEBFFFF7FEBFFFF7FEBF90
S1131090FFF7FEBFFFF7FEBFFFF7FEBFFFF7FEBF80
S11310A0FFF7FEBFFFF7FEBFFFF7FEBFFFF7FEBF70
S11310B0FFF7FEBFFFF7FEBFFFF7FEBFFFF7FEBF60
S11310C0FFF7FEBFFFF7FEBFFFF7FEBFFFF7FEBF50
S11310D0FFF7FEBFFFF7FEBFFFF7FEBFFFF7FEBF40
S113400028250020F1FA010015FB010019FB01002D
S11340101DFB010021FB010025FB01000000000045
S113402000000000000000000000000029FB010067
S11340302DFB01000000000031FB010035FB0100F5
S113404039FB01003DFB010041FB010045FB010080
S113405049FB01004DFB0100F1D6000085930000EF
S113406043FA0100FDD9000061FB01001594010031
S113407069FB01003BA9000071FB0100B5FB0100D5
S1134080B5FB010075FB010079FB0100B5FB0100E4
S1134090B5FB0100B5FB0100B5FB01007DFB010090
S11340A081FB010041FA010089FB0100B5FB01001D
S11340B08DFB010091FB010095FB010099FB0100C0
S11340C0B5FB0100B5FB01004BFA010055FA0100F4
S11340D0B5FB0100B5FB0100A5FB0100A9FB010034
S11340E0ADFB0100B1FB0100B5FB0100B5FB010014
S11340F0B5FB0100B5FB0100B5FB0100B5FB0100F8
S113410038B5684CE07E012833D1674D67492846AD
S113411005F075FA012803DB0120E07502201BE09D
S11341205EA1284605F06BFA012803DB0120E07547
S1134130002011E05E49284605F061FA012802DBFF
S11341400120E07508E056A1284605F058FA012838
S113415003DB0120E075032060750020E076207EFB
S113416038B1544805F09EFB2846BDE8324005F0BE
S113417099BB31BDF0B5142883B0044658D8DFE8A4
S113418000F00B0E1114171A1D2E3134373A3D402E
S11341904346494C4F5752001422474945E01422E4
S11341A0464942E0142246493FE0142245493CE096
S11341B01422454939E01422444936E0444D454926
S11341C01422284605F0D4FB4348006800282FD168
S11341D04E2068732E20A8734520E87328E014222B
S11341E03E4922E014223E491FE014223D491CE0CE
S11341F014223D4919E014223C4916E014223C499A
S113420013E014223B4910E014223B490DE0142230
S11342103A490AE014223A4907E01422394904E0F1
S11342201422394901E014223849294805F0A0FB39
S113423037480068E040C00706D5254D592068730B
S11342406520A8737320E87304EB44004000314EEA
S1134250314F00F52C5006223146503005F0B4FCA5
S11342603079737832782D490290F0780190B078E3
S11342700C4E0090384605F0DBFE002038743146C1
S1134280384605F03AFA0CB17F203070142CBCBFCC
S11342907E20F0730020B07603B0F0BD55500000CE
S11342A045534300E01E0020681C0020D0DB0100C1
S11342B0D8DB0100E0DB0100ECDB010000DC0100E5
S11342C014DC010028DC01003CDC010050DC0100AE
S11342D0641F002064DC01006C20002078DC0100F5
S11342E08CDC0100A0DC0100B4DC0100C8DC0100AE
S11342F0DCDC0100F0DC010004DD010018DD01005C
S11343002CDD010040DD010054DD010068DD010009
S1134310B820002068130020881900207CDD0100EB
S1134320F0B5DFF89C4B83B0206AD32802F2C58431
S1134330DFE810F0D400E500F8000B011A015A017F
S1134340C1110C121E12031326134A138613B81339
S1134350DB13FD1318143E14401442144414461481
S113436048144A144C144E14501452145414561431
S113437058145A145C145E14601464149414C31412
S1134380F20103020E0FBA0FC10F1F0F360F4C0FAD
S1134390660F790F8C0FA20F120223023602490214
S11343A05C026F0282029502A802BB02CE02E10205
S11343B0F40207031A032D0340035303660379032E
S11343C08C039F03B403C703DA03ED03000413044F
S11343D0260439044C045F04720485049804AB0475
S11343E0BE04D104E00403052A0553057D05A30595
S11343F0CA05EF05140639065D068006A406C7063D
S1134400EB060C0716072A074F0773079807B6072A
S1134410D407DF07F80717083D0849085A086C084D
S11344208408A808E40803092209410960098909E4
S1134430B209DB09030A5F0A6D0A7B0A890A970A33
S1134440A60AB50AC40AD30AE20AF10A000B0E0B43
S11344501C0B2A0B390B480B570B660B750B840B83
S1134460930BA20BB10BC00BC314D20BE10BF00BDB
S1134470020C110C200C320C410C520CC314D80F3A
S1134480FD0F5E106F10AE1042117E109210F810E6
S113449042116B1191119C11AC113C104A10610C2A
S11344A0730C860C950CDC0CFB0C1C0D3D0D5E0D89
S11344B07F0DA00DC10DE20D030E140E260E380E55
S11344C0500E680E940EB00ED20EED0E69017A01F4
S11344D08D01A001AF01BE01CD01DC011422DFF882
S11344E0941CDFF8940C05F043FA1422DFF88C1CBA
S11344F0204605F03DFA7E20E07302F0DCBB142276
S1134500DFF8701CDFF8700C05F032FA1422DFF8C3
S1134510701C204605F02CFA7F2020707E20E0736A
S113452002F0C9BB1422DFF84C1CDFF84C0C05F078
S11345301FFA1422DFF84C1C204605F019FA7F20DC
S113454020707E20E07302F0B6BB1422DFF8241C36
S1134550DFF8240C05F00CFA1422DFF8AC1D204619
S113456005F006FA02F0A5BB1422DFF8A01DDFF85F
S1134570080C05F0FDF91422DFF8941D204605F01F
S1134580F7F9A07D032802F23E80DFE810F0040072
S11345900C0016002100CE206076DFF8780D00783C
S11345A0A07102F030B8CF2060767820A071DFF8D7
S11345B0640D4078E07102F026B8D020607678204F
S11345C0A071E071DFF84C0D8078207202F01BB806
S11345D0D12060767820A071E0712072DFF8340D6C
S11345E0C078607202F00FB81422DFF8201DDFF8E3
S11345F0880B05F0BDF91422DFF81C1D204605F0D8
S1134600B7F902F058BB1422DFF8101DDFF8680B6D
S113461005F0AEF91422DFF8081D204605F0A8F9CC
S11346207E20E07302F047BB1422DFF8F01CDFF8B1
S1134630480B05F09DF91422DFF8CC1D204605F047
S113464097F97F2020707E20E07302F034BB14229F
S1134650DFF8C81CDFF8200B05F08AF91422DFF814
S1134660D01D204605F084F97F2020707E20E07361
S113467002F021BB1422DFF8A41CDFF8FC0A05F0C9
S113468077F91422DFF8AC1D204605F071F902F029
S113469010BB1422DFF8A01DDFF8DC0A05F068F96E
S11346A01422DFF8C01D204605F062F902F003BBB6
S11346B01422DFF8B41DDFF8C00A05F059F91422FA
S11346C0DFF8A81D204605F053F902F0F4BA1422CD
S11346D0DFF89C1DDFF8A00A05F04AF91422DFF880
S11346E0941D204605F044F902F0E5BA1422DFF8DF
S11346F0881DDFF8840ADFF8845D05F039F9DFF8F6
S1134700800D0268E4A1284605F092FC2146284663
S113471004F0F3FF02F0CFBA1422DFF8881DDFF8AB
S1134720580A05F025F91422DFF87C1D204605F00F
S11347301FF97E20E07302F0BEBA1422DFF8641D74
S1134740DFF8340A05F014F91422DFF8601D20465E
S113475005F00EF902F0ADBA1422DFF8541DDFF8AB
S1134760180A05F005F91422DFF8481D204605F063
S1134770FFF87E20E07302F09EBA1422DFF8301DA9
S1134780DFF8F40905F0F4F81422DFF82C1D2046B4
S113479005F0EEF87F2020707E20E07302F08BBAE3
S11347A01422DFF80C1DDFF8D00905F0E1F814221B
S11347B0DFF8081D204605F0DBF87F2020707E20FE
S11347C0E07302F078BA1422DFF8E41CDFF8A809D9
S11347D005F0CEF81422DFF8E81C204605F0C8F8EE
S11347E07F2020707E20E07302F065BA1422DFF887
S11347F0C01CDFF8840905F0BBF81422DFF8C41CE0
S1134800204605F0B5F87F2020707E20E07302F08A
S113481052BA1422DFF8981CDFF85C0905F0A8F8F6
S11348201422DFF8A41C204605F0A2F87F20207093
S11348307E20E07302F03FBA1422DFF8741CDFF824
S1134840380905F095F81422DFF8801C204605F09D
S11348508FF87F2020707E20E07302F02CBA14229F
S1134860DFF84C1CDFF8100905F082F81422DFF899
S1134870601C204605F07CF87F2020707E20E073C9
S113488002F019BA1422DFF8281CDFF8EC0805F04E
S11348906FF81422DFF83C1C204605F069F87F20ED
S11348A020707E20E07302F006BA1422DFF8001CA8
S11348B0DFF8C40805F05CF81422DFF81C1C20465D
S11348C005F056F87F2020707E20E07302F0F3B9E3
S11348D01422DFF8DC1BDFF8A00805F049F81422E5
S11348E0DFF8F81B204605F043F87F2020707E2077
S11348F0E07302F0E0B91422DFF8B41BDFF87808A3
S113490005F036F81422DFF8D81B204605F030F8FD
S11349107F2020707E20E07302F0CDB91422DFF8EE
S1134920901BDFF8540805F023F81422DFF8B41BB9
S1134930204605F01DF87F2020707E20E07302F0F1
S1134940BAB91422DFF8681BDFF82C0805F010F858
S11349501422DFF8941B204605F00AF87F2020700B
S11349607E20E07302F0A7B91422DFF8441BDFF8BD
S1134970080804F0FDFF1422DFF8701B204604F041
S1134980F7FF7F2020707E20E07302F094B9142298
S1134990DFF81C1BDFF8E00704F0EAFF1422DFF85D
S11349A0501B204604F0E4FF7F2020707E20E0733B
S11349B002F081B91422DFF8F81ADFF8BC0704F01A
S11349C0D7FF1422DFF82C1B204604F0D1FF7F20F0
S11349D020707E20E07302F06EB91422DFF8D01A42
S11349E0DFF8940704F0C4FF1422DFF80C1B204600
S11349F004F0BEFF7F2020707E20E07302F05BB9DC
S1134A001422DFF8AC1ADFF8700704F0B1FF1422A7
S1134A10DFF8701D204604F0ABFF7F2020707E205D
S1134A20E07302F048B91422DFF8841ADFF848076B
S1134A3004F09EFF1422DFF8501D204604F098FF76
S1134A407F2020707E20E07302F035B91422DFF855
S1134A50601ADFF8240704F08BFF1422DFF82C1D02
S1134A60204604F085FF7F2020707E20E07302F052
S1134A7022B91422DFF8381ADFF8FC0604F078FFB4
S1134A801422DFF80C1D204604F072FF7F202070F2
S1134A907E20E07302F00FB9256400001422DFF8D1
S1134AA0101ADFF8D40604F063FF1422DFF8E41CC4
S1134AB0204604F05DFF7F2020707E20E07302F02A
S1134AC0FAB81422DFF8E819DFF8AC0604F050FF56
S1134AD01422DFF8C41C204604F04AFF7F20207013
S1134AE07E20E07302F0E7B81422DFF8C419DFF87F
S1134AF0880604F03DFF1422DFF8A01C204604F0D1
S1134B0037FF7F2020707E20E07302F0D4B8142297
S1134B10DFF89C19DFF8600604F02AFF1422DFF89E
S1134B20801C204604F024FF7F2020707E20E07348
S1134B3002F0C1B81422DFF87819DFF83C0604F05B
S1134B4017FF1422DFF85C1C204604F011FF7F20BD
S1134B5020707E20E07302F0AEB81422DFF8501902
S1134B60DFF8140604F004FF1422DFF83C1C20468E
S1134B7004F0FEFE7F2020707E20E07302F09BB8DC
S1134B801422DFF82C19DFF8F00504F0F1FE1422EA
S1134B90DFF8181C204604F0EBFE7F2020707E20F6
S1134BA0E07302F088B81422DFF80419DFF8C805AE
S1134BB004F0DEFE1422DFF8F81B204604F0D8FED1
S1134BC07F2020707E20E07302F075B81422DFF895
S1134BD0E018DFF8A40504F0CBFE1422DFF8D41BA0
S1134BE0204604F0C5FE7F2020707E20E07302F092
S1134BF062B81422DFF8B818DFF87C0504F0B8FEB8
S1134C001422DFF8B41B204604F0B2FE7F2020708B
S1134C107E20E07302F04FB81422DFF89418DFF816
S1134C20580504F0A5FE1422DFF8901B204604F07A
S1134C309FFE7F2020707E20E07302F03CB8142297
S1134C40DFF86C18DFF8300504F092FE1422DFF868
S1134C50701B204604F08CFE7F2020707E20E073C1
S1134C6002F029B81422DFF84818DFF80C0504F024
S1134C707FFE1422DFF84C1B204604F079FE7F20CF
S1134C8020707E20E07302F016B81422DFF820189A
S1134C90DFF8E40404F06CFE1422DFF82C1B204639
S1134CA004F066FE7F2020707E20E07302F003B8DB
S1134CB01422DFF8FC17DFF8C00404F059FE1422B4
S1134CC0DFF8081B204604F053FE7F2020707E206E
S1134CD0E07301F0F0BF1422DFF8D417DFF8980472
S1134CE004F046FE1422DFF8E81A204604F040FEE1
S1134CF001F0DFBF1422DFF8C41DDFF87C0404F0E8
S1134D0037FE41F288330022DFF8C81A204605F046
S1134D108FF9DFF800060178A1714178E17181789B
S1134D202172C0786072A07D032801F2C487DFE895
S1134D3010F05B0526004F0079001422DFF8DC1D1B
S1134D40DFF8340404F014FE1E230222DFF8841A70
S1134D50204605F06DF9DFF8BC050178A1714178B2
S1134D60E17181782172C0786072A07D032801F21C
S1134D70A287DFE810F0390504002D005700CF208A
S1134D806076012001F098BF1422DFF8F01DDFF8EF
S1134D90E80304F0EDFD4FF4FA730A22DFF8341A45
S1134DA0204605F045F9DFF86C050178A1714178DA
S1134DB0E17181782172C0786072A07D032801F2CC
S1134DC07A87DFE810F01105040005002F00D6E70C
S1134DD0D0206076012001F06FBF1422DFF8DC1DC3
S1134DE0DFF8940304F0C4FD4FF4FA730A22DFF8E9
S1134DF0E419204605F01CF9DFF818050178A171C3
S1134E004178E17181782172C0786072A07D0328B5
S1134E1001F25187DFE810F0E80405000400060001
S1134E20D6E7ACE7D1206076012001F045BF14221B
S1134E30DFF8A419DFF8400304F09AFD4FF4FA7385
S1134E400022DFF89019204605F0F2F8DFF8C404D8
S1134E500178A1714178E17181782172C078607222
S1134E60A07D032801F22787DFE810F0BE040600C6
S1134E7005000400D6E7ABE781E71422DFF85C19EC
S1134E80BD4804F075FD4FF4FA630122DFF84419BC
S1134E90204605F0CDF8DFF87C040178A171417853
S1134EA0E17181782172C0786072A07D032801F2DB
S1134EB00287DFE810F09904080007000400B1E756
S1134EC0E01E002084E75AE71422DFF8F81DAA4800
S1134ED004F04EFD4FF4FA630122DFF8F81820467F
S1134EE005F0A6F8DFF82C040178A1714178E1718E
S1134EF081782172C0786072A07D032801F2DB867C
S1134F00DFE810F072040600050004008AE75FE79A
S1134F1035E71422DFF8B01D974804F029FD4FF45B
S1134F20FA630122DFF8AC18204605F081F8DFF8B7
S1134F30E4030178A1714178E17181782172C0782C
S1134F406072A07D032801F2B686DFE810F04D04FC
S1134F5006000500040065E73AE710E71422DFF8CD
S1134F606C1D854804F004FD4FF4E1530022DFF882
S1134F706418204605F05CF8DFF898030178A17105
S1134F804178E17181782172C0786072A07D032834
S1134F9001F29186DFE810F0280406000500040001
S1134FA040E715E7EBE61422DFF8241D724804F00D
S1134FB0DFFCF0230022DFF81C18204605F038F847
S1134FC0DFF850030178A1714178E1718178217291
S1134FD0C0786072A07D032801F26D86DFE810F0CE
S1134FE004040600050004001CE7F1E6C7E61422E9
S1134FF0DFF8E01C604804F0BBFC3C230022DFF82F
S1135000D417204605F014F8C2480178A1714178FC
S1135010E17181782172C0786072A07D032801F269
S11350204A86DFE810F0E103060005000400F9E613
S1135030CEE6A4E61422DFF8A01C4F4804F098FC46
S11350404FF461633222DFF88C17204604F0F0FF3E
S1135050B0480178A1714178E17181782172C078FA
S11350606072A07D032801F22686DFE810F0BD03FC
S1135070060005000400D5E6AAE680E61422DFF85F
S11350805C1C3D4804F074FC50230A22DFF84417EA
S1135090204604F0CDFF9F480178A1714178E17169
S11350A081782172C0786072A07D032801F20386A2
S11350B0DFE810F09A03060005000400B2E687E674
S11350C05DE61422DFF8181C2B4804F051FC4FF461
S11350D061631E22DFF8FC16204604F0A9FF8D4808
S11350E00178A1714178E17181782172C078607290
S11350F0A07D032801F2DF85DFE810F076030600C7
S1135100050004008EE663E639E61422DFF8D41BBA
S1135110194804F02DFC1422DFF8CC1B204604F0BF
S113512027FC7C480178A1714178E1718178217272
S1135130C0786072A07D002800F0568301283FF4F7
S11351401EAE03283FF46EAE01F0B5BD1422DFF8A5
S11351507C1E094804F00CFC1422DFF8741EDDE701
S11351601422DFF8941E044804F002FC1422DFF831
S1135170601ED3E7A0DD0100641F0020B4DD010040
S1135180C8DD0100DCDD01001422DFF8701EDFF849
S1135190700E04F0EDFB4FF4FA630022DFF83416CE
S11351A0204604F045FF5B480178A1714178E17124
S11351B081782172C0786072A07D032801F27B851A
S11351C0DFE810F012030600050004002AE6FFE5FC
S11351D0D5E51422DFF8801EDFF8240E04F0C8FBA6
S11351E03C231422DFF8EC15204604F021FF494843
S11351F00178A1714178E17181782172C07860727F
S1135200A07D032801F25785DFE810F0EE020600C6
S11352100500040006E6DBE5B1E51422DFF8AC1E68
S1135220DFF8DC0D04F0A4FB4FF47A630522DFF809
S1135230A415204604F0FCFE36480178A17141789B
S1135240E17181782172C0786072A07D032801F237
S11352503285DFE810F0C902060005000400E1E52C
S1135260B6E58CE51422DFF8681EDFF8940D04F02F
S11352707FFB1422DFF85C1E204604F079FB2548EE
S11352800178A1714178E17181782172C0786072EE
S1135290A07D002800F0A88202283FF499AD50E7D1
S11352A01422DFF8A41EDFF8580D04F061FB142269
S11352B0DFF8981E204604F05BFB16480178A171C4
S11352C04178E17181782172C0786072A07D0028F4
S11352D000F08A8202283FF47BAD32E71422DFF823
S11352E0B81EDFF81C0D04F043FB1422DFF8AC1EDB
S11352F014E71422DFF8D01EDFF8040D04F038FBA5
S11353001422DFF8981E09E7F0DD010004DE010035
S113531018DE0100041F00202CDE010040DE010025
S113532054DE01001422DFF8CC1EDFF8D40C04F0A4
S11353301FFB1422DFF8C01E204604F019FBDFF81F
S1135340BC0E0178A1714178E17181782172C07835
S11353506072A07D002800F0478202283FF438AD37
S1135360EFE61422DFF83814DFF8940C04F000FBA5
S11353704FF4FA630A22DFF85C14204604F058FE66
S1135380DFF8780E0178A1714178E171817821729A
S1135390C0786072A07D032801F28D84DFE810F0EC
S11353A024020600050004003CE511E5E7E41422AC
S11353B0DFF8C01EDFF8480C04F0DAFA1422DFF834
S11353C0D81E01F05DB91422DFF8D01EDFF8300CCE
S11353D004F0CEFA1422DFF8C81E204604F0C8FAFE
S11353E07E20E07301F067BC1422DFF8B01EDFF802
S11353F0100C04F0BDFA1422DFF8A81E204604F0B5
S1135400B7FA01F056BC00BF68DE01001422DFF8D1
S1135410C41EDFF8EC0B04F0ABFA1422DFF8B81E5C
S1135420204604F0A5FA7E20E07301F044BC00BFDE
S11354307CDE010090DE0100A4DE01001422DFF80E
S1135440941EDFF8BC0B04F093FA1422DFF88C1ED0
S1135450204604F08DFA7F2020707E20E07301F056
S11354602ABC00BFB8DE0100CCDE0100E0DE010092
S1135470F4DE010008DF01001CDF010088190020B0
S1135480B41D00201422DFF84C1EDFF8740B04F066
S11354906FFA1422DFF8481E204604F069FA01F07E
S11354A008BC00BF30DF010044DF010058DF010009
S11354B06CDF010080DF010094DF0100A8DF010040
S11354C0BCDF0100D0DF0100E4DF0100F8DF0100F0
S11354D00CE0010020E0010034E0010048E001009C
S11354E05CE0010070E0010084E0010098E001004C
S11354F0ACE00100C0E00100D4E001001422DFF8B8
S11355008C1EDFF8FC0A04F033FA1422DFF8801E44
S1135510204604F02DFADFF8E40C0178A1714178FB
S1135520E17181782172C0786072A07D002800F05A
S11355305B8102283FF44CAC03E61422DFF8A41E7E
S1135540DFF8BC0A04F014FA1422DFF8441E2046E3
S113555004F00EFADFF8A40C0178A1714178E1712E
S113556081782172C0786072A07D002800F03C81AF
S113557002283FF42DACE4E51422DFF86C1EDFF8BA
S1135580800A04F0F5F91422DFF8601E204604F0C6
S1135590EFF9DFF8680C0178A1714178E171817845
S11355A02172C0786072A07D002800F01D8102285D
S11355B03FF40EACC5E51422DFF8981EDFF8400A6C
S11355C004F0D6F91422DFF8C81D204604F0D0F9FF
S11355D0DFF8280C0178A1714178E171817821729A
S11355E0C0786072A07D002800F0FE8002283FF49D
S11355F0EFABA6E51422DFF8801EDFF8040A04F0FE
S1135600B7F942F20F730022DFF8701E204604F04F
S11356100FFDDFF8E80B0178A1714178E171817821
S11356202172C0786072A07D032801F24483DFE810
S113563010F0DB00080006000400FFF7F3BBFFF7DF
S1135640C7BBFFF79CBB1422DFF8341EDFF8B00998
S113565004F08EF942F20F730022DFF8201E204678
S113566004F0E6FCDFF8940B0178A1714178E17154
S113567081782172C0786072A07D032801F21B83B7
S1135680DFE810F0B200080006000400FFF7CABB10
S1135690FFF79EBBFFF773BB1422DFF8E81DDFF8AA
S11356A0600904F065F94FF47A733222DFF8CC1DF7
S11356B0204604F0BDFCDFF8440B0178A171417869
S11356C0E17181782172C0786072A07D032801F2B3
S11356D0F282DFE810F08900080006000400FFF7FA
S11356E0A1BBFFF775BBFFF74ABBDFF89C0DDFF8E2
S11356F010196CC86CC140F637130022DFF87C1D0A
S1135700204604F095FCDFF8F40A0178A171417891
S1135710E17181782172C0786072A07D032801F262
S1135720CA82DFE810F06100080006000400FFF7F9
S113573079BBFFF74DBBFFF722BB1422DFF84C1DEA
S1135740DFF8BC0804F014F91E230522DFF82C1D31
S1135750204604F06DFCDFF8A40A0178A1714178B9
S1135760E17181782172C0786072A07D032801F212
S1135770A282DFE810F03900370035000400FFF79B
S113578051BB00BFE8E00100FCE0010010E10100B2
S113579024E1010038E101004CE1010060E1010075
S11357A074E1010088E101009CE10100B0E1010025
S11357B0C4E10100D8E10100ECE1010000E20100D4
S11357C014E2010028E201003CE2010050E2010081
S11357D064E201008CE20100DCE20100F0E201007D
S11357E0FFF7F6BAFFF7CBBACE206076012001F0BE
S11357F063BA1422B149DFF8080804F0B9F8142296
S1135800DFF8841E204604F0B3F801F054BA1422E1
S1135810C249DFF8EC0704F0ABF81422DFF8681E85
S1135820204604F0A5F801F046BA1422D349DFF863
S1135830D00704F09DF81422DFF84C1E204604F033
S113584097F801F038BA1422DC49DFF8B40704F001
S11358508FF81422DFF8301E204604F089F801F096
S11358602ABA1422DFF87C1EDFF8940704F080F8CB
S11358701422DFF8141E204604F07AF801F01BBA53
S11358801422DFF8641EDFF8780704F071F814229C
S1135890DFF8F41D204604F06BF801F00CBA142272
S11358A0DFF8481EDFF8580704F062F81422DFF826
S11358B0D81D204604F05CF801F0FDB91422DFF88D
S11358C0301EDFF83C0704F053F81422DFF8B81D4B
S11358D0204604F04DF801F0EEB91422DFF8141E4E
S11358E0DFF81C0704F044F81422DFF89C1D20465E
S11358F004F03EF801F0DFB91422DFF86C1EDFF883
S1135900000704F035F81422DFF87C1D204604F06B
S11359102FF801F0D0B91422DFF8501EDFF8E006AA
S113592004F026F81422DFF8601D204604F020F865
S113593001F0C1B91422E849DFF8C40604F018F8EC
S11359401422DFF8441D204604F012F801F0B3B924
S11359501422E249DFF8A80604F00AF81422DFF85A
S1135960281D204604F004F801F0A5B91422DC49EE
S1135970DFF88C0603F0FCFF1422DFF80C1D204630
S113598003F0F6FF01F097B91422DFF84C1EDFF89C
S1135990700603F0EDFF1422DFF8EC1C204603F040
S11359A0E7FF01F088B91422DFF82016DFF850066B
S11359B003F0DEFF1422DFF8D01C204603F0D8FFEA
S11359C001F079B91422DFF83016DFF8340603F059
S11359D0CFFF1422DFF8B01C204603F0C9FF01F00A
S11359E06AB91422DFF8F41DDFF8140603F0C0FFCF
S11359F01422DFF8941C204603F0BAFF01F05BB9CF
S1135A001422DFF85416DFF8F80503F0B1FF14226E
S1135A10DFF8741C204603F0ABFF01F04CB91422EC
S1135A20DFF8A816DFF8D80503F0A2FF1422DFF888
S1135A30581C204603F09CFF01F03DB91422DFF806
S1135A409016DFF8BC0503F093FF1422DFF8381C2E
S1135A50204603F08DFF01F02EB91422DFF8E8167A
S1135A60DFF89C0503F084FF1422DFF81C1C204699
S1135A7003F07EFF01F01FB91422DFF8301EDFF8B7
S1135A80800503F075FF1422DFF8FC1B204603F0A9
S1135A906FFF01F010B91422DFF8141EDFF860055F
S1135AA003F066FF1422DFF8E01B204603F060FFDA
S1135AB001F001B91422DFF83C1701E078E201009B
S1135AC0DFF83C0503F054FF1422DFF8BC1B20462A
S1135AD003F04EFF01F0EFB81422DFF8B018DFF83E
S1135AE0200503F045FF1422DFF89C1B204603F039
S1135AF03FFF01F0E0B81422DFF8E818DFF80005F2
S1135B0003F036FF1422DFF8801B204603F030FF39
S1135B1001F0D1B81422DFF8D01801E0A0E20100AE
S1135B20DFF8DC0403F024FF1422DFF85C1B2046BA
S1135B3003F01EFF01F0BFB81422DFF81819DFF8D4
S1135B40C00403F015FF1422DFF83C1B204603F0C9
S1135B500FFF01F0B0B81422DFF81C19DFF8A0041D
S1135B6003F006FF1422DFF8201B204603F000FF99
S1135B7001F0A1B81422DFF8081901E0B4E2010031
S1135B80DFF87C0403F0F4FE1422DFF8FC1A20464C
S1135B9003F0EEFE01F08FB81422DFF8E818DFF806
S1135BA0600403F0E5FE1422DFF8DC1A204603F05B
S1135BB0DFFE01F080B8DFF8D00801E0C8E20100A0
S1135BC0DFF83C146CC86CC11422DFF8BC1A204600
S1135BD003F0CEFE01F06FB81422DFF8B018DFF83E
S1135BE0200403F0C5FE1422DFF89C1A204603F0BB
S1135BF0BFFE01F060B81422DFF8E81DDFF80004EE
S1135C0003F0B6FE1422DFF8E01D204603F0B0FED8
S1135C100020A0767E2000F097BD1422DFF8C41D7A
S1135C20DFF8DC0303F0A4FE1422DFF8001E204694
S1135C3003F09EFE7F2020707E20E07301F03BB8CD
S1135C401422DFF8A01DEE4803F092FE1422DFF8C0
S1135C50E01D204603F08CFE0020A076C8E114224B
S1135C60DFF8D01DE64803F083FE1422DFF8C81DD8
S1135C70204603F07DFE0020A076DFF8C00D0078FA
S1135C8000F001010129A4BF4821A17000F0020124
S1135C900129A4BF4821617100F004010129A4BFB6
S1135CA04821217200F008010129A4BF4821E172B2
S1135CB000F010000128C1F200804820A07300F019
S1135CC0FCBF00BF04E3010018E301002CE3010062
S1135CD040E3010054E3010068E301007CE30100B8
S1135CE090E30100A4E30100B8E301001422DFF80B
S1135CF0A01DC348DFF89C5D03F03AFE0020A076A7
S1135D00DFF8941DDFF8940D007800F001000128FD
S1135D10ACBFDEA2DEA2284604F08AF9214628465A
S1135D2003F0EBFC7E2000F00FBD1422DFF8601DB1
S1135D30B348DFF8605D03F01BFE0020A076DFF8B7
S1135D40601DDFF8580D007800F002000128ACBF98
S1135D50CEA2CFA2284604F06BF92146284603F0D0
S1135D60CCFC7F2020707E2000F0EEBC1422DFF8F3
S1135D70201DA348DFF81C5D03F0FAFD0020A07687
S1135D80DFF8DC1DDFF8140D007800F004000128B2
S1135D90ACBFBEA2BEA2284604F04AF9214628465A
S1135DA003F0ABFC7F2020707E2000F0CDBC1422D9
S1135DB0DFF8DC1C9248DFF8DC5C03F0D9FD00203E
S1135DC0A076DFF8C41DDFF8D40C007800F00800DA
S1135DD00128ACBFADA2AEA2284604F029F92146A1
S1135DE0284603F08AFC7F2020707E2000F0ACBCA3
S1135DF01422DFF89C1C8248DFF8985C03F0B8FD9D
S1135E000020A076DFF8841DDFF8900C007800F005
S1135E1010000128ACBF9DA29DA2284604F008F9F9
S1135E202146284603F069FC7F2020707E2000F084
S1135E308BBC1422DFF8581C7148DFF8585C03F05F
S1135E4097FD0020A076DFF8481DDFF8500C00789D
S1135E5000F020000128ACBF8CA28DA2284604F0DB
S1135E60E7F82146284603F048FC7F2020707E2076
S1135E7000F06ABC1422DFF8181C6148DFF8145CD7
S1135E8003F076FD0020A076DFF80C1DDFF80C0C83
S1135E90007800F040000128ACBF7CA27CA2284618
S1135EA004F0C6F82146284603F027FC7F20207022
S1135EB07E2000F049BC1422DFF8D41B5048DFF8E0
S1135EC0D45B03F055FD0020A076DFF8D41CDFF886
S1135ED0CC0B007800F080000128ACBF6BA26CA250
S1135EE0284604F0A5F82146284603F006FC7F2046
S1135EF020707E2000F028BC1422DFF8941B404858
S1135F00DFF8905B03F034FD0020A076DFF8941CEA
S1135F10DFF8880B008800F480700128ACBF5BA216
S1135F205BA2284604F084F82146284603F0E5FBEA
S1135F307F2020707E2000F007BC1422DFF8681C4C
S1135F402F4803F015FD0020A0761422DFF85C1C16
S1135F50204603F00DFD7E2000F0F6BB1422DFF88E
S1135F60481C274803F004FD1422DFF8581D20467E
S1135F7003F0FEFC7F2020707E20E07300F09BBEC7
S1135F801422DFF8241C1E4803F0F2FC1422DFF86C
S1135F90381D204603F0ECFC7F2020707E20E07347
S1135FA000F089BE1422DFF8001C154803F0E0FC61
S1135FB00020A0761422DFF8141D204603F0D8FC3C
S1135FC07F2020707E20E07300F075BECCE30100DA
S1135FD0E0E301001422DFF8D01B094803F0C8FCF9
S1135FE00020A0761422DFF8E81C204603F0C0FC51
S1135FF07F20207000F061BEF4E3010008E401009A
S1136000641F00201422DFF8CC1CDFF8CC0CDFF86E
S1136010845A03F0ADFC0020A076DFF8C01CDFF842
S1136020C00C0978406801290CD104F01BF8DFF892
S1136030B42CDFF8B43C04F041F80B460246DFF818
S1136040AC1C05E004F00EF80B460246DFF8A01C79
S1136050284603F0EDFF71E01CE401001422DFF890
S1136060941CDFF8740CDFF82C5A03F081FC002038
S1136070A0766421DFF8800C006890FBF1F2DFF871
S11360807C1C284603F0D4FF58E000BF4F4646006E
S11360904F4E00001422DFF8681CDFF83C0CDFF8D8
S11360A0F45903F065FC0020A076DFF8580C006872
S11360B004F0D6F8DFF8501C04F0ECF803F0D2FF3B
S11360C00B460246DFF8441C35E000BF30E4010013
S11360D044E4010058E401001422DFF8341CDFF822
S11360E0F80BDFF8B05903F043FC0020A076DFF88A
S11360F0240C006804F0B4F8DFF81C1C04F0CAF89F
S113610003F0B0FF0B460246DFF8101C13E0142224
S1136110DFF80C1CDFF8C00BDFF8785903F028FC1B
S11361200020A076DFF8FC0B006803F09BFF0B4611
S11361300246DFF8FC1B284603F07AFF2146284676
S113614003F0DBFA00F0B9BD6CE4010080E4010067
S11361501422DFF8E41BDFF8800B03F009FC14229F
S1136160DFF8D81B204603F003FC7E20E07300F028
S1136170A2BD1422DFF8C01BDFF85C0B03F0F8FBB0
S11361801422DFF8BC1B204603F0F2FB7F202070B2
S11361907E20E07300F08FBD94E40100A8E40100C8
S11361A01422DFF8941BDFF8300B03F0E1FB142218
S11361B0DFF8901B204603F0DBFB7F2020707E205D
S11361C0E07300F078BD00BFBCE401001422DFF8E6
S11361D0681BDFF8040B03F0CBFB1422DFF8681B09
S11361E0204603F0C5FB7F2020707E20E07300F082
S11361F062BD00BFD0E40100E4E40100041F0020FC
S11362001422DFF8341BDFF8D00A03F0B1FB1422A8
S1136210DFF8381B204603F0ABFB7F2020707E2084
S1136220E07300F048BD1422DFF80C1BDFF8A80A65
S113623003F09EFB1422DFF8181B204603F098FBA2
S11362407F2020707E20E07300F035BD1422DFF83B
S1136250E81ADFF8840A03F08BFB1422DFF8F41A3F
S1136260204603F085FB7F2020707E20E07300F041
S113627022BD00BFF8E401001422DFF8BC1ADFF8E5
S1136280580A03F075FB1422DFF8CC1A204603F0F9
S11362906FFB00F00EBD00BF0CE5010020E501001E
S11362A034E5010048E50100DFF8F0174FF6F4701B
S11362B008802A20CAE11422DFF8A01ADFF8180A9D
S11362C003F056FB1422DFF8741A204603F050FB47
S11362D000F0F1BC5CE5010070E5010084E501001B
S11362E098E501001422DFF8781ADFF8EC0903F0CE
S11362F03FFB1422DFF86C1A204603F039FB01201F
S1136300A076DFF8640A017861714178A17181781F
S11363102172C0786072A07D032800F2CE84DFE889
S113632010F0390004003B003D00CE203BE0142275
S1136330DFF8381ADFF8A00903F01AFB1422DFF89B
S1136340301A204603F014FBDFF81C0A017861714F
S11363504178A1712D21E17181782172C178617236
S11363602D21A1720179E172407920730120A07678
S1136370A07D052800F2A184DFE810F00C000600DF
S11363800E00100012001400CFE700BFACE50100BE
S1136390C0E50100CD2006E0D02004E0D12002E0D9
S11363A0D32000E0D420607600F087BC1422DFF80C
S11363B0C419DFF8240903F0DBFA1422B249204699
S11363C003F0D6FA00F077BC1422DFF8AC19DFF83A
S11363D0080903F0CDFA1422AB49204603F0C8FAA9
S11363E000F069BCD4E50100E8E50100FCE501002A
S11363F01422DFF88819DFF8E00803F0B9FA142250
S1136400DFF87C19204603F0B3FA7E20E07300F035
S113641052BC1422DFF86419DFF8BC0803F0A8FAB0
S11364201422DFF86019204603F0A2FA00F041BC00
S11364301422DFF85419DFF8A00803F099FA1422A3
S1136440DFF83C19204603F093FA7E20E07300F055
S113645032BC00BF10E601001422DFF82C19DFF86B
S1136460780803F085FA1422DFF81819204603F09F
S11364707FFA00F01EBC00BF24E6010038E60100EC
S113648048E601005CE6010070E6010080E60100D8
S1136490DFF800562022294640F2FD2003F094FB49
S11364A0002085F820000021DFF8E008DFF82868E4
S11364B00170A4F1100231462B78FBB10778102F3C
S11364C003DA0B7000234B7002E013700023537047
S11364D07B1C03706F788FB1DBB2102B03DA4F7023
S11364E000278F7002E05770002797705B1C0370C1
S11364F0921C891CAD1CDBB2202BDDDB017820292A
S113650080F2DB83102904DA20238B558A190023B7
S113651004E00A19202302F8103D00235370491C9B
S11365200170EBE7DFF86C552022294640F21D305C
S113653003F04AFB002085F820000021DFF84C0816
S1136540DFF894670170A4F1100231462B78FBB197
S11365500778102F03DA0B7000234B7002E01370DE
S1136560002353707B1C03706F788FB1DBB2102B48
S113657003DA4F7000278F7002E05770002797707E
S11365805B1C0370921C891CAD1CDBB2202BDDDB71
S11365900178202980F29183102904DA20238B5575
S11365A08A19002304E00A19202302F8103D00236D
S11365B05370491C0170EBE7A37D0022190016D02B
S11365C0DFF8A407DFF81067185C1D19A3F148076A
S11365D003F16401102BB9BF98558E4605F8100CD1
S11365E0BE46521CD2B29A4284F819E0F2D3DFF8C4
S11365F09C070270102B207FB9BFDFF8DC2698546B
S1136600191901F8100C012056E3DFF8840701780A
S1136610CB3908D0091F06D0891E022903D9C91E07
S113662002290BD90CE01422DFF86817DFF8A8065A
S113663003F09EF91422DFF8601721E0B02005E092
S1136640617F491C6177C9B211B1B120206234E382
S1136650CF21017031E31422DFF83817DFF8780610
S113666003F086F91422DFF8341709E01422DFF866
S11366702417DFF8640603F07BF91422DFF82017EF
S1136680204603F075F918E38CDD01001422DFF8CD
S11366901417DFF8440603F06BF91422DFF8081727
S11366A0204603F065F9DFF8F40301884FF67272AF
S11366B01140018001E30020A076DFF8F0060078A5
S11366C0401E19D0401E032803D9401F042804D9B2
S11366D016E00A22DFF8D81615E00922DFF8D416EE
S11366E011E000BF94E60100A8E60100BCE6010049
S11366F0D0E60100E4E601000B22DFF8BC1602E05C
S11367000922DFF8B816DFF88C03DFF8885303F0AA
S11367101FF9DFF8C415284602F0EFFFDFF8A006E2
S113672000686421B0FBF1F2DFF8D015284603F0CD
S11367307FFC2146284602F0E0FFDFF88806006867
S1136740002800F0BA822120E073B6E21422DFF8B8
S11367507816DFF8840503F00BF91422DFF86C16C1
S1136760204603F005F9A6E2F8E601000CE7010073
S11367700020A076DFF83476DFF854663878C54D0B
S11367800F2800F2A180DFE800F0080B141D2B484D
S1136790515A639F9F6C757E8795DFF8380691E0A8
S11367A00522DFF83416284603F0D2F8DFF82C0669
S11367B088E00A22DFF82816284603F0C9F8DFF833
S11367C024067FE00722DFF82016284603F0C0F8ED
S11367D0DFF8180676E000BF20E7010034E7010087
S11367E00622DFF80C16284603F0B2F8DFF8040698
S11367F0DFF804160068097869B9DFF80016DFF8D5
S1136800EC25096812684843DFF8D815096851185F
S1136810B0FBF1F057E0400855E01022DFF8E01536
S1136820284603F095F8DFF8DC054BE00922DFF891
S11368308C15284603F08CF8DFF8A00542E00B2203
S1136840DFF8C415284603F083F8DFF8C00539E003
S11368501022DFF8BC15284603F07AF8DFF8B405F7
S113686030E00A22DFF8B015284603F071F8DFF8AB
S1136870AC0527E01122DFF8A815284603F068F8D4
S1136880DFF858051EE01022DFF89815284603F0BB
S11368905FF8DFF8940515E00C22DFF89015284620
S11368A003F056F8DFF8880500780CE048E70100AB
S11368B05CE701000D22DFF87C15284603F048F858
S11368C0DFF8740500683060DFF80C14284602F025
S11368D014FF3878012803D10622DFF8601504E09C
S11368E0062806D10622DFF85815284603F030F8AA
S11368F010E0DFF8E81430680968411A11F10A0F52
S1136900B8BF0146DFF83C0501600A46A1A128464C
S113691003F08EFBDFF830753268A0A1384603F02F
S113692087FB3946284603F033FD214602F0E5FE95
S11369307F2020707E20E073BDE11422DFF80C1567
S1136940DFF89403534D03F013F8DFF804050368EC
S1136950DFF800050068191ADFF8E80448BF0021D1
S113696001600A46DFF8F014284603F061FB214673
S1136970284602F0C2FE7F2020707E20E0739AE158
S11369801422DFF8D814DFF85003424D02F0F0FF70
S1136990DFF84813DFF8C8040978006801290AD130
S11369A003F060FBCF4AD04B03F088FB0B46024652
S11369B0DFF8B01460E003F0F9FC0246DFF8A81435
S11369C0284603F035FB5AE01422DFF8A014C2482D
S11369D0DFF8FC6302F0CCFF00203080DFF8901475
S11369E00CE000BF70E7010084E701005A5C1AB1B3
S11369F010187278521C72705A1C32703378052B3E
S1136A00F4DB7178234DB0FBF1F2DFF86804DFF8B2
S1136A1068140260284603F00BFB2146284602F066
S1136A206CFE7F2020707E20E07344E198E7010033
S1136A30ACE70100C0E70100D4E701002C1D0020F1
S1136A401422DFF83814A448124D02F091FFA34930
S1136A50A34809784068012909D103F003FBA14A3E
S1136A60A14B03F02BFB0B460246A04904E003F0C4
S1136A70F9FA0B4602469E49284603F0D9FA214604
S1136A80284602F03AFE7F2020707E20E07312E157
S1136A90E8E7010088190020FCE70100002000203D
S1136AA008E801001422DFF8D8138B48DFF8D45328
S1136AB002F05EFFDFF8D003006803F0D1FBDFF8DB
S1136AC0CC1303F0E7FB03F0CDFA02460B46DFF8E4
S1136AD0C013284603F0ACFA2146284602F00DFE06
S1136AE07F2020707E20E073E5E01422DFF8A413F9
S1136AF07948DFF8905302F03BFFDFF89C0300680D
S1136B0003F0AEFBDFF8841303F0C4FB03F0AAFA2E
S1136B1002460B46DE49284603F08AFA21462846F7
S1136B2002F0EBFD7F2020707E20E073C3E014228E
S1136B30DA496948D34D02F01BFF7A48006803F034
S1136B4091FA02460B467A49284603F071FA214627
S1136B50284602F0D2FD7F2020707E20E073AAE058
S1136B6014E801001422CE495B48C64D02F000FF30
S1136B7094480068002814BF6BA26CA26DA128463B
S1136B8003F056FA91E000BF1CE8010024E801007C
S1136B902CE80100256400003CE801002F25640076
S1136BA04CE8010058E8010064E8010078E80100BD
S1136BB0002020E001201EE002201CE003201AE057
S1136BC0042018E0052016E0062014E0072012E057
S1136BD0082010E009200EE00A200CE00B200AE057
S1136BE00C2008E00D2006E00E2004E00F2002E057
S1136BF0102000E01120FDF7BDFA5EE0364EA949F1
S1136C001422304602F0B4FE6E480068C0F380409F
S1136C1028B1592070736520B0737320F073062275
S1136C20894F394642F6BC3002F0CEFF3879954D93
S1136C307B783A789C490290F8780190B878009073
S1136C40284603F0F5F9002028742146284602F06E
S1136C5054FD7F2020707E20E0732CE01E4E93496B
S1136C601422304602F084FE56480068C0F30050F7
S1136C7028B1592070736520B0737320F073062215
S1136C80714F394642F6C83002F09EFF38797D4D87
S1136C907B783A7884490290F8780190B87800902B
S1136CA0284603F0C5F9002028742146284602F03E
S1136CB024FD7F2020700020A07603B0BDE8F040C2
S1136CC002F0F8B98CE80100A0E80100B4E8010082
S1136CD0C8E80100DCE80100641F0020A7080020C8
S1136CE09807002077D5F270AAE8D03FF0E80100B9
S1136CF000E901000CE901003008002020E901004E
S1136D002CE90100B807002000007A4440E90100A2
S1136D104CE90100601F00200000204160E90100EF
S1136D206CE90100CC200020594553004E4F00006F
S1136D3080E90100257300008CE90100A0E901004D
S1136D40B4E90100C8E90100DCE90100F0E901004F
S1136D5004EA010018EA01002CEA010040EA0100FB
S1136D6054EA010068EA0100041F00207CEA0100E3
S1136D7090EA0100A4EA0100B8EA0100CCEA0100AB
S1136D80E0EA0100F4EA010008EB0100012100201F
S1136D90F91D00201CEB010030EB010044EB010065
S1136DA058EB01006CEB010080EB0100A608002009
S1136DB094EB0100A0EB0100ACEB0100B8EB010087
S1136DC05C200020B8200020C4EB0100D8EB0100B7
S1136DD0C81F0020A81F0020ECEB01002820002081
S1136DE0F4EB01005808002000EC01005C080020CE
S1136DF008EC010060080020092100202C2000205C
S1136E0010EC01006020002020EC01006808002044
S1136E102CEC01006C0800203CEC010084080020EC
S1136E2048EC01005CEC01008C0800206CEC0100D3
S1136E30A808002078EC010070080020D0DB0100D5
S1136E4088EC01001C2000206813002034E70100B6
S1136E50640800206420002090EC010098EC0100FC
S1136E6048200020ACEC0100B8EC0100C0EC0100AB
S1136E70E01F002024200020D4EC0100DCEC010001
S1136E80F0EC0100881900205C1C00200000C842BE
S1136E9004ED01000CED0100601C002020ED010058
S1136EA034ED010054DD01007CDD010068DD0100EA
S1136EB070B588B0FDF724F9DFF8084CE07D0128AF
S1136EC042F0EC800020E075607D032802F2E1804E
S1136ED0DFE810F00400FD007002150F206A401E68
S1136EE0CE2802F2D680DFE810F0EE0FE40FC701DF
S1136EF0E000D410D410D410BC1017021A021D02E2
S1136F0020022302260229022C02D410B00E2F02E2
S1136F1032023502380238023B023E024102440288
S1136F2047024A024D0250025302560259025C02C1
S1136F305F02D410EC00EF00D410D410D4104D0331
S1136F40B81058105A105C105E109810D4100E101F
S1136F50F20FF40FF60FF80FFA0FFC0FFE0F0010EC
S1136F600210FE0F061008100A100C101010121058
S1136F701410161018101A101C101E1020102210B5
S1136F8024102610ED014410461048104A104C10ED
S1136F904E10501052105410E000E000E000E000E9
S1136FA0E000E000E000E000E000E000E000E000DD
S1136FB0E000E000E000E000E000E000E000E000CD
S1136FC0E000E000E000E000E000E000D410D410B5
S1136FD0E900D41017051A05E000E000E000E00025
S1136FE0E000E000E000E000E000D410D410D41091
S1136FF0D410D410D410D410D410D410D410D4106D
S1137000D410D410D410D410D410D410D410D4105C
S1137010D410D410D410D410D410D410D410D4104C
S1137020D410D410D410D410D410D410D410D4103C
S1137030D410E000E000D4106010D410CF00D410BD
S11370407410D410CF00D410D410D410D410D41091
S1137050D410D410AB10AD10D410D4100E0EF60111
S1137060F901FC01FF01020205020802D410C2105A
S1137070F001F301D010D410D410D410D410D410D3
S1137080D410E60FE80FEA0F207F7A2808DA401CB4
S11370902077C0B25C2841F0FC875D2001F0A0BCE1
S11370A001F09D84202001F09BBCA17DDFF8185ADB
S11370B0485D392881F2ED87401CFAE0732001F025
S11370C0E7BF252001F0E4BF262001F0E1BF206ADC
S11370D0CE2801F2DE87DFE810F0EC0ECF00B70F08
S11370E0DC0FE400DC0F1F01DC0F22012501280165
S11370F02B012E0131013401C60FDC0F37013A0197
S11371003D01400143014301460149014C014F0146
S11371105201550158015B015E016101640167017F
S11371206A01DC0FF200B10FDC0FC00FDC0FDC0FC3
S1137130600F620F640F660FA00F1601DC0FFA0ECA
S1137140FC0EFE0E000F020F040F060F0E0F0A0FA7
S11371500C0F0E0F100F120F140F180F1A0F1C0F15
S11371601E0F200F220F240F260F280F2A0F2C0F7B
S11371702E0FF5004C0F4E0F500F520F540F560F99
S1137180580F5A0F5C0F5E0FDC0FE400E400E400BC
S1137190E400E400E400E400E400E400E400E400CB
S11371A0E400E400E400E400E400E400E400E400BB
S11371B0E400E400E400E400E400E400E400DC0FA4
S11371C0EF00DC0F22042504DC0FE400E400E400FB
S11371D0E400E400E400E400E400E400DC0FDC0F7D
S11371E0DC0FDC0FDC0FDC0FDC0FDC0FDC0FDC0F43
S11371F0DC0FDC0FDC0FDC0FDC0FDC0FDC0FDC0F33
S1137200DC0FDC0FDC0FDC0FDC0FDC0FDC0FDC0F22
S1137210DC0FDC0FDC0FDC0FDC0FDC0FDC0FDC0F12
S1137220DC0FDC0FE400E4001901DC0FDC0FD200FA
S11372301C01DC0FDC0FD200DC0FDC0FDC0FDC0FD9
S1137240DC0FDC0FB50FC80FDC0FDC0FFE000101F3
S1137250040107010A010D0110011301DC0FF800FC
S1137260FB00D80FDA0FDC0FDC0FDC0FDC0FDC0FB8
S1137270DC0FF00EF20EF40E022001F009BF207FA5
S11372802128C1F2AC837F2808BF7A2001F0A883AB
S1137290401E2077C0B25C2841F0FB865B2001F0E1
S11372A09FBBA17DDFF82058485D3128C1F2F186EB
S11372B0401E485501F0EDBE742001F0E9BE2620C1
S11372C001F0E6BE4D2001F0E3BEC32001F0E0BEB4
S11372D0C42001F0DDBEBA2001F0DABEBB2001F00B
S11372E0D7BEBC2001F0D4BEBD2001F0D1BEBE206B
S11372F001F0CEBEBF2001F0CBBEC02001F0C8BE5D
S1137300C12001F0C5BE312001F0C2BEA82001F0A9
S1137310BFBEAC2001F0BCBE082001F0B9BE0920FC
S113732001F0B6BE0A2001F0B3BE0B2001F0B0BEDE
S11373300C2001F0ADBE0D2001F0AABE0E2001F01C
S1137340A7BE0F2001F0A4BE122001F0A1BE13209D
S113735001F09EBE142001F09BBE152001F098BEE2
S1137360172001F095BE182001F092BE192001F0FB
S11373708FBE1A2001F08CBE1B2001F089BE1C2098
S113738001F086BE1D2001F083BE1E2001F080BEE8
S11373901F2001F07DBE202001F07ABE212001F0E3
S11373A077BE222001F074BE232001F071BE242098
S11373B001F06EBE206ACF2801F26B86DFE810F080
S11373C0D0007B0DD500E200E500690E0A0C420CEA
S11373D00A0C690E690E690E690E690E690E690E52
S11373E0450C470C4A0C4D0C5F0C620C650C680C88
S11373F0690E730C760C790C7C0C7F0C820C850C5A
S1137400880C690E690E690E690E690EA30D400E93
S1137410EB09690E690EEE09F209340AF50D090E3D
S1137420CC0ADE0A730101010901110119012101CC
S11374302901690E690E690E690E31013901410194
S113744049017B019701B301BB01C301CB01ED01EC
S113745016023F026802910299029C02A502B5023B
S1137460DE020703300359036103690371037903DF
S11374708603B403E10310043F046C049A04690E08
S1137480690E690E690EC804F804260556058805B8
S1137490B905E905150642067006A006CF06FF06E3
S11374A02F075E078D07AE07C507DC07F3070A0839
S11374B040086F089E08CC080B0933095B0985094D
S11374C0AD09690E690E690E690E690E690E690EC1
S11374D0690E690E690E690E690E690E690E690EF0
S11374E0690E690E690E690E690E690E690E690EE0
S11374F0690E690E690E690E690E690E690E690ED0
S1137500690E690E690E690E690E200B550B900AFF
S1137510920A690EE00AAE0AB00A690EE00A690E20
S1137520690E690E690E690E690EA10BA30B570E45
S1137530690EA50BB00BBB0BC60BD10BDC0BE70B19
S1137540F20BFD0B8D0C8F0C950C9B0C9D0C690E96
S1137550690E690E690E690EF500F800FB00FE0065
S1137560002002F035FF01F094BD042020620522C2
S11375700020A075DFF88C1EDFF84C0502F0F8F946
S113758001F087BD282001F083BDA17D0329C1F24C
S11375906F82DFF8741EDFF8300502F09FFF0028C9
S11375A014BF0520262001F073BDD02001F070BD6A
S11375B0D12001F06DBDD22001F06ABDD32001F0CD
S11375C067BDDFF8480E006801F076FF592001F02E
S11375D05FBDDFF83C0E006801F06EFF5A2001F039
S11375E057BDDFF8300E006801F066FF5B2001F044
S11375F04FBDDFF8240E006801F05EFF5C2001F04F
S113760047BDDFF8180E006801F056FF5D2001F059
S11376103FBDDFF80C0E006801F04EFF5E2001F064
S113762037BDDFF8000E006801F046FF632001F06B
S11376302FBDDFF8F40D006801F03EFF642001F077
S113764027BDDFF8E80D006801F036FF652001F082
S11376501FBDDFF8DC0DDFF8705400680A21B0FBB1
S1137660F1F101EB8103A0EB43023032EA702E22E8
S1137670AA700A22B1FBF2F202EB8203A1EB4301EE
S1137680303169706421B0FBF1F00A21B0FBF1F1F3
S113769001EB8102A0EB4200303028700020A0757D
S11376A0662001F0F5BCDFF88C0D006801F004FFE2
S11376B0582001F0EDBCDFF8800DDFF80C540068B1
S11376C00A21B0FBF1F101EB810230316970A0EBCA
S11376D0420264213032B0FBF1F0EA70303028709D
S11376E02E22AA700020A075672001F0D1BCDFF81B
S11376F04C0DDFF8D45300680A21B0FBF1F101EB23
S1137700810230316970A0EB420264213032B0FB57
S1137710F1F0EA70303028702E22AA700020A07593
S1137720682001F0B5BCDFF8880E006801F0C4FEE3
S1137730692001F0ADBCDFF87C0E006801F0BCFEEE
S11377406A2001F0A5BCDFF8700E006801F0B4FEF9
S11377506B2001F09DBCDFF8640EDB4D00680A214C
S1137760B0FBF1F101EB8103A0EB43023032EA708C
S11377700A22B1FBF2F202EB8203A1EB43013031A6
S1137780A9702E2169706421B0FBF1F030302870AB
S11377900020A0756C2001F07BBCDFF8240ECA4DDC
S11377A000680A21B0FBF1F101EB8103A0EB430275
S11377B03032EA700A22B1FBF2F202EB8203A1EB4F
S11377C043013031A9702E2169706421B0FBF1F0BE
S11377D00A21B0FBF1F101EB8102A0EB4200303051
S11377E028700020A0756D2001F052BCDFF8D40D84
S11377F0B54D00680A21B0FBF1F101EB8103A0EB68
S113780043023032EA702E22AA700A22B1FBF2F24D
S113781002EB8203A1EB4301303169706421B0FBB8
S1137820F1F00A21B0FBF1F101EB8102A0EB42007F
S1137830303028700020A0756E2001F029BCDFF8DC
S1137840880DA14D00680A21B0FBF1F101EB810321
S1137850A0EB43023032EA702E22AA700A22B1FB56
S1137860F2F202EB8203A1EB43013031697064212F
S1137870B0FBF1F00A21B0FBF1F101EB8102A0EBC6
S11378804200303028700020A0756F2001F000BC49
S1137890DFF8380D8C4D00680A21B0FBF1F101EBE3
S11378A08103A0EB43023032EA700A22B1FBF2F208
S11378B002EB8203A1EB43013031A9702E216970E0
S11378C06421B0FBF1F00A21B0FBF1F101EB81027C
S11378D0A0EB4200303028700020A075702001F029
S11378E0D7BBDFF8940E806801F0E6FD712001F04B
S11378F0CFBB722001F0CCBBDFF8800E00780028EB
S113790014BF7420732001F0C3BBDFF8740E007839
S1137910012804D0022805D0752001F0B9BB7620D7
S113792001F0B6BB772001F0B3BBDFF8580E664D0B
S113793000680A21B0FBF1F101EB8103A0EB4302E3
S11379403032EA700A22B1FBF2F202EB8203A1EBBD
S113795043013031A9702E2169706421B0FBF1F02C
S11379600A21B0FBF1F101EB8102A0EB42003030BF
S113797028700020A075782001F08ABBDFF8080E7B
S1137980514D00680A21B0FBF1F101EB8103A0EB3A
S113799043023032EA700A22B1FBF2F202EB8203B4
S11379A0A1EB43013031A9702E2169706421B0FB31
S11379B0F1F00A21B0FBF1F101EB8102A0EB4200EE
S11379C0303028700020A075792001F061BBDFF809
S11379D0BC0D3D4D00680A21B0FBF1F101EB8103C0
S11379E0A0EB43023032EA700A22B1FBF2F202EB5E
S11379F08203A1EB43013031A9702E216970642107
S1137A00B0FBF1F00A21B0FBF1F101EB8102A0EB34
S1137A104200303028700020A0757A2001F038BB75
S1137A20DFF8A40E284D00680A21B0FBF1F101EB48
S1137A308103A0EB43023032EA700A22B1FBF2F276
S1137A4002EB8203A1EB43013031A9702E2169704E
S1137A506421B0FBF1F00A21B0FBF1F101EB8102EA
S1137A60A0EB4200303028700020A0757B2001F08C
S1137A700FBBDFF8580E006801F01EFD7C2001F0FA
S1137A8007BBDFF84C0E006801F016FD7D2001F005
S1137A90FFBADFF8400E006801F00EFD7E2001F011
S1137AA0F7BADFF8340E006801F006FD7F2001F01C
S1137AB0EFBADFF8280E006801F0FEFC802001F028
S1137AC0E7BA00BFE01E0020041F0020A17D0329A7
S1137AD0C0F2CE87DFF8945EE878A9786B782A78CC
S1137AE0DFF88C6E02EB820503EB450202EB8203A6
S1137AF001EB430101EB810200EB4200DFF8741E4D
S1137B00081841F28931884230600AD2DFF824191A
S1137B1008600222DFF8601E086040F2191000F0CD
S1137B201FBE812001F0B4BAA17D0329C0F2A08751
S1137B30DFF8385EE878A9786B782A78DFF8306E59
S1137B4002EB820503EB450202EB820301EB4301E6
S1137B5001EB810200EB4200DFF8181E0818811EB9
S1137B601D2930600AD2DFF8A41808600122DFF86A
S1137B70081E08604FF4817000F0F2BD822001F00D
S1137B8087BAA17D0329C0F27387DFF8E05DE87846
S1137B90A9786B782A78DFF8D86D02EB820503EBBD
S1137BA0450202EB820301EB430101EB810200EB8E
S1137BB04200DFF8C01D0818A0F10A01B1F5F57FF5
S1137BC030600AD8DFF8481808600222DFF8A81DE0
S1137BD0086040F2031000F0C3BD832001F058BADE
S1137BE0A17D0329C0F24487DFF8805DE878A97895
S1137BF06B782A78DFF8786D02EB820503EB450297
S1137C0002EB820301EB430101EB810200EB420032
S1137C10DFF8601D0818A0F10A01B1F5F57F3060A6
S1137C200AD8DFF8F01708600222DFF84C1D08605C
S1137C3040F2051000F094BD842001F029BAA17D22
S1137C400329C0F21587DFF8245DE878A9786B78FA
S1137C502A78DFF81C6D02EB820503EB450202EB88
S1137C60820301EB430101EB810200EB4200DFF8E8
S1137C70041D0818B0F5FA7F30600AD8DFF89817A9
S1137C8008600222DFF8F01C086040F2071000F0E0
S1137C9067BD852001F0FCB9A17D0329C0F2E88607
S1137CA0DFF8C85CE878A9786B782A78DFF8C06CCC
S1137CB002EB820503EB450202EB820301EB430175
S1137CC001EB810200EB4200DFF8A81C08183060C9
S1137CD00DD0B0F5FA6F0AD8DFF840170860022219
S1137CE0DFF8941C086040F2091000F039BD8620CA
S1137CF001F0CEB9A17D0329C0F2BA86DFF86C5C2D
S1137D00E878A9786B782A78DFF8646C02EB82054E
S1137D1003EB450202EB820301EB430101EB810219
S1137D2000EB4200DFF84C1C081830600DD0B0F5B1
S1137D30FA6F0AD8DFF8E81608600222DFF8381C68
S1137D40086040F20B1000F00BBD872001F0A0B9D1
S1137D50A17D0329C0F28C86DFF8105CE878A9784D
S1137D606B782A78DFF8086C02EB820503EB450296
S1137D7002EB820301EB430101EB810200EB4200C1
S1137D80DFF8F01B40F6DF520818A0F132019142EF
S1137D9030600AD2DFF88C1608600222DFF8D81BA4
S1137DA0086040F2131000F0DBBC8C2001F070B9C5
S1137DB0A17D0329C0F25C86DFF8B05BE878A9787E
S1137DC06B782A78DFF8A86B02EB820503EB450297
S1137DD002EB820301EB430101EB810200EB420061
S1137DE0DFF8901B0818A0F10A01472930600AD275
S1137DF0DFF8341608600122DFF87C1B086040F2CB
S1137E00151000F0ADBC8D2001F042B9A17D03290D
S1137E10C0F22E86DFF8545BE878A9786B782A786C
S1137E20DFF84C6B02EB820503EB450202EB8203A5
S1137E3001EB430101EB810200EB4200DFF8341B4C
S1137E4040F6F3520818A0F11E01914230600AD2A4
S1137E50DFF8D81508600222DFF81C1B08604FF415
S1137E608B7000F07DBC8E2001F012B9A17D032936
S1137E7008DA481CA075C0B2022841F00A81032028
S1137E8000F0F7BDDFF8E45ADFF8E46A2A786B788B
S1137E90A2F1300000EB8001A3F1300000EB4102BD
S1137EA0E878303802EB820100EB4100B0F5617FE5
S1137EB030600AD8DFF8781508600122DFF8B81AB4
S1137EC008604FF48C7000F04BBC8F2001F0E0B8D8
S1137ED0A17D032908DA481CA075C0B2022841F02C
S1137EE0D880032000F0C5BDDFF8805ADFF8806A2F
S1137EF02A786B78A2F1300000EB8001A3F1300006
S1137F0000EB4102E878303802EB820100EB4100DB
S1137F10652830600AD2DFF8201508600122DFF8F6
S1137F20581A086040F21B1000F01ABC902001F0AF
S1137F30AFB8A17D032908DA481CA075C0B2022895
S1137F4041F0A780032000F094BDDFF8205ADFF849
S1137F50206A2A786B78A2F1300000EB8001A3F14B
S1137F60300000EB4102E878303802EB820100EB8C
S1137F7041006528306009D2DFF8C014086001228E
S1137F80DFF8F41908604FF48E70E9E3912001F0F2
S1137F907FB8A17D0329C0F26B85DFF8D059E8785A
S1137FA0A9786B782A78DFF8C86902EB820503EBBD
S1137FB0450202EB820301EB430101EB810200EB7A
S1137FC04200DFF8B0190818B0F5FA6F306009D82C
S1137FD0DFF8DC1508600222DFF89C19086040F223
S1137FE01D10BDE3922001F053B8A17D0329C0F216
S1137FF03F85DFF87859E878A9786B782A78DFF834
S1138000706902EB820503EB450202EB820301EB8C
S1138010430101EB810200EB4200DFF85819081814
S1138020A0F114012929306009D2DFF8881508600D
S11380300122DFF84419086040F21F1090E39320F6
S113804001F026B8A17D0329C0F21285DFF81C597E
S1138050E878A9786B782A78DFF8146902EB82054E
S113806003EB450202EB820301EB430101EB8102C6
S113807000EB4200DFF8FC1840F69C720818411F20
S11380809142306009D2DFF8301508600222DFF82F
S1138090E81808604FF4907062E3942000F0F8BF91
S11380A0A17D032908DA481CA075C0B2012840F05C
S11380B0F087022000F0DDBCDFF8B058DFF8B068CC
S11380C02A78A978E878303A303902EB820301EB58
S11380D04301303801EB810200EB4200A0F11901A9
S11380E0B029306009D2DFF8D41408600222DFF826
S11380F08818086040F2231032E3952000F0C8BFCE
S1138100A17D032908DA481CA075C0B2012840F0FB
S1138110C087022000F0ADBCDFF85058DFF850688B
S11381202A78A978E878303A303902EB820301EBF7
S11381304301303801EB810200EB4200B0F57A7F55
S1138140306009D2DFF8781408600222DFF82818BA
S1138150086040F2251003E3962000F099BFA17D4A
S1138160032908DA481CA075C0B2022840F09187A0
S1138170032000F07EBCDFF8F457DFF8F4672A78B8
S11381806B78A2F1300000EB8001A3F1300000EB2A
S11381904102E878303802EB820100EB4100792893
S11381A0306009D2DFF81C1408600222DFF8C81717
S11381B0086040F22B10D3E2972000F069BFA17D44
S11381C0032908DA481CA075C0B2022840F0618770
S11381D0032000F04EBCDFF89457DFF894672A7848
S11381E06B78A2F1300000EB8001A3F1300000EBCA
S11381F04102E878303802EB820100EB4100792833
S1138200306009D2DFF8C01308600222DFF8681773
S1138210086040F22D10A3E2982000F039BFA17D40
S1138220032908DA481CA075C0B2012840F0318740
S1138230022000F01EBCDFF83457DFF834672A78D8
S1138240A978E878303A303902EB820301EB430134
S1138250303801EB810200EB4200A0F13201972992
S1138260306008D2D94908600222DFF80C17086090
S113827040F2311074E2992000F00ABFA17D032975
S1138280C0F2F683DFF8E456E878A9786B782A78A8
S1138290DFF8DC6602EB820503EB450202EB8203A6
S11382A001EB430101EB810200EB4200DFF8C4164D
S11382B040F2C7720818A0F10A019142306009D255
S11382C0DFF8B41488600222DFF8AC16086040F2CC
S11382D0371045E29A2000F0DBBE1422DFF8C01DFF
S11382E0DFF8C00D01F044FB1422DFF8BC1D20466A
S11382F001F03EFB00F0DEFE02F012F91422DFF87A
S1138300AC1D204601F034FB00F0D4FE04F0D2FE94
S1138310022005F0B4F94C2000F0BABEDFF85C147A
S1138320002008700122DFF85016087040F239105E
S113833001F002FC1422DFF8781D204601F018FB3E
S113834000F0B8FE012000F065BEDFF83014012013
S113835008700122DFF82016087040F2391001F08D
S1138360EBFB1422DFF8481D204601F001FB00F06E
S1138370A1FE012000F04EBEDFF8041400200870B6
S11383800122DFF8F41508704FF49F7001F0D4FB5C
S11383901422DFF81C1D204601F0EAFA00F08AFEE0
S11383A0012000F037BEDFF8D81301200870012245
S11383B0DFF8C41508704FF49F7001F0BDFB142260
S11383C0DFF8EC1C204601F0D3FA00F073FE012024
S11383D000F020BEDFF8A813022008700122DFF8A5
S11383E0981508704FF49F7001F0A6FB1422DFF873
S11383F0C01C204601F0BCFA00F05CFE012000F035
S113840009BE00BF48ED0100B81D00205808002037
S11384105C0800206008002060200020680800201C
S11384206C08002084080020880800208C080020A4
S1138430780800207C080020480800204C08002010
S1138440A17D032907DA481CA075C0B2012840F0B9
S1138450208602200DE3DFF81455DFF814652A782E
S1138460A978E878303A303902EB820301EB430112
S1138470303801EB810200EB4200A0F13201B1F58A
S1138480077F306008D8BF4908600222DFF8E8148B
S113849008604FF4A07063E19B2000F0F9BDA17D5A
S11384A0032907DA481CA075C0B2012840F0F18501
S11384B00220DEE2DFF8B454DFF8B4642A78A97845
S11384C0E878303A303902EB820301EB430130386B
S11384D001EB810200EB4200A0F13201B1F5077F0C
S11384E0306008D8A84908600222DFF88C140860BC
S11384F04FF4A17034E19C2000F0CABDA17D032992
S113850007DA481CA075C0B2012840F0C2850220D9
S1138510AFE2DFF85854DFF858642A78A978E8788D
S1138520303A303902EB820301EB4301303801EB7E
S1138530810240F24F2100EB42008842306008D2B1
S1138540924908600222DFF8301408604FF4A270E8
S113855006E19D2000F09CBDA17D032907DA481C9B
S1138560A075C0B2012840F09485022081E2DFF8B2
S1138570FC53DFF8FC632A78A978E878303A30397C
S113858002EB820301EB4301303801EB810200EB83
S11385904200A0F13201B1F5077F306018D8CA4912
S11385A008600222DFF8D01308604FF4A370D7E00C
S11385B0640800205408002080080020900800204F
S11385C09408002094200020982000209C20002063
S11385D09E2000F05DBDA17D0329C0F24982E34DD8
S11385E0E878A9786B782A78E14E02EB820503EBF0
S11385F0450202EB820301EB430101EB810200EB34
S11386004200DC49081842F210718842306007D2F7
S1138610AE4908600222D84908604FF4A4709FE074
S11386209F2000F035BDA17D0329C0F22182CF4DEA
S1138630E878A9786B782A78CD4E02EB820503EBB3
S1138640450202EB820301EB430101EB810200EBE3
S11386504200C849081842F210718842306007D2BB
S11386609B4908600222C44908604FF4A57077E072
S1138670A02000F00DBDA17D0329C0F2F981BB4DFE
S1138680E878A9786B782A78B94E02EB820503EB77
S1138690450202EB820301EB430101EB810200EB93
S11386A04200B44940F2B7320818A0F132019142B5
S11386B0306007D2874908600222AF49086040F25F
S11386C04D104DE0A12000F0E3BCA17D0329C0F2D0
S11386D0CF81A64DE878A9786B782A78A44E02EB6E
S11386E0820503EB450202EB820301EB430101EB3C
S11386F0810200EB42009F49081840F63811884275
S1138700306007D27449086002229B49086040F235
S11387104F1025E0A22000F0BBBCA17D0329C0F2CC
S1138720A781924DE878A9786B782A78904E02EB6D
S1138730820503EB450202EB820301EB430101EBEB
S1138740810200EB42008B490818411F1A2930604E
S11387501ED26249086001228749086040F2511024
S113876001F0EAF91422DFF80C1C204601F000F9AC
S113877000F0A0FC00F08DBC98070020A7080020A2
S113878016210020782000207C200020802000205A
S1138790A32000F07DBC292000F07ABC01F05CFE2F
S11387A000F077BC84B0DFF8D01B68462C2201F0BF
S11387B0DFF80FBC05F02AF8DFF89C2CDFF8BC1BAF
S11387C012686A4D10180860084605F009F9DFF8C8
S11387D0B01B08600A224169643941610169491C7E
S11387E00161816891FBF2F130312970816891FB5C
S11387F0F2F202EB8203A1EB4301303169700A22E9
S1138800416891FBF2F13031A9700A21406890FB74
S1138810F1F101EB8102A0EB42003030E87000205E
S1138820A075A52000F034BC84B0DFF84C1B68466A
S11388302C2201F09DF80FBC04F0E8FFDFF8182C9F
S1138840DFF8381B1268494D10180860084605F017
S1138850C7F8DFF82C1B086002694169521C6439AF
S1138860026141610A2291FBF2F1303129704169C0
S113887091FBF2F202EB8203A1EB43013031697008
S11388800A22016991FBF2F13031A970016991FB6F
S1138890F2F202EB8203A1EB43013031E9700A22C8
S11388A0C16891FBF2F1303129710A21C06890FB53
S11388B0F1F101EB8102A0EB42003030687100203D
S11388C0A075A620E4E300BF8420002070080020E7
S11388D074080020882000208C2000209020002094
S11388E0A920D5E3DFF8C05BDFF8B80714222946D6
S11388F001F03EF814222946204601F039F8D0A0B0
S1138900DFF8A81B02780A707F2020770120A07668
S1138910642060760020A075AA20B9E3AD20B7E3F7
S1138920DFF8845BDFF87C071422294601F020F885
S113893014222946204601F01BF8C1A0DFF86C1B65
S113894002780A707F2020770120A0766420607668
S11389500020A075AE209BE3DFF8581BCF200870E1
S1138960AF2020620020607793E300BF041F002043
S113897024200020B02FFFFFC81F0020B22087E36F
S1138980207FA17D7F282DD1012919D1DFF8185B23
S1138990DFF810071422294600F0EAFF14222946C2
S11389A0204600F0E5FFA6A0DFF8001B02780A705D
S11389B07F2020770120A07664206076002058E094
S11389C0002900F0668320202077FBF7A9FCA07D16
S11389D0DFF8482B401EA0750021C0B281547F20CF
S11389E0207756E3DFF8345B48557F202029207731
S11389F080F24F83481CA0750021C0B2415548E362
S1138A00A17D032934DBDFF8145BDFF8146B2A78CB
S1138A106B78A2F1300000EB8001A3F1300000EB91
S1138A204102182A32601ED2DFF8F83A1A60A97897
S1138A30E8783039303801EB810200EB42013C29FF
S1138A4031600ED2DFF8E00A1A688161C261002148
S1138A5041610020DFF8001A08600120DFF8CC1A19
S1138A6049E0B32014E3B32012E3A17D062902DA1E
S1138A70481CA0750DE3DFF8A45ADFF8A46A2A782D
S1138A806B78A2F1300000EB8001A3F1300000EB21
S1138A904102112A326032D3A87800EB8001E878D1
S1138AA000EB4100A0F11001287900EB8003687904
S1138AB000EB43001038D2B2C9B2C0B200F082FD5C
S1138AC001281AD1DFF8600A31688162A97801EBC4
S1138AD08102E97801EB4201A1F50471416229792F
S1138AE001EB8102697901EB4201A1F50471016294
S1138AF00120DFF83C1A0870CBE2B420C8E2B420AD
S1138B00C6E2B820C4E2B920C2E2DFF8280A01882C
S1138B10CA0758BF41F001015AD54FF6FE7256E01C
S1138B20DFF8100A01888A0758BF41F002014FD5C7
S1138B304FF6FD724BE0DFF8FC0901884A0758BF85
S1138B4041F0040144D54FF6FB7240E0DFF8E4093C
S1138B5001880A0758BF41F0080139D54FF6F7726A
S1138B6035E0DFF8D0090188CA0658BF41F010018A
S1138B702ED54FF6EF722AE0DFF8B80901888A068D
S1138B8058BF41F0200123D54FF6DF721FE0DFF814
S1138B90A40901884A0658BF41F0400118D54FF690
S1138BA0BF7214E0DFF88C0901880A0658BF41F04F
S1138BB080010DD54FF67F7209E0DFF8780901884E
S1138BC0CA0558BF41F4807102D54FF6FF621140C7
S1138BD001805EE2DFF860090178012940F05982E2
S1138BE0062101700020DFF85419DFF85449DFF83A
