S0390000736B2D666D332D3438706D632D757362737469636B5F7573625F6465766963655F7669727475616C5F636F6D5F706F72742E73726563CC
S113000080E3FF1F29100000451000004910000084
S11300104D100000511000005510000000000000B9
S11300200000000000000000000000005910000063
S11300305D10000000000000611000006510000069
S1130040691000006D1000007110000075100000B0
S1130050791000007D100000811000008510000060
S1130060891000008D10000091100000DD100000C8
S1130070DD1000009510000099100000DD10000054
S1130080DD1000009D100000A1100000DD10000034
S1130090DD100000DD100000DD100000A5100000E0
S11300A0A9100000AD100000B1100000DD10000028
S11300B0B5100000B9100000BD100000C110000010
S11300C0DD100000DD100000C5100000C9100000A4
S11300D0DD100000DD100000CD100000D110000084
S11300E0D5100000D9100000DD100000DD10000064
S11300F0DD100000DD100000DD100000DD10000048
S1130100DFF8D004016821F480410160DFF8C814ED
S11301100A6842F480420A60DFF8C0140A6822F4D4
S113012080420A60026822F480520260DFF8A02450
S1130130136843F4805313600B6843F480530B60DB
S1130140036823F400530360136843F400531360FB
S11301500B6843F400530B60036823F4806303606B
S1130160136843F4806313600B6843F480630B608B
S1130170036823F400630360136843F400631360AB
S11301800B6843F400630B60036823F4007303609B
S1130190106840F400701060086840F40070086053
S11301A0106840F400601060106840F40070106043
S11301B070472DE9F041044600250826DFF8208425
S11301C0DFF80C74386820F4805038603868C00454
S11301D0FCD4200638684CBF40F4005020F4005092
S11301E0386064001420C046C046D8F800006D0092
S11301F0400448BF45F00105386840F48050386039
S11302003868C004FCD54620C046C046761ED9D105
S1130210E8B2BDE8F0812DE9F04104464FF40470E2
S11302200D46B4FBF0F716465321384600F06AF940
S113023030194FF40471B0FBF1F8474503D0552150
S1130240404600F05FF933462A462146012000F07B
S113025074F83946832000F037F9474504D0414605
S1130260BDE8F04186202FE1BDE8F081F8B5D84F14
S11302700446386820F4806038600D461646322003
S1130280C046C0462046FFF794FF36B1FF20FFF773
S113029090FF761E05F8010BF8D1386840F48060B1
S11302A038604FF4FA70BDE8F24000F09BB92DE9D4
S11302B0F04182B004468846164601226946D7209A
S11302C0FFF7D4FF9DF800000006F6D5C04F38684C
S11302D020F4806038603220C046C0460B20FFF70F
S11302E068FF4FF40470B4FBF0F5A804000EFFF7A8
S11302F060FF05EB4510A4EB0010000A40EA8500FE
S1130300C0B2FFF756FFA4EB0510C0B2FFF751FFD0
S1130310FF20FFF74EFF36B1FF20FFF74AFF761E9E
S113032008F8010BF8D1386840F4806038604FF465
S1130330FA70C046C046BDE8F3812DE9F14F9046FE
S113034000284FF40470B1FBF0F000EB4012994622
S11303500CBFD4258425A1EB0216DFF884A29C4CA3
S1130360B9F1000F00F09780206820F480602060CD
S11303703220C046C046D720FFF71BFFFF20FFF7FF
S113038018FF0746206840F4806020604FF4FA703C
S1130390C046C0463806E7D5206820F48060206057
S11303A03220C046C0462846FFF703FFFF20FFF770
S11303B000FF3004000EFFF7FCFEF0B2FFF7F9FE79
S11303C0D42D12BFD62DFF20FFF7F3FE009868BB93
S11303D0FF2500274FF0080B206820F48050206090
S11303E02068C004FCD4280620684CBF40F40050A8
S11303F020F4005020606D001420C046C046DAF896
S113040000007F00400448BF47F00107206840F423
S1130410805020602068C004FCD54620C046C046F9
S1130420BBF1010BD8D188F8007023E098F8005094
S11304300827206820F4805020602068C004FCD481
S1130440280620684CBF40F4005020F4005020607F
S11304506D001420C046C046DAF80000206840F45D
S1130460805020602068C004FCD54620C046C046A9
S11304707F1EDED1761C4FF40470B6FBF0F000EB67
S11304804011B6EB0110A9F1010908F101080CD0E3
S1130490B9F1000F9AD1206840F4806020604FF4D5
S11304A0FA70BDE8F24F00F09DB8206840F4806017
S11304B0206000264FF4FA70C046C0460098002819
S11304C014BF8725D6254BE770B582B004460D4688
S11304D001226946D720FFF7C9FE9DF800000006F7
S11304E0F6D53B4E306820F4806030603220C04640
S11304F0C0462046FFF75DFEA804000EFFF759FE34
S1130500A8001CE070B582B004460D46012269467D
S1130510D720FFF7ABFE9DF800000006F6D52C4E61
S1130520306820F4806030603220C046C0462846DF
S1130530FFF73FFEA004000EFFF73BFEA000C0B291
S1130540FFF737FEFF20FFF734FE306840F4806089
S113055030604FF4FA70C046C04673BD38B51C4CC9
S1130560206820F4806020604FF6DC752846C04681
S1130570C0462846C046C0462846C046C04628460F
S1130580C046C0462846C046C0462846C046C04667
S11305909F20FFF70EFEFF20FFF70BFE1F280AD156
S11305A0FF20FFF706FE262805D1FF20FFF701FEF6
S11305B008B9002500E0FF25206840F48060206031
S11305C04FF4FA70C046C046284632BD0000000011
S11305D01034034010300340103103401032034004
S11305E010330340704730B142F6310100BF491E59
S11305F0FCD1401EF8D1704770B58F4D06002868B5
S113060040F040000C4628600FD02046FFF7EBFF77
S1130610286820F0400028602046FFF7E4FF28689F
S113062040F04000761E2860EFD170BD30B585B033
S113063000F008F9824CE06820F40070E060C82102
S1130640E06820F48060E060E06820F40060E0602E
S1130650E06820F48050E060E06820F40050E0603E
S11306606068400840006060206820F0020020605C
S1130670206820F004002060606820F008006060BA
S1130680206940F0800020610120FFF7B5FF4FF49E
S11306907A70FFF7A8FFFFF761FF48B14FF480407D
S11306A0016881F30888654A106040688047FEE766
S11306B001226946FFF7FBFD9DF8000088B1C821BF
S11306C00220FFF799FF4FF47A70FFF78CFF4FF485
S11306D08040016881F30888584A10604068804768
S11306E0FEE7C8210320FFF787FF40F6B835284608
S11306F0FFF779FF00F0F8F878B9C8210420FFF774
S11307007BFF2846FFF76FFF00F0FCF8C8210520A7
S1130710FFF772FF2846FFF766FF00F0E5F80128AF
S11307207AD1C8210620FFF767FF2846FFF75BFF51
S1130730FFF714FF48B14FF48040016881F3088843
S11307403E4A106040688047FEE7C8210720FFF753
S113075053FF2846FFF747FF012269460020FFF7B1
S1130760A6FD9DF80000002846D1C8210820FFF707
S113077043FF2846FFF737FF00F0DCF878B9C820BC
S1130780FFF731FF206920F0400020614FF4FA6048
S1130790FFF729FF206940F040002061EFE7FF20C8
S11307A08DF80000012269460020FFF734FD20691E
S11307B040F0400020610A254FF47A70FFF713FFE0
S11307C0206920F0400020614FF47A70FFF70BFF9E
S11307D0206940F040006D1E2061EDD141F2883067
S11307E0FFF701FF4FF48040016881F30888134A42
S11307F0106040688047FEE7C820FFF7F4FE2069D8
S113080020F04000206141F28830FFF7ECFE2069BF
S113081040F040002061EFE74FF47A710520FFF7C4
S1130820EBFE4FF48040016881F30888034A1060AE
S113083040688047FEE700001034034008ED00E004
S11308400034034080B500F017F90948016821F02D
S1130850C00101600748016821F0C0010160064839
S1130860016841F0C0010160BDE80140FFF748BCE8
S1130870103003401034034010320340DFF800F01E
S113088005E0FF1FDFF800F0C1E0FF1F30B142F6C2
S1130890310100BF491EFCD1401EF8D17047704A97
S11308A0136843F040031360E8B141B10B4642F6CC
S11308B0310C00BFBCF1010CFBD15B1EF7D11368F6
S11308C023F04003136041B10B4642F6310C00BFE4
S11308D0BCF1010CFBD15B1EF7D1136843F040035C
S11308E0401E1360E1D170474FF4804050F8041B60
S11308F011F1010F01D000207047B0F5003FF5D38E
S11309000120704780B572B600214FF48040FFF794
S1130910B5FF002144F20400FFF7B0FF00214FF4BB
S11309200040FFF7ABFF002148F20400FFF7A6FFE9
S113093062B601BD2DE9F04F83B000208DF80800A8
S11309406426DFF82081DFF820B1484F444C20684A
S113095080F0400020600A20FFF745FE02A93846D7
S113096000F04CF9814619F1010F0FD19DF80800F0
S113097028BBB046206880F0800020606420FFF728
S113098032FEB8F10108F5D1012071E019F1060F2A
S113099004BF9DF80800002811D1206840F04000F1
S11309A0206040F6B8342046FFF770FFC8210920C4
S11309B0FFF775FF2046FFF769FF002058E00A2083
S11309C000900098704300900098411E009140B13F
S11309D00A200190019800281CBF0198401EF8D1FC
S11309E0F2E772B60025A9F5804A04E0E95BFFF757
S11309F049FFAD1CEDB29DF80800854208DADA45DE
S1130A00F7D205EB090040452CBF01220022EDE797
S1130A100A2000900098704300900098411E0091B5
S1130A2040B10A200190019800281CBF0198401E83
S1130A30F8D1F2E762B60A20009000987043009063
S1130A400098411E002800913FF481AF0A2001E084
S1130A500198401E019001980028F9D1F0E70000A8
S1130A601034034000000C2005D00F0080E3FF1F6A
S1130A7003B0BDE8F08F000010B44448444A016854
S1130A80444C1140016044490B681A400A60434ACF
S1130A90136843F41C4343F01F03136000232360D3
S1130AA044683F4B1C4044604C6823404B6040F218
S1130AB0BF34536823435360836823F00E03836079
S1130AC08B6823F00E038B60936843F00E039360EE
S1130AD0C468344B1C40C460CC682340CB60D368EA
S1130AE043F47E4343F00803D3602F4B1C6804F0A7
S1130AF0FE041C602D4B04691C4004610C692340F6
S1130B000B61136943F4FC4343F0C003136143696D
S1130B109B089B0043614B699B089B004B61536995
S1130B2043F0030353618369DB08DB0083618B6952
S1130B30DB08DB008B61936943F007039361036A6D
S1130B409B089B0003620B6A9B089B000B62116A63
S1130B5041F003011162C168C908C900C1601449A8
S1130B600B6843F007030B60D368DB08DB00D3603A
S1130B70436923F004034361886840F004008860FB
S1130B80506920F00400506110BC704700300340ED
S1130B90E063FFFF003503400034034000320340AC
S1130BA040FCFFFFF701FFFF803503403F81FFFF5B
S1130BB00C31034002780021A2F1300CBCF10A0F81
S1130BC03CBF1101C9B2A2F14103062B03D2373A4B
S1130BD001EB0211C9B24078A0F130030A2B02D212
S1130BE041183039C9B2A0F14102062A03D2401893
S1130BF0A0F13701C9B20846704700002DE9F04D55
S1130C000D4682B00026804600270024B346B24633
S1130C102E7006E06846FFF7CDFFC01B841E2C70C3
S1130C2002260020ADF8000002223648006869461A
S1130C30FFF73DFB334833490068801C08609DF88A
S1130C400000FF280AD19DF80100FF280CD10020E4
S1130C5028704FF0FF3B5846BDE8F68D0D2804BFC1
S1130C609DF801000A28F6D0F6B28EB1072E05DAF7
S1130C706846FFF79FFF50445FFA80FA072ED0D8EA
S1130C80DFE806F00605161818182633C9E7C1E789
S1130C909DF80000532805D19DF80100A0F130070C
S1130CA0FFB201260FB1042FBBDB00270026B8E7F3
S1130CB04FF0000B6846FFF77DFFB91B891CC90084
S1130CC088408344B81B801C08BF0526761CA8E70F
S1130CD0641EE4B204B907266846FFF76BFF88F880
S1130CE00000002008F8010F9BE76846FFF762FF49
S1130CF080F0FF00504594D0002028706FF005006C
S1130D00BDE8F68D00E0FF1F604E00001CB4002219
S1130D10009211B1012913D04DE04FF080421368C5
S1130D2003F0FD031360136843F001031360AA2367
S1130D301268019241F25052138040F6A82308E051
S1130D401E4A00231360AA23126801921C4A1380CE
S1130D501C4B55241C8080241480AA241480552202
S1130D601A803022028002881207FCD5009A5AB9F0
S1130D700288920644BF4FF0FF32009202881206A6
S1130D80F4D501220092F1E711B1012910D012E04B
S1130D904FF080424FF6FE711068084010601068F2
S1130DA040F00200106010680190009816BC704773
S1130DB0024A0120F6E716BC61E0000000000E20A4
S1130DC0A80A0C2054050C203CB40023009312B153
S1130DD0012A15D052E04FF080434FF6FD751C6890
S1130DE02C401C6040F6A8251C6844F001041C60DB
S1130DF0AA241B68019341F250531C80552409E036
S1130E001B4B1C4D00241C60AA241B6801931A4B25
S1130E101C8055242C8001F08005A0241C800180B6
S1130E204FF0FF330AE00488A40648BF0093048807
S1130E3004F08004AC4204BF01240094009C002C04
S1130E40F1D012B1012A10D018E04FF080434FF6D0
S1130E50FE71186808401860186840F002001860B5
S1130E6018680190009836BC7047014B0120F6E7E2
S1130E7000000E2054050C20A80A0C2036BC6FF08C
S1130E8001007047244825490160832224490160F8
S1130E9000202449087000211E48017401210175B5
S1130EA081210176017720490A7000220A725C22AE
S1130EB00A74027842F00202027002799207FCD5A9
S1130EC000220A7504220A7609220A77017841F081
S1130ED0100101700179C906FCD5017841F0400187
S1130EE001700178027902F0E00201F0E0018A4227
S1130EF0F7D140F2FF320D4801688905890D91420E
S1130F0006D00B490B4A8A6000680880002088607C
S1130F107047000000000140001C014051E5CC1A5C
S1130F20AE1A33E5081001402000014000010040E2
S1130F3004E0024054E5CC1A19E050F8041BCB0736
S1130F4044BFA9F101035918121F0023042A41F8D0
S1130F50043BF9D25FEA827C0B4604D54FF0000CC7
S1130F60A1F800C09B1CD10744BF0021197050F8A0
S1130F70042B002AE1D1704710B450F8041B79B156
S1130F800268436812180830DC0744BFA9F1010461
S1130F90E31852F8044B43F8044B091FF9D1ECE76A
S1130FA010BC704710B5074979441831064C7C448D
S1130FB0163404E00A68081D511888470146A14206
S1130FC0F8D110BD08000000280000006DFFFFFFED
S1130FD0F401000080E3FF1F000000009DFFFFFFFD
S1130FE07C01000024FDFFFF00E0FF1F0000000063
S1130FF00120C046002801D0FFF7D4FF0020C046DE
S1131000C046FFF713FB00F000F800F001B8000041
S11310100746384600F002F8FBE7000020210903E8
S113102026311820ABBEF9E7014880470148004744
S1131030850E000039100000C046C046C046C046B8
S1131040FFF7D6FFFFF7FEBFFFF7FEBFFFF7FEBFB8
S1131050FFF7FEBFFFF7FEBFFFF7FEBFFFF7FEBFC0
S1131060FFF7FEBFFFF7FEBFFFF7FEBFFFF7FEBFB0
S1131070FFF7FEBFFFF7FEBFFFF7FEBFFFF7FEBFA0
S1131080FFF7FEBFFFF7FEBFFFF7FEBFFFF7FEBF90
S1131090FFF7FEBFFFF7FEBFFFF7FEBFFFF7FEBF80
S11310A0FFF7FEBFFFF7FEBFFFF7FEBFFFF7FEBF70
S11310B0FFF7FEBFFFF7FEBFFFF7FEBFFFF7FEBF60
S11310C0FFF7FEBFFFF7FEBFFFF7FEBFFFF7FEBF50
S11310D0FFF7FEBFFFF7FEBFFFF7FEBFFFF7FEBF40
S113400020250020EDFA010011FB010015FB010041
S113401019FB01001DFB010021FB01000000000051
S113402000000000000000000000000025FB01006B
S113403029FB0100000000002DFB010031FB010001
S113404035FB010039FB01003DFB010041FB010090
S113405045FB010049FB0100EDD6000099930000E7
S11340603FFA0100F9D900005DFB0100C59301008E
S113407065FB01004FA900006DFB0100B1FB0100CD
S1134080B1FB010071FB010075FB0100B1FB0100F4
S1134090B1FB0100B1FB0100B1FB010079FB0100A0
S11340A07DFB01003DFA010085FB0100B1FB01002D
S11340B089FB01008DFB010091FB010095FB0100D0
S11340C0B1FB0100B1FB010047FA010051FA010004
S11340D0B1FB0100B1FB0100A1FB0100A5FB010044
S11340E0A9FB0100ADFB0100B1FB0100B1FB010024
S11340F0B1FB0100B1FB0100B1FB0100B1FB010008
S113410038B5684CE07E012833D1674D67492846AD
S113411005F07FFA012803DB0120E07502201BE093
S11341205EA1284605F075FA012803DB0120E0753D
S1134130002011E05E49284605F06BFA012802DBF5
S11341400120E07508E056A1284605F062FA01282E
S113415003DB0120E075032060750020E076207EFB
S113416038B1544805F0A8FB2846BDE8324005F0B4
S1134170A3BB31BDF0B5142883B0044658D8DFE89A
S113418000F00B0E1114171A1D2E3134373A3D402E
S11341904346494C4F5752001422474945E01422E4
S11341A0464942E0142246493FE0142245493CE096
S11341B01422454939E01422444936E0444D454926
S11341C01422284605F0DEFB4348006800282FD15E
S11341D04E2068732E20A8734520E87328E014222B
S11341E03E4922E014223E491FE014223D491CE0CE
S11341F014223D4919E014223C4916E014223C499A
S113420013E014223B4910E014223B490DE0142230
S11342103A490AE014223A4907E01422394904E0F1
S11342201422394901E014223849294805F0AAFB2F
S113423037480068E040C00706D5254D592068730B
S11342406520A8737320E87304EB44004000314EEA
S1134250314F00F52C5006223146503005F0BEFC9B
S11342603079737832782D490290F0780190B078E3
S11342700C4E0090384605F0E5FE002038743146B7
S1134280384605F044FA0CB17F203070142CBCBFC2
S11342907E20F0730020B07603B0F0BD55500000CE
S11342A045534300E01E0020681C002028DC010068
S11342B030DC010038DC010044DC010058DC010082
S11342C06CDC010080DC010094DC0100A8DC01004E
S11342D0641F0020BCDC010068200020D0DC010049
S11342E0E4DC0100F8DC01000CDD010020DD01004C
S11342F034DD010048DD01005CDD010070DD0100FA
S113430084DD010098DD0100ACDD0100C0DD0100A9
S1134310B42000206813002088190020D4DD010097
S1134320F0B5DFF89C4B83B0206AD32802F2CD8429
S1134330DFE810F0D400E500F8000B011A015A017F
S1134340C7111212241209132C1350138C13BE1309
S1134350E11303142014461448144A144C144E1444
S1134360501452145414561458145A145C145E14F1
S1134370601462146414661468146C149C14CB14D2
S1134380F2010302160FC00FC70F270F400F5A0F79
S11343906D0F800F930FA80F1202230236024902F9
S11343A05C026F0282029502A802BB02CE02E10205
S11343B0F40207031A032D0340035303660379032E
S11343C08C039F03B403C703DA03ED03000413044F
S11343D0260439044C045F04720485049804AB0475
S11343E0BE04D104E00403052A0553057D05A30595
S11343F0CA05EF05140639065D068006A406C7063D
S1134400EB060C0716072A07500774079907B70726
S1134410D507E007FA0719083F084B085C086E083F
S11344208608AA08E60805092409430962098B09D4
S1134430B409DD09050A610A6F0A7D0A8B0A990A23
S1134440A80AB70AC60AD50AE40AF30A020B100B33
S11344501E0B2C0B3B0B4A0B590B680B770B860B73
S1134460950BA40BB30BC20BCB14D40BE30BF20BC5
S1134470040C130C260C350C440C560CCB14DE0F18
S1134480031064107510B410481184109810FE10B5
S1134490481171119711A411B21142105010650CFA
S11344A0770C8A0C990CE00CFF0C200D410D620D69
S11344B0830DA40DC50DE60D070E180E2A0E3C0E35
S11344C0540E6C0E980EB40ED40EF40E69017A01DB
S11344D08D01A001AF01BE01CD01DC011422DFF882
S11344E0941CDFF8940C05F04DFA1422DFF88C1CB0
S11344F0204605F047FA7E20E07302F0E4BB142264
S1134500DFF8701CDFF8700C05F03CFA1422DFF8B9
S1134510701C204605F036FA7F2020707E20E07360
S113452002F0D1BB1422DFF84C1CDFF84C0C05F070
S113453029FA1422DFF84C1C204605F023FA7F20C8
S113454020707E20E07302F0BEBB1422DFF8241C2E
S1134550DFF8240C05F016FA1422DFF8B01D20460B
S113456005F010FA02F0ADBB1422DFF8A41DDFF849
S1134570080C05F007FA1422DFF8981D204605F010
S113458001FAA07D032802F24480DFE810F0040061
S11345900C0016002100CE206076DFF87C0D007838
S11345A0A07102F036B8CF2060767820A071DFF8D1
S11345B0680D4078E07102F02CB8D0206076782045
S11345C0A071E071DFF8500D8078207202F021B8FC
S11345D0D12060767820A071E0712072DFF8380D68
S11345E0C078607202F015B81422DFF8241DDFF8D9
S11345F0880B05F0C7F91422DFF8201D204605F0CA
S1134600C1F902F060BB1422DFF8141DDFF8680B57
S113461005F0B8F91422DFF80C1D204605F0B2F9B4
S11346207E20E07302F04FBB1422DFF8F41CDFF8A5
S1134630480B05F0A7F91422DFF8D01D204605F039
S1134640A1F97F2020707E20E07302F03CBB14228D
S1134650DFF8CC1CDFF8200B05F094F91422DFF806
S1134660D41D204605F08EF97F2020707E20E07353
S113467002F029BB1422DFF8A81CDFF8FC0A05F0BD
S113468081F91422DFF8B01D204605F07BF902F011
S113469018BB1422DFF8A41DDFF8DC0A05F072F958
S11346A01422DFF8C41D204605F06CF902F00BBBA0
S11346B01422DFF8B81DDFF8C00A05F063F91422EC
S11346C0DFF8AC1D204605F05DF902F0FCBA1422B7
S11346D0DFF8A01DDFF8A00A05F054F91422DFF872
S11346E0981D204605F04EF902F0EDBA1422DFF8C9
S11346F08C1DDFF8840ADFF8885D05F043F9DFF8E4
S1134700840D0268E4A1284605F09CFC2146284655
S113471004F0FDFF02F0D7BA1422DFF88C1DDFF895
S1134720580A05F02FF91422DFF8801D204605F001
S113473029F97E20E07302F0C6BA1422DFF8681D5E
S1134740DFF8340A05F01EF91422DFF8641D204650
S113475005F018F902F0B5BA1422DFF8581DDFF895
S1134760180A05F00FF91422DFF84C1D204605F055
S113477009F97E20E07302F0A6BA1422DFF8341D92
S1134780DFF8F40905F0FEF81422DFF8301D2046A6
S113479005F0F8F87F2020707E20E07302F093BAD1
S11347A01422DFF8101DDFF8D00905F0EBF814220D
S11347B0DFF80C1D204605F0E5F87F2020707E20F0
S11347C0E07302F080BA1422DFF8E81CDFF8A809CD
S11347D005F0D8F81422DFF8EC1C204605F0D2F8D6
S11347E07F2020707E20E07302F06DBA1422DFF87F
S11347F0C41CDFF8840905F0C5F81422DFF8C81CCE
S1134800204605F0BFF87F2020707E20E07302F080
S11348105ABA1422DFF89C1CDFF85C0905F0B2F8E0
S11348201422DFF8A81C204605F0ACF87F20207085
S11348307E20E07302F047BA1422DFF8781CDFF818
S1134840380905F09FF81422DFF8841C204605F08F
S113485099F87F2020707E20E07302F034BA14228D
S1134860DFF8501CDFF8100905F08CF81422DFF88B
S1134870641C204605F086F87F2020707E20E073BB
S113488002F021BA1422DFF82C1CDFF8EC0805F042
S113489079F81422DFF8401C204605F073F87F20D5
S11348A020707E20E07302F00EBA1422DFF8041C9C
S11348B0DFF8C40805F066F81422DFF8201C20464F
S11348C005F060F87F2020707E20E07302F0FBB9D1
S11348D01422DFF8E01BDFF8A00805F053F81422D7
S11348E0DFF8FC1B204605F04DF87F2020707E2069
S11348F0E07302F0E8B91422DFF8B81BDFF8780897
S113490005F040F81422DFF8DC1B204605F03AF8E5
S11349107F2020707E20E07302F0D5B91422DFF8E6
S1134920941BDFF8540805F02DF81422DFF8B81BA7
S1134930204605F027F87F2020707E20E07302F0E7
S1134940C2B91422DFF86C1BDFF82C0805F01AF842
S11349501422DFF8981B204605F014F87F202070FD
S11349607E20E07302F0AFB91422DFF8481BDFF8B1
S1134970080805F007F81422DFF8741B204605F038
S113498001F87F2020707E20E07302F09CB914228D
S1134990DFF8201BDFF8E00704F0F4FF1422DFF84F
S11349A0541B204604F0EEFF7F2020707E20E0732D
S11349B002F089B91422DFF8FC1ADFF8BC0704F00E
S11349C0E1FF1422DFF8301B204604F0DBFF7F20D8
S11349D020707E20E07302F076B91422DFF8D41A36
S11349E0DFF8940704F0CEFF1422DFF8101B2046F2
S11349F004F0C8FF7F2020707E20E07302F063B9CA
S1134A001422DFF8B01ADFF8700704F0BBFF142299
S1134A10DFF8741D204604F0B5FF7F2020707E204F
S1134A20E07302F050B91422DFF8881ADFF848075F
S1134A3004F0A8FF1422DFF8541D204604F0A2FF5E
S1134A407F2020707E20E07302F03DB91422DFF84D
S1134A50641ADFF8240704F095FF1422DFF8301DF0
S1134A60204604F08FFF7F2020707E20E07302F048
S1134A702AB91422DFF83C1ADFF8FC0604F082FF9E
S1134A801422DFF8101D204604F07CFF7F202070E4
S1134A907E20E07302F017B9256400001422DFF8C9
S1134AA0141ADFF8D40604F06DFF1422DFF8E81CB2
S1134AB0204604F067FF7F2020707E20E07302F020
S1134AC002B91422DFF8EC19DFF8AC0604F05AFF3F
S1134AD01422DFF8C81C204604F054FF7F20207005
S1134AE07E20E07302F0EFB81422DFF8C819DFF873
S1134AF0880604F047FF1422DFF8A41C204604F0C3
S1134B0041FF7F2020707E20E07302F0DCB8142285
S1134B10DFF8A019DFF8600604F034FF1422DFF890
S1134B20841C204604F02EFF7F2020707E20E0733A
S1134B3002F0C9B81422DFF87C19DFF83C0604F04F
S1134B4021FF1422DFF8601C204604F01BFF7F20A5
S1134B5020707E20E07302F0B6B81422DFF85419F6
S1134B60DFF8140604F00EFF1422DFF8401C204680
S1134B7004F008FF7F2020707E20E07302F0A3B8C9
S1134B801422DFF83019DFF8F00504F0FBFE1422DC
S1134B90DFF81C1C204604F0F5FE7F2020707E20E8
S1134BA0E07302F090B81422DFF80819DFF8C805A2
S1134BB004F0E8FE1422DFF8FC1B204604F0E2FEB9
S1134BC07F2020707E20E07302F07DB81422DFF88D
S1134BD0E418DFF8A40504F0D5FE1422DFF8D81B8E
S1134BE0204604F0CFFE7F2020707E20E07302F088
S1134BF06AB81422DFF8BC18DFF87C0504F0C2FEA2
S1134C001422DFF8B81B204604F0BCFE7F2020707D
S1134C107E20E07302F057B81422DFF89818DFF80A
S1134C20580504F0AFFE1422DFF8941B204604F06C
S1134C30A9FE7F2020707E20E07302F044B8142285
S1134C40DFF87018DFF8300504F09CFE1422DFF85A
S1134C50741B204604F096FE7F2020707E20E073B3
S1134C6002F031B81422DFF84C18DFF80C0504F018
S1134C7089FE1422DFF8501B204604F083FE7F20B7
S1134C8020707E20E07302F01EB81422DFF824188E
S1134C90DFF8E40404F076FE1422DFF8301B20462B
S1134CA004F070FE7F2020707E20E07302F00BB8C9
S1134CB01422DFF80018DFF8C00404F063FE1422A5
S1134CC0DFF80C1B204604F05DFE7F2020707E2060
S1134CD0E07301F0F8BF1422DFF8D817DFF8980466
S1134CE004F050FE1422DFF8EC1A204604F04AFEC9
S1134CF001F0E7BF1422DFF8C81DDFF87C0404F0DC
S1134D0041FE41F288330022DFF8CC1A204605F038
S1134D1099F9DFF804060178A1714178E17181788D
S1134D202172C0786072A07D032801F2CC87DFE88D
S1134D3010F05D0526004F0079001422DFF8E01D15
S1134D40DFF8340404F01EFE1E230222DFF8881A62
S1134D50204605F077F9DFF8C0050178A1714178A4
S1134D60E17181782172C0786072A07D032801F21C
S1134D70AA87DFE810F03B0504002D005700CF2080
S1134D806076012001F0A0BF1422DFF8D81DDFF8FF
S1134D90E80304F0F7FD4FF4FA730A22DFF8381A37
S1134DA0204605F04FF9DFF870050178A1714178CC
S1134DB0E17181782172C0786072A07D032801F2CC
S1134DC08287DFE810F01305040005002F00D6E702
S1134DD0D0206076012001F077BF1422DFF8E41DB3
S1134DE0DFF8940304F0CEFD4FF4FA730A22DFF8DF
S1134DF0E819204605F026F9DFF81C050178A171B1
S1134E004178E17181782172C0786072A07D0328B5
S1134E1001F25987DFE810F0EA04050004000600F7
S1134E20D6E7ACE7D1206076012001F04DBF142213
S1134E30DFF8A819DFF8400304F0A4FD4FF4FA7377
S1134E400022DFF89419204605F0FCF8DFF8C804C6
S1134E500178A1714178E17181782172C078607222
S1134E60A07D032801F22F87DFE810F0C0040600BC
S1134E7005000400D6E7ABE781E71422DFF86019E8
S1134E80BD4804F07FFD4FF4FA630122DFF84819AE
S1134E90204605F0D7F8DFF880040178A171417845
S1134EA0E17181782172C0786072A07D032801F2DB
S1134EB00A87DFE810F09B04080007000400B1E74C
S1134EC0E01E002084E75AE71422DFF8001EAA48F7
S1134ED004F058FD4FF4FA630122DFF8FC18204671
S1134EE005F0B0F8DFF830040178A1714178E17180
S1134EF081782172C0786072A07D032801F2E38674
S1134F00DFE810F074040600050004008AE75FE798
S1134F1035E71422DFF8B81D974804F033FD4FF449
S1134F20FA630122DFF8B018204605F08BF8DFF8A9
S1134F30E8030178A1714178E17181782172C07828
S1134F406072A07D032801F2BE86DFE810F04F04F2
S1134F5006000500040065E73AE710E71422DFF8CD
S1134F60741D854804F00EFD4FF4E1530022DFF870
S1134F706818204605F066F8DFF89C030178A171F3
S1134F804178E17181782172C0786072A07D032834
S1134F9001F29986DFE810F02A04060005000400F7
S1134FA040E715E7EBE61422DFF82C1D724804F005
S1134FB0E9FCF0230022DFF82018204605F042F82F
S1134FC0DFF854030178A1714178E171817821728D
S1134FD0C0786072A07D032801F27586DFE810F0C6
S1134FE006040600050004001CE7F1E6C7E61422E7
S1134FF0DFF8E81C604804F0C5FC3C230022DFF81D
S1135000D817204605F01EF8C3480178A1714178ED
S1135010E17181782172C0786072A07D032801F269
S11350205286DFE810F0E303060005000400F9E609
S1135030CEE6A4E61422DFF8A81C4F4804F0A2FC34
S11350404FF461633222DFF89017204604F0FAFF30
S1135050B1480178A1714178E17181782172C078F9
S11350606072A07D032801F22E86DFE810F0BF03F2
S1135070060005000400D5E6AAE680E61422DFF85F
S1135080641C3D4804F07EFC50230A22DFF84817D4
S1135090204604F0D7FFA0480178A1714178E1715E
S11350A081782172C0786072A07D032801F20B869A
S11350B0DFE810F09C03060005000400B2E687E672
S11350C05DE61422DFF8201C2B4804F05BFC4FF44F
S11350D061631E22DFF80017204604F0B3FF8E48F8
S11350E00178A1714178E17181782172C078607290
S11350F0A07D032801F2E785DFE810F078030600BD
S1135100050004008EE663E639E61422DFF8DC1BB2
S1135110194804F037FC1422DFF8D41B204604F0AD
S113512031FC7D480178A1714178E1718178217267
S1135130C0786072A07D002800F0588301283FF4F5
S11351401EAE03283FF46EAE01F0BDBD1422DFF89D
S1135150841E094804F016FC1422DFF87C1EDDE7E7
S11351601422DFF89C1E044804F00CFC1422DFF81F
S1135170681ED3E7F8DD0100641F00200CDE010087
S113518020DE010034DE01001422DFF8781EDFF88F
S1135190780E04F0F7FB4FF4FA634FF4FA72DFF879
S11351A03816204604F04EFF5B480178A17141781F
S11351B0E17181782172C0786072A07D032801F2C8
S11351C08285DFE810F0130306000500040029E6D9
S11351D0FEE5D4E51422DFF8881EDFF82C0E04F077
S11351E0D1FB3C231422DFF8F015204604F02AFFFB
S11351F049480178A1714178E17181782172C078C0
S11352006072A07D032801F25E85DFE810F0EF02F2
S113521006000500040005E6DAE5B0E51422DFF82F
S1135220B81EDFF8E40D04F0ADFB4FF47A630522F9
S1135230DFF8A415204604F005FF37480178A17172
S11352404178E17181782172C0786072A07D032871
S113525001F23985DFE810F0CA02060005000400F7
S1135260E0E5B5E58BE51422DFF8A81EDFF8980D1C
S113527004F088FB1422DFF8A01E204604F082FB11
S113528025480178A1714178E17181782172C07853
S11352906072A07D002800F0A98202283FF498AD36
S11352A04FE71422DFF8B01EDFF85C0D04F06AFB50
S11352B01422DFF8A81E204604F064FB1648017887
S11352C0A1714178E17181782172C0786072A07D0A
S11352D0002800F08B8202283FF47AAD31E71422D3
S11352E0DFF8C41EDFF8200D04F04CFB1422DFF8B5
S11352F0BC1E13E71422DFF8B81EDFF80C0D04F00F
S113530041FB1422DFF8A41E08E700BF48DE0100B9
S11353105CDE010070DE0100041F002084DE010059
S113532098DE0100ACDE01001422DFF8B01EDFF8C5
S1135330D80C04F027FB1422DFF8A41E204604F046
S113534021FBDFF8A00E0178A1714178E171817829
S11353502172C0786072A07D002800F04782022884
S11353603FF436ADEDE61422DFF83814DFF8980C7C
S113537004F008FB4FF4FA630A22DFF85C142046B9
S113538004F060FEDFF85C0E0178A1714178E171F0
S113539081782172C0786072A07D032801F2938421
S11353A0DFE810F024020600050004003AE50FE5EA
S11353B0E5E41422DFF8C81EDFF84C0C04F0E2FA2E
S11353C01422DFF8E01E01F063B91422DFF8D81EBE
S11353D0DFF8340C04F0D6FA1422DFF8D01E20468D
S11353E004F0D0FA7E20E07301F06DBC1422DFF8E3
S11353F0B81EDFF8140C04F0C5FA1422DFF8B01E4E
S1135400204604F0BFFA01F05CBC00BFC0DE01001E
S11354101422DFF8CC1EDFF8F00B04F0B3FA1422E8
S1135420DFF8C01E204604F0ADFA7E20E07301F0E0
S11354304ABC00BFD4DE0100E8DE0100FCDE01004E
S11354401422DFF89C1EDFF8C00B04F09BFA142230
S1135450DFF8941E204604F095FA7F2020707E2009
S1135460E07301F030BC00BF10DF010024DF010055
S113547038DF01004CDF010060DF010074DF010050
S113548088190020B41D00201422DFF8541EDFF810
S1135490780B04F077FA1422DFF8501E204604F04B
S11354A071FA01F00EBC00BF88DF01009CDF01002F
S11354B0B0DF0100C4DF0100D8DF0100ECDF010030
S11354C000E0010014E0010028E001003CE00100DC
S11354D050E0010064E0010078E001008CE001008C
S11354E0A0E00100B4E00100C8E00100DCE001003C
S11354F0F0E0010004E1010018E101002CE10100E9
S11355001422DFF8941EDFF8000B04F03BFA142297
S1135510DFF8881E204604F035FADFF8C80C01785D
S1135520A1714178E17181782172C0786072A07DA7
S1135530002800F05B8102283FF44AAC01E6142203
S1135540DFF8AC1EDFF8C00A04F01CFA1422DFF8FE
S11355504C1E204604F016FADFF8880C0178A1717D
S11355604178E17181782172C0786072A07D002851
S113557000F03C8102283FF42BACE2E51422DFF872
S1135580741EDFF8840A04F0FDF91422DFF8681EA3
S1135590204604F0F7F9DFF84C0C0178A17141784A
S11355A0E17181782172C0786072A07D002800F0DA
S11355B01D8102283FF40CACC3E51422DFF8A01EC1
S11355C0DFF8440A04F0DEF91422DFF8D01D204687
S11355D004F0D8F9DFF80C0C0178A1714178E1717D
S11355E081782172C0786072A07D002800F0FE806E
S11355F002283FF4EDABA4E51422DFF8881EDFF89F
S1135600080A04F0BFF942F20F730022DFF8781E93
S1135610204604F017FDDFF8CC0B0178A171417826
S1135620E17181782172C0786072A07D032801F253
S11356304A83DFE810F0DB00080006000400FFF7EF
S1135640F1BBFFF7C5BBFFF79ABB1422DFF83C1E82
S1135650DFF8B40904F096F942F20F730022DFF880
S1135660281E204604F0EEFCDFF8780B0178A171C7
S11356704178E17181782172C0786072A07D03283D
S113568001F22183DFE810F0B200080006000400F4
S1135690FFF7C8BBFFF79CBBFFF771BB1422DFF811
S11356A0F01DDFF8640904F06DF94FF47A733222C7
S11356B0DFF8D41D204604F0C5FCDFF8280B017880
S11356C0A1714178E17181782172C0786072A07D06
S11356D0032801F2F882DFE810F0890008000600D0
S11356E00400FFF79FBBFFF773BBFFF748BBDFF86E
S11356F0A40DDFF814196CC86CC140F637130022EE
S1135700DFF8841D204604F09DFCDFF8D80A0178F8
S1135710A1714178E17181782172C0786072A07DB5
S1135720032801F2D082DFE810F0610008000600CF
S11357300400FFF777BBFFF74BBBFFF720BB142236
S1135740DFF8541DDFF8C00804F01CF91E230522FD
S1135750DFF8341D204604F075FCDFF8880A017870
S1135760A1714178E17181782172C0786072A07D65
S1135770032801F2A882DFE810F039003700350071
S11357800400FFF74FBB00BF40E1010054E10100FA
S113579068E101007CE1010090E10100A4E1010065
S11357A0B8E10100CCE10100E0E10100F4E1010015
S11357B008E201001CE2010030E2010044E20100C1
S11357C058E201006CE2010080E2010094E2010071
S11357D0A8E20100BCE20100E4E2010034E30100BC
S11357E048E30100FFF7F4BAFFF7C9BACE206076A8
S11357F0012001F069BA1422B149DFF80C0804F061
S1135800C1F81422DFF8701E204604F0BBF801F042
S11358105ABA1422C249DFF8F00704F0B3F814228C
S1135820DFF8541E204604F0ADF801F04CBA1422FF
S1135830CC49DFF8D40704F0A5F81422DFF8381EA9
S1135840204604F09FF801F03EBA1422DD49DFF847
S1135850B80704F097F81422DFF81C1E204604F061
S113586091F801F030BA1422DFF8841EDFF89807AB
S113587004F088F81422DFF8001E204604F082F8B1
S113588001F021BA1422DFF86C1EDFF87C0704F063
S113589079F81422DFF8E01D204604F073F801F0D3
S11358A012BA1422DFF8501EDFF85C0704F06AF81D
S11358B01422DFF8C41D204604F064F801F003BA92
S11358C01422DFF8381EDFF8400704F05BF81422D6
S11358D0DFF8A41D204604F055F801F0F4B91422B1
S11358E0DFF81C1EDFF8200704F04CF81422DFF860
S11358F0881D204604F046F801F0E5B91422DFF8CB
S1135900741EDFF8040704F03DF81422DFF8681D64
S1135910204604F037F801F0D6B91422DFF8581EF7
S1135920DFF8E40604F02EF81422DFF84C1D2046BC
S113593004F028F801F0C7B91422E949DFF8C806D1
S113594004F020F81422DFF8301D204604F01AF881
S113595001F0B9B91422E349DFF8AC0604F012F8F7
S11359601422DFF8141D204604F00CF801F0ABB942
S11359701422DD49DFF8900604F004F81422DFF85D
S1135980F81C204603F0FEFF01F09DB91422DFF855
S1135990541EDFF8740603F0F5FF1422DFF8D81C58
S11359A0204603F0EFFF01F08EB91422DFF824162D
S11359B0DFF8540603F0E6FF1422DFF8BC1C20468F
S11359C003F0E0FF01F07FB91422DFF83416DFF8AA
S11359D0380603F0D7FF1422DFF89C1C204603F09E
S11359E0D1FF01F070B91422DFF8FC1DDFF81806AE
S11359F003F0C8FF1422DFF8801C204603F0C2FF26
S1135A0001F061B91422DFF85816DFF8FC0503F041
S1135A10B9FF1422DFF8601C204603F0B3FF01F045
S1135A2052B91422DFF8B016DFF8DC0503F0AAFF40
S1135A301422DFF8441C204603F0A4FF01F043B90C
S1135A401422DFF8D016DFF8C00503F09BFF142200
S1135A50DFF8241C204603F095FF01F034B914222A
S1135A60DFF8F416DFF8A00503F08CFF1422DFF84A
S1135A70081C204603F086FF01F025B91422DFF844
S1135A80381EDFF8840503F07DFF1422DFF8E81BDD
S1135A90204603F077FF01F016B91422DFF81C1E2C
S1135AA0DFF8640503F06EFF1422DFF8CC1B2046F8
S1135AB003F068FF01F007B91422DFF8201701E0B2
S1135AC0D0E20100DFF8400503F05CFF1422DFF8A8
S1135AD0A81B204603F056FF01F0F5B81422DFF8A6
S1135AE0B818DFF8240503F04DFF1422DFF8881BF3
S1135AF0204603F047FF01F0E6B81422DFF8F0185F
S1135B00DFF8040503F03EFF1422DFF86C1B204687
S1135B1003F038FF01F0D7B81422DFF8D81801E0F9
S1135B20F8E20100DFF8E00403F02CFF1422DFF8B0
S1135B30481B204603F026FF01F0C5B81422DFF805
S1135B402019DFF8C40403F01DFF1422DFF8281B1A
S1135B50204603F017FF01F0B6B81422DFF8241929
S1135B6002E000BF0CE30100DFF89C0403F00AFF2D
S1135B701422DFF8041B204603F004FF01F0A3B84D
S1135B801422DFF80819DFF8800403F0FBFE142266
S1135B90DFF8E41A204603F0F5FE01F094B814226D
S1135BA0DFF8EC18DFF8600403F0ECFE1422DFF8F1
S1135BB0C81A204603F0E6FE01F085B8DFF8D408E1
S1135BC002E000BF20E30100DFF83C146CC86CC1A4
S1135BD01422DFF8A41A204603F0D4FE01F073B8AF
S1135BE01422DFF8B418DFF8200403F0CBFE1422EB
S1135BF0DFF8841A204603F0C5FE01F064B81422CD
S1135C00DFF8EC1DDFF8000403F0BCFE1422DFF81B
S1135C10E41D204603F0B6FE0020A0767E2000F0AE
S1135C2099BD1422DFF8C81DDFF8DC0303F0AAFED7
S1135C301422DFF8041E204603F0A4FE7F20207007
S1135C407E20E07301F03FB81422DFF8A41DEE4873
S1135C5003F098FE1422DFF8E41D204603F092FEC0
S1135C600020A076C8E11422DFF8D41DE64803F032
S1135C7089FE1422DFF8CC1D204603F083FE0020A9
S1135C80A076DFF8C40D007800F001010129A4BF5B
S1135C904821A17000F002010129A4BF48216171CB
S1135CA000F004010129A4BF4821217200F0080179
S1135CB00129A4BF4821E17200F010000128C1F2BB
S1135CC004804820A07301F000B800BF5CE3010029
S1135CD070E3010084E3010098E30100ACE30100F8
S1135CE0C0E30100D4E30100E8E30100FCE30100A8
S1135CF010E401001422DFF8A41DC348DFF8A05DFE
S1135D0003F040FE0020A076DFF8981DDFF8980D20
S1135D10007800F001000128ACBFDEA2DEA2284614
S1135D2004F090F92146284603F0F1FC7E2000F0AF
S1135D3011BD1422DFF8641DB348DFF8645D03F07D
S1135D4021FE0020A076DFF8641DDFF85C0D0078EA
S1135D5000F002000128ACBFCEA2CFA2284604F076
S1135D6071F92146284603F0D2FC7F2020707E2062
S1135D7000F0F0BC1422DFF8241DA348DFF8205DF6
S1135D8003F000FE0020A076DFF8E01DDFF8180D18
S1135D90007800F004000128ACBFBEA2BEA22846D1
S1135DA004F050F92146284603F0B1FC7F2020700E
S1135DB07E2000F0CFBC1422DFF8E01C9248DFF80C
S1135DC0E05C03F0DFFD0020A076DFF8A41DDFF81F
S1135DD0D80C007800F008000128ACBFADA2AEA238
S1135DE0284604F02FF92146284603F090FC7F2032
S1135DF020707E2000F0AEBC1422DFF8A01C824884
S1135E00DFF89C5C03F0BEFD0020A076DFF8881D5F
S1135E10DFF8940C007800F010000128ACBF9DA2BC
S1135E209DA2284604F00EF92146284603F06FFC93
S1135E307F2020707E2000F08DBC1422DFF85C1CD3
S1135E407148DFF85C5C03F09DFD0020A076DFF86C
S1135E504C1DDFF8540C007800F020000128ACBF82
S1135E608CA28DA2284604F0EDF82146284603F0C2
S1135E704EFC7F2020707E2000F06CBC1422DFF8E2
S1135E801C1C6148DFF8185C03F07CFD0020A07640
S1135E90DFF80C1DDFF8100C007800F0400001283A
S1135EA0ACBF7CA27CA2284604F0CCF8214628464C
S1135EB003F02DFC7F2020707E2000F04BBC1422C8
S1135EC0DFF8D81B5048DFF8D85B03F05BFD0020F7
S1135ED0A076DFF8D81CDFF8D00B007800F0800043
S1135EE00128ACBF6BA26CA2284604F0ABF8214693
S1135EF0284603F00CFC7F2020707E2000F02ABC92
S1135F001422DFF8981B4048DFF8945B03F03AFD55
S1135F100020A076DFF8981CDFF88C0B008800F4D2
S1135F2080700128ACBF5BA25BA2284604F08AF80B
S1135F302146284603F0EBFB7F2020707E2000F0F2
S1135F4009BC1422DFF86C1C2F4803F01BFD002051
S1135F50A0761422DFF8601C204603F013FD7E2097
S1135F6000F0F8BB1422DFF84C1C274803F00AFDAC
S1135F701422DFF8481C204603F004FD7F20207023
S1135F807E20E07300F09FBE1422DFF8281C1E4818
S1135F9003F0F8FC1422DFF83C1D204603F0F2FC69
S1135FA07F2020707E20E07300F08DBE1422DFF885
S1135FB0041C154803F0E6FC0020A0761422DFF848
S1135FC0181D204603F0DEFC7F2020707E20E07345
S1135FD000F079BE24E4010038E401001422DFF863
S1135FE0D41B094803F0CEFC0020A0761422DFF86D
S1135FF0EC1C204603F0C6FC7F20207000F065BE38
S11360004CE4010060E40100641F00201422DFF866
S1136010D01CDFF8D00CDFF8885A03F0B3FC002062
S1136020A076DFF8C41CDFF8C40C097840680129A5
S11360300CD104F021F8DFF8B82CDFF8B83C04F0F8
S113604047F80B460246DFF8B01C05E004F014F8EC
S11360500B460246DFF8A41C284603F0F3FF74E065
S113606074E401001422DFF8981CDFF8780CDFF8E0
S1136070305A03F087FC0020A0766421DFF8840CFA
S1136080006890FBF1F2DFF8801C284603F0DAFF89
S11360905BE000BF4F4646004F4E00001422DFF87D
S11360A06C1CDFF8400CDFF8F85903F06BFC00209F
S11360B0A076DFF85C1CDFF85C0C0068086004F074
S11360C0D9F8DFF8541C04F0EFF803F0D5FF0B46C1
S11360D00246DFF8481C35E088E401001422DFF8AA
S11360E0401CDFF8000CDFF8B85903F04BFC00202B
S11360F0A076DFF8300C006804F0BCF8DFF8281C48
S113610004F0D2F803F0B8FF0B460246DFF81C1C7B
S113611018E000BF9CE40100B0E401001422DFF8A1
S1136120101CDFF8C00BDFF8785903F02BFC0020BB
S1136130A076DFF8000C006803F09EFF0B460246D1
S1136140DFF8F81B284603F07DFF2146284603F0BC
S1136150DEFA00F0BABD00BFC4E40100D8E40100D7
S11361601422DFF8E41BDFF87C0B03F00BFC142291
S1136170DFF8D81B204603F005FC7E20E07300F016
S1136180A2BD1422DFF8C01BDFF8580B03F0FAFBA2
S11361901422DFF8BC1B204603F0F4FB7F202070A0
S11361A07E20E07300F08FBDECE4010000E5010007
S11361B014E501001422DFF8901BDFF8280B03F02C
S11361C0E1FB1422DFF88C1B204603F0DBFB7F206D
S11361D020707E20E07300F076BD00BF28E501004A
S11361E03CE50100041F00201422DFF85C1BDFF8EB
S11361F0F40A03F0C7FB1422DFF85C1B204603F00B
S1136200C1FB7F2020707E20E07300F05CBD14226F
S1136210DFF8341BDFF8CC0A03F0B4FB1422DFF8F8
S11362203C1B204603F0AEFB7F2020707E20E073F1
S113623000F049BD1422DFF8101BDFF8A80A03F0B0
S1136240A1FB1422DFF8181B204603F09BFB7F20E0
S113625020707E20E07300F036BD1422DFF8E81AC7
S1136260DFF8800A03F08EFB1422DFF8F81A2046C8
S113627003F088FB7F2020707E20E07300F023BDB4
S113628050E501001422DFF8C01ADFF8580A03F0C1
S113629079FB1422DFF8D01A204603F073FB00F0D8
S11362A010BD00BF64E5010078E501008CE5010044
S11362B0A0E50100DFF8F0174FF6F47008802A20FB
S11362C0CAE11422DFF8A41ADFF8180A03F05AFB13
S11362D01422DFF8781A204603F054FB00F0F3BCD4
S11362E0B4E50100C8E50100DCE50100F0E50100CA
S11362F01422DFF87C1ADFF8EC0903F043FB1422C4
S1136300DFF8701A204603F03DFB0120A076DFF889
S1136310680A017861714178A17181782172C0782D
S11363206072A07D032800F2D084DFE810F0390009
S113633004003B003D00CE203BE01422DFF83C1A71
S1136340DFF8A00903F01EFB1422DFF8341A2046FC
S113635003F018FBDFF8200A017861714178A1711C
S11363602D21E17181782172C17861722D21A17290
S11363700179E172407920730120A076A07D05287F
S113638000F2A384DFE810F00C0006000E001000F9
S113639012001400CFE700BF04E6010018E6010074
S11363A0CD2006E0D02004E0D12002E0D32000E09C
S11363B0D420607600F089BC1422DFF8C819DFF815
S11363C0240903F0DFFA1422AB49204603F0DAFA79
S11363D000F079BC1422DFF8B019DFF8080903F0E3
S11363E0D1FA1422A449204603F0CCFA00F06BBC85
S11363F02CE6010040E6010054E601001422DFF817
S11364008C19DFF8E00803F0BDFA1422DFF88019D4
S1136410204603F0B7FA7E20E07300F054BC142247
S1136420DFF86819DFF8BC0803F0ACFA1422DFF8CF
S11364306419204603F0A6FA00F043BC1422DFF8E6
S11364405819DFF8A00803F09DFA1422DFF8401968
S1136450204603F097FA7E20E07300F034BC00BFBE
S113646068E601001422DFF83019DFF8780803F039
S113647089FA1422DFF81C19204603F083FA00F08D
S113648020BC00BF7CE6010090E60100A0E601000C
S1136490B4E60100C8E60100D8E60100DFF80056C2
S11364A02022294640F2FD2003F098FB002085F8C5
S11364B020000021DFF8E408DFF828680170A4F167
S11364C0100231462B78FBB10778102F03DA0B70DA
S11364D000234B7002E01370002353707B1C037085
S11364E06F788FB1DBB2102B03DA4F7000278F70F7
S11364F002E05770002797705B1C0370921C891C84
S1136500AD1CDBB2202BDDDB0178202980F2DD839A
S1136510102904DA20238B558A19002304E00A1970
S1136520202302F8103D00235370491C0170EBE74F
S1136530DFF86C552022294640F21D3003F04EFB53
S1136540002085F820000021DFF85008DFF8946768
S11365500170A4F1100231462B78FBB10778102F9B
S113656003DA0B7000234B7002E0137000235370A6
S11365707B1C03706F788FB1DBB2102B03DA4F7082
S113658000278F7002E05770002797705B1C037020
S1136590921C891CAD1CDBB2202BDDDB0178202989
S11365A080F29383102904DA20238B558A1900235F
S11365B004E00A19202302F8103D00235370491CFB
S11365C00170EBE7A37D0022190016D0DFF8A807BD
S11365D0DFF81067185C1D19A3F1480703F1640183
S11365E0102BB9BF98558E4605F8100CBE46521CA8
S11365F0D2B29A4284F819E0F2D3DFF8A00702700D
S1136600102B207FB9BFDFF8DC269854191901F844
S1136610100C012058E3DFF888070178CB3908D043
S1136620091F06D0891E022903D9C91E02290BD9C4
S11366300CE01422DFF86C17DFF8A80603F0A2F9C7
S11366401422DFF8641723E0B02005E0617F491CC1
S11366506177C9B211B1B120206236E3CF21017054
S113666033E31422DFF83C17DFF8780603F08AF9E5
S11366701422DFF838170BE0E4DD01001422DFF800
S11366802417DFF8600603F07DF91422DFF82017E1
S1136690204603F077F918E31422DFF81817DFF81F
S11366A0440603F06FF91422DFF80C17204603F0B8
S11366B069F9DFF8F40301884FF672721140018022
S11366C003E30020A076DFF8F4060078401E19D01A
S11366D0401E032803D9401F042804D916E00A22C7
S11366E0DFF8DC1615E00922DFF8D81611E000BF48
S11366F0ECE6010000E7010014E7010028E70100CF
S11367003CE701000B22DFF8C01602E00922DFF8A3
S1136710BC16DFF88C03DFF8885303F023F9DFF8A5
S1136720C415284602F0F3FFDFF8A40600686421CC
S1136730B0FBF1F2DFF8D015284603F083FC2146C4
S1136740284602F0E4FFDFF88C060068002800F019
S1136750BC822120E073B8E21422DFF87C16DFF853
S1136760840503F00FF91422DFF87016204603F0B5
S113677009F9A8E250E7010064E701000020A076CF
S1136780DFF83876DFF858663878C54D0F2800F200
S1136790A180DFE800F0080B141D2B48515A639FB9
S11367A09F6C757E8795DFF83C0691E00522DFF843
S11367B03816284603F0D6F8DFF8300688E00A22B7
S11367C0DFF82C16284603F0CDF8DFF828067FE022
S11367D00722DFF82416284603F0C4F8DFF81C0665
S11367E076E000BF78E701008CE701000622DFF8BD
S11367F01016284603F0B6F8DFF80806DFF8081686
S11368000068097869B9DFF80416DFF8F02509682B
S113681012684843DFF8DC1509685118B0FBF1F041
S113682057E0400855E01022DFF8E415284603F04D
S113683099F8DFF8E0054BE00922DFF890152846C7
S113684003F090F8DFF8A40542E00B22DFF8C81546
S1136850284603F087F8DFF8C40539E01022DFF892
S1136860C015284603F07EF8DFF8B80530E00A22A8
S1136870DFF8B415284603F075F8DFF8B00527E013
S11368801122DFF8AC15284603F06CF8DFF85C053C
S11368901EE01022DFF89C15284603F063F8DFF8A9
S11368A0980515E00C22DFF89415284603F05AF8F1
S11368B0DFF88C0500780CE0A0E70100B4E70100E4
S11368C00D22DFF88015284603F04CF8DFF8780530
S11368D000683060DFF80C14284602F018FF38789E
S11368E0012803D10622DFF8641504E0062806D146
S11368F00622DFF85C15284603F034F810E0DFF8D0
S1136900EC1430680968411A11F10A0FB8BF014646
S1136910DFF8400501600A46A2A1284603F092FB75
S1136920DFF834753268A0A1384603F08BFB394692
S1136930284603F037FD214602F0E9FE7F2020704F
S11369407E20E073BFE11422DFF81015DFF8940312
S1136950534D03F017F8DFF808050368DFF8040562
S11369600068191ADFF8EC0448BF002101600A46E8
S1136970DFF8F414284603F065FB2146284602F0AC
S1136980C6FE7F2020707E20E0739CE11422DFF895
S1136990DC14DFF85003424D02F0F4FFDFF8481333
S11369A0DFF8CC040978006801290AD103F064FBFC
S11369B0CF4AD04B03F08CFB0B460246DFF8B414ED
S11369C060E003F0FDFC0246DFF8AC14284603F057
S11369D039FB5AE01422DFF8A414C248DFF800643B
S11369E002F0D0FF00203080DFF894140CE000BFE8
S11369F0C8E70100DCE701005A5C1AB1101872788C
S1136A00521C72705A1C32703378052BF4DB717887
S1136A10234DB0FBF1F2DFF86C04DFF86C14026074
S1136A20284603F00FFB2146284602F070FE7F2023
S1136A3020707E20E07346E1F0E7010004E80100E5
S1136A4018E801002CE801002C1D00201422DFF8B6
S1136A503C14A448124D02F095FFA349A3480978B9
S1136A604068012909D103F007FBA14AA14B03F0B7
S1136A702FFB0B460246A04904E003F0FDFA0B4647
S1136A8002469E49284603F0DDFA2146284602F0D4
S1136A903EFE7F2020707E20E07314E140E8010078
S1136AA08819002054E801000020002060E801005B
S1136AB01422DFF8DC138B48DFF8D85302F062FFAE
S1136AC0DFF8D403006803F0D5FBDFF8D01303F03C
S1136AD0EBFB03F0D1FA02460B46DFF8C413284659
S1136AE003F0B0FA2146284602F011FE7F20207000
S1136AF07E20E073E7E01422DFF8A8137948DFF87A
S1136B00945302F03FFFDFF8A003006803F0B2FBE8
S1136B10DFF8881303F0C8FB03F0AEFA02460B4615
S1136B20DF49284603F08EFA2146284602F0EFFD9D
S1136B307F2020707E20E073C5E01422DB49694881
S1136B40D44D02F01FFF7B48006803F095FA02461B
S1136B500B467A49284603F075FA2146284602F086
S1136B60D6FD7F2020707E20E073ACE06CE801004D
S1136B7074E801001422CE495A48C64D02F002FFBF
S1136B8094480068002814BF6BA26DA26DA128462A
S1136B9003F058FA91E000BF7CE8010084E80100AA
S1136BA094E80100256400002F256400A4E8010096
S1136BB0B0E80100BCE80100D0E80100E4E801000D
S1136BC0002020E001201EE002201CE003201AE047
S1136BD0042018E0052016E0062014E0072012E047
S1136BE0082010E009200EE00A200CE00B200AE047
S1136BF00C2008E00D2006E00E2004E00F2002E047
S1136C00102000E01120FDF7B5FA5EE0354EA949E9
S1136C101422304602F0B6FE6E480068C0F380408D
S1136C2028B1592070736520B0737320F073062265
S1136C30894F394642F6BC3002F0D0FF3879954D81
S1136C407B783A789C490290F8780190B878009063
S1136C50284603F0F7F9002028742146284602F05C
S1136C6056FD7F2020707E20E0732CE01D4E93495A
S1136C701422304602F086FE56480068C0F30050E5
S1136C8028B1592070736520B0737320F073062205
S1136C90714F394642F6C83002F0A0FF38797D4D75
S1136CA07B783A7884490290F8780190B87800901B
S1136CB0284603F0C7F9002028742146284602F02C
S1136CC026FD7F2020700020A07603B0BDE8F040B0
S1136CD002F0FAB9F8E801000CE9010020E901002A
S1136CE034E90100641F0020A70800209807002051
S1136CF077D5F270AAE8D03F48E9010058E90100CD
S1136D0064E901003008002078E9010084E9010009
S1136D10B8070020C007002000007A4498E9010069
S1136D20A4E90100601F002000002041B8E901002F
S1136D30C4E90100C820002059455300D8E90100E6
S1136D404E4F000025730000E4E90100F8E901005A
S1136D500CEA010020EA010034EA010048EA0100DB
S1136D605CEA010070EA010084EA010098EA01008B
S1136D70ACEA0100C0EA0100041F0020D4EA0100CB
S1136D80E8EA0100FCEA010010EB010024EB010039
S1136D9038EB01004CEB010060EB0100FD2000200A
S1136DA0F91D002074EB010088EB01009CEB01004D
S1136DB0B0EB0100C4EB0100D8EB0100A6080020F1
S1136DC0ECEB0100F8EB010004EC010010EC010015
S1136DD058200020B42000201CEC010030EC0100FD
S1136DE0C81F0020A81F002044EC0100242000201C
S1136DF04CEC01005808002058EC01005C0800200D
S1136E0060EC0100600800200521002028200020FB
S1136E1068EC01005C20002078EC01006808002088
S1136E2084EC01006C08002094EC0100840800202C
S1136E30A0EC0100B4EC01008C080020C4EC0100BB
S1136E40A8080020D0EC01007008002028DC010014
S1136E50E0EC010018200020681300208CE70100FA
S1136E606408002060200020E8EC0100F0EC010040
S1136E704420002004ED010010ED010018ED010094
S1136E80E01F0020202000202CED010034ED010043
S1136E9048ED0100881900205C1C00200000C84255
S1136EA05CED010064ED0100601C002078ED010040
S1136EB08CED0100ACDD0100D4DD0100C0DD01007A
S1136EC070B588B0FDF71CF9DFF8084CE07D0128A7
S1136ED042F0EE800020E075607D032802F2E3803A
S1136EE0DFE810F00400FD007002170F206A401E56
S1136EF0CE2802F2D880DFE810F0F00FE60FC701C9
S1136F00E000D610D610D610BE1017021A021D02C9
S1136F1020022302260229022C02D610B20E2F02CE
S1136F2032023502380238023B023E024102440278
S1136F3047024A024D0250025302560259025C02B1
S1136F405F02D610EC00EF00D610D610D6104D0319
S1136F50BA105A105C105E1060109A10D6101010FF
S1136F60F40FF60FF80FFA0FFC0FFE0F00100210CB
S1136F700410001008100A100C100E101210141037
S1136F80161018101A101C101E1020102210241095
S1136F9026102810ED01461048104A104C104E10CF
S1136FA05010521054105610E000E000E000E000D1
S1136FB0E000E000E000E000E000E000E000E000CD
S1136FC0E000E000E000E000E000E000E000E000BD
S1136FD0E000E000E000E000E000E000D610D610A1
S1136FE0E900D61017051A05E000E000E000E00013
S1136FF0E000E000E000E000E000D610D610D6107B
S1137000D610D610D610D610D610D610D610D6104C
S1137010D610D610D610D610D610D610D610D6103C
S1137020D610D610D610D610D610D610D610D6102C
S1137030D610D610D610D610D610D610D610D6101C
S1137040D610E000E000D6106210D610CF00D610A3
S11370507610D610CF00D610D610D610D610D61073
S1137060D610D610AD10AF10D610D610100EF601F3
S1137070F901FC01FF01020205020802D610C41046
S1137080F001F301D210D610D610D610D610D610B7
S1137090D610E80FEA0FEC0F207F7A2808DA401C9C
S11370A02077C0B25C2841F0FE875D2001F0A2BCCD
S11370B001F09F84202001F09DBCA17DDFF8185AC7
S11370C0485D392881F2EF87401CFAE0732001F013
S11370D0E9BF252001F0E6BF262001F0E3BF206AC6
S11370E0CE2801F2E087DFE810F0EE0ECF00B90FF2
S11370F0DE0FE400DE0F1F01DE0F2201250128014F
S11371002B012E0131013401C80FDE0F37013A0182
S11371103D01400143014301460149014C014F0136
S11371205201550158015B015E016101640167016F
S11371306A01DE0FF200B30FDE0FC20FDE0FDE0FA7
S1137140620F640F660F680FA20F1601DE0FFC0EAC
S1137150FE0E000F020F040F060F080F100F0C0F86
S11371600E0F100F120F140F160F1A0F1C0F1E0FF5
S1137170200F220F240F260F280F2A0F2C0F2E0F5B
S1137180300FF5004E0F500F520F540F560F580F7B
S11371905A0F5C0F5E0F600FDE0FE400E400E400A2
S11371A0E400E400E400E400E400E400E400E400BB
S11371B0E400E400E400E400E400E400E400E400AB
S11371C0E400E400E400E400E400E400E400DE0F92
S11371D0EF00DE0F22042504DE0FE400E400E400E7
S11371E0E400E400E400E400E400E400DE0FDE0F69
S11371F0DE0FDE0FDE0FDE0FDE0FDE0FDE0FDE0F23
S1137200DE0FDE0FDE0FDE0FDE0FDE0FDE0FDE0F12
S1137210DE0FDE0FDE0FDE0FDE0FDE0FDE0FDE0F02
S1137220DE0FDE0FDE0FDE0FDE0FDE0FDE0FDE0FF2
S1137230DE0FDE0FE400E4001901DE0FDE0FD200E2
S11372401C01DE0FDE0FD200DE0FDE0FDE0FDE0FBD
S1137250DE0FDE0FB70FCA0FDE0FDE0FFE000101D7
S1137260040107010A010D0110011301DE0FF800EA
S1137270FB00DA0FDC0FDE0FDE0FDE0FDE0FDE0F9A
S1137280DE0FF20EF40EF60E022001F00BBF207F8B
S11372902128C1F2AE837F2808BF7A2001F0AA8397
S11372A0401E2077C0B25C2841F0FD865B2001F0CF
S11372B0A1BBA17DDFF82058485D3128C1F2F386D7
S11372C0401E485501F0EFBE742001F0EBBE2620AD
S11372D001F0E8BE4D2001F0E5BEC32001F0E2BE9E
S11372E0C42001F0DFBEBA2001F0DCBEBB2001F0F7
S11372F0D9BEBC2001F0D6BEBD2001F0D3BEBE2055
S113730001F0D0BEBF2001F0CDBEC02001F0CABE46
S1137310C12001F0C7BE312001F0C4BEA82001F095
S1137320C1BEAC2001F0BEBE082001F0BBBE0920E6
S113733001F0B8BE0A2001F0B5BE0B2001F0B2BEC8
S11373400C2001F0AFBE0D2001F0ACBE0E2001F008
S1137350A9BE0F2001F0A6BE122001F0A3BE132087
S113736001F0A0BE142001F09DBE152001F09ABECC
S1137370172001F097BE182001F094BE192001F0E7
S113738091BE1A2001F08EBE1B2001F08BBE1C2082
S113739001F088BE1D2001F085BE1E2001F082BED2
S11373A01F2001F07FBE202001F07CBE212001F0CF
S11373B079BE222001F076BE232001F073BE242082
S11373C001F070BE206ACF2801F26D86DFE810F06C
S11373D0D0007D0DD500E200E5006B0E0C0C440CD2
S11373E00C0C6B0E6B0E6B0E6B0E6B0E6B0E6B0E32
S11373F0470C490C4C0C4F0C610C640C670C6A0C68
S11374006B0E750C780C7B0C7E0C810C840C870C39
S11374108A0C6B0E6B0E6B0E6B0E6B0EA50D420E73
S1137420EF096B0E6B0EF209F609380AF70D0B0E15
S1137430CE0AE00A730101010901110119012101B8
S113744029016B0E6B0E6B0E6B0E3101390141017C
S113745049017B019701B301BB01C301CB01ED01DC
S113746016023F026802910299029C02A502B5022B
S1137470DE020703300359036103690371037903CF
S11374808603B403E10310043F046C049A046B0EF6
S11374906B0E6B0E6B0EC804F804260556058805A2
S11374A0B905E905180645067306A306D2060207C0
S11374B0320761078F07B007C707DE07F5070C0817
S11374C042087108A008CE080F0937095F09890925
S11374D0B1096B0E6B0E6B0E6B0E6B0E6B0E6B0E9F
S11374E06B0E6B0E6B0E6B0E6B0E6B0E6B0E6B0ED0
S11374F06B0E6B0E6B0E6B0E6B0E6B0E6B0E6B0EC0
S11375006B0E6B0E6B0E6B0E6B0E6B0E6B0E6B0EAF
S11375106B0E6B0E6B0E6B0E6B0E220B570B920ADF
S1137520940A6B0EE20AB00AB20A6B0EE20A6B0E00
S11375306B0E6B0E6B0E6B0E6B0EA30BA50B590E25
S11375406B0EA70BB20BBD0BC80BD30BDE0BE90BF9
S1137550F40BFF0B8F0C910C970C9D0C9F0C6B0E76
S11375606B0E6B0E6B0E6B0EF500F800FB00FE004D
S1137570002002F037FF01F096BD042020620522AE
S11375800020A075DFF8901EDFF84C0502F0FAF930
S113759001F089BD282001F085BDA17D0329C1F238
S11375A07182DFF8781EDFF8300502F0A1FF0028B1
S11375B014BF0520262001F075BDD02001F072BD56
S11375C0D12001F06FBDD22001F06CBDD32001F0B9
S11375D069BDDFF84C0E006801F078FF592001F016
S11375E061BDDFF8400E006801F070FF5A2001F021
S11375F059BDDFF8340E006801F068FF5B2001F02C
S113760051BDDFF8280E006801F060FF5C2001F036
S113761049BDDFF81C0E006801F058FF5D2001F041
S113762041BDDFF8100E006801F050FF5E2001F04C
S113763039BDDFF8040E006801F048FF632001F053
S113764031BDDFF8F80D006801F040FF642001F05F
S113765029BDDFF8EC0D006801F038FF652001F06A
S113766021BDDFF8E00DDFF8705400680A21B0FB9B
S1137670F1F101EB8103A0EB43023032EA702E22D8
S1137680AA700A22B1FBF2F202EB8203A1EB4301DE
S1137690303169706421B0FBF1F00A21B0FBF1F1E3
S11376A001EB8102A0EB4200303028700020A0756D
S11376B0662001F0F7BCDFF8900D006801F006FFCA
S11376C0582001F0EFBCDFF8840DDFF80C5400689B
S11376D00A21B0FBF1F101EB810230316970A0EBBA
S11376E0420264213032B0FBF1F0EA70303028708D
S11376F02E22AA700020A075672001F0D3BCDFF809
S1137700500DDFF8D45300680A21B0FBF1F101EB0E
S1137710810230316970A0EB420264213032B0FB47
S1137720F1F0EA70303028702E22AA700020A07583
S1137730682001F0B7BCDFF88C0E006801F0C6FECB
S1137740692001F0AFBCDFF8800E006801F0BEFED6
S11377506A2001F0A7BCDFF8740E006801F0B6FEE1
S11377606B2001F09FBCDFF8680EDB4D00680A2136
S1137770B0FBF1F101EB8103A0EB43023032EA707C
S11377800A22B1FBF2F202EB8203A1EB4301303196
S1137790A9702E2169706421B0FBF1F0303028709B
S11377A00020A0756C2001F07DBCDFF8280ECA4DC6
S11377B000680A21B0FBF1F101EB8103A0EB430265
S11377C03032EA700A22B1FBF2F202EB8203A1EB3F
S11377D043013031A9702E2169706421B0FBF1F0AE
S11377E00A21B0FBF1F101EB8102A0EB4200303041
S11377F028700020A0756D2001F054BCDFF8D80D6E
S1137800B54D00680A21B0FBF1F101EB8103A0EB57
S113781043023032EA702E22AA700A22B1FBF2F23D
S113782002EB8203A1EB4301303169706421B0FBA8
S1137830F1F00A21B0FBF1F101EB8102A0EB42006F
S1137840303028700020A0756E2001F02BBCDFF8CA
S11378508C0DA14D00680A21B0FBF1F101EB81030D
S1137860A0EB43023032EA702E22AA700A22B1FB46
S1137870F2F202EB8203A1EB43013031697064211F
S1137880B0FBF1F00A21B0FBF1F101EB8102A0EBB6
S11378904200303028700020A0756F2001F002BC37
S11378A0DFF83C0D8C4D00680A21B0FBF1F101EBCF
S11378B08103A0EB43023032EA700A22B1FBF2F2F8
S11378C002EB8203A1EB43013031A9702E216970D0
S11378D06421B0FBF1F00A21B0FBF1F101EB81026C
S11378E0A0EB4200303028700020A075702001F019
S11378F0D9BBDFF8F00C806801F0E8FD712001F0DD
S1137900D1BB722001F0CEBBDFF8840E00780028D2
S113791014BF7420732001F0C5BBDFF8780E007823
S1137920012804D0022805D0752001F0BBBB7620C5
S113793001F0B8BB772001F0B5BBDFF85C0E664DF3
S113794000680A21B0FBF1F101EB8103A0EB4302D3
S11379503032EA700A22B1FBF2F202EB8203A1EBAD
S113796043013031A9702E2169706421B0FBF1F01C
S11379700A21B0FBF1F101EB8102A0EB42003030AF
S113798028700020A075782001F08CBBDFF80C0E65
S1137990514D00680A21B0FBF1F101EB8103A0EB2A
S11379A043023032EA700A22B1FBF2F202EB8203A4
S11379B0A1EB43013031A9702E2169706421B0FB21
S11379C0F1F00A21B0FBF1F101EB8102A0EB4200DE
S11379D0303028700020A075792001F063BBDFF8F7
S11379E0C00D3D4D00680A21B0FBF1F101EB8103AC
S11379F0A0EB43023032EA700A22B1FBF2F202EB4E
S1137A008203A1EB43013031A9702E2169706421F6
S1137A10B0FBF1F00A21B0FBF1F101EB8102A0EB24
S1137A204200303028700020A0757A2001F03ABB63
S1137A30DFF8700D284D00680A21B0FBF1F101EB6D
S1137A408103A0EB43023032EA700A22B1FBF2F266
S1137A5002EB8203A1EB43013031A9702E2169703E
S1137A606421B0FBF1F00A21B0FBF1F101EB8102DA
S1137A70A0EB4200303028700020A0757B2001F07C
S1137A8011BBDFF85C0E006801F020FD7C2001F0E2
S1137A9009BBDFF8500E006801F018FD7D2001F0ED
S1137AA001BBDFF8440E006801F010FD7E2001F0F8
S1137AB0F9BADFF8380E006801F008FD7F2001F004
S1137AC0F1BADFF82C0E006801F000FD802001F00F
S1137AD0E9BA00BFE01E0020041F0020A17D032995
S1137AE0C0F2D087DFF8985EE878A9786B782A78B6
S1137AF0DFF8906E02EB820503EB450202EB820392
S1137B0001EB430101EB810200EB4200DFF8781E38
S1137B10081841F28931884230600AD2DFF8281906
S1137B2008600222DFF8641E086040F2191000F0B9
S1137B3023BE812001F0B6BAA17D0329C0F2A28739
S1137B40DFF83C5EE878A9786B782A78DFF8346E41
S1137B5002EB820503EB450202EB820301EB4301D6
S1137B6001EB810200EB4200DFF81C1E0818811EA5
S1137B701D2930600AD2DFF8A81808600122DFF856
S1137B800C1E08604FF4817000F0F6BD822001F0F5
S1137B9089BAA17D0329C0F27587DFF8E45DE8782E
S1137BA0A9786B782A78DFF8DC6D02EB820503EBA9
S1137BB0450202EB820301EB430101EB810200EB7E
S1137BC04200DFF8C41D0818A0F10A01B1F5F57FE1
S1137BD030600AD8DFF84C1808600222DFF8AC1DC8
S1137BE0086040F2031000F0C7BD832001F05ABAC8
S1137BF0A17D0329C0F24687DFF8845DE878A9787F
S1137C006B782A78DFF87C6D02EB820503EB450282
S1137C1002EB820301EB430101EB810200EB420022
S1137C20DFF8641D0818A0F10A01B1F5F57F306092
S1137C300AD8DFF8F41708600222DFF8501D086044
S1137C4040F2051000F098BD842001F02BBAA17D0C
S1137C500329C0F21787DFF8285DE878A9786B78E4
S1137C602A78DFF8206D02EB820503EB450202EB74
S1137C70820301EB430101EB810200EB4200DFF8D8
S1137C80081D0818B0F5FA7F30600AD8DFF89C1791
S1137C9008600222DFF8F41C086040F2071000F0CC
S1137CA06BBD852001F0FEB9A17D0329C0F2EA86EF
S1137CB0DFF8CC5CE878A9786B782A78DFF8C46CB4
S1137CC002EB820503EB450202EB820301EB430165
S1137CD001EB810200EB4200DFF8AC1C08183060B5
S1137CE00DD0B0F5FA6F0AD8DFF844170860022205
S1137CF0DFF8981C086040F2091000F03DBD8620B2
S1137D0001F0D0B9A17D0329C0F2BC86DFF8705C14
S1137D10E878A9786B782A78DFF8686C02EB82053A
S1137D2003EB450202EB820301EB430101EB810209
S1137D3000EB4200DFF8501C081830600DD0B0F59D
S1137D40FA6F0AD8DFF8EC1608600222DFF83C1C50
S1137D50086040F20B1000F00FBD872001F0A2B9BB
S1137D60A17D0329C0F28E86DFF8145CE878A97837
S1137D706B782A78DFF80C6C02EB820503EB450282
S1137D8002EB820301EB430101EB810200EB4200B1
S1137D90DFF8F41B40F6DF520818A0F132019142DB
S1137DA030600AD2DFF8901608600222DFF8DC1B8C
S1137DB0086040F2131000F0DFBC8C2001F072B9AF
S1137DC0A17D0329C0F25E86DFF8B45BE878A97868
S1137DD06B782A78DFF8AC6B02EB820503EB450283
S1137DE002EB820301EB430101EB810200EB420051
S1137DF0DFF8941B0818A0F10A01472930600AD261
S1137E00DFF8381608600122DFF8801B086040F2B2
S1137E10151000F0B1BC8D2001F044B9A17D0329F7
S1137E20C0F23086DFF8585BE878A9786B782A7856
S1137E30DFF8506B02EB820503EB450202EB820391
S1137E4001EB430101EB810200EB4200DFF8381B38
S1137E5040F6F3520818A0F11E01914230600AD294
S1137E60DFF8DC1508600222DFF8201B08604FF4FD
S1137E708B7000F081BC8E2001F014B9A17D032920
S1137E8008DA481CA075C0B2022841F00C81032016
S1137E9000F0F9BDDFF8E85ADFF8E86A2A786B7871
S1137EA0A2F1300000EB8001A3F1300000EB4102AD
S1137EB0E878303802EB820100EB4100B0F5617FD5
S1137EC030600AD8DFF87C1508600122DFF8BC1A9C
S1137ED008604FF48C7000F04FBC8F2001F0E2B8C2
S1137EE0A17D032908DA481CA075C0B2022841F01C
S1137EF0DA80032000F0C7BDDFF8845ADFF8846A13
S1137F002A786B78A2F1300000EB8001A3F13000F5
S1137F1000EB4102E878303802EB820100EB4100CB
S1137F20652830600AD2DFF8241508600122DFF8E2
S1137F305C1A086040F21B1000F01EBC902001F097
S1137F40B1B8A17D032908DA481CA075C0B2022883
S1137F5041F0A980032000F096BDDFF8245ADFF831
S1137F60246A2A786B78A2F1300000EB8001A3F137
S1137F70300000EB4102E878303802EB820100EB7C
S1137F8041006528306009D2DFF8C414086001227A
S1137F90DFF8F81908604FF48E70EDE3912001F0DA
S1137FA081B8A17D0329C0F26D85DFF8D459E87842
S1137FB0A9786B782A78DFF8CC6902EB820503EBA9
S1137FC0450202EB820301EB430101EB810200EB6A
S1137FD04200DFF8B41940F2DD520818A0F5FA7136
S1137FE09142306009D2DFF8DC1508600222DFF824
S1137FF09C19086040F21D10BEE3922001F052B8B3
S1138000A17D0329C0F23E85DFF87459E878A97888
S11380106B782A78DFF86C6902EB820503EB450282
S113802002EB820301EB430101EB810200EB42000E
S1138030DFF854190818A0F114012929306009D275
S1138040DFF8841508600122DFF84019086040F267
S11380501F1091E3932001F025B8A17D0329C0F2FC
S11380601185DFF81C59E878A9786B782A78DFF84D
S1138070146902EB820503EB450202EB820301EB78
S1138080430101EB810200EB4200DFF8FC1840F6EB
S11380909C720818411F9142306009D2DFF82C15F8
S11380A008600222DFF8E41808604FF4907063E37C
S11380B0942000F0F7BFA17D032908DA481CA075BD
S11380C0C0B2012840F0EF87022000F0DCBCDFF8EA
S11380D0B058DFF8B0682A78A978E878303A3039AF
S11380E002EB820301EB4301303801EB810200EB28
S11380F04200A0F11901B029306009D2DFF8D01490
S113810008600222DFF88418086040F2231033E389
S1138110952000F0C7BFA17D032908DA481CA0758B
S1138120C0B2012840F0BF87022000F0ACBCDFF8E9
S11381305058DFF850682A78A978E878303A30390E
S113814002EB820301EB4301303801EB810200EBC7
S11381504200B0F57A7F306009D2DFF87814086005
S11381600222DFF82818086040F2251004E3962064
S113817000F098BFA17D032908DA481CA075C0B29D
S1138180022840F09087032000F07DBCDFF8F05710
S1138190DFF8F0672A786B78A2F1300000EB8001F9
S11381A0A3F1300000EB4102E878303802EB8201A1
S11381B000EB41007928306009D2DFF81C14086014
S11381C00222DFF8C817086040F22B10D4E297208F
S11381D000F068BFA17D032908DA481CA075C0B26D
S11381E0022840F06087032000F04DBCDFF8905770
S11381F0DFF890672A786B78A2F1300000EB8001F9
S1138200A3F1300000EB4102E878303802EB820140
S113821000EB41007928306009D2DFF8C013086010
S11382200222DFF86817086040F22D10A4E29820BB
S113823000F038BFA17D032908DA481CA075C0B23C
S1138240012840F03087022000F01DBCDFF83057D1
S1138250DFF830672A78A978E878303A303902EBC9
S1138260820301EB4301303801EB810200EB420051
S1138270A0F132019729306008D2D949086002225E
S1138280DFF80817086040F2311075E2992000F019
S113829009BFA17D0329C0F2F583DFF8E456E8782D
S11382A0A9786B782A78DFF8DC6602EB820503EBA9
S11382B0450202EB820301EB430101EB810200EB77
S11382C04200DFF8C41640F2C7720818A0F10A0190
S11382D09142306008D2C34988600222DFF8AC16AC
S11382E0086040F2371047E29A2000F0DBBE142207
S11382F0DFF8C01DDFF8C00D01F044FB1422DFF8E5
S1138300BC1D204601F03EFB00F0DEFE02F012F937
S11383101422DFF8AC1D204601F034FB00F0D4FE3B
S113832004F0C6FE022005F0A8F94C2000F0BABE05
S1138330DFF85C14002008700122DFF85016087082
S113834040F2391001F002FC1422DFF8781D2046B7
S113835001F018FB00F0B8FE012000F065BEDFF864
S11383603014012008700122DFF82016087040F252
S1138370391001F0EBFB1422DFF8481D204601F010
S113838001FB00F0A1FE012000F04EBEDFF8041452
S1138390002008700122DFF8F41508704FF49F7074
S11383A001F0D4FB1422DFF81C1D204601F0EAFA88
S11383B000F08AFE012000F037BEDFF8D813012058
S11383C008700122DFF8C41508704FF49F7001F0A3
S11383D0BDFB1422DFF8EC1C204601F0D3FA00F0B8
S11383E073FE012000F020BEDFF8A81302200870FD
S11383F00122DFF8981508704FF49F7001F0A6FB76
S11384001422DFF8C01C204601F0BCFA00F05CFE28
S1138410012000F009BE00BFA0ED0100B81D00203E
S1138420580800205C080020600800205C20002020
S1138430680800206C0800208408002088080020B8
S11384408C080020780800207C08002048080020C0
S11384504C080020A17D032907DA481CA075C0B28E
S1138460012840F0208602200DE3DFF81455DFF8E0
S113847014652A78A978E878303A303902EB820317
S113848001EB4301303801EB810200EB4200A0F123
S11384903201B1F5077F306008D8BF490860022275
S11384A0DFF8E81408604FF4A07065E19B2000F049
S11384B0F9BDA17D032907DA481CA075C0B20128C3
S11384C040F0F1850220DEE2DFF8B454DFF8B46452
S11384D02A78A978E878303A303902EB820301EB44
S11384E04301303801EB810200EB4200A0F132017C
S11384F0B1F5077F306008D8A84908600222DFF888
S11385008C1408604FF4A17036E19C2000F0CABDC1
S1138510A17D032907DA481CA075C0B2012840F0E8
S1138520C2850220AFE2DFF85854DFF858642A7895
S1138530A978E878303A303902EB820301EB430141
S1138540303801EB810240F24F2100EB42008842B7
S1138550306008D2924908600222DFF830140860C3
S11385604FF4A27008E19D2000F09CBDA17D032979
S113857007DA481CA075C0B2012840F09485022097
S113858081E2DFF8FC53DFF8FC632A78A978E87805
S1138590303A303902EB820301EB4301303801EB0E
S11385A0810200EB4200A0F13201B1F5077F306097
S11385B01AD87C4908600222DFF8D01308604FF40F
S11385C0A370D9E06408002054080020800800202B
S11385D0900800209408002090200020942000207F
S11385E098200020980700209E2000F05BBDA17D0C
S11385F00329C0F24782E24DE878A9786B782A789B
S1138600E04E02EB820503EB450202EB820301EB31
S1138610430101EB810200EB4200DB49081842F2FE
S113862010718842306007D2AD4908600222D749F0
S113863008604FF4A4709FE09F2000F033BDA17D3B
S11386400329C0F21F82CE4DE878A9786B782A7886
S1138650CC4E02EB820503EB450202EB820301EBF5
S1138660430101EB810200EB4200C749081842F2C2
S113867010718842306007D29A4908600222C349C7
S113868008604FF4A57077E0A02000F00BBDA17D39
S11386900329C0F2F781BA4DE878A9786B782A7873
S11386A0B84E02EB820503EB450202EB820301EBB9
S11386B0430101EB810200EB4200B34940F2B732BF
S11386C00818A0F132019142306007D2864908604F
S11386D00222AE49086040F24D104DE0A12000F0A6
S11386E0E1BCA17D0329C0F2CD81A54DE878A9782C
S11386F06B782A78A34E02EB820503EB450202EB6A
S1138700820301EB430101EB810200EB42009E492D
S1138710081840F638118842306007D2734908605F
S113872002229A49086040F24F1025E0A22000F08E
S1138730B9BCA17D0329C0F2A581914DE878A9783F
S11387406B782A788F4E02EB820503EB450202EB2D
S1138750820301EB430101EB810200EB42008A49F1
S11387600818411F1A2930601ED26149086001228D
S11387708649086040F2511001F0E8F91422DFF84C
S1138780081C204601F0FEF800F09EFC00F08BBCB3
S1138790A708002012210020742000207820002047
S11387A07C20002080200020A32000F07BBC292016
S11387B000F078BC01F05AFE00F075BC84B0DFF81C
S11387C0CC1B68462C2201F0DDF80FBC05F01CF828
S11387D0DFF8982CDFF8B81B1268694D1018086090
S11387E0084605F0FBF8DFF8AC1B08600A22416973
S11387F0643941610169491C0161816891FBF2F1AD
S113880030312970816891FBF2F202EB8203A1EB13
S11388104301303169700A22416891FBF2F1303131
S1138820A9700A21406890FBF1F101EB8102A0EBF1
S113883042003030E8700020A075A52000F032BC62
S113884084B0DFF8481B68462C2201F09BF80FBC6B
S113885004F0DAFFDFF8142CDFF8341B1268484DFB
S113886010180860084605F0B9F8DFF8281B0860FE
S113887002694169521C6439026141610A2291FB17
S1138880F2F130312970416991FBF2F202EB82037B
S1138890A1EB4301303169700A22016991FBF2F1C5
S11388A03031A970016991FBF2F202EB8203A1EB72
S11388B043013031E9700A22C16891FBF2F1303191
S11388C029710A21C06890FBF1F101EB8102A0EB50
S11388D04200303068710020A075A620E2E300BF9A
S11388E070080020740800208420002088200020C4
S11388F08C200020A920D5E3DFF8C05BDFF8B8079F
S11389001422294601F03EF814222946204601F09B
S113891039F8D0A0DFF8A81B02780A707F202077EE
S11389200120A076642060760020A075AA20B9E317
S1138930AD20B7E3DFF8845BDFF87C071422294617
S113894001F020F814222946204601F01BF8C1A0AA
S1138950DFF86C1B02780A707F2020770120A07654
S1138960642060760020A075AE209BE3DFF8581BDE
S1138970CF200870AF2020620020607793E300BF0F
S1138980041F002020200020B02FFFFFC81F00205C
S1138990B22087E3207FA17D7F282DD1012919D121
S11389A0DFF8185BDFF810071422294600F0EAFF0D
S11389B014222946204600F0E5FFA6A0DFF8001B9C
S11389C002780A707F2020770120A07664206076E8
S11389D0002058E0002900F0668320202077FBF770
S11389E09FFCA07DDFF8482B401EA0750021C0B27B
S11389F081547F20207756E3DFF8345B48557F208D
S1138A002029207780F24F83481CA0750021C0B232
S1138A10415548E3A17D032934DBDFF8145BDFF81B
S1138A20146B2A786B78A2F1300000EB8001A3F17B
S1138A30300000EB4102182A32601ED2DFF8F83A07
S1138A401A60A978E8783039303801EB810200EBFC
S1138A5042013C2931600ED2DFF8E00A1A688161D4
S1138A60C261002141610020DFF8001A0860012082
S1138A70DFF8CC1A49E0B32014E3B32012E3A17D5C
S1138A80062902DA481CA0750DE3DFF8A45ADFF8C2
S1138A90A46A2A786B78A2F1300000EB8001A3F17C
S1138AA0300000EB4102112A326032D3A87800EB87
S1138AB08001E87800EB4100A0F11001287900EB77
S1138AC08003687900EB43001038D2B2C9B2C0B257
S1138AD000F082FD01281AD1DFF8600A3168816252
S1138AE0A97801EB8102E97801EB4201A1F5047157
S1138AF04162297901EB8102697901EB4201A1F517
S1138B00047101620120DFF83C1A0870CBE2B42042
S1138B10C8E2B420C6E2B820C4E2B920C2E2DFF859
S1138B20280A0188CA0758BF41F001015AD54FF6F7
S1138B30FE7256E0DFF8100A01888A0758BF41F038
S1138B4002014FD54FF6FD724BE0DFF8FC090188B6
S1138B504A0758BF41F0040144D54FF6FB7240E088
S1138B60DFF8E40901880A0758BF41F0080139D544
S1138B704FF6F77235E0DFF8D0090188CA0658BF0E
S1138B8041F010012ED54FF6EF722AE0DFF8B80954
S1138B9001888A0658BF41F0200123D54FF6DF72C1
S1138BA01FE0DFF8A40901884A0658BF41F04001DC
S1138BB018D54FF6BF7214E0DFF88C0901880A0655
S1138BC058BF41F080010DD54FF67F7209E0DFF800
S1138BD078090188CA0558BF41F4807102D54FF65F
S1138BE0FF62114001805EE2DFF86009017801292B
