S0390000736B2D666D332D3438706D632D757362737469636B5F7573625F6465766963655F7669727475616C5F636F6D5F706F72742E73726563CC
S1130000380500204DA5010069A501006DA501007A
S113001071A5010075A5010079A50100000000008B
S11300200000000000000000000000007DA50100A9
S113003081A501000000000085A5010089A501003B
S11300408DA5010091A5010095A5010099A50100C8
S11300509DA50100A1A50100459A0000F15A0000E8
S11300607FA30100D59C0000B5A50100294A010029
S1130070BDA5010079780000C5A5010009A601000D
S113008009A60100C9A50100CDA5010009A601002A
S113009009A6010009A6010009A60100D1A50100D5
S11300A0D5A501007DA30100DDA5010009A601007D
S11300B0E1A50100E5A50100E9A50100EDA5010008
S11300C009A6010009A6010089A3010095A3010066
S11300D009A6010009A60100F9A50100FDA501007A
S11300E001A6010005A6010009A6010009A6010058
S11300F009A6010009A6010009A6010009A601003C
S113010038B5224DE87E012833D1214C21492046BF
S113011005F07BFE012802DB012102221BE019A16C
S1130120204605F072FE012802DB0121002212E0C4
S11301301949204605F069FE012802DB012101224C
S113014009E011A1204605F060FEE97D6A7D0128E1
S1130150A4BF01210322E9750021287E6A75E9768E
S113016038B10E4805F09DFF2046BDE8324005F049
S113017098BF31BD05487F217E2200230170C273E0
S1130180837670475550000045534300C4FEFF1F5B
S113019028FCFF1FF87B0100007C0100087C0100A3
S11301A0F0B5DFF8C84C206AE92883B002F2BB81BD
S11301B0DFE810F0EA00F60002010E011F01580109
S11301C0F6113F124F125E137A139C13D0132A14A4
S11301D0481466147C149A14CE14FE142E155E155D
S11301E0F01521165C168D16BE16EF162017511742
S11301F08017AC17D71702182D1858188318B9117F
S1130200D701E301A00F2D103810B20FC40FD80F7F
S1130210EA0FFE0F10102210F40100020C02180263
S1130220240230023C024802540260026C0278024A
S1130230840290029C02A802B402C002CC02D8023A
S1130240E402F002FC020803140320032C03380325
S1130250440350035C036803740380038E039A030E
S1130260A603B203C503D403E303EF03FB030704AC
S1130270130436045D048604B004D604FC04220589
S113028048056E059305B805DE05030627064806EE
S113029052065E068206A506C906E60603070D0792
S11302A017073407580764076F077F079C07AF07D2
S11302B004082308420861088008A908D208FB083A
S11302C025094D099C09C309EA09110A380A820A59
S11302D08F0A9C0AA90AB60AC30AD00ADD0AEA0AE6
S11302E0F70A040B110B1D0B290B350B420B4F0B9B
S11302F05C0B690B760B830B900B9D0BAA0BB70B56
S1130300B911C40BD10BDE0BEB0BF80B050C120C63
S11303101F0C2D0C62093A0C470C540C610C6E0C2A
S1130320B9114A107010C210D210FA100811D61068
S1130330E810331108118611BE11CC11DC11AE1076
S1130340B8107A0C890C930CAA0CD80CF80C150D67
S11303503E0D5B0D7A0D970DB60DD30DF60D160EF1
S11303603E0E650E9B0EAD0EBD0ECF0EE60EF80EC4
S1130370260F420F600F800F650171017D01890115
S11303809A01A701B401C1011422DFF83C1DDFF872
S11303903C0D05F0BDFE1422DFF8341D01F0B4BE9F
S11303A01422DFF8241DDFF8240D05F0B1FE142219
S11303B0DFF8201D01F0B5BD1422DFF80C1DDFF8B5
S11303C00C0D05F0A5FE1422DFF80C1D01F0A9BDEB
S11303D01422DFF8F41CDFF8F40C05F099FE142263
S11303E0DFF8F81C204605F093FE7F20207001F012
S11303F090BE657EDFF8E81CDFF8D00C142205F00F
S113040087FE1422DFF8DC1C204605F081FEA07D67
S1130410032808D8DFE800F0020B131CDFF8C81C1F
S11304200878A071CE256576012002F010B97820F5
S1130430A071CF25DFF8B01C4878E071F3E778208D
S1130440A071E071D025DFF8A00C81782172EAE771
S11304507820A071E0712072D125DFF88C1CC87857
S11304606072E0E71422DFF8781CDFF8600C05F016
S11304704FFE1422DFF8BC1C204602F0E5B814221B
S1130480DFF8B41CDFF8440C05F042FE1422DFF858
S1130490AC1C01F039BE1422DFF89C1CDFF82C0CD4
S11304A005F036FE1422DFF8981C01F03ABD142240
S11304B0DFF8841CDFF8140C05F02AFE1422DFF8A0
S11304C0841C01F02EBD1422DFF86C1CDFF8FC0B39
S11304D005F01EFE1422DFF8701C204605F018FEFD
S11304E07F20207001F015BE1422DFF8601CDFF8B5
S11304F0DC0B05F00DFE1422DFF8541C204602F03C
S1130500A3B81422DFF84C1CDFF8C00B05F000FE82
S11305101422DFF8441C204602F096B81422DFF8B7
S11305203C1CDFF8A80B05F0F3FD1422DFF8301CA7
S1130530204602F089B81422DFF8281CDFF88C0B5F
S1130540DFF8245C05F0E4FDDFF8200C0268DFA18D
S1130550284605F03DFE2146284605F0D3FC02F06E
S113056075B81422DFF8081CDFF8600B05F0D0FD25
S11305701422DFF8001C01F0C7BD1422DFF8F01BC1
S1130580DFF8480B05F0C4FD1422DFF8EC1B20460D
S113059005F0BEFD7F20207001F0BBBD1422DFF802
S11305A0DC1BDFF8280B05F0B3FD1422DFF8D01BA9
S11305B001F0AABD1422DFF8C41BDFF8100B05F00C
S11305C0A7FD1422DFF8BC1B01F0ABBC1422DFF83A
S11305D0AC1BDFF8F80A05F09BFD1422DFF8A81B1A
S11305E001F09FBC1422DFF8941BDFF8E00A05F049
S11305F08FFD1422DFF8941B01F093BC1422DFF862
S11306007C1BDFF8C80A05F083FD1422DFF8801B89
S113061001F087BC1422DFF8641BDFF8B00A05F090
S113062077FD1422DFF86C1B01F07BBC1422DFF889
S11306304C1BDFF8980A05F06BFD1422DFF8581BF9
S113064001F06FBC1422DFF8341BDFF8800A05F0D8
S11306505FFD1422DFF8441B01F063BC1422DFF8B1
S11306601C1BDFF8680A05F053FD1422DFF8301B69
S113067001F057BC1422DFF8041BDFF8500A05F020
S113068047FD1422DFF81C1B01F04BBC1422DFF8D9
S1130690EC1ADFF8380A05F03BFD1422DFF8081BDA
S11306A001F03FBC1422DFF8D41ADFF8200A05F069
S11306B02FFD1422DFF8F41A01F033BC1422DFF802
S11306C0BC1ADFF8080A05F023FD1422DFF8E01A4B
S11306D001F027BC1422DFF8A41ADFF8F00905F0B2
S11306E017FD1422DFF8CC1A01F01BBC1422DFF82A
S11306F08C1ADFF8D80905F00BFD1422DFF8B81ABC
S113070001F00FBC1422DFF8741ADFF8C00905F0F9
S1130710FFFC1422DFF8501D01F003BC1422DFF8A3
S11307205C1ADFF8A80905F0F3FC1422DFF83C1D7D
S113073001F0F7BB1422DFF8441ADFF8900905F042
S1130740E7FC1422DFF8281D01F0EBBB1422DFF8CC
S11307502C1ADFF8780905F0DBFC1422DFF8141DED
S113076001F0DFBB1422DFF8141ADFF8600905F08A
S1130770CFFC1422DFF8241D01F0D3BB1422DFF8D0
S1130780FC19DFF8480905F0C3FC1422DFF8101D3A
S113079001F0C7BB1422DFF8E419DFF8300905F0D3
S11307A0B7FC1422DFF8FC1C01F0BBBB1422DFF8F9
S11307B0CC19DFF8180905F0ABFC1422DFF8E81CAB
S11307C001F0AFBB1422DFF8B419DFF8000905F01B
S11307D09FFC1422DFF8D41C01F0A3BB1422DFF821
S11307E09C19DFF8E80805F093FC1422DFF8C01C1C
S11307F001F097BB1422DFF88419DFF8D00805F064
S113080087FC1422DFF8AC1C01F08BBB1422DFF848
S11308106C19DFF8B80805F07BFC1422DFF8981C8B
S113082001F07FBB1422DFF85419DFF8A00805F0AB
S11308306FFC1422DFF8841C01F073BB1422DFF870
S11308403C19DFF8880805F063FC1422DFF8701CFB
S113085001F067BB1422DFF82419DFF8700805F0F3
S113086057FC1422DFF85C1C01F05BBB1422DFF898
S11308700C19DFF8580805F04BFC1422DFF8481C6B
S113088001F04FBB1422DFF8F418DFF8400805F03C
S11308903FFC1422DFF8341C01F043BB1422DFF8C0
S11308A0DC18DFF8280805F033FC1422DFF8201CDC
S11308B001F037BB1422DFF8C418DFF8100805F084
S11308C027FC1422DFF80C1C01F02BBB256400006C
S11308D01422DFF8A818DFF8F40705F019FC142235
S11308E0DFF8F41B01F01DBB1422DFF89018DFF8C9
S11308F0DC0705F00DFC1422DFF8E01B01F011BB4E
S11309001422DFF87818DFF8C40705F001FC14227C
S1130910DFF8CC1B01F005BB1422DFF86018DFF808
S1130920AC0705F0F5FB1422DFF8B81B204605F0F0
S1130930EFFB7F202070FFF71DFC01F0EABB1422BF
S1130940DFF83818DFF8840705F0E2FBDFF8980BCE
S113095090E82E0084E82E0001F0E6BA1422DFF8B5
S11309601C18DFF8680705F0D3FBDFF8000D90E8EA
S11309702E0084E82E0001F0D7BA1422DFF8FC1709
S1130980DFF8480705F0C4FB1422DFF8E41C01F08B
S1130990C8BA1422DFF8E417DFF8300705F0B8FB13
S11309A01422DFF8D01C01F0BCBA1422DFF8CC17F3
S11309B0DFF8180705F0ACFB1422DFF8BC1C01F0CB
S11309C0B0BA1422DFF8B417DFF8000705F0A0FB73
S11309D01422DFF8A81C01F0DFBA1422DFF8A01CEF
S11309E0DFF8E80605F094FB41F288330022DFF8D3
S11309F0941C204605F0ECFBDFF8EC060178A171AD
S1130A004278E27181782172C278A07D62720328F3
S1130A1001F27F83DFE810F0650A26004F007900B9
S1130A201422DFF8641CDFF8A40605F071FB1E2312
S1130A300222DFF8501C204605F0CAFBDFF8A806A6
S1130A400178A1714278E27181782172C278A07D27
S1130A506272032801F25D83DFE810F0430A0400A8
S1130A602D005700CF216176012001F0F0BD142242
S1130A70DFF8181CDFF8540605F04AFB4FF4FA734C
S1130A800A22DFF8001C204605F0A2FBDFF8580616
S1130A900178A1714278E27181782172C278A07DD7
S1130AA06272032801F23583DFE810F01B0A0400A8
S1130AB005002F00D6E7D0216176012001F0C7BDE3
S1130AC01422DFF8CC1BDFF8040605F021FB4FF4F9
S1130AD0FA730A22DFF8AC1B204605F079FBDFF835
S1130AE008060178A1714278E27181782172C27896
S1130AF0A07D6272032801F20C83DFE810F0F20992
S1130B00050004000600D6E7ACE7D1216176012098
S1130B1001F09DBD1422DFF87C1BDFF8B00505F061
S1130B20F7FA4FF4FA730022DFF8581B204605F059
S1130B304FFBDFF8B4050178A1714278E271817846
S1130B402172C278A07D6272032801F2E282DFE89A
S1130B5010F0C809060005000400D6E7ABE781E7FA
S1130B601422DFF8341BDFF8640505F0D1FA4FF4E2
S1130B70FA630122DFF80C1B204605F029FBDFF89D
S1130B8068050178A1714278E27181782172C27896
S1130B90A07D6272032801F2BC82DFE810F0A20992
S1130BA0060005000400B0E785E75BE71422DFF8E0
S1130BB0EC1ADFF8180505F0ABFA4FF4FA630122DA
S1130BC0DFF8C01A204605F003FBDFF81C050178A6
S1130BD0A1714278E27181782172C278A07D62723B
S1130BE0032801F29682DFE810F07C090600050074
S1130BF004008AE75FE735E71422DFF8A41ADFF878
S1130C00CC0405F085FA4FF4FA630122DFF8741A74
S1130C10204605F0DDFADFF8D0040178A1714278AE
S1130C20E27181782172C278A07D6272032801F298
S1130C307082DFE810F0560906000500040064E73E
S1130C4039E70FE71422DFF85C1ADFF8800405F0B7
S1130C505FFA4FF4E1530022DFF8281A204605F02A
S1130C60B7FADFF884040178A1714278E2718178DF
S1130C702172C278A07D6272032801F24A82DFE801
S1130C8010F030090600050004003EE713E7E9E62A
S1130C901422DFF8141ADFF8340405F039FAF023CB
S1130CA00022DFF8E019204605F092FADFF8380454
S1130CB00178A1714278E27181782172C278A07DB5
S1130CC06272032801F22582DFE810F00B090600A6
S1130CD00500040019E7EEE6C4E61422DFF8CC1997
S1130CE0DFF8E80305F014FA3C230022DFF8941936
S1130CF0204605F06DFADFF8F0030178A17142781F
S1130D00E27181782172C278A07D6272032801F2B7
S1130D100082DFE810F0E608060005000400F4E6AF
S1130D20C9E69FE61422DFF8D81DDFF8A00305F01A
S1130D30EFF94FF461633222DFF84819204605F0D9
S1130D4047FADFF8A4030178A1714278E27181784F
S1130D502172C278A07D6272032801F2DA81DFE891
S1130D6010F0C008060005000400CEE6A3E679E60C
S1130D701422DFF8901DDFF8540305F0C9F950235D
S1130D800A22DFF80019204605F022FADFF858039A
S1130D900178A1714278E27181782172C278A07DD4
S1130DA06272032801F2B581DFE810F09B080600A7
S1130DB005000400A9E67EE654E61422DFF8E01DEF
S1130DC0C24805F0A5F94FF461631E22DFF8B41898
S1130DD0204605F0FDF9C4480178A1714278E2711A
S1130DE081782172C278A07D6272032801F2918118
S1130DF0DFE810F0770806000500040085E65AE6EF
S1130E0030E61422DFF8101EB04805F081F91422F0
S1130E10DFF8081E204605F07BF9B3480178A1717C
S1130E204278E27181782172A17DC07860720029D4
S1130E3001F0578001293FF415AE03293FF465AE54
S1130E4001F067B91422DFF8D81DA04805F060F955
S1130E501422DFF8D01DDDE71422DFF8CC1D9B48F7
S1130E6005F056F91422DFF8BC1DD3E7C4FEFF1FBA
S1130E701422DFF8B81D954805F04AF94FF4FA63D7
S1130E800022DFF80018204605F0A2F99648017800
S1130E90A1714278E27181782172C278A07D627278
S1130EA0032801F23681DFE810F01C080600050073
S1130EB004002AE6FFE5D5E51422DFF8E81D83489F
S1130EC005F026F93C231422DFF8B817204605F074
S1130ED07FF985480178A1714278E27181782172A5
S1130EE0C278A07D6272032801F21381DFE810F05A
S1130EF0F90706000500040007E6DCE5B2E5142264
S1130F00DFF8181E714805F003F94FF47A630522DF
S1130F10DFF87017204605F05BF973480178A1717A
S1130F204278E27181782172C278A07D62720328CE
S1130F3001F2EF80DFE810F0D50706000500040099
S1130F40E3E5B8E58EE51422DFF8481E5F4805F0B6
S1130F50DFF81422DFF8401E204605F0D9F8624875
S1130F600178A1714278E27181782172A17DC07803
S1130F706072002900F0B58702293FF49CAD5CE75C
S1130F801422DFF8181E514805F0C2F81422DFF8C5
S1130F90481E204605F0BCF853480178A1714278F8
S1130FA0E27181782172A17DC0786072002900F01D
S1130FB0988702293FF47FAD3FE71422DFF81C1E17
S1130FC0424805F0A5F81422DFF8281E22E714226F
S1130FD0DFF8241E3D4805F09BF81422DFF8141EA8
S1130FE018E71422DFF8141E384805F091F814228B
S1130FF0DFF80C1E204605F08BF83B480178A17100
S11310004278E27181782172A17DC07860720029F2
S113101000F0678702293FF44EAD0EE71422DFF893
S113102094142A4805F074F84FF4FA630A22DFF89E
S11310305416204605F0CCF82B480178A17142786B
S1131040E27181782172C278A07D6272032801F274
S11310506080DFE810F0460706000500040054E550
S113106029E5FFE41422DFF89C1D184805F050F828
S11310701422DFF8941D204601F045BA1422DFF84B
S11310808C1D124805F044F81422DFF8841D01F089
S11310903BB81422DFF8741D0C4805F039F814220B
S11310A0DFF8781D204605F033F87F20207001F02A
S11310B030B81422DFF8681D044805F029F814221A
S11310C0DFF8601D01F020B8C87D010048FFFF1F54
S11310D0DC7D0100F07D0100047E0100187E01002A
S11310E02C7E0100407E0100E8FEFF1F1422DFF881
S11310F0301DDFF8340D05F00BF81422DFF82C1D39
S1131100204605F005F87F207E212070E17301F070
S113111048B91422DFF8081DDFF80C0D04F0F8FFBD
S11311201422DFF8581E204604F0F2FF7F202070BE
S113113000F0EFBF547E0100687E01007C7E010058
S1131140907E0100A47E0100B87E0100CC7E0100E7
S1131150E07E0100F47E0100087F01001C7F010095
S1131160307F0100447F010048F9FF1F34FDFF1F59
S1131170587F01006C7F0100807F0100947F010093
S1131180A87F0100BC7F0100D07F0100E47F010043
S1131190F87F01000C8001002080010034800100F0
S11311A0488001005C80010070800100848001009F
S11311B098800100AC800100C08001001422DFF897
S11311C0381EDFF8640C04F0A3FF1422DFF82C1E91
S11311D0204604F09DFFDFF8580E0178A171427893
S11311E0E27181782172A17DC0786072002900F0DB
S11311F0788602293FF45FAC1FE61422DFF8341E20
S1131200DFF8240C04F084FF1422DFF8F01D2046DC
S113121004F07EFFDFF8180E0178A1714278E271C4
S113122081782172A17DC0786072002900F059860E
S113123002293FF440AC00E61422DFF8341EDFF844
S1131240E80B04F065FF1422DFF8601E204604F06A
S11312505FFFDFF8DC0D0178A1714278E2718178DB
S11312602172A17DC0786072002900F03A860229BB
S11312703FF421ACE1E51422DFF8341EDFF8A80BBB
S113128004F046FF1422DFF8741D204604F040FFEA
S1131290DFF89C0D0178A1714278E27181782172A6
S11312A0A17DC0786072002900F01B8602293FF4FA
S11312B002ACC2E51422DFF8341EDFF86C0B04F034
S11312C027FF42F20F730022DFF8241E204604F0A9
S11312D07FFFDFF85C0D0178A1714278E2718178BB
S11312E02172C278A07D6272032800F21287DFE8BF
S11312F010F0F805080006000400FFF706BCFFF72D
S1131300DABBFFF7AFBB1422DFF8541EDFF8180B6B
S113131004F0FEFE42F20F730022DFF8D41D2046D3
S113132004F056FFDFF8080D0178A1714278E271EC
S113133081782172C278A07D6272032800F2E98666
S1131340DFE810F0CF05080006000400FFF7DDBB5E
S1131350FFF7B1BBFFF786BB1422DFF8501EDFF89E
S1131360C80A04F0D5FE4FF47A733222DFF8801DE8
S1131370204604F02DFFDFF8B80C0178A171427803
S1131380E27181782172A17DC0786072032900F234
S1131390C086DFE811F0A605080006000400FFF788
S11313A0B4BBFFF788BBFFF75DBBDFF8740EDFF853
S11313B0781A90E86C0081E86C0040F6371300223C
S11313C0DFF82C1D204604F003FFDFF8640C0178DD
S11313D0A1714278E27181782172C278A07D627233
S11313E0032800F29686DFE810F07C05080006006A
S11313F00400FFF78ABBFFF75EBBFFF733BB142281
S1131400DFF8381EDFF8200A04F082FE1E230522CE
S1131410DFF8DC1C204604F0DBFEDFF8140C017856
S1131420A1714278E27181782172C278A07D6272E2
S1131430032800F26E86DFE810F054050800060069
S11314400400FFF762BBFFF736BBFFF70BBB1422A8
S1131450DFF8EC1DDFF8D00904F05AFE1422DFF89F
S1131460E41D00F051BE00BFD4800100E8800100FB
S1131470FC800100108101001422DFF8C41DDFF894
S1131480A80904F045FE1422DFF8641E204604F087
S11314903FFE7F20207000F03CBE00BF248101008D
S11314A0388101004C8101006081010074810100D8
S11314B0888101009C810100B0810100C481010088
S11314C0D8810100EC810100008201001482010036
S11314D0288201003C8201005082010064820100E4
S11314E0788201008C820100A08201001422DFF8BE
S11314F0041EDFF8340904F00BFEC8230A226149F4
S1131500204604F065FEDFF8280B0178A1714278CB
S1131510E27181782172C278A07D6272032800F2A0
S1131520F885DFE810F0DE04080006000400FFF789
S1131530ECBAFFF7C0BAFFF795BA1422DFF8401EE1
S1131540DFF8E40804F0E4FDC8230A224D492046EC
S113155004F03EFEDFF8D80A0178A1714278E27106
S113156081782172C278A07D6272032800F2D1854D
S1131570DFE810F0B704080006000400FFF7C5BA5E
S1131580FFF799BAFFF76EBA1422DFF82C1EDFF8C2
S1131590980804F0BDFDC8230A223A49204604F005
S11315A017FEDFF88C0A0178A1714278E271817824
S11315B02172C278A07D6272032800F2AA85DFE856
S11315C010F09004080006000400FFF79EBAFFF72D
S11315D072BAFFF747BA1422DFF8E01DDFF84808B3
S11315E004F096FD1E2302222649204604F0F0FD55
S11315F0DFF83C0A0178A1714278E27181782172A6
S1131600C278A07D6272032800F28385DFE810F0BF
S11316106904080006000400FFF777BAFFF74BBA25
S1131620FFF720BA1422DFF8981DDFF8FC0704F056
S11316306FFD1E2302221349204604F0C9FDDFF882
S1131640F0090178A1714278E27181782172C2783F
S1131650A07D6272032800F25C85DFE810F042048A
S11316602B0029000400FFF750BA00BFB08201002C
S1131670C0820100D4820100E8820100FC820100E2
S11316801083010024830100388301004C8301008E
S11316906083010074830100888301009C8301003E
S11316A0B0830100C4830100D8830100EC830100EE
S11316B0FFF701BAFFF7D6B91422DFF8201EDFF8CE
S11316C0680704F025FD1422DFF8141E204600F0FC
S11316D0BBBF1422DFF80C1EDFF84C0704F018FD22
S11316E01422DFF8FC1D204600F0AEBF1422DFF800
S11316F0F81DDFF8340704F00BFD1422DFF8E01DB9
S1131700204600F0A1BF1422DFF8E01DDFF818071F
S113171004F0FEFC1422DFF8C81D204600F094BF3C
S11317201422DFF8241EDFF8000704F0F1FC142271
S1131730DFF8AC1D204600F087BF1422DFF8241E1A
S1131740DFF8E40604F0E4FC1422DFF8941D2046DC
S113175000F07ABF1422DFF8101EDFF8CC0604F084
S1131760D7FC1422DFF8781D204600F06DBF142248
S1131770DFF8201EDFF8B00604F0CAFC1422DFF8FC
S1131780601D204600F060BF1422DFF80C1EDFF855
S1131790980604F0BDFC1422DFF8441D204600F036
S11317A053BF1422DFF8F41DDFF87C0604F0B0FC0C
S11317B01422DFF82C1D204600F046BF1422DFF867
S11317C0101EDFF8640604F0A3FC1422DFF8101DD9
S11317D0204600F039BF1422C949DFF84C0604F052
S11317E097FC1422DFF8F81C204600F02DBF1422C9
S11317F0C449DFF8340604F08BFC1422DFF8E01C43
S1131800204600F021BF1422E549DFF81C0604F04D
S11318107FFC1422DFF8C81C204600F015BF1422F8
S1131820DFF8B01DDFF8000604F072FC1422DFF8C4
S1131830B01C204600F008BF1422DFF8E413DFF8E0
S1131840E80504F065FC1422DFF8941C204600F03F
S1131850FBBE1422DFF8D013DFF8CC0504F058FCEB
S11318601422DFF87C1C204600F0EEBE1422DFF8C0
S1131870681DDFF8B40504F04BFC1422DFF8601C8B
S1131880204600F0E1BE1422DFF81814DFF89805B2
S113189004F03EFC1422DFF8481C204600F0D4BEBD
S11318A01422DFF87814DFF8800504F031FC1422E8
S11318B0DFF82C1C204600F0C7BE1422DFF8D41435
S11318C0DFF8640504F024FC1422DFF8141C20461D
S11318D000F0BABE1422DFF8C414DFF84C0504F09B
S11318E017FC1422DFF8F81B204600F0ADBE1422CA
S11318F0DFF8B81DDFF8300504F00AFC1422DFF825
S1131900E01B204600F0A0BE1422DFF8A41DDFF87F
S1131910180504F0FDFB1422DFF8C41B204600F078
S113192093BE1422DFF8D414DFF8FC0404F0F0FBB7
S11319301422DFF8AC1B204600F086BE1422DFF828
S1131940B816DFF8E40404F0E3FB1422DFF8901B7C
S1131950204600F079BE1422DFF8D816DFF8C80458
S113196004F0D6FB1422DFF8781B204600F06CBE8E
S11319701422DFF8FC16DFF8B00404F0C9FB1422CB
S1131980DFF85C1B204600F05FBE1422DFF820174E
S1131990DFF8940404F0BCFB1422DFF8441B204657
S11319A000F052BE1422DFF84417DFF87C0404F080
S11319B0AFFB1422DFF8281B204600F045BE14229A
S11319C0DFF89C17DFF8600404F0A2FB1422DFF8B0
S11319D0101B204600F038BE1422DFF8D017DFF8C1
S11319E0480404F095FB1422DFF8F41A204600F0B2
S11319F02BBEDFF82C08DFF8301490E86C0081E887
S1131A006C001422DFF8D81A204600F01DBE142200
S1131A10DFF82818DFF8100404F07AFB1422DFF84A
S1131A20C01A204600F010BE1422DFF8C818DFF8F0
S1131A30F80304F06DFB1422DFF8A41A204600F02A
S1131A4003BE1422DFF8741DDFF8DC0304F060FB2E
S1131A501422DFF88C1A204600F0F6BD1422DFF8B9
S1131A605819DFF8C40304F053FB1422DFF8701A8A
S1131A70204600F0E9BD1422DFF84019DFF8A8037E
S1131A8004F046FB1422DFF8581A204600F0DCBDAF
S1131A901422DFF82C19E44804F03AFB1422DFF88E
S1131AA0401A204600F0D0BD1422DFF8501DDE4855
S1131AB004F02EFB1422DFF8481D204604F028FB16
S1131AC00020A07656E21422DFF8301DD64804F038
S1131AD01FFB1422DFF82C1D23E21422DFF81C1D47
S1131AE0D14804F015FB1422DFF81C1D204604F035
S1131AF00FFB00207F21A076217000F014BD00BFF1
S1131B0000840100148401001422DFF8001DC6487B
S1131B1004F0FEFA1422DFF8F81C204604F0F8FA68
S1131B200020A076DFF8EC2C107800F001010029E9
S1131B30C4BF4822A27010F00201C4BF48226271DF
S1131B4010F00401C4BF4822227210F00801C4BF7F
S1131B504822E27210F0100040F3E5844820A0739C
S1131B6000F0E1BC1422DFF8B01CAF4804F0D0FA56
S1131B700020DFF8A81CA0760A7802F00102002AEF
S1131B80CCBFA4A2A4A2DFF8805DDFF8801D2846A4
S1131B9004F01EFB2146284604F0B4F9B4E100BF6A
S1131BA0288401001422DFF8701C9F4804F0B0FA66
S1131BB00020DFF8681CA0760A7802F00202002AEE
S1131BC0CCBF94A294A2DFF8405DDFF8441D284600
S1131BD004F0FEFA2146284604F094F9C8E11422E0
S1131BE0DFF8341C904804F093FA0020DFF82C1C32
S1131BF0A0760A7802F00402002ACCBF85A286A24D
S1131C00DFF8045DDFF80C1D284604F0E1FA2146F4
S1131C10284604F077F9ABE13C84010050840100CC
S1131C2064840100788401008C840100A084010094
S1131C301422DFF8E41B7C4804F06AFA0020DFF881
S1131C40DC1BA0760A7802F00802002ACCBF71A23D
S1131C5071A2DFF8B45CDFF8C01C284604F0B8FABF
S1131C602146284604F04EF982E11422DFF8A81B2D
S1131C706D4804F04DFA0020DFF8A01BA0760A7826
S1131C8002F01002002ACCBF62A263A2DFF8785CE3
S1131C90DFF8F01C284604F09BFA2146284604F09D
S1131CA031F965E1B48401001422DFF86C1B5E484D
S1131CB004F02EFA0020DFF8641BA0760A7802F004
S1131CC02002002ACCBF53A253A2DFF83C5CDFF809
S1131CD0B81C284604F07CFA2146284604F012F980
S1131CE046E11422DFF8301B4F4804F011FA0020BB
S1131CF0DFF8281BA0760A7802F04002002ACCBF45
S1131D0044A245A2DFF8005CDFF8801C284604F0FA
S1131D105FFA2146284604F0F5F829E1C884010059
S1131D201422DFF8F41A404804F0F2F90020DFF836
S1131D30EC1AA0760A7802F08002002ACCBF35A201
S1131D4035A2DFF8C45BDFF8481C284604F040FAEB
S1131D502146284604F0D6F80AE11422DFF8B81A1E
S1131D60314804F0D5F90020DFF8B01AA0760A88CB
S1131D7002F48072002ACCBF26A227A2DFF8885B77
S1131D80DFF8101C284604F023FA2146284604F004
S1131D90B9F8EDE0DC840100F08401000485010061
S1131DA01422DFF8741A204804F0B2F90021DFF895
S1131DB0E82BA176107800280CBF16A216A2DFF833
S1131DC0485BDFF8D81B284604F002FA214628466F
S1131DD004F098F8CCE000BF188501002C850100C0
S1131DE01422DFF8341A104804F092F91422DFF8B0
S1131DF0B01B96E040850100548501006885010010
S1131E007C85010090850100A4850100B88501004E
S1131E10CC8501004F4646004F4E0000E08501008E
S1131E20F48501000886010048FFFF1F1C8601009D
S1131E301422DFF86C1BDFF8740B04F069F96423D7
S1131E400022DFF86C1B204604F0C2F978480178C0
S1131E50A1714278E27181782172C278A07D6272A8
S1131E60032800F25681DFE810F03C000800060069
S1131E700400FEF74ABEFEF71EBEFEF7F3BD1422B1
S1131E80DFF89419DFF8240B04F042F9DFF8243B5F
S1131E90DFF8241B1868096800EB8002500004F086
S1131EA0B7F91E230222DFF8081B204604F090F93C
S1131EB05F480178A1714278E27181782172C27819
S1131EC0A07D6272032800F22481DFE810F00A008A
S1131ED0080006000400FEF718BEFEF7ECBDFEF78E
S1131EE0C1BDCE2161760120B1E31422DFF8CC1A02
S1131EF0DFF8B80A04F00CF90020A0761422DFF809
S1131F00C01A204604F004F97E20E0730BE3142287
S1131F10DFF8A81ADFF8940A04F0FAF81422DFF8BC
S1131F20A41A204604F0F4F8FEF724F9FBE2142284
S1131F30DFF8881ADFF8740A04F0EAF81422DFF8EC
S1131F40881A204604F0E4F87F207E212070E17393
S1131F5027E21422DFF8641ADFF8500A04F0D8F8F4
S1131F600020A0761422DFF8641A204604F0D0F88A
S1131F707F2020707E21E173D5E200BF308601000E
S1131F801422DFF8381ADFF8240A04F0C1F800201C
S1131F90A0761422DFF8381A204604F0B9F87F201E
S1131FA02070C0E21422DFF82C1ADFF8000ADFF8F0
S1131FB0585904F0ADF80020A076DFF81C1A4868E0
S1131FC0DFF8181A0E78012E0CD104F0C7FCDFF8E4
S1131FD0102ADFF8103A04F0E5FC0B460246DFF85D
S1131FE0081A05E004F0BAFC0B460246DFF8FC19B7
S1131FF0284604F0EDF874E0448601005886010098
S11320001422DFF8CC1CDFF8A409DFF8FC5804F034
S11320107FF80020A0766421DFF8B82C106890FBCC
S1132020F1F2DFF8B41C284604F0D2F859E000BFFE
S1132030E8FEFF1F6C8601001422DFF8A01CDFF805
S11320406C09DFF8C45804F063F80021DFF8900C41
S1132050A176006804F08AFDDFF8881C04F098FD7E
S113206004F07CFC0B460246DFF87C1C36E000BF23
S1132070808601001422DFF8741CDFF83009DFF8D1
S1132080885804F045F80021DFF8640CA176006854
S113209004F06CFDDFF85C1C04F07AFD04F05EFCD7
S11320A00B460246DFF8501C18E000BF948601007E
S11320B0A88601001422DFF8481CDFF8F008DFF8D6
S11320C0485804F025F80021DFF8400CA176006898
S11320D004F044FC0B460246DFF8341C284604F0A6
S11320E077F82146284603F00DFF1CE2BC86010068
S11320F0D08601001422DFF81C1CDFF8B00804F0BD
S113210007F81422DFF8101C204604F001F87E20A2
S1132110E0730021A17606E21422DFF8F81BDFF851
S11321208C0803F0F5FF1422DFF8F01B204603F0BF
S1132130EFFF7F207E212070E17332E11422DFF86B
S1132140D41BDFF8680803F0E3FF1422DFF8D01B88
S1132150204603F0DDFF7F207E212070E17320E123
S1132160E08601001422DFF8AC1BDFF8400803F01E
S1132170CFFF1422DFF8AC1B204603F0C9FF7F20F9
S11321807E212070E1730CE11422DFF8881BDFF854
S11321901C0803F0BDFF1422DFF88C1B204603F05B
S11321A0B7FF7F207E212070E173FAE0F4860100FE
S11321B01422DFF8601BDFF8F40703F0A9FF1422F0
S11321C0DFF8681B204603F0A3FF7F207E212070E8
S11321D0E173E6E01422DFF83C1BDFF8D00703F0DC
S11321E097FF1422DFF8481B204603F091FF7F205D
S11321F07E212070E173D4E01422DFF8181BDFF88D
S1132200AC0703F085FF1422DFF8281BC4E0DFF8D5
S11322100C164FF6F47008802A22226283E100BF74
S1132220088701001422DFF8101BDFF8800703F091
S11322306FFF1422DFF8E01A05E200BF18870100DF
S11322402C870100408701001422DFF8F01ADFF820
S11322505C0703F05DFF1422DFF8E41A204603F064
S113226057FF0120A076DFF8DC0A0178617141781C
S1132270A171817821722146C0784872A07D03281B
S113228000F25181DFE810F0380004003B003D000B
S1132290CE2132E01422DFF8B01ADFF8100703F081
S11322A037FF1422DFF8A41A204603F031FFDFF8C9
S11322B0940A017861712D234178A171E3718278C8
S11322C02272C2786272A37201220179E1722146FC
S11322D0407908738A76887D052800F22481DFE836
S11322E010F00B0006000E00100012001400CFE7DF
S11322F05487010068870100CD21617613E1D02065
S113230004E0D12002E0D32000E0D42048760AE1A2
S11323101422DFF83C1ADFF8940603F0F9FE1422C5
S11323206F4990E11422DFF82C1ADFF8800603F0DD
S1132330EFFE14226A4986E11422DFF81C1ADFF842
S11323406C0603F0E5FE1422DFF8101A204603F0B1
S1132350DFFE7E20E07324E01422DFF8FC1914E091
S11323601422DFF8FC19DFF8440603F0D1FE14222E
S1132370DFF8E819204603F0CBFE7E20E07310E07E
S11323807C8701001422DFF8D819DFF8200603F057
S1132390BFFE1422DFF8CC19204603F0B9FE7F20DB
S11323A020700022A276BEE0DFF85C4520222146A0
S11323B040F2FD2037E000BF90870100A4870100B0
S11323C0B8870100A07D0021030018D0DFF874292C
S11323D0DFF894C9D55CDFF8D425A0F1480600F1F4
S11323E064070F2BD9BFD554BE460CF80350B6462C
S11323F084F819E0491C5FFA81FE8645F1D3DFF8C1
S11324006C0901700F2B207FC7BFDFF85C29D05403
S1132410DFF89815C854FEF707B8DFF8EC4420221B
S1132420214640F21D3004F03BFD0020DFF87C25FE
S1132430DFF83C5984F8200000211346207808B3C3
S1132440CEB20F2E03DC18700020587004E0A5F102
S11324501006307000207070491C607890B1CEB2C4
S11324600F2E03DC58700020987004E0A5F11006CC
S113247070700020B070491CAD1C9B1CA41CC8B219
S11324802028DBDBCBB2202B16DAD018DFF8E028CB
S1132490D2180025CBB20F2B03DC20230370457028
S11324A004E0A2F1100320241C705D70491C521C2E
S11324B0401CCBB2202BEDDBDFF8B028117032E0EA
S11324C0DFF8B0080178CB3912D0091F10D0891E6B
S11324D002290DD9C91E022918D91AE01083010056
S11324E0B47D0100388301004C8301006083010046
S11324F01422DFF88418DFF8B40403F009FE142270
S1132500DFF87818204603F003FE0CE0C2202062B6
S113251009E0617F491CCAB2002A07BFCF220270BA
S1132520C3202062617703B0BDE8F04003F02EBA07
S11325301422DFF84418DFF8740403F0E9FD1422D0
S1132540DFF83C18DEE700BFCC8701001422DFF877
S11325502818DFF8580403F0DBFD1422DFF82418F0
S1132560D0E700BFE0870100F48701001422DFF800
S11325701818DFF8380403F0CBFD1422DFF80C1828
S1132580204603F0C5FDA5490A884FF67270024043
S11325900A80C8E7088801001C880100308801000F
S11325A00021DFF8EC37A1761878401E16D0401EC3
S11325B0032805D9401F042806D90938012811D851
S11325C00A22DFF8481D10E00922DFF8441D0CE060
S11325D044880100588801006C8801000B22DFF850
S11325E0341D02E00922DFF8301DC748C64C03F051
S11325F07FFDDFF8B813204603F084FCDFF81C2DC0
S113260010686421B0FBF1F2DFF8CC16204603F029
S1132610DFFDDFF85C17204603F074FCDFF8001DD3
S1132620086800283FF47FAFDFF844072121C17315
S113263079E71422DFF8EC1CDFF8700303F068FD7F
S11326401422DFF8E41C204603F062FD0020A0768B
S113265069E7DFF83C67DFF8D45C0020A076AA4C79
S11326603078112800F2B680DFE800F0090E172454
S1132670375568717AB4B4838C959EAA2D5EDFF8C1
S1132680B01C0A682A60A5E00522DFF8A81C2046D1
S113269003F02EFDDFF8A00C9AE00A22DFF89C1C60
S11326A0204603F025FDDFF8980C91E080880100B6
S11326B0948801000722DFF88C1C204603F018FDE3
S11326C0DFF8840C84E01022DFF8801C204603F03D
S11326D00FFDDFF87C0C01787BE00622DFF8741C28
S11326E0204603F005FDDFF8701CDFF8702C096844
S11326F0107870B9DFF8683CDFF8447C1868DFF8BC
S1132700483C3A68414318688218B1FBF2F02860EB
S113271060E049085DE01022DFF8481C204603F021
S1132720E7FCDFF8440C53E01122DFF8401C20469C
S113273003F0DEFCDFF8380C01784AE00922DFF808
S1132740D81B204603F0D4FCDFF8EC0B40E00B224E
S1132750DFF8201C204603F0CBFCDFF81C0C37E02C
S11327601022DFF8181C204603F0C2FCDFF8100C1E
S11327702EE00A22DFF80C1C204603F0B9FCDFF837
S1132780080C25E01122DFF8041C204603F0B0FCFD
S1132790DFF8A40B1CE01022DFF8F41B204603F042
S11327A0A7FCDFF8F00B13E00C22DFF8EC1B20464B
S11327B003F09EFCDFF8E40B01780AE0A88801002E
S11327C00D22DFF8DC1B204603F092FCDFF8D40B6B
S11327D0016829607549204603F094FB307801288C
S11327E003D10622DFF8C01B04E0062818D1062214
S11327F0DFF8B81B204603F07BFC21E0BC88010015
S1132800D0880100E4880100F88801000C890100E7
S113281020890100ECFCFF1F348901000400002022
S1132820DFF8141B28680A68821A12F10A0FB8BF6D
S11328300246DFF87C0B02605AA1204603F0C8FC74
S1132840DFF8706B2A6858A1304603F0C1FC3146AA
S1132850204604F045FDDFF8181503F053FBDFF8BC
S113286010157F2008707E220020CA7388765AE6ED
S11328701422DFF8441B4D4803F04AFCDFF83C1BEC
S1132880DFF83C0B0B6802689A1A48BF0022DFF895
S1132890200B1D4CDFF82C1B0260204603F098FC33
S11328A0DFF8CC142046D8E71422DFF81C1B3F487D
S11328B0154C03F02DFC4949DFF8100B0A78006829
S11328C0012A0AD104F04AF8454A464B04F06AF852
S11328D00B460246DFF8F81A90E004F015FD0246B4
S11328E0DFF8F01A204603F073FC8AE01422DFF8C4
S11328F0E81A2E4803F00CFCDFF8301ADFF8DC3A53
S113290000200880002211E048F9FF1F48890100D7
S1132910548901006089010068890100185D18B1BB
S113292082184878401C4870641C0C700C78042C85
S1132930F4DD4878DFF8A81ADFF8A84AB2FBF0F211
S11329400A602046DFF8A01A03F042FCDFF82014E6
S1132950204682E71422DFF8941A1448DFF8844AE8
S113296003F0D6FB1D491C480A784068012A3FD170
S113297003F0F4FF1A4A1B4B04F014F80B4602460A
S113298019493BE0708901007889010088890100B8
S113299098890100A489010022010020B089010066
S11329A0C0890100256400002F25640048FFFF1F33
S11329B0248301009C000020AC000020D489010085
S11329C0E8890100FC890100108A0100248A0100C1
S11329D0388A01004C8A010024E0FF1F6BE8FF1FC6
S11329E077D5F270AAE8D03F608A0100708A0100AE
S11329F003F0B4FF0B460246DFF8F419204603F057
S1132A00E7FBDB49204628E71422DFF8E819DFF862
S1132A10E809DFF8D04903F07BFBDFF8E009006840
S1132A2004F0A4F8DFF8D81904F0B2F803F096FF24
S1132A3002460B46DFF8CC19204603F0C9FBCC490B
S1132A4020460AE71422DFF8C019DFF8AC09DFF8E2
S1132A50944903F05DFBDFF8B409006804F086F8DC
S1132A60DFF89C1904F094F803F078FF02460B4653
S1132A70DFF89019204603F0ABFBBD492046ECE695
S1132A801422DFF88C19DFF87009DFF8584903F0D5
S1132A903FFB9E48006803F061FF02460B469C49D9
S1132AA0204603F095FBB2492046D6E61422DFF80F
S1132AB06419DFF8440903F02BFBDFF86418086895
S1132AC0002814BF8DA28FA2DFF818498EA12046DA
S1132AD003F07EFBA649204603F014FAA4497F20A4
S1132AE0087000228A761EE5DFF80C49DFF8281901
S1132AF01422204603F00CFBDFF824080178CA07EF
S1132B0005D55920607365217320A173E0730622F3
S1132B10DFF8A058294642F6503004F0C1F928796C
S1132B20E978DFF8C0486B782A7802900191A87898
S1132B30DFF8E8180090204603F04AFB00202074D8
S1132B4020468B4903F0DEF989497E20C873C8E723
S1132B50DFF8A448DFF8C8181422204603F0D8FA96
S1132B60DFF8BC070168C1F3400028B15920607345
S1132B7065217320A173E0730622DFF838582946D3
S1132B8042F6563004F08CF92879E978DFF8544895
S1132B906B782A7802900191A878DFF88018009069
S1132BA0204603F015FB002020742046704954E6AB
S1132BB0DFF84448DFF86C181422204603F0A8FA22
S1132BC0DFF85C070168C1F3800028B15920607305
S1132BD065217320A173E0730622DFF8D8572946D4
S1132BE042F65C3004F05CF92879E978DFF8F447C0
S1132BF06B782A7802900191A878DFF82018009069
S1132C00204603F0E5FA002020742046584924E6C3
S1132C10DFF8E447DFF810181422204603F078FAAE
S1132C20DFF8FC060168C1F3C00028B159206073C5
S1132C3065217320A173E0730622DFF878572946D3
S1132C4042F6623004F02CF92879E978DFF89447E9
S1132C506B782A7802900191A878DFF8C017009069
S1132C60204603F0B5FA0020207420464049F4E5DC
S1132C70DFF88447DFF8B4171422204603F048FA3B
S1132C80DFF89C060168C1F3001028B15920607375
S1132C9065217320A173E0730622DFF818572946D3
S1132CA042F6683004F0FCF82879E978DFF8344714
S1132CB06B782A7802900191A878DFF86017009069
S1132CC0204603F085FA0020207420462849C4E5F4
S1132CD07C8A010010E0FF1F908A01009C8A010099
S1132CE044E0FF1F00007A44B08A0100BC8A01005E
S1132CF044FFFF1F00002041D08A010059455300C2
S1132D00DC8A01004E4F000025730000DC00002027
S1132D10F08A0100FC8A0100108B0100248B010061
S1132D20388B01004C8B0100608B0100748B010017
S1132D30888B01009C8B0100B08B0100C48B0100C7
S1132D40D88B0100E8FEFF1FEC8B0100008C010012
S1132D50148C0100288C01003C8C0100508C010073
S1132D60788C0100648C0100B4FEFF1F1001002068
S1132D70C4FEFF1F79FDFF1F8C8C0100A08C010095
S1132D80B48C0100C88C0100DC8C0100F08C0100C3
S1132D906AE8FF1FDFF86046DFF894161422204625
S1132DA003F0B6F9DFF878050168C1F3401028B1E3
S1132DB05920607365217320A173E0730622DFF844
S1132DC0F455294642F66E3004F06AF82879E97819
S1132DD0DFF810466B782A7802900191A878DFF822
S1132DE03C160090204603F0F3F90020207420469E
S1132DF0DFF8401631E5DFF80046DFF83C16142210
S1132E00204603F085F9DFF83416086828B94E2106
S1132E1061732E204521A073E173DFF80405016876
S1132E20C1F3801028B15920607365217320A17308
S1132E30E0730622DFF87C55294642F6743004F02C
S1132E402FF82879E978DFF89C456B782A78029086
S1132E500191A878DFF8C4150090204603F0B8F972
S1132E60002020742046DFF8CC15F6E4DFF888450E
S1132E70DFF8CC151422204603F04AF9DFF8A00449
S1132E800168C1F3C01028B1592060736521732013
S1132E90A173E0730622DFF81C55294642F67A3006
S1132EA003F0FEFF2879E978DFF838456B782A7853
S1132EB002900191A878DFF864150090204603F091
S1132EC087F9002020742046DFF86815C5E4DFF890
S1132ED02845DFF870151422204603F019F9DFF8AD
S1132EE040040168C1F3002028B1592060736521B2
S1132EF07320A173E0730622DFF8B85429464FF417
S1132F002E5003F0CDFF2879E978DFF8D8446B78A8
S1132F102A7802900191A878DFF8001500902046E5
S1132F2003F056F9002020742046DFF8081594E4D5
S1132F30DFF8C444DFF810151422204603F0E8F843
S1132F40DFF8DC030168C1F3402028B15920607325
S1132F5065217320A173E0730622DFF858542946D3
S1132F6042F6863003F09CFF2879E978DFF8744450
S1132F706B782A7802900191A878DFF8A014009069
S1132F80204603F025F9002020742046DFF8A4141D
S1132F9063E4DFF86444DFF8B4141422204603F039
S1132FA0B7F8DFF87C030168C1F3802028B1592009
S1132FB0607365217320A173E0730622DFF8F45374
S1132FC0294642F68C3003F06BFF2879E978DFF864
S1132FD014446B782A7802900191A878DFF83C14A5
S1132FE00090204603F0F4F8002020742046DFF817
S1132FF0441432E4DFF80044DFF854141422204669
S113300003F086F8C6480168C1F3C02028B15920EE
S1133010607365217320A173E0730622DFF8945373
S1133020294642F6923003F03BFF2879E978DFF82D
S1133030B4436B782A7802900191A878DFF8DC1306
S11330400090204603F0C4F8002020742046DFF8E6
S1133050E413FFF702BCDFF8A043DFF8F8131422EF
S1133060204603F055F8AE480168C1F3003028B19A
S11330705920607365217320A173E0730622CD4D3E
S1133080294642F6983003F00BFF2879E978D54CAD
S11330906B782A7802900191A878DFF88013009069
S11330A0204603F095F8002020742046DFF88413AE
S11330B0FFF7D3BBD04CDFF8A0131422204603F053
S11330C027F897480168C1F3403028B1592060734C
S11330D065217320A173E0730622B64D294642F69A
S11330E09E3003F0DDFE2879E978BE4C6B782A78AF
S11330F002900191A878C9490090204603F068F82D
S1133100002020742046CB49FFF7A7BBBA4CD34913
S11331101422204602F0FCFF81480168C1F380308C
S113312028B15920607365217320A173E0730622CE
S1133130A04D294642F6A43003F0B2FE2879E9787E
S1133140A84C6B782A7802900191A878B349009032
S1133150204603F03DF8002020742046B549FFF7CF
S11331607CBBA54CBE491422204602F0D1FF6C481A
S11331700168C1F3C03028B1592060736521732000
S1133180A173E07306228B4D294642F6AA3003F060
S113319087FE2879E978934C6B782A78029001911C
S11331A0A8789E490090204603F012F8002020746D
S11331B02046A049FFF751BB8F4CAA491422204650
S11331C002F0A6FF56480168C1F3004028B1592017
S11331D0607365217320A173E0730622754D29463F
S11331E042F6B03003F05CFE2879E9787D4C6B78C8
S11331F02A7802900191A87888490090204602F02C
S1133200E7FF0020207420468A49FFF726BB7A4C4A
S113321095491422204602F07BFF41480168C1F31E
S1133220404028B15920607365217320A173E07375
S11332300622604D294642F6B63003F031FE287965
S1133240E978684C6B782A7802900191A8787349E0
S11332500090204602F0BCFF0020207420467549EF
S1133260FFF7FBBA644C81491422204602F050FF58
S11332702B480168C1F3804028B15920607365214F
S11332807320A173E07306224A4D294642F6BC30EE
S113329003F006FE2879E978524C6B782A7802907C
S11332A00191A8785D490090204602F091FF00202A
S11332B0207420465F49FFF7D0BA4F4C6C49142262
S11332C0204602F025FF16480168C1F3005028B1DA
S11332D05920607365217320A173E0730622354D74
S11332E0294642F6C83003F0DBFD2879E9783D4CE5
S11332F06B782A7802900191A8784849009020467A
S113330002F066FF00202074FFF7E4BB048D010087
S1133310108D01001C8D0100288D0100600000202B
S1133320C8000020348D0100488D0100D8FFFF1F24
S1133330A0FFFF1F5C8D01002C000020648D0100A4
S11333401CE8FF1F708D010020E8FF1F788D01002D
S11333501E010020888D010024E8FF1F18010020B1
S113336030000020908D010064000020A08D010039
S11333701F010020B48D01002CE8FF1FC08D010047
S113338030E8FF1FD08D010048E8FF1FDC8D0100ED
S1133390F08D010050E8FF1F008E01006CE8FF1F54
S11333A00C8E010034E8FF1FF87B01001C8E010025
S11333B02000002028F3FF1F6C88010028E8FF1F6D
S11333C068000020248E01002C8E01004C00002097
S11333D0408E01004C8E0100548E0100F0FFFF1F4F
S11333E02800002048F9FF1F688E0100708E01003C
S11333F0708A0100848E010048FFFF1F1CFCFF1F20
S11334000000C842988E0100A08E010020FCFF1F1E
S1133410B48E0100C88E0100147C0100A47D01005B
S1133420287C01003C7C0100507C0100647C01008C
S1133430787C0100C4FEFF1F8C7C0100700000201A
S1133440A07C0100B47C0100C87C0100DC7C01008C
S1133450F07C0100047D0100187D01002C7D010039
S1133460407D0100547D0100687D01007C7D0100E8
S1133470907D0100F0B587B0FCF742FEDFF87C4C8C
S1133480E07D012840F00C81617D206A002203293F
S11334900546E27500F2FE80DFE811F00400150134
S11334A072023610401EE42800F2F480DFE810F0C7
S11334B030112111F601FA00F200F200F20050126C
S11334C03402360238023A023C023E024002420210
S11334D0F2009A0F4402460248024A024A024C028F
S11334E04E02500252025402560258025A025C0220
S11334F05E02600262026402F20007010901F20046
S1133500F200F20063034A12CA11CD11D011D31193
S11335102412F2005D113311361139113C113F119F
S11335204211451148114B114511511154115711B4
S11335305A1160116311661169116C116F117211C6
S1133540751178117B117E11E70916029A119D11EC
S1133550A011A311A611A911AC11AF11B211B5118B
S1133560B811BB11BE11C111C411FA00FA00FA005E
S1133570FA00FA00FA00FA00FA00FA00FA00FA0077
S1133580FA00FA00FA00FA00FA00FA00FA00FA0067
S1133590FA00FA00FA00FA00FA00FA00FA00F2005F
S11335A0F2000501F20013051605FA00FA00FA000C
S11335B0FA00FA00FA00FA00FA00FA00F200FA003F
S11335C0FA00FA00FA00FA00F200F200F200F20047
S11335D0F200F200F200F200F200F200F200F20057
S11335E0F200F200F200F200F200F200F200F20047
S11335F0F200F200F200F200F200F200F200F20037
S1133600F200F200F200F200F200F200F200030114
S1133610F200F200F200F200F200F200FA00FA0006
S1133620F200D611F200E500F200FD11F200E5000F
S1133630F200F200F200F200F200F200F20037129F
S11336403A12F200F200BA0E1C021E0220022202FA
S11336502402260228022A022C02FA00F200F200B6
S1133660591218021A026412F200F200F200F20077
S1133670F200F200241127112A11207F7A2805DA9A
S1133680401CC1B25C2904D15D2002E014BF20209B
S11336907F202077256207B0BDE8F040FCF780BDAD
S11336A007B0F0BDA07DDFF8581A0A5C392AF1DAB8
S11336B0521C0A54EEE78725ECE77925EAE725252D
S11336C0E8E72625E6E7E428E4D8DFE810F012105E
S11336D0E7003111E500FA00E5002501E5002701C6
S11336E029012B012D012F01310133014411E50082
S11336F03501370139013B013D013D013F014101E4
S113370043014501470149014B014D014F0151015D
S1133710530155015701E500E6002511E5003B1171
S1133720E500E500BB10BE10C110C41015111F0147
S1133730E500241027102A102D10301033103610F5
S113374042103C103F104210451048104B105110CD
S1133750541057105A105D106010631066106910F1
S11337606C106F10D80807018B108E1091109410F4
S113377097109A109D10A010A310A610A910AC10B9
S1133780AF10B210B510B810E500FA00FA00FA0054
S1133790FA00FA00FA00FA00FA00FA00FA00FA0055
S11337A0FA00FA00FA00FA00FA00FA00FA00FA0045
S11337B0FA00FA00FA00FA00FA00FA00FA00E5004A
S11337C00301E50007040A04E500FA00FA00FA0020
S11337D0FA00FA00FA00FA00FA00FA000501FA0009
S11337E0FA00FA00FA00FA00E500E500E500E50059
S11337F0E500E500E500E500E500E500E500E5009D
S1133800E500E500E500E500E500E500E500E5008C
S1133810E500E500E500E500E500E500E500E5007C
S1133820E500E500E500E500E500E500E500E5006C
S1133830E500E500E500E500E500E500FA00FA0032
S11338402101E500E500E9002301E500E500E900C8
S1133850E500E500E500E500E500E5002B11471172
S1133860E500E5000D010F01110113011501170118
S113387019011B011D012E11E500FA00E5000901E3
S11338800B0155115811E500E500E500E500E500E0
S1133890E50018101B101E10FCE612E70225F9E6DD
S11338A0207F20280BDD7F2808BF7A203FF4F1AE6B
S11338B0401EC1B25C297FF4ECAE5B20E9E67F20B8
S11338C0E7E6A07DDFF838180A5C312AFFF6E2AE9D
S11338D0521EEEE67A25DDE6B025DBE64D25D9E677
S11338E0D925D7E6DA25D5E6CC25D3E6CD25D1E60C
S11338F0CE25CFE6CF25CDE6D025CBE6D125C9E62A
S1133900D225C7E6D325C5E6D425C3E63125C1E6CD
S1133910BA25BFE6BE25BDE60825BBE60925B9E6FE
S11339200A25B7E60B25B5E60C25B3E60D25B1E669
S11339300E25AFE60F25ADE61225ABE61325A9E665
S11339401425A7E61525A5E61725A3E61825A1E65F
S113395019259FE61A259DE61B259BE61C2599E65D
S11339601D2597E61E2595E61F2593E6202591E65D
S113397021258FE622258DE623258BE6242589E65D
S1133980E5283FF687AEDFE810F0E700B70EEC005D
S1133990F600F800E600F10C290DF10CE600E60053
S11339A0E600E600E600E600E6002D0D300D360DDB
S11339B03C0D500D560D5C0D620DE6006E0D740D40
S11339C07A0D800D860D8C0D920D980DE600E600A3
S11339D0E600E600E600F00ECA0F9E0AE600E600E6
S11339E0A10AA50AEC0A690F900F810B890B7701D4
S11339F00F0116011D0124012B013201E600E6002E
S1133A00E600E6003901400147014E017E019901BB
S1133A10B401BB01C201C901EB0113023B02630201
S1133A208C02940297029F02AF02D80201032A0378
S1133A3053035B0363036B0373037B0383038D03F0
S1133A409703A103A903BD03E10304042A0450045A
S1133A5074049904E600E600E600E600BE04E4040B
S1133A60090530056A059A05CA05EE0512063806E9
S1133A707106A206D306040736075C079F07B6073C
S1133A80CE07E507FD07150847087808A708EC08DE
S1133A900D092E09510972099209E309080A2D0A30
S1133AA0520A780AE600E600E600E600E600E600D0
S1133AB0E600E600E600E600E600E600E600E600D2
S1133AC0E600E600E600E600E600E600E600E600C2
S1133AD0E600E600E600E600E600E600E600E600B2
S1133AE0E600E600E600E600E600A809E600E600D7
S1133AF0E600E600E600E600CB0BFE0B410B440BB0
S1133B00E6008C0B610B640BE6008C0BE600E60010
S1133B10E600E600E600E6004A0C4D0CEC0FE60079
S1133B20500C5F0C6C0C780C840C900C9C0CA80C46
S1133B30B40CC00CB103C90CE6009E0DA10DA80D78
S1133B40B90DBC0DE600E600E600E600E60007015C
S1133B5009010B010D019DE5002003F0E1FB256A3D
S1133B6098E5A275DFF81C1DDFF89405052202F024
S1133B70CFFA04258EE528258CE5A07D0328C1F223
S1133B80D083DFF8041DDFF8780503F05DFC00281E
S1133B903FF497AD05257DE5E6257BE5E72579E549
S1133BA0E82577E5E92575E5DFF8E00C006802F023
S1133BB085F85F256EE5DFF8D80C006802F07EF822
S1133BC0602567E5DFF8CC0C006802F077F8612522
S1133BD060E5DFF8C40C006802F070F8622559E56E
S1133BE0DFF8B80C006802F069F8632552E5DFF8E5
S1133BF0B00C006802F062F864254BE5DFF8A40C11
S1133C00006802F05BF8692544E5DFF89C0C006865
S1133C1002F054F86A253DE5DFF8900C006802F0E4
S1133C204DF86B2536E5DFF8881C09680A20B1FBDE
S1133C30F0F202EB8205DFF8C804A1EB450530354C
S1133C40C5700A23B2FBF3F303EB83052E26A2EB24
S1133C5045028670303242706426B1FBF6F10A22C6
S1133C60B1FBF2F202EB8203A1EB430130310170AC
S1133C700020A0756C250DE5DFF8380C006802F013
S1133C801DF85E2506E5DFF8301C09680A20B1FB43
S1133C90F0F202EB82033032DFF8640442706422F3
S1133CA0A1EB4303B1FBF2F130332E253031C37065
S1133CB0857001700020A0756D25EBE4DFF8FC1B16
S1133CC009680A20B1FBF0F202EB82033032DFF81C
S1133CD0300442706422A1EB4303B1FBF2F13033B0
S1133CE02E253031C370857001700020A0756E25BB
S1133CF0D0E4DFF8CC0B006801F0E0FF6F25C9E4E5
S1133D00DFF8C00B006801F0D9FF7025C2E4DFF8CA
S1133D10240E006801F0D2FF7125BBE4DFF8181E01
S1133D2009680A20B1FBF0F202EB8205DFF8D00348
S1133D30A1EB45053035C5700A23B2FBF3F303EB61
S1133D408305A2EB4502303282706423B1FBF3F1A8
S1133D502E223031427001700020A075722599E442
S1133D60DFF8D81D09680A20B1FBF0F202EB8205E6
S1133D70E348A1EB45053035C5700A23B2FBF3F3E4
S1133D8003EB8305A2EB4502303282702E236425B7
S1133D904370B1FBF5F10A22B1FBF2F202EB8203AC
S1133DA0A1EB4301303101700020A075732571E44B
S1133DB0DFF88C1D09680A20B1FBF0F202EB8205E2
S1133DC0CF48A1EB45053035C5700A23B2FBF3F3A8
S1133DD003EB83052E26A2EB450286703032427037
S1133DE06426B1FBF6F10A22B1FBF2F202EB820384
S1133DF0A1EB4301303101700020A075742549E422
S1133E00DFF8401D09680A20B1FBF0F202EB8205DD
S1133E10BB48A1EB45053035C5700A23B2FBF3F36B
S1133E2003EB83052E26A2EB4502867030324270E6
S1133E306426B1FBF6F10A22B1FBF2F202EB820333
S1133E40A1EB4301303101700020A075752521E4F8
S1133E50DFF8F41C09680A20B1FBF0F202EB8205DA
S1133E60A748A1EB45053035C5700A23B2FBF3F32F
S1133E7003EB8305A2EB4502303282702E236425C6
S1133E804370B1FBF5F10A22B1FBF2F202EB8203BB
S1133E90A1EB4301303101700020A0757625FFF7B6
S1133EA0F9BBDFF8A80C806801F008FF7725FFF75D
S1133EB0F1BB7825FFF7EEBBDFF8941C08780028E7
S1133EC07FF408ADFFF7F9BBDFF8880C017801290E
S1133ED004D0022905D07B25FFF7DCBB7C25FFF746
S1133EE0D9BB7D25FFF7D6BBDFF86C1C09680A2017
S1133EF0B1FBF0F202EB82058148A1EB45053035B8
S1133F00C5700A23B2FBF3F303EB8305A2EB45026E
S1133F10303282702E2364254370B1FBF5F10A22FE
S1133F20B1FBF2F202EB8203A1EB430130310170E9
S1133F300020A0757E25FFF7ADBBDFF8CC1D096816
S1133F400A20B1FBF0F202EB82056D48A1EB4505B6
S1133F503035C5700A23B2FBF3F303EB8305A2EB00
S1133F604502303282702E2364254370B1FBF5F193
S1133F700A22B1FBF2F202EB8203A1EB43013031DE
S1133F8001700020A0757F25FFF784BBDFF87C1D3E
S1133F9009680A20B1FBF0F202EB82055848A1EB54
S1133FA045053035C5700A23B2FBF3F303EB8305F3
S1133FB0A2EB4502303282702E2364254370B1FB9C
S1133FC0F5F10A22B1FBF2F202EB8203A1EB430109
S1133FD0303101700020A0758025FFF75BBBDFF84E
S1133FE0301D09680A20B1FBF0F202EB8205444857
S1133FF0A1EB45053035C5700A23B2FBF3F303EB9F
S11340008305A2EB4502303282702E23642543706F
S1134010B1FBF5F10A22B1FBF2F202EB8203A1EB50
S11340204301303101700020A0758125FFF732BBB8
S1134030DFF8E00C006801F041FE8225FFF72ABB9F
S1134040DFF8D40C006801F039FE8325FFF722BBAA
S1134050DFF8C80C006801F031FE8425FFF71ABBB5
S1134060DFF8BC0C006801F029FE8525FFF712BBC0
S1134070DFF8B00C006801F021FE8625FFF70ABBCB
S1134080DFF8A41C087800287FF426ACFFF713BBE4
S1134090DFF8980C006801F011FE0120A075882556
S11340A0FFF7F8BADFF8880C006801F007FE01207A
S11340B0A0758925FFF7EEBADFF8780C006801F0E7
S11340C0FDFD0120A0758A25FFF7E4BADFF8680C2E
S11340D0007801F0F3FD8B25FFF7DCBADFF85C0C08
S11340E0007801F0EBFD8C25FFF7D4BADFF8500C13
S11340F0006801F0E3FDD625FFF7CCBAC4FEFF1F2C
S1134100E8FEFF1FA07D0328C1F20B81DFF8345CB9
S113411001F0BAFD41F289318842286013D2DFF8F8
S11341209427DFF8241C10600860022240F2191062
S113413002F069FE1422DFF8141C204601F0E8FFA7
S113414001F024FC0BE58D25FFF7A4BAA07D03281C
S1134150C1F2E780DFF8EC5B01F096FD811E1C29BB
S1134160286013D8DFF82427DFF8DC1B1060086010
S113417001224FF4817002F046FE1422DFF8CC1BBA
S1134180204601F0C5FF01F001FCE8E48E25FFF7AD
S113419081BAA07D0328C1F2C480DFF8A85B01F0D6
S11341A073FDA0F10A0140F2EB129142286013D290
S11341B0DFF8DC36DFF8901B18600860022240F25A
S11341C0031002F020FE1422DFF8801B204601F0C9
S11341D09FFF01F0DBFBC2E48F25FFF75BBAA07DF4
S11341E00328C1F29E80DFF85C5B01F04DFDA0F175
S11341F00A0140F2EB129142286013D2DFF89436A0
S1134200DFF8441B18600860022240F2051002F037
S1134210FAFD1422DFF8341B204601F079FF01F087
S1134220B5FB9CE49025FFF735BAA07D0328C1F2C5
S11342307880DFF8105B01F027FD40F2F511884229
S1134240286013D2DFF85026DFF8FC1A10600860EB
S1134250022240F2071002F0D6FD1422DFF8EC1A15
S1134260204601F055FF01F091FB78E49125FFF71A
S113427011BAA07D0328C1F25480DFF8C85A01F0B6
S113428003FD2860B8B140F2D171884213D2DFF83F
S11342900C26DFF8B41A10600860022240F20910FC
S11342A002F0B1FD1422DFF8A41A204601F030FF19
S11342B001F06CFB53E49225FFF7ECB9A07D0328D1
S11342C0C1F22F80DFF87C5A01F0DEFC2860B8B11F
S11342D040F2D171884213D2DFF8C425DFF8681A9E
S11342E010600860022240F20B1002F08CFD1422D0
S11342F0DFF8581A204601F00BFF01F047FB2EE4CB
S11343009325FFF7C7B9A07D0328C1F20A80DFF81F
S1134310345A01F0B9FCA0F1320140F6DF52914267
S1134320286013D2DFF87C35DFF81C1A18600860A7
S1134330022240F2131002F066FD1422DFF80C1A78
S1134340204601F0E5FE01F021FB08E49825FFF783
S1134350A1B9A07D0328C0F2E487DFF8E85901F091
S113436093FCA0F10A014629286014D8DFF8382507
S1134370DFF8D41910600860012240F2151002F031
S113438042FD1422DFF8C419204601F0C1FE01F0F9
S1134390FDFAFFF7E4BB9925FFF77CB9A07D03285C
S11343A0C0F2BF87DFF89C5901F06EFCA0F11E013A
S11343B040F6F3529142286014D2DFF8F034DFF86B
S11343C088191860086002224FF48B7002F01BFDFC
S11343D01422DFF87819204601F09AFE01F0D6FA8B
S11343E0FFF7BDBB9A25FFF755B9A07D032807DA6F
S11343F0401CC2B2022A08BF0320A075FFF74AB9C5
S1134400DFF8100E0278303A02EB82014278C0786D
S1134410303A02EB410202EB8201303800EB4100FA
S1134420DFF8201940F285329042086014D2DFF898
S11344308034DFF814191860086001224FF48C707E
S113444002F0E1FC1422DFF80419204601F060FEBA
S113445001F09CFAFFF783BB9B25FFF71BB9A07DF6
S11344600328C5DBDFF8AC0D0278303A02EB820199
S11344704278C078303A02EB410202EB82013038D4
S113448000EB4100DFF8BC186428086014D8DFF89A
S11344902824DFF8B41810600860012240F21B10D1
S11344A002F0B1FC1422DFF8A418204601F030FE1B
S11344B001F06CFAFFF753BB9C25FFF7EBB8A07D26
S11344C0032895DBDFF84C0D0278303A02EB8201C9
S11344D04278C078303A02EB410202EB8201303874
S11344E000EB4100DFF85C186428086014D8DFF89A
S11344F0CC23DFF854181060086001224FF48E704A
S113450002F081FC1422DFF84418204601F000FE7A
S113451001F03CFAFFF723BB9D25FFF7BBB8A07D54
S11345200328C0F2FE86DFF81C5801F0ADFB40F210
S1134530D1718842286013D2E14ADFF80C18106068
S11345400860022240F21D1002F05DFC1422DFF824
S1134550FC17204601F0DCFD01F018FAFFF7FFBA62
S11345609E25FFF797B8A07D0328C0F2DA86DFF80E
S1134570D45701F089FBA0F114012829286013D82D
S1134580D04ADFF8C41710600860012240F21F10FF
S113459002F039FC1422DFF8B417204601F0B8FD0C
S11345A001F0F4F9FFF7DBBA9F25FFF773B8A07D9C
S11345B00328C0F2B686DFF88C5701F065FB411F73
S11345C040F69C729142286014D2DFF86835DFF817
S11345D078171860086002224FF4907002F013FC00
S11345E01422DFF86817204601F092FD01F0CEF99D
S11345F0FFF7B5BAA025FFF74DB8A07D032806DA6A
S1134600401CC2B2012A7FF4F8AE0220F5E6DFF8BE
S1134610040C0278303A02EB82018278C078303A96
S113462002EB410202EB8201303800EB4100DFF87B
S11346301417A0F11902B02A086014D2DFF8F81494
S113464008600222DFF80017086040F2231002F02D
S1134650DAFB1422DFF8F416204601F059FD01F0CC
S113466095F9FFF77CBAA125FFF714B8A07D0328BC
S1134670C6DBDFF8A00B0278303A02EB82018278C5
S1134680C078303A02EB410202EB8201303800EB91
S11346904100DFF8B016B0F57A7F086014D2DFF875
S11346A09C24DFF8A41610600860022240F2251052
S11346B002F0A9FB1422DFF89416204601F028FD2D
S11346C001F064F9FFF74BBAA225FEF7E3BFA07D22
S11346D00328FFF68DAEDFF83C0B0278303A02EB8C
S11346E082014278C078303A02EB410202EB820147
S11346F0303800EB4100DFF84C167928086014D2FA
S1134700DFF83C24DFF8401610600860022240F213
S11347102B1002F078FB1422DFF83016204601F04B
S1134720F7FC01F033F9FFF71ABAA325FEF7B2BF7D
S1134730A07D0328FFF65CAEDFF8D80A0278303A91
S113474002EB82014278C078303A02EB410202EB7C
S11347508201303800EB4100DFF8E8157928086061
S113476014D2DFF8E023DFF8E015106008600222BD
S113477040F22D1002F047FB1422DFF8D01520463A
S113478001F0C6FC01F002F9FFF7E9B9A425FEF730
S113479081BFA07D0328FFF633AFDFF8780A0278E3
S11347A0303A02EB82018278C078303A02EB41025F
S11347B002EB8201303800EB4100DFF88815A0F1EC
S11347C03202972A086013D2DF4908600222DFF818
S11347D07815086040F2311002F015FB1422DFF85E
S11347E06C15204601F094FC01F0D0F8FFF7B7B93E
S11347F0A525FEF74FBFA07D0328C0F29285DFF800
S1134800445501F041FAA0F10A0140F2C772914205
S1134810286013D2CD4BDFF830159860086002226F
S113482040F2371002F0EFFA1422DFF82015204688
S113483001F06EFC01F0AAF8FFF791B9A625FEF786
S113484029BF1422DFF8A01CDFF8A00C01F060FCE3
S11348501422DFF89C1C204601F05AFC01F096F863
S113486002F0FCFD1422DFF88C1C204601F050FC01
S113487001F08CF804F0F0FD022005F0A8F84C25B6
S1134880FEF708BFDC8E010038FDFF1F1CE8FF1F88
S113489020E8FF1F24E8FF1F640000202CE8FF1F0E
S11348A030E8FF1F48E8FF1F4CE8FF1F50E8FF1FD8
S11348B03CE8FF1F40E8FF1F0CE8FF1F10E8FF1F44
S11348C028E8FF1F18E8FF1FA1490A7040F23910B9
S11348D0DFF874140A70012202F095FA1422DFF84A
S11348E0181C204601F014FC01F050F8012005F0DA
S11348F06EF8FFF734B99649012008700122DFF8F9
S113490048140A7040F2391002F07DFA1422DFF8DC
S1134910E81B204601F0FCFB01F038F8012005F00B
S113492056F8FFF71CB98B490A704FF49F70DFF8F3
S113493018140A70012202F066FA1422DFF8B81B78
S1134940204601F0E5FB01F021F8012005F03FF8D5
S1134950FFF705B97F49012008700122DFF8E81349
S11349600A704FF49F7002F04EFA1422DFF8881B8D
S1134970204601F0CDFB01F009F8012005F027F8ED
S1134980FFF7EDB87349022008700122DFF8B8136D
S113499008704FF49F7002F036FA1422DFF8581BA7
S11349A0204601F0B5FB00F0F1FF012005F00FF8FF
S11349B0FFF7D5B8A07D0328FFF622AEDFF8540830
S11349C0DFF880330278303A02EB82018278C078D3
S11349D0303A02EB410202EB8201303840F21D22F0
S11349E000EB4100A0F132019142186011D25A4B00
S11349F0D5491860086002224FF4A07002F003FA4F
S1134A001422D249204601F083FB00F0BFFFFFF7D8
S1134A10A6B8A725FEF73EBEA07D0328FFF6F0AD9D
S1134A20DFF8F007C74B0278303A02EB8201827854
S1134A30C078303A02EB410202EB8201303840F296
S1134A401D2200EB4100A0F132019142186011D205
S1134A50AD4BBD491860086002224FF4A17002F00A
S1134A60D2F91422B949204601F052FB00F08EFF1E
S1134A70FFF775B8A825FEF70DBEA07D0328FFF645
S1134A80BFADDFF890070278303A02EB82018278FA
S1134A90C078303A02EB410202EB8201303800EB7D
S1134AA04100A84940F24F229042086011D2974B2E
S1134AB0A5491860086002224FF4A27002F0A3F91D
S1134AC01422A249204601F023FB00F05FFFFFF708
S1134AD046B8A925FEF7DEBDA07D0328FFF690ADFC
S1134AE0DFF83007974B0278303A02EB8201827884
S1134AF0C078303A02EB410202EB8201303840F2D6
S1134B001D2200EB4100A0F132019142186025D230
S1134B107F4B8D491860086002224FF4A37002F0A5
S1134B2072F914228949204601F0F2FA00F02EFFAE
S1134B30FFF715B844E8FF1F54E8FF1F58E8FF1FAC
S1134B40A0000020A4000020A800002024E0FF1FF3
S1134B506BE8FF1F2801002080000020AA25FEF733
S1134B6099BDA07D0328C0F2DC83764D01F08CF85A
S1134B7042F210718842286011D2664A724910606C
S1134B80086002224FF4A47002F03DF914226F4928
S1134B90204601F0BDFA00F0F9FEFEF7E0BFAB25B8
S1134BA0FEF778BDA07D0328C0F2BB83654D01F0FC
S1134BB06BF842F210718842286011D2564A624959
S1134BC01060086002224FF4A57002F01CF9142250
S1134BD05E49204601F09CFA00F0D8FEFEF7BFBF04
S1134BE0AC25FEF757BDA07D0328C0F29A83554D2E
S1134BF001F04AF8A0F1320140F2B7329142286044
S1134C0011D2464B504918600860022240F24D1000
S1134C1002F0F9F814224D49204601F079FA00F027
S1134C20B5FEFEF79CBFAD25FEF734BDA07D03287D
S1134C30C0F27783434D01F027F840F638118842DB
S1134C40286011D2364A404910600860022240F2BE
S1134C504F1002F0D8F814223C49204601F058FACB
S1134C6000F094FEFEF77BBFAE25FEF713BDA07DDA
S1134C700328C0F25683334D01F006F8411F1A2968
S1134C80286011D2274A304910600860012240F29E
S1134C90511002F0B8F814222C49204601F038FAD9
S1134CA000F074FEFEF75BBFAF25FEF7F3BC1E49B0
S1134CB00A704FF4D27024490A70012202F0A3F85A
S1134CC01422DFF83418204601F022FA00F05EFEC8
S1134CD0012004F07CFEFEF742BF13490120087056
S1134CE0012219490A704FF4D27002F08CF8142290
S1134CF0DFF80418204601F00BFA00F047FE01200B
S1134D0004F065FEFEF72BBF84000020880000201D
S1134D108C00002034E8FF1F38E8FF1F90000020BB
S1134D209400002098000020210100205CE8FF1F6F
S1134D3060E8FF1F64E8FF1F1F0100201E01002020
S1134D407400002028000020D8FFFF1FE48E01001B
S1134D50A07D0328C0F2E582DFF87C5D00F094FFBB
S1134D60A0F10A01BE29286014D8DFF8182CDFF856
S1134D706C1D10600860022240F2A51002F043F896
S1134D801422DFF85C1D204601F0C2F900F0FEFD9C
S1134D90FEF7E5BEB125FEF77DBCA07D0328C0F279
S1134DA0C082DFF8345D00F06FFFA0F10A01BE2974
S1134DB0286014D8DFF8D02BDFF8201D10600860BD
S1134DC0022240F2A71002F01EF81422DFF8101D90
S1134DD0204601F09DF900F0D9FDFEF7C0BEB225D2
S1134DE0FEF758BCA07D0328C0F29B82DFF8E85C84
S1134DF000F04AFFA0F10A01BE29286014D8DFF8A8
S1134E00E42CDFF8D81C10600860022240F2A910DC
S1134E1001F0F9FF1422DFF8C81C204601F078F9EC
S1134E2000F0B4FDFEF79BBEB325FEF733BCA07DB6
S1134E300328C0F27682DFF8A05C00F025FF28602A
S1134E40C0B140F2F511884214D2DFF89C2CDFF88F
S1134E508C1C1070086001224FF4CE7001F0D3FF57
S1134E601422DFF87C1C204601F052F900F08EFD7C
S1134E70FEF775BEB425FEF70DBCA07D0328C0F275
S1134E805082DFF8545C00F0FFFE2860C0B140F2AD
S1134E90F511884214D2DFF8542CDFF8401C10704E
S1134EA00860012240F29D1001F0ADFF1422DFF8EA
S1134EB0301C204601F02CF900F068FDFEF74FBECF
S1134EC0B525FEF7E7BB2925FEF7E4BB02F072FA2D
S1134ED0FEF745BE84B0DFF8FC1C68462C2201F0C6
S1134EE017F90FBC04F03DFEDFF8EC6CDFF8EC5C66
S1134EF03268DFF8EC6C002380185941C5E90001E1
S1134F00284604F0D7FE306001460A2348698A68BF
S1134F106438486192FBF3F30869401C086130333C
S1134F20BC4803700A238A6892FBF3F303EB8305FE
S1134F30A2EB4502303242700A234A6892FBF3F333
S1134F40303383700A22496891FBF2F202EB820348
S1134F50A1EB43013031C1700020A075B725FEF7E5
S1134F6099BB84B0DFF86C1C68462C2201F0D0F8A1
S1134F700FBC04F0F6FDDFF8606CDFF8605C3268AB
S1134F80DFF85C6C002380185941C5E9000128460C
S1134F9004F090FE014630600A234A690869643AC5
S1134FA0401C4A61086192FBF3F29A483032027065
S1134FB04A6992FBF3F303EB8305A2EB450230321B
S1134FC042700A230A6992FBF3F3303383700A2395
S1134FD00A6992FBF3F303EB8305A2EB450230323B
S1134FE0C2700A23CA6892FBF3F3303303710A22B6
S1134FF0C96891FBF2F202EB8203A1EB4301303169
S113500041710020A075B825FEF744BBBB25FEF70F
S113501041BBDFF8A05CDFF8D4041422294601F078
S113502077F814222946204601F072F8CEA0DFF862
S1135030881C02780A700120A0767F226421002057
S113504022776176A075BC25FEF724BBBF25FEF749
S113505021BBDFF8605CDFF894041422294601F0D8
S113506057F814222946204601F052F8BEA0DFF872
S1135070481C02780A700120A0767F226421002057
S113508022776176A075C025FEF704BBDFF8901C7B
S1135090CF200870C1256277FEF7FCBAC425FEF75D
S11350A0F9BA217FA07D7F292DD1012819D1DFF8FC
S11350B0046CDFF838041422314601F029F8142274
S11350C03146204601F024F8A7A0DFF8EC1B027853
S11350D00A70642001220021A2766076A175FEF791
S11350E0D9BA00283EF43BAD20202077FBF758F8CE
S11350F0A07D484A401EA0750021C0B211547F20F3
S11351002077FEF72CBD434B19547F2120282177AB
S1135110BEF6C0AA401CA075C0B21A54FEF7BABAB3
S1135120A07D0328C0F2FD803A480178303901EBB4
S113513081024178303901EB4201182921D20A4613
S11351408178303901EB8103C178303901EB4301B7
S11351503B2914D8DFF8CC0BDFF87C6ADFF8C87B76
S1135160C261002381614361336001233B70DFF836
S1135170BC0B0260DFF860291160FEF78BBAC5250D
S1135180F5E7C525F6E7A07D052840F3CA80214E42
S1135190DFF8447931787278303901EB8100303AA4
S11351A002EB4002102A3A6036D9B078F378757968
S11351B000EB8001307903EB4103A3F1100100EB14
S11351C0800305EB4305A5F11000D2B2C9B2C0B209
S11351D000F0FEFD256A01281ED1DFF8480B3A686D
S11351E08262B178F37801EB810203EB4203A3F509
S11351F0047343623179737901EB810203EB420357
S1135200A3F5047303620120DFF8241B0870FEF782
S113521041BA00BFE8FEFF1FC625FEF73BBACA2508
S1135220FEF738BACB25FEF735BADFF8081B098834
S1135230C80746BF4FF6FE70014041F00101DFF898
S1135240F42A1180FEF726BADFF8E81A09888807DD
S113525058BF41F00201F2D508464FF6FD710140F6
S1135260EDE7DFF8D01A0988480758BF41F0040178
S1135270E5D508464FF6FB71F1E7DFF8B81A09885F
S1135280080758BF41F00801D9D508464FF6F77111
S1135290E5E7DFF8A01A0988C80658BF41F01001F5
S11352A0CDD508464FF6EF71D9E7DFF8881A09889B
S11352B0880658BF41F02001C1D508464FF6DF717A
S11352C0CDE7DFF8701A0988480658BF41F040015D
S11352D0B5D508464FF6BF71C1E7DFF8581A0988FB
S11352E0080658BF41F08001A9D508464FF67F71E2
S11352F0B5E7DFF8401A0988C80558BF41F4807142
S11353009DD508464FF6FF61A9E7DFF82C0A01781E
S1135310491E8941C90F0170FEF7BCB9A07D03285D
S113532003DAA07D401CFFF768B8DFF8AC5700F043
S1135330ABFC642828603FF652ADDFF8001A086021
S11353400222DFF89817086040F2AB1001F05BFD11
S11353501422DFF88C17204600F0DAFE00F016FB6A
S1135360256A0020FFF749B800000000DFF8D009E3
S1135370017801297EF4F3AB062202700020DFF8E5
S1135380C419DFF8C459DFF8C46908600021042097
S113539003F03AFF0021002003F036FF0021012032
S11353A003F032FF0021122003F02EFF00202870AA
S11353B001272878327807FA00F10A40002A07DC2E
S11353C02878401C2870C0B20828F2DBFEF7C7BB5F
S11353D008300021C0B203F017FFF1E701F0F9FF34
S11353E0FEF7BDBB1125FEF755B90021002003F0DF
S11353F00BFFFEF7B4BB0021012003F005FFFEF70D
S1135400AEBB0021022003F0FFFE256ADFF840193D
S1135410DFF84039002008701870DFF83C19DFF815
S11354203C3908701860FEF735B90021032003F0F9
S1135430EBFEFEF794BB0021042003F0E5FEFEF72B
S11354408EBB0021052003F0DFFEFEF788BB0021A0
S1135450062003F0D9FEDFF808190020086003F0E5
S1135460FBFFFEF77CBB0021082003F0CDFEFEF716
S113547076BB0021092003F0C7FEFEF770BB0021B4
S11354800A2003F0C1FEFEF76ABB00210B2003F0E3
S1135490BBFEFEF764BB00210C2003F0B5FEFEF753
S11354A05EBB00210D2003F0AFFEFEF758BB0021C8
S11354B00E2003F0A9FEFEF752BB00210F2003F0DB
S11354C0A3FEFEF74CBBDD25FEF7E4B8DFF80C16AF
S11354D001200870DE25FEF7DDB8DFF80016012094
S11354E00870DF25FEF7D6B8F88E010048FFFF1FCD
S11354F00C8F0100208F0100348F0100E025FEF79E
S1135500C9B8E125FEF7C6B8401EE8283EF6C2A891
S1135510DFE810F0FE00FE00FE00FE00FE001B02AD
S11355201E021E021E021E021E021E021E021E0277
S11355301E021E0221022102210221022102210255
S1135540210221022102210221022102210221023F
S1135550210221022102210221022102FE00FE0079
S1135560FE000E02110211020E020E020E020E02C3
S11355700E020E020E02ED00ED00ED00ED00ED0056
S1135580ED00ED00ED00ED00ED00ED00ED00ED00AF
S1135590ED00ED00ED00ED00ED00ED00ED00ED009F
S11355A0ED00ED00ED00ED00ED00ED00ED00ED008F
S11355B0ED00ED00ED00ED00ED00ED00ED00ED007F
S11355C0ED00ED00ED00ED00ED00ED00ED002B0130
S11355D00101040107010A010D0110011301160163
S11355E019011C011F012201250128012E0131018D
S11355F0340137013A013D014001430146014901AB
S11356004C01EB004F015B016801680168016B010B
S11356106E017101740177017A017D0180018301BA
S1135620860189018C018F01920195012B010101F1
S1135630040107010A010D011001130116011901EA
S11356401C011F012201250128012E013101340111
S113565037013A013D0140014301460149014C0132
S11356606B016E017101740177017A017D01800182
S11356708301860189018C018F0192019501180231
S113568098019B019E019E01A401A701A101A10112
S1135690CB01CE01F201F201F201F501FC01FF019F
S11356A002020202020205020802080208020802BB
S11356B008020802080208020802080208020B0293
S11356C0E9002402240224022402240227022A02DA
S11356D02E0232023502EF00EF00EF00EF00F2007D
S11356E0F500F800FB00FDF7D5BFFFF7C8B8FDF7DC
S11356F0E8BF0125FDF7CEBFE225FDF7CBBFE325CB
S1135700FDF7C8BFE425FDF7C5BFE525FDF7C2BF1A
S11357100025FDF7BFBF3325FDF7BCBF3425FDF7DA
S1135720B9BF3525FDF7B6BF3625FDF7B3BF37251D
S1135730FDF7B0BF3825FDF7ADBF3925FDF7AABF8A
S11357403A25FDF7A7BF3B25FDF7A4BF3C25FDF790
S1135750A1BF3D25FDF79EBF3E25FDF79BBF3F251D
S1135760FDF798BF4025FDF795BF3225FDF792BFA1
S11357704125FDF78FBF4225FDF78CBF4325FDF77B
S113578089BF4425FDF786BF4525FDF783BF462520
S1135790FDF780BF4725FDF77DBF4825FDF77ABF9C
S11357A04925FDF777BF4A25FDF774BF4B25FDF763
S11357B071BFDFF8B0150A7040F23910C7490A709A
S11357C0012201F020FBFEF789B8DFF898150120CB
S11357D008700122C1490A7040F2391001F013FB2C
S11357E0FEF77CB84E25FDF755BF4F25FDF752BF98
S11357F05025FDF74FBF5125FDF74CBF5225FDF74E
S113580049BF5325FDF746BF5425FDF743BF552532
S1135810FDF740BF5625FDF73DBF5725FDF73ABFBD
S11358205825FDF737BF5925FDF734BF5A25FDF735
S113583031BF5B25FDF72EBF5C25FDF72BBF5D2532
S1135840FDF728BF2C25FDF725BF2D25FDF722BF29
S11358502E25FDF71FBF2F25FDF71CBFB925FDF72A
S113586019BFDFF804552946202000F003FB20224D
S1135870294640F2FD2001F0C6FA2E2020621422AF
S1135880DFF8E814DFF8E80400F042FC1422DFF843
S1135890E414204600F03CFC0020A07600F076F8EA
S11358A0032004F094F8FEF75AB9BD25FDF7F2BEC3
S11358B0DFF8B4542946202000F0DCFA20222946DF
S11358C040F21D3001F09FFA2F2020621422DFF8ED
S11358D0A814DFF89C0400F01BFC1422DFF89414D5
S11358E0204600F015FC0020A07600F04FF80320BD
S11358F004F06DF8FEF733B93025FDF7CBBEDFF8C1
S113590034144FF6FF700880FEF700B8A275FFF755
S113591025BBA275FFF777BB2725FDF7BBBEC725BF
S1135920FDF7B8BEC825FDF7B5BED525FDF7B2BE57
S11359300325FDF7AFBEDFF8FC134FF6FF700880B8
S1135940FEF719B92B25FDF7A5BE0725FDF7A2BE65
S11359500625FDF79FBE1025FDF79CBEC925FDF762
S113596099BED825FDF796BE5C490A70FDF7B8BF0D
S11359705A490A70FDF7B6BFDB25FDF78BBEDC255F
S1135980FDF788BE5CE8FF1F60E8FF1FFEB5DFF887
S1135990EC73C94C3879DFF8E853DFF8D463022894
S11359A00CD11422DFF8DC13304600F0B1FB1422D2
S11359B0DFF8D413284600F0ABFB11E001280FD127
S11359C01422DFF8C813304600F0A2FB3A68DFF86F
S11359D0C013204600F0FCFB2946204600F092FA52
S11359E07B2000F028F900202875A6A7DFF8A4037F
S11359F000F030F9304600F02DF9384600F02AF96D
S1135A00284600F027F9384600F024F9DFF8880327
S1135A1000F020F9687E642190FBF1F03030C0B2D0
S1135A2000F009F9687E0A2390FBF3F00A2190FB49
S1135A30F1F101EB8102A0EB42003030C0B200F082
S1135A40FAF8687E0A2190FBF1F101EB8102A0EBE8
S1135A5042003030C0B200F0EEF8A87E01280CBF3E
S1135A604120492000F0E7F8CC4800F0F3F82A7D03
S1135A708FA1204600F0ACFB204600F0EBF8287E16
S1135A80012810D1A87E01280CBF41204920019093
S1135A902B46687EC24900903246204600F098FBAF
S1135AA0204600F0FEFA287E022813D1A87E0128A1
S1135AB00CBF4120492001902B46687EB9490090D3
S1135AC03246204600F084FB204603B0BDE8F04097
S1135AD004F07DB903B0F0BD28000020D8FFFF1FFB
S1135AE0E48E010064E8FF1F1F0100201E01002056
S1135AF0F0B4AD49087810F0E00F09D0087840F010
S1135B0080000870B1F80310A8480170F0BC704719
S1135B100A78500726D5A54AB1F80330984C13707B
S1135B20E07EF8B913787B2B02D07D2B2ED03EE09B
S1135B3090789F4CC0B90025257001249470D070D2
S1135B40507801280ED10A789007FCD51846A1F8A0
S1135B5003008B48017D5B1803754FF4FA70F0BCA9
S1135B6003F034BFF0BC7047D07806466427642540
S1135B7096FBF7F705FB17667B27A755401CC0B2B9
S1135B80642490FBF4F405FB1400D8E79078012812
S1135B90D6D1D578864F642695FBF6F6642000FBB3
S1135BA01655002078550125E5769070C8E7D07821
S1135BB005466426642495FBF6F604FB16557C4FD3
S1135BC07B55401CC0B2642590FBF5F504FB150021
S1135BD0B5E7000048FDFF1FA4FFFF1FC0FFFF1F24
S1135BE09CFFFF1F7348016841F00601016080219A
S1135BF07148026842F04002026001226F4841701D
S1135C0002700023437100210171AD228281802141
S1135C1043786B4A43F00303437011608023DFF839
S1135C20A4C1CCF800302021674A1170437843F0B6
S1135C301003437070475C490A789307FCD5024609
S1135C40A1F803204E490A7D801808754FF4FA70B4
S1135C5003F0BCBE38B50446534D0EE029788A07DC
S1135C60FCD50146A5F80310641C45490A7D80183B
S1135C7008754FF4FA70C046C04620780028EDD16C
S1135C8031BD00000D0A000037480378427803EB69
S1135C90830102EB41028178C07802EB820301EBBD
S1135CA0430101EB810200EB4200484908187047A8
S1135CB025647D00488F010048F9FF1F30B40A2194
S1135CC0B0FBF1F101EB8104274AA0EB440430342A
