S0390000736B2D666D332D3438706D632D757362737469636B5F7573625F6465766963655F7669727475616C5F636F6D5F706F72742E73726563CC
S113000028050020959E0100B19E0100B59E0100C7
S1130010B99E0100BD9E0100C19E010000000000C8
S1130020000000000000000000000000C59E010068
S1130030C99E010000000000CD9E0100D19E010078
S1130040D59E0100D99E0100DD9E0100E19E0100C4
S1130050E59E0100E99E010099960000C958000040
S1130060C79C010005990000FD9E01000D47010099
S1130070059F0100917500000D9F0100519F010033
S1130080519F0100119F0100159F0100519F010024
S1130090519F0100519F0100519F0100199F0100D0
S11300A01D9F0100C59C0100259F0100519F010077
S11300B0299F01002D9F0100319F0100359F010000
S11300C0519F0100519F0100D19C0100DD9C010062
S11300D0519F0100519F0100419F0100459F010074
S11300E0499F01004D9F0100519F0100519F010054
S11300F0519F0100519F0100519F0100519F010038
S113010038B5224DE87E012833D1214C21492046BF
S113011005F063FD012802DB012102221BE019A185
S1130120204605F05AFD012802DB0121002212E0DD
S11301301949204605F051FD012802DB0121012265
S113014009E011A1204605F048FDE97D6A7D0128FA
S1130150A4BF01210322E9750021287E6A75E9768E
S113016038B10E4805F085FE2046BDE8324005F062
S113017080BE31BD05487F217E2200230170C273F9
S1130180837670475550000045534300D4FEFF1F4B
S113019038FCFF1FC8770100D0770100D877010031
S11301A0F0B5DFF89C4C206AE82883B002F2B180F5
S11301B0DFE810F0E900FA00060112011E01570100
S11301C0E210241134114A1267128A12CC122A1333
S11301D04713641379139613C913F8132714561489
S11301E0EA141B1556158715B815E9151A164B167A
S11301F07A16A716D216FD16281753177E17AF10B6
S1130200D601E7018E0E260F2E0F9E0EAE0EC00EE7
S1130210D80EEA0E020F140FF301040210021C029E
S11302202802340240024C025802640270027C022A
S113023088029402A002AC02B802C402D002DC021A
S1130240E802F40200030C031803240330033C0304
S1130250AF104803540360036C03780384039203D0
S11302609E03AA03BD03CC03DB03E703F303FF03ED
S11302700B042E0455047E04A804CE04F3041805CC
S11302803D0564058905AE05D405F8051C063D0643
S1130290410648066C068F06B306D006ED06F7063F
S11302A001071E0742074E076407AF10AF10AF10D7
S11302B0B607D507F407130832085B088408AD08AD
S11302C0D708FF08280928094A0968098F09E3099A
S11302D0EF09FB09070A130A1F0A2B0A370A430A04
S11302E04F0A5B0A680A750A820A8F0A9C0AA90ADD
S11302F0B60AC60AD30AE00AF00AFD0A0A0B1A0B68
S1130300AF10270B340B440B510B5E0B6E0B7B0BA6
S1130310880B960B1209A60BB30BC10BD20BDF0B88
S1130320AF10420F670FB60FC60FFE0F0510CC0FAC
S1130330DC0F301005108310B410BF10CA10A20FC8
S1130340AC0FF00B000C0B0C220C510C720C8C0C2F
S1130350AA0CC40CE00CF90C1C0D350D4E0D6C0DE3
S1130360AF10980DA90DB30DBD0DCE0DE60D1C0EED
S1130370320E4C0E6E0E6401750181018D019901DE
S1130380A601B301C0011422DFF8E41CDFF8E40C79
S113039005F0A6FD1422DFF8E01C204605F0A0FDC0
S11303A07E20E07301F029BE1422DFF8C41CDFF8BC
S11303B0C40C05F095FD1422DFF8D81C01F0A2BD91
S11303C01422DFF8AC1CDFF8AC0C05F089FD142214
S11303D0DFF8C41C01F096BD1422DFF8941CDFF88A
S11303E0940C05F07DFD1422DFF8B01C01F000BE72
S11303F0657EDFF8AC1CDFF87C0C142205F070FD80
S11304001422DFF8A01C204605F06AFDA07D032815
S113041008D8DFE800F0020B131CDFF88C1C087806
S1130420A071CE256576012001F0F6BF7820A07179
S1130430CF25DFF8741C4878E071F3E77820A071C9
S1130440E071D025DFF8600C81782172EAE778202A
S1130450A071E0712072D125DFF84C1CC87860725D
S1130460E0E71422DFF8381CDFF8080C05F038FD4B
S11304701422DFF8381C204601F0CBBF1422DFF829
S1130480301CDFF8F00B05F02BFD1422DFF8241CE0
S1130490204605F025FD7E20E07301F0AEBD142258
S11304A0DFF80C1CDFF8CC0B05F01AFD1422DFF882
S11304B0081C01F027BD1422DFF8F41BDFF8B40B8D
S11304C005F00EFD1422DFF8F41B01F01BBD14220D
S11304D0DFF8DC1BDFF89C0B05F002FD1422DFF8CB
S11304E0E01B01F085BD1422DFF8D81BDFF8840B74
S11304F005F0F6FC1422DFF8D01B204601F089BF7A
S11305001422DFF8C81BDFF86C0B05F0E9FC142299
S1130510DFF8BC1B204601F07CBF1422DFF8B41BBB
S1130520DFF8500B05F0DCFC1422DFF8AC1B20468E
S113053001F06FBF1422DFF8A41BDFF8380BDFF8DB
S1130540A05B05F0CDFCDFF89C0B0268E1A1284616
S113055005F026FD2146284605F0BCFB01F05BBFF3
S11305601422DFF8841BDFF80C0B05F0B9FC14220D
S1130570DFF8781B204605F0B3FC7E20E07301F021
S11305803CBD1422DFF8601BDFF8E80A05F0A8FC84
S11305901422DFF85C1B01F02BBD1422DFF8541B7E
S11305A0DFF8D00A05F09CFC1422DFF84C1B20462F
S11305B005F096FC7E20E07301F01FBD1422DFF8E5
S11305C0341BDFF8B00A05F08BFC1422DFF82C1B77
S11305D001F098BC1422DFF81C1BDFF8980A05F020
S11305E07FFC1422DFF8181B01F08CBC1422DFF806
S11305F0041BDFF8800A05F073FC1422DFF8041BE7
S113060001F080BC1422DFF8EC1ADFF8680A05F068
S113061067FC1422DFF8F01A01F074BC1422DFF82E
S1130620D41ADFF8500A05F05BFC1422DFF8DC1A58
S113063001F068BC1422DFF8BC1ADFF8380A05F0B0
S11306404FFC1422DFF8C81A01F05CBC1422DFF856
S1130650A41ADFF8200A05F043FC1422DFF8B41AC8
S113066001F050BC1422DFF88C1ADFF8080A05F0F8
S113067037FC1422DFF8A01A01F044BC1422DFF87E
S1130680741ADFF8F00905F02BFC1422DFF88C1A39
S113069001F038BC1422DFF85C1ADFF8D80905F041
S11306A01FFC1422DFF8481D01F02CBC1422DFF8D3
S11306B0441ADFF8C00905F013FC1422DFF8341DD6
S11306C001F020BC1422DFF82C1ADFF8A80905F089
S11306D007FC1422DFF8201D01F014BC1422DFF8FB
S11306E0141ADFF8900905F0FBFB1422DFF80C1D47
S11306F001F008BC1422DFF8FC19DFF8780905F0D2
S1130700EFFB1422DFF8F81C01F0FCBB1422DFF825
S1130710E419DFF8600905F0E3FB1422DFF83C1D5F
S113072001F0F0BB1422DFF8CC19DFF8480905F01A
S1130730D7FB1422DFF8281D01F0E4BB1422DFF8F4
S1130740B419DFF8300905F0CBFB1422DFF8141DCF
S113075001F0D8BB1422DFF89C19DFF8180905F062
S1130760BFFB1422DFF8001D01F0CCBB1422DFF81C
S11307708419DFF8000905F0B3FB1422DFF8EC1C40
S113078001F0C0BB1422DFF86C19DFF8E80805F0AB
S1130790A7FB1422DFF8D81C01F0B4BB1422DFF845
S11307A05419DFF8D00805F09BFB1422DFF8C41CB1
S11307B001F0A8BB1422DFF83C19DFF8B80805F0F3
S11307C08FFB1422DFF8B01C01F09CBB1422DFF86D
S11307D02419DFF8A00805F083FB1422DFF89C1C21
S11307E001F090BB1422DFF80C19DFF8880805F03B
S11307F077FB1422DFF8881C01F084BB1422DFF895
S1130800F418DFF8700805F06BFB1422DFF80C1DF8
S113081001F078BB1422DFF8DC18DFF8580805F083
S11308205FFB1422DFF8F81C01F06CBB1422DFF824
S1130830C418DFF8400805F053FB1422DFF8E41C69
S113084001F060BB1422DFF8AC18DFF8280805F0CB
S113085047FB1422DFF8D01C01F054BB1422DFF84C
S11308609418DFF8100805F03BFB1422DFF8BC1CD9
S113087001F048BB1422DFF87C18DFF8F80705F014
S11308802FFB1422DFF8A81C01F03CBB1422DFF874
S11308906418DFF8E00705F023FB1422DFF8941C4A
S11308A001F030BB1422DFF84C18DFF8C80705F05C
S11308B017FB1422DFF8801C01F024BB1422DFF89C
S11308C03418DFF8B00705F00BFB1422DFF86C1CBA
S11308D001F018BB256400001422DFF81818DFF8B3
S11308E0940705F0FDFA1422DFF8541C01F00ABB4A
S11308F01422DFF80018DFF87C0705F0F1FA14225F
S1130900DFF8401C01F0FEBA1422DFF8E817DFF824
S1130910640705F0E5FA1422DFF82C1C204605F0E4
S1130920DFFA7F202070FFF725FC01F066BB14225C
S1130930DFF8C017DFF83C0705F0D2FADFF80C0C3B
S113094090E82E0084E82E0001F0DFBA1422DFF8CC
S1130950A417DFF8200705F0C3FADFF8F40B90E8DA
S11309602E0084E82E0001F0D0BA1422DFF8841798
S1130970DFF8000705F0B4FA1422DFF8D81B01F001
S1130980C1BA1422DFF86C17DFF8E80605F0A8FAFC
S11309901422DFF8C41B01F0B5BA1422DFF854178F
S11309A0DFF8D00605F09CFA0F22DFF8B01B01F047
S11309B0A9BA1422DFF83C17DFF8B80605F090FA5C
S11309C00F22DFF89C1B01F09DBA1422DFF8581D9A
S11309D0DFF8A00605F084FA41F288330022DFF83C
S11309E0841B204605F0DCFADFF8BC060178A1710F
S11309F04278E27181782172C278A07D6272032804
S1130A0001F2FB82DFE810F0B40526004F00790004
S1130A101422DFF8681DDFF85C0605F061FA1E2376
S1130A200222DFF8401B204605F0BAFADFF8780608
S1130A300178A1714278E27181782172C278A07D37
S1130A406272032801F2D982DFE810F092050400F3
S1130A502D005700CF216176012001F0DDBC142266
S1130A60DFF86C1DDFF80C0605F03AFA4FF4FA7360
S1130A700A22DFF8F01A204605F092FADFF8280679
S1130A800178A1714278E27181782172C278A07DE7
S1130A906272032801F2B182DFE810F06A050400F3
S1130AA005002F00D6E7D0216176012001F0B4BC07
S1130AB01422DFF8701DDFF8BC0505F011FA4FF4BD
S1130AC0FA730A22DFF89C1A204605F069FADFF867
S1130AD0D8050178A1714278E27181782172C278D7
S1130AE0A07D6272032801F28882DFE810F04105DC
S1130AF0050004000600D6E7ACE7D12161760120A9
S1130B0001F08ABC1422DFF8701DDFF8680505F0D7
S1130B10E7F94FF4FA730022DFF8481A204605F08B
S1130B203FFADFF884050178A1714278E271817897
S1130B302172C278A07D6272032801F25E82DFE82E
S1130B4010F01705060005000400D6E7ABE781E7BF
S1130B501422DFF8941DDFF81C0505F0C1F9C82341
S1130B600122DFF8001A204605F01AFADFF83805EA
S1130B700178A1714278E27181782172C278A07DF6
S1130B806272032801F23982DFE810F0F2040600F1
S1130B9005000400B1E786E75CE71422DFF89C1D3A
S1130BA0DFF8D00405F09CF9C8230122DFF8B4195A
S1130BB0204605F0F5F9DFF8F0040178A1714278D8
S1130BC0E27181782172C278A07D6272032801F2F9
S1130BD01482DFE810F0CD040600050004008CE761
S1130BE061E737E71422DFF8A81DDFF8880405F071
S1130BF077F9C8230122DFF86C19204605F0D0F9F3
S1130C00DFF8A4040178A1714278E271817821723D
S1130C10C278A07D6272032801F2EF81DFE810F050
S1130C20A80406000500040067E73CE712E7142265
S1130C30DFF8BC1DDFF83C0405F052F94FF4E15332
S1130C404FF49672DFF81C19204605F0A9F9DFF875
S1130C5058040178A1714278E27181782172C278D6
S1130C60A07D6272032801F2C881DFE810F08104DC
S1130C7006000500040040E715E7EBE61422DFF860
S1130C80741DDFF8F00305F02BF914230122DFF8BB
S1130C90D418204605F084F9DFF80C040178A1711A
S1130CA04278E27181782172C278A07D6272032851
S1130CB001F2A381DFE810F05C04060005000400E3
S1130CC01BE7F0E6C6E61422DFF8C81DDFF8A4032C
S1130CD005F006F93C230122DFF88818204605F0C8
S1130CE05FF9DFF8C4030178A1714278E271817879
S1130CF02172C278A07D6272032801F27E81DFE84E
S1130D0010F03704060005000400F6E6CBE6A1E681
S1130D101422DFF8EC1DDFF85C0305F0E1F84FF472
S1130D2061633222DFF83C18204605F039F9DFF818
S1130D3078030178A1714278E27181782172C278D6
S1130D40A07D6272032801F25881DFE810F01104DB
S1130D50060005000400D0E6A5E67BE61422DFF8D1
S1130D60A41DC44805F0BCF83C230A22DFF8F4179C
S1130D70204605F015F9DFF830030178A1714278B7
S1130D80E27181782172C278A07D6272032801F237
S1130D903481DFE810F0ED03060005000400ACE642
S1130DA081E657E61422DFF8C81DB24805F098F82A
S1130DB04FF461631E22DFF8AC17204605F0F0F80B
S1130DC0B9480178A1714278E27181782172C278C0
S1130DD0A07D6272032801F21081DFE810F0C903DC
S1130DE006000500040088E65DE633E61422DFF819
S1130DF0E81DA04805F074F81422DFF8E01D204631
S1130E0005F06EF8A8480178A1714278E271817802
S1130E102172A17DC0786072002900F0A9830129A4
S1130E203FF418AE03293FF468AE01F0E6B814228B
S1130E30DFF8AC1DDDE71422DFF8A81DD9E700BFF9
S1130E40D4FEFF1F1422DFF8A01D8A4805F048F8DD
S1130E504FF4FA630022DFF80C17204605F0A0F8DF
S1130E6091480178A1714278E27181782172C27847
S1130E70A07D6272032801F2C080DFE810F07903DC
S1130E8006000500040038E60DE6E3E51422DFF869
S1130E90F41D784805F024F83C231422DFF8C41626
S1130EA0204605F07DF880480178A1714278E2710E
S1130EB081782172C278A07D6272032801F29D803C
S1130EC0DFE810F0560306000500040015E6EAE525
S1130ED0C0E51422DFF8B01D664805F001F840F6BD
S1130EE0C4130522DFF87C16204605F059F86E4835
S1130EF00178A1714278E27181782172C278A07D73
S1130F006272032801F27980DFE810F032030600F0
S1130F1005000400F1E5C6E59CE51422DFF8281E6F
S1130F20544804F0DDFF1422DFF8201E204604F0AC
S1130F30D7FF5D480178A1714278E271817821720E
S1130F40A17DC0786072002900F0128302293FF469
S1130F50AAAD67E71422DFF81C1E464804F0C0FF60
S1130F601422DFF8141E204604F0BAFF4E4801781C
S1130F70A1714278E27181782172A17DC07860729A
S1130F80002900F0F58202293FF48DAD4AE71422CE
S1130F90DFF8E81D374804F0A3FF1422DFF8341EFD
S1130FA02DE71422DFF8301E324804F099FF142292
S1130FB0DFF8201E23E71422DFF8281E2D4804F052
S1130FC08FFF1422DFF8201E204604F089FF3648E4
S1130FD00178A1714278E27181782172A17DC07893
S1130FE06072002900F0C48202293FF45CAD19E765
S1130FF01422DFF828151F4804F072FF4FF4FA6337
S11310000A22DFF86015204604F0CAFF264801785A
S1131010A1714278E27181782172C278A07D6272F6
S1131020032800F2EA87DFE810F0A30206000500B7
S1131030040062E537E50DE51422DFF8441E0D488F
S113104004F04EFF1422DFF83C1E204601F051B993
S11310501422DFF8341E074804F042FF1422DFF89C
S11310602C1E204604F03CFF7E20E07300F0C5BF38
S11310709879010058FFFF1FAC7901001422DFF8B2
S1131080081EDFF8440E04F02BFF1422DFF83C1E88
S113109000F0AEBFC0790100D4790100E879010005
S11310A0FC790100107A0100F8FEFF1F247A010088
S11310B0387A01004C7A0100607A0100747A0100E8
S11310C0887A01009C7A0100B07A0100C47A010098
S11310D0D87A0100EC7A0100007B0100147B010046
S11310E058F9FF1F44FDFF1F287B01003C7B0100D2
S11310F0507B0100647B0100787B01008C7B010044
S1131100A07B0100B47B0100C87B0100DC7B0100F3
S1131110F07B0100047C0100187C01002C7C0100A0
S11311201422DFF8341EDFF8A00D04F0D9FE1422D7
S1131130DFF8281E204604F0D3FEDFF8240E0178E1
S1131140A1714278E27181782172A17DC0786072C8
S1131150002900F00D8202293FF4A5AC62E61422B6
S1131160DFF8481EDFF8600D04F0BAFE1422DFF841
S1131170EC1D204604F0B4FEDFF8E40D0178A17103
S11311804278E27181782172A17DC0786072002971
S113119000F0EE8102293FF486AC43E61422DFF826
S11311A0101EDFF8240D04F09BFE1422DFF8041E49
S11311B0204604F095FEDFF8A80D0178A17142786D
S11311C0E27181782172A17DC0786072002900F0FB
S11311D0CF8102293FF467AC24E61422DFF8481ECD
S11311E0DFF8E40C04F07CFE1422DFF8701D2046C6
S11311F004F076FEDFF8680D0178A1714278E2719F
S113120081782172A17DC0786072002900F0B081DC
S113121002293FF448AC05E61422DFF8101EDFF87B
S1131220A80C04F05DFE42F20F730022DFF8001EEA
S1131230204604F0B5FEDFF8280D0178A17142784C
S1131240E27181782172C278A07D6272032800F273
S1131250D486DFE810F08D01080006000400FFF7D3
S11312604CBCFFF720BCFFF7F5BB1422DFF8C41D0C
S1131270DFF8540C04F034FE42F20F730022DFF85E
S1131280B01D204604F08CFEDFF8D40C0178A17167
S11312904278E27181782172C278A07D627203285B
S11312A000F2AB86DFE810F06401080006000400D9
S11312B0FFF723BCFFF7F7BBFFF7CCBB1422DFF823
S11312C01C1EDFF8040C04F00BFE4FF47A73322278
S11312D0DFF85C1D204604F063FEDFF8840C01781F
S11312E0A1714278E27181782172A17DC078607227
S11312F0032900F28286DFE811F03B0108000600B2
S11313000400FFF7FABBFFF7CEBBFFF7A3BBDFF880
S1131310380EDFF8B41B90E86C0081E86C0040F6EE
S113132037130022DFF8081D204604F039FEDFF8E9
S1131330300C0178A1714278E27181782172C2780F
S1131340A07D6272032800F25886DFE810F01101D4
S1131350080006000400FFF7D0BBFFF7A4BBFFF7AB
S113136079BB1422DFF8281EDFF85C0B04F0B8FD0B
S11313701E230522DFF8B81C204604F011FEDFF816
S1131380E00B0178A1714278E27181782172C27810
S1131390A07D6272032800F23086DFE810F0E900D5
S11313A0080006000400FFF7A8BBFFF77CBBFFF7AB
S11313B051BB1422DFF8DC1DDFF80C0B04F090FDA8
S11313C00F22DFF8D41D204604F08AFD7E20E0734E
S11313D0FEF7D0FE01F01FB81422DFF8B81DDFF8C5
S11313E0E80A04F07DFD1422DFF8B01D00F000BE11
S11313F0407C0100547C0100687C01007C7C01007D
S1131400907C01001422DFF8981DDFF8BC0A04F078
S113141067FD1422DFF88C1D204604F061FDDFF81F
S1131420400B0178A1714278E27181782172A17D2B
S1131430C078607200293FF40DAB02293FF45DAB24
S1131440FFF431AB00F0D9BDDFF85C0DDFF8781A9A
S113145090E86C0081E86C00DBE700BFA47C01002D
S1131460B87C0100CC7C0100E07C0100F47C01002C
S1131470087D01001C7D0100307D0100447D0100D8
S1131480587D01000F22DFF8241DDFF83C0A04F028
S113149027FD1E2302223349204604F081FDDFF894
S11314A0C00A0178A1714278E27181782172A17D2C
S11314B0C0786072032900F2A085DFE811F05900BA
S11314C0080006000400FFF718BBFFF7ECBAFFF7AB
S11314D0C1BADFF8040EDFF8F01990E86C0081E877
S11314E06C001E2302221F49204604F059FDDFF838
S11314F0700A0178A1714278E27181782172C27810
S1131500A07D6272032800F27885DFE810F03100D4
S11315102F002D000400FFF7F0BA00BF6C7D01001E
S1131520807D0100947D0100A87D0100BC7D010047
S1131530D07D0100E47D0100F87D01000C7E0100F6
S1131540207E0100347E0100487E01005C7E0100A3
S11315506C7E01007C7E0100907E0100A47E01006F
S1131560B47E0100D87E0100FFF79DBAFFF772BA7E
S1131570CE216176012000F04FBF14226A49DFF8C2
S1131580480904F0ADFC1422DFF8E81D204600F001
S113159040BF14227949DFF8300904F0A1FC142279
S11315A0DFF8D01D204600F034BF14228849DFF84C
S11315B0180904F095FC1422DFF8B81D204600F049
S11315C028BF14229749DFF8000904F089FC14228B
S11315D0DFF8A01D204600F01CBF1422A649DFF846
S11315E0E80804F07DFC1422DFF8881D204600F092
S11315F010BF1422BC49DFF8D00804F071FC142297
S1131600DFF8701D204600F004BF1422CB49DFF838
S1131610B80804F065FC1422DFF8581D204600F0D9
S1131620F8BE1422DA49DFF8A00804F059FC1422A9
S1131630DFF8401D204600F0ECBE1422EC49DFF830
S1131640880804F04DFC1422DFF8281D204600F021
S1131650E0BE1422E749DFF8700804F041FC1422CC
S1131660DFF8101D204600F0D4BE1422DFF8241445
S1131670DFF8540804F034FC1422DFF8F81C204688
S113168000F0C7BE1422DFF87814DFF83C0804F039
S113169027FC1422DFF8DC1C204600F0BABE14221A
S11316A0DFF86014DFF8200804F01AFC1422DFF8D5
S11316B0C41C204600F0ADBE1422DFF8B414DFF8D9
S11316C0080804F00DFC1422DFF8A81C204600F0E2
S11316D0A0BE1422DFF8C41DDFF8EC0704F000FC00
S11316E01422DFF8901C204600F093BE1422DFF889
S11316F0F014DFF8D40704F0F3FB1422DFF8741CB1
S1131700204600F086BE1422DFF8D814DFF8B807AC
S113171004F0E6FB1422DFF85C1C204600F079BEDE
S11317201422DFF87C1D01E0C47E0100DFF8980775
S113173004F0D6FB1422DFF83C1C204600F069BEFE
S11317401422DFF84015DFF8800704F0C9FB1422E7
S1131750DFF8201C204600F05CBE1422DFF82815B8
S1131760DFF8640704F0BCFB1422DFF8081C2046F1
S113177000F04FBE1422DFF8D01501E0EC7E01002A
S1131780DFF8440704F0ACFB1422DFF8E81B204622
S113179000F03FBE1422DFF8DC15DFF82C0704F05C
S11317A09FFB1422DFF8CC1B204600F032BE14222B
S11317B0DFF89C1DDFF8100704F092FB1422DFF819
S11317C0B41B204600F025BE1422DFF8AC1D01E056
S11317D0007F0100DFF8F00604F082FB1422DFF83A
S11317E0941B204600F015BE1422DFF8F815DFF82C
S11317F0D80604F075FB1422DFF8781B204600F0AD
S113180008BE1422DFF85017DFF8BC0604F068FBAA
S11318101422DFF8601B204600F0FBBD1422DFF821
S11318208C1701E0147F0100DFF89C0604F058FBDC
S11318301422DFF8401B204600F0EBBD1422DFF831
S11318407017DFF8840604F04BFB1422DFF8241B26
S1131850204600F0DEBD1422DFF8CC17DFF868065E
S113186004F03EFB1422DFF80C1B204600F0D1BD2F
S11318701422DFF8B81701E0287F0100DFF84806DA
S113188004F02EFB1422DFF8EC1A204600F0C1BD50
S11318901422DFF8A017DFF8300604F021FB14222D
S11318A0DFF8D01A204600F0B4BD1422DFF82C185B
S11318B0DFF8140604F014FB1422DFF8B81A2046EB
S11318C000F0A7BDDFF88008DFF8FC1590E86C0095
S11318D081E86C001422DFF89C1A204600F099BDC0
S11318E01422DFF8AC1801E03C7F0100DFF8D805D2
S11318F004F0F6FA1422DFF87C1A204600F089BDC1
S11319001422DFF89C18DFF8C00504F0E9FA142269
S1131910DFF8601A204600F07CBDDFF8D80CDFF851
S1131920A81590E86C0081E86C001422DFF8441AD2
S1131930204600F06EBDDFF8700801E0507F010022
S1131940DFF8841590E86C0081E86C001422DFF85D
S1131950241A204600F05DBD0F22DFF85018DFF88E
S1131960680504F0BDFA1422DFF8081A204600F0D6
S113197050BDDFF86409DFF8501590E86C0081E889
S11319806C001422DFF8EC19204600F042BD00BFC1
S1131990647F01001422DFF8501DDFF82C0504F0E9
S11319A09FFA1422DFF8441D204604F099FA00201F
S11319B0A07694E11422DFF8301DDFF80C0504F062
S11319C08FFA1422DFF8281D9CE21422DFF8181D78
S11319D0DFF8F40404F084FA1422DFF8181D20461A
S11319E004F07EFA00207F21A076217000F091BCE3
S11319F0787F01008C7F01001422DFF8FC1CDFF8E3
S1131A00C80404F06DFA1422DFF8F01C204604F038
S1131A1067FA0020A076DFF8E82C107800F00101C6
S1131A200029C4BF4822A27010F00201C4BF48229A
S1131A30627110F00401C4BF4822227210F0080140
S1131A40C4BF4822E27210F0100040F362844820C0
S1131A50A07300F05EBC1422DFF8A81CDFF8680451
S1131A6004F03EFA0020DFF8A01CA0760A7802F009
S1131A700102002ACCBFD9A2D9A2DFF8905CDFF81A
S1131A80901C284604F08CFA2146284604F022F9DA
S1131A9036E100BFA07F01001422DFF8681CDFF8E4
S1131AA0280404F01DFA0020DFF85C1CA0760A78F4
S1131AB002F00202002ACCBFC8A2C9A2DFF84C5C23
S1131AC0DFF8BC1C284604F06BFA02E11422DFF8AC
S1131AD0341CDFF8F40304F003FA0020DFF8281CB8
S1131AE0A0760A7802F00402002ACCBFBBA2BCA2F2
S1131AF0DFF8185CDFF88C1C284604F051FAE8E0A3
S1131B00B47F0100C87F01001422DFF8F81BDFF85E
S1131B10B80304F0E5F90020DFF8EC1BA0760A789E
S1131B2002F00802002ACCBFACA2ADA2DFF8DC5B55
S1131B30DFF8541C284604F033FACAE01422DFF814
S1131B40C41BE14804F0CCF90020DFF8BC1BA076EC
S1131B500A7802F01002002ACCBFA0A2A0A2DFF8EB
S1131B60AC5BDFF8281C284604F01AFAB1E000BF89
S1131B70DC7F01001422DFF88C1BD34804F0B0F999
S1131B800020DFF8841BA0760A7802F02002002AE5
S1131B90CCBF92A292A2DFF8745BDFF8F41B284654
S1131BA004F0FEF995E01422DFF8581BC64804F04F
S1131BB097F90020DFF8501BA0760A7802F0400263
S1131BC0002ACCBF85A286A2DFF8405BDFF8C41BE5
S1131BD0284604F0E5F97CE0F07F01000480010070
S1131BE0188001002C800100408001001422DFF8DD
S1131BF0141BB54804F074F90020DFF80C1BA07620
S1131C000A7802F08002002ACCBF74A274A2DFF822
S1131C10FC5ADFF8881B284604F0C2F959E0142264
S1131C20DFF8E01AA84804F05BF90020DFF8D81ABE
S1131C30A0760A8802F48072002ACCBF67A268A248
S1131C40DFF8C85ADFF85C1B284604F0A9F940E025
S1131C501422DFF8B01A9C4804F042F90020DFF89F
S1131C60A81AA0760A8802F48072002ACCBF5BA26C
S1131C705BA2DFF8985ADFF8301B284604F090F98D
S1131C8027E000BF54800100688001001422DFF8BF
S1131C90741A8D4804F024F90020DFF86C1AA07639
S1131CA00A8802F48072002ACCBF4CA24CA2DFF84E
S1131CB05C5ADFF8F81A284604F072F9DFF8F03AB3
S1131CC0DFF8F01A1868096800EB8002500004F08D
S1131CD087F92146284603F0FDFF7F2020707E21EE
S1131CE0E17316E31422DFF8D01A774804F0F8F809
S1131CF00020A0761422DFF8C41A204604F0F0F87D
S1131D007E20E07305E31422DFF8AC1A6E4804F079
S1131D10E7F81422DFF8A81AF4E01422DFF8981A7E
S1131D20694804F0DDF81422DFF8981AEAE0142276
S1131D30DFF8841A644804F0D3F80020A076142253
S1131D40DFF8841ADEE000BF7C800100908001008F
S1131D501422DFF8641A5C4804F0C2F80020A0766C
S1131D601422DFF8681A204604F0BAF87F202070A5
S1131D70CFE200BFA4800100B8800100CC80010044
S1131D801422DFF84C1A5048DFF8805904F0A8F800
S1131D900020A076DFF83C1A4868DFF83C1A0E7879
S1131DA0012E0CD104F074FCDFF8302ADFF8303A4D
S1131DB004F092FC0B460246DFF8281A05E004F012
S1131DC067FC0B460246DFF8201A284604F0E8F8C0
S1131DD074E000BFE0800100F48001004F4646003B
S1131DE04F4E0000088101001C8101001422DFF81D
S1131DF0FC193548DFF8145904F072F80020A07675
S1131E006421DFF8BC2C106890FBF1F2DFF8B41CFD
S1131E10284604F0C5F851E01422DFF8AC1C2A4827
S1131E20DFF8E85804F05CF80021DFF8A00CA17694
S1131E30006804F035FDDFF8981C04F043FD04F05D
S1131E4027FC0B460246DFF88C1C34E01422DFF832
S1131E50881C1D48DFF8B45804F042F80021DFF86C
S1131E607C0CA176006804F01BFDDFF8741C04F000
S1131E7029FD04F00DFC0B460246DFF8681C1AE04D
S1131E803081010044810100588101006C8101000E
S1131E901422DFF8541C0C48DFF8705804F020F8C2
S1131EA00021DFF8480CA176006804F0F1FB0B4632
S1131EB00246DFF8441C284604F072F821462846FE
S1131EC003F008FF25E200BF58FFFF1F80810100D7
S1131ED01422DFF82C1CDFF82C0C04F001F8142277
S1131EE0DFF8241C204603F0FBFF7E20E07384E02F
S1131EF01422DFF80C1CDFF80C0C03F0F1FF1422A1
S1131F00DFF8081C204603F0EBFFFEF733F900E28C
S1131F101422DFF8EC1BDFF8EC0B03F0E1FF1422D2
S1131F20DFF8EC1B204603F0DBFF7F207E212070CE
S1131F30E1732AE11422DFF8C81BDFF8C80B03F0B1
S1131F40CFFF1422DFF8CC1B204603F0C9FF7F200B
S1131F507E212070E17318E194810100A8810100C1
S1131F60F8FEFF1F1422DFF8981BDFF8980B03F02C
S1131F70B7FF1422DFF8A01B204603F0B1FF7F2037
S1131F807E212070E17300E11422DFF8741BDFF876
S1131F90740B03F0A5FF1422DFF8801B204603F026
S1131FA09FFF7F207E212070E173EEE0BC81010061
S1131FB0D0810100E48101001422DFF8441BDFF822
S1131FC0440B03F08DFF1422DFF8541B204603F06A
S1131FD087FF7F207E212070E173D6E01422DFF892
S1131FE0201BDFF8200B03F07BFF1422DFF8341BE7
S1131FF0204603F075FF7F2020700021A17688E140
S1132000DFF804174FF6F47008802A22226280E178
S11320101422DFF8141BDFF8EC0A03F061FF14222A
S1132020DFF8E41A2046F4E1F88101000C82010093
S113203020820100308201001422DFF8F01ADFF858
S1132040C40A03F04DFF1422DFF8E41A204603F01B
S113205047FF0120A076DFF8DC0A0178617142783D
S1132060A27181782172C278A07D6272032800F285
S11320705081DFE810F03500040037003900CE212C
S113208038E01422DFF8B01ADFF8780A03F028FFEA
S11320901422DFF8A81A204603F022FFDFF8940A7E
S11320A0017861712D234178A171E37182782272E4
S11320B0C2786272A37201220179E17240792073BD
S11320C0A276A07D052800F22481DFE810F0090043
S11320D006000B000D000F001200D0E7448201003F
S11320E0CD2107E0D02002E0D12103E0D3206076A7
S11320F00FE1D42161760CE11422DFF8441ADFF8F1
S1132100040A03F0EDFE14229A4981E11422DFF857
S1132110341ADFF8F00903F0E3FE1422954977E15D
S11321201422DFF8241ADFF8DC0903F0D9FE1422A4
S1132130DFF8181A204603F0D3FE7E20E07324E073
S11321401422DFF8041A14E0588201001422DFF884
S1132150001ADFF8B00903F0C3FE1422DFF8EC190B
S1132160204603F0BDFE7E20E0730EE01422DFF86B
S1132170E019DFF8900903F0B3FE1422DFF8D41954
S1132180204603F0ADFE7F2020700022A276C0E03E
S1132190688201007C82010090820100A08201001B
S11321A0B4820100C8820100DC820100EC820100DB
S11321B0DFF858452022214640F2FD2030E0A07D82
S11321C00021030018D0DFF86C29DFF88CC9D55C36
S11321D0DFF83029A0F1480600F164070F2BD9BFBE
S11321E0D554BE460CF80350B64684F819E0491C91
S11321F05FFA81FE8645F1D3DFF8600901700F2B89
S1132200207FC7BFDFF85029D054DFF8F818C8542E
S1132210FEF709B9DFF8F4442022214640F21D30CC
S113222004F0D8FC0020DFF8DC28DFF8345984F807
S1132230200000211346207808B3CEB20F2E03DC11
S113224018700020587004E0A5F1100630700020CA
S11322507070491C607890B1CEB20F2E03DC5870B8
S11322600020987004E0A5F1100670700020B07092
S1132270491CAD1C9B1CA41CC8B22028DBDBCBB2C0
S1132280202B16DAD018DFF8D8281A440025CBB250
S11322900F2B03DC20230370457004E0A2F110032C
S11322A020241C705D70491C521C401CCBB2202B96
S11322B0EDDBDFF8A82811702BE0DFF8A80801781F
S11322C0CB390BD0091F09D0891E022906D9C91E92
S11322D0022911D913E000BFFC8201001422DFF8A7
S11322E08818DFF8200803F0FBFD1422DFF87C18BF
S11322F0204603F0F5FD0CE0C220206209E0617F76
S1132300491CCAB2002A07BFCF220270C320206230
S1132310617703B0BDE8F04003F025BA1422DFF87A
S11323204818DFF8E00703F0DBFD1422DFF840185B
S1132330DEE71422DFF83018DFF8C80703F0D0FD19
S11323401422DFF83018D3E71422DFF82C18DFF852
S1132350B40703F0C5FD1422DFF82018204603F06B
S1132360BFFDDFF8A4130A884FF6F07002400A801C
S1132370CFE700BF847901000021DFF80438A1769B
S11323801878401E10D0401E032805D9401F042889
S113239006D9093801280BD80A22DFF8E8170AE021
S11323A00922DFF8601D06E00B22DFF85C1D02E065
S11323B00922DFF8581DD548D44C03F081FDDFF81D
S11323C04417204603F086FCDFF8442D106864218E
S11323D0B0FBF1F2DFF8EC16204603F0E1FDDFF884
S11323E08017204603F076FCDFF8281D08680028D3
S11323F08FD0DFF86C072121C1738AE71422DFF83C
S1132400181DDFF8000703F06BFD1422DFF80C1D24
S1132410204603F065FD0020A0767AE7DFF86067C8
S1132420DFF8FC5C0020A076B84C3078112800F26C
S1132430CB80DFE800F0090E1720375568717A83E6
S11324408F98A3ACB5BF295EDFF8D81C0A682A6050
S1132450BAE00522DFF8D01C204603F031FDDFF896
S1132460CC0CAFE00A22DFF8C81C204603F028FD9C
S1132470DFF8C00CA6E00722DFF8BC1C204603F0FE
S11324801FFDDFF8B80C9DE01022DFF8B41C2046D5
S113249003F016FDDFF8AC0C017894E00C83010026
S11324A0208301000622DFF8A01C204603F008FD6B
S11324B0DFF8981CDFF8982C0968107870B9DFF8F9
S11324C0943CDFF8707C1868DFF8703C3A6841434C
S11324D018688218B1FBF2F0286075E0490872E0D0
S11324E01022DFF8741C204603F0EAFCDFF86C0CC1
S11324F068E01122DFF8681C204603F0E1FCDFF8F5
S1132500640C01785FE00922DFF8001C204603F028
S1132510D7FCDFF8180C55E00E22DFF84C1C2046DF
S113252003F0CEFCDFF8440C4CE00F22DFF8401C33
S1132530204603F0C5FCDFF83C0C43E00D22DFF835
S1132540381C204603F0BCFCDFF8300C3AE000BF36
S1132550348301000E22DFF8281C204603F0B0FC6F
S1132560DFF8200C2EE00A22DFF81C1C204603F0C2
S1132570A7FCDFF8180C25E0488301001122DFF8DE
S1132580101C204603F09CFCDFF8A00B1AE010227C
S1132590DFF8001C204603F093FCDFF8FC0B11E08D
S11325A00C22DFF8F81B204603F08AFCDFF8F00B5E
S11325B0017808E00D22DFF8EC1B204603F080FCD4
S11325C0DFF8E40B01682960DFF83815204603F0D2
S11325D081FB3078012803D10622DFF8D01B04E008
S11325E0062809D10622DFF8C81B204603F068FC40
S11325F012E000BF5C830100DFF8301B28680A6822
S1132600821A12F10A0FB8BF0246DFF8A80B026063
S113261061A1204603F0C4FCDFF89C6B2A6860A12A
S1132620304603F0BDFC3146204604F0F3FCDFF8ED
S1132630301503F04FFBDFF828157F2008707E2249
S11326400020CA73887664E61422DFF8701BDFF872
S1132650B40403F045FCDFF8681BDFF8680B0B6873
S113266002689A1A48BF0022DFF8480B274CDFF8AB
S1132670581B0260204603F093FCDFF8E414204664
S1132680D7E71422DFF8441BDFF878041F4C03F06B
S113269027FC5149DFF8380B0A780068012A0AD16F
S11326A003F0F6FF4D4A4E4B04F016F80B46024673
S11326B0DFF8201BA2E004F0C1FC0246DFF8181B7F
S11326C0204603F06DFC9CE01422DFF8101BDFF8B9
S11326D0340403F005FCDFF8481ADFF8043B00205B
S11326E0088000221EE000BF6C830100808301008B
S11326F094830100A8830100BC830100D0830100FE
S1132700FCFCFF1FE4830100FCFFFF1F58F9FF1FBF
S1132710F8830100185D18B182184878401C48708D
S1132720641C0C700C78042CF4DD4878DFF8B41ABF
S1132730DFF8B44AB2FBF0F20A602046DFF8AC1AC4
S113274003F02EFCDFF81814204672E71422DFF899
S1132750A01ADFF8B003DFF8904A03F0C1FB1E496A
S11327601C480A784068012A42D103F091FF1B4AB1
S11327701B4B03F0B1FF0B4602461A493EE000BF73
S113278004840100108401001884010020840100E5
S11327902884010038840100256400004884010075
S11327A02F256400548401006084010068840100C2
S11327B090000020A00000207084010084840100A7
S11327C098840100AC840100C0840100D484010019
S11327D0E884010024E0FF1F7BE8FF1F77D5F27037
S11327E0AAE8D03FFC8401000C8501001885010093
S11327F003F04EFF0B460246DFF8F819204603F0BB
S1132800CFFBD749204614E71422DFF8EC19BD4862
S1132810DFF8D44903F064FBDFF8E009006804F052
S11328203FF8DFF8DC1904F04DF803F031FF0246FD
S11328300B46DFF8D019204603F0B2FBC849204606
S1132840F7E61422DFF8C019AE48DFF89C4903F01C
S113285047FBDFF8B809006804F022F8DFF8A01994
S113286004F030F803F014FF02460B46DFF8941925
S1132870204603F095FBBA492046DAE61422DFF835
S11328809019A048DFF8604903F02AFB97480068D4
S113289003F0FEFE02460B469749204603F080FBF8
S11328A0AF492046C5E61422DFF86819954803F0BD
S11328B017FBDFF860180868002814BF8CA28DA2EB
S11328C0DFF824498DA1204603F06AFBA449204681
S11328D003F000FAA2497F20087000228A7618E5E6
S11328E0884CDFF834191422204603F0F9FADFF893
S11328F024080178CA0705D559206073652173201F
S1132900A173E0730622DFF8B058294642F650302E
S113291004F060F92879E978DFF8CC486B782A78F4
S113292002900191A878DFF8F4180090204603F093
S113293037FB002020742046894903F0CBF98849ED
S11329407E20C873C9E76F4CDFF8D41814222046E0
S113295003F0C6FADFF8BC070168C1F3400028B1F0
S11329605920607365217320A173E0730622DFF898
S11329704858294642F6563004F02CF92879E9786B
S1132980DFF864486B782A7802900191A878DFF820
S11329908C180090204603F003FB0020207420468E
S11329A06F4946E6574CDFF87C181422204603F0A2
S11329B097FADFF860070168C1F3800028B1592055
S11329C0607365217320A173E0730622DFF8E85772
S11329D0294642F65C3004F0FDF82879E978DFF8FE
S11329E008486B782A7802900191A878DFF82C18AF
S11329F00090204603F0D4FA002020742046584961
S1132A0017E6404CDFF820181422204603F068FA39
S1132A10DFF800070168C1F3C00028B159206073D2
S1132A2065217320A173E0730622DFF88C572946D1
S1132A3042F6623004F0CEF82879E978DFF8A84746
S1132A406B782A7802900191A878DFF8D01700906B
S1132A50204603F0A5FA0020207420464049E8E50A
S1132A60284CDFF8C8171422204603F039FADFF89F
S1132A70A4060168C1F3001028B1592060736521D0
S1132A807320A173E0730622DFF82C57294642F61F
S1132A90683004F09FF82879E978DFF84C476B78C0
S1132AA02A7802900191A878DFF8701700902046E8
S1132AB003F076FA0020207420462949B9E500BFC6
S1132AC010E0FF1F2C8501003885010044E0FF1F42
S1132AD000007A444C8501005885010054FFFF1F13
S1132AE0000020416C85010078850100D0000020A1
S1132AF0594553004E4F00008C850100257300009A
S1132B009885010058FFFF1FAC850100C0850100B6
S1132B10D4850100E8850100FC85010010860100D0
S1132B2024860100388601004C860100608601007D
S1132B3074860100F8FEFF1F888601009C86010050
S1132B40B0860100C4860100D8860100EC8601002D
S1132B501487010000870100C4FEFF1F0401002048
S1132B60D4FEFF1F89FDFF1F288701003C87010059
S1132B705087010064870100788701008C87010079
S1132B807AE8FF1FA0870100DFF8A446DFF8A41647
S1132B901422204603F0A4F9DFF878050168C1F394
S1132BA0401028B15920607365217320A173E0732C
S1132BB00622DFF80456294642F66E3004F00AF87D
S1132BC02879E978DFF820466B782A780290019119
S1132BD0A878DFF848160090204603F0E1F90020B9
S1132BE020742046DFF8501623E5DFF84446DFF86A
S1132BF04C161422204603F073F9DFF844160868D3
S1132C0028B94E2161732E204521A073E173DFF8AA
S1132C1004050168C1F3801028B15920607365214F
S1132C207320A173E0730622DFF88C55294642F61F
S1132C30743003F0CFFF2879E978DFF8AC456B787E
S1132C402A7802900191A878DFF8D01500902046E8
S1132C5003F0A6F9002020742046DFF8DC15E8E430
S1132C60DFF8CC45DFF8DC151422204603F038F9F0
S1132C70DFF8A0040168C1F3C01028B159206073C3
S1132C8065217320A173E0730622DFF82C552946D1
S1132C9042F67A3003F09EFF2879E978DFF8484558
S1132CA06B782A7802900191A878DFF8701500906B
S1132CB0204603F075F9002020742046DFF87815CB
S1132CC0B7E4DFF86C45DFF880151422204603F0E2
S1132CD007F9DFF840040168C1F3002028B1592046
S1132CE0607365217320A173E0730622DFF8C85472
S1132CF029464FF42E5003F06DFF2879E978DFF868
S1132D00E8446B782A7802900191A878DFF80C15D2
S1132D100090204603F044F9002020742046DFF898
S1132D20181586E4DFF80845DFF82015142220463C
S1132D3003F0D6F8DFF8DC030168C1F3402028B1C2
S1132D405920607365217320A173E0730622DFF8B4
S1132D506854294642F6863003F03CFF2879E97826
S1132D60DFF884446B782A7802900191A878DFF820
S1132D70AC140090204603F013F900202074204680
S1132D80DFF8B41455E4DFF8A844DFF8C4141422BF
S1132D90204603F0A5F8DFF87C030168C1F3802026
S1132DA028B15920607365217320A173E073062252
S1132DB0DFF80454294642F68C3003F00BFF2879DF
S1132DC0E978DFF824446B782A7802900191A87896
S1132DD0DFF848140090204603F0E2F80020207445
S1132DE02046DFF8541424E4DFF84444DFF8641484
S1132DF01422204603F074F8C6480168C1F3C020C9
S1132E0028B15920607365217320A173E0730622F1
S1132E10DFF8A453294642F6923003F0DBFE28790A
S1132E20E978DFF8C4436B782A7802900191A87896
S1132E30DFF8E8130090204603F0B2F80020207475
S1132E402046DFF8F413FFF7F4BBDFF8E443DFF8C0
S1132E5008141422204603F043F8AE480168C1F375
S1132E60003028B15920607365217320A173E07389
S1132E700622D14D294642F6983003F0ABFE28795C
S1132E80E978D94C6B782A7802900191A878DFF818
S1132E908C130090204603F083F800202074204611
S1132EA0DFF89413FFF7C5BBDFF88443DFF8AC13F6
S1132EB01422204603F014F896480168C1F3403008
S1132EC028B15920607365217320A173E073062231
S1132ED0B94D294642F69E3003F07CFE2879E97804
S1132EE0C14C6B782A7802900191A878CB49009064
S1132EF0204603F055F8002020742046CE49FFF701
S1132F0098BBCB4CD6491422204602F0E9FF8148F5
S1132F100168C1F3803028B15920607365217320A2
S1132F20A173E0730622A44D294642F6A43003F0AF
S1132F3051FE2879E978AC4C6B782A78029001919B
S1132F40A878B6490090204603F02AF8002020749F
S1132F502046B949FFF76DBBB54CC249142220463F
S1132F6002F0BEFF6B480168C1F3C03028B159209C
S1132F70607365217320A173E07306228E4D294688
S1132F8042F6AA3003F026FE2879E978964C6B784D
S1132F902A7802900191A878A0490090204602F076
S1132FA0FFFF002020742046A349FFF742BBA04C3A
S1132FB0AD491422204602F093FF56480168C1F33C
S1132FC0004028B15920607365217320A173E07318
S1132FD00622794D294642F6B03003F0FBFD2879EC
S1132FE0E978814C6B782A7802900191A8788B4912
S1132FF00090204602F0D4FF0020207420468E4921
S1133000FFF717BB8A4C99491422204602F068FF47
S113301040480168C1F3404028B1592060736521DC
S11330207320A173E0730622634D294642F6B6303D
S113303003F0D0FD2879E9786B4C6B782A780290FC
S11330400191A87875490090204602F0A9FF00205C
S1133050207420467849FFF7ECBA754C8449142251
S1133060204602F03DFF2B480168C1F3804028B19F
S11330705920607365217320A173E07306224E4DBD
S1133080294642F6BC3003F0A5FD2879E978564C70
S11330906B782A7802900191A878604900902046C4
S11330A002F07EFF0020207420466349FFF7C1BA76
S11330B05F4C70491422204602F012FF1548016843
S11330C0C1F3005028B15920607365217320A173A6
S11330D0E0730622384D294642F6C83003F07AFDE3
S11330E02879E978404C6B782A7802900191A87885
S11330F04A490090204602F053FF00202074FFF755
S1133100E5BB00BFAC870100B8870100C48701009C
S11331105C000020BC000020D0870100E48701008F
S1133120D0FFFF1F9CFFFF1FF8870100280000202D
S1133130008801001CE8FF1F0C88010020E8FF1F25
S113314014880100120100202488010024E8FF1FD4
S11331500C0100202C0000202C88010060000020BD
S11331603C88010013010020508801002CE8FF1F57
S11331706088010030E8FF1F708801003CE8FF1FF1
S11331808088010040E8FF1F9088010058E8FF1F75
S11331909C880100B088010060E8FF1FC08801001E
S11331A07CE8FF1FCC88010044E8FF1FC8770100BA
S11331B0DC8801001C00002038F3FF1F208301007D
S11331C028E8FF1F64000020E4880100EC88010067
S11331D048000020008901000C89010014890100C5
S11331E0E8FFFF1F2400002058F9FF1F2889010071
S11331F0308901000C850100448901002CFCFF1F6B
S11332000000C842588901006089010030FCFF1F9A
S11332107489010088890100E47701007479010050
S1133220F87701000C78010020780100347801005F
S113323058FFFF1F48780100D4FEFF1F5C7801008F
S11332406C000020707801008478010098780100F7
S1133250AC780100C0780100D4780100E87801005E
S1133260FC7801001079010024790100387901000B
S11332704C79010060790100F0B587B0FCF740FF9C
S1133280DFF8704CE07D012840F00B81617D206AFD
S1133290002203290546E27500F2FD80DFE811F003
S11332A0040014016E022810401EE32800F2F3808B
S11332B0DFE810F021111211F401F900F100F1001E
S11332C0F1003D12300232023402360238023A0270
S11332D03C023E02F100950F4002420244024602C3
S11332E0460248024A024C024E0250025202540262
S11332F0560258025A025C025E026002F1000601A4
S11333000801F100F100F1005E033712BA11BD119A
S1133310C011C3111412F1004E11241127112A11E6
S11333202D1130113311361139113C113F11421155
S1133330451148114B115111541157115A115D1176
S113334060116311661169116C116F11710AF1003A
S113335014028D1190119311961199119C119F11C2
S1133360A211A511A811AB11AE11B111B411F9003C
S1133370F900F900F900F900F900F900F900F90081
S1133380F900F900F900F900F900F900F900F90071
S1133390F900F900F900F900F900F900F900F90061
S11333A0F900F100F1000401F100F100F100F9006D
S11333B0F900F900F900F900F900F900F900F90041
S11333C0F100F900F900F900F900F900F100F10049
S11333D0F100F100F100F100F100F100F100F10061
S11333E0F100F100F100F100F100F100F100F10051
S11333F0F100F100F100F100F100F100F100F10041
S1133400F100F100F100F100F100F100F100F10030
S1133410F1000201F100F100F100F100F100F1000E
S1133420F900F900F100C611F100E400F100ED111A
S1133430F100E400F100F100F100F100F100F1000D
S1133440F10027122A12F100F100E60E1A021C0202
S11334501E022002220224022602F100F100F100E1
S1133460F1004612160218025312F100F100F100A5
S1133470F100F100F100151118111B11207F7A28B9
S113348005DA401CC1B25C2904D15D2002E014BFFE
S113349020207F202077256207B0BDE8F040FCF7AC
S11334A07FBE07B0F0BDA07DDFF84C1A0A5C392A54
S11334B0F1DA521C0A54EEE78725ECE77925EAE7AE
S11334C02525E8E72625E6E7E328E4D8DFE810F039
S11334D00410E6001F11E400F900E4002201E400F6
S11334E02401260128012A012C012E013001321168
S11334F0E40032013401360138013A013A013C0159
S11335003E01400142014401460148014A014C0187
S11335104E01500152015401E400E5001611E4008B
S11335202911E400E400AC10AF10B210B51006117C
S11335301C01E400161019101C101F102210251075
S113354028102B102E103110341037103A103D1063
S11335504310461049104C104F105210551058107B
S11335605B105E106110630906017F10E400821095
S1133570851088108B108E109110941097109A104B
S11335809D10A010A310A610A910E400F900F900E2
S1133590F900F900F900F900F900F900F900F9005F
S11335A0F900F900F900F900F900F900F900F9004F
S11335B0F900F900F900F900F900F900F900F9003F
S11335C0E4000201E400E400E400E400F900F9008E
S11335D0F900F900F900F900F900F900F900040113
S11335E0F900F900F900F900F900E400E400E4004E
S11335F0E400E400E400E400E400E400E400E400A7
S1133600E400E400E400E400E400E400E400E40096
S1133610E400E400E400E400E400E400E400E40086
S1133620E400E400E400E400E400E400E400E40076
S1133630E400E400E400E400E400E400E400F90051
S1133640F9001E01E400E400E8002001E400E400C5
S1133650E800E400E400E400E400E400E4001C11F9
S11336603511E400E4000C010E01100112011401F3
S1133670160118011A01E400E400E400E400080162
S11336800A0145114811E400E400E400E400E40008
S1133690E4000A100D101010FDE613E70225FAE607
S11336A0207F20280BDD7F2808BF7A203FF4F2AE6C
S11336B0401EC1B25C297FF4EDAE5B20EAE67F20B8
S11336C0E8E6A07DDFF830180A5C312AFFF6E3AEA5
S11336D0521EEFE67A25DEE6B025DCE64D25DAE675
S11336E0D825D8E6D925D6E6CC25D4E6CD25D2E60C
S11336F0CE25D0E6CF25CEE6D025CCE6D125CAE628
S1133700D225C8E6D325C6E63125C4E6BA25C2E6E5
S1133710BE25C0E60825BEE60925BCE60A25BAE6AC
S11337200B25B8E60C25B6E60D25B4E60E25B2E663
S11337300F25B0E61225AEE61325ACE61425AAE65D
S11337401525A8E61725A6E61825A4E61925A2E658
S11337501A25A0E61B259EE61C259CE61D259AE657
S11337601E2598E61F2596E6202594E6212592E657
S1133770222590E623258EE624258CE6E4283FF6D0
S11337808AAEDFE810F0E600AC0EEB00F500F700BF
S1133790E500F00C280DF00CE500E500E500E5007F
S11337A0E500E500E5002C0D2F0D350D3B0D460D14
S11337B04C0D520D580DE500640D6A0D700D760D1B
S11337C07C0D820D880D8E0DE500E500E500E50019
S11337D0E500E50EBE0FCA0AE500E500CD0AD10AF0
S11337E0180B5D0F840FAD0BB50B92010E01150183
S11337F01C0123012A01310138013F0146014D0119
S113380054015B01620169019901B401CF01D60140
S1133810DD01E40105022D0255027E02A702AF027A
S1133820B202E500BA02E3020C0335035E03660349
S11338306E0376037E0386038E0396039E03A6031C
S1133840AE03C103E50308042E04540478049B0466
S1133850BE04E10408052C05500577059C05C30545
S1133860FB052B065B067F06A306C8060107320785
S113387062079207C407EA072F084608E500E50037
S1133880E5005E089208C5080C093D095E097F0938
S1133890A209C309E3092B0A490A670A850AA40A8B
S11338A0E500E500E500E500E500E500E500E500EC
S11338B0E500E500E500E500E500E500E500E500DC
S11338C0E500E500E500E500E500E500E500E500CC
S11338D0E500E500E500E500E500E500E500E500BC
S11338E0E500E500E500F909E500E500E500E5008F
S11338F0E500E500F70B290C6D0B700BE500B80B28
S11339008D0B900BE500B80BE500E500E500E50044
S1133910E500E5007A0C7D0CDD0FE500800C8F0CD2
S11339209C0CA80CB40CC00CCC0CD80CE40CE5001A
S1133930E500E500940D970D9E0DAF0DB20DE50069
S1133940E500E500E500E500060108010A010C01B7
S1133950A1E5002003F07EFB256A9CE5A275DFF853
S11339609C15DFF89405052202F0BAFA042592E5C5
S1133970282590E5A07D0328C1F23183DFF8801566
S1133980DFF8740503F0ECFB00283FF49BAD05253C
S113399081E5E5257FE5E6257DE5E7257BE5E82569
S11339A079E5DFF86005006802F074F85F2572E5D8
S11339B0DFF8E80D006802F06DF860256BE5DFF8CC
S11339C0E00D006802F066F8612564E5DFF8D40DC7
S11339D0006802F05FF862255DE5DFF8CC0D006851
S11339E002F058F8632556E5DFF8C00D006802F0D0
S11339F051F864254FE5DFF8B80D006802F04AF885
S1133A00652548E5DFF8AC0D006802F043F866254B
S1133A1041E5DFF8A40D006802F03CF867253AE5BB
S1133A20DFF8980D006802F035F8682533E5DFF813
S1133A30900D006802F02EF869252CE5DFF8840D5E
S1133A40006802F027F86A2525E5DFF87C0D006898
S1133A5002F020F86B251EE5DFF8701D09680A20C6
S1133A60B1FBF0F202EB8205DFF88C04A1EB450513
S1133A703035C5700A23B2FBF3F303EB83052E261E
S1133A80A2EB45028670303242706426B1FBF6F137
S1133A900A22B1FBF2F202EB8203A1EB43013031C3
S1133AA001700020A0756C25F5E4DFF8240D006892
S1133AB001F0F0FF5E25EEE4DFF8181D09680A2026
S1133AC0B1FBF0F202EB82033032DFF82C044270D7
S1133AD06422A1EB4303B1FBF2F130332E253031E4
S1133AE0C370857001700020A0756D25D3E4DFF8E4
S1133AF0E81C09680A20B1FBF0F202EB82033032C1
S1133B00DFF8F40342706422A1EB4303B1FBF2F14A
S1133B1030332E253031C370857001700020A075BC
S1133B206E25B8E4DFF8B40C006801F0B3FF6F252C
S1133B30B1E4DFF8AC0C006801F0ACFF7025AAE436
S1133B40DFF8280E006801F0A5FF7125A3E4DFF873
S1133B50201E09680A20B1FBF0F202EB8205E64858
S1133B60A1EB45053035C5700A23B2FBF3F303EB33
S1133B708305A2EB4502303282706423B1FBF3F17A
S1133B802E223031427001700020A075722582E42B
S1133B90DFF8E01D09680A20B1FBF0F202EB8205B0
S1133BA0D548A1EB45053035C5700A23B2FBF3F3C4
S1133BB003EB8305A2EB4502303282702E23642589
S1133BC04370B1FBF5F10A22B1FBF2F202EB82037E
S1133BD0A1EB4301303101700020A07573255AE434
S1133BE0DFF8941D09680A20B1FBF0F202EB8205AC
S1133BF0C148A1EB45053035C5700A23B2FBF3F388
S1133C0003EB83052E26A2EB450286703032427008
S1133C106426B1FBF6F10A22B1FBF2F202EB820355
S1133C20A1EB4301303101700020A075742532E40A
S1133C30DFF8481D09680A20B1FBF0F202EB8205A7
S1133C40AD48A1EB45053035C5700A23B2FBF3F34B
S1133C5003EB83052E26A2EB4502867030324270B8
S1133C606426B1FBF6F10A22B1FBF2F202EB820305
S1133C70A1EB4301303101700020A0757525FFF7D9
S1133C800ABCDFF8FC1C09680A20B1FBF0F202EB65
S1133C9082059948A1EB45053035C5700A23B2FB6E
S1133CA0F3F303EB8305A2EB4502303282702E233B
S1133CB064254370B1FBF5F10A22B1FBF2F202EB89
S1133CC08203A1EB4301303101700020A0757625F9
S1133CD0FFF7E1BBDFF8AC0C806801F0DBFE772571
S1133CE0FFF7D9BB7825FFF7D6BBDFF89C1C087813
S1133CF000287FF4EFACFFF7E1BBDFF8901C096804
S1133D000A20B1FBF0F202EB82057B48A1EB4505EA
S1133D103035C5700A23B2FBF3F303EB8305A2EB42
S1133D204502303282702E2364254370B1FBF5F1D5
S1133D300A22B1FBF2F202EB8203A1EB4301303120
S1133D4001700020A0757E25FFF7A5BBDFF8401C9D
S1133D5009680A20B1FBF0F202EB82056648A1EB88
S1133D6045053035C5700A23B2FBF3F303EB830535
S1133D70A2EB4502303282702E2364254370B1FBDE
S1133D80F5F10A22B1FBF2F202EB8203A1EB43014B
S1133D90303101700020A0757F25FFF77CBBDFF870
S1133DA0F41B09680A20B1FBF0F202EB82055248C9
S1133DB0A1EB45053035C5700A23B2FBF3F303EBE1
S1133DC08305A2EB4502303282702E2364254370B2
S1133DD0B1FBF5F10A22B1FBF2F202EB8203A1EB93
S1133DE04301303101700020A0758025FFF753BBDB
S1133DF0DFF8B41D09680A20B1FBF0F202EB82057A
S1133E003D48A1EB45053035C5700A23B2FBF3F3F9
S1133E1003EB8305A2EB4502303282702E23642526
S1133E204370B1FBF5F10A22B1FBF2F202EB82031B
S1133E30A1EB4301303101700020A0758125FFF70B
S1133E402ABBDFF8680D006801F024FE8225FFF725
S1133E5022BBDFF85C0D006801F01CFE8325FFF730
S1133E601ABBDFF8500D006801F014FE8425FFF73B
S1133E7012BBDFF8440D006801F00CFE8525FFF746
S1133E800ABBDFF8380D006801F004FE8625FFF751
S1133E9002BBDFF82C1D087800287FF41DACFFF767
S1133EA00BBBDFF8200D006801F0F4FD8825FFF757
S1133EB0F2BADFF8140D006801F0ECFD8925FFF774
S1133EC0EABADFF8080D006801F0E4FD8A25FFF77F
S1133ED0E2BADFF8FC0C007801F0DCFD8B25FFF77B
S1133EE0DABADFF8F00C007801F0D4FD8C25FFF786
S1133EF0D2BA00BFD4FEFF1FF8FEFF1F9C89010049
S1133F0048FDFF1F1CE8FF1FA07D0328C1F2678046
S1133F10DFF8C45C01F0A8FD41F2893188422860D1
S1133F2013D2DFF8AC28DFF8E01D1060086002222D
S1133F3040F2191002F001FE1422DFF8D01D2046D1
S1133F4001F0CEFF01F00FFC06E58D25FFF7A3BAC3
S1133F50A07D0328C1F24380DFF87C5C01F084FD7E
S1133F60811E1C29286013D8DFF8A42DDFF8981DC2
S1133F701060086001224FF4817002F0DEFD14220B
S1133F80DFF8881D204601F0ABFF01F0ECFBE3E411
S1133F908E25FFF780BAA07D0328C1F22080DFF8C8
S1133FA0385C01F061FDA0F10A0140F2EB1291428C
S1133FB0286013D2DFF8E437DFF84C1D186008607E
S1133FC0022240F2031002F0B8FD1422DFF83C1D77
S1133FD0204601F085FF01F0C6FBBDE48F25FFF705
S1133FE05ABAA07D0328C0F2FA87DFF8EC5B01F02F
S1133FF03BFDA0F10A0140F2EB129142286013D27A
S1134000DFF89C37DFF8001D18600860022240F2D8
S1134010051002F092FD1422DFF8F01C204601F096
S11340205FFF01F0A0FB97E49025FFF734BAA07D71
S11340300328C0F2D487DFF8A05B01F015FD40F23D
S1134040F5118842286013D2DFF85827DFF8B81C2E
S113405010600860022240F2071002F06EFD142284
S1134060DFF8A81C204601F03BFF01F07CFB73E461
S11340709125FFF710BAA07D0328C0F2B087DFF8BE
S1134080585B01F0F1FC2860A8B1C82813D8DFF808
S1134090181708600222DFF8701C086040F209104B
S11340A002F04BFD1422DFF8641C204601F018FFD7
S11340B001F059FB50E49225FFF7EDB9A07D0328E8
S11340C0C0F28D87DFF8105B01F0CEFC2860A8B148
S11340D0C82813D8DFF8D41608600222DFF8281C99
S11340E0086040F20B1002F028FD1422DFF81C1CBB
S11340F0204601F0F5FE01F036FB2DE49325FFF791
S1134100CAB9A07D0328C0F26A87DFF8CC5A01F04F
S1134110ABFC2860A8B1C82813D8DFF8941608604F
S11341200222DFF8E41B086040F20D1002F005FDE6
S11341301422DFF8D81B204601F0D2FE01F013FB55
S11341400AE49425FFF7A7B9A07D0328C0F24787A6
S1134150DFF8845A01F088FCA0F5967141F6F52247
S11341609142286014D2DFF84C36DFF89C1B1860AB
S11341700860022240F20F1002F0DFFC1422DFF884
S11341808C1B204601F0ACFE01F0EDFAFFF7E4BB16
S11341909525FFF780B9A07D0328C0F22087DFF8BA
S11341A0385A01F061FC2860B0B1142814D8DFF843
S11341B0081608600122DFF8501B086040F2111055
S11341C002F0BBFC1422DFF8441B204601F088FEF9
S11341D001F0C9FAFFF7C0BB9625FFF75CB9A07DD3
S11341E00328C0F2FC86DFF8F05901F03DFC28609A
S11341F0B0B13C2814D8DFF8C41508600122DFF8F8
S1134200081B08604FF4897002F097FC1422DFF851
S1134210FC1A204601F064FE01F0A5FAFFF79CBBEE
S11342209725FFF738B9A07D0328C0F2D886DFF8B8
S1134230A85901F019FCA0F1320140F6DF52914275
S1134240286014D2DFF87835DFF8BC1A18600860EB
S1134250022240F2131002F070FC1422DFF8AC1AB0
S1134260204601F03DFE01F07EFAFFF775BB98256C
S1134270FFF711B9A07D0328C0F2B186DFF85859C1
S113428001F0F2FBA0F10A013229286014D8DFF80A
S11342903425DFF8741A10600860012240F215100A
S11342A002F04BFC1422DFF8641A204601F018FED9
S11342B001F059FAFFF750BB9925FFF7ECB8A07D40
S11342C00328C0F28C86DFF8105901F0CDFBA0F171
S11342D01E0140F6F3529142286014D2DFF8E8340C
S11342E0DFF8241A1860086002224FF48B7002F081
S11342F024FC1422DFF8141A204601F0F1FD01F029
S113430032FAFFF729BB9A25FFF7C5B8A07D032829
S113431007DA401CC2B2022A08BF0320A075FFF7C7
S1134320BAB8DFF8480D0278303A02EB82014278DD
S1134330C078303A02EB410202EB8201303800EBE4
S11343404100DFF894186428086014D8DFF87C244E
S1134350DFF8B4191060086001224FF48C7002F089
S1134360ECFB1422DFF8A419204601F0B9FD01F09A
S1134370FAF9FFF7F1BA9B25FFF78DB8A07D032862
S1134380C7DBDFF8E80C0278303A02EB82014278AE
S1134390C078303A02EB410202EB8201303800EB84
S11343A04100DFF834186428086014D8DFF82424A6
S11343B0DFF8541910600860012240F21B1002F06B
S11343C0BCFB1422DFF84419204601F089FD01F0FA
S11343D0CAF9FFF7C1BA9C25FFF75DB8A07D032891
S11343E097DBDFF8880C0278303A02EB82014278DE
S11343F0C078303A02EB410202EB8201303800EB24
S11344004100DFF8D4176428086014D8DFF8C82303
S1134410DFF8F4181060086001224FF48E7002F087
S11344208CFB1422DFF8E418204601F059FD01F05A
S11344309AF9FFF791BA9D25FFF72DB8A07D0328BF
S1134440C0F2CD85DFF8905701F00EFB40F2D17138
S11344508842286013D2E14ADFF8AC181060086083
S1134460022240F21D1002F068FB1422DFF89C18AF
S1134470204601F035FD01F076F9FFF76DBA9E256F
S1134480FFF709B8A07D0328C0F2A985DFF84857D3
S113449001F0EAFAA0F114012829286013D8D04ABF
S11344A0DFF8641810600860012240F21F1002F067
S11344B044FB1422DFF85418204601F011FD01F0EA
S11344C052F9FFF749BA9F25FEF7E5BFA07D0328FF
S11344D0C0F28585DFF8005701F0C6FA411FB1F537
S11344E01C6F286014D2DFF88424DFF81C181060D5
S11344F0086002224FF4907002F01FFB1422DFF8D0
S11345000C18204601F0ECFC01F02DF9FFF724BA59
S1134510A025FEF7C0BFA07D032806DA401CC2B266
S1134520012A7FF4FBAE0220F8E6DFF8400B0278A4
S1134530303A02EB82018278C078303A02EB4102D1
S113454002EB8201303800EB4100DFF88C16A0F159
S11345501902B02A086014D2DFF814140860022289
S1134560DFF8A417086040F2231002F0E6FA1422E0
S1134570DFF89817204601F0B3FC01F0F4F8FFF7D8
S1134580EBB9A125FEF787BFA07D0328C6DBDFF8C2
S1134590DC0A0278303A02EB82018278C078303A41
S11345A002EB410202EB8201303800EB4100DFF8FC
S11345B02816B0F57A7F086014D2DFF8B823DFF844
S11345C0481710600860022240F2251002F0B5FA84
S11345D01422DFF83817204601F082FC01F0C3F8FA
S11345E0FFF7BAB9A225FEF756BFA07D0328FFF650
S11345F090AEDFF8780A0278303A02EB8201427812
S1134600C078303A02EB410202EB8201303800EB11
S11346104100DFF8C4157928086013D2D64ADFF8C0
S1134620E81610600860022240F22B1002F085FAAE
S11346301422DFF8D816204601F052FC01F093F85A
S1134640FFF78AB9A325FEF726BFA07D0328FFF64E
S113465060AEDFF8180A0278303A02EB8201427841
S1134660C078303A02EB410202EB8201303800EBB1
S11346704100DFF864157928086013D2BF4ADFF8D7
S1134680881610600860022240F22D1002F055FADC
S11346901422DFF87816204601F022FC01F063F8BA
S11346A0FFF75AB9A425FEF7F6BEA07D0328FFF64E
S11346B035AFDFF8B8090278303A02EB820182782C
S11346C0C078303A02EB410202EB8201303800EB51
S11346D04100DFF80415A0F13202962A086013D8CD
S11346E0A74908600222DFF82016086040F2311062
S11346F002F023FA1422DFF81416204601F0F0FB2E
S113470001F031F8FFF728B9A525FEF7C4BEA07D56
S11347100328C0F26484DFF8C05401F0A5F9A0F1C5
S11347200A0140F2C7729142286013D2954BDFF818
S1134730D81598600860022240F2371002F0FDF9A3
S11347401422DFF8C815204601F0CAFB01F00BF86B
S1134750FFF702B9A625FEF79EBE1422DFF8701BF0
S1134760DFF8700B01F0BCFB1422DFF86C1B204651
S113477001F0B6FB00F0F7FF02F0FCFC1422DFF8B6
S11347805C1B204601F0ACFB00F0EDFF04F0A2FC42
S1134790022004F064FF4C25FEF77DBE20E8FF1FD5
S11347A024E8FF1F600000202CE8FF1F30E8FF1FF3
S11347B034E8FF1F38E8FF1F3CE8FF1F40E8FF1FF5
S11347C058E8FF1F5CE8FF1F60E8FF1F4CE8FF1F6D
S11347D050E8FF1F0CE8FF1F10E8FF1F28E8FF1F29
S11347E018E8FF1F68490A7040F23910DFF81815FD
S11347F00A70012202F0A1F91422DFF8E41A20461B
S113480001F06EFB00F0AFFF012004F028FFFFF77A
S1134810A3B85D49012008700122DFF8EC140A7086
S113482040F2391002F089F91422DFF8B41A204654
S113483001F056FB00F097FF012004F010FFFFF792
S11348408BB8A07D0328FFF669AEDFF82008DFF8F7
S113485088330278303A02EB82018278C078303AA9
S113486002EB410202EB8201303840F21D2200EBE0
S11348704100A0F132019142186013D2434BDFF89A
S113488088141860086002224FF4A07002F055F9F1
S11348901422DFF87814204601F022FB00F063FFB5
S11348A0FFF75AB8A725FEF7F6BDA07D0328FFF64B
S11348B035AEDFF8B807C84B0278303A02EB820114
S11348C08278C078303A02EB410202EB8201303840
S11348D040F21D2200EB4100A0F132019142186028
S11348E013D22B4BDFF820141860086002224FF417
S11348F0A17002F022F91422DFF81014204601F00E
S1134900EFFA00F030FFFFF727B8A825FEF7C3BD84
S1134910A07D0328FFF602AEDFF850070278303A94
S113492002EB82018278C078303A02EB410202EB5A
S11349308201303800EB4100A74940F24F229042F7
S1134940086029D2134BDFF8C013186008600222F4
S11349504FF4A27002F0F1F81422DFF8B0132046ED
S113496001F0BEFA00F0FFFEFEF7F6BF54E8FF1FA9
S113497064E8FF1F68E8FF1F9400002098000020EF
S11349809C00002024E0FF1F7BE8FF1F7400002030
S1134990780000207C000020A925FEF77CBDA07DC6
S11349A00328FFF6BBADDFF8C4068B4B0278303A20
S11349B002EB82018278C078303A02EB410202EBCA
S11349C08201303840F21D2200EB4100A0F1320197
S11349D09142186011D2744BCB49186008600222CE
S11349E04FF4A37002F0A9F81422C849204601F03C
S11349F077FA00F0B8FEFEF7AFBFAA25FEF74BBD6D
S1134A00A07D0328C0F2EB82734D01F02DF842F231
S1134A1010718842286011D2644ABB491060086052
S1134A2002224FF4A47002F088F81422B7492046F9
S1134A3001F056FA00F097FEFEF78EBFAB25FEF7A5
S1134A402ABDA07D0328C0F2CA82634D01F00CF890
S1134A5042F210718842286011D2554AAA49106066
S1134A60086002224FF4A57002F067F81422A749E7
S1134A70204601F035FA00F076FEFEF76DBFAC2556
S1134A80FEF709BDA07D0328C0F2A982524D00F0B3
S1134A90EBFFA0F1320140F2B7329142286011D20B
S1134AA0444B994918600860022240F24D1002F00C
S1134AB044F814229549204601F012FA00F053FEFE
S1134AC0FEF74ABFAD25FEF7E6BCA07D0328C0F281
S1134AD08682414D00F0C8FF40F6381188422860B4
S1134AE011D2354A884910600860022240F24F1002
S1134AF002F023F814228549204601F0F1F900F070
S1134B0032FEFEF729BFAE25FEF7C5BCA07D032803
S1134B10C0F26582304D00F0A7FF411F1A292860BA
S1134B2011D2264A784910600860012240F25110DF
S1134B3002F003F814227549204601F0D1F900F07F
S1134B4012FEFEF709BFAF25FEF7A5BC1C490A708B
S1134B5040F239106C490A70012201F0EEFF142270
S1134B60DFF87C17204601F0BBF900F0FCFD0120C2
S1134B7004F075FDFEF7F0BE114901200870012212
S1134B8061490A7040F2391001F0D7FF1422DFF8AE
S1134B905017204601F0A4F900F0E5FD012004F0CF
S1134BA05EFDFEF7D9BE00BF8000002044E8FF1F71
S1134BB048E8FF1F84000020880000208C000020AB
S1134BC0150100206CE8FF1F70E8FF1F74E8FF1F49
S1134BD0120100201301002024000020A07D0328DE
S1134BE0C0F2FD81DFF8CC5C00F03EFFA0F10A01C9
S1134BF06E2928600DD8DFF8C02C43491060086086
S1134C0014224249204601F06BF900F0ACFDFEF796
S1134C10A3BEB125FEF73FBCA07D0328C0F2DF810F
S1134C20DFF8905C00F020FFA0F10A016E292860F3
S1134C300DD8DFF8882C34491060086014223349F9
S1134C40204601F04DF900F08EFDFEF785BEB22539
S1134C50FEF721BCA07D0328C0F2C181DFF8545CBB
S1134C6000F002FFA0F10A016E2928600DD8DFF8D8
S1134C70502C25491060086014222449204601F074
S1134C802FF900F070FDFEF767BEB325FEF703BCF5
S1134C90A07D0328C0F2A381DFF8185C00F0E4FED5
S1134CA0286088B140F2F51188420DD2DFF8142C47
S1134CB0154B1649107018601422204601F010F9A3
S1134CC000F051FDFEF748BEB425FEF7E4BBA07D1D
S1134CD00328C0F28481DFF8DC5B00F0C5FE2860A5
S1134CE0C0B140F2F511884214D2DFF8C02C064B53
S1134CF00649107018601422204601F0F1F800F003
S1134D0032FDFEF729BE00BFD0FFFF1FA4890100BA
S1134D101CE8FF1FB525FEF7BEBB2925FEF7BBBB6C
S1134D2002F0DDF9FEF718BE84B0DFF8D81C68463F
S1134D302C2201F0D5F80FBC04F031FDDFF8F06C43
S1134D40DFF8C45C3268DFF8C46C00238018594172
S1134D50C5E90001284604F0C5FD306001460A2378
S1134D6048698A686438486192FBF3F30869401C17
S1134D7008613033BD4803700A238A6892FBF3F359
S1134D8003EB8305A2EB4502303242700A234A68E2
S1134D9092FBF3F3303383700A22496891FBF2F2F9
S1134DA002EB8203A1EB43013031C1700020A075F6
S1134DB0B725FEF770BB84B0DFF8481C68462C2288
S1134DC001F08EF80FBC04F0EAFCDFF8646CDFF845
S1134DD0385C3268DFF8346C002380185941C5E927
S1134DE00001284604F07EFD014630600A234A692A
S1134DF00869643A401C4A61086192FBF3F29B48DB
S1134E00303202704A6992FBF3F303EB8305A2EBA1
S1134E104502303242700A230A6992FBF3F33033BD
S1134E2083700A230A6992FBF3F303EB8305A2EB75
S1134E3045023032C2700A23CA6892FBF3F330335E
S1134E4003710A22C96891FBF2F202EB8203A1EB1F
S1134E504301303141710020A075B825FEF71BBB1A
S1134E60BB25FEF718BBDFF8905CDFF8680414225A
S1134E70294601F035F814222946204601F030F87D
S1134E807BA0DFF8781C02780A700120A0767F22CC
S1134E906421002022776176A075BC25FEF7FBBA59
S1134EA0BF25FEF7F8BADFF8505CDFF828041422B7
S1134EB0294601F015F814222946204601F010F87D
S1134EC06BA0DFF8381C02780A700120A0767F22DC
S1134ED06421002022776176A075C025FEF7DBBA35
S1134EE0DFF81C1CCF200870C1256277FEF7D3BA07
S1134EF0C425FEF7D0BA217FA07D7F292DD10128BA
S1134F0019D1DFF8F46BDFF8CC031422314600F03A
S1134F10E7FF14223146204600F0E2FF54A0DFF8F8
S1134F20DC1B02780A70642001220021A2766076DC
S1134F30A175FEF7B0BA00283EF40EAD202020770C
S1134F40FBF72EF9A07D494A401EA0750021C0B28E
S1134F5011547F202077FEF7FFBC444B19547F2166
S1134F6020282177BEF697AA401CA075C0B21A5417
S1134F70FEF791BAA07D032831DB3C480178303933
S1134F8001EB81024178303901EB4201182921D229
S1134F900A468178303901EB8103C178303901EB5D
S1134FA043013B2914D8DFF85C0BDFF8846ADFF88F
S1134FB0587BC261002381614361336001233B70EC
S1134FC0DFF8480B0260DFF8EC281160FEF763BAE3
S1134FD0C525F5E7C525F6E7A07D052803DCA07DFA
S1134FE0401CFFF79BB9214EDFF8C87831787278FE
S1134FF0303901EB8100303A02EB4002102A3A606A
S113500038D9B078F378757900EB8001307903EB07
S11350104103A3F1100100EB800305EB4305A5F167
S11350201000D2B2C9B2C0B200F0BAFD256A01289C
S113503020D1DFF8D00A3A688262B178F37801EBC4
S1135040810203EB4203A3F504734362317973795C
S113505001EB810203EB4203A3F504730362012015
S1135060DFF8AC1A0870FEF716BA00BFF8FEFF1F8F
S113507000000000C625FEF70EBACA25FEF70BBADB
S1135080CB25FEF708BADFF88C1A0988C80746BF93
S11350904FF6FE70014041F00101DFF8782A1180DB
S11350A0FEF7F9B9DFF86C1A0988880758BF41F090
S11350B00201F2D508464FF6FD710140EDE7DFF835
S11350C0541A0988480758BF41F00401E5D5084639
S11350D04FF6FB71F1E7DFF83C1A0988080758BF5F
S11350E041F00801D9D508464FF6F771E5E7DFF836
S11350F0241A0988C80658BF41F01001CDD50846C6
S11351004FF6EF71D9E7DFF80C1A0988880658BF03
S113511041F02001C1D508464FF6DF71CDE7DFF835
S1135120F4190988480658BF41F04001B5D508462E
S11351304FF6BF71C1E7DFF8DC190988080658BFCC
S113514041F08001A9D508464FF67F71B5E7DFF835
S1135150C4190988C80558BF41F480719DD5084613
S11351604FF6FF61A9E7DFF8B009017801297EF461
S1135170F3AB062202700020DFF8A019DFF8A05973
S1135180DFF8A06908600021042003F077FE002105
S1135190002003F073FE0021012003F06FFE0021C4
S11351A0122003F06BFE0020287001272878327843
S11351B007FA00F10A40002A07DC2878401C28700E
S11351C0C0B20828F2DBFEF7C7BB08300021C0B22A
S11351D003F054FEF1E701F091FFFEF7BDBB11258A
S11351E0FEF759B90021002003F048FEFEF7B4BBD6
S11351F00021012003F042FEFEF7AEBB0021022095
S113520003F03CFE256ADFF8201900200860FEF751
S113521042B90021032003F031FEFEF79DBB0021BB
S1135220042003F02BFEFEF797BB0021052003F0BA
S113523025FEFEF791BB0021062003F01FFEDFF8D8
S1135240EC180020086003F045FFFEF785BB002141
S1135250082003F013FEFEF77FBB0021092003F0B2
S11352600DFEFEF779BB00210A2003F007FEFEF7CE
S113527073BB00210B2003F001FEFEF76DBB002180
S11352800C2003F0FBFDFEF767BB00210D2003F0AB
S1135290F5FDFEF761BB00210E2003F0EFFDFEF7E4
S11352A05BBB00210F2003F0E9FDFEF755BBDC25B5
S11352B0FEF7F1B8DFF8781801200870DD25FEF755
S11352C0EAB8DFF86C1801200870DE25FEF7E3B8B1
S11352D0B889010058FFFF1FCC890100E089010053
S11352E0F4890100DF25FEF7D6B8E025FEF7D3B830
S11352F0401EE7283EF6CFA8DFE810F0FD00FD00D1
S1135300FD00FD00FD00160219021902190219021E
S11353101902190219021902190219021C021C02AB
S11353201C021C021C021C021C021C021C021C0289
S11353301C021C021C021C021C021C021C021C0279
S11353401C021C02FD00FD00FD0009020C020C02FF
S11353500902090209020902090209020902EC0010
S1135360EC00EC00EC00EC00EC00EC00EC00EC00D9
S1135370EC00EC00EC00EC00EC00EC00EC00EC00C9
S1135380EC00EC00EC00EC00EC00EC00EC00EC00B9
S1135390EC00EC00EC00E800EC00EC00EC00EC00AD
S11353A0EC00EC00EC00EC00EC00EC00EC00EC0099
S11353B0EC00EC00EC002A010001030106010901E4
S11353C00C010F011201150118011B011E0121011D
S11353D0240127012D0130013301360139013C013B
S11353E03F014201450148014B01EA004E015B01C6
S11353F0E800E800E80069016C016F0172017501C1
S113540078017B017E018101840187018A018D017C
S1135410900193012A0100010301060109010C0115
S11354200F011201150118011B011E0121012401A4
S113543027012D0130013301360139013C013F01BF
S11354404201450148014B0169016C016F01720180
S1135450750178017B017E0181018401E800E80087
S1135460E800E800E8001302960199019C019C0100
S1135470A201A5019F019F01C901CC01F001F00126
S1135480F001F301FA01FD0100020002000203022F
S113549006020602060206020602060206020602C8
S11354A00602E800E800E8001F021F021F021F02B4
S11354B01F02220225022A022F023202EE00EE000F
S11354C0EE00EE00F100F400F700FA00FDF7E3BF90
S11354D0FFF761B9FDF7F6BF0125FDF7DCBFE12554
S11354E0FDF7D9BFE225FDF7D6BFE325FDF7D3BF0E
S11354F0E425FDF7D0BF0025FDF7CDBF3325FDF72B
S1135500CABF3425FDF7C7BF3525FDF7C4BF36250F
S1135510FDF7C1BF3725FDF7BEBF3825FDF7BBBF7B
S11355203925FDF7B8BF3A25FDF7B5BF3B25FDF793
S1135530B2BF3C25FDF7AFBF3D25FDF7ACBF3E250F
S1135540FDF7A9BF3F25FDF7A6BF4025FDF7A3BF83
S11355503225FDF7A0BF4125FDF79DBF4225FDF78C
S11355609ABF4325FDF797BF4425FDF794BF452512
S1135570FDF791BF4625FDF78EBF4725FDF78BBF8D
S11355804825FDF788BF4925FDF785BF4A25FDF766
S113559082BF4B25FDF77FBFDFF898150A7040F2F4
S11355A03910DFF88C150A70012201F0C6FAFEF7F3
S11355B095B8DFF88015012008700122DFF8701516
S11355C00A7040F2391001F0B8FAFEF787B84F2597
S11355D0FDF761BF5025FDF75EBF5125FDF75BBFA9
S11355E05225FDF758BF5325FDF755BF5425FDF748
S11355F052BF5525FDF74FBF5625FDF74CBF572524
S1135600FDF749BF5825FDF746BF5925FDF743BFB0
S11356105A25FDF740BF5B25FDF73DBF5C25FDF72F
S11356203ABF5D25FDF737BF2C25FDF734BF2D2587
S1135630FDF731BF2E25FDF72EBF2F25FDF72BBF1C
S1135640B925FDF728BFDFF8F0542946202000F0E3
S1135650F9FA2022294640F2FD2001F06EFA2E20AC
S113566020621422DFF8D414DFF8D40400F038FCEC
S11356701422DFF8D014204600F032FC0020A0767B
S113568000F071F8032003F0EAFFFEF765B9BD25C9
S1135690FDF701BFDFF8A0542946202000F0D2FA1C
S11356A02022294640F21D3001F047FA2F202062C3
S11356B01422DFF89414DFF8880400F011FC14229B
S11356C0DFF88014204600F00BFC0020A07600F0E8
S11356D04AF8032003F0C3FFFEF73EB93025FDF777
S11356E0DABEDFF830144FF6FF700880FEF70CB80E
S11356F0A275FFF75DBBA275FFF7AFBB2725FDF7CA
S1135700CABEC725FDF7C7BEC825FDF7C4BE03251D
S1135710FDF7C1BEDFF8FC134FF6FF700880FEF7FB
S113572027B92B25FDF7B7BE0725FDF7B4BE06251F
S1135730FDF7B1BE1025FDF7AEBEC925FDF7ABBE22
S1135740D725FDF7A8BEDFF8E8130A70FDF7C8BF38
S1135750DFF8DC130A70FDF7C5BFDA25FDF79BBE41
S1135760DB25FDF798BEFEB5DFF8E073DFF88C4368
S11357703879DFF8DC53DFF8C86302280CD114222F
S1135780DFF8D013304600F0ABFB1422DFF8C81367
S1135790284600F0A5FB11E001280FD11422DFF800
S11357A0BC13304600F09CFB3A68DFF8B413204683
S11357B000F0F6FB2946204600F08CFA7B2000F02E
S11357C027F900202875A7A7DFF8980300F032F91D
S11357D0304600F02FF9384600F02CF9284600F046
S11357E029F9384600F026F9DFF87C0300F022F9A5
S11357F0687E642190FBF1F03030C0B200F008F90B
S1135800687E0A2390FBF3F00A2190FBF1F101EB8F
S11358108102A0EB42003030C0B200F0F9F8687E9B
S11358200A2190FBF1F101EB8102A0EB4200303040
S1135830C0B200F0EDF8A87E01280CBF4120492039
S113584000F0E6F8C94800F0F5F82A7D90A120465A
S113585000F0A6FB204600F0EDF8287E012810D1C8
S1135860A87E01280CBF4120492001902B46687E68
S1135870BF4900903246204600F092FB204600F0DB
S1135880F8FA287E022813D1A87E01280CBF4120F3
S1135890492001902B46687EB64900903246204646
S11358A000F07EFB204603B0BDE8F04004F0A7B84A
S11358B003B0F0BD240000206CE8FF1F70E8FF1F58
S11358C074E8FF1F13010020F0B4AB49087810F00E
S11358D0E00F09D0087840F080000870B1F8031098
S11358E0A6480170F0BC70470A78500726D5A34A31
S11358F0B1F80330964C1370E07EF8B913787B2B23
S113590002D07D2B2ED03EE090789D4CC0B900256E
S1135910257001249470D070507801280ED10A7833
S11359209007FCD51846A1F803008948017D5B184F
S113593003754FF4FA70F0BC03F090BEF0BC7047EE
S1135940D07806466427642596FBF7F705FB1766AF
S11359507B27A755401CC0B2642490FBF4F405FBDC
S11359601400D8E790780128D6D1D578844F6426DE
S113597095FBF6F6642000FB1655002078550125AA
S1135980E5769070C8E7D07805466426642495FBD4
S1135990F6F604FB16557A4F7B55401CC0B26425BD
S11359A090FBF5F504FB1500B5E70000120100209B
S11359B07448016841F00601016080217248026860
S11359C042F04002026001227048417002700023DC
S11359D0437100210171AD228281802143786C4A98
S11359E043F00303437011608023DFF8A8C1CCF8AF
S11359F000302021684A1170437843F0100343704B
S1135A007047000058FDFF1FB8FFFF1F98FFFF1FDE
S1135A1059490A789307FCD50246A1F803204C495A
S1135A200A7D801808754FF4FA7003F017BE000061
S1135A30A0FFFF1F38B504464F4D0EE029788A07B2
S1135A40FCD50146A5F80310641C41490A7D801861
S1135A5008754FF4FA70C046C04620780028EDD18E
S1135A6031BD00000D0A000033480378427803EB8F
S1135A70830102EB41028178C07802EB820301EBDF
S1135A80430101EB810200EB4200444908187047CE
S1135A9025647D0030B40A21B0FBF1F101EB8104EF
S1135AA0254AA0EB44043034D4700A23B1FBF3F349
S1135AB003EB8304A1EB4401303191700A23642188
S1135AC0B0FBF1F1B1FBF3F303EB8304A1EB44016D
S1135AD0303151704FF47A75B0FBF5F00A21B0FB08
S1135AE0F1F101EB8103A0EB430030301070002092
S1135AF01749887530BC7047088A010058F9FF1FA0
S1135B0089FDFF1F44FDFF1F010100201C00002030
S1135B1000010020FCFFFF1F7AE8FF1F280000207F
S1135B2004010020F0000020680000206C00002028
S1135B30D0FFFF1F7BE8FF1FF8FEFF1FD886010080
S1135B4058FFFF1F1C8A010014870100F0FFFF1F8C
S1135B50D4FEFF1F308A0100448A0100588A0100E4
S1135B606C8A01007C8A0100988A0100AC8A0100D9
S1135B70B88A0100289D0100058003401000002020
S1135B8038FCFF1F083003401C36034000800340EC
S1135B9080E200E000E100E007E400E0B02FFFFF56
S1135BA003460120491E0B2915D8DFE801F00F0632
S1135BB00F120F120F0F120F120F12F0030F02D158
S1135BC01D2B09DD07E01D2B06DB04E01F2B03DD85
S1135BD001E01E2B00DD0020704730B403460C4664
S1135BE000200CE0641C5B1C401C22787AB11D78F8
S1135BF0954218BF3F2AF5D00C465B1C401C1A780E
S1135C001AB12578AA42F8D1EFE74FF0FF3030BC43
S1135C10704730B4002404E011F8015B00F8015B24
S1135C20641C0B780BB19442F6D30021017030BC94
S1135C30704703E08B4208BF0270401C0378002BBE
S1135C40F8D1704738B504460D46284603F004FFE2
S1135C5003E0002201F8012C401EC1B2294411F8CE
S1135C60012CA242F5D031BD0B4604E0824218BF9C
S1135C7003F8012B491C0A78002AF7D10020187078
S1135C807047304A5368D2F808C0C2F804C00146CD
S1135C901068D2F810C013601161D3689360C2F821
S1135CA00CC0704703F016FA2748017801F0EF01A1
S1135CB001704FF4FA6003F0D6FCBFF34F8F234911
S1135CC023480A6802F4E06202430A60BFF34F8F7C
