S0390000736B2D666D332D3438706D632D757362737469636B5F7573625F6465766963655F7669727475616C5F636F6D5F706F72742E73726563CC
S113000028050020119F01002D9F0100319F010050
S1130010359F0100399F01003D9F01000000000051
S1130020000000000000000000000000419F0100EB
S1130030459F010000000000499F01004D9F010001
S1130040519F0100559F0100599F01005D9F0100D0
S1130050619F0100659F010095960000C55800004E
S1130060439D010001990000799F010009470100A7
S1130070819F01008D750000899F0100CD9F0100C3
S1130080CD9F01008D9F0100919F0100CD9F010034
S1130090CD9F0100CD9F0100CD9F0100959F0100E0
S11300A0999F0100419D0100A19F0100CD9F010086
S11300B0A59F0100A99F0100AD9F0100B19F010010
S11300C0CD9F0100CD9F01004D9D0100599D010070
S11300D0CD9F0100CD9F0100BD9F0100C19F010084
S11300E0C59F0100C99F0100CD9F0100CD9F010064
S11300F0CD9F0100CD9F0100CD9F0100CD9F010048
S113010038B5224DE87E012833D1214C21492046BF
S113011005F061FD012802DB012102221BE019A187
S1130120204605F058FD012802DB0121002212E0DF
S11301301949204605F04FFD012802DB0121012267
S113014009E011A1204605F046FDE97D6A7D0128FC
S1130150A4BF01210322E9750021287E6A75E9768E
S113016038B10E4805F083FE2046BDE8324005F064
S11301707EBE31BD05487F217E2200230170C273FB
S1130180837670475550000045534300D4FEFF1F4B
S113019038FCFF1F0878010010780100187801006E
S11301A0F0B5DFF89C4C206AE82883B002F2AF80F7
S11301B0DFE810F0E900FA00060112011E01570100
S11301C0E01022113211461263128812CA122A1345
S11301D04713641379139613C913F8132714561489
S11301E0E814191554158515B615E715181649168A
S11301F07816A516D016FB16261751177C17AD10C6
S1130200D601E701880E200F280F980EA80EBA0E0B
S1130210D20EE40EFC0E0E0FF301040210021C02B7
S11302202802340240024C025802640270027C022A
S113023088029402A002AC02B802C402D002DC021A
S1130240E802F40200030C031803240330033C0304
S1130250AD104803540360036C03780384039203D2
S11302609E03AA03BD03CC03DB03E703F303FF03ED
S11302700B042E0455047E04A804CE04F3041805CC
S11302803D0564058905AE05D405F8051C063D0643
S1130290410648066C068F06B306D006ED06F7063F
S11302A001071E0742074E076407AD10AD10AD10DD
S11302B0B607D507F407130832085B088408AD08AD
S11302C0D708FF0824094609620966098D09DF0970
S11302D0EB09F709030A0F0A1B0A270A330A3F0A24
S11302E04B0A570A640A710A7E0A8B0A980AA50AFD
S11302F0B20AC20ACF0ADC0AEC0AF90A060B160B88
S1130300AD10230B300B400B4D0B5A0B6A0B770BC4
S1130310840B920B1209A20BAF0BBD0BCE0BDC0BA3
S1130320AD103C0F620FB20FC20FFC0F0310C80FC9
S1130330D80F2E1003108110B210BD10C8109E0FDC
S1130340A80FEC0BFC0B070C1E0C4D0C6E0C880C50
S1130350A60CC00CD90CF60C0F0D300D490D660D12
S1130360AD10920DA30DAD0DB70DC80DE00D160E19
S11303702C0E460E680E6401750181018D019901F0
S1130380A601B301C0011422DFF8E41CDFF8E40C79
S113039005F0A4FD1422DFF8E01C204605F09EFDC4
S11303A07E20E07301F023BE1422DFF8C41CDFF8C2
S11303B0C40C05F093FD1422DFF8D81C01F09CBD99
S11303C01422DFF8AC1CDFF8AC0C05F087FD142216
S11303D0DFF8C41C01F090BD1422DFF8941CDFF890
S11303E0940C05F07BFD1422DFF8B01C01F0FABD7B
S11303F0657EDFF8AC1CDFF87C0C142205F06EFD82
S11304001422DFF8A01C204605F068FDA07D032817
S113041008D8DFE800F0020B131CDFF88C1C087806
S1130420A071CE256576012001F0F4BF7820A0717B
S1130430CF25DFF8741C4878E071F3E77820A071C9
S1130440E071D025DFF8600C81782172EAE778202A
S1130450A071E0712072D125DFF84C1CC87860725D
S1130460E0E71422DFF8381CDFF8080C05F036FD4D
S11304701422DFF8381C204601F0C9BF1422DFF82B
S1130480301CDFF8F00B05F029FD1422DFF8241CE2
S1130490204605F023FD7E20E07301F0A8BD142260
S11304A0DFF80C1CDFF8CC0B05F018FD1422DFF884
S11304B0081C01F021BD1422DFF8F41BDFF8B40B93
S11304C005F00CFD1422DFF8F41B01F015BD142215
S11304D0DFF8DC1BDFF89C0B05F000FD1422DFF8CD
S11304E0E01B01F07FBD1422DFF8D81BDFF8840B7A
S11304F005F0F4FC1422DFF8D01B204601F087BF7E
S11305001422DFF8C81BDFF86C0B05F0E7FC14229B
S1130510DFF8BC1B204601F07ABF1422DFF8B41BBD
S1130520DFF8500B05F0DAFC1422DFF8AC1B204690
S113053001F06DBF1422DFF8A41BDFF8380BDFF8DD
S1130540A05B05F0CBFCDFF89C0B0268E1A1284618
S113055005F024FD2146284605F0BAFB01F059BFF9
S11305601422DFF8841BDFF80C0B05F0B7FC14220F
S1130570DFF8781B204605F0B1FC7E20E07301F023
S113058036BD1422DFF8601BDFF8E80A05F0A6FC8C
S11305901422DFF85C1B01F025BD1422DFF8541B84
S11305A0DFF8D00A05F09AFC1422DFF84C1B204631
S11305B005F094FC7E20E07301F019BD1422DFF8ED
S11305C0341BDFF8B00A05F089FC1422DFF82C1B79
S11305D001F092BC1422DFF81C1BDFF8980A05F026
S11305E07DFC1422DFF8181B01F086BC1422DFF80E
S11305F0041BDFF8800A05F071FC1422DFF8041BE9
S113060001F07ABC1422DFF8EC1ADFF8680A05F06E
S113061065FC1422DFF8F01A01F06EBC1422DFF836
S1130620D41ADFF8500A05F059FC1422DFF8DC1A5A
S113063001F062BC1422DFF8BC1ADFF8380A05F0B6
S11306404DFC1422DFF8C81A01F056BC1422DFF85E
S1130650A41ADFF8200A05F041FC1422DFF8B41ACA
S113066001F04ABC1422DFF88C1ADFF8080A05F0FE
S113067035FC1422DFF8A01A01F03EBC1422DFF886
S1130680741ADFF8F00905F029FC1422DFF88C1A3B
S113069001F032BC1422DFF85C1ADFF8D80905F047
S11306A01DFC1422DFF8481D01F026BC1422DFF8DB
S11306B0441ADFF8C00905F011FC1422DFF8341DD8
S11306C001F01ABC1422DFF82C1ADFF8A80905F08F
S11306D005FC1422DFF8201D01F00EBC1422DFF803
S11306E0141ADFF8900905F0F9FB1422DFF8581DFD
S11306F001F002BC1422DFF8FC19DFF8780905F0D8
S1130700EDFB1422DFF8441D01F0F6BB1422DFF8E0
S1130710E419DFF8600905F0E1FB1422DFF8301D6D
S113072001F0EABB1422DFF8CC19DFF8480905F020
S1130730D5FB1422DFF81C1D01F0DEBB1422DFF808
S1130740B419DFF8300905F0C9FB1422DFF8081DDD
S113075001F0D2BB1422DFF89C19DFF8180905F068
S1130760BDFB1422DFF8F41C01F0C6BB1422DFF831
S11307708419DFF8000905F0B1FB1422DFF8E01C4E
S113078001F0BABB1422DFF86C19DFF8E80805F0B1
S1130790A5FB1422DFF8CC1C01F0AEBB1422DFF859
S11307A05419DFF8D00805F099FB1422DFF8B81CBF
S11307B001F0A2BB1422DFF83C19DFF8B80805F0F9
S11307C08DFB1422DFF8A41C01F096BB1422DFF881
S11307D02419DFF8A00805F081FB1422DFF8901C2F
S11307E001F08ABB1422DFF80C19DFF8880805F041
S11307F075FB1422DFF87C1C01F07EBB1422DFF8A9
S1130800F418DFF8700805F069FB1422DFF8041D02
S113081001F072BB1422DFF8DC18DFF8580805F089
S11308205DFB1422DFF8F01C01F066BB1422DFF834
S1130830C418DFF8400805F051FB1422DFF8DC1C73
S113084001F05ABB1422DFF8AC18DFF8280805F0D1
S113085045FB1422DFF8C81C01F04EBB1422DFF85C
S11308609418DFF8100805F039FB1422DFF8B41CE3
S113087001F042BB1422DFF87C18DFF8F80705F01A
S11308802DFB1422DFF8A01C01F036BB1422DFF884
S11308906418DFF8E00705F021FB1422DFF88C1C54
S11308A001F02ABB1422DFF84C18DFF8C80705F062
S11308B015FB1422DFF8781C01F01EBB1422DFF8AC
S11308C03418DFF8B00705F009FB1422DFF8641CC4
S11308D001F012BB256400001422DFF81818DFF8B9
S11308E0940705F0FBFA1422DFF84C1C01F004BB5A
S11308F01422DFF80018DFF87C0705F0EFFA142261
S1130900DFF8381C01F0F8BA1422DFF8E817DFF832
S1130910640705F0E3FA1422DFF8241C204605F0EE
S1130920DDFA7F202070FFF725FC01F060BB142264
S1130930DFF8C017DFF83C0705F0D0FADFF8040C45
S113094090E82E0084E82E0001F0D9BA1422DFF8D2
S1130950A417DFF8200705F0C1FADFF8EC0B90E8E4
S11309602E0084E82E0001F0CABA1422DFF884179E
S1130970DFF8000705F0B2FA1422DFF8D01B01F00B
S1130980BBBA1422DFF86C17DFF8E80605F0A6FA04
S11309901422DFF8BC1B01F0AFBA1422DFF854179D
S11309A0DFF8D00605F09AFA1422DFF8A81B01F04C
S11309B0A3BA1422DFF83C17DFF8B80605F08EFA64
S11309C01422DFF8941B01F097BA1422DFF8501DAB
S11309D0DFF8A00605F082FA41F288330022DFF83E
S11309E07C1B204605F0DAFADFF8BC060178A17119
S11309F04278E27181782172C278A07D6272032804
S1130A0001F2F582DFE810F0B00526004F0079000E
S1130A101422DFF8601DDFF85C0605F05FFA1E2380
S1130A200222DFF8381B204605F0B8FADFF8780612
S1130A300178A1714278E27181782172C278A07D37
S1130A406272032801F2D382DFE810F08E050400FD
S1130A502D005700CF216176012001F0DBBC142268
S1130A60DFF8641DDFF80C0605F038FA4FF4FA736A
S1130A700A22DFF8E81A204605F090FADFF8280683
S1130A800178A1714278E27181782172C278A07DE7
S1130A906272032801F2AB82DFE810F066050400FD
S1130AA005002F00D6E7D0216176012001F0B2BC09
S1130AB01422DFF8681DDFF8BC0505F00FFA4FF4C7
S1130AC0FA730A22DFF8941A204605F067FADFF871
S1130AD0D8050178A1714278E27181782172C278D7
S1130AE0A07D6272032801F28282DFE810F03D05E6
S1130AF0050004000600D6E7ACE7D12161760120A9
S1130B0001F088BC1422DFF8681DDFF8680505F0E1
S1130B10E5F94FF4FA730022DFF8401A204605F095
S1130B203DFADFF884050178A1714278E271817899
S1130B302172C278A07D6272032801F25882DFE834
S1130B4010F01305060005000400D6E7ABE781E7C3
S1130B501422DFF88C1DDFF81C0505F0BFF9C8234B
S1130B600122DFF8F819204605F018FADFF83805F5
S1130B700178A1714278E27181782172C278A07DF6
S1130B806272032801F23382DFE810F0EE040600FB
S1130B9005000400B1E786E75CE71422DFF8981D3E
S1130BA0DFF8D00405F09AF9C8230122DFF8AC1964
S1130BB0204605F0F3F9DFF8F0040178A1714278DA
S1130BC0E27181782172C278A07D6272032801F2F9
S1130BD00E82DFE810F0C9040600050004008CE76B
S1130BE061E737E71422DFF8A01DDFF8880405F079
S1130BF075F9C8230122DFF86419204605F0CEF9FF
S1130C00DFF8A4040178A1714278E271817821723D
S1130C10C278A07D6272032801F2E981DFE810F056
S1130C20A40406000500040067E73CE712E7142269
S1130C30DFF8B41DDFF83C0405F050F94FF4E1533C
S1130C404FF49672DFF81419204605F0A7F9DFF87F
S1130C5058040178A1714278E27181782172C278D6
S1130C60A07D6272032801F2C281DFE810F07D04E6
S1130C7006000500040040E715E7EBE61422DFF860
S1130C806C1DDFF8F00305F029F914230122DFF8C5
S1130C90CC18204605F082F9DFF80C040178A17124
S1130CA04278E27181782172C278A07D6272032851
S1130CB001F29D81DFE810F05804060005000400ED
S1130CC01BE7F0E6C6E61422DFF8C01DDFF8A40334
S1130CD005F004F93C230122DFF88018204605F0D2
S1130CE05DF9DFF8C4030178A1714278E27181787B
S1130CF02172C278A07D6272032801F27881DFE854
S1130D0010F03304060005000400F6E6CBE6A1E685
S1130D101422DFF8E41DDFF85C0305F0DFF84FF47C
S1130D2061633222DFF83418204605F037F9DFF822
S1130D3078030178A1714278E27181782172C278D6
S1130D40A07D6272032801F25281DFE810F00D04E5
S1130D50060005000400D0E6A5E67BE61422DFF8D1
S1130D609C1DC44805F0BAF83C230A22DFF8EC17AE
S1130D70204605F013F9DFF830030178A1714278B9
S1130D80E27181782172C278A07D6272032801F237
S1130D902E81DFE810F0E903060005000400ACE64C
S1130DA081E657E61422DFF8F01DB24805F096F804
S1130DB04FF461631E22DFF8A417204605F0EEF815
S1130DC0B9480178A1714278E27181782172C278C0
S1130DD0A07D6272032801F20A81DFE810F0C503E6
S1130DE006000500040088E65DE633E61422DFF819
S1130DF0AC1DA04805F072F81422DFF8081E204646
S1130E0005F06CF8A8480178A1714278E271817804
S1130E102172A17DC0786072002900F0A5830129A8
S1130E203FF418AE03293FF468AE01F0E0B8142291
S1130E30DFF8D41DDDE71422DFF8D01DD9E700BFA9
S1130E40D4FEFF1F1422DFF8C81D8A4805F046F8B7
S1130E504FF4FA630022DFF80417204605F09EF8E9
S1130E6091480178A1714278E27181782172C27847
S1130E70A07D6272032801F2BA80DFE810F07503E6
S1130E8006000500040038E60DE6E3E51422DFF869
S1130E90E81D784805F022F83C231422DFF8BC163C
S1130EA0204605F07BF880480178A1714278E27110
S1130EB081782172C278A07D6272032801F2978042
S1130EC0DFE810F0520306000500040015E6EAE529
S1130ED0C0E51422DFF8A41D664804F0FFFF40F6C5
S1130EE0C4130522DFF87416204605F057F86E483F
S1130EF00178A1714278E27181782172C278A07D73
S1130F006272032801F27380DFE810F02E030600FA
S1130F1005000400F1E5C6E59CE51422DFF81C1E7B
S1130F20544804F0DBFF1422DFF8141E204604F0BA
S1130F30D5FF5D480178A1714278E2718178217210
S1130F40A17DC0786072002900F00E8302293FF46D
S1130F50AAAD67E71422DFF8101E464804F0BEFF6E
S1130F601422DFF8081E204604F0B8FF4E4801782A
S1130F70A1714278E27181782172A17DC07860729A
S1130F80002900F0F18202293FF48DAD4AE71422D2
S1130F90DFF8DC1D374804F0A1FF1422DFF8281E17
S1130FA02DE71422DFF8241E324804F097FF1422A0
S1130FB0DFF8141E23E71422DFF81C1E2D4804F06A
S1130FC08DFF1422DFF8141E204604F087FF3648F4
S1130FD00178A1714278E27181782172A17DC07893
S1130FE06072002900F0C08202293FF45CAD19E769
S1130FF01422DFF820151F4804F070FF4FF4FA6341
S11310000A22DFF85815204604F0C8FF2648017864
S1131010A1714278E27181782172C278A07D6272F6
S1131020032800F2E487DFE810F09F0206000500C1
S1131030040062E537E50DE51422DFF8381E0D489B
S113104004F04CFF1422DFF8301E204601F04CB9A6
S11310501422DFF8281E074804F040FF1422DFF8AA
S1131060201E204604F03AFF7E20E07300F0BFBF4C
S1131070D879010058FFFF1FEC7901001422DFF832
S1131080FC1DDFF8380E04F029FF1422DFF8301EAF
S113109000F0A8BF007A0100147A0100287A010048
S11310A03C7A0100507A0100F8FEFF1F647A0100C7
S11310B0787A01008C7A0100A07A0100B47A0100E8
S11310C0C87A0100DC7A0100F07A0100047B010097
S11310D0187B01002C7B0100407B0100547B010044
S11310E058F9FF1F44FDFF1F687B01007C7B010052
S11310F0907B0100A47B0100B87B0100CC7B010044
S1131100E07B0100F47B0100087C01001C7C0100F1
S1131110307C0100447C0100587C01006C7C01009F
S11311201422DFF8281EDFF8940D04F0D7FE1422F1
S1131130DFF81C1E204604F0D1FEDFF8180E0178FB
S1131140A1714278E27181782172A17DC0786072C8
S1131150002900F0098202293FF4A5AC62E61422BA
S1131160DFF83C1EDFF8540D04F0B8FE1422DFF85B
S1131170E01D204604F0B2FEDFF8D80D0178A1711D
S11311804278E27181782172A17DC0786072002971
S113119000F0EA8102293FF486AC43E61422DFF82A
S11311A0041EDFF8180D04F099FE1422DFF8F81D70
S11311B0204604F093FEDFF89C0D0178A17142787B
S11311C0E27181782172A17DC0786072002900F0FB
S11311D0CB8102293FF467AC24E61422DFF83C1EDD
S11311E0DFF8D80C04F07AFE1422DFF8641D2046E0
S11311F004F074FEDFF85C0D0178A1714278E271AD
S113120081782172A17DC0786072002900F0AC81E0
S113121002293FF448AC05E61422DFF8041EDFF887
S11312209C0C04F05BFE42F20F730022DFF8F41D05
S1131230204604F0B3FEDFF81C0D0178A17142785A
S1131240E27181782172C278A07D6272032800F273
S1131250CE86DFE810F08901080006000400FFF7DD
S11312604CBCFFF720BCFFF7F5BB1422DFF8B81D18
S1131270DFF8480C04F032FE42F20F730022DFF86C
S1131280A41D204604F08AFEDFF8C80C0178A17181
S11312904278E27181782172C278A07D627203285B
S11312A000F2A586DFE810F06001080006000400E3
S11312B0FFF723BCFFF7F7BBFFF7CCBB1422DFF823
S11312C0141EDFF8F80B04F009FE4FF47A7332228F
S11312D0DFF8501D204604F061FEDFF8780C017839
S11312E0A1714278E27181782172A17DC078607227
S11312F0032900F27C86DFE811F0370108000600BC
S11313000400FFF7FABBFFF7CEBBFFF7A3BBDFF880
S1131310300EDFF8A81B90E86C0081E86C0040F602
S113132037130022DFF8FC1C204604F037FEDFF8F8
S1131330240C0178A1714278E27181782172C2781B
S1131340A07D6272032800F25286DFE810F00D01DE
S1131350080006000400FFF7D0BBFFF7A4BBFFF7AB
S113136079BB1422DFF8201EDFF8500B04F0B6FD21
S11313701E230522DFF8AC1C204604F00FFEDFF824
S1131380D40B0178A1714278E27181782172C2781C
S1131390A07D6272032800F22A86DFE810F0E500DF
S11313A0080006000400FFF7A8BBFFF77CBBFFF7AB
S11313B051BB1422DFF8D41DDFF8000B04F08EFDBE
S11313C01422DFF8CC1D204604F088FD7E20E07353
S11313D0FEF7D0FE01F01DB81422DFF8B01DDFF8CF
S11313E0DC0A04F07BFD1422DFF8A81D00F0FABD2E
S11313F0807C0100947C0100A87C01001422DFF8A9
S1131400981DDFF8B80A04F069FD1422DFF88C1D7A
S1131410204604F063FDDFF83C0B0178A1714278AB
S1131420E27181782172A17DC078607200293FF455
S113143011AB02293FF461ABFFF435AB00F0D7BD2B
S11314401422DFF85C1DDCE7BC7C0100D07C0100C9
S1131450E47C0100F87C01000C7D0100207D01008A
S1131460347D0100487D01005C7D0100707D010038
S1131470847D0100987D01001422DFF8281DC0E757
S11314801422DFF8241DDFF8340A04F027FD1E239C
S113149002223249204604F081FDDFF8B80A0178BF
S11314A0A1714278E27181782172C278A07D627262
S11314B0032800F29C85DFE810F0570008000600BE
S11314C00400FFF71ABBFFF7EEBAFFF7C3BA142202
S11314D0DFF81C1EDFF8E40904F000FD1E230222DD
S11314E01E49204604F05AFDDFF8680A0178A1710C
S11314F04278E27181782172C278A07D62720328F9
S113150000F27585DFE810F030002E002C00040096
S1131510FFF7F3BAAC7D0100C07D0100D47D01006A
S1131520E87D0100FC7D0100107E0100247E0100A5
S1131530387E01004C7E0100607E0100747E010053
S1131540887E01009C7E0100AC7E0100BC7E01000F
S1131550D07E0100E47E0100F87E0100207F0100BE
S1131560FFF7A1BAFFF776BACE216176012000F029
S113157051BF14226A49DFF8440904F0AFFC142275
S1131580DFF8EC1D204600F042BF14227949DFF851
S11315902C0904F0A3FC1422DFF8D41D204600F02B
S11315A036BF14228849DFF8140904F097FC14228A
S11315B0DFF8BC1D204600F02ABF14229749DFF84B
S11315C0FC0804F08BFC1422DFF8A41D204600F074
S11315D01EBF1422A649DFF8E40804F07FFC14229D
S11315E0DFF88C1D204600F012BF1422BC49DFF83E
S11315F0CC0804F073FC1422DFF8741D204600F0BC
S113160006BF1422CC49DFF8B40804F067FC1422A6
S1131610DFF85C1D204600F0FABE1422DA49DFF838
S11316209C0804F05BFC1422DFF8441D204600F003
S1131630EEBE1422EC49DFF8840804F04FFC1422B7
S1131640DFF82C1D204600F0E2BE1422E749DFF843
S11316506C0804F043FC1422DFF8141D204600F04B
S1131660D6BE1422DFF82414DFF8500804F036FC48
S11316701422DFF8FC1C204600F0C9BE1422DFF857
S11316807814DFF8380804F029FC1422DFF8E01C91
S1131690204600F0BCBE1422DFF86014DFF81C08FA
S11316A004F01CFC1422DFF8C81C204600F0AFBE76
S11316B01422DFF8E414DFF8040804F00FFC142209
S11316C0DFF8AC1C204600F0A2BE1422DFF8C81DCF
S11316D0DFF8E80704F002FC1422DFF8941C20462B
S11316E000F095BE1422DFF82015DFF8D00704F0CF
S11316F0F5FB1422DFF8781C204600F088BE142283
S1131700DFF80815DFF8B40704F0E8FB1422DFF86B
S1131710601C204600F07BBE1422DFF8801D01E02F
S11317200C7F0100DFF8940704F0D8FB1422DFF8E3
S1131730401C204600F06BBE1422DFF83C15DFF895
S11317407C0704F0CBFB1422DFF8241C204600F0B5
S11317505EBE1422DFF82415DFF8600704F0BEFB38
S11317601422DFF80C1C204600F051BE1422DFF8CE
S1131770CC1501E0347F0100DFF8400704F0AEFB34
S11317801422DFF8EC1B204600F041BE1422DFF8DF
S1131790D815DFF8280704F0A1FB1422DFF8D01BCA
S11317A0204600F034BE1422DFF8B01DDFF80C0729
S11317B004F094FB1422DFF8B81B204600F027BE87
S11317C01422DFF89C1D01E0487F0100DFF8EC06DD
S11317D004F084FB1422DFF8981B204600F017BEA7
S11317E01422DFF8F415DFF8D40604F077FB142292
S11317F0DFF87C1B204600F00ABE1422DFF84C17E9
S1131800DFF8B80604F06AFB1422DFF8641B2046F4
S113181000F0FDBD1422DFF8881701E05C7F0100B1
S1131820DFF8980604F05AFB1422DFF8441B204624
S113183000F0EDBD1422DFF86C17DFF8800604F029
S11318404DFB1422DFF8281B204600F0E0BD1422D3
S1131850DFF8C817DFF8640604F040FB1422DFF851
S1131860101B204600F0D3BD1422DFF8B41701E0AA
S1131870707F0100DFF8440604F030FB1422DFF827
S1131880F01A204600F0C3BD1422DFF89C17DFF8DD
S11318902C0604F023FB1422DFF8D41A204600F0AF
S11318A0B6BD1422DFF82C18DFF8100604F016FB7E
S11318B01422DFF8BC1A204600F0A9BDDFF8800826
S11318C0DFF8F81590E86C0081E86C001422DFF86A
S11318D0A01A204600F09BBD1422DFF8AC1801E0EA
S11318E0847F0100DFF8D40504F0F8FA1422DFF84D
S11318F0801A204600F08BBD1422DFF89C18DFF814
S1131900BC0504F0EBFA1422DFF8641A204600F058
S11319107EBDDFF8D80CDFF8A41590E86C0081E8F0
S11319206C001422DFF8481A204600F070BD14221F
S1131930DFF8701802E000BF987F0100DFF87C0533
S113194004F0CCFA1422DFF8281A204600F05FBD18
S1131950DFF86C0DDFF8641590E86C0081E86C002A
S11319601422DFF80C1A204600F051BD1422DFF8CF
S11319708019DFF8480504F0B1FA1422DFF8F019F1
S1131980204600F044BD00BFAC7F01001422DFF804
S1131990541DDFF8280504F0A1FA1422DFF8481DCD
S11319A0204604F09BFA0020A07692E11422DFF88E
S11319B0341DDFF8080504F091FA1422DFF82C1D19
S11319C09AE21422DFF81C1DDFF8F00404F086FA12
S11319D01422DFF81C1D204604F080FA00207F2129
S11319E0A076217000F093BCC07F0100D47F010079
S11319F01422DFF8001DDFF8C40404F06FFA142287
S1131A00DFF8F41C204604F069FA0020A076DFF821
S1131A10EC2C107800F001010029C4BF4822A27008
S1131A2010F00201C4BF4822627110F00401C4BF67
S1131A304822227210F00801C4BF4822E27210F05A
S1131A40100040F364844820A07300F060BC1422AA
S1131A50DFF8AC1CDFF8640404F040FA0020DFF87F
S1131A60A41CA0760A7802F00102002ACCBFD8A2F6
S1131A70D8A2DFF8945CDFF8941C284604F08EFAB0
S1131A802146284604F024F934E100BFE87F010030
S1131A901422DFF86C1CDFF8240404F01FFA002081
S1131AA0DFF8601CA0760A7802F00202002ACCBF9C
S1131AB0C7A2C8A2DFF8505CDFF8C01C284604F0B7
S1131AC06DFA00E11422DFF8381CDFF8F00304F0AB
S1131AD005FA0020DFF82C1CA0760A7802F0040234
S1131AE0002ACCBFBAA2BBA2DFF81C5CDFF8901CB2
S1131AF0284604F053FAE6E0FC7F01001080010060
S1131B001422DFF8FC1BDFF8B40304F0E7F900202B
S1131B10DFF8F01BA0760A7802F00802002ACCBF96
S1131B20ABA2ACA2DFF8E05BDFF8581C284604F057
S1131B3035FAC8E01422DFF8C81BE04804F0CEF9F7
S1131B400020DFF8C01BA0760A7802F01002002AF9
S1131B50CCBF9FA29FA2DFF8B05BDFF82C1C284605
S1131B6004F01CFAAFE01422DFF8941BD34804F00D
S1131B70B5F90020DFF88C1BA0760A7802F0200269
S1131B80002ACCBF92A293A2DFF87C5BDFF8FC1B97
S1131B90284604F003FA96E024800100388001000E
S1131BA01422DFF85C1BC54804F098F90020DFF824
S1131BB0541BA0760A7802F04002002ACCBF84A20B
S1131BC084A2DFF8445BDFF8C81B284604F0E6F97A
S1131BD079E01422DFF8281BB84804F07FF90020CC
S1131BE0DFF8201BA0760A7802F08002002ACCBF1E
S1131BF077A278A2DFF8105BDFF8981B284604F080
S1131C00CDF960E04C800100608001007480010027
S1131C10888001001422DFF8E81AA84804F05EF96D
S1131C200020DFF8E01AA0760A8802F48072002A05
S1131C30CCBF67A267A2DFF8D05ADFF8641B28463E
S1131C4004F0ACF93FE01422DFF8B41A9B4804F026
S1131C5045F90020DFF8AC1AA0760A8802F48072F5
S1131C60002ACCBF5AA25BA2DFF89C5ADFF8341BCF
S1131C70284604F093F926E09C800100B08001001E
S1131C801422DFF87C1A8D4804F028F90020DFF8CC
S1131C90741AA0760A8802F48072002ACCBF4CA27F
S1131CA04CA2DFF8645ADFF8001B284604F076F9EA
S1131CB0DFF8F83ADFF8F81A1868096800EB8002D0
S1131CC0500004F08BF92146284604F001F87F20E7
S1131CD020707E21E1731AE31422DFF8D81A7748C2
S1131CE004F0FCF80020A0761422DFF8CC1A204679
S1131CF004F0F4F87E20E07309E31422DFF8B41A48
S1131D006E4804F0EBF81422DFF8B01AF4E0142261
S1131D10DFF8A01A694804F0E1F81422DFF8A01AE9
S1131D20EAE01422DFF88C1A644804F0D7F80020A3
S1131D30A0761422DFF88C1ADEE000BFC480010014
S1131D40D88001001422DFF86C1A5C4804F0C6F84D
S1131D500020A0761422DFF8701A204604F0BEF8A2
S1131D607F202070D3E200BFEC80010000810100DD
S1131D70148101001422DFF8541A5048DFF88859FE
S1131D8004F0ACF80020A076DFF8441A4868DFF8C5
S1131D90441A0E78012E0CD104F078FCDFF8382AAE
S1131DA0DFF8383A04F096FC0B460246DFF8301AA6
S1131DB005E004F06BFC0B460246DFF8281A2846BF
S1131DC004F0ECF874E000BF288101003C810100BC
S1131DD04F4646004F4E00005081010064810100CF
S1131DE01422DFF8041A3548DFF81C5904F076F899
S1131DF00020A0766421DFF8F429106890FBF1F24A
S1131E00DFF8BC1C284604F0C9F851E01422DFF8BE
S1131E10B41C2A48DFF8F05804F060F80021DFF819
S1131E20A80CA176006804F039FDDFF8A01C04F0CA
S1131E3047FD04F02BFC0B460246DFF8941C34E00B
S1131E401422DFF8901C1D48DFF8BC5804F046F853
S1131E500021DFF8840CA176006804F01FFDDFF890
S1131E607C1C04F02DFD04F011FC0B460246DFF847
S1131E70701C1AE0788101008C810100A0810100AE
S1131E80B48101001422DFF85C1C0C48DFF8785898
S1131E9004F024F80021DFF8500CA176006804F067
S1131EA0F5FB0B460246DFF8441C284604F076F89E
S1131EB02146284603F00CFF29E200BF58FFFF1F0C
S1131EC0C88101001422DFF8341CDFF8340C04F05C
S1131ED005F81422DFF82C1C204603F0FFFF7E20B7
S1131EE0E07384E01422DFF8141CDFF8140C03F010
S1131EF0F5FF1422DFF8101C204603F0EFFFFEF775
S1131F0039F904E21422DFF8F41BDFF8F40B03F0D0
S1131F10E5FF1422DFF8F41B204603F0DFFF7F20E7
S1131F207E212070E1732CE11422DFF8D01BDFF84E
S1131F30D00B03F0D3FF1422DFF8D41B204603F0A8
S1131F40CDFF7F207E212070E1731AE1DC81010046
S1131F50F0810100F8FEFF1F1422DFF8A01BDFF858
S1131F60A00B03F0BBFF1422DFF8A81B204603F0EC
S1131F70B5FF7F207E212070E17302E11422DFF897
S1131F807C1BDFF87C0B03F0A9FF1422DFF8881B0D
S1131F90204603F0A3FF7F207E212070E173F0E050
S1131FA004820100188201002C8201001422DFF84F
S1131FB04C1BDFF84C0B03F091FF1422DFF85C1B81
S1131FC0204603F08BFF7F207E212070E173D8E050
S1131FD01422DFF8281BDFF8280B03F07FFF1422FC
S1131FE0DFF83C1B204603F079FF7F20207000219E
S1131FF0A1768CE1DFF80C174FF6F47008802A22E2
S1132000226284E11422DFF81C1BDFF8F40A03F0D7
S113201065FF1422DFF8EC1AF8E100BF40820100EA
S11320205482010068820100788201001422DFF8E2
S1132030F81ADFF8CC0A03F051FF1422DFF8EC1A87
S1132040204603F04BFF0120A076DFF8E40A017874
S113205061714178A171817821722146C0784872FA
S1132060A07D032800F25381DFE810F0360004005D
S113207039003B00CE2130E01422DFF8B81ADFF833
S1132080800A03F02BFF1422DFF8AC1A204603F079
S113209025FFDFF89C0A017861712D234178A17135
S11320A0E37182782272C2786272A372012201798A
S11320B0E1722146407908738A76887D052800F20A
S11320C02681DFE810F0090006000C000E00100065
S11320D01200CFE78C820100CD21617617E1D02078
S11320E004E0D12002E0D32000E0D42048760EE1C1
S11320F01422DFF8481ADFF8080A03F0EFFE14226E
S11321009B4983E11422DFF8381ADFF8F40903F05D
S1132110E5FE1422964979E11422DFF8281ADFF843
S1132120E00903F0DBFE1422DFF81C1A204603F05A
S1132130D5FE7E20E07324E01422DFF8081A14E0B0
S1132140A08201001422DFF8041ADFF8B40903F0B6
S1132150C5FE1422DFF8F019204603F0BFFE7E20EE
S1132160E0730EE01422DFF8E419DFF8940903F0B9
S1132170B5FE1422DFF8D819204603F0AFFE7F2005
S113218020700022A276C2E0B0820100C482010065
S1132190D8820100EC820100008301001483010055
S11321A0288301003C83010050830100DFF8584577
S11321B02022214640F2FD2030E0A07D00210300D2
S11321C018D0DFF86C29DFF88CC9D55CDFF830292A
S11321D0A0F1480600F164070F2BD9BFD554BE46C1
S11321E00CF80350B64684F819E0491C5FFA81FEE6
S11321F08645F1D3DFF8600901700F2B207FC7BF3C
S1132200DFF85029D054DFF8F818C854FEF70BB99A
S1132210DFF8F4442022214640F21D3004F0D8FCBB
S11322200020DFF8DC28DFF8345984F8200000218E
S11322301346207808B3CEB20F2E03DC18700020AA
S1132240587004E0A5F11006307000207070491C2D
S1132250607890B1CEB20F2E03DC587000209870D5
S113226004E0A5F1100670700020B070491CAD1C8C
S11322709B1CA41CC8B22028DBDBCBB2202B16DAB3
S1132280D018DFF8D8281A440025CBB20F2B03DC72
S113229020230370457004E0A2F1100320241C7075
S11322A05D70491C521C401CCBB2202BEDDBDFF8C7
S11322B0A82811702BE0DFF8A8080178CB3908D0E2
S11322C0091F06D0891E022903D9C91E022911D962
S11322D013E01422DFF88C18DFF8240803F0FEFD65
S11322E01422DFF88418204603F0F8FD0FE000BF45
S11322F064830100C220206209E0617F491CCAB2E4
S1132300002A07BFCF220270C3202062617703B086
S1132310BDE8F04003F025BA1422DFF84818DFF8CE
S1132320E00703F0DBFD1422DFF84018DBE714229A
S1132330DFF83018DFF8C80703F0D0FD1422DFF807
S11323403018D0E71422DFF82C18DFF8B40703F0B4
S1132350C5FD1422DFF82018204603F0BFFDDFF886
S1132360A4130A884FF6F07002400A80CFE700BF3A
S1132370C47901000021DFF80438A1761878401EE2
S113238010D0401E032805D9401F042806D9093857
S113239001280BD80A22DFF8E8170AE00922DFF83F
S11323A0601D06E00B22DFF85C1D02E00922DFF865
S11323B0581DD548D44C03F081FDDFF8441720465E
S11323C003F086FCDFF8442D10686421B0FBF1F2C1
S11323D0DFF8EC16204603F0E1FDDFF88017204615
S11323E003F076FCDFF8281D086800288FD0DFF89A
S11323F06C072121C1738AE71422DFF8181DDFF866
S1132400000703F06BFD1422DFF80C1D204603F0D7
S113241065FD0020A0767AE7DFF86067DFF8FC5CF2
S11324200020A076B84C3078112800F2CA80DFE88A
S113243000F0090E1720375568717A838C99A2AB86
S1132440B4BE295EDFF8D81C0A682A60B9E0052208
S1132450DFF8D01C204603F031FDDFF8CC0CAEE0F1
S11324600A22DFF8C81C204603F028FDDFF8C00C60
S1132470A5E00722DFF8BC1C204603F01FFDDFF8AF
S1132480B80C9CE01022DFF8B41C204603F016FDC3
S1132490DFF8AC0C017893E0788301008C830100B1
S11324A00622DFF8A01C204603F008FDDFF8981C84
S11324B0DFF8982C0968107870B9DFF8943CDFF8DD
S11324C0707C1868DFF8703C3A68414318688218D9
S11324D0B1FBF2F0286074E0490871E01022DFF8E3
S11324E0741C204603F0EAFCDFF86C0C67E0112250
S11324F0DFF8681C204603F0E1FCDFF8640C017887
S11325005EE00922DFF8001C204603F0D7FCDFF868
S1132510180C54E00E22DFF84C1C204603F0CEFCCD
S1132520DFF8440C4BE00F22DFF8401C204603F098
S1132530C5FCDFF83C0C42E00D22DFF8381C2046D5
S113254003F0BCFCDFF8300C39E00E22DFF82C1C61
S1132550204603F0B3FCDFF8280C30E0A083010030
S1132560B48301000A22DFF81C1C204603F0A6FCF9
S1132570DFF8140C23E01122DFF8101C204603F0CE
S11325809DFCDFF8A40B1AE01022DFF8041C20469F
S113259003F094FCDFF8FC0B11E00C22DFF8F81BCD
S11325A0204603F08BFCDFF8F40B017808E00D22E1
S11325B0DFF8EC1B204603F081FCDFF8E80B016830
S11325C02960DFF83C15204603F082FB30780128AF
S11325D003D10622DFF8D01B04E0062808D1062226
S11325E0DFF8C81B204603F069FC11E0C883010032
S11325F0DFF8341B28680A68821A12F10A0FB8BF80
S11326000246DFF8AC0B026063A1204603F0C6FC6F
S1132610DFF8A06B2A6861A1304603F0BFFC3146A5
S1132620204604F0F5FCDFF8341503F051FBDFF825
S11326302C157F2008707E220020CA73887666E6F7
S11326401422DFF8741BDFF8B80403F047FCDFF84A
S11326506C1BDFF86C0B0B6802689A1A48BF0022E7
S1132660DFF84C0B284CDFF85C1B0260204603F0BB
S113267095FCDFF8E8142046D7E71422DFF8481B5E
S1132680DFF87C04204C03F029FC5249DFF83C0BB2
S11326900A780068012A0AD103F0F8FF4E4A4F4B2A
S11326A004F018F80B460246DFF8241BA6E004F0F9
S11326B0C3FC0246DFF81C1B204603F06FFCA0E0BD
S11326C0D88301001422DFF8101BDFF8340403F070
S11326D005FCDFF8481ADFF8043B002008800022DC
S11326E01EE000BFE8830100FC83010010840100A8
S11326F024840100388401004C840100FCFCFF1F89
S113270060840100FCFFFF1F58F9FF1F748401005F
S1132710185D18B182184878401C4870641C0C700D
S11327200C78042CF4DD4878DFF8B41ADFF8B44AE6
S1132730B2FBF0F20A602046DFF8AC1A03F02EFC7C
S1132740DFF81814204670E71422DFF8A01ADFF827
S1132750B003DFF8904A03F0C1FB1E491C480A7815
S11327604068012A44D103F091FF1B4A1B4B03F03C
S1132770B1FF0B4602461A4940E000BF80840100C5
S11327808C840100948401009C840100A4840100D1
S1132790B4840100C4840100256400002F25640072
S11327A0D0840100DC840100E48401009000002056
S11327B0A0000020EC8401000085010014850100C4
S11327C0288501003C8501005085010064850100D5
S11327D024E0FF1F7BE8FF1F77D5F270AAE8D03F03
S11327E078850100888501009485010010E0FF1FB1
S11327F003F04CFF0B460246DFF8F419204603F0C1
S1132800CDFBD649204610E71422DFF8E819BC486E
S1132810DFF8D04903F062FBDFF8DC09006804F05C
S11328203DF8DFF8D81904F04BF803F02FFF024607
S11328300B46DFF8CC19204603F0B0FBC74920460D
S1132840F3E61422DFF8BC19AD48DFF8984903F029
S113285045FBDFF8B409006804F020F8DFF89C19A0
S113286004F02EF803F012FF02460B46DFF890192D
S1132870204603F093FBB9492046D6E61422DFF83C
S11328808C199F48DFF85C4903F028FB96480068E0
S113289003F0FCFE02460B469449204603F07EFBFF
S11328A0AE492046C1E61422DFF86419944803F0C7
S11328B015FBDFF85C180868002814BF8CA28DA2F1
S11328C0DFF820498CA1204603F068FBA349204689
S11328D003F0FEF9A1497F20087000228A7616E5EC
S11328E0874CDFF830191422204603F0F7FADFF89A
S11328F020080178CA0705D5592060736521732023
S1132900A173E0730622DFF8AC58294642F6503032
S113291004F05EF92879E978DFF8C8486B782A78FA
S113292002900191A878DFF8F0180090204603F097
S113293035FB002020742046884903F0C9F98749F3
S11329407E20C873C9E76E4CDFF8D01814222046E5
S113295003F0C4FADFF8B8070168C1F3400028B1F6
S11329605920607365217320A173E0730622DFF898
S11329704458294642F6563004F02AF92879E97871
S1132980DFF860486B782A7802900191A878DFF824
S113299088180090204603F001FB00202074204694
S11329A06E4942E6564CDFF878181422204603F0AC
S11329B095FADFF85C070168C1F3800028B159205B
S11329C0607365217320A173E0730622DFF8E45776
S11329D0294642F65C3004F0FBF82879E978DFF800
S11329E004486B782A7802900191A878DFF82818B7
S11329F00090204603F0D2FA002020742046574964
S1132A0013E63F4CDFF81C181422204603F066FA44
S1132A10DFF8FC060168C1F3C00028B159206073D7
S1132A2065217320A173E0730622DFF888572946D5
S1132A3042F6623004F0CCF82879E978DFF8A4474C
S1132A406B782A7802900191A878DFF8CC1700906F
S1132A50204603F0A3FA0020207420463F49E4E511
S1132A60274CDFF8C4171422204603F037FADFF8A6
S1132A70A0060168C1F3001028B1592060736521D4
S1132A807320A173E0730622DFF82857294642F623
S1132A90683004F09DF82879E978DFF848476B78C6
S1132AA02A7802900191A878DFF86C1700902046EC
S1132AB003F074FA0020207420462849B5E500BFCD
S1132AC0A8850100B485010044E0FF1F00007A449A
S1132AD0C8850100D485010054FFFF1F0000204178
S1132AE0E8850100F4850100D0000020088601007B
S1132AF0594553004E4F0000257300001486010011
S1132B0058FFFF1F288601003C8601005086010003
S1132B1064860100788601008C860100A08601008D
S1132B20B4860100C8860100DC860100F08601003D
S1132B30F8FEFF1F04870100188701002C8701009D
S1132B4040870100548701006887010090870100D5
S1132B507C870100C4FEFF1F04010020D4FEFF1F78
S1132B6089FDFF1FA4870100B8870100CC870100FD
S1132B70E0870100F4870100088801007AE8FF1F5C
S1132B801C880100DFF8A446DFF8A41614222046AE
S1132B9003F0A4F9DFF878050168C1F3401028B107
S1132BA05920607365217320A173E0730622DFF856
S1132BB00456294642F66E3004F00AF82879E9787A
S1132BC0DFF820466B782A7802900191A878DFF824
S1132BD048160090204603F0E1F9002020742046B6
S1132BE0DFF8501621E5DFF84446DFF84C161422CE
S1132BF0204603F073F9DFF84416086828B94E211B
S1132C0061732E204521A073E173DFF80405016888
S1132C10C1F3801028B15920607365217320A1731A
S1132C20E0730622DFF88C55294642F6743003F02F
S1132C30CFFF2879E978DFF8AC456B782A780290E1
S1132C400191A878DFF8D0150090204603F0A6F98A
S1132C50002020742046DFF8DC15E6E4DFF8CC45DC
S1132C60DFF8DC151422204603F038F9DFF8A0045D
S1132C700168C1F3C01028B1592060736521732025
S1132C80A173E0730622DFF82C55294642F67A3008
S1132C9003F09EFF2879E978DFF848456B782A78B5
S1132CA002900191A878DFF870150090204603F097
S1132CB075F9002020742046DFF87815B5E4DFF8B4
S1132CC06C45DFF880151422204603F007F9DFF87D
S1132CD040040168C1F3002028B1592060736521C4
S1132CE07320A173E0730622DFF8C85429464FF419
S1132CF02E5003F06DFF2879E978DFF8E8446B780B
S1132D002A7802900191A878DFF80C1500902046EB
S1132D1003F044F9002020742046DFF8181584E4F9
S1132D20DFF80845DFF820151422204603F0D6F812
S1132D30DFF8DC030168C1F3402028B15920607337
S1132D4065217320A173E0730622DFF868542946D5
S1132D5042F6863003F03CFF2879E978DFF88444B2
S1132D606B782A7802900191A878DFF8AC1400906F
S1132D70204603F013F9002020742046DFF8B41431
S1132D8053E4DFF8A844DFF8C4141422204603F007
S1132D90A5F8DFF87C030168C1F3802028B159202D
S1132DA0607365217320A173E0730622DFF8045475
S1132DB0294642F68C3003F00BFF2879E978DFF8D6
S1132DC024446B782A7802900191A878DFF848149B
S1132DD00090204603F0E2F8002020742046DFF83B
S1132DE0541422E4DFF84444DFF864141422204627
S1132DF003F074F8C6480168C1F3C02028B1592013
S1132E00607365217320A173E0730622DFF8A45375
S1132E10294642F6923003F0DBFE2879E978DFF8A0
S1132E20C4436B782A7802900191A878DFF8E813FC
S1132E300090204603F0B2F8002020742046DFF80A
S1132E40F413FFF7F2BBDFF8E443DFF808141422AD
S1132E50204603F043F8AE480168C1F3003028B1BE
S1132E605920607365217320A173E0730622D14D4C
S1132E70294642F6983003F0ABFE2879E978D94C1C
S1132E806B782A7802900191A878DFF88C1300906F
S1132E90204603F083F8002020742046DFF89413C2
S1132EA0FFF7C3BBDFF88443DFF8AC1314222046DA
S1132EB003F014F896480168C1F3403028B1592052
S1132EC0607365217320A173E0730622B94D29460E
S1132ED042F69E3003F07CFE2879E978C14C6B7889
S1132EE02A7802900191A878CB490090204603F0FB
S1132EF055F8002020742046CE49FFF796BBCB4CF2
S1132F00D6491422204602F0E9FF81480168C1F342
S1132F10803028B15920607365217320A173E07358
S1132F200622A44D294642F6A43003F051FE287926
S1132F30E978AC4C6B782A7802900191A878B6496C
S1132F400090204603F02AF8002020742046B94956
S1132F50FFF76BBBB54CC2491422204602F0BEFFFA
S1132F606B480168C1F3C03028B1592060736521F2
S1132F707320A173E07306228E4D294642F6AA30CF
S1132F8003F026FE2879E978964C6B782A7802902B
S1132F900191A878A0490090204602F0FFFF00208C
S1132FA020742046A349FFF740BBA04CAD4914222E
S1132FB0204602F093FF56480168C1F3004028B14F
S1132FC05920607365217320A173E0730622794D43
S1132FD0294642F6B03003F0FBFD2879E978814CAC
S1132FE06B782A7802900191A8788B49009020464A
S1132FF002F0D4FF0020207420468E49FFF715BB51
S11330008A4C99491422204602F068FF404801681E
S1133010C1F3404028B15920607365217320A17326
S1133020E0730622634D294642F6B63003F0D0FD24
S11330302879E9786B4C6B782A7802900191A8780A
S113304075490090204602F0A9FF00202074204614
S11330507849FFF7EABA754C84491422204602F0F5
S11330603DFF2B480168C1F3804028B159206073AB
S113307065217320A173E07306224E4D294642F662
S1133080BC3003F0A5FD2879E978564C6B782A7892
S113309002900191A87860490090204602F07EFFDA
S11330A00020207420466349FFF7BFBA5F4C704983
S11330B01422204602F012FF15480168C1F30050A3
S11330C028B15920607365217320A173E07306222F
S11330D0384D294642F6C83003F07AFD2879E9785C
S11330E0404C6B782A7802900191A8784A49009064
S11330F0204602F053FF00202074FFF7E7BB00BF17
S11331002888010034880100408801005C00002008
S1133110BC0000204C88010060880100D0FFFF1F24
S11331209CFFFF1F74880100280000207C88010098
S11331301CE8FF1F8888010020E8FF1F9088010019
S113314012010020A088010024E8FF1F0C010020C8
S11331502C000020A888010060000020B88801002D
S113316013010020CC8801002CE8FF1FDC8801003B
S113317030E8FF1FEC8801003CE8FF1FFC880100D9
S113318040E8FF1F0C89010058E8FF1F188901005F
S11331902C89010060E8FF1F3C8901007CE8FF1FC7
S11331A04889010044E8FF1F08780100588901009C
S11331B01C00002038F3FF1F8C83010028E8FF1F48
S11331C06400002060890100688901004800002033
S11331D07C8901008889010090890100E8FFFF1FB4
S11331E02400002058F9FF1FA4890100AC890100C4
S11331F088850100C08901002CFCFF1F0000C84223
S1133200D4890100DC89010030FCFF1FF089010032
S1133210048A010024780100B4790100387801009F
S11332204C780100607801007478010058FFFF1F9A
S113323088780100D4FEFF1F9C7801006C000020F8
S1133240B0780100C4780100D8780100EC7801005E
S11332500079010014790100287901003C7901000A
S11332605079010064790100787901008C790100BA
S1133270A0790100F0B587B0FCF742FFDFF8704C8D
S1133280E07D012840F00B81617D206A0022032942
S11332900546E27500F2FD80DFE811F00400140138
S11332A06E022810401EE32800F2F380DFE810F0DD
S11332B021111211F401F900F100F100F1003D12A5
S11332C0300232023402360238023A023C023E0232
S11332D0F100950F400242024402460246024802AF
S11332E04A024C024E025002520254025602580242
S11332F05A025C025E026002F10006010801F1005C
S1133300F100F1005E033712BA11BD11C011C311EF
S11333101412F1004E11241127112A112D1130110C
S11333203311361139113C113F1142114511481125
S11333304B115111541157115A115D116011631140
S1133340661169116C116F11710AF10014028D116B
S113335090119311961199119C119F11A211A5110D
S1133360A811AB11AE11B111B411F900F900F900B3
S1133370F900F900F900F900F900F900F900F90081
S1133380F900F900F900F900F900F900F900F90071
S1133390F900F900F900F900F900F900F900F10069
S11333A0F1000401F100F100F100F900F900F90065
S11333B0F900F900F900F900F900F900F100F90049
S11333C0F900F900F900F900F100F100F100F10051
S11333D0F100F100F100F100F100F100F100F10061
S11333E0F100F100F100F100F100F100F100F10051
S11333F0F100F100F100F100F100F100F100F10041
S1133400F100F100F100F100F100F100F10002011E
S1133410F100F100F100F100F100F100F900F90010
S1133420F100C611F100E400F100ED11F100E40037
S1133430F100F100F100F100F100F100F1002712B8
S11334402A12F100F100E60E1A021C021E022002EA
S1133450220224022602F100F100F100F1004612DA
S1133460160218025312F100F100F100F100F1000C
S1133470F100151118111B11207F7A2805DA401C60
S1133480C1B25C2904D15D2002E014BF20207F205A
S11334902077256207B0BDE8F040FCF781BE07B095
S11334A0F0BDA07DDFF84C1A0A5C392AF1DA521C0F
S11334B00A54EEE78725ECE77925EAE72525E8E7CE
S11334C02625E6E7E328E4D8DFE810F00410E60058
S11334D01F11E400F900E4002201E40024012601A4
S11334E028012A012C012E0130013211E40032019D
S11334F03401360138013A013A013C013E014001F0
S113350042014401460148014A014C014E01500167
S113351052015401E400E5001611E4002911E4000D
S1133520E400AC10AF10B210B51006111C01E40099
S1133530161019101C101F102210251028102B1003
S11335402E103110341037103A103D10431046102D
S113355049104C104F105210551058105B105E104B
S11335606110630906017F10E40082108510881041
S11335708B108E109110941097109A109D10A0101B
S1133580A310A610A910E400F900F900F900F9004D
S1133590F900F900F900F900F900F900F900F9005F
S11335A0F900F900F900F900F900F900F900F9004F
S11335B0F900F900F900F900F900F900E40002014A
S11335C0E400E400E400E400F900F900F900F90083
S11335D0F900F900F900F900F9000401F900F90013
S11335E0F900F900F900E400E400E400E400E40078
S11335F0E400E400E400E400E400E400E400E400A7
S1133600E400E400E400E400E400E400E400E40096
S1133610E400E400E400E400E400E400E400E40086
S1133620E400E400E400E400E400E400E400E40076
S1133630E400E400E400E400E400F900F9001E0101
S1133640E400E400E8002001E400E400E800E40011
S1133650E400E400E400E400E4001C113511E4009B
S1133660E4000C010E0110011201140116011801ED
S11336701A01E400E400E400E40008010A01451131
S11336804811E400E400E400E400E400E4000A106B
S11336900D101010FDE613E70225FAE6207F20281E
S11336A00BDD7F2808BF7A203FF4F2AE401EC1B282
S11336B05C297FF4EDAE5B20EAE67F20E8E6A07D9E
S11336C0DFF830180A5C312AFFF6E3AE521EEFE64B
S11336D07A25DEE6B025DCE64D25DAE6D825D8E6FF
S11336E0D925D6E6CC25D4E6CD25D2E6CE25D0E61E
S11336F0CF25CEE6D025CCE6D125CAE6D225C8E62C
S1133700D325C6E63125C4E6BA25C2E6BE25C0E601
S11337100825BEE60925BCE60A25BAE60B25B8E667
S11337200C25B6E60D25B4E60E25B2E60F25B0E667
S11337301225AEE61325ACE61425AAE61525A8E65F
S11337401725A6E61825A4E61925A2E61A25A0E65B
S11337501B259EE61C259CE61D259AE61E2598E65B
S11337601F2596E6202594E6212592E6222590E65B
S113377023258EE624258CE6E4283FF68AAEDFE88E
S113378010F0E600AC0EEB00F500F700E500F00CDD
S1133790280DF00CE500E500E500E500E500E50096
S11337A0E5002C0D2F0D350D3B0D460D4C0D520D26
S11337B0580DE500640D6A0D700D760D7C0D820DBB
S11337C0880D8E0DE500E500E500E500E500E50E59
S11337D0BE0FCA0AE500E500CD0AD10A180B5D0F39
S11337E0840FAD0BB50B92010E0115011C012301D1
S11337F02A01310138013F0146014D0154015B01A9
S1133800620169019901B401CF01D601DD01E4012E
S113381005022D0255027E02A702AF02B202E500A4
S1133820BA02E3020C0335035E0366036E037603F8
S11338307E0386038E0396039E03A603AE03C10391
S1133840E50308042E04540478049B04BE04E10434
S113385008052C05500577059C05C305FB052B06BB
S11338605B067F06A306C8060107320762079207B4
S1133870C407EA072F084608E500E500E5005E08EE
S11338809208C5080C093D095E097F09A209C3090C
S1133890E3092B0A490A670A850AA40AE500E50038
S11338A0E500E500E500E500E500E500E500E500EC
S11338B0E500E500E500E500E500E500E500E500DC
S11338C0E500E500E500E500E500E500E500E500CC
S11338D0E500E500E500E500E500E500E500E500BC
S11338E0E500F909E500E500E500E500E500E5008F
S11338F0F70B290C6D0B700BE500B80B8D0B900BBF
S1133900E500B80BE500E500E500E500E500E500AD
S11339107A0C7D0CDD0FE500800C8F0C9C0CA80C40
S1133920B40CC00CCC0CD80CE40CE500E500E500AC
S1133930940D970D9E0DAF0DB20DE500E500E50069
S1133940E500E500060108010A010C01A1E50020DB
S113395003F07EFB256A9CE5A275DFF89C15DFF871
S11339609405052202F0BAFA042592E5282590E58B
S1133970A07D0328C1F23183DFF88015DFF87405D8
S113398003F0ECFB00283FF49BAD052581E5E5251C
S11339907FE5E6257DE5E7257BE5E82579E5DFF8A4
S11339A06005006802F074F85F2572E5DFF8E80D41
S11339B0006802F06DF860256BE5DFF8E00D006843
S11339C002F066F8612564E5DFF8D40D006802F0C2
S11339D05FF862255DE5DFF8CC0D006802F058F869
S11339E0632556E5DFF8C00D006802F051F8642540
S11339F04FE5DFF8B80D006802F04AF8652548E5A0
S1133A00DFF8AC0D006802F043F8662541E5DFF805
S1133A10A40D006802F03CF867253AE5DFF8980D3C
S1133A20006802F035F8682533E5DFF8900D00688A
S1133A3002F02EF869252CE5DFF8840D006802F009
S1133A4027F86A2525E5DFF87C0D006802F020F8E8
S1133A506B251EE5DFF8701D09680A20B1FBF0F242
S1133A6002EB8205DFF88C04A1EB45053035C57007
S1133A700A23B2FBF3F303EB83052E26A2EB4502E4
S1133A808670303242706426B1FBF6F10A22B1FB33
S1133A90F2F202EB8203A1EB43013031017000200A
S1133AA0A0756C25F5E4DFF8240D006801F0F0FF43
S1133AB05E25EEE4DFF8181D09680A20B1FBF0F278
S1133AC002EB82033032DFF82C0442706422A1EB53
S1133AD04303B1FBF2F130332E253031C3708570CE
S1133AE001700020A0756D25D3E4DFF8E81C096897
S1133AF00A20B1FBF0F202EB82033032DFF8F40368
S1133B0042706422A1EB4303B1FBF2F130332E2562
S1133B103031C370857001700020A0756E25B8E443
S1133B20DFF8B40C006801F0B3FF6F25B1E4DFF8EF
S1133B30AC0C006801F0ACFF7025AAE4DFF8280E95
S1133B40006801F0A5FF7125A3E4DFF8201E0968D1
S1133B500A20B1FBF0F202EB8205E648A1EB450531
S1133B603035C5700A23B2FBF3F303EB8305A2EBF4
S1133B704502303282706423B1FBF3F12E223031DE
S1133B80427001700020A075722582E4DFF8E01D08
S1133B9009680A20B1FBF0F202EB8205D548A1EBDB
S1133BA045053035C5700A23B2FBF3F303EB8305F7
S1133BB0A2EB4502303282702E2364254370B1FBA0
S1133BC0F5F10A22B1FBF2F202EB8203A1EB43010D
S1133BD0303101700020A07573255AE4DFF8941D7C
S1133BE009680A20B1FBF0F202EB8205C148A1EB9F
S1133BF045053035C5700A23B2FBF3F303EB8305A7
S1133C002E26A2EB45028670303242706426B1FB48
S1133C10F6F10A22B1FBF2F202EB8203A1EB4301BB
S1133C20303101700020A075742532E4DFF8481D9E
S1133C3009680A20B1FBF0F202EB8205AD48A1EB62
S1133C4045053035C5700A23B2FBF3F303EB830556
S1133C502E26A2EB45028670303242706426B1FBF8
S1133C60F6F10A22B1FBF2F202EB8203A1EB43016B
S1133C70303101700020A0757525FFF70ABCDFF80C
S1133C80FC1C09680A20B1FBF0F202EB820599489A
S1133C90A1EB45053035C5700A23B2FBF3F303EB02
S1133CA08305A2EB4502303282702E2364254370D3
S1133CB0B1FBF5F10A22B1FBF2F202EB8203A1EBB4
S1133CC04301303101700020A0757625FFF7E1BB78
S1133CD0DFF8AC0C806801F0DBFE7725FFF7D9BB79
S1133CE07825FFF7D6BBDFF89C1C087800287FF402
S1133CF0EFACFFF7E1BBDFF8901C09680A20B1FBC9
S1133D00F0F202EB82057B48A1EB45053035C57026
S1133D100A23B2FBF3F303EB8305A2EB4502303233
S1133D2082702E2364254370B1FBF5F10A22B1FBA6
S1133D30F2F202EB8203A1EB430130310170002067
S1133D40A0757E25FFF7A5BBDFF8401C09680A2093
S1133D50B1FBF0F202EB82056648A1EB4505303574
S1133D60C5700A23B2FBF3F303EB8305A2EB450210
S1133D70303282702E2364254370B1FBF5F10A22A0
S1133D80B1FBF2F202EB8203A1EB4301303101708B
S1133D900020A0757F25FFF77CBBDFF8F41B0968C2
S1133DA00A20B1FBF0F202EB82055248A1EB450573
S1133DB03035C5700A23B2FBF3F303EB8305A2EBA2
S1133DC04502303282702E2364254370B1FBF5F135
S1133DD00A22B1FBF2F202EB8203A1EB4301303180
S1133DE001700020A0758025FFF753BBDFF8B41DD8
S1133DF009680A20B1FBF0F202EB82053D48A1EB11
S1133E0045053035C5700A23B2FBF3F303EB830594
S1133E10A2EB4502303282702E2364254370B1FB3D
S1133E20F5F10A22B1FBF2F202EB8203A1EB4301AA
S1133E30303101700020A0758125FFF72ABBDFF81F
S1133E40680D006801F024FE8225FFF722BBDFF82D
S1133E505C0D006801F01CFE8325FFF71ABBDFF838
S1133E60500D006801F014FE8425FFF712BBDFF843
S1133E70440D006801F00CFE8525FFF70ABBDFF84E
S1133E80380D006801F004FE8625FFF702BBDFF859
S1133E902C1D087800287FF41DACFFF70BBBDFF85E
S1133EA0200D006801F0F4FD8825FFF7F2BADFF871
S1133EB0140D006801F0ECFD8925FFF7EABADFF87C
S1133EC0080D006801F0E4FD8A25FFF7E2BADFF887
S1133ED0FC0C007801F0DCFD8B25FFF7DABADFF883
S1133EE0F00C007801F0D4FD8C25FFF7D2BA00BFA6
S1133EF0D4FEFF1FF8FEFF1F188A010048FDFF1FB4
S1133F001CE8FF1FA07D0328C1F26780DFF8C45CB2
S1133F1001F0A8FD41F289318842286013D2DFF80C
S1133F20AC28DFF8E01D10600860022240F219108E
S1133F3002F001FE1422DFF8D01D204601F0CEFF6E
S1133F4001F00FFC06E58D25FFF7A3BAA07D032839
S1133F50C1F24380DFF87C5C01F084FD811E1C29E2
S1133F60286013D8DFF8A42DDFF8981D10600860CE
S1133F7001224FF4817002F0DEFD1422DFF8881D67
S1133F80204601F0ABFF01F0ECFBE3E48E25FFF7E4
S1133F9080BAA07D0328C1F22080DFF8385C01F0EC
S1133FA061FDA0F10A0140F2EB129142286013D2A4
S1133FB0DFF8E437DFF84C1D18600860022240F295
S1133FC0031002F0B8FD1422DFF83C1D204601F076
S1133FD085FF01F0C6FBBDE48F25FFF75ABAA07D2B
S1133FE00328C0F2FA87DFF8EC5B01F03BFDA0F197
S1133FF00A0140F2EB129142286013D2DFF89C3799
S1134000DFF8001D18600860022240F2051002F07B
S113401092FD1422DFF8F01C204601F05FFF01F04E
S1134020A0FB97E49025FFF734BAA07D0328C0F2E3
S1134030D487DFF8A05B01F015FD40F2F51188424A
S1134040286013D2DFF85827DFF8B81C1060086026
S1134050022240F2071002F06EFD1422DFF8A81CC1
S1134060204601F03BFF01F07CFB73E49125FFF750
S113407010BAA07D0328C0F2B087DFF8585B01F0C6
S1134080F1FC2860A8B1C82813D8DFF81817086015
S11340900222DFF8701C086040F2091002F04BFDA8
S11340A01422DFF8641C204601F018FF01F059FBCC
S11340B050E49225FFF7EDB9A07D0328C0F28D8767
S11340C0DFF8105B01F0CEFC2860A8B1C82813D833
S11340D0DFF8D41608600222DFF8281C086040F2DA
S11340E00B1002F028FD1422DFF81C1C204601F0FE
S11340F0F5FE01F036FB2DE49325FFF7CAB9A07D48
S11341000328C0F26A87DFF8CC5A01F0ABFC2860C0
S1134110A8B1C82813D8DFF8941608600222DFF883
S1134120E41B086040F20D1002F005FD1422DFF8D4
S1134130D81B204601F0D2FE01F013FB0AE49425BB
S1134140FFF7A7B9A07D0328C0F24787DFF8845A98
S113415001F088FCA0F5967141F6F52291422860A1
S113416014D2DFF84C36DFF89C1B1860086002227A
S113417040F20F1002F0DFFC1422DFF88C1B204603
S113418001F0ACFE01F0EDFAFFF7E4BB9525FFF773
S113419080B9A07D0328C0F22087DFF8385A01F0E7
S11341A061FC2860B0B1142814D8DFF80816086040
S11341B00122DFF8501B086040F2111002F0BBFC32
S11341C01422DFF8441B204601F088FE01F0C9FAEE
S11341D0FFF7C0BB9625FFF75CB9A07D0328C0F2AA
S11341E0FC86DFF8F05901F03DFC2860B0B13C28B2
S11341F014D8DFF8C41508600122DFF8081B086032
S11342004FF4897002F097FC1422DFF8FC1A204660
S113421001F064FE01F0A5FAFFF79CBB9725FFF7B8
S113422038B9A07D0328C0F2D886DFF8A85901F078
S113423019FCA0F1320140F6DF529142286014D2F9
S1134240DFF87835DFF8BC1A18600860022240F203
S1134250131002F070FC1422DFF8AC1A204601F0AF
S11342603DFE01F07EFAFFF775BB9825FFF711B903
S1134270A07D0328C0F2B186DFF8585901F0F2FBA3
S1134280A0F10A013229286014D8DFF83425DFF8B8
S1134290741A10600860012240F2151002F04BFC01
S11342A01422DFF8641A204601F018FE01F059FACE
S11342B0FFF750BB9925FFF7ECB8A07D0328C0F2A7
S11342C08C86DFF8105901F0CDFBA0F11E0140F6F9
S11342D0F3529142286014D2DFF8E834DFF8241A4C
S11342E01860086002224FF48B7002F024FC142240
S11342F0DFF8141A204601F0F1FD01F032FAFFF75D
S113430029BB9A25FFF7C5B8A07D032807DA401C0E
S1134310C2B2022A08BF0320A075FFF7BAB8DFF8BB
S1134320480D0278303A02EB82014278C078303A84
S113433002EB410202EB8201303800EB4100DFF86E
S113434094186428086014D8DFF87C24DFF8B419C2
S11343501060086001224FF48C7002F0ECFB142210
S1134360DFF8A419204601F0B9FD01F0FAF9FFF7CE
S1134370F1BA9B25FFF78DB8A07D0328C7DBDFF8D2
S1134380E80C0278303A02EB82014278C078303A85
S113439002EB410202EB8201303800EB4100DFF80E
S11343A034186428086014D8DFF82424DFF854197A
S11343B010600860012240F21B1002F0BCFB1422C2
S11343C0DFF84419204601F089FD01F0CAF9FFF72E
S11343D0C1BA9C25FFF75DB8A07D032897DBDFF801
S11343E0880C0278303A02EB82014278C078303A85
S11343F002EB410202EB8201303800EB4100DFF8AE
S1134400D4176428086014D8DFF8C823DFF8F41838
S11344101060086001224FF48E7002F08CFB1422AD
S1134420DFF8E418204601F059FD01F09AF9FFF78E
S113443091BA9D25FFF72DB8A07D0328C0F2CD8544
S1134440DFF8905701F00EFB40F2D17188422860EA
S113445013D2E14ADFF8AC1810600860022240F27F
S11344601D1002F068FB1422DFF89C18204601F0AE
S113447035FD01F076F9FFF76DBA9E25FFF709B80F
S1134480A07D0328C0F2A985DFF8485701F0EAFAB5
S1134490A0F114012829286013D8D04ADFF8641841
S11344A010600860012240F21F1002F044FB142245
S11344B0DFF85418204601F011FD01F052F9FFF71E
S11344C049BA9F25FEF7E5BFA07D0328C0F2858584
S11344D0DFF8005701F0C6FA411FB1F51C6F2860E0
S11344E014D2DFF88424DFF81C181060086002225C
S11344F04FF4907002F01FFB1422DFF80C182046D2
S113450001F0ECFC01F02DF9FFF724BAA025FEF729
S1134510C0BFA07D032806DA401CC2B2012A7FF482
S1134520FBAE0220F8E6DFF8400B0278303A02EBEB
S113453082018278C078303A02EB410202EB8201B8
S1134540303800EB4100DFF88C16A0F11902B02AD4
S1134550086014D2DFF8141408600222DFF8A417EC
S1134560086040F2231002F0E6FA1422DFF89817EC
S1134570204601F0B3FC01F0F4F8FFF7EBB9A125F4
S1134580FEF787BFA07D0328C6DBDFF8DC0A0278CC
S1134590303A02EB82018278C078303A02EB410271
S11345A002EB8201303800EB4100DFF82816B0F549
S11345B07A7F086014D2DFF8B823DFF84817106058
S11345C00860022240F2251002F0B5FA1422DFF846
S11345D03817204601F082FC01F0C3F8FFF7BAB99E
S11345E0A225FEF756BFA07D0328FFF690AEDFF8A4
S11345F0780A0278303A02EB82014278C078303A85
S113460002EB410202EB8201303800EB4100DFF89B
S1134610C4157928086013D2D64ADFF8E81610606A
S11346200860022240F22B1002F085FA1422DFF80F
S1134630D816204601F052FC01F093F8FFF78AB92E
S1134640A325FEF726BFA07D0328FFF660AEDFF8A2
S1134650180A0278303A02EB82014278C078303A84
S113466002EB410202EB8201303800EB4100DFF83B
S113467064157928086013D2BF4ADFF888161060E1
S11346800860022240F22D1002F055FA1422DFF8DD
S11346907816204601F022FC01F063F8FFF75AB9BE
S11346A0A425FEF7F6BEA07D0328FFF635AFDFF89C
S11346B0B8090278303A02EB82018278C078303A45
S11346C002EB410202EB8201303800EB4100DFF8DB
S11346D00415A0F13202962A086013D8A74908608D
S11346E00222DFF82016086040F2311002F023FAAB
S11346F01422DFF81416204601F0F0FB01F031F823
S1134700FFF728B9A525FEF7C4BEA07D0328C0F293
S11347106484DFF8C05401F0A5F9A0F10A0140F265
S1134720C7729142286013D2954BDFF8D815986070
S11347300860022240F2371002F0FDF91422DFF87B
S1134740C815204601F0CAFB01F00BF8FFF702B9C7
S1134750A625FEF79EBE1422DFF8701BDFF8700B4F
S113476001F0BCFB1422DFF86C1B204601F0B6FB01
S113477000F0F7FF02F0FCFC1422DFF85C1B20467B
S113478001F0ACFB00F0EDFF04F0A2FC022004F009
S113479064FF4C25FEF77DBE20E8FF1F24E8FF1FC1
S11347A0600000202CE8FF1F30E8FF1F34E8FF1FE3
S11347B038E8FF1F3CE8FF1F40E8FF1F58E8FF1FD1
S11347C05CE8FF1F60E8FF1F4CE8FF1F50E8FF1F75
S11347D00CE8FF1F10E8FF1F28E8FF1F18E8FF1F61
S11347E068490A7040F23910DFF818150A7001227E
S11347F002F0A1F91422DFF8E41A204601F06EFB5E
S113480000F0AFFF012004F028FFFFF7A3B85D49D3
S1134810012008700122DFF8EC140A7040F239100C
S113482002F089F91422DFF8B41A204601F056FB8D
S113483000F097FF012004F010FFFFF78BB8A07D74
S11348400328FFF669AEDFF82008DFF88833027822
S1134850303A02EB82018278C078303A02EB4102AE
S113486002EB8201303840F21D2200EB4100A0F13E
S113487032019142186013D2434BDFF88814186058
S1134880086002224FF4A07002F055F91422DFF8F8
S11348907814204601F022FB00F063FFFFF75AB8BA
S11348A0A725FEF7F6BDA07D0328FFF635AEDFF899
S11348B0B807C84B0278303A02EB82018278C0789C
S11348C0303A02EB410202EB8201303840F21D2201
S11348D000EB4100A0F132019142186013D22B4B3E
S11348E0DFF820141860086002224FF4A17002F06F
S11348F022F91422DFF81014204601F0EFFA00F038
S113490030FFFFF727B8A825FEF7C3BDA07D032815
S1134910FFF602AEDFF850070278303A02EB82016C
S11349208278C078303A02EB410202EB82013038DF
S113493000EB4100A74940F24F229042086029D27F
S1134940134BDFF8C0131860086002224FF4A27002
S113495002F0F1F81422DFF8B013204601F0BEFA99
S113496000F0FFFEFEF7F6BF54E8FF1F64E8FF1FE8
S113497068E8FF1F94000020980000209C0000209D
S113498024E0FF1F7BE8FF1F740000207800002054
S11349907C000020A925FEF77CBDA07D0328FFF63E
S11349A0BBADDFF8C4068B4B0278303A02EB8201D0
S11349B08278C078303A02EB410202EB820130384F
S11349C040F21D2200EB4100A0F132019142186037
S11349D011D2744BCB491860086002224FF4A370C3
S11349E002F0A9F81422C849204601F077FA00F031
S11349F0B8FEFEF7AFBFAA25FEF74BBDA07D032886
S1134A00C0F2EB82734D01F02DF842F2107188422E
S1134A10286011D2644ABB491060086002224FF436
S1134A20A47002F088F81422B749204601F056FA1F
S1134A3000F097FEFEF78EBFAB25FEF72ABDA07DE2
S1134A400328C0F2CA82634D01F00CF842F21071DF
S1134A508842286011D2554AAA491060086002228F
S1134A604FF4A57002F067F81422A749204601F01C
S1134A7035FA00F076FEFEF76DBFAC25FEF709BDF2
S1134A80A07D0328C0F2A982524D00F0EBFFA0F1F3
S1134A90320140F2B7329142286011D2444B994915
S1134AA018600860022240F24D1002F044F814220B
S1134AB09549204601F012FA00F053FEFEF74ABF72
S1134AC0AD25FEF7E6BCA07D0328C0F28682414DE9
S1134AD000F0C8FF40F638118842286011D2354AE8
S1134AE0884910600860022240F24F1002F023F857
S1134AF014228549204601F0F1F900F032FEFEF758
S1134B0029BFAE25FEF7C5BCA07D0328C0F265828F
S1134B10304D00F0A7FF411F1A29286011D2264A00
S1134B20784910600860012240F2511002F003F845
S1134B3014227549204601F0D1F900F012FEFEF767
S1134B4009BFAF25FEF7A5BC1C490A7040F2391015
S1134B506C490A70012201F0EEFF1422DFF87C1781
S1134B60204601F0BBF900F0FCFD012004F075FDC6
S1134B70FEF7F0BE114901200870012261490A7054
S1134B8040F2391001F0D7FF1422DFF85017204605
S1134B9001F0A4F900F0E5FD012004F05EFDFEF74C
S1134BA0D9BE00BF8000002044E8FF1F48E8FF1F73
S1134BB084000020880000208C00002015010020C3
S1134BC06CE8FF1F70E8FF1F74E8FF1F130100204B
S1134BD01201002024000020A07D0328C0F2FD81E2
S1134BE0DFF8CC5C00F03EFFA0F10A016E292860DA
S1134BF00DD8DFF8C02C43491060086014224249E4
S1134C00204601F06BF900F0ACFDFEF7A3BEB12520
S1134C10FEF73FBCA07D0328C0F2DF81DFF8905C83
S1134C2000F020FFA0F10A016E2928600DD8DFF8FA
S1134C30882C34491060086014223349204601F05E
S1134C404DF900F08EFDFEF785BEB225FEF721BCBE
S1134C50A07D0328C0F2C181DFF8545C00F002FF9C
S1134C60A0F10A016E2928600DD8DFF8502C2549DF
S1134C701060086014222449204601F02FF900F046
S1134C8070FDFEF767BEB325FEF703BCA07D0328C5
S1134C90C0F2A381DFF8185C00F0E4FE286088B15C
S1134CA040F2F51188420DD2DFF8142C154B164949
S1134CB0107018601422204601F010F900F051FD24
S1134CC0FEF748BEB425FEF7E4BBA07D0328C0F27E
S1134CD08481DFF8DC5B00F0C5FE2860C0B140F2DF
S1134CE0F511884214D2DFF8C02C064B0649107027
S1134CF018601422204601F0F1F800F032FDFEF7AE
S1134D0029BE00BFD0FFFF1F208A01001CE8FF1F3F
S1134D10B525FEF7BEBB2925FEF7BBBB02F0DDF9C6
S1134D20FEF718BE84B0DFF8D81C68462C2201F0C8
S1134D30D5F80FBC04F031FDDFF8F06CDFF8C45C8B
S1134D403268DFF8C46C002380185941C5E90001BA
S1134D50284604F0C5FD306001460A2348698A6884
S1134D606438486192FBF3F30869401C08613033EE
S1134D70BD4803700A238A6892FBF3F303EB8305AF
S1134D80A2EB4502303242700A234A6892FBF3F3E5
S1134D90303383700A22496891FBF2F202EB8203FA
S1134DA0A1EB43013031C1700020A075B725FEF797
S1134DB070BB84B0DFF8481C68462C2201F08EF8E2
S1134DC00FBC04F0EAFCDFF8646CDFF8385C32688E
S1134DD0DFF8346C002380185941C5E900012846E6
S1134DE004F07EFD014630600A234A690869643A8A
S1134DF0401C4A61086192FBF3F29B483032027016
S1134E004A6992FBF3F303EB8305A2EB45023032CC
S1134E1042700A230A6992FBF3F3303383700A2346
S1134E200A6992FBF3F303EB8305A2EB45023032EC
S1134E30C2700A23CA6892FBF3F3303303710A2267
S1134E40C96891FBF2F202EB8203A1EB430130311A
S1134E5041710020A075B825FEF71BBBBB25FEF7EA
S1134E6018BBDFF8905CDFF868041422294601F0CF
S1134E7035F814222946204601F030F87BA0DFF8EB
S1134E80781C02780A700120A0767F226421002019
S1134E9022776176A075BC25FEF7FBBABF25FEF725
S1134EA0F8BADFF8505CDFF828041422294601F030
S1134EB015F814222946204601F010F86BA0DFF8FB
S1134EC0381C02780A700120A0767F226421002019
S1134ED022776176A075C025FEF7DBBADFF81C1CCB
S1134EE0CF200870C1256277FEF7D3BAC425FEF738
S1134EF0D0BA217FA07D7F292DD1012819D1DFF8D7
S1134F00F46BDFF8CC031422314600F0E7FF1422DF
S1134F103146204600F0E2FF54A0DFF8DC1B0278A3
S1134F200A70642001220021A2766076A175FEF742
S1134F30B0BA00283EF40EAD20202077FBF730F9FC
S1134F40A07D494A401EA0750021C0B211547F20A3
S1134F502077FEF7FFBC444B19547F21202821778A
S1134F60BEF697AA401CA075C0B21A54FEF791BAB7
S1134F70A07D032831DB3C480178303901EB810204
S1134F804178303901EB4201182921D20A4681784F
S1134F90303901EB8103C178303901EB43013B29FE
S1134FA014D8DFF85C0BDFF8846ADFF8587BC26141
S1134FB0002381614361336001233B70DFF8480BB8
S1134FC00260DFF8EC281160FEF763BAC525F5E747
S1134FD0C525F6E7A07D052803DCA07D401CFFF76E
S1134FE09BB9214EDFF8C87831787278303901EBFB
S1134FF08100303A02EB4002102A3A6038D9B07886
S1135000F378757900EB8001307903EB4103A3F168
S1135010100100EB800305EB4305A5F11000D2B2AB
S1135020C9B2C0B200F0BAFD256A012820D1DFF868
S1135030D00A3A688262B178F37801EB810203EB1B
S11350404203A3F5047343623179737901EB81025E
S113505003EB4203A3F5047303620120DFF8AC1AE7
S11350600870FEF716BA00BFF8FEFF1F000000002C
S1135070C625FEF70EBACA25FEF70BBACB25FEF7F6
S113508008BADFF88C1A0988C80746BF4FF6FE70C5
S1135090014041F00101DFF8782A1180FEF7F9B9E7
S11350A0DFF86C1A0988880758BF41F00201F2D56D
S11350B008464FF6FD710140EDE7DFF8541A098800
S11350C0480758BF41F00401E5D508464FF6FB7187
S11350D0F1E7DFF83C1A0988080758BF41F00801D6
S11350E0D9D508464FF6F771E5E7DFF8241A0988A1
S11350F0C80658BF41F01001CDD508464FF6EF71F0
S1135100D9E7DFF80C1A0988880658BF41F0200156
S1135110C1D508464FF6DF71CDE7DFF8F4190988E9
S1135120480658BF41F04001B5D508464FF6BF7157
S1135130C1E7DFF8DC190988080658BF41F080018F
S1135140A9D508464FF67F71B5E7DFF8C419098879
S1135150C80558BF41F480719DD508464FF6FF61DC
S1135160A9E7DFF8B009017801297EF4F3AB062240
S113517002700020DFF8A019DFF8A059DFF8A06959
S113518008600021042003F077FE0021002003F0D2
S113519073FE0021012003F06FFE0021122003F0B2
S11351A06BFE0020287001272878327807FA00F176
S11351B00A40002A07DC2878401C2870C0B208285E
S11351C0F2DBFEF7C7BB08300021C0B203F054FE87
S11351D0F1E701F091FFFEF7BDBB1125FEF759B9C8
S11351E00021002003F048FEFEF7B4BB002101209B
S11351F003F042FEFEF7AEBB0021022003F03CFEAA
S1135200256ADFF8201900200860FEF742B9002162
S1135210032003F031FEFEF79DBB0021042003F0C0
S11352202BFEFEF797BB0021052003F025FEFEF7B9
S113523091BB0021062003F01FFEDFF8EC180020CC
S1135240086003F045FFFEF785BB0021082003F04A
S113525013FEFEF77FBB0021092003F00DFEFEF7CD
S113526079BB00210A2003F007FEFEF773BB00217F
S11352700B2003F001FEFEF76DBB00210C2003F0B0
S1135280FBFDFEF767BB00210D2003F0F5FDFEF7E3
S113529061BB00210E2003F0EFFDFEF75BBB002194
S11352A00F2003F0E9FDFEF755BBDC25FEF7F1B84E
S11352B0DFF8781801200870DD25FEF7EAB8DFF87A
S11352C06C1801200870DE25FEF7E3B8348A01006B
S11352D058FFFF1F488A01005C8A0100708A0100A0
S11352E0DF25FEF7D6B8E025FEF7D3B8401EE72841
S11352F03EF6CFA8DFE810F0FD00FD00FD00FD0044
S1135300FD001602190219021902190219021902E2
S113531019021902190219021C021C021C021C02A5
S11353201C021C021C021C021C021C021C021C0289
S11353301C021C021C021C021C021C021C021C0279
S1135340FD00FD00FD0009020C020C020902090225
S113535009020902090209020902EC00EC00EC004E
S1135360EC00EC00EC00EC00EC00EC00EC00EC00D9
S1135370EC00EC00EC00EC00EC00EC00EC00EC00C9
S1135380EC00EC00EC00EC00EC00EC00EC00EC00B9
S1135390EC00E800EC00EC00EC00EC00EC00EC00AD
S11353A0EC00EC00EC00EC00EC00EC00EC00EC0099
S11353B0EC002A0100010301060109010C010F019F
S11353C01201150118011B011E01210124012701ED
S11353D02D0130013301360139013C013F01420105
S11353E0450148014B01EA004E015B01E800E80079
S11353F0E80069016C016F017201750178017B019C
S11354007E018101840187018A018D01900193014C
S11354102A0100010301060109010C010F01120117
S1135420150118011B011E012101240127012D0171
S113543030013301360139013C013F01420145018C
S113544048014B0169016C016F017201750178011A
S11354507B017E018101840187018A018D01900114
S113546093011302960199019C019C01A201A501DB
S11354709F019F01C901CC01F001F001F001F3018A
S1135480FA01FD0100020002000203020602060204
S11354900602060206020602060206020602E800E8
S11354A0E800E8001F021F021F021F021F0222025F
S11354B025022A022F023202EE00EE00EE00EE0078
S11354C0F100F400F700FA00FDF7E3BFFFF761B95C
S11354D0FDF7F6BF0125FDF7DCBFE125FDF7D9BFD8
S11354E0E225FDF7D6BFE325FDF7D3BFE425FDF79D
S11354F0D0BF0025FDF7CDBF3325FDF7CABF342546
S1135500FDF7C7BF3525FDF7C4BF3625FDF7C1BF7D
S11355103725FDF7BEBF3825FDF7BBBF3925FDF79D
S1135520B8BF3A25FDF7B5BF3B25FDF7B2BF3C2513
S1135530FDF7AFBF3D25FDF7ACBF3E25FDF7A9BF85
S11355403F25FDF7A6BF4025FDF7A3BF3225FDF794
S1135550A0BF4125FDF79DBF4225FDF79ABF432516
S1135560FDF797BF4425FDF794BF4525FDF791BF8F
S11355704625FDF78EBF4725FDF78BBF4825FDF770
S113558088BF4925FDF785BF4A25FDF782BF4B2516
S1135590FDF77FBFDFF898150A7040F23910DFF885
S11355A08C150A70012201F0C6FAFEF795B8DFF8EF
S11355B08015012008700122DFF870150A7040F28E
S11355C0391001F0B8FAFEF787B84F25FDF761BF2F
S11355D05025FDF75EBF5125FDF75BBF5225FDF752
S11355E058BF5325FDF755BF5425FDF752BF552528
S11355F0FDF74FBF5625FDF74CBF5725FDF749BFB3
S11356005825FDF746BF5925FDF743BF5A25FDF739
S113561040BF5B25FDF73DBF5C25FDF73ABF5D2527
S1135620FDF737BF2C25FDF734BF2D25FDF731BF1E
S11356302E25FDF72EBF2F25FDF72BBFB925FDF72E
S113564028BFDFF8F0542946202000F0F9FA202280
S1135650294640F2FD2001F06EFA2E202062142229
S1135660DFF8D414DFF8D40400F038FC1422DFF897
S1135670D014204600F032FC0020A07600F071F82F
S1135680032003F0EAFFFEF765B9BD25FDF701BF6E
S1135690DFF8A0542946202000F0D2FA202229461F
S11356A040F21D3001F047FA2F2020621422DFF867
S11356B09414DFF8880400F011FC1422DFF880143D
S11356C0204600F00BFC0020A07600F04AF80320EE
S11356D003F0C3FFFEF73EB93025FDF7DABEDFF86D
S11356E030144FF6FF700880FEF70CB8A275FFF770
S11356F05DBBA275FFF7AFBB2725FDF7CABEC72563
S1135700FDF7C7BEC825FDF7C4BE0325FDF7C1BE1E
S1135710DFF8FC134FF6FF700880FEF727B92B253E
S1135720FDF7B7BE0725FDF7B4BE0625FDF7B1BEEC
S11357301025FDF7AEBEC925FDF7ABBED725FDF795
S1135740A8BEDFF8E8130A70FDF7C8BFDFF8DC1362
S11357500A70FDF7C5BFDA25FDF79BBEDB25FDF713
S113576098BEFEB5DFF8E073DFF88C433879DFF8D4
S1135770DC53DFF8C86302280CD11422DFF8D013FD
S1135780304600F0ABFB1422DFF8C813284600F0C3
S1135790A5FB11E001280FD11422DFF8BC13304619
S11357A000F09CFB3A68DFF8B413204600F0F6FBE7
S11357B02946204600F08CFA7B2000F027F90020CF
S11357C02875A7A7DFF8980300F032F9304600F0F7
S11357D02FF9384600F02CF9284600F029F938460C
S11357E000F026F9DFF87C0300F022F9687E6421DA
S11357F090FBF1F03030C0B200F008F9687E0A2363
S113580090FBF3F00A2190FBF1F101EB8102A0EB94
S113581042003030C0B200F0F9F8687E0A2190FBF3
S1135820F1F101EB8102A0EB42003030C0B200F094
S1135830EDF8A87E01280CBF4120492000F0E6F8CD
S1135840C94800F0F5F82A7D90A1204600F0A6FB97
S1135850204600F0EDF8287E012810D1A87E01280A
S11358600CBF4120492001902B46687EBF4900901F
S11358703246204600F092FB204600F0F8FA287EDB
S1135880022813D1A87E01280CBF41204920019091
S11358902B46687EB64900903246204600F07EFBD7
S11358A0204603B0BDE8F04004F0A7B803B0F0BD53
S11358B0240000206CE8FF1F70E8FF1F74E8FF1F3E
S11358C013010020F0B4AB49087810F0E00F09D0C0
S11358D0087840F080000870B1F80310A648017001
S11358E0F0BC70470A78500726D5A34AB1F80330B4
S11358F0964C1370E07EF8B913787B2B02D07D2B85
S11359002ED03EE090789D4CC0B90025257001242E
S11359109470D070507801280ED10A789007FCD585
S11359201846A1F803008948017D5B1803754FF4FC
S1135930FA70F0BC03F090BEF0BC7047D078064615
S11359406427642596FBF7F705FB17667B27A755A5
S1135950401CC0B2642490FBF4F405FB1400D8E7A7
S113596090780128D6D1D578844F642695FBF6F635
S1135970642000FB1655002078550125E5769070CB
S1135980C8E7D07805466426642495FBF6F604FB44
S113599016557A4F7B55401CC0B2642590FBF5F533
S11359A004FB1500B5E700001201002074480168EB
S11359B041F00601016080217248026842F0400211
S11359C0026001227048417002700023437100217B
S11359D00171AD228281802143786C4A43F0030334
S11359E0437011608023DFF8A8C1CCF80030202177
S11359F0684A1170437843F0100343707047000005
S1135A0058FDFF1FB8FFFF1F98FFFF1F59490A7871
S1135A109307FCD50246A1F803204C490A7D80185F
S1135A2008754FF4FA7003F017BE0000A0FFFF1FC3
S1135A3038B504464F4D0EE029788A07FCD5014657
S1135A40A5F80310641C41490A7D801808754FF4B9
S1135A50FA70C046C04620780028EDD131BD000060
S1135A600D0A000033480378427803EB830102EB0C
S1135A7041028178C07802EB820301EB430101EB20
S1135A80810200EB420044490818704725647D00F8
S1135A9030B40A21B0FBF1F101EB8104254AA0EBFB
S1135AA044043034D4700A23B1FBF3F303EB8304CE
S1135AB0A1EB4401303191700A236421B0FBF1F170
S1135AC0B1FBF3F303EB8304A1EB440130315170D8
S1135AD04FF47A75B0FBF5F00A21B0FBF1F101EB5C
S1135AE08103A0EB43003030107000201749887503
S1135AF030BC7047848A010058F9FF1F89FDFF1FDD
S1135B0044FDFF1F010100201C00002000010020B3
S1135B10FCFFFF1F7AE8FF1F28000020040100207B
S1135B20F0000020680000206C000020D0FFFF1F60
S1135B307BE8FF1FF8FEFF1F5487010058FFFF1F7B
S1135B40988A010090870100F0FFFF1FD4FEFF1F19
S1135B50AC8A0100C08A0100D48A0100E88A0100ED
S1135B60F88A0100148B0100288B0100348B01009A
S1135B70A49D0100058003401000002038FCFF1F95
S1135B80083003401C3603400080034080E200E0FC
S1135B9000E100E007E400E0B02FFFFF034601202E
S1135BA0491E0B2915D8DFE801F00F060F120F125A
S1135BB00F0F120F120F12F0030F02D11D2B09DD6C
S1135BC007E01D2B06DB04E01F2B03DD01E01E2B89
S1135BD000DD0020704730B403460C4600200CE082
S1135BE0641C5B1C401C22787AB11D78954218BF56
S1135BF03F2AF5D00C465B1C401C1A781AB1257854
S1135C00AA42F8D1EFE74FF0FF3030BC704730B410
S1135C10002404E011F8015B00F8015B641C0B78BC
S1135C200BB19442F6D30021017030BC704703E0FD
S1135C308B4208BF0270401C0378002BF8D17047D8
S1135C4038B504460D46284603F004FF03E000225D
S1135C5001F8012C401EC1B2294411F8012CA242C2
S1135C60F5D031BD0B4604E0824218BF03F8012B86
S1135C70491C0A78002AF7D1002018707047304A6E
S1135C805368D2F808C0C2F804C001461068D2F8BC
S1135C9010C013601161D3689360C2F80CC07047E0
S1135CA003F016FA2748017801F0EF0101704FF470
S1135CB0FA6003F0D6FCBFF34F8F234923480A68E8
S1135CC002F4E06202430A60BFF34F8F00BFFDE7B6
