S0390000736B2D666D332D3438706D632D757362737469636B5F7573625F6465766963655F7669727475616C5F636F6D5F706F72742E73726563CC
S113000030050020BDA10100D9A10100DDA101003E
S1130010E1A10100E5A10100E9A101000000000047
S1130020000000000000000000000000EDA101003D
S1130030F1A1010000000000F5A10100F9A10100F7
S1130040FDA1010001A2010005A2010009A2010015
S11300500DA2010011A2010045990000B95A000047
S1130060EF9F0100A19C000025A20100B9490100F5
S11300702DA201007D77000035A2010079A20100C4
S113008079A2010039A201003DA2010079A2010078
S113009079A2010079A2010079A2010041A2010024
S11300A045A20100ED9F01004DA2010079A20100CB
S11300B051A2010055A2010059A201005DA2010054
S11300C079A2010079A20100F99F010005A00100B5
S11300D079A2010079A2010069A201006DA20100C8
S11300E071A2010075A2010079A2010079A20100A8
S11300F079A2010079A2010079A2010079A201008C
S113010038B5224DE87E012833D1214C21492046BF
S113011005F059FE012802DB012102221BE019A18E
S1130120204605F050FE012802DB0121002212E0E6
S11301301949204605F047FE012802DB012101226E
S113014009E011A1204605F03EFEE97D6A7D012803
S1130150A4BF01210322E9750021287E6A75E9768E
S113016038B10E4805F07BFF2046BDE8324005F06B
S113017076BF31BD05487F217E2200230170C27302
S1130180837670475550000045534300DCFEFF1F43
S113019040FCFF1FC87A0100D07A0100D87A010020
S11301A0F0B5DFF8944C206AE82883B002F25D8150
S11301B0DFE810F0E900F50001010D011E0157010F
S11301C08B11D211E21100131C133E137613CC13BE
S11301D0EA1308141E143C147014A014D01400154F
S11301E09415C5150016311662169316C416F51625
S11301F0241750177B17A617D117FC1727185B1164
S1130200D601E201480FD70FDF0F5A0F6C0F800F92
S1130210920FA60FB80FCC0FF301FF010B021702C8
S113022023022F023B02470253025F026B02770252
S113023083028F029B02A702B302BF02CB02D70242
S1130240E302EF02FB02070313031F032B0337032D
S11302505B1143034F035B03670373037F038E0345
S11302609A03A603B903C803D703E303EF03FB030D
S113027007042A0451047A04A404CA04EF041405EC
S1130280390560058505AA05D005F4051806390663
S11302903D06440668068B06AF06CC06E906F3065F
S11302A0FD061A073E074A075A075B115B115B11EB
S11302B0B007CF07EE070D082C0855087E08A708DD
S11302C0D108F90846096D099409BB09E209260A0F
S11302D0330A3F0A4B0A570A630A6F0A7B0A870AE2
S11302E0930A9F0AAB0AB70AC40AD10AE20AEF0AC0
S11302F0FC0A0C0B190B260B360B430B500B5D0B36
S11303005B116E0B7B0B880B980BA50BB20BC20B0E
S1130310CF0BDD0B0E09EE0BFB0B080C180C250C98
S11303205B11F20F18106A107A10A210B01080102E
S11303309010DB10B010321160116B117611561051
S11303406010320C440C4F0C660C950CB60CD30C9C
S1130350F60C130D360D530D740D910DB80DDE0D05
S11303600E0E380E520E610E7A0E8E0EA00ED00EA8
S1130370EA0E0A0F280F640170017C0188019901BB
S1130380A601B301C0011422DFF8D41CDFF8D40C99
S113039005F09CFE1422DFF8F41C01F05DBE14226B
S11303A0DFF8BC1CDFF8BC0C05F090FE1422DFF86B
S11303B0E01C01F05ABD1422DFF8A41CDFF8A40CE1
S11303C005F084FE1422DFF8CC1C01F04EBD14228B
S11303D0DFF88C1CDFF88C0C05F078FE1422DFF8B3
S11303E0B81C204605F072FE7F20207001F039BE53
S11303F0657EDFF8A81CDFF86C0C142205F066FE9D
S11304001422DFF89C1C204605F060FEA07D032822
S113041008D8DFE800F0020B131CDFF8881C08780A
S1130420A071CE256576012002F0A4B87820A071D1
S1130430CF25DFF8701C4878E071F3E77820A071CD
S1130440E071D025DFF85C0C81782172EAE778202E
S1130450A071E0712072D125DFF8481CC878607261
S1130460E0E71422DFF8341CDFF8F80B05F02EFE69
S11304701422DFF8341C204602F079B81422DFF885
S11304802C1CDFF8E00B05F021FE1422DFF8201C01
S113049001F0E2BD1422DFF8141CDFF8C80B05F0EC
S11304A015FE1422DFF80C1C01F0DFBC1422DFF867
S11304B0FC1BDFF8B00B05F009FE1422DFF8F81B73
S11304C001F0D3BC1422DFF8E41BDFF8980B05F02D
S11304D0FDFD1422DFF8E41B204605F0F7FD7F2024
S11304E0207001F0BEBD1422DFF8D41BDFF8740BBA
S11304F005F0ECFD1422DFF8CC1B204602F037B8DF
S11305001422DFF8C41BDFF85C0B05F0DFFD1422B6
S1130510DFF8B81B204602F02AB81422DFF8B01B1B
S1130520DFF8400B05F0D2FD1422DFF8A81B2046AB
S113053002F01DB81422DFF8A01BDFF8280BDFF847
S11305409C5B05F0C3FDDFF8980B0268DFA1284629
S113055005F01CFE2146284605F0B2FC02F009B85D
S11305601422DFF8801BDFF8FC0A05F0AFFD14222B
S1130570DFF8741B01F070BD1422DFF8681BDFF88C
S1130580E40A05F0A3FD1422DFF8601B204605F001
S11305909DFD7F20207001F064BD1422DFF8501B04
S11305A0DFF8C00A05F092FD1422DFF8481B01F0C1
S11305B053BD1422DFF8381BDFF8A80A05F086FDC6
S11305C01422DFF8341B01F050BC1422DFF8201B86
S11305D0DFF8900A05F07AFD1422DFF8201B01F001
S11305E044BC1422DFF8081BDFF8780A05F06EFD1E
S11305F01422DFF80C1B01F038BC1422DFF8F01AC7
S1130600DFF8600A05F062FD1422DFF8F81A01F041
S11306102CBC1422DFF8D81ADFF8480A05F056FD7E
S11306201422DFF8E41A01F020BC1422DFF8C01A07
S1130630DFF8300A05F04AFD1422DFF8D01A01F081
S113064014BC1422DFF8A81ADFF8180A05F03EFDDE
S11306501422DFF8BC1A01F008BC1422DFF8901A47
S1130660DFF8000A05F032FD1422DFF8541D01F012
S1130670FCBB1422DFF8781ADFF8E80905F026FD40
S11306801422DFF8401D01F0F0BB1422DFF8601AD9
S1130690DFF8D00905F01AFD1422DFF82C1D01F053
S11306A0E4BB1422DFF8481ADFF8B80905F00EFDA0
S11306B01422DFF8181D01F0D8BB1422DFF8301A19
S11306C0DFF8A00905F002FD1422DFF8281D01F06F
S11306D0CCBB1422DFF8181ADFF8880905F0F6FC01
S11306E01422DFF8141D01F0C0BB1422DFF8001A35
S11306F0DFF8700905F0EAFC1422DFF8001D01F0B0
S1130700B4BB1422DFF8E819DFF8580905F0DEFC61
S11307101422DFF8EC1C01F0A8BB1422DFF8D01976
S1130720DFF8400905F0D2FC1422DFF8D81C01F0F0
S11307309CBB1422DFF8B819DFF8280905F0C6FCC1
S11307401422DFF8C41C01F090BB1422DFF8A019B6
S1130750DFF8100905F0BAFC1422DFF8B01C01F030
S113076084BB1422DFF88819DFF8F80805F0AEFC22
S11307701422DFF89C1C01F078BB1422DFF87019F6
S1130780DFF8E00805F0A2FC1422DFF8881C01F071
S11307906CBB1422DFF85819DFF8C80805F096FC82
S11307A01422DFF8741C01F060BB1422DFF8401936
S11307B0DFF8B00805F08AFC1422DFF8601C01F0B1
S11307C054BB1422DFF82819DFF8980805F07EFCE2
S11307D01422DFF84C1C01F048BB1422DFF8101976
S11307E0DFF8800805F072FC1422DFF8381C01F0F1
S11307F03CBB1422DFF8F818DFF8680805F066FC43
S11308001422DFF8241C01F030BB1422DFF8E018B6
S1130810DFF8500805F05AFC1422DFF8101C01F030
S113082024BB1422DFF8C818DFF8380805F04EFCA2
S11308301422DFF8FC1B01F018BB1422DFF8B018F7
S1130840DFF8200805F042FC1422DFF8E81B01F071
S11308500CBB1422DFF89818DFF8080805F036FC02
S11308601422DFF8D41B01F000BB1422DFF8801837
S1130870DFF8F00705F02AFC1422DFF8C01B01F0B2
S1130880F4BA1422DFF86818DFF8D80705F01EFC64
S11308901422DFF82C1D01F0E8BA1422DFF85018F6
S11308A0DFF8C00705F012FC1422DFF8181D01F070
S11308B0DCBA1422DFF83818DFF8A80705F006FCC4
S11308C01422DFF8041D01F0D0BA00BF2564000033
S11308D01422DFF81C18DFF88C0705F0F7FB14224C
S11308E0DFF8E81C01F0C1BA1422DFF80418DFF8BD
S11308F0740705F0EBFB1422DFF8D41C01F0B5BA41
S11309001422DFF8EC17DFF85C0705F0DFFB142294
S1130910DFF8C01C204605F0D9FB7F202070FFF7CC
S113092029FC01F09EBB1422DFF8C417DFF834075A
S113093005F0CCFBDFF8A00C90E82E0084E82E0034
S113094001F096BA1422DFF8A817DFF8180705F0AB
S1130950BDFBDFF8880C90E82E0084E82E0001F03F
S113096087BA1422DFF88817DFF8F80605F0AEFB23
S11309701422DFF86C1C01F078BA1422DFF8701727
S1130980DFF8E00605F0A2FB1422DFF8581C01F0A2
S11309906CBA1422DFF85817DFF8C80605F096FB86
S11309A01422DFF8441C01F060BA1422DFF8401767
S11309B0DFF8B00605F08AFB1422DFF8301C01F0E2
S11309C093BA1422DFF8281CDFF8980605F07EFBA2
S11309D041F288330022DFF81C1C204605F0D6FBC8
S11309E0DFF8C0060178A1714278E2718178217242
S11309F0C278A07D6272032801F23383DFE810F02D
S1130A000E0A26004F0079001422DFF8541DDFF887
S1130A10540605F05BFB1E230222DFF8D81B204698
S1130A2005F0B4FBDFF87C060178A1714278E2712D
S1130A3081782172C278A07D6272032801F2118349
S1130A40DFE810F0EC0904002D005700CF21617697
S1130A50012001F08FBD1422DFF8581DDFF80406D1
S1130A6005F034FB4FF4FA730A22DFF8881B2046A2
S1130A7005F08CFBDFF82C060178A1714278E27155
S1130A8081782172C278A07D6272032801F2E98222
S1130A90DFE810F0C409040005002F00D6E7D021D8
S1130AA06176012001F066BD1422DFF85C1DDFF8D9
S1130AB0B40505F00BFB4FF4FA730A22DFF8341B7C
S1130AC0204605F063FBDFF8DC050178A17142786C
S1130AD0E27181782172C278A07D6272032801F2EA
S1130AE0C082DFE810F09B09050004000600D6E789
S1130AF0ACE7D1216176012001F03CBD1422DFF87E
S1130B00781DDFF8600505F0E1FA4FF4FA7300226E
S1130B10DFF8E01A204605F039FBDFF88805017894
S1130B20A1714278E27181782172C278A07D6272EB
S1130B30032801F29682DFE810F07109060005002F
S1130B400400D6E7ABE781E71422DFF8801DDFF865
S1130B50140505F0BBFAC8230122DFF8981A2046D1
S1130B6005F014FBDFF83C050178A1714278E271CD
S1130B7081782172C278A07D6272032801F27182A9
S1130B80DFE810F04C09060005000400B1E786E731
S1130B905CE71422DFF8881DDFF8C80405F096FA34
S1130BA0C8230122DFF84C1A204605F0EFFADFF8DB
S1130BB0F4040178A1714278E27181782172C278DB
S1130BC0A07D6272032801F24C82DFE810F027094D
S1130BD00600050004008CE761E737E71422DFF81C
S1130BE0981DDFF8800405F071FAC8230122DFF8AC
S1130BF0041A204605F0CAFADFF8A8040178A171A6
S1130C004278E27181782172C278A07D62720328F1
S1130C1001F22782DFE810F0020906000500040053
S1130C2067E73CE712E71422DFF8A01DDFF834047D
S1130C3005F04CFA4FF4E1534FF49672DFF8B4190F
S1130C40204605F0A3FADFF85C040178A17142782C
S1130C50E27181782172C278A07D6272032801F268
S1130C600082DFE810F0DB0806000500040040E71E
S1130C7015E7EBE61422DFF8C01DDFF8E80305F002
S1130C8025FA14230122DFF86C19204605F07EFAB8
S1130C90DFF810040178A1714278E2718178217241
S1130CA0C278A07D6272032801F2DB81DFE810F0D4
S1130CB0B6080600050004001BE7F0E6C6E61422A9
S1130CC0DFF8B41DDFF89C0305F000FA3C23012291
S1130CD0DFF82019204605F059FADFF8C803017837
S1130CE0A1714278E27181782172C278A07D62722A
S1130CF0032801F2B681DFE810F091080600050030
S1130D000400F6E6CBE6A1E61422DFF8701DDFF856
S1130D10540305F0DBF94FF461633222DFF8D41891
S1130D20204605F033FADFF87C030178A17142789C
S1130D30E27181782172C278A07D6272032801F287
S1130D409081DFE810F06B08060005000400D0E68F
S1130D50A5E67BE61422DFF8C41DC24805F0B6F907
S1130D603C230A22DFF88C18204605F00FFADFF83E
S1130D7034030178A1714278E27181782172C278DA
S1130D80A07D6272032801F26C81DFE810F047084D
S1130D90060005000400ACE681E657E61422DFF8FD
S1130DA0F41DB04805F092F94FF461631E22DFF898
S1130DB04418204605F0EAF9BA480178A17142784E
S1130DC0E27181782172C278A07D6272032801F2F7
S1130DD04881DFE810F0230806000500040088E6D7
S1130DE05DE633E61422DFF8B01D9E4805F06EF987
S1130DF01422DFF8A81D204605F068F9A9480178F7
S1130E00A1714278E27181782172A17DC07860720B
S1130E10002901F0038001293FF418AE03293FF4AF
S1130E2068AE01F01EB91422DFF8E81DDDE71422D4
S1130E30DFF8E41DD9E700BFDCFEFF1F1422DFF852
S1130E40DC1D884805F042F94FF4FA630022DFF80C
S1130E50A417204605F09AF992480178A1714278C6
S1130E60E27181782172C278A07D6272032801F256
S1130E70F880DFE810F0D30706000500040038E628
S1130E800DE6E3E51422DFF80C1E764805F01EF9A2
S1130E903C231422DFF85C17204605F077F98148DB
S1130EA00178A1714278E27181782172C278A07DC3
S1130EB06272032801F2D580DFE810F0B007060063
S1130EC00500040015E6EAE5C0E51422DFF8C81DB4
S1130ED0644805F0FBF840F6C4130522DFF8141744
S1130EE0204605F053F96F480178A1714278E27108
S1130EF081782172C278A07D6272032801F2B180E8
S1130F00DFE810F08C07060005000400F1E5C6E5F3
S1130F109CE51422DFF8F81D524805F0D7F8142296
S1130F20DFF8F01D204605F0D1F85E480178A17184
S1130F304278E27181782172A17DC07860720029C3
S1130F4000F06C8702293FF4AAAD67E71422DFF8AA
S1130F50C81D444805F0BAF81422DFF8C01D204625
S1130F6005F0B4F84F480178A1714278E2718178B4
S1130F702172A17DC0786072002900F04F87022998
S1130F803FF48DAD4AE71422DFF8941D354805F08F
S1130F909DF81422DFF8281E2DE71422DFF8241E02
S1130FA0304805F093F81422DFF8141E23E71422C6
S1130FB0DFF8141E2B4805F089F81422DFF80C1E04
S1130FC0204605F083F837480178A1714278E27130
S1130FD081782172A17DC0786072002900F01E879B
S1130FE002293FF45CAD19E71422DFF83C141D48D4
S1130FF005F06CF84FF4FA630A22DFF8F81520467E
S113100005F0C4F827480178A1714278E27181782B
S11310102172C278A07D6272032801F22280DFE887
S113102010F0FD0606000500040062E537E50DE555
S11310301422DFF81C1E0B4805F048F81422DFF8D0
S1131040141E204601F001BA1422DFF84C1E054894
S113105005F03CF81422DFF8441E00F0FDBF00BF89
S1131060987C010060FFFF1F1422DFF82C1EDFF8BC
S1131070300E05F02BF81422DFF8281E204605F068
S113108025F87F20207000F0ECBF00BFAC7C01008D
S1131090C07C0100D47C0100E87C0100FC7C0100E0
S11310A0107D010000FFFF1F247D0100387D010039
S11310B04C7D0100607D0100747D0100887D01008C
S11310C09C7D0100B07D0100C47D0100D87D01003C
S11310D0EC7D0100007E0100147E010060F9FF1F19
S11310E04CFDFF1F287E01003C7E0100507E010064
S11310F0647E0100787E01008C7E0100A07E0100E8
S1131100B47E0100C87E0100DC7E0100F07E010097
S1131110047F01001422DFF8301EDFF8840D04F090
S1131120D5FF1422DFF8241E204604F0CFFFDFF899
S1131130200E0178A1714278E27181782172A17D3B
S1131140C0786072002900F0698602293FF4A7ACD8
S113115064E61422DFF82C1EDFF8440D04F0B6FF19
S11311601422DFF8E81D204604F0B0FFDFF8E00D9C
S11311700178A1714278E27181782172A17DC078F1
S11311806072002900F04A8602293FF488AC45E6E3
S11311901422DFF82C1EDFF8080D04F097FF142248
S11311A0DFF8201E204604F091FFDFF8A40D01783B
S11311B0A1714278E27181782172A17DC078607258
S11311C0002900F02B8602293FF469AC26E614229C
S11311D0DFF82C1EDFF8C80C04F078FF1422DFF8C7
S11311E06C1D204604F072FFDFF8640D0178A171D4
S11311F04278E27181782172A17DC0786072002901
S113120000F00C8602293FF44AAC07E61422DFF80A
S11312102C1EDFF88C0C04F059FF42F20F730022ED
S1131220DFF81C1E204604F0B1FFDFF8240D01781E
S1131230A1714278E27181782172C278A07D6272D4
S1131240032800F20E87DFE810F0E9050800060025
S11312500400FFF74EBCFFF722BCFFF7F7BB1422D4
S1131260DFF84C1EDFF8380C04F030FF42F20F7345
S11312700022DFF8CC1D204604F088FFDFF8D00CF4
S11312800178A1714278E27181782172C278A07DDF
S11312906272032800F2E586DFE810F0C00508005A
S11312A006000400FFF725BCFFF7F9BBFFF7CEBB30
S11312B01422DFF8481EDFF8E80B04F007FF4FF4B0
S11312C07A733222DFF8781D204604F05FFFDFF8DE
S11312D0800C0178A1714278E27181782172A17D3C
S11312E0C0786072032900F2BC86DFE811F097052C
S11312F0080006000400FFF7FCBBFFF7D0BBFFF7B4
S1131300A5BBDFF8440EDFF8981B90E86C0081E879
S11313106C0040F637130022DFF8241D204604F049
S113132035FFDFF82C0C0178A1714278E2718178E5
S11313302172C278A07D6272032800F29286DFE8EF
S113134010F06D05080006000400FFF7D2BBFFF79C
S1131350A6BBFFF77BBB1422DFF82C1EDFF8400B83
S113136004F0B4FE1E230522DFF8D41C204604F04A
S11313700DFFDFF8DC0B0178A1714278E27181780E
S11313802172C278A07D6272032800F26A86DFE8C7
S113139010F04505080006000400FFF7AABBFFF79C
S11313A07EBBFFF753BB1422DFF8E01DDFF8F00A21
S11313B004F08CFE1422DFF8D81D00F04DBE00BFEF
S11313C0187F01002C7F0100407F0100547F010041
S11313D01422DFF8B81DDFF8C80A04F077FE1422DF
S11313E0DFF8B01D204604F071FE7F20207000F06D
S11313F038BE00BF687F01007C7F0100907F010040
S1131400A47F0100B87F0100CC7F0100E07F0100D0
S1131410F47F0100088001001C800100308001007D
S113142044800100588001006C800100808001002C
S113143094800100A8800100BC800100D0800100DC
S11314401422DFF8FC1DDFF8580A04F03FFE1422D2
S1131450DFF8F01D204604F039FEDFF8F40A0178C5
S1131460A1714278E27181782172C278A07D6272A2
S1131470032800F2F685DFE810F0D1040800060026
S11314800400FFF736BBFFF70ABBFFF7DFBA1422ED
S1131490DFF81C1EDFF8080A04F018FE1422DFF837
S11314A0A41D204604F012FEDFF8A40A0178A171FD
S11314B04278E27181782172C278A07D6272032839
S11314C000F2CF85DFE810F0AA040800060004004B
S11314D0FFF70FBBFFF7E3BAFFF7B8BA1422DFF840
S11314E0281EDFF8BC0904F0F1FD1422DFF8541DB6
S11314F0204604F0EBFDDFF8580A0178A171427828
S1131500E27181782172C278A07D6272032800F2B0
S1131510A885DFE810F08304080006000400FFF744
S1131520E8BAFFF7BCBAFFF791BA1422DFF8DC1D62
S1131530DFF86C0904F0CAFD1E2302222D4920465F
S113154004F024FEDFF8080A0178A1714278E27100
S113155081782172C278A07D6272032800F28185AD
S1131560DFE810F05C04080006000400FFF7C1BACD
S1131570FFF795BAFFF76ABA1422DFF8941DDFF873
S1131580200904F0A3FD1E2302221A49204604F078
S1131590FDFDDFF8BC090178A1714278E271817820
S11315A02172C278A07D6272032800F25A85DFE8B6
S11315B010F03504250023000400FFF79ABA00BF99
S11315C0E4800100F88001000C8101002081010009
S11315D034810100488101005C8101006C810100BB
S11315E07C81010090810100A4810100B881010087
S11315F0CC810100E0810100FFF751BAFFF726BA60
S11316001422DFF80C1EDFF8980804F05FFD1422A2
S1131610DFF8001E204600F0AABF14225049DFF86C
S1131620800804F053FD1422DFF8E81D204600F082
S11316309EBF14225F49DFF8680804F047FD1422B6
S1131640DFF8D01D204600F092BF14226E49DFF867
S1131650500804F03BFD1422DFF8B81D204600F0CA
S113166086BF14228449DFF8380804F02FFD1422C1
S1131670DFF8A01D204600F07ABF14229349DFF85A
S1131680200804F023FD1422DFF8881D204600F012
S11316906EBF1422A249DFF8080804F017FD1422D3
S11316A0DFF8701D204600F062BF1422B249DFF853
S11316B0F00704F00BFD1422DFF8581D204600F05B
S11316C056BF1422C149DFF8D80704F0FFFC1422E6
S11316D0DFF8401D204600F04ABF1422D649DFF847
S11316E0C00704F0F3FC1422DFF8281D204600F0A4
S11316F03EBF1422E049DFF8A80704F0E7FC1422F7
S1131700DFF8101D204600F032BF1422DB49DFF859
S1131710900704F0DBFC1422DFF8F81C204600F0EC
S113172026BF1422DFF8F413DFF8740704F0CEFCAC
S11317301422DFF8E01C204600F019BF1422DFF861
S11317405414DFF85C0704F0C1FC1422DFF8C41C55
S1131750204600F00CBF1422DFF8A81D02E000BFF1
S1131760F4810100DFF8380704F0B0FC1422DFF83C
S1131770A41C204600F0FBBE1422DFF89814DFF806
S1131780200704F0A3FC1422DFF8881C204600F094
S1131790EEBE1422DFF88014DFF8040704F096FC90
S11317A01422DFF8701C204600F0E1BE1422DFF89A
S11317B0581D01E008820100DFF8E40604F086FC0D
S11317C01422DFF8501C204600F0D1BE1422DFF8AA
S11317D0C414DFF8CC0604F079FC1422DFF8341CBE
S11317E0204600F0C4BE1422DFF8AC14DFF8B006C3
S11317F004F06CFC1422DFF81C1C204600F0B7BE79
S11318001422DFF80C1501E01C820100DFF89006B9
S113181004F05CFC1422DFF8FC1B204600F0A7BE99
S11318201422DFF8F414DFF8780604F04FFC1422D5
S1131830DFF8E01B204600F09ABE1422DFF8B81D42
S1131840DFF85C0604F042FC1422DFF8C81B2046D3
S113185000F08DBE1422DFF8A41DDFF8440604F066
S113186035FC1422DFF8AC1B204600F080BE1422A5
S1131870DFF8541502E000BF30820100DFF82006D3
S113188004F024FC1422DFF88C1B204600F06FBE09
S11318901422DFF8B416DFF8080604F017FC14224B
S11318A0DFF8701B204600F062BE1422DFF8D41665
S11318B0DFF8EC0504F00AFC1422DFF8581B20467C
S11318C000F055BE1422DFF8F81601E0448201004E
S11318D0DFF8CC0504F0FAFB1422DFF8381B2046AD
S11318E000F045BE1422DFF81817DFF8B40504F041
S11318F0EDFB1422DFF81C1B204600F038BE142236
S1131900DFF83817DFF8980504F0E0FB1422DFF85D
S1131910041B204600F02BBE1422DFF8941701E0CC
S113192058820100DFF8780504F0D0FB1422DFF8B8
S1131930E41A204600F01BBE1422DFF8C017DFF8BB
S1131940600504F0C3FB1422DFF8C81A204600F037
S11319500EBEDFF8F407DFF8481590E86C0081E864
S11319606C001422DFF8AC1A204600F000BE1422EA
S1131970DFF8141802E000BF6C820100DFF82005D4
S113198004F0A4FB1422DFF88C1A204600F0EFBD0B
S11319901422DFF8AC18DFF8080504F097FB1422D2
S11319A0DFF8701A204600F0E2BD1422DFF8581D5B
S11319B0DFF8EC0404F08AFB1422DFF8581A2046FE
S11319C000F0D5BD1422DFF8401901E08082010047
S11319D0DFF8CC0404F07AFB1422DFF8381A20462E
S11319E000F0C5BD1422DFF82419DFF8B40404F0B4
S11319F06DFB1422DFF81C1A204600F0B8BD142237
S1131A00DFF80C19DFF8980404F060FB1422DFF807
S1131A10041A204600F0ABBD1422DFF82C1DDFF8B9
S1131A20800404F053FB1422DFF8201D204604F048
S1131A304DFB0020A07648E2948201001422DFF8D6
S1131A40081DDFF85C0404F041FB1422DFF8001DDC
S1131A500BE21422DFF8F01CDFF8440404F036FB38
S1131A601422DFF8F01C204604F030FB00207F2114
S1131A70A076217000F0F9BCA8820100BC820100AC
S1131A801422DFF8D41CDFF8180404F01FFB14221E
S1131A90DFF8C81C204604F019FB0020A076DFF80C
S1131AA0C02C107800F001010029C4BF4822A270A4
S1131AB010F00201C4BF4822627110F00401C4BFD7
S1131AC04822227210F00801C4BF4822E27210F0CA
S1131AD0100040F3CA844820A07300F0C6BC14224E
S1131AE0DFF8681DDFF8B80304F0F0FA0020DFF82F
S1131AF0601DA0760A7802F00102002ACCBFD2A2AF
S1131B00D2A2DFF8505DDFF8501D284604F03EFBFA
S1131B102146284604F0D4F992E100BFD0820100A6
S1131B201422DFF8281DDE4804F0D0FA0020DFF884
S1131B30201DA0760A7802F00202002ACCBFC2A2BD
S1131B40C2A2DFF8105DDFF8141D284604F01EFB66
S1131B502146284604F0B4F9B5E11422DFF8EC1C60
S1131B60CF4804F0B3FA0020DFF8E41CA0760A782A
S1131B7002F00402002ACCBFB3A2B4A2DFF8D45C02
S1131B80DFF8DC1C284604F001FB2146284604F05B
S1131B9097F998E1E4820100F88201000C830100C6
S1131BA01422DFF8A81CBE4804F090FA0020DFF8E5
S1131BB0A01CA0760A7802F00802002ACCBFA2A2D8
S1131BC0A2A2DFF8905CDFF89C1C284604F0DEFA41
S1131BD02146284604F074F975E11422DFF86C1CE0
S1131BE0AF4804F073FA0020DFF8641CA0760A788A
S1131BF002F01002002ACCBF93A294A2DFF8545C36
S1131C00DFF8CC1C284604F0C1FA2146284604F02B
S1131C1057F958E12083010034830100488301000F
S1131C201422DFF8281C9E4804F050FA0020DFF844
S1131C30201CA0760A7802F02002002ACCBF82A2DF
S1131C4082A2DFF8105CDFF88C1C284604F09EFAB0
S1131C502146284604F034F935E11422DFF8EC1B60
S1131C608F4804F033FA0020DFF8E41BA0760A78EA
S1131C7002F04002002ACCBF73A274A2DFF8D45B46
S1131C80DFF8541C284604F081FA2146284604F063
S1131C9017F918E15C830100708301001422DFF856
S1131CA0AC1B7F4804F012FA0020DFF8A41BA076D6
S1131CB00A7802F08002002ACCBF63A263A2DFF894
S1131CC0945BDFF8181C284604F060FA2146284685
S1131CD004F0F6F8F7E01422DFF8701B704804F003
S1131CE0F5F90020DFF8681BA0760A8802F48072F8
S1131CF0002ACCBF54A255A2DFF8585BDFF8E01BE2
S1131D00284604F043FA2146284604F0D9F8DAE0DC
S1131D108483010098830100AC830100C083010027
S1131D20D48301001422DFF8241B5D4804F0CEF9AB
S1131D3064230022DFF8AC1B204604F027FA844811
S1131D400178A1714278E27181782172C278A07D14
S1131D506272032800F28581DFE810F06000080059
S1131D6006000400FEF7C5BEFEF799BEFEF76EBE80
S1131D701422DFF8D81A4A4804F0A8F90020DFF842
S1131D80D01AA0760A8802F48072002ACCBF2EA250
S1131D902EA2DFF8C05ADFF8581B284604F0F6F9E3
S1131DA0DFF8503BDFF8501B1868096800EB80022D
S1131DB0500004F00BFA2146284604F081F882E032
S1131DC0E8830100FC8301001084010024840100E5
S1131DD01422DFF8781A324804F078F91E2302221C
S1131DE0DFF8001B204604F0D1F959480178A171AD
S1131DF04278E27181782172C278A07D62720328F0
S1131E0000F22F81DFE810F00A0008000600040049
S1131E10FEF76FBEFEF743BEFEF718BECE21617615
S1131E200120A7E31422DFF8D41A1D4804F04EF968
S1131E300020A0761422DFF8C81A204604F046F9E0
S1131E407E20E07311E300BF4F4646004F4E000072
S1131E50388401004C8401001422DFF8A01A1048D1
S1131E6004F034F91422DFF89C1A204604F02EF909
S1131E70FEF780F9F9E21422DFF8801A084804F02A
S1131E8025F91422DFF8801A204604F01FF97F2078
S1131E907E212070E1732CE26084010074840100CF
S1131EA060FFFF1F888401001422DFF8501ADFF856
S1131EB05C0A04F00BF90020A0761422DFF8501A13
S1131EC0204604F003F97F2020707E21E173CCE2E8
S1131ED01422DFF8281ADFF8340A04F0F7F8002097
S1131EE0A0761422DFF82C1A204604F0EFF87F20A5
S1131EF02070BAE21422DFF8201ADFF8100ADFF8A3
S1131F00545904F0E3F80020A076DFF8101A48686A
S1131F10DFF80C1A0E78012E0CD104F0AFFCDFF8B8
S1131F20042ADFF8043A04F0CDFC0B460246DFF83D
S1131F30FC1905E004F0A2FC0B460246DFF8F01998
S1131F40284604F023F974E09C840100B084010065
S1131F5000FFFF1F1422DFF8BC1CDFF8B009DFF814
S1131F60F45804F0B3F80020A0766421DFF8A82C1C
S1131F70106890FBF1F2DFF8A41C284604F006F97F
S1131F8057E000BFC48401001422DFF8941CDFF87A
S1131F907C09DFF8C05804F099F80021DFF8840CBC
S1131FA0A176006804F072FDDFF87C1C04F080FD6B
S1131FB004F064FC0B460246DFF8701C36E000BFF8
S1131FC0D8840100EC8401001422DFF8641CDFF8DB
S1131FD03C09DFF8805804F079F80021DFF8540C4C
S1131FE0A176006804F052FDDFF84C1C04F060FD9B
S1131FF004F044FC0B460246DFF8401C16E000BF28
S1132000008501001422DFF83C1CDFF80009DFF82A
S1132010445804F05BF80021DFF8340CA176006822
S113202004F02CFC0B460246DFF8281C284604F07A
S1132030ADF82146284603F043FF16E2148501005B
S1132040288501001422DFF8101CDFF8C00804F012
S11320503DF81422DFF8041C204604F037F87E20F3
S1132060E0730021A17600E21422DFF8EC1BDFF814
S11320709C0804F02BF81422DFF8E41B204604F03B
S113208025F87F207E212070E17332E11422DFF8ED
S1132090C81BDFF8780804F019F81422DFF8C41B11
S11320A0204604F013F87F207E222070E27360E261
S11320B0388501001422DFF8A01BDFF8500804F073
S11320C005F81422DFF8A01B204603F0FFFF7F2051
S11320D07E222070E2734CE21422DFF87C1BDFF8CE
S11320E02C0803F0F3FF1422DFF8801B204603F0D2
S11320F0EDFF7F207E222070E2733AE24C850100DE
S11321001422DFF8541BDFF8040803F0DFFF142265
S1132110DFF85C1B204603F0D9FF7F207E2220706D
S1132120E27326E21422DFF8301BDFF8E00703F045
S1132130CDFF1422DFF83C1B204603F0C7FF7F20AD
S11321407E222070E27314E2608501001422DFF81D
S1132150081BDFF8B80703F0B9FF1422DFF8181BD7
S1132160C2E0DFF8EC164FF6F47008802A222262EF
S11321707BE11422DFF8041BDFF8900703F0A6FFCD
S11321801422DFF8D81AF1E170850100848501007A
S113219098850100AC8501001422DFF8E41ADFF809
S11321A06C0703F093FF1422DFF8D81A204603F0DB
S11321B08DFF0120A076DFF8D00A017861714178A3
S11321C0A171817821722146C0784872A07D0328CC
S11321D000F24B81DFE810F0380004003B003D00C2
S11321E0CE2132E01422DFF8A41ADFF8200703F02E
S11321F06DFF1422DFF8981A204603F067FFDFF81A
S1132200880A017861712D234178A171E371827884
S11322102272C2786272A37201220179E1722146AC
S1132220407908738A76887D052800F21E81DFE8EC
S113223010F00B0006000E00100012001400CFE78F
S1132240C0850100D4850100CD2161760DE1D02047
S113225004E0D12002E0D32000E0D420487604E159
S11322601422DFF8301ADFF8A40603F02FFF14223B
S113227068497BE11422DFF8201ADFF8900603F0A6
S113228025FF1422634971E11422DFF8101ADFF8E4
S11322907C0603F01BFF1422DFF8041A204603F027
S11322A015FF7E20E07324E01422DFF8F01914E017
S11322B0E88501001422DFF8EC19DFF8500603F07A
S11322C005FF1422DFF8D819204603F0FFFE7E2014
S11322D0E0730EE01422DFF8CC19DFF8300603F0C7
S11322E0F5FE1422DFF8C019204603F0EFFE7F202C
S11322F020700022A276B8E0DFF85845202221465B
S113230040F2FD2037E000BFFC850100108601008B
S113231024860100A07D0021030018D0DFF868297D
S1132320DFF888C9D55CDFF8E425A0F1480600F1A0
S113233064070F2BD9BFD554BE460CF80350B646DC
S113234084F819E0491C5FFA81FE8645F1D3DFF871
S1132350600901700F2B207FC7BFDFF85029D054CC
S1132360DFF8A815C854FEF75EB8DFF8E844202269
S1132370214640F21D3004F023FD0020DFF88C25B7
S1132380DFF8305984F8200000211346207808B380
S1132390CEB20F2E03DC18700020587004E0A5F1B3
S11323A01006307000207070491C607890B1CEB275
S11323B00F2E03DC58700020987004E0A5F110067D
S11323C070700020B070491CAD1C9B1CA41CC8B2CA
S11323D02028DBDBCBB2202B16DAD018DFF8D42888
S11323E01A440025CBB20F2B03DC20230370457065
S11323F004E0A2F1100320241C705D70491C521CDF
S1132400401CCBB2202BEDDBDFF8A42811702CE0AC
S1132410CC810100847C0100DFF89C080178CB3971
S113242008D0091F06D0891E022903D9C91E022912
S11324300ED910E01422DFF88418DFF8D00403F07A
S113244045FE1422DFF87818204603F03FFE0CE026
S1132450C220206209E0617F491CCAB2002A07BF7A
S1132460CF220270C3202062617703B0BDE8F04040
S113247003F070BA1422DFF84418DFF8900403F074
S113248025FE1422DFF83C18DEE71422DFF82C18AE
S1132490DFF8780403F01AFE1422DFF82C18D3E7CF
S11324A01422DFF82818DFF8640403F00FFE142266
S11324B0DFF81C18204603F009FEDFF894130A889D
S11324C04FF6F07002400A80CFE70021DFF80438AD
S11324D0A1761878401E10D0401E032805D9401F4D
S11324E0042806D90938012810D80A22DFF8E81789
S11324F00FE00922DFF85C1D0BE00B22DFF8581D0A
S113250007E000BF388601004C8601000922DFF88D
S11325104C1DD048CF4C03F0C9FDDFF8F013204622
S113252003F0CEFCDFF8382D10686421B0FBF1F223
S1132530DFF8E816204603F029FEDFF87817204676
S113254003F0BEFCDFF81C1D086800288DD0DFF8FE
S113255064072121C17388E71422DFF80C1DDFF81A
S1132560AC0303F0B3FD1422DFF8001D204603F092
S1132570ADFD0020A07678E7DFF85867DFF8F05C5F
S11325800020A076B34C3078112800F2C980DFE82F
S113259000F0090E1720375568717A838C959EA731
S11325A0B0BD295EDFF8CC1C0A682A60B8E00522B9
S11325B0DFF8C41C204603F079FDDFF8C00CADE061
S11325C00A22DFF8BC1C204603F070FDDFF8B40CCF
S11325D0A4E00722DFF8B01C204603F067FDDFF813
S11325E0AC0C9BE01022DFF8A81C204603F05EFD33
S11325F0DFF8A00C017892E0608601007486010087
S11326000622DFF8941C204603F050FDDFF88C1CF2
S1132610DFF88C2C0968107870B9DFF8883CDFF893
S1132620647C1868DFF8643C3A684143186882188F
S1132630B1FBF2F0286073E0490870E01022DFF883
S1132640681C204603F032FDDFF8600C66E01122BE
S1132650DFF85C1C204603F029FDDFF8580C0178F4
S11326605DE00922DFF8F41B204603F01FFDDFF8CC
S11326700C0C53E00E22DFF8401C204603F016FD3C
S1132680DFF8380C4AE00F22DFF8341C204603F050
S11326900DFDDFF8300C41E00D22DFF82C1C204644
S11326A003F004FDDFF8240C38E00E22DFF8201CD0
S11326B0204603F0FBFCDFF81C0C2FE00A22DFF8B5
S11326C0181C204603F0F2FCDFF8100C26E011225F
S11326D0DFF80C1C204603F0E9FCDFF8A00B1DE03A
S11326E01022DFF8001C204603F0E0FCDFF8F80BB2
S11326F014E00C22DFF8F41B204603F0D7FCDFF8CB
S1132700F00B01780BE000BF888601000D22DFF892
S1132710E41B204603F0CAFCDFF8DC0B01682960E7
S11327207A49204603F0CCFB3078012803D10622F5
S1132730DFF8C81B04E0062814D10622DFF8C01B0A
S1132740204603F0B3FC1DE09C860100B086010026
S1132750C4860100D8860100EC86010000870100D0
S113276004FDFF1FDFF8141B28680A68821A12F19F
S11327700A0FB8BF0246DFF88C0B02605AA120464C
S113278003F004FDDFF8806B2A6858A1304603F09B
S1132790FDFC3146204604F033FDDFF8181503F044
S11327A08FFBDFF810157F2008707E220020CA738B
S11327B088765AE61422DFF8541B544803F086FC4A
S11327C0DFF84C1BDFF84C0B0B6802689A1A48BF01
S11327D00022DFF8300B1F4CDFF83C1B0260204660
S11327E003F0D4FCDFF8CC142046D8E71422DFF839
S11327F02C1B4648174C03F069FC4949DFF8200BB1
S11328000A780068012A0AD104F038F8454A464B90
S113281004F058F80B460246DFF8081B90E004F079
S113282003FD0246DFF8001B204603F0AFFC8AE0FC
S11328301422DFF8F81A354803F048FCDFF8301AA0
S1132840DFF8EC3A00200880002215E0148701002C
S11328500400002060F9FF1F28870100348701006D
S11328604087010048870100185D18B18218487834
S1132870401C4870641C0C700C78042CF4DD4878FF
S1132880DFF8B01ADFF8B04AB2FBF0F20A60204673
S1132890DFF8A81A03F07AFCDFF8181420467EE764
S11328A01422DFF89C1A1948DFF88C4A03F00EFC56
S11328B01B491A480A784068012A3BD103F0DEFF1D
S11328C0184A194B03F0FEFF0B460246174937E03E
S11328D0508701005887010068870100788701004C
S11328E084870100E0810100256400002F25640035
S11328F09087010098000020A8000020988701001C
S1132900AC870100C0870100D487010060FFFF1F6E
S1132910E8870100FC8701001088010024E0FF1F04
S11329207FE8FF1F77D5F270AAE8D03F2488010022
S11329303488010003F0A2FF0B460246DFF8041AB4
S1132940204603F023FCDB49204628E71422DFF865
S1132950F819DFF8F809DFF8E04903F0B7FBDFF80E
S1132960F009006804F092F8DFF8E81904F0A0F820
S113297003F084FF02460B46DFF8DC19204603F01F
S113298005FCCC4920460AE71422DFF8D019DFF809
S1132990BC09DFF8A44903F099FBDFF8C409006817
S11329A004F074F8DFF8AC1904F082F803F066FF61
S11329B002460B46DFF8A019204603F0E7FBBD49A9
S11329C02046ECE61422DFF89C19DFF88009DFF8D2
S11329D0684903F07BFB9E48006803F04FFF024602
S11329E00B469C49204603F0D1FBB2492046D6E66B
S11329F01422DFF87419DFF8540903F067FBDFF8D9
S1132A0064180868002814BF8DA28FA2DFF8284933
S1132A108EA1204603F0BAFBA649204603F050FAE3
S1132A20A4497F20087000228A761EE5DFF81C493D
S1132A30DFF838191422204603F048FBDFF8240895
S1132A400178CA0705D55920607365217320A173E5
S1132A50E0730622DFF8B058294642F6503004F0FD
S1132A60AFF92879E978DFF8D0486B782A780290B2
S1132A700191A878DFF8F8180090204603F086FB4F
S1132A800020207420468B4903F01AFA89497E20DD
S1132A90C873C8E7DFF8B448DFF8D8181422204612
S1132AA003F014FBDFF8BC070168C1F3400028B150
S1132AB05920607365217320A173E0730622DFF847
S1132AC04858294642F6563004F07AF92879E978CC
S1132AD0DFF864486B782A7802900191A878DFF8CF
S1132AE090180090204603F051FB002020742046EB
S1132AF0704954E6DFF85448DFF87C181422204665
S1132B0003F0E4FADFF85C070168C1F3800028B140
S1132B105920607365217320A173E0730622DFF8E6
S1132B20E857294642F65C3004F04AF92879E978F6
S1132B30DFF804486B782A7802900191A878DFF8CE
S1132B4030180090204603F021FB0020207420461A
S1132B50584924E6DFF8F447DFF820181422204609
S1132B6003F0B4FADFF8FC060168C1F3C00028B131
S1132B705920607365217320A173E0730622DFF886
S1132B808857294642F6623004F01AF92879E97820
S1132B90DFF8A4476B782A7802900191A878DFF8CF
S1132BA0D0170090204603F0F1FA0020207420464C
S1132BB04049F4E5DFF89447DFF8C41714222046AF
S1132BC003F084FADFF89C060168C1F3001028B111
S1132BD05920607365217320A173E0730622DFF826
S1132BE02857294642F6683004F0EAF82879E9784B
S1132BF0DFF844476B782A7802900191A878DFF8CF
S1132C0070170090204603F0C1FA0020207420467B
S1132C102849C4E54088010010E0FF1F54880100E2
S1132C206088010044E0FF1F00007A4474880100BA
S1132C30808801005CFFFF1F000020419488010090
S1132C4059455300A08801004E4F00002573000031
S1132C50D8000020B4880100C0880100D488010095
S1132C60E8880100FC880100108901002489010022
S1132C70388901004C8901006089010074890100D0
S1132C80888901009C89010000FFFF1FB0890100B1
S1132C90C4890100D8890100EC890100008A01007F
S1132CA0148A01003C8A0100288A0100CCFEFF1F1F
S1132CB00C010020DCFEFF1F91FDFF1F508A010064
S1132CC0648A0100788A01008C8A0100A08A0100CC
S1132CD0B48A01007EE8FF1FC88A0100DFF86C4651
S1132CE0DFF8A0161422204603F0F0F9DFF874058B
S1132CF00168C1F3401028B1592060736521732025
S1132D00A173E0730622DFF80056294642F66E30BE
S1132D1004F056F82879E978DFF81C466B782A78AD
S1132D2002900191A878DFF848160090204603F03D
S1132D302DFA002020742046DFF84C162FE5DFF82A
S1132D400C46DFF848161422204603F0BFF9DFF8DA
S1132D504016086828B94E2161732E204521A073BE
S1132D60E173DFF800050168C1F3801028B1592030
S1132D70607365217320A173E0730622DFF8885520
S1132D80294642F6743004F01BF82879E978DFF814
S1132D90A8456B782A7802900191A878DFF8D015BD
S1132DA00090204603F0F2F9002020742046DFF85A
S1132DB0D815F4E4DFF89445DFF8D815142220463A
S1132DC003F084F9DFF89C040168C1F3C01028B152
S1132DD05920607365217320A173E0730622DFF824
S1132DE02855294642F67A3003F0EAFF2879E97833
S1132DF0DFF844456B782A7802900191A878DFF8CF
S1132E0070150090204603F0C1F90020207420467C
S1132E10DFF87415C3E4DFF83445DFF87C151422B9
S1132E20204603F053F9DFF83C040168C1F30020A5
S1132E3028B15920607365217320A173E0730622C1
S1132E40DFF8C45429464FF42E5003F0B9FF287913
S1132E50E978DFF8E4446B782A7802900191A87845
S1132E60DFF80C150090204603F090F90020207440
S1132E702046DFF8141592E4DFF8D044DFF81C157F
S1132E801422204603F022F9DFF8D8030168C1F3C5
S1132E90402028B15920607365217320A173E07329
S1132EA00622DFF86454294642F6863003F088FF90
S1132EB02879E978DFF880446B782A7802900191C8
S1132EC0A878DFF8AC140090204603F05FF90020E6
S1132ED020742046DFF8B01461E4DFF87044DFF8B2
S1132EE0C0141422204603F0F1F8DFF878030168D7
S1132EF0C1F3802028B15920607365217320A17328
S1132F00E0730622DFF80054294642F68C3003F0C1
S1132F1057FF2879E978DFF820446B782A78029003
S1132F200191A878DFF848140090204603F02EF9A8
S1132F30002020742046DFF8501430E4DFF80C44FD
S1132F40DFF860141422204603F0C0F8C548016875
S1132F50C1F3C02028B15920607365217320A17387
S1132F60E0730622DFF8A053294642F6923003F0BC
S1132F7027FF2879E978DFF8C0436B782A78029034
S1132F800191A878DFF8E8130090204603F0FEF8DA
S1132F90002020742046DFF8F013FFF700BCDFF8B0
S1132FA0AC43DFF804141422204603F08FF8AD4834
S1132FB00168C1F3003028B1592060736521732082
S1132FC0A173E0730622D04D294642F6983003F0EF
S1132FD0F7FE2879E978D84C6B782A780290019129
S1132FE0A878DFF88C130090204603F0CFF8002077
S1132FF020742046DFF89013FFF7D1BBD34CDFF8E1
S1133000AC131422204603F061F896480168C1F31A
S1133010403028B15920607365217320A173E07397
S11330200622B94D294642F69E3003F0C9FE28799E
S1133030E978C14C6B782A7802900191A878CC4940
S11330400090204603F0A2F8002020742046CE49C8
S1133050FFF7A5BBBD4CD6491422204603F036F831
S113306080480168C1F3803028B15920607365211C
S11330707320A173E0730622A34D294642F6A430BF
S113308003F09EFE2879E978AB4C6B782A7802909D
S11330900191A878B6490090204603F077F8002003
S11330A020742046B849FFF77ABBA84CC1491422C2
S11330B0204603F00BF86B480168C1F3C03028B117
S11330C05920607365217320A173E07306228E4D2D
S11330D0294642F6AA3003F073FE2879E978964C23
S11330E06B782A7802900191A878A1490090204633
S11330F003F04CF8002020742046A349FFF74FBB8F
S1133100924CAD491422204602F0E0FF5548016874
S1133110C1F3004028B15920607365217320A17365
S1133120E0730622784D294642F6B03003F048FE9B
S11331302879E978804C6B782A7802900191A878F4
S11331408B490090204603F021F80020207420468B
S11331508D49FFF724BB7D4C98491422204602F088
S1133160B5FF40480168C1F3404028B1592060735D
S113317065217320A173E0730622634D294642F64C
S1133180B63003F01DFE2879E9786B4C6B782A7809
S113319002900191A87876490090204602F0F6FF4B
S11331A00020207420467849FFF7F9BA674C844917
S11331B01422204602F08AFF2A480168C1F38040A5
S11331C028B15920607365217320A173E07306222E
S11331D04D4D294642F6BC3003F0F2FD2879E978DA
S11331E0554C6B782A7802900191A8786049009038
S11331F0204602F0CBFF0020207420466249FFF7EE
S1133200CEBA524C6F491422204602F05FFF154893
S11332100168C1F3005028B15920607365217320FF
S1133220A173E0730622384D294642F6C83003F0F4
S1133230C7FD2879E978404C6B782A78029001918F
S1133240A8784B490090204602F0A0FF002020748B
S1133250FFF7E2BBD48A0100E08A0100EC8A010096
S113326064000020C4000020F88A01000C8B0100D7
S1133270D8FFFF1FA4FFFF1F208B01003000002098
S1133280288B01001CE8FF1F348B010020E8FF1F7E
S11332903C8B01001A0100204C8B010024E8FF1F25
S11332A01401002034000020548B01006800002029
S11332B0648B01001B010020788B01002CE8FF1FA8
S11332C0888B010030E8FF1F988B01003CE8FF1F4A
S11332D0A88B010040E8FF1FB88B010058E8FF1FCE
S11332E0C48B0100D88B010060E8FF1FE88B01004C
S11332F080E8FF1FF48B010044E8FF1FC87A010037
S1133300048C01002400002040F3FF1F4C860100C0
S113331028E8FF1F6C0000200C8C0100148C0100B5
S113332050000020288C0100348C01003C8C0100EA
S1133330F0FFFF1F2C00002060F9FF1F508C0100DC
S1133340588C0100348801006C8C010060FFFF1F61
S113335034FCFF1F0000C842808C0100888C0100EF
S113336038FCFF1F9C8C0100B08C0100E47A010042
S1133370747C0100F87A01000C7B0100207B0100C1
S1133380347B0100487B0100DCFEFF1F5C7B0100F5
S113339074000020707B0100847B0100987B010095
S11333A0AC7B0100C07B0100D47B0100E87B010001
S11333B0FC7B0100107C0100247C0100387C0100AE
S11333C04C7C0100607C0100F0B587B0FCF798FEEE
S11333D0DFF8804CE07D012840F00B81617D206A9C
S11333E0002203290546E27500F2FD80DFE811F0B2
S11333F00400140170027610401EE32800F2F380EA
S1133400DFE810F06F116011F401F900F100F10030
S1133410F1008B1232023402360238023A023C02C4
S11334203E024002F100E20F420244024602480218
S113343048024A024C024E02500252025402560200
S113344058025A025C025E0260026202F100060146
S11334500801F100F100F1006003851208120B125B
S11334600E1211126212F1009C1172117511781171
S11334707B117E118111841187118A118D11901194
S11334809311961199119F11A211A511A811AB11B5
S1133490AE11B111B411B711BA11BD117B0AF1000B
S11334A01402DB11DE11E111E411E711EA11ED114F
S11334B0F011F311F611F911FC11FF110212F900C8
S11334C0F900F900F900F900F900F900F900F90030
S11334D0F900F900F900F900F900F900F900F90020
S11334E0F900F900F900F900F900F900F900F90010
S11334F0F900F100F1000401F100F100F100F9001C
S1133500F900F900F900F900F900F900F900F900EF
S1133510F100F900F900F900F900F900F100F100F7
S1133520F100F100F100F100F100F100F100F1000F
S1133530F100F100F100F100F100F100F100F100FF
S1133540F100F100F100F100F100F100F100F100EF
S1133550F100F100F100F100F100F100F100F100DF
S1133560F1000201F100F100F100F100F100F100BD
S1133570F900F900F1001412F100E400F1003B122B
S1133580F100E400F100F100F100F100F100F100BC
S1133590F10075127812F100F100080F1A021C02F2
S11335A01E0220022202240226022802F100F10057
S11335B0F1009412160218029F12F100F100F100BA
S11335C0F100F100F100631166116911207F7A287E
S11335D005DA401CC1B25C2904D15D2002E014BFAD
S11335E020207F202077256207B0BDE8F040FCF75B
S11335F0D7BD07B0F0BDA07DDFF85C1A0A5C392A9C
S1133600F1DA521C0A54EEE78725ECE77925EAE75C
S11336102525E8E72625E6E7E328E4D8DFE810F0E7
S11336205210E6006D11E400F900E4002401E40006
S1133630260128012A012C012E01300132018011BA
S1133640E4003401360138013A013C013C013E01F9
S1133650400142014401460148014A014C014E0126
S11336605001520154015601E400E5006411E400E4
S11336707711E400E400FA10FD1000110311541155
S11336801E01E400641067106A106D10701073104E
S1133690761079107C107F108210851088108B10A2
S11336A09110941097109A109D10A010A310A610BA
S11336B0A910AC10AF106D090601CD10E400D010B4
S11336C0D310D610D910DC10DF10E210E510E8108A
S11336D0EB10EE10F110F410F710E400F900F9000B
S11336E0F900F900F900F900F900F900F900F9000E
S11336F0F900F900F900F900F900F900F900F900FE
S1133700F900F900F900F900F900F900F900F900ED
S1133710E4000201E400E400E400E400F900F9003C
S1133720F900F900F900F900F900F900F9000401C1
S1133730F900F900F900F900F900E400E400E400FC
S1133740E400E400E400E400E400E400E400E40055
S1133750E400E400E400E400E400E400E400E40045
S1133760E400E400E400E400E400E400E400E40035
S1133770E400E400E400E400E400E400E400E40025
S1133780E400E400E400E400E400E400E400F90000
S1133790F9002001E400E400E8002201E400E40070
S11337A0E800E400E400E400E400E400E4006A115A
S11337B08311E400E4000C010E0110011201140154
S11337C0160118011A011C01E400E400E4000801D8
S11337D00A0191119411E400E400E400E400E4001F
S11337E0E40058105B105E10FDE613E70225FAE6CC
S11337F0207F20280BDD7F2808BF7A203FF4F2AE1B
S1133800401EC1B25C297FF4EDAE5B20EAE67F2066
S1133810E8E6A07DDFF840180A5C312AFFF6E3AE43
S1133820521EEFE67A25DEE6B025DCE64D25DAE623
S1133830D825D8E6D925D6E6CC25D4E6CD25D2E6BA
S1133840CE25D0E6CF25CEE6D025CCE6D125CAE6D6
S1133850D225C8E6D325C6E6D425C4E63125C2E67A
S1133860BA25C0E6BE25BEE60825BCE60925BAE6AB
S11338700A25B8E60B25B6E60C25B4E60D25B2E616
S11338800E25B0E60F25AEE61225ACE61325AAE612
S11338901425A8E61525A6E61725A4E61825A2E60C
S11338A01925A0E61A259EE61B259CE61C259AE60A
S11338B01D2598E61E2596E61F2594E6202592E60A
S11338C0212590E622258EE623258CE624258AE60A
S11338D0E4283FF688AEDFE810F0E600F80EEB00CF
S11338E0F500F700E5003B0D730D3B0DE500E50029
S11338F0E500E500E500E500E500770D7A0D800DB3
S1133900860D910D970D9D0DA30DE500AF0DB50D21
S1133910BB0DC10DC70DCD0DD30DD90DE500E500CF
S1133920E500E500E500310F0A10EE0AE500E500C8
S1133930F10AF50A3C0BA90FD00FD10BD90B920158
S11339400E0115011C0123012A01310138013F0137
S113395046014D0154015B01620169019901B40101
S1133960CF01D601DD01E40105022D0255027E02DC
S1133970A702AF02B202E500BA02E3020C03350368
S11339805E0366036E0376037E0386038E03980349
S1133990A203AC03B403C903ED03100436045C04AE
S11339A08004A304C604EA041105350559058005FD
S11339B0A505CC050406340664068806AC06D006C4
S11339C009073A076A079A07CC07F20737084E082F
S11339D0E500E500E50066089808C9080C093D09FA
S11339E05E097F09A209C309E309330A580A7D0A5B
S11339F0A20AC80AE500E500E500E500E500E500E7
S1133A00E500E500E500E500E500E500E500E5008A
S1133A10E500E500E500E500E500E500E500E5007A
S1133A20E500E500E500E500E500E500E500E5006A
S1133A30E500E500E500E500E500F909E500E5003D
S1133A40E500E500E500E5001B0C4E0C910B940B22
S1133A50E500DC0BB10BB40BE500DC0BE500E50085
S1133A60E500E500E500E5009A0C9D0C2910E50051
S1133A70A00CAF0CBC0CC80CD40CE00CEC0CF80C77
S1133A80040D100DE500E500DF0DE20DE90DFB0D61
S1133A90FE0DE500E500E500E500E500060108018E
S1133AA00A010C019FE5002003F0CAFB256A9AE590
S1133AB0A275DFF8A815DFF8A005052202F006FBC1
S1133AC0042590E528258EE5A07D0328C1F21884FD
S1133AD0DFF88C15DFF8800503F038FC00283FF48C
S1133AE099AD05257FE5E5257DE5E6257BE5E7251B
S1133AF079E5E82577E5DFF86C05006802F0C4F89D
S1133B005F2570E5DFF86005006802F0BDF8602508
S1133B1069E5DFF8EC0D006802F0B6F8612562E5AE
S1133B20DFF8E00D006802F0AFF862255BE5DFF82E
S1133B30D80D006802F0A8F8632554E5DFF8CC0D31
S1133B40006802F0A1F864254DE5DFF8C40D0068B3
S1133B5002F09AF8652546E5DFF8B80D006802F032
S1133B6093F866253FE5DFF8B00D006802F08CF8A5
S1133B70672538E5DFF8A40D006802F085F86825AC
S1133B8031E5DFF89C0D006802F07EF869252AE52E
S1133B90DFF8900D006802F077F86A2523E5DFF876
S1133BA0880D006802F070F86B251CE5DFF87C1DB9
S1133BB009680A20B1FBF0F202EB8205DFF89804F1
S1133BC0A1EB45053035C5700A23B2FBF3F303EBD3
S1133BD083052E26A2EB450286703032427064269D
S1133BE0B1FBF6F10A22B1FBF2F202EB8203A1EB84
S1133BF04301303101700020A0756C25F3E4DFF837
S1133C00300D006802F040F85E25ECE4DFF8241D76
S1133C1009680A20B1FBF0F202EB82033032DFF8CC
S1133C20380442706422A1EB4303B1FBF2F1303358
S1133C302E253031C370857001700020A0756D256C
S1133C40D1E4DFF8F41C09680A20B1FBF0F202EBBE
S1133C5082033032DFF8000442706422A1EB430394
S1133C60B1FBF2F130332E253031C3708570017011
S1133C700020A0756E25B6E4DFF8C00C006802F0E1
S1133C8003F86F25AFE4DFF8B80C006801F0FCFF1F
S1133C907025A8E4DFF8AC0C006801F0F5FF71258D
S1133CA0A1E4DFF8201E09680A20B1FBF0F202EB60
S1133CB08205E948A1EB45053035C5700A23B2FBFE
S1133CC0F3F303EB8305A2EB4502303282706423E5
S1133CD0B1FBF3F12E223031427001700020A07547
S1133CE0722580E4DFF8E01D09680A20B1FBF0F2D8
S1133CF002EB8205D848A1EB45053035C5700A238F
S1133D00B2FBF3F303EB8305A2EB4502303282707E
S1133D102E2364254370B1FBF5F10A22B1FBF2F2C4
S1133D2002EB8203A1EB4301303101700020A07546
S1133D30732558E4DFF8941D09680A20B1FBF0F2FA
S1133D4002EB8205C448A1EB45053035C5700A2352
S1133D50B2FBF3F303EB83052E26A2EB4502867038
S1133D60303242706426B1FBF6F10A22B1FBF2F262
S1133D7002EB8203A1EB4301303101700020A075F6
S1133D80742530E4DFF8481D09680A20B1FBF0F21D
S1133D9002EB8205B048A1EB45053035C5700A2316
S1133DA0B2FBF3F303EB83052E26A2EB45028670E8
S1133DB0303242706426B1FBF6F10A22B1FBF2F212
S1133DC002EB8203A1EB4301303101700020A075A6
S1133DD07525FFF708BCDFF8FC1C09680A20B1FB55
S1133DE0F0F202EB82059C48A1EB45053035C57025
S1133DF00A23B2FBF3F303EB8305A2EB4502303253
S1133E0082702E2364254370B1FBF5F10A22B1FBC5
S1133E10F2F202EB8203A1EB430130310170002086
S1133E20A0757625FFF7DFBBDFF8AC0C806801F0E6
S1133E302BFF7725FFF7D7BB7825FFF7D4BBDFF837
S1133E409C1C087800287FF4EDACFFF7DFBBDFF89B
S1133E50901C09680A20B1FBF0F202EB82057E484F
S1133E60A1EB45053035C5700A23B2FBF3F303EB30
S1133E708305A2EB4502303282702E236425437001
S1133E80B1FBF5F10A22B1FBF2F202EB8203A1EBE2
S1133E904301303101700020A0757E25FFF7A3BBDC
S1133EA0DFF8401C09680A20B1FBF0F202EB82053E
S1133EB06948A1EB45053035C5700A23B2FBF3F31D
S1133EC003EB8305A2EB4502303282702E23642576
S1133ED04370B1FBF5F10A22B1FBF2F202EB82036B
S1133EE0A1EB4301303101700020A0757F25FFF75D
S1133EF07ABBDFF8F41B09680A20B1FBF0F202EB8D
S1133F0082055548A1EB45053035C5700A23B2FB3F
S1133F10F3F303EB8305A2EB4502303282702E23C8
S1133F2064254370B1FBF5F10A22B1FBF2F202EB16
S1133F308203A1EB4301303101700020A07580257C
S1133F40FFF751BBDFF8B41D09680A20B1FBF0F29A
S1133F5002EB82054048A1EB45053035C5700A23C4
S1133F60B2FBF3F303EB8305A2EB4502303282701C
S1133F702E2364254370B1FBF5F10A22B1FBF2F262
S1133F8002EB8203A1EB4301303101700020A075E4
S1133F908125FFF728BBDFF8680D006801F074FE87
S1133FA08225FFF720BBDFF85C0D006801F06CFE92
S1133FB08325FFF718BBDFF8500D006801F064FE9D
S1133FC08425FFF710BBDFF8440D006801F05CFEA8
S1133FD08525FFF708BBDFF8380D006801F054FEB3
S1133FE08625FFF700BBDFF82C1D087800287FF436
S1133FF01BACFFF709BBDFF8200D006801F044FE9D
S11340000120A0758825FFF7EEBADFF8100D0068CF
S113401001F03AFE0120A0758925FFF7E4BADFF824
S1134020000D006801F030FE0120A0758A25FFF71D
S1134030DABADFF8F00C007801F026FE8B25FFF7E2
S1134040D2BADFF8E40C007801F01EFE8C25FFF7ED
S1134050CABA00BFDCFEFF1F00FFFF1FC48C0100B3
S113406050FDFF1F1CE8FF1F20E8FF1FA07D032851
S1134070C1F24681DFF8B45C01F0ECFD41F2893114
S11340808842286013D2DFF8A828DFF8A41C106047
S11340900860022240F2191002F045FE1422DFF8F3
S11340A0941C204602F012F801F054FCFEE48D2525
S11340B0FFF799BAA07D0328C1F22281DFF86C5C76
S11340C001F0C8FD811E1C29286013D8DFF8682C74
S11340D0DFF85C1C1060086001224FF4817002F06C
S11340E022FE1422DFF84C1C204601F0EFFF01F001
S11340F031FCDBE48E25FFF776BAA07D0328C1F2FC
S1134100FF80DFF8285C01F0A5FDA0F10A0140F270
S1134110EB129142286013D2DFF8203CDFF8101C28
S113412018600860022240F2031002F0FCFD142221
S1134130DFF8001C204601F0C9FF01F00BFCB5E4D8
S11341408F25FFF750BAA07D0328C1F2D980DFF88C
S1134150DC5B01F07FFDA0F10A0140F2EB12914219
S1134160286013D2DFF89837DFF8C41B18600860A2
S1134170022240F2051002F0D6FD1422DFF8B41B2F
S1134180204601F0A3FF01F0E5FB8FE49025FFF743
S11341902ABAA07D0328C1F2B380DFF8905B01F056
S11341A059FD40F2F5118842286013D2DFF85427F4
S11341B0DFF87C1B10600860022240F2071002F056
S11341C0B2FD1422DFF86C1B204601F07FFF01F0E2
S11341D0C1FB6BE49125FFF706BAA07D0328C1F269
S11341E08F80DFF8485B01F035FD2860A8B1C8284E
S11341F013D8DFF8141708600222DFF8341B0860B4
S113420040F2091002F08FFD1422DFF8281B20462B
S113421001F05CFF01F09EFB48E49225FFF7E3B94F
S1134220A07D0328C1F26C80DFF8005B01F012FD71
S11342302860A8B1C82813D8DFF8D0160860022275
S1134240DFF8EC1A086040F20B1002F06CFD142247
S1134250DFF8E01A204601F039FF01F07BFB25E48A
S11342609325FFF7C0B9A07D0328C1F24980DFF888
S1134270BC5A01F0EFFC2860B0B1C82814D8DFF8AC
S1134280901608600222DFF8A81A086040F20D10A8
S113429002F049FD1422DFF89C1A204601F016FFB3
S11342A001F058FBFFF702BC9425FFF79CB9A07DF1
S11342B00328C1F22580DFF8745A01F0CBFCA0F585
S11342C0967141F6F5229142286014D2DFF8443603
S11342D0DFF85C1A18600860022240F20F1002F046
S11342E022FD1422DFF84C1A204601F0EFFE01F003
S11342F031FBFFF7DBBB9525FFF775B9A07D0328DC
S1134300C0F2FE87DFF8245A01F0A4FC2860B0B1A3
S1134310142814D8DFF8001608600122DFF8101AF8
S1134320086040F2111002F0FEFC1422DFF8041AB7
S1134330204601F0CBFE01F00DFBFFF7B7BB96253D
S1134340FFF751B9A07D0328C0F2DA87DFF8DC5902
S113435001F080FC2860B0B13C2814D8DFF8BC150B
S113436008600122DFF8C81908604FF4897002F070
S1134370DAFC1422DFF8BC19204601F0A7FE01F094
S1134380E9FAFFF793BB9725FFF72DB9A07D032822
S1134390C0F2B687DFF8945901F05CFCA0F1320159
S11343A040F6DF529142286014D2DFF87435DFF80A
S11343B0801918600860022240F2131002F0B3FC66
S11343C01422DFF87019204601F080FE01F0C2FAD1
S11343D0FFF76CBB9825FFF706B9A07D0328C0F250
S11343E08F87DFF8485901F035FCA0F10A01322922
S11343F0286014D8DFF82C25DFF834191060086021
S1134400012240F2151002F08EFC1422DFF8241968
S1134410204601F05BFE01F09DFAFFF747BB9925AA
S1134420FFF7E1B8A07D0328C0F26A87DFF8FC58E3
S113443001F010FCA0F11E0140F6F35291422860F5
S113444014D2DFF8E434DFF8E818186008600222B8
S11344504FF48B7002F067FC1422DFF8D818204662
S113446001F034FE01F076FAFFF720BB9A25FFF73E
S1134470BAB8A07D032807DA401CC2B2022A08BFDA
S11344800320A075FFF7AFB8DFF8780D0278303A53
S113449002EB82014278C078303A02EB410202EB2F
S11344A08201303800EB4100DFF88018642808608E
S11344B014D8DFF87824DFF8781810600860012237
S11344C04FF48C7002F02FFC1422DFF86818204699
S11344D001F0FCFD01F03EFAFFF7E8BA9B25FFF777
S11344E082B8A07D0328C7DBDFF8180D0278303AC4
S11344F002EB82014278C078303A02EB410202EBCF
S11345008201303800EB4100DFF82018642808608D
S113451014D8DFF82024DFF818181060086001228E
S113452040F21B1002F0FFFB1422DFF808182046AB
S113453001F0CCFD01F00EFAFFF7B8BA9C25FFF7A5
S113454052B8A07D032897DBDFF8B80C0278303A24
S113455002EB82014278C078303A02EB410202EB6E
S11345608201303800EB4100DFF8C017642808608E
S113457014D8DFF8C423DFF8B817106008600122EC
S11345804FF48E7002F0CFFB1422DFF8A8172046F8
S113459001F09CFD01F0DEF9FFF788BA9D25FFF7D5
S11345A022B8A07D0328C0F2AB86DFF8805701F063
S11345B051FB40F2D1718842286013D2DF4ADFF800
S11345C0701710600860022240F21D1002F0ABFB6D
S11345D01422DFF86017204601F078FD01F0BAF9E3
S11345E0FFF764BA9E25FEF7FEBFA07D0328C0F244
S11345F08786DFF8385701F02DFBA0F11401282934
S1134600286013D8CE4ADFF828171060086001220A
S113461040F21F1002F087FB1422DFF8181720461F
S113462001F054FD01F096F9FFF740BA9F25FEF71B
S1134630DABFA07D0328C0F26386DFF8F05601F0EC
S113464009FB411FB1F51C6F286013D2BD4ADFF886
S1134650E0161060086002224FF4907002F063FBD1
S11346601422DFF8D016204601F030FD01F072F973
S1134670FFF71CBAA025FEF7B6BFA07D032806DA13
S1134680401CC2B2012A7FF4FCAE0220F9E6DFF836
S1134690740B0278303A02EB82018278C078303AA7
S11346A002EB410202EB8201303800EB4100DFF8FB
S11346B07C16A0F11902B02A086014D2DFF80414A1
S11346C008600222DFF86816086040F2231002F046
S11346D02AFB1422DFF85C16204601F0F7FC01F0F7
S11346E039F9FFF7E3B9A125FEF77DBFA07D0328C3
S11346F0C6DBDFF8100B0278303A02EB82018278D5
S1134700C078303A02EB410202EB8201303800EB10
S11347104100DFF81816B0F57A7F086014D2DFF88C
S1134720A823DFF80C1610600860022240F225105E
S113473002F0F9FA1422DFF8FC15204601F0C6FC59
S113474001F008F9FFF7B2B9A225FEF74CBFA07D2E
S11347500328FFF691AEDFF8AC0A0278303A02EB98
S113476082014278C078303A02EB410202EB8201C6
S1134770303800EB4100DFF8B4157928086013D213
S1134780D24ADFF8AC1510600860022240F22B1008
S113479002F0C9FA1422DFF89C15204601F096FCB9
S11347A001F0D8F8FFF782B9A325FEF71CBFA07D5E
S11347B00328FFF661AEDFF84C0A0278303A02EBC8
S11347C082014278C078303A02EB410202EB820166
S11347D0303800EB4100DFF854157928086013D213
S11347E0BB4ADFF84C1510600860022240F22D101D
S11347F002F099FA1422DFF83C15204601F066FC19
S113480001F0A8F8FFF752B9A425FEF7ECBEA07D8D
S11348100328FFF635AFDFF8EC090278303A02EBF3
S113482082018278C078303A02EB410202EB8201C5
S1134830303800EB4100DFF8F414A0F13202962A7C
S1134840086013D8A34908600222DFF8E414086062
S113485040F2311002F067FA1422DFF8D81420462F
S113486001F034FC01F076F8FFF720B9A525FEF736
S1134870BABEA07D0328C0F24385DFF8B05401F02E
S1134880E9F9A0F10A0140F2C7729142286013D2FB
S1134890914BDFF89C1498600860022240F23710B4
S11348A002F041FA1422DFF88C14204601F00EFCC9
S11348B001F050F8FFF7FAB8A625FEF794BE1422CB
S11348C0DFF8F81BDFF8F80B01F000FC1422DFF826
S11348D0F41B204601F0FAFB01F03CF802F040FD25
S11348E01422DFF8E41B204601F0F0FB01F032F85B
S11348F004F046FD022005F008F84C25FEF773BECF
S113490024E8FF1F680000202CE8FF1F30E8FF1F89
S113491034E8FF1F38E8FF1F3CE8FF1F40E8FF1F93
S113492058E8FF1F5CE8FF1F60E8FF1F4CE8FF1F0B
S113493050E8FF1F0CE8FF1F10E8FF1F28E8FF1FC7
S113494018E8FF1F54E8FF1F64490A7040F2391049
S1134950DFF8DC130A70012202F0E5F91422DFF813
S11349606C1B204601F0B2FB00F0F4FF012004F0C0
S1134970CCFFFFF79BB85949012008700122DFF8EA
S1134980B0130A7040F2391002F0CDF91422DFF8A6
S11349903C1B204601F09AFB00F0DCFF012004F0F0
S11349A0B4FFFFF783B8A07D0328FFF669AEDFF8F4
S11349B05408DFF878330278303A02EB82018278C7
S11349C0C078303A02EB410202EB8201303840F207
S11349D01D2200EB4100A0F132019142186011D276
S11349E03F4BD3491860086002224FF4A07002F0D4
S11349F09AF91422CF49204601F068FB00F0AAFF7F
S1134A00FFF754B8A725FEF7EEBDA07D0328FFF6F7
S1134A1037AEDFF8F007C54B0278303A02EB82017B
S1134A208278C078303A02EB410202EB82013038DE
S1134A3040F21D2200EB4100A0F1320191421860C6
S1134A4011D2284BBA491860086002224FF4A170B1
S1134A5002F069F91422B749204601F037FB00F04F
S1134A6079FFFFF723B8A825FEF7BDBDA07D032875
S1134A70FFF606AEDFF88C070278303A02EB8201CB
S1134A808278C078303A02EB410202EB820130387E
S1134A9000EB4100A54940F24F229042086025D224
S1134AA0114BA3491860086002224FF4A27002F06F
S1134AB03AF914229F49204601F008FB00F04AFF0E
S1134AC0FEF7F4BF64E8FF1F68E8FF1F9C000020A6
S1134AD0A0000020A400002024E0FF1F7FE8FF1FA7
S1134AE07C0000208000002084000020A925FEF71F
S1134AF07ABDA07D0328FFF6C3ADDFF808078B4B12
S1134B000278303A02EB82018278C078303A02EBC4
S1134B10410202EB8201303840F21D2200EB4100D9
S1134B20A0F132019142186011D2744B804918608F
S1134B30086002224FF4A37002F0F5F814227D49B4
S1134B40204601F0C3FA00F005FFFEF7AFBFAA2527
S1134B50FEF749BDA07D0328C0F2D283734D01F056
S1134B6079F842F210718842286011D2644A70497F
S1134B701060086002224FF4A47002F0D4F81422EA
S1134B806C49204601F0A2FA00F0E4FEFEF78EBF65
S1134B90AB25FEF728BDA07D0328C0F2B183634D89
S1134BA001F058F842F210718842286011D2554A37
S1134BB05F491060086002224FF4A57002F0B3F858
S1134BC014225C49204601F081FA00F0C3FEFEF78E
S1134BD06DBFAC25FEF707BDA07D0328C0F290830E
S1134BE0524D01F037F8A0F1320140F2B732914250
S1134BF0286011D2444B4E4918600860022240F2EA
S1134C004D1002F090F814224A49204601F05EFA51
S1134C1000F0A0FEFEF74ABFAD25FEF7E4BCA07D80
S1134C200328C0F26D83414D01F014F840F63811A9
S1134C308842286011D2354A3D491060086002223A
S1134C4040F24F1002F06FF814223A49204601F066
S1134C503DFA00F07FFEFEF729BFAE25FEF7C3BC88
S1134C60A07D0328C0F24C83304D00F0F3FF411FB8
S1134C701A29286011D2264A2D49106008600122A1
S1134C8040F2511002F04FF814222A49204601F054
S1134C901DFA00F05FFEFEF709BFAF25FEF7A3BCC7
S1134CA01C490A704FF4D27021490A70012202F0A3
S1134CB03AF81422DFF81418204601F007FA00F03D
S1134CC049FE012004F021FEFEF7F0BE1149012047
S1134CD00870012216490A704FF4D27002F023F8CA
S1134CE01422DFF8E817204601F0F0F900F032FE54
S1134CF0012004F00AFEFEF7D9BE00BF88000020A0
S1134D0044E8FF1F48E8FF1F8C00002090000020AB
S1134D10940000201D0100206CE8FF1F70E8FF1FB5
S1134D2074E8FF1F1B0100201A0100202C00002042
S1134D30D8FFFF1FCC8C01001CE8FF1F20E8FF1FD9
S1134D40A07D0328C0F2DC82DFF8545D00F082FF0E
S1134D50A0F10A016E29286014D8DFF8F42BDFF8DB
S1134D603C1E10600860022240F2A51001F0DBFF37
S1134D701422DFF8301D204601F0A8F900F0EAFD06
S1134D80FEF794BEB125FEF72EBCA07D0328C0F229
S1134D90B782DFF80C5D00F05DFFA0F10A016E2917
S1134DA0286014D8DFF8002DDFF8F01D10600860CB
S1134DB0022240F2A71001F0B6FF1422DFF8E41C2F
S1134DC0204601F083F900F0C5FDFEF76FBEB22561
S1134DD0FEF709BCA07D0328C0F29282DFF8C05C14
S1134DE000F038FFA0F10A016E29286014D8DFF81A
S1134DF0BC2CDFF8A81D10600860022240F2A91044
S1134E0001F091FF1422DFF89C1C204601F05EF9AA
S1134E1000F0A0FDFEF74ABEB325FEF7E4BBA07D7B
S1134E200328C0F26D82DFF8785C00F013FF28607D
S1134E30C0B140F2F511884214D2DFF8742CDFF8C7
S1134E405C1D1070086001224FF4CE7001F06BFFFE
S1134E501422DFF8501C204601F038F900F07AFDE6
S1134E60FEF724BEB425FEF7BEBBA07D0328C0F226
S1134E704782DFF82C5C00F0EDFE2860C0B140F200
S1134E80F511884214D2DFF82C2CDFF8101D1070B5
S1134E900860012240F29D1001F045FF1422DFF862
S1134EA0041C204601F012F900F054FDFEF7FEBD8B
S1134EB0B525FEF798BB2925FEF795BB02F005FA48
S1134EC0FEF7F4BD84B0DFF8D81C68462C2201F04C
S1134ED0FDF80FBC04F0B9FDDFF8C86CDFF8C85C5E
S1134EE03268DFF8C86C002380185941C5E9000115
S1134EF0284604F04DFE306001460A2348698A685A
S1134F006438486192FBF3F30869401C086130334C
S1134F10BC4803700A238A6892FBF3F303EB83050E
S1134F20A2EB4502303242700A234A6892FBF3F343
S1134F30303383700A22496891FBF2F202EB820358
S1134F40A1EB43013031C1700020A075B725FEF7F5
S1134F504ABB84B0DFF8481C68462C2201F0B6F83E
S1134F600FBC04F072FDDFF83C6CDFF83C5C326887
S1134F70DFF8386C002380185941C5E90001284640
S1134F8004F006FE014630600A234A690869643A5F
S1134F90401C4A61086192FBF3F29A483032027075
S1134FA04A6992FBF3F303EB8305A2EB450230322B
S1134FB042700A230A6992FBF3F3303383700A23A5
S1134FC00A6992FBF3F303EB8305A2EB450230324B
S1134FD0C2700A23CA6892FBF3F3303303710A22C6
S1134FE0C96891FBF2F202EB8203A1EB4301303179
S1134FF041710020A075B825FEF7F5BABB25FEF770
S1135000F2BADFF87C5CDFF8B8041422294601F018
S11350105DF814222946204601F058F8CBA0DFF8A9
S1135020641C02780A700120A0767F22642100208B
S113503022776176A075BC25FEF7D5BABF25FEF7A9
S1135040D2BADFF83C5CDFF878041422294601F078
S11350503DF814222946204601F038F8BBA0DFF8B9
S1135060241C02780A700120A0767F22642100208B
S113507022776176A075C025FEF7B5BADFF86C1CFF
S1135080CF200870C1256277FEF7ADBAC425FEF7BC
S1135090AABA217FA07D7F292DD1012819D1DFF85B
S11350A0E06BDFF81C041422314601F00FF81422DF
S11350B03146204601F00AF8A4A0DFF8C81B0278A4
S11350C00A70642001220021A2766076A175FEF7A1
S11350D08ABA00283EF4EAAC20202077FBF760F877
S11350E0A07D484A401EA0750021C0B211547F2003
S11350F02077FEF7DBBC434B19547F21202821770E
S1135100BEF671AA401CA075C0B21A54FEF76BBA61
S1135110A07D0328C0F2F4803A480178303901EBCD
S113512081024178303901EB4201182921D20A4623
S11351308178303901EB8103C178303901EB4301C7
S11351403B2914D8DFF8A80BDFF8586ADFF8A47BF2
S1135150C261002381614361336001233B70DFF846
S1135160980B0260DFF838291160FEF73CBAC525B8
S1135170F5E7C525F6E7A07D052840F3C180214E5B
S1135180DFF81C7931787278303901EB8100303ADC
S113519002EB4002102A3A6036D9B078F378757978
S11351A000EB8001307903EB4103A3F1100100EB24
S11351B0800305EB4305A5F11000D2B2C9B2C0B219
S11351C000F0E4FD256A01281ED1DFF8240B3A68BB
S11351D08262B178F37801EB810203EB4203A3F519
S11351E0047343623179737901EB810203EB420367
S11351F0A3F5047303620120DFF8001B0870FEF7B7
S1135200F2B900BF00FFFF1FC625FEF7ECB9CA259F
S1135210FEF7E9B9CB25FEF7E6B9DFF8E41A098809
S1135220C80746BF4FF6FE70014041F00101DFF8A8
S1135230D02A1180FEF7D7B9DFF8C41A0988880785
S113524058BF41F00201F2D508464FF6FD71014006
S1135250EDE7DFF8AC1A0988480758BF41F00401AC
S1135260E5D508464FF6FB71F1E7DFF8941A098893
S1135270080758BF41F00801D9D508464FF6F77121
S1135280E5E7DFF87C1A0988C80658BF41F0100129
S1135290CDD508464FF6EF71D9E7DFF8641A0988CF
S11352A0880658BF41F02001C1D508464FF6DF718A
S11352B0CDE7DFF84C1A0988480658BF41F0400191
S11352C0B5D508464FF6BF71C1E7DFF8341A09882F
S11352D0080658BF41F08001A9D508464FF67F71F2
S11352E0B5E7DFF81C1A0988C80558BF41F4807176
S11352F09DD508464FF6FF61A9E7A07D032803DA90
S1135300A07D401CFFF7BDB8DFF8945700F0A2FC65
S1135310642828603FF65BADDFF8E859DFF87C18B5
S113532028600860022240F2AB1001F0FCFC142259
S1135330DFF87017204600F0C9FE2968C9B20520BD
S113534004F05CFC00F006FBFEF7B0BB00000000BC
S1135350DFF8B409017801297EF4A8AB06220270B3
S11353600020DFF8A819DFF8A859DFF8A869086059
S11353700021042003F0D8FE0021002003F0D4FE15
S11353800021012003F0D0FE0021122003F0CCFE06
S11353900020287001272878327807FA00F10A40A3
S11353A0002A07DC2878401C2870C0B20828F2DBE9
S11353B0FEF77CBB08300021C0B203F0B5FEF1E774
S11353C001F092FFFEF772BB1125FEF70CB9002124
S11353D0002003F0A9FEFEF769BB0021012003F0C1
S11353E0A3FEFEF763BB0021022003F09DFE256AA5
S11353F0DFF8241900200860FEF7F5B80021032027
S113540003F092FEFEF752BB0021042003F08CFE51
S1135410FEF74CBB0021052003F086FEFEF746BBD9
S11354200021062003F080FEDFF8F0180020086059
S113543003F0A6FFFEF73ABB0021082003F074FE38
S1135440FEF734BB0021092003F06EFEFEF72EBBED
S113545000210A2003F068FEFEF728BB00210B2080
S113546003F062FEFEF722BB00210C2003F05CFE79
S1135470FEF71CBB00210D2003F056FEFEF716BB01
S113548000210E2003F050FEFEF710BB00210F2078
S113549003F04AFEFEF70ABBDC25FEF7A4B8DFF8EA
S11354A0FC1601200870DD25FEF79DB8DFF8EC1628
S11354B001200870DE25FEF796B800BFE08C0100DD
S11354C060FFFF1FF48C0100088D01001C8D01009A
S11354D0DF25FEF788B8E025FEF785B8401EE728EB
S11354E03EF681A8DFE810F0FD00FD00FD00FD00A0
S11354F0FD001602190219021902190219021902F1
S113550019021902190219021C021C021C021C02B3
S11355101C021C021C021C021C021C021C021C0297
S11355201C021C021C021C021C021C021C021C0287
S1135530FD00FD00FD0009020C020C020902090233
S113554009020902090209020902EC00EC00EC005C
S1135550EC00EC00EC00EC00EC00EC00EC00EC00E7
S1135560EC00EC00EC00EC00EC00EC00EC00EC00D7
S1135570EC00EC00EC00EC00EC00EC00EC00EC00C7
S1135580EC00E800EC00EC00EC00EC00EC00EC00BB
S1135590EC00EC00EC00EC00EC00EC00EC00EC00A7
S11355A0EC002A0100010301060109010C010F01AD
S11355B01201150118011B011E01210124012701FB
S11355C02D0130013301360139013C013F01420113
S11355D0450148014B01EA004E015B01E800E80087
S11355E0E80069016C016F017201750178017B01AA
S11355F07E018101840187018A018D01900193015B
S11356002A0100010301060109010C010F01120125
S1135610150118011B011E012101240127012D017F
S113562030013301360139013C013F01420145019A
S113563048014B0169016C016F0172017501780128
S11356407B017E018101840187018A018D01900122
S113565093011302960199019C019C01A201A501E9
S11356609F019F01C901CC01F001F001F001F30198
S1135670FA01FD0100020002000203020602060212
S113568006020602060206020602060206020602D6
S1135690E800E8001F021F021F021F021F0222026D
S11356A0250229022D023002EE00EE00EE00EE008B
S11356B0F100F400F700FA00FDF795BFFFF71DB9FC
S11356C0FDF7A8BF0125FDF78EBFE125FDF78BBFD0
S11356D0E225FDF788BFE325FDF785BFE425FDF747
S11356E082BF0025FDF77FBF3325FDF77CBF34253E
S11356F0FDF779BF3525FDF776BF3625FDF773BF76
S11357003725FDF770BF3825FDF76DBF3925FDF747
S11357106ABF3A25FDF767BF3B25FDF764BF3C250B
S1135720FDF761BF3D25FDF75EBF3E25FDF75BBF7D
S11357303F25FDF758BF4025FDF755BF3225FDF73E
S113574052BF4125FDF74FBF4225FDF74CBF43250E
S1135750FDF749BF4425FDF746BF4525FDF743BF87
S11357604625FDF740BF4725FDF73DBF4825FDF71A
S11357703ABF4925FDF737BF4A25FDF734BF4B250E
S1135780FDF731BFDFF898150A7040F23910DFF8E1
S11357900C140A70012201F0C6FAFEF747B8DFF8CC
S11357A08015012008700122DFF8F0130A7040F21E
S11357B0391001F0B8FAFEF739B84F25FDF713BFD9
S11357C05025FDF710BF5125FDF70DBF5225FDF7FC
S11357D00ABF5325FDF707BF5425FDF704BF552520
S11357E0FDF701BF5625FDF7FEBE5725FDF7FBBEAD
S11357F05825FDF7F8BE5925FDF7F5BE5A25FDF7E6
S1135800F2BE5B25FDF7EFBE5C25FDF7ECBE5D2522
S1135810FDF7E9BE2C25FDF7E6BE2D25FDF7E3BE19
S11358202E25FDF7E0BE2F25FDF7DDBEB925FDF7DA
S1135830DABEDFF8F0542946202000F0F9FA2022DD
S1135840294640F2FD2001F06EFA2E202062142237
S1135850DFF8D414DFF8D40400F038FC1422DFF8A5
S1135860D014204600F032FC0020A07600F072F83C
S1135870032004F04AF8FEF719B9BD25FDF7B3BEBD
S1135880DFF8A0542946202000F0D2FA202229462D
S113589040F21D3001F047FA2F2020621422DFF875
S11358A09414DFF8880400F011FC1422DFF880144B
S11358B0204600F00BFC0020A07600F04BF80320FB
S11358C004F023F8FEF7F2B83025FDF78CBEDFF8BC
S11358D030144FF6FF700880FDF7C0BFA275FFF7C4
S11358E035BBA275FFF787BB2725FDF77CBEC7250F
S11358F0FDF779BEC825FDF776BE0325FDF773BE17
S1135900DFF8FC134FF6FF700880FEF7DBB82B2599
S1135910FDF769BE0725FDF766BE0625FDF763BEE4
S11359201025FDF760BEC925FDF75DBED725FDF73F
S11359305ABE9A490A70FDF77BBF98490A70FDF771
S113594079BFDA25FDF74FBEDB25FDF74CBE00001D
S11359506CE8FF1FFEB5DFF8E073CA4C3879DFF856
S1135960DC53DFF8C86302280CD11422DFF8D0130B
S1135970304600F0ABFB1422DFF8C813284600F0D1
S1135980A5FB11E001280FD11422DFF8BC13304627
S113599000F09CFB3A68DFF8B413204600F0F6FBF5
S11359A02946204600F08CFA7B2000F02AF90020DA
S11359B02875A7A7DFF8980300F032F9304600F005
S11359C02FF9384600F02CF9284600F029F938461A
S11359D000F026F9DFF87C0300F022F9687E6421E8
S11359E090FBF1F03030C0B200F00BF9687E0A236E
S11359F090FBF3F00A2190FBF1F101EB8102A0EBA3
S1135A0042003030C0B200F0FCF8687E0A2190FBFE
S1135A10F1F101EB8102A0EB42003030C0B200F0A2
S1135A20F0F8A87E01280CBF4120492000F0E9F8D5
S1135A30C94800F0F5F82A7D90A1204600F0A6FBA5
S1135A40204600F0EDF8287E012810D1A87E012818
S1135A500CBF4120492001902B46687EBF4900902D
S1135A603246204600F092FB204600F0F8FA287EE9
S1135A70022813D1A87E01280CBF4120492001909F
S1135A802B46687EB64900903246204600F07EFBE5
S1135A90204603B0BDE8F04004F07FB903B0F0BD88
S1135AA02C000020CC8C010070E8FF1F74E8FF1F5D
S1135AB01B0100201A010020F0B4AA49087810F054
S1135AC0E00F09D0087840F080000870B1F80310A6
S1135AD0A5480170F0BC70470A78500726D5A24A41
S1135AE0B1F80330954C1370E07EF8B913787B2B32
S1135AF002D07D2B2ED03EE090789C4CC0B900257E
S1135B00257001249470D070507801280ED10A7841
S1135B109007FCD51846A1F803008848017D5B185E
S1135B2003754FF4FA70F0BC03F0EEBEF0BC70479E
S1135B30D07806466427642596FBF7F705FB1766BD
S1135B407B27A755401CC0B2642490FBF4F405FBEA
S1135B501400D8E790780128D6D1D578834F6426ED
S1135B6095FBF6F6642000FB1655002078550125B8
S1135B70E5769070C8E7D07805466426642495FBE2
S1135B80F6F604FB1655794F7B55401CC0B26425CC
S1135B9090FBF5F504FB1500B5E70000D8FFFF1FE7
S1135BA060FDFF1FA8FFFF1FC0FFFF1FA0FFFF1F17
S1135BB06F48016841F00601016080216D48026868
S1135BC042F04002026001226B48417002700023DF
S1135BD0437100210171AD22828180214378674A9B
S1135BE043F00303437011608023DFF894C1CCF8C1
S1135BF000302021634A1170437843F0100343704E
S1135C00704758490A789307FCD50246A1F8032047
S1135C104A490A7D801808754FF4FA7003F074BE7F
S1135C2038B504464F4D0EE029788A07FCD5014665
S1135C30A5F80310641C41490A7D801808754FF4C7
S1135C40FA70C046C04620780028EDD131BD00006E
S1135C500D0A000033480378427803EB830102EB1A
S1135C6041028178C07802EB820301EB430101EB2E
S1135C70810200EB420044490818704725647D0006
S1135C80308D010060F9FF1F30B40A21B0FBF1F13F
S1135C9001EB8104234AA0EB44043034D4700A237A
S1135CA0B1FBF3F303EB8304A1EB440130319170B6
S1135CB00A236421B0FBF1F1B1FBF3F303EB83049A
S1135CC0A1EB4401303151704FF47A75B0FBF5F01B
