S0390000736B2D666D332D3438706D632D757362737469636B5F7573625F6465766963655F7669727475616C5F636F6D5F706F72742E73726563CC
S113000080E3FF1F29100000451000004910000084
S11300104D100000511000005510000000000000B9
S11300200000000000000000000000005910000063
S11300305D10000000000000611000006510000069
S1130040691000006D1000007110000075100000B0
S1130050791000007D100000811000008510000060
S1130060891000008D10000091100000DD100000C8
S1130070DD1000009510000099100000DD10000054
S1130080DD1000009D100000A1100000DD10000034
S1130090DD100000DD100000DD100000A5100000E0
S11300A0A9100000AD100000B1100000DD10000028
S11300B0B5100000B9100000BD100000C110000010
S11300C0DD100000DD100000C5100000C9100000A4
S11300D0DD100000DD100000CD100000D110000084
S11300E0D5100000D9100000DD100000DD10000064
S11300F0DD100000DD100000DD100000DD10000048
S1130100DFF8D004016821F480410160DFF8C814ED
S11301100A6842F480420A60DFF8C0140A6822F4D4
S113012080420A60026822F480520260DFF8A02450
S1130130136843F4805313600B6843F480530B60DB
S1130140036823F400530360136843F400531360FB
S11301500B6843F400530B60036823F4806303606B
S1130160136843F4806313600B6843F480630B608B
S1130170036823F400630360136843F400631360AB
S11301800B6843F400630B60036823F4007303609B
S1130190106840F400701060086840F40070086053
S11301A0106840F400601060106840F40070106043
S11301B070472DE9F041044600250826DFF8208425
S11301C0DFF80C74386820F4805038603868C00454
S11301D0FCD4200638684CBF40F4005020F4005092
S11301E0386064001420C046C046D8F800006D0092
S11301F0400448BF45F00105386840F48050386039
S11302003868C004FCD54620C046C046761ED9D105
S1130210E8B2BDE8F0812DE9F04104464FF40470E2
S11302200D46B4FBF0F716465321384600F06AF940
S113023030194FF40471B0FBF1F8474503D0552150
S1130240404600F05FF933462A462146012000F07B
S113025074F83946832000F037F9474504D0414605
S1130260BDE8F04186202FE1BDE8F081F8B5D84F14
S11302700446386820F4806038600D461646322003
S1130280C046C0462046FFF794FF36B1FF20FFF773
S113029090FF761E05F8010BF8D1386840F48060B1
S11302A038604FF4FA70BDE8F24000F09BB92DE9D4
S11302B0F04182B004468846164601226946D7209A
S11302C0FFF7D4FF9DF800000006F6D5C04F38684C
S11302D020F4806038603220C046C0460B20FFF70F
S11302E068FF4FF40470B4FBF0F5A804000EFFF7A8
S11302F060FF05EB4510A4EB0010000A40EA8500FE
S1130300C0B2FFF756FFA4EB0510C0B2FFF751FFD0
S1130310FF20FFF74EFF36B1FF20FFF74AFF761E9E
S113032008F8010BF8D1386840F4806038604FF465
S1130330FA70C046C046BDE8F3812DE9F14F9046FE
S113034000284FF40470B1FBF0F000EB4012994622
S11303500CBFD4258425A1EB0216DFF884A29C4CA3
S1130360B9F1000F00F09780206820F480602060CD
S11303703220C046C046D720FFF71BFFFF20FFF7FF
S113038018FF0746206840F4806020604FF4FA703C
S1130390C046C0463806E7D5206820F48060206057
S11303A03220C046C0462846FFF703FFFF20FFF770
S11303B000FF3004000EFFF7FCFEF0B2FFF7F9FE79
S11303C0D42D12BFD62DFF20FFF7F3FE009868BB93
S11303D0FF2500274FF0080B206820F48050206090
S11303E02068C004FCD4280620684CBF40F40050A8
S11303F020F4005020606D001420C046C046DAF896
S113040000007F00400448BF47F00107206840F423
S1130410805020602068C004FCD54620C046C046F9
S1130420BBF1010BD8D188F8007023E098F8005094
S11304300827206820F4805020602068C004FCD481
S1130440280620684CBF40F4005020F4005020607F
S11304506D001420C046C046DAF80000206840F45D
S1130460805020602068C004FCD54620C046C046A9
S11304707F1EDED1761C4FF40470B6FBF0F000EB67
S11304804011B6EB0110A9F1010908F101080CD0E3
S1130490B9F1000F9AD1206840F4806020604FF4D5
S11304A0FA70BDE8F24F00F09DB8206840F4806017
S11304B0206000264FF4FA70C046C0460098002819
S11304C014BF8725D6254BE770B582B004460D4688
S11304D001226946D720FFF7C9FE9DF800000006F7
S11304E0F6D53B4E306820F4806030603220C04640
S11304F0C0462046FFF75DFEA804000EFFF759FE34
S1130500A8001CE070B582B004460D46012269467D
S1130510D720FFF7ABFE9DF800000006F6D52C4E61
S1130520306820F4806030603220C046C0462846DF
S1130530FFF73FFEA004000EFFF73BFEA000C0B291
S1130540FFF737FEFF20FFF734FE306840F4806089
S113055030604FF4FA70C046C04673BD38B51C4CC9
S1130560206820F4806020604FF6DC752846C04681
S1130570C0462846C046C0462846C046C04628460F
S1130580C046C0462846C046C0462846C046C04667
S11305909F20FFF70EFEFF20FFF70BFE1F280AD156
S11305A0FF20FFF706FE262805D1FF20FFF701FEF6
S11305B008B9002500E0FF25206840F48060206031
S11305C04FF4FA70C046C046284632BD0000000011
S11305D01034034010300340103103401032034004
S11305E010330340704730B142F6310100BF491E59
S11305F0FCD1401EF8D1704770B58F4D06002868B5
S113060040F040000C4628600FD02046FFF7EBFF77
S1130610286820F0400028602046FFF7E4FF28689F
S113062040F04000761E2860EFD170BD30B585B033
S113063000F008F9824CE06820F40070E060C82102
S1130640E06820F48060E060E06820F40060E0602E
S1130650E06820F48050E060E06820F40050E0603E
S11306606068400840006060206820F0020020605C
S1130670206820F004002060606820F008006060BA
S1130680206940F0800020610120FFF7B5FF4FF49E
S11306907A70FFF7A8FFFFF761FF48B14FF480407D
S11306A0016881F30888654A106040688047FEE766
S11306B001226946FFF7FBFD9DF8000088B1C821BF
S11306C00220FFF799FF4FF47A70FFF78CFF4FF485
S11306D08040016881F30888584A10604068804768
S11306E0FEE7C8210320FFF787FF40F6B835284608
S11306F0FFF779FF00F0F8F878B9C8210420FFF774
S11307007BFF2846FFF76FFF00F0FCF8C8210520A7
S1130710FFF772FF2846FFF766FF00F0E5F80128AF
S11307207AD1C8210620FFF767FF2846FFF75BFF51
S1130730FFF714FF48B14FF48040016881F3088843
S11307403E4A106040688047FEE7C8210720FFF753
S113075053FF2846FFF747FF012269460020FFF7B1
S1130760A6FD9DF80000002846D1C8210820FFF707
S113077043FF2846FFF737FF00F0DCF878B9C820BC
S1130780FFF731FF206920F0400020614FF4FA6048
S1130790FFF729FF206940F040002061EFE7FF20C8
S11307A08DF80000012269460020FFF734FD20691E
S11307B040F0400020610A254FF47A70FFF713FFE0
S11307C0206920F0400020614FF47A70FFF70BFF9E
S11307D0206940F040006D1E2061EDD141F2883067
S11307E0FFF701FF4FF48040016881F30888134A42
S11307F0106040688047FEE7C820FFF7F4FE2069D8
S113080020F04000206141F28830FFF7ECFE2069BF
S113081040F040002061EFE74FF47A710520FFF7C4
S1130820EBFE4FF48040016881F30888034A1060AE
S113083040688047FEE700001034034008ED00E004
S11308400034034080B500F017F90948016821F02D
S1130850C00101600748016821F0C0010160064839
S1130860016841F0C0010160BDE80140FFF748BCE8
S1130870103003401034034010320340DFF800F01E
S113088005E0FF1FDFF800F0C1E0FF1F30B142F6C2
S1130890310100BF491EFCD1401EF8D17047704A97
S11308A0136843F040031360E8B141B10B4642F6CC
S11308B0310C00BFBCF1010CFBD15B1EF7D11368F6
S11308C023F04003136041B10B4642F6310C00BFE4
S11308D0BCF1010CFBD15B1EF7D1136843F040035C
S11308E0401E1360E1D170474FF4804050F8041B60
S11308F011F1010F01D000207047B0F5003FF5D38E
S11309000120704780B572B600214FF48040FFF794
S1130910B5FF002144F20400FFF7B0FF00214FF4BB
S11309200040FFF7ABFF002148F20400FFF7A6FFE9
S113093062B601BD2DE9F04F83B000208DF80800A8
S11309406426DFF82081DFF820B1484F444C20684A
S113095080F0400020600A20FFF745FE02A93846D7
S113096000F04CF9814619F1010F0FD19DF80800F0
S113097028BBB046206880F0800020606420FFF728
S113098032FEB8F10108F5D1012071E019F1060F2A
S113099004BF9DF80800002811D1206840F04000F1
S11309A0206040F6B8342046FFF770FFC8210920C4
S11309B0FFF775FF2046FFF769FF002058E00A2083
S11309C000900098704300900098411E009140B13F
S11309D00A200190019800281CBF0198401EF8D1FC
S11309E0F2E772B60025A9F5804A04E0E95BFFF757
S11309F049FFAD1CEDB29DF80800854208DADA45DE
S1130A00F7D205EB090040452CBF01220022EDE797
S1130A100A2000900098704300900098411E0091B5
S1130A2040B10A200190019800281CBF0198401E83
S1130A30F8D1F2E762B60A20009000987043009063
S1130A400098411E002800913FF481AF0A2001E084
S1130A500198401E019001980028F9D1F0E70000A8
S1130A601034034000000C2005D00F0080E3FF1F6A
S1130A7003B0BDE8F08F000010B44448444A016854
S1130A80444C1140016044490B681A400A60434ACF
S1130A90136843F41C4343F01F03136000232360D3
S1130AA044683F4B1C4044604C6823404B6040F218
S1130AB0BF34536823435360836823F00E03836079
S1130AC08B6823F00E038B60936843F00E039360EE
S1130AD0C468344B1C40C460CC682340CB60D368EA
S1130AE043F47E4343F00803D3602F4B1C6804F0A7
S1130AF0FE041C602D4B04691C4004610C692340F6
S1130B000B61136943F4FC4343F0C003136143696D
S1130B109B089B0043614B699B089B004B61536995
S1130B2043F0030353618369DB08DB0083618B6952
S1130B30DB08DB008B61936943F007039361036A6D
S1130B409B089B0003620B6A9B089B000B62116A63
S1130B5041F003011162C168C908C900C1601449A8
S1130B600B6843F007030B60D368DB08DB00D3603A
S1130B70436923F004034361886840F004008860FB
S1130B80506920F00400506110BC704700300340ED
S1130B90E063FFFF003503400034034000320340AC
S1130BA040FCFFFFF701FFFF803503403F81FFFF5B
S1130BB00C31034002780021A2F1300CBCF10A0F81
S1130BC03CBF1101C9B2A2F14103062B03D2373A4B
S1130BD001EB0211C9B24078A0F130030A2B02D212
S1130BE041183039C9B2A0F14102062A03D2401893
S1130BF0A0F13701C9B20846704700002DE9F04D55
S1130C000D4682B00026804600270024B346B24633
S1130C102E7006E06846FFF7CDFFC01B841E2C70C3
S1130C2002260020ADF8000002223648006869461A
S1130C30FFF73DFB334833490068801C08609DF88A
S1130C400000FF280AD19DF80100FF280CD10020E4
S1130C5028704FF0FF3B5846BDE8F68D0D2804BFC1
S1130C609DF801000A28F6D0F6B28EB1072E05DAF7
S1130C706846FFF79FFF50445FFA80FA072ED0D8EA
S1130C80DFE806F00605161818182633C9E7C1E789
S1130C909DF80000532805D19DF80100A0F130070C
S1130CA0FFB201260FB1042FBBDB00270026B8E7F3
S1130CB04FF0000B6846FFF77DFFB91B891CC90084
S1130CC088408344B81B801C08BF0526761CA8E70F
S1130CD0641EE4B204B907266846FFF76BFF88F880
S1130CE00000002008F8010F9BE76846FFF762FF49
S1130CF080F0FF00504594D0002028706FF005006C
S1130D00BDE8F68D00E0FF1F604E00001CB4002219
S1130D10009211B1012913D04DE04FF080421368C5
S1130D2003F0FD031360136843F001031360AA2367
S1130D301268019241F25052138040F6A82308E051
S1130D401E4A00231360AA23126801921C4A1380CE
S1130D501C4B55241C8080241480AA241480552202
S1130D601A803022028002881207FCD5009A5AB9F0
S1130D700288920644BF4FF0FF32009202881206A6
S1130D80F4D501220092F1E711B1012910D012E04B
S1130D904FF080424FF6FE711068084010601068F2
S1130DA040F00200106010680190009816BC704773
S1130DB0024A0120F6E716BC61E0000000000E20A4
S1130DC0A80A0C2054050C203CB40023009312B153
S1130DD0012A15D052E04FF080434FF6FD751C6890
S1130DE02C401C6040F6A8251C6844F001041C60DB
S1130DF0AA241B68019341F250531C80552409E036
S1130E001B4B1C4D00241C60AA241B6801931A4B25
S1130E101C8055242C8001F08005A0241C800180B6
S1130E204FF0FF330AE00488A40648BF0093048807
S1130E3004F08004AC4204BF01240094009C002C04
S1130E40F1D012B1012A10D018E04FF080434FF6D0
S1130E50FE71186808401860186840F002001860B5
S1130E6018680190009836BC7047014B0120F6E7E2
S1130E7000000E2054050C20A80A0C2036BC6FF08C
S1130E8001007047244825490160832224490160F8
S1130E9000202449087000211E48017401210175B5
S1130EA081210176017720490A7000220A725C22AE
S1130EB00A74027842F00202027002799207FCD5A9
S1130EC000220A7504220A7609220A77017841F081
S1130ED0100101700179C906FCD5017841F0400187
S1130EE001700178027902F0E00201F0E0018A4227
S1130EF0F7D140F2FF320D4801688905890D91420E
S1130F0006D00B490B4A8A6000680880002088607C
S1130F107047000000000140001C014051E5CC1A5C
S1130F20AE1A33E5081001402000014000010040E2
S1130F3004E0024054E5CC1A19E050F8041BCB0736
S1130F4044BFA9F101035918121F0023042A41F8D0
S1130F50043BF9D25FEA827C0B4604D54FF0000CC7
S1130F60A1F800C09B1CD10744BF0021197050F8A0
S1130F70042B002AE1D1704710B450F8041B79B156
S1130F800268436812180830DC0744BFA9F1010461
S1130F90E31852F8044B43F8044B091FF9D1ECE76A
S1130FA010BC704710B5074979441831064C7C448D
S1130FB0163404E00A68081D511888470146A14206
S1130FC0F8D110BD08000000280000006DFFFFFFED
S1130FD0F401000080E3FF1F000000009DFFFFFFFD
S1130FE07C01000024FDFFFF00E0FF1F0000000063
S1130FF00120C046002801D0FFF7D4FF0020C046DE
S1131000C046FFF713FB00F000F800F001B8000041
S11310100746384600F002F8FBE7000020210903E8
S113102026311820ABBEF9E7014880470148004744
S1131030850E000039100000C046C046C046C046B8
S1131040FFF7D6FFFFF7FEBFFFF7FEBFFFF7FEBFB8
S1131050FFF7FEBFFFF7FEBFFFF7FEBFFFF7FEBFC0
S1131060FFF7FEBFFFF7FEBFFFF7FEBFFFF7FEBFB0
S1131070FFF7FEBFFFF7FEBFFFF7FEBFFFF7FEBFA0
S1131080FFF7FEBFFFF7FEBFFFF7FEBFFFF7FEBF90
S1131090FFF7FEBFFFF7FEBFFFF7FEBFFFF7FEBF80
S11310A0FFF7FEBFFFF7FEBFFFF7FEBFFFF7FEBF70
S11310B0FFF7FEBFFFF7FEBFFFF7FEBFFFF7FEBF60
S11310C0FFF7FEBFFFF7FEBFFFF7FEBFFFF7FEBF50
S11310D0FFF7FEBFFFF7FEBFFFF7FEBFFFF7FEBF40
S113400020250020E5F8010009F901000DF901005F
S113401011F9010015F9010019F90100000000006F
S11340200000000000000000000000001DF9010075
S113403021F901000000000025F9010029F901001F
S11340402DF9010031F9010035F9010039F90100B8
S11340503DF9010041F901006DD60000899300008B
S113406037F8010079D9000055F901005D9201008B
S11340705DF901003FA9000065F90100A9F90100FB
S1134080A9F9010069F901006DF90100A9F901001C
S1134090A9F90100A9F90100A9F9010071F90100C8
S11340A075F9010035F801007DF90100A9F9010055
S11340B081F9010085F9010089F901008DF90100F8
S11340C0A9F90100A9F901003FF8010049F801002C
S11340D0A9F90100A9F9010099F901009DF901006C
S11340E0A1F90100A5F90100A9F90100A9F901004C
S11340F0A9F90100A9F90100A9F90100A9F9010030
S113410038B5684CE07E012833D1674D67492846AD
S113411005F077FA012803DB0120E07502201BE09B
S11341205EA1284605F06DFA012803DB0120E07545
S1134130002011E05E49284605F063FA012802DBFD
S11341400120E07508E056A1284605F05AFA012836
S113415003DB0120E075032060750020E076207EFB
S113416038B1544805F0A0FB2846BDE8324005F0BC
S11341709BBB31BDF0B5142883B0044658D8DFE8A2
S113418000F00B0E1114171A1D2E3134373A3D402E
S11341904346494C4F5752001422474945E01422E4
S11341A0464942E0142246493FE0142245493CE096
S11341B01422454939E01422444936E0444D454926
S11341C01422284605F0D6FB4348006800282FD166
S11341D04E2068732E20A8734520E87328E014222B
S11341E03E4922E014223E491FE014223D491CE0CE
S11341F014223D4919E014223C4916E014223C499A
S113420013E014223B4910E014223B490DE0142230
S11342103A490AE014223A4907E01422394904E0F1
S11342201422394901E014223849294805F0A2FB37
S113423037480068E040C00706D5254D592068730B
S11342406520A8737320E87304EB44004000314EEA
S1134250314F00F52C5006223146503005F0B6FCA3
S11342603079737832782D490290F0780190B078E3
S11342700C4E0090384605F0DDFE002038743146BF
S1134280384605F03CFA0CB17F203070142CBCBFCA
S11342907E20F0730020B07603B0F0BD55500000CE
S11342A045534300E01E0020681C00206CDA010026
S11342B074DA01007CDA010088DA01009CDA01007A
S11342C0B0DA0100C4DA0100D8DA0100ECDA010046
S11342D0641F002000DB01006820002014DB0100C3
S11342E028DB01003CDB010050DB010064DB010042
S11342F078DB01008CDB0100A0DB0100B4DB0100F2
S1134300C8DB0100DCDB0100F0DB010004DC0100A0
S1134310B4200020681300208819002018DC010054
S1134320F0B5DFF89C4B83B0206AD22802F2C18436
S1134330DFE810F0D300E400F7000A011901590185
S1134340B711FE111412F9121C1342137C13B61385
S1134350D813FA1316143A143C143E14401442149D
S11343604414461448144A144C144E145014521451
S11343705414561458145A145C1460149014BF1432
S1134380F1010202030FAE0F160F2C0F460F600F40
S1134390730F860F990F11022202350248025B0245
S11343A06E0281029402A702BA02CD02E002F30275
S11343B0060319032C033F035203650378038B039D
S11343C09E03B403C703DA03ED03000413042604B5
S11343D039044C045F04720485049804AB04BE04DD
S11343E0D104E00403052A0553057D05A305CA0588
S11343F0EF05140639065D068006A406C706EB061B
S11344000C0716072A07500774079907B707D5073B
S1134410E007FA0719083F084B085C086E0886088D
S1134420AA08E60805092409430962098B09B409A5
S1134430DD09050A610A6F0A7D0A8B0A990AA80A2E
S1134440B70AC60AD50AE40AF30A020B100B1E0BBC
S11344502C0B3B0B4A0B590B680B770B860B950BFC
S1134460A40BB30BC20BBF14D40BE30BF20B040C61
S1134470130C260C350C440C560CBF14CE0FF30F42
S113448050106110A410381170108610EE103811FD
S1134490611187119211A21130103E10650C770C36
S11344A08A0C990CE00CFF0C200D410D620D830D5C
S11344B0A40DC50DE60D070E180E2A0E3C0E540E63
S11344C06C0E880EA80EC60EE60E680179018C01EA
S11344D09F01AE01BD01CC01DB011422DFF8941C65
S11344E0DFF8940C05F046FA1422DFF8901C2046FD
S11344F005F040FA7E20E07302F0D9BB1422DFF805
S1134500741CDFF8740C05F035FA1422DFF8701C03
S1134510204605F02FFA7F2020707E20E07302F001
S1134520C6BB1422DFF84C1CDFF84C0C05F022FA51
S11345301422DFF8501C204605F01CFA7F2020705E
S11345407E20E07302F0B3BB1422DFF8281CDFF8EE
S1134550280C05F00FFA1422DFF8B01D204605F0F0
S113456009FA02F0A2BB1422DFF8A41DDFF8080C3C
S113457005F000FA1422DFF89C1D204605F0FAF934
S1134580A07D032802F23580DFE810F004000C005F
S113459016002100CE206076DFF87C0D0078A07133
S11345A002F027B8CF2060767820A071DFF8680D7C
S11345B04078E07102F01DB8D02060767820A071B8
S11345C0E071DFF8540D8078207202F012B8D12027
S11345D060767820A071E0712072DFF83C0DC0781D
S11345E0607202F006B81422DFF8241DDFF8880B8D
S11345F005F0C0F91422DFF8241D204605F0BAF9AD
S113460002F055BB1422DFF8181DDFF86C0B05F01F
S1134610B1F91422DFF80C1D204605F0ABF97E2019
S1134620E07302F044BB1422DFF8F41CDFF8480BFB
S113463005F0A0F91422DFF8D41D204605F09AF9FC
S11346407F2020707E20E07302F031BB1422DFF85B
S1134650D01CDFF8240B05F08DF91422DFF8D41DEB
S1134660204605F087F97F2020707E20E07302F059
S11346701EBB1422DFF8A81CDFF8FC0A05F07AF947
S11346801422DFF8B41D204605F074F902F00DBBC6
S11346901422DFF8A81DDFF8E00A05F06BF91422F4
S11346A0DFF8C41D204605F065F902F000BB1422B2
S11346B0DFF8B81DDFF8C00A05F05CF91422DFF852
S11346C0B01D204605F056F902F0F1BA1422DFF8C5
S11346D0A41DDFF8A40A05F04DF91422DFF8981D93
S11346E0204605F047F902F0E2BA1422DFF88C1DE7
S11346F0DFF8840ADFF8885D05F03CF9DFF8840D03
S11347000268E5A1284605F095FC2146284604F0F8
S1134710F6FF02F0CCBA1422DFF88C1DDFF8580A39
S113472005F028F91422DFF8841D204605F022F94B
S11347307E20E07302F0BBBA1422DFF86C1DDFF8B0
S1134740380A05F017F91422DFF8641D204605F035
S113475011F902F0AABA1422DFF8581DDFF8180A7A
S113476005F008F91422DFF8501D204605F002F97F
S11347707E20E07302F09BBA1422DFF8381DDFF8C4
S1134780F80905F0F7F81422DFF8301D204605F08B
S1134790F1F87F2020707E20E07302F088BA1422A2
S11347A0DFF8101DDFF8D00905F0E4F81422DFF873
S11347B0101D204605F0DEF87F2020707E20E07377
S11347C002F075BA1422DFF8EC1CDFF8AC0905F02E
S11347D0D1F81422DFF8EC1C204605F0CBF87F203A
S11347E020707E20E07302F062BA1422DFF8C41C49
S11347F0DFF8840905F0BEF81422DFF8CC1C20464B
S113480005F0B8F87F2020707E20E07302F04FBAE4
S11348101422DFF8A01CDFF8600905F0ABF81422BD
S1134820DFF8A81C204605F0A5F87F2020707E2024
S1134830E07302F03CBA1422DFF8781CDFF8380980
S113484005F098F81422DFF8881C204605F092F849
S11348507F2020707E20E07302F029BA1422DFF852
S1134860541CDFF8140905F085F81422DFF8641CE1
S1134870204605F07FF87F2020707E20E07302F050
S113488016BA1422DFF82C1CDFF8EC0805F072F8D5
S11348901422DFF8441C204605F06CF87F202070B9
S11348A07E20E07302F003BA1422DFF8081CDFF85C
S11348B0C80805F05FF81422DFF8201C204605F034
S11348C059F87F2020707E20E07302F0F0B91422A2
S11348D0DFF8E01BDFF8A00805F04CF81422DFF83D
S11348E0001C204605F046F87F2020707E20E073EF
S11348F002F0DDB91422DFF8BC1BDFF87C0805F0F8
S113490039F81422DFF8DC1B204605F033F87F2049
S113491020707E20E07302F0CAB91422DFF8941BE1
S1134920DFF8540805F026F81422DFF8BC1B2046F3
S113493005F020F87F2020707E20E07302F0B7B9E4
S11349401422DFF8701BDFF8300805F013F8142286
S1134950DFF8981B204605F00DF87F2020707E209C
S1134960E07302F0A4B91422DFF8481BDFF808084A
S113497005F000F81422DFF8781B204604F0FAFF53
S11349807F2020707E20E07302F091B91422DFF8BA
S1134990241BDFF8E40704F0EDFF1422DFF8541BB6
S11349A0204604F0E7FF7F2020707E20E07302F0B1
S11349B07EB91422DFF8FC1ADFF8BC0704F0DAFF32
S11349C01422DFF8341B204604F0D4FF7F2020702B
S11349D07E20E07302F06BB91422DFF8D81ADFF8F6
S11349E0980704F0C7FF1422DFF8101B204604F0D8
S11349F0C1FF7F2020707E20E07302F058B914229A
S1134A00DFF8B01ADFF8700704F0B4FF1422DFF8FF
S1134A10781D204604F0AEFF7F2020707E20E073D6
S1134A2002F045B91422DFF88C1ADFF84C0704F0C1
S1134A30A1FF1422DFF8541D204604F09BFF7F20C1
S1134A4020707E20E07302F032B91422DFF8641A79
S1134A50DFF8240704F08EFF1422DFF8341D20460B
S1134A6004F088FF7F2020707E20E07302F01FB9DD
S1134A701422DFF8401ADFF8000704F07BFF142249
S1134A80DFF8101D204604F075FF7F2020707E2083
S1134A90E07302F00CB900BF256400001422DFF8B3
S1134AA0141ADFF8D40604F065FF1422DFF8E81CBA
S1134AB0204604F05FFF7F2020707E20E07302F028
S1134AC0F6B81422DFF8EC19DFF8AC0604F052FF54
S1134AD01422DFF8C81C204604F04CFF7F2020700D
S1134AE07E20E07302F0E3B81422DFF8C819DFF87F
S1134AF0880604F03FFF1422DFF8A41C204604F0CB
S1134B0039FF7F2020707E20E07302F0D0B8142299
S1134B10DFF8A019DFF8600604F02CFF1422DFF898
S1134B20841C204604F026FF7F2020707E20E07342
S1134B3002F0BDB81422DFF87C19DFF83C0604F05B
S1134B4019FF1422DFF8601C204604F013FF7F20B5
S1134B5020707E20E07302F0AAB81422DFF8541902
S1134B60DFF8140604F006FF1422DFF8401C204688
S1134B7004F000FF7F2020707E20E07302F097B8DD
S1134B801422DFF83019DFF8F00504F0F3FE1422E4
S1134B90DFF81C1C204604F0EDFE7F2020707E20F0
S1134BA0E07302F084B81422DFF80819DFF8C805AE
S1134BB004F0E0FE1422DFF8FC1B204604F0DAFEC9
S1134BC07F2020707E20E07302F071B81422DFF899
S1134BD0E418DFF8A40504F0CDFE1422DFF8D81B96
S1134BE0204604F0C7FE7F2020707E20E07302F090
S1134BF05EB81422DFF8BC18DFF87C0504F0BAFEB6
S1134C001422DFF8B81B204604F0B4FE7F20207085
S1134C107E20E07302F04BB81422DFF89818DFF816
S1134C20580504F0A7FE1422DFF8941B204604F074
S1134C30A1FE7F2020707E20E07302F038B8142299
S1134C40DFF87018DFF8300504F094FE1422DFF862
S1134C50741B204604F08EFE7F2020707E20E073BB
S1134C6002F025B81422DFF84C18DFF80C0504F024
S1134C7081FE1422DFF8501B204604F07BFE7F20C7
S1134C8020707E20E07302F012B81422DFF824189A
S1134C90DFF8E40404F06EFE1422DFF8301B204633
S1134CA004F068FE7F2020707E20E07301F0FFBFD7
S1134CB01422DFF80018DFF8C00404F05BFE1422AD
S1134CC0DFF80C1B204604F055FE7F2020707E2068
S1134CD0E07301F0ECBF1422DFF8D817DFF8980472
S1134CE004F048FE1422DFF8EC1A204604F042FED9
S1134CF001F0DBBF1422DFF8C81DDFF87C0404F0E8
S1134D0039FE41F288330022DFF8CC1A204605F040
S1134D1091F9DFF804060178A1714178E171817895
S1134D202172C0786072A07D032801F2C087DFE899
S1134D3010F05D0526004F0079001422DFF8E01D15
S1134D40DFF8340404F016FE1E230222DFF8881A6A
S1134D50204605F06FF9DFF8C0050178A1714178AC
S1134D60E17181782172C0786072A07D032801F21C
S1134D709E87DFE810F03B0504002D005700CF208C
S1134D806076012001F094BF1422DFF8D81DDFF80B
S1134D90E80304F0EFFD4FF4FA730A22DFF8381A3F
S1134DA0204605F047F9DFF870050178A1714178D4
S1134DB0E17181782172C0786072A07D032801F2CC
S1134DC07687DFE810F01305040005002F00D6E70E
S1134DD0D0206076012001F06BBF1422DFF8E41DBF
S1134DE0DFF8940304F0C6FD4FF4FA730A22DFF8E7
S1134DF0E819204605F01EF9DFF81C050178A171B9
S1134E004178E17181782172C0786072A07D0328B5
S1134E1001F24D87DFE810F0EA0405000400060003
S1134E20D6E7ACE7D1206076012001F041BF14221F
S1134E30DFF8A819DFF8400304F09CFD4FF4FA737F
S1134E400022DFF89419204605F0F4F8DFF8C804CE
S1134E500178A1714178E17181782172C078607222
S1134E60A07D032801F22387DFE810F0C0040600C8
S1134E7005000400D6E7ABE781E71422DFF86019E8
S1134E80BD4804F077FD4FF4FA630122DFF84819B6
S1134E90204605F0CFF8DFF880040178A17141784D
S1134EA0E17181782172C0786072A07D032801F2DB
S1134EB0FE86DFE810F09B04080007000400B1E759
S1134EC0E01E002084E75AE71422DFF8001EAA48F7
S1134ED004F050FD4FF4FA630122DFF8FC18204679
S1134EE005F0A8F8DFF830040178A1714178E17188
S1134EF081782172C0786072A07D032801F2D78680
S1134F00DFE810F074040600050004008AE75FE798
S1134F1035E71422DFF8B81D974804F02BFD4FF451
S1134F20FA630122DFF8B018204605F083F8DFF8B1
S1134F30E8030178A1714178E17181782172C07828
S1134F406072A07D032801F2B286DFE810F04F04FE
S1134F5006000500040065E73AE710E71422DFF8CD
S1134F60741D854804F006FD4FF4E1530022DFF878
S1134F706818204605F05EF8DFF89C030178A171FB
S1134F804178E17181782172C0786072A07D032834
S1134F9001F28D86DFE810F02A0406000500040003
S1134FA040E715E7EBE61422DFF82C1D724804F005
S1134FB0E1FCF0230022DFF82018204605F03AF83F
S1134FC0DFF854030178A1714178E171817821728D
S1134FD0C0786072A07D032801F26986DFE810F0D2
S1134FE006040600050004001CE7F1E6C7E61422E7
S1134FF0DFF8E81C604804F0BDFC3C230022DFF825
S1135000D817204605F016F8C3480178A1714178F5
S1135010E17181782172C0786072A07D032801F269
S11350204686DFE810F0E303060005000400F9E615
S1135030CEE6A4E61422DFF8A81C4F4804F09AFC3C
S11350404FF461633222DFF89017204604F0F2FF38
S1135050B1480178A1714178E17181782172C078F9
S11350606072A07D032801F22286DFE810F0BF03FE
S1135070060005000400D5E6AAE680E61422DFF85F
S1135080641C3D4804F076FC50230A22DFF84817DC
S1135090204604F0CFFFA0480178A1714178E17166
S11350A081782172C0786072A07D032801F2FF85A7
S11350B0DFE810F09C03060005000400B2E687E672
S11350C05DE61422DFF8201C2B4804F053FC4FF457
S11350D061631E22DFF80017204604F0ABFF8E4800
S11350E00178A1714178E17181782172C078607290
S11350F0A07D032801F2DB85DFE810F078030600C9
S1135100050004008EE663E639E61422DFF8DC1BB2
S1135110194804F02FFC1422DFF8D41B204604F0B5
S113512029FC7D480178A1714178E171817821726F
S1135130C0786072A07D002800F0588301283FF4F5
S11351401EAE03283FF46EAE01F0B1BD1422DFF8A9
S1135150841E094804F00EFC1422DFF87C1EDDE7EF
S11351601422DFF89C1E044804F004FC1422DFF827
S1135170681ED3E73CDC0100641F002050DC010002
S113518064DC010078DC01001422DFF8781EDFF80B
S1135190780E04F0EFFB4FF4FA634FF4FA72DFF881
S11351A03816204604F046FF5B480178A171417827
S11351B0E17181782172C0786072A07D032801F2C8
S11351C07685DFE810F0130306000500040029E6E5
S11351D0FEE5D4E51422DFF89C1EDFF82C0E04F063
S11351E0C9FB3C231422DFF8F015204604F022FF0B
S11351F049480178A1714178E17181782172C078C0
S11352006072A07D032801F25285DFE810F0EF02FE
S113521006000500040005E6DAE5B0E51422DFF82F
S1135220601EDFF8E40D04F0A5FB4FF47A63052259
S1135230DFF8A415204604F0FDFE37480178A1717B
S11352404178E17181782172C0786072A07D032871
S113525001F22D85DFE810F0CA0206000500040003
S1135260E0E5B5E58BE51422DFF88C1EDFF8980D38
S113527004F080FB1422DFF8841E204604F07AFB3D
S113528025480178A1714178E17181782172C07853
S11352906072A07D002800F0A98202283FF498AD36
S11352A04FE71422DFF8B41EDFF85C0D04F062FB54
S11352B01422DFF8D41E204604F05CFB1648017863
S11352C0A1714178E17181782172C0786072A07D0A
S11352D0002800F08B8202283FF47AAD31E71422D3
S11352E0DFF8D01EDFF8200D04F044FB1422DFF8B1
S11352F0C81E13E71422DFF8C41EDFF80C0D04F0F7
S113530039FB1422DFF8B01E08E700BF8CDC010073
S1135310A0DC0100B4DC0100041F0020C8DC010093
S1135320DCDC0100F0DC01001422DFF8BC1EDFF835
S1135330D80C04F01FFB1422DFF8B01E204604F042
S113534019FBDFF8AC0E0178A1714178E171817825
S11353502172C0786072A07D002800F04782022884
S11353603FF436ADEDE61422DFF83814DFF8980C7C
S113537004F000FB4FF4FA630A22DFF85C142046C1
S113538004F058FEDFF8680E0178A1714178E171EC
S113539081782172C0786072A07D032801F287842D
S11353A0DFE810F024020600050004003AE50FE5EA
S11353B0E5E41422DFF8CC1EDFF84C0C04F0DAFA32
S11353C01422DFF8C41E01F051B91422DFF8BC1E08
S11353D0DFF8340C04F0CEFA1422DFF8DC1E204689
S11353E004F0C8FA7E20E07301F061BC1422DFF8F7
S11353F09C1EDFF8140C04F0BDFA1422DFF8BC1E66
S1135400204604F0B7FA01F050BC00BF04DD0100EF
S11354101422DFF8AC1EDFF8F00B04F0ABFA142210
S1135420DFF8A01E204604F0A5FA7E20E07301F008
S11354303EBC00BF18DD01002CDD010040DD010091
S11354401422DFF87C1EDFF8C00B04F093FA142258
S1135450DFF8741E204604F08DFA7F2020707E2031
S1135460E07301F024BC00BF54DD010068DD0100DD
S11354707CDD010090DD0100A4DD0100B8DD010048
S113548088190020B41D00201422DFF8341EDFF830
S1135490780B04F06FFA1422DFF8301E204604F073
S11354A069FA01F002BC00BFCCDD0100E0DD0100BF
S11354B0F4DD010008DE01001CDE010030DE010025
S11354C044DE010058DE01006CDE010080DE0100D4
S11354D094DE0100A8DE0100BCDE0100D0DE010084
S11354E0E4DE0100F8DE01000CDF010020DF010032
S11354F034DF010048DF01005CDF010070DF0100E0
S11355001422DFF8741EDFF8000B04F033FA1422BF
S1135510DFF8B81E204604F02DFADFF8D40C017829
S1135520A1714178E17181782172C0786072A07DA7
S1135530002800F05B8102283FF44AAC01E6142203
S1135540DFF88C1EDFF8C00A04F014FA1422DFF826
S11355507C1E204604F00EFADFF8940C0178A17149
S11355604178E17181782172C0786072A07D002851
S113557000F03C8102283FF42BACE2E51422DFF872
S1135580B81EDFF8840A04F0F5F91422DFF8AC1E23
S1135590204604F0EFF9DFF8580C0178A171417846
S11355A0E17181782172C0786072A07D002800F0DA
S11355B01D8102283FF40CACC3E51422DFF8A01EC1
S11355C0DFF8440A04F0D6F91422DFF8001E20465E
S11355D004F0D0F9DFF8180C0178A1714178E17179
S11355E081782172C0786072A07D002800F0FE806E
S11355F002283FF4EDABA4E51422DFF8681EDFF8BF
S1135600080A04F0B7F942F20F730022DFF8581EBB
S1135610204604F00FFDDFF8D80B0178A171417822
S1135620E17181782172C0786072A07D032801F253
S11356303E83DFE810F0DB00080006000400FFF7FB
S1135640F1BBFFF7C5BBFFF79ABB1422DFF81C1EA2
S1135650DFF8B40904F08EF942F20F730022DFF888
S1135660081E204604F0E6FCDFF8840B0178A171E3
S11356704178E17181782172C0786072A07D03283D
S113568001F21583DFE810F0B20008000600040000
S1135690FFF7C8BBFFF79CBBFFF771BB1422DFF811
S11356A0D01DDFF8640904F065F94FF47A733222EF
S11356B0DFF8B41D204604F0BDFCDFF8340B01789C
S11356C0A1714178E17181782172C0786072A07D06
S11356D0032801F2EC82DFE810F0890008000600DC
S11356E00400FFF79FBBFFF773BBFFF748BBDFF86E
S11356F0840DDFF814196CC86CC140F6371300220E
S1135700DFF8641D204604F095FCDFF8E40A017814
S1135710A1714178E17181782172C0786072A07DB5
S1135720032801F2C482DFE810F0610008000600DB
S11357300400FFF777BBFFF74BBBFFF720BB142236
S1135740DFF8341DDFF8C00804F014F91E23052225
S1135750DFF8141D204604F06DFCDFF8940A01788C
S1135760A1714178E17181782172C0786072A07D65
S1135770032801F29C82DFE810F03900370035007D
S11357800400FFF74FBB00BF84DF010098DF010076
S1135790ACDF0100C0DF0100D4DF0100E8DF01005D
S11357A0FCDF010010E0010024E0010038E001000A
S11357B04CE0010060E0010074E0010088E00100B9
S11357C09CE00100B0E00100C4E00100D8E0010069
S11357D0ECE0010000E1010028E1010078E10100B2
S11357E08CE10100FFF7F4BAFFF7C9BACE20607666
S11357F0012001F05DBA1422B149DFF80C0804F06D
S1135800B9F81422DFF86C1E204604F0B3F801F056
S11358104EBA1422C249DFF8F00704F0ABF81422A0
S1135820DFF8501E204604F0A5F801F040BA142217
S1135830CC49DFF8D40704F09DF81422DFF8341EB5
S1135840204604F097F801F032BA1422DD49DFF85B
S1135850B80704F08FF81422DFF8181E204604F06D
S113586089F801F024BA1422DFF86C1EDFF89807D7
S113587004F080F81422DFF8FC1D204604F07AF8C6
S113588001F015BA1422DFF8541EDFF87C0704F087
S113589071F81422DFF8DC1D204604F06BF801F0E7
S11358A006BA1422DFF8841EDFF85C0704F062F8FD
S11358B01422DFF8C01D204604F05CF801F0F7B9AB
S11358C01422DFF8881EDFF8400704F053F814228E
S11358D0DFF8A01D204604F04DF801F0E8B91422C9
S11358E0DFF86C1EDFF8200704F044F81422DFF818
S11358F0841D204604F03EF801F0D9B91422DFF8E3
S1135900541EDFF8040704F035F81422DFF8641D90
S1135910204604F02FF801F0CAB91422DFF8381E2B
S1135920DFF8E40604F026F81422DFF8481D2046C8
S113593004F020F801F0BBB91422E949DFF8C806E5
S113594004F018F81422DFF82C1D204604F012F895
S113595001F0ADB91422E349DFF8AC0604F00AF80B
S11359601422DFF8101D204604F004F801F09FB95A
S11359701422DD49DFF8900603F0FCFF1422DFF85F
S1135980F41C204603F0F6FF01F091B91422DFF86D
S1135990341EDFF8740603F0EDFF1422DFF8D41C84
S11359A0204603F0E7FF01F082B91422DFF8241641
S11359B0DFF8540603F0DEFF1422DFF8B81C20469B
S11359C003F0D8FF01F073B91422DFF83416DFF8BE
S11359D0380603F0CFFF1422DFF8981C204603F0AA
S11359E0C9FF01F064B91422DFF8281EDFF8180695
S11359F003F0C0FF1422DFF87C1C204603F0BAFF3A
S1135A0001F055B91422DFF86C16DFF8FC0503F039
S1135A10B1FF1422DFF85C1C204603F0ABFF01F059
S1135A2046B91422DFF85816DFF8DC0503F0A2FFAC
S1135A301422DFF8401C204603F09CFF01F037B924
S1135A401422DFF8B416DFF8C00503F093FF142224
S1135A50DFF8201C204603F08DFF01F028B9142242
S1135A60DFF8F816DFF8A00503F084FF1422DFF84E
S1135A70041C204603F07EFF01F019B91422DFF85C
S1135A80181EDFF8840503F075FF1422DFF8E41B09
S1135A90204603F06FFF01F00AB91422DFF8FC1D61
S1135AA0DFF8640503F066FF1422DFF8C81B204604
S1135AB003F060FF01F0FBB81422DFF82C1701E0BB
S1135AC014E10100DFF8400503F054FF1422DFF86D
S1135AD0A41B204603F04EFF01F0E9B81422DFF8BE
S1135AE09818DFF8240503F045FF1422DFF8841B1F
S1135AF0204603F03FFF01F0DAB81422DFF8D01893
S1135B00DFF8040503F036FF1422DFF8681B204693
S1135B1003F030FF01F0CBB81422DFF81C1901E0C8
S1135B203CE10100DFF8E00403F024FF1422DFF875
S1135B30441B204603F01EFF01F0B9B81422DFF81D
S1135B402019DFF8C40403F015FF1422DFF8241B26
S1135B50204603F00FFF01F0AAB81422DFF804195D
S1135B6002E000BF50E10100DFF89C0403F002FFF3
S1135B701422DFF8001B204603F0FCFE01F097B866
S1135B801422DFF8E818DFF8800403F0F3FE14228F
S1135B90DFF8E01A204603F0EDFE01F088B8142285
S1135BA0DFF8CC18DFF8600403F0E4FE1422DFF819
S1135BB0C41A204603F0DEFE01F079B8DFF8B40819
S1135BC002E000BF64E10100DFF83C146CC86CC162
S1135BD01422DFF8A01A204603F0CCFE01F067B8C7
S1135BE01422DFF89418DFF8200403F0C3FE142213
S1135BF0DFF8801A204603F0BDFE01F058B81422E5
S1135C00DFF8D01DDFF8000403F0B4FE1422DFF83F
S1135C10081E204603F0AEFE0020A0767E2000F091
S1135C2083BD1422DFF8AC1DDFF8DC0303F0A2FE11
S1135C301422DFF8E81D204603F09CFE7F2020702C
S1135C407E20E07301F033B81422DFF8881DEE489B
S1135C5003F090FE1422DFF8C81D204603F08AFEEC
S1135C600020A076C8E11422DFF8B81DE64803F04E
S1135C7081FE1422DFF8B01D204603F07BFE0020D5
S1135C80A076DFF8040E007800F001010129A4BF1A
S1135C904821A17000F002010129A4BF48216171CB
S1135CA000F004010129A4BF4821217200F0080179
S1135CB00129A4BF4821E17200F010000128C0F2BC
S1135CC0F8874820A07300F0F4BF00BFA0E10100F2
S1135CD0B4E10100C8E10100DCE10100F0E10100F0
S1135CE004E2010018E201002CE2010040E201009C
S1135CF054E201001422DFF8941DC348DFF8905DDC
S1135D0003F038FE0020A076DFF8881DDFF8880D48
S1135D10007800F001000128ACBFD7A2D7A2284622
S1135D2004F088F92146284603F0E9FC7E2000F0BF
S1135D30FBBC1422DFF8541DB348DFF8545D03F0B4
S1135D4019FE0020A076DFF8541DDFF84C0D007812
S1135D5000F002000128ACBFC7A2C8A2284604F084
S1135D6069F92146284603F0CAFC7F2020707E2072
S1135D7000F0DABC1422DFF8141DA348DFF8105D2C
S1135D8003F0F8FD0020A076DFF8D01DDFF8080D41
S1135D90007800F004000128ACBFB7A2B7A22846DF
S1135DA004F048F92146284603F0A9FC7F2020701E
S1135DB07E2000F0B9BC1422DFF8D01C9248DFF832
S1135DC0D05C03F0D7FD0020A076DFF8B81DDFF823
S1135DD0C80C007800F008000128ACBFA6A2A7A256
S1135DE0284604F027F92146284603F088FC7F2042
S1135DF020707E2000F098BC1422DFF8901C8248AA
S1135E00DFF88C5C03F0B6FD0020A076DFF8781D87
S1135E10DFF8840C007800F010000128ACBF96A2D3
S1135E2096A2284604F006F92146284603F067FCAA
S1135E307F2020707E2000F077BC1422DFF84C1CF9
S1135E407148DFF84C5C03F095FD0020A076DFF884
S1135E503C1DDFF8440C007800F020000128ACBFA2
S1135E6085A286A2284604F0E5F82146284603F0D8
S1135E7046FC7F2020707E2000F056BC1422DFF800
S1135E800C1C6148DFF8085C03F074FD0020A07668
S1135E90DFF8041DDFF8000C007800F04000012852
S1135EA0ACBF75A275A2284604F0C4F82146284662
S1135EB003F025FC7F2020707E2000F035BC1422E6
S1135EC0DFF8C81B5048DFF8C85B03F053FD00201F
S1135ED0A076DFF8C81CDFF8C00B007800F0800063
S1135EE00128ACBF64A265A2284604F0A3F82146A9
S1135EF0284603F004FC7F2020707E2000F014BCB0
S1135F001422DFF8881B4048DFF8845B03F032FD7D
S1135F100020A076DFF8881CDFF87C0B008800F4F2
S1135F2080700128ACBF54A254A2284604F082F821
S1135F302146284603F0E3FB7F2020707E2000F0FA
S1135F40F3BB1422DFF85C1C2F4803F013FD002080
S1135F50A0761422DFF8641D204603F00BFD7E209A
S1135F6000F0E2BB1422DFF83C1C274803F002FDDA
S1135F701422DFF84C1D204603F0FCFC7F20207027
S1135F807E20E07300F093BE1422DFF8181C1E4834
S1135F9003F0F0FC1422DFF82C1D204603F0EAFC89
S1135FA07F2020707E20E07300F081BE1422DFF891
S1135FB0F41B154803F0DEFC0020A0761422DFF861
S1135FC0081D204603F0D6FC7F2020707E20E0735D
S1135FD000F06DBE68E201007CE201001422DFF8EB
S1135FE0C41B094803F0C6FC0020A0761422DFF885
S1135FF0DC1C204603F0BEFC7F20207000F059BE5C
S113600090E20100A4E20100641F00201422DFF8E2
S1136010C01CDFF8C00CDFF8785A03F0ABFC00209A
S1136020A076DFF8B41CDFF8B40C406804F01CF868
S1136030DFF8AC1C086004F095F80B460246DFF864
S1136040A41C71E01422DFF8A01CDFF8880CDFF830
S1136050405A03F08FFC0020A0766421DFF88C0CFA
S1136060006890FBF1F2DFF8881C284603F0E2FF99
S11360705DE000BFB8E201004F4646004F4E00000D
S1136080CCE201001422DFF86C1CDFF8480CDFF8C6
S1136090005A03F06FFC0020A076DFF85C1CDFF8E8
S11360A05C0C0068086004F089F8DFF8541C03F005
S11360B0DBFF04F057F80B460246DFF8481C33E0D8
S11360C01422DFF8441CDFF80C0CDFF8C45903F089
S11360D051FC0020A076DFF8340C006804F06EF860
S11360E0DFF82C1C03F0C0FF04F03CF80B4602461A
S11360F0DFF8201C18E000BFE0E20100F4E2010038
S11361001422DFF8141CDFF8CC0BDFF8845903F0F9
S113611031FC0020A076DFF8040C006804F022F8BB
S11361200B460246DFF8041C284603F083FF214691
S1136130284603F0E4FA00F0BCBD1422DFF8F01B9B
S1136140DFF8900B03F016FC1422DFF8E81B20465E
S113615003F010FC7E20E07300F0A9BD08E3010009
S11361601422DFF8CC1BDFF86C0B03F003FC1422C1
S1136170DFF8C41B204603F0FDFB7F2020707E2047
S1136180E07300F094BD00BF1CE301001422DFF8AB
S1136190A01BDFF8400B03F0EDFB1422DFF89C1B7F
S11361A0204603F0E7FB7F2020707E20E07300F0A0
S11361B07EBD00BF30E3010044E3010058E3010069
S11361C01422DFF86C1BDFF80C0B03F0D3FB142252
S11361D0DFF86C1B204603F0CDFB7F2020707E206F
S11361E0E07300F064BD00BF6CE3010080E30100D4
S11361F0041F00201422DFF8381BDFF8D80A03F04C
S1136200B9FB1422DFF83C1B204603F0B3FB7F20CC
S113621020707E20E07300F04ABD1422DFF8101BCA
S1136220DFF8B00A03F0A6FB1422DFF81C1B20469B
S113623003F0A0FB7F2020707E20E07300F037BDC8
S11362401422DFF8EC1ADFF88C0A03F093FB142213
S1136250DFF8F81A204603F08DFB7F2020707E20A3
S1136260E07300F024BD1422DFF8C41ADFF8640AD6
S113627003F080FB1422DFF8D81A204603F07AFBDF
S113628000F013BD94E30100A8E30100BCE30100A6
S11362901422DFF8C01ADFF83C0A03F06BFB142267
S11362A0DFF8901A204603F065FBDFF8EC174FF691
S11362B0F470088000F0FBBCD0E30100E4E30100CB
S11362C0F8E301000CE4010020E4010034E40100DF
S11362D01422DFF8841ADFF8FC0903F04BFB1422C4
S11362E0DFF8781A204603F045FB0120A076DFF89A
S11362F0700A017861714178A17181782172C07846
S11363006072A07D032800F2D484DFE810F0370027
S1136310040039003B00CE2039E01422DFF8441A8F
S1136320DFF8B00903F026FB1422DFF83C1A2046FC
S113633003F020FBDFF8280A017861714178A1712C
S11363402D21E17181782172C17861722D21A172B0
S11363500179E172407920730120A076A07D05289F
S113636000F2A784DFE810F00A0006000C000E001B
S113637010001200CFE700BF48E40100CD2006E082
S1136380D02004E0D12002E0D32000E0D4206076C5
S113639000F08FBC1422DFF8D419DFF8380903F0B9
S11363A0E9FA1422B349204603F0E4FA00F07FBC72
S11363B01422DFF8BC19DFF81C0903F0DBFA1422FD
S11363C0AC49204603F0D6FA00F071BC5CE401004D
S11363D070E401001422DFF89C19DFF8F80803F0D8
S11363E0C9FA1422DFF89019204603F0C3FA7E207C
S11363F0E07300F05CBC1422DFF87819DFF8D408ED
S113640003F0B8FA1422DFF87419204603F0B2FA44
S113641000F04BBC1422DFF86819DFF8B80803F069
S1136420A9FA1422DFF85019204603F0A3FA7E20BB
S1136430E07300F03CBC00BF84E4010098E4010078
S11364401422DFF83C19DFF88C0803F093FA1422C5
S1136450DFF82819204603F08DFA00F026BC00BFAF
S1136460ACE40100C0E40100D4E40100E4E4010070
S1136470F8E401000CE501001CE50100DFF810560A
S11364802022294640F2FD2003F0A0FB002085F8DD
S113649020000021DFF8EC08DFF838680170A4F16F
S11364A0100231462B78FBB10778102F03DA0B70FA
S11364B000234B7002E01370002353707B1C0370A5
S11364C06F788FB1DBB2102B03DA4F7000278F7017
S11364D002E05770002797705B1C0370921C891CA4
S11364E0AD1CDBB2202BDDDB0178202980F2E183B7
S11364F0102904DA20238B558A19002304E00A1991
S1136500202302F8103D00235370491C0170EBE76F
S1136510DFF87C552022294640F21D3003F056FB5B
S1136520002085F820000021DFF85808DFF8A46770
S11365300170A4F1100231462B78FBB10778102FBB
S113654003DA0B7000234B7002E0137000235370C6
S11365507B1C03706F788FB1DBB2102B03DA4F70A2
S113656000278F7002E05770002797705B1C037040
S1136570921C891CAD1CDBB2202BDDDB01782029A9
S113658080F29783102904DA20238B558A1900237B
S113659004E00A19202302F8103D00235370491C1B
S11365A00170EBE7A37D0022190016D0DFF8B007D5
S11365B0DFF82067185C1D19A3F1480703F1640193
S11365C0102BB9BF98558E4605F8100CBE46521CC8
S11365D0D2B29A4284F819E0F2D3DFF8A807027025
S11365E0102B207FB9BFDFF8EC269854191901F855
S11365F0100C01205CE3DFF890070178CB3908D058
S1136600091F06D0891E022903D9C91E02290BD9E4
S11366100CE01422DFF87417DFF8B80603F0AAF9C7
S11366201422DFF86C1721E0AF2005E0617F491CDC
S11366306177C9B211B1B02020623AE3CF21017071
S113664037E31422DFF84417DFF8880603F092F9E1
S11366501422DFF8401709E01422DFF83017DFF8BE
S1136660740603F087F91422DFF82C17204603F090
S113667081F91EE328DC01001422DFF82017DFF87B
S1136680540603F077F91422DFF81417204603F0B8
S113669071F9DFF8040401884FF672721140018029
S11366A007E30020A076DFF8FC060078401E0ED039
S11366B0401E032803D9401F042804D910E00A22ED
S11366C0DFF8E4160FE00922DFF8E0160BE00B22F6
S11366D0DFF8DC1607E000BF30E5010044E5010007
S11366E00922DFF8D016DFF8A803DFF8A45303F07B
S11366F031F9DFF8E015284603F001F8DFF8B806B1
S113670000686421B0FBF1F2DFF8E415284603F0D9
S113671091FC2146284602F0F2FFDFF8A00600684B
S1136720002800F0C6822120E073C2E258E501008F
S11367301422DFF88C16DFF89C0503F01BF91422F1
S1136740DFF88016204603F015F9B0E26CE501008D
S113675080E5010094E50100A8E501000020A07691
S1136760DFF84076DFF860663878C94D0F2800F20C
S1136770A180DFE800F0080B141D2946515A639FDD
S11367809F6C757E8795DFF8440691E00522DFF85B
S11367904016284603F0DEF8DFF8380688E00A22BF
S11367A0DFF83416284603F0D5F8DFF830067FE02A
S11367B00722DFF82C16284603F0CCF8DFF824066D
S11367C076E000BFBCE501000622DFF81C1628466F
S11367D003F0C0F8DFF81406DFF81416006809782F
S11367E069B9DFF81016DFF8FC2509681268484318
S11367F0DFF8E81509685118B0FBF1F059E04008DA
S113680057E01022DFF8F015284603F0A3F8DFF86C
S1136810EC054DE0D0E501000922DFF89815284683
S113682003F098F8DFF8AC0542E00B22DFF8D0154E
S1136830284603F08FF8DFF8CC0539E01022DFF8A2
S1136840C815284603F086F8DFF8C00530E00A22B0
S1136850DFF8BC15284603F07DF8DFF8B80527E01B
S11368601122DFF8B415284603F074F8DFF8640544
S11368701EE01022DFF8A415284603F06BF8DFF8B9
S1136880A00515E00C22DFF89C15284603F062F8F9
S1136890DFF8940500780CE0E4E50100F8E5010078
S11368A00D22DFF88815284603F054F8DFF8800538
S11368B000683060DFF81C14284602F020FF3878A6
S11368C0012803D10622DFF86C1504E0062806D15E
S11368D00622DFF86415284603F03CF810E0DFF8E0
S11368E0F41430680968411A11F10A0FB8BF01465F
S11368F0DFF8480501600A46A5A1284603F09AFB83
S1136900DFF83C753268A3A1384603F093FB39469F
S1136910284603F06CFC214602F0F1FE7F20207033
S11369207E20E073C3E11422DFF81815DFF8A40316
S1136930574D03F01FF8DFF810050368DFF80C0566
S11369400068191ADFF8F40448BF002101600A4600
S1136950DFF8FC14284603F06DFB2146284602F0BC
S1136960CEFE7F2020707E20E073A0E11422DFF8A9
S1136970E414DFF86003464D02F0FCFFDFF8D8149E
S1136980DFF8D8040978006801290CD103F0EAFB88
S1136990DFF8CC24DFF8CC3403F038FC0B46024695
S11369A0DFF8C41463E003F003FD0246DFF8BC140F
S11369B0284603F03FFB5DE01422DFF8B414C54819
S11369C0DFF8046402F0D6FF00203080DFF8A4145E
S11369D00AE000BF0CE601005A5C1AB11018727884
S11369E0521C72705A1C32703378052BF4DB7178A8
S11369F0274DB0FBF1F2DFF88004DFF88014026069
S1136A00284603F017FB2146284602F078FE7F2033
S1136A1020707E20E0734AE120E6010034E60100A4
S1136A2048E601005CE6010070E601001422DFF88C
S1136A305014A848164D02F09DFFDFF81C14A74817
S1136A400978406801290CD103F08CFBDFF810248D
S1136A50DFF8103403F0DAFB0B460246DFF82414A7
S1136A6005E003F07FFB0B460246DFF81C142846C2
S1136A7003F0E0FA2146284602F041FE7F20207010
S1136A807E20E07313E100BF2C1D002084E601008A
S1136A908819002098E6010000200020A4E60100E7
S1136AA01422DFF8E8138B48DFF8E45302F062FFA6
S1136AB0DFF8E003006803F081FB874903F0D4FAB0
S1136AC003F050FB02460B46DFF8CC13284603F0D4
S1136AD0B1FA2146284602F012FE7F2020707E2063
S1136AE0E073E4E01422DFF8B4137A48DFF8A0532B
S1136AF002F040FFDFF8A803006803F05FFB76496B
S1136B0003F0B2FA03F02EFB02460B46DFF88813BB
S1136B10284603F08FFA2146284602F0F0FD7F2034
S1136B2020707E20E073C2E01422DE496948D84D0B
S1136B3002F020FF7948006803F014FB02460B467C
S1136B407A49284603F076FA2146284602F0D7FD12
S1136B507F2020707E20E073A9E000BFB0E6010032
S1136B601422D1495B48CA4D02F004FF93480068DF
S1136B70002814BF6AA26BA26BA1284603F05AFA3C
S1136B808FE000BFB8E60100C0E60100C8E60100DE
S1136B90256400002F256400D8E60100E8E6010022
S1136BA0F4E6010000E70100002020E001201EE0DF
S1136BB002201CE003201AE0042018E0052016E05F
S1136BC0062014E0072012E0082010E009200EE05F
S1136BD00A200CE00B200AE00C2008E00D2006E05F
S1136BE00E2004E00F2002E0102000E01120FDF749
S1136BF0C1FA5EE0374EAD491422304602F0BAFEC7
S1136C006E480068C0F3804028B159207073652035
S1136C10B0737320F0730622894F394642F6BC30B4
S1136C2002F0D4FF38799A4D7B783A78A0490290E3
S1136C30F8780190B8780090284603F0FBF900201A
S1136C4028742146284602F05AFD7F2020707E20B9
S1136C50E0732CE01F4E97491422304602F08AFE5E
S1136C6056480068C0F3005028B15920707365205D
S1136C70B0737320F0730622714F394642F6C83060
S1136C8002F0A4FF3879824D7B783A7888490290E3
S1136C90F8780190B8780090284603F0CBF90020EA
S1136CA028742146284602F02AFD7F202070002007
S1136CB0A07603B0BDE8F04002F0FEB914E701008D
S1136CC028E701003CE7010050E7010064E7010008
S1136CD078E70100641F00200000C84298070020E4
S1136CE01C2000208CE7010098E7010030080020F8
S1136CF0ACE70100B8E70100B8070020C007002096
S1136D0000007A44CCE70100D8E70100601F0020AE
S1136D1000002041ECE70100F8E70100C820002052
S1136D20594553004E4F0000257300000CE8010044
S1136D3018E801002CE8010040E8010054E80100D3
S1136D4068E801007CE8010090E80100A4E8010083
S1136D50B8E80100CCE80100E0E80100F4E8010033
S1136D60041F002008E901001CE9010030E90100CA
S1136D7044E9010058E901006CE9010080E90100DF
S1136D8094E90100FD200020F91D0020A8E901007C
S1136D90BCE90100D0E90100E4E90100F8E90100DF
S1136DA00CEA0100A608002020EA01002CEA0100F8
S1136DB038EA010044EA010058200020B4200020F1
S1136DC050EA010064EA0100C81F0020A81F002047
S1136DD078EA01002420002080EA010058080020FD
S1136DE08CEA01005C08002094EA0100600800209D
S1136DF005210020282000209CEA01005C200020BE
S1136E00ACEA010068080020B8EA01006C08002020
S1136E10C8EA010084080020D4EA0100E8EA01007D
S1136E208C080020F8EA0100A808002004EB010007
S1136E30700800206CDA010014EB01001820002017
S1136E4068130020D0E501006408002060200020C1
S1136E501CEB010024EB0100A708002044200020C3
S1136E6077D5F270AAE8D03F38EB010044EB01007B
S1136E704CEB0100E01F00202020002060EB01000B
S1136E8068EB01007CEB01008CEB010098EB010046
S1136E90881900205C1C0020ACEB0100B4EB01005D
S1136EA0601C0020C8EB0100DCEB0100F0DB0100FA
S1136EB018DC010004DC010070B588B0FDF720F98E
S1136EC0DFF8004CE07D012842F0E9800020E07505
S1136ED0607D032802F2DE80DFE810F00400FC008D
S1136EE06E02130F206A401ECD2802F2D380DFE821
S1136EF010F0EB0FE10FC501DF00D110D110D1105C
S1136F00B910150218021B021E02210224022702D4
S1136F102A02D110AE0E2D0230023302360236029E
S1136F2039023C023F024202450248024B024E0231
S1136F305102540257025A025D02D110EB00EE00D6
S1136F40D110D1104A03B5105510571059105B10C9
S1136F509510D1100B10EF0FF10FF30FF50FF70F82
S1136F60F90FFB0FFD0FFF0FFB0F031005100710A8
S1136F7009100D100F1011101310151017101910FF
S1136F801B101D101F1021102310EB014110431082
S1136F904510471049104B104D104F105110DF0091
S1136FA0DF00DF00DF00DF00DF00DF00DF00DF00E5
S1136FB0DF00DF00DF00DF00DF00DF00DF00DF00D5
S1136FC0DF00DF00DF00DF00DF00DF00DF00DF00C5
S1136FD0DF00D110D110E800D11014051705DF002F
S1136FE0DF00DF00DF00DF00DF00DF00DF00DF00A5
S1136FF0D110D110D110D110D110D110D110D11085
S1137000D110D110D110D110D110D110D110D11074
S1137010D110D110D110D110D110D110D110D11064
S1137020D110D110D110D110D110D110D110D11054
S1137030D110D110D110D110DF00DF00D1105D10BC
S1137040D110CE00D1107110D110CE00D110D110BA
S1137050D110D110D110D110D110A810AA10D11074
S1137060D1100C0EF401F701FA01FD010002030234
S11370700602D110BF10EE01F101CD10D110D110D4
S1137080D110D110D110D110E30FE50FE70F207FFD
S11370907A2808DA401C2077C0B25C2841F0FA87CD
S11370A05D2001F09FBC01F09C84202001F09ABC7B
S11370B0A17DDFF8145A485D392881F2EB87401C22
S11370C0F9E0722001F0E5BF252001F0E2BF26209F
S11370D001F0DFBF206ACD2801F2DC87DFE810F081
S11370E0EA0ECE00B50FDA0FE300DA0F1E01DA0F55
S11370F02101240127012A012D0130013301C40F8C
S1137100DA0F360139013C013F01420142014501D8
S113711048014B014E015101540157015A015D01CF
S11371206001630166016901DA0FF100AF0FDA0F44
S1137130BE0FDA0F5E0F600F620F640F9E0F150112
S1137140DA0FF80EFA0EFC0EFE0E000F020F040FFB
S11371500C0F080F0A0F0C0F0E0F100F120F160F43
S1137160180F1A0F1C0F1E0F200F220F240F260FAB
S1137170280F2A0F2C0FF4004A0F4C0F4E0F500FFC
S1137180520F540F560F580F5A0F5C0FDA0FE300CB
S1137190E300E300E300E300E300E300E300E300D3
S11371A0E300E300E300E300E300E300E300E300C3
S11371B0E300E300E300E300E300E300E300E300B3
S11371C0E300DA0FEE00DA0F20042304DA0FE30001
S11371D0E300E300E300E300E300E300E300E30093
S11371E0DA0FDA0FDA0FDA0FDA0FDA0FDA0FDA0F53
S11371F0DA0FDA0FDA0FDA0FDA0FDA0FDA0FDA0F43
S1137200DA0FDA0FDA0FDA0FDA0FDA0FDA0FDA0F32
S1137210DA0FDA0FDA0FDA0FDA0FDA0FDA0FDA0F22
S1137220DA0FDA0FDA0FDA0FE300E3001801DA0FEE
S1137230DA0FD1001B01DA0FDA0FD100DA0FDA0FFF
S1137240DA0FDA0FDA0FDA0FB30FC60FDA0FDA0F2D
S1137250FD0000010301060109010C010F011201E7
S1137260DA0FF700FA00D60FD80FDA0FDA0FDA0FB9
S1137270DA0FDA0FDA0FEE0EF00EF20E022001F042
S113728008BF207F2128C1F2AC837F2808BF7A2061
S113729001F0A883401E2077C0B25C2841F0FA8632
S11372A05B2001F09FBBA17DDFF81C58485D3128AD
S11372B0C1F2F086401E485501F0ECBE732001F087
S11372C0E8BE262001F0E5BE4C2001F0E2BEC2205B
S11372D001F0DFBEC32001F0DCBEB92001F0D9BE4D
S11372E0BA2001F0D6BEBB2001F0D3BEBC2001F011
S11372F0D0BEBD2001F0CDBEBE2001F0CABEBF206D
S113730001F0C7BEC02001F0C4BE302001F0C1BEF0
S1137310A72001F0BEBEAB2001F0BBBE082001F0E7
S1137320B8BE092001F0B5BE0A2001F0B2BE0B20A0
S113733001F0AFBE0C2001F0ACBE0D2001F0A9BEDF
S11373400E2001F0A6BE0F2001F0A3BE122001F012
S1137350A0BE132001F09DBE142001F09ABE15209A
S113736001F097BE172001F094BE182001F091BEE1
S1137370192001F08EBE1A2001F08BBE1B2001F0F3
S113738088BE1C2001F085BE1D2001F082BE1E2097
S113739001F07FBE1F2001F07CBE202001F079BEE9
S11373A0212001F076BE222001F073BE232001F0DB
S11373B070BE242001F06DBE206ACE2801F26A86D8
S11373C0DFE810F0CF007A0DD400E100E400680E8D
S11373D00A0C420C0A0C680E680E680E680E680EE1
S11373E0680E680E450C470C4A0C4D0C5F0C620C81
S11373F0650C680C680E730C760C790C7C0C7F0C95
S1137400820C850C880C680E680E680E680E680E77
S1137410A20D3F0EED09680EF009F409360AF40DC9
S1137420080ECC0ADE0A72010001080110011801DD
S113743020012801680E680E680E680E30013801BC
S1137440400148017A019601B201BA01C201CA01A0
S1137450EC0115023E026702900298029B02A4020C
S1137460B402DD0206032F035803600368037003AC
S113747078038403B203DF030E043D046A04980412
S1137480680E680E680E680EC604F60424055405DA
S11374908605B705E705160643067106A106D0065C
S11374A0000730075F078D07AE07C507DC07F30742
S11374B00A0840086F089E08CC080D0935095D09C3
S11374C08709AF09680E680E680E680E680E680EAC
S11374D0680E680E680E680E680E680E680E680EF8
S11374E0680E680E680E680E680E680E680E680EE8
S11374F0680E680E680E680E680E680E680E680ED8
S1137500680E680E680E680E680E680E200B550B28
S1137510900A920A680EE00AAE0AB00A680EE00AFF
S1137520680E680E680E680E680E680EA10BA30B39
S1137530560E680EA50BB00BBB0BC60BD10BDC0BA8
S1137540E70BF20BFD0B8D0C8F0C950C9B0C9D0C1B
S1137550680E680E680E680E680EF400F700FA00F4
S1137560FD00002002F036FF01F094BD04202062EB
S113757005220020A075DFF8901EDFF84C0502F00C
S1137580F9F901F087BD282001F083BDA17D03290D
S1137590C1F27082DFF8741EDFF82C0502F0A0FF40
S11375A0002814BF0520262001F073BDCF2001F070
S11375B070BDD02001F06DBDD12001F06ABDD22094
S11375C001F067BDDFF8480E006801F077FF58202E
S11375D001F05FBDDFF83C0E006801F06FFF592039
S11375E001F057BDDFF8300E006801F067FF5A2044
S11375F001F04FBDDFF8240E006801F05FFF5B204F
S113760001F047BDDFF8180E006801F057FF5C2059
S113761001F03FBDDFF80C0E006801F04FFF5D2064
S113762001F037BDDFF8000E006801F047FF62206B
S113763001F02FBDDFF8F40D006801F03FFF632077
S113764001F027BDDFF8E80D006801F037FF642082
S113765001F01FBDDFF8DC0DDFF86C5400680A216F
S1137660B0FBF1F101EB8103A0EB43023032EA708D
S11376702E22AA700A22B1FBF2F202EB8203A1EBE2
S11376804301303169706421B0FBF1F00A21B0FB91
S1137690F1F101EB8102A0EB4200303028700020B0
S11376A0A075652001F0F5BCDFF88C0D006801F0D1
S11376B005FF572001F0EDBCDFF8800DDFF808541A
S11376C000680A21B0FBF1F101EB810230316970ED
S11376D0A0EB420264213032B0FBF1F0EA703030AA
S11376E028702E22AA700020A075662001F0D1BC5B
S11376F0DFF84C0DDFF8D05300680A21B0FBF1F13C
S113770001EB810230316970A0EB42026421303216
S1137710B0FBF1F0EA70303028702E22AA700020FD
S1137720A075672001F0B5BCDFF8880E006801F091
S1137730C5FE682001F0ADBCDFF87C0E006801F0E6
S1137740BDFE692001F0A5BCDFF8700E006801F0F1
S1137750B5FE6A2001F09DBCDFF8640EDA4D0068C6
S11377600A21B0FBF1F101EB8103A0EB43023032BB
S1137770EA700A22B1FBF2F202EB8203A1EB4301AD
S11377803031A9702E2169706421B0FBF1F03030E2
S113779028700020A0756B2001F07BBCDFF8240E5C
S11377A0C94D00680A21B0FBF1F101EB8103A0EBA4
S11377B043023032EA700A22B1FBF2F202EB820396
S11377C0A1EB43013031A9702E2169706421B0FB13
S11377D0F1F00A21B0FBF1F101EB8102A0EB4200D0
S11377E0303028700020A0756C2001F052BCDFF806
S11377F0D80DB54D00680A21B0FBF1F101EB81030E
S1137800A0EB43023032EA702E22AA700A22B1FBA6
S1137810F2F202EB8203A1EB43013031697064217F
S1137820B0FBF1F00A21B0FBF1F101EB8102A0EB16
S11378304200303028700020A0756D2001F029BC72
S1137840DFF8880DA04D00680A21B0FBF1F101EBCF
S11378508103A0EB43023032EA702E22AA700A227E
S1137860B1FBF2F202EB8203A1EB43013031697008
S11378706421B0FBF1F00A21B0FBF1F101EB8102CC
S1137880A0EB4200303028700020A0756E2001F07B
S113789000BCDFF83C0D8C4D00680A21B0FBF1F10F
S11378A001EB8103A0EB43023032EA700A22B1FB00
S11378B0F2F202EB8203A1EB43013031A9702E21D5
S11378C069706421B0FBF1F00A21B0FBF1F101EB26
S11378D08102A0EB4200303028700020A0756F2098
S11378E001F0D7BBDFF8EC0C806801F0E7FD7020F5
S11378F001F0CFBB712001F0CCBBDFF8840E00781F
S1137900002814BF7320722001F0C3BBDFF8740E8B
S11379100078012804D0022805D0742001F0B9BBF6
S1137920752001F0B6BB762001F0B3BBDFF8580E2A
S1137930654D00680A21B0FBF1F101EB8103A0EB76
S113794043023032EA700A22B1FBF2F202EB820304
S1137950A1EB43013031A9702E2169706421B0FB81
S1137960F1F00A21B0FBF1F101EB8102A0EB42003E
S1137970303028700020A075772001F08ABBDFF832
S11379800C0E514D00680A21B0FBF1F101EB8103AB
S1137990A0EB43023032EA700A22B1FBF2F202EBAE
S11379A08203A1EB43013031A9702E216970642157
S11379B0B0FBF1F00A21B0FBF1F101EB8102A0EB85
S11379C04200303028700020A075782001F061BB9F
S11379D0DFF8BC0D3C4D00680A21B0FBF1F101EB6E
S11379E08103A0EB43023032EA700A22B1FBF2F2C7
S11379F002EB8203A1EB43013031A9702E2169709F
S1137A006421B0FBF1F00A21B0FBF1F101EB81023A
S1137A10A0EB4200303028700020A075792001F0DE
S1137A2038BBDFF8700D284D00680A21B0FBF1F176
S1137A3001EB8103A0EB43023032EA700A22B1FB6E
S1137A40F2F202EB8203A1EB43013031A9702E2143
S1137A5069706421B0FBF1F00A21B0FBF1F101EB94
S1137A608102A0EB4200303028700020A0757A20FB
S1137A7001F00FBBDFF8580E006801F01FFD7B20FA
S1137A8001F007BBDFF84C0E006801F017FD7C2005
S1137A9001F0FFBADFF8400E006801F00FFD7D2011
S1137AA001F0F7BADFF8340E006801F007FD7E201C
S1137AB001F0EFBADFF8280E006801F0FFFC7F2028
S1137AC001F0E7BAE01E0020041F0020A17D032975
S1137AD0C0F2D087DFF8985EE878A9786B782A78C6
S1137AE0DFF8906E02EB820503EB450202EB8203A2
S1137AF001EB430101EB810200EB4200DFF8781E49
S1137B00081841F28931884230600AD2DFF8281916
S1137B1008600222DFF8641E086040F2191000F0C9
S1137B2023BE802001F0B5BAA17D0329C0F2A2874B
S1137B30DFF83C5EE878A9786B782A78DFF8346E51
S1137B4002EB820503EB450202EB820301EB4301E6
S1137B5001EB810200EB4200DFF81C1E0818811EB5
S1137B601D2930600AD2DFF8A81808600122DFF866
S1137B700C1E08604FF4817000F0F6BD812001F006
S1137B8088BAA17D0329C0F27587DFF8E45DE8783F
S1137B90A9786B782A78DFF8DC6D02EB820503EBB9
S1137BA0450202EB820301EB430101EB810200EB8E
S1137BB04200DFF8C41D0818A0F10A01B1F5F57FF1
S1137BC030600AD8DFF84C1808600222DFF8AC1DD8
S1137BD0086040F2031000F0C7BD822001F059BADA
S1137BE0A17D0329C0F24687DFF8845DE878A9788F
S1137BF06B782A78DFF87C6D02EB820503EB450293
S1137C0002EB820301EB430101EB810200EB420032
S1137C10DFF8641D0818A0F10A01B1F5F57F3060A2
S1137C200AD8DFF8F41708600222DFF8501D086054
S1137C3040F2051000F098BD832001F02ABAA17D1E
S1137C400329C0F21787DFF8285DE878A9786B78F4
S1137C502A78DFF8206D02EB820503EB450202EB84
S1137C60820301EB430101EB810200EB4200DFF8E8
S1137C70081D0818B0F5FA7F30600AD8DFF89C17A1
S1137C8008600222DFF8F41C086040F2071000F0DC
S1137C906BBD842001F0FDB9A17D0329C0F2EA8601
S1137CA0DFF8CC5CE878A9786B782A78DFF8C46CC4
S1137CB002EB820503EB450202EB820301EB430175
S1137CC001EB810200EB4200DFF8AC1C08183060C5
S1137CD00DD0B0F5FA6F0AD8DFF844170860022215
S1137CE0DFF8981C086040F2091000F03DBD8520C3
S1137CF001F0CFB9A17D0329C0F2BC86DFF8705C26
S1137D00E878A9786B782A78DFF8686C02EB82054A
S1137D1003EB450202EB820301EB430101EB810219
S1137D2000EB4200DFF8501C081830600DD0B0F5AD
S1137D30FA6F0AD8DFF8EC1608600222DFF83C1C60
S1137D40086040F20B1000F00FBD862001F0A1B9CD
S1137D50A17D0329C0F28E86DFF8145CE878A97847
S1137D606B782A78DFF80C6C02EB820503EB450292
S1137D7002EB820301EB430101EB810200EB4200C1
S1137D80DFF8F41B40F6DF520818A0F132019142EB
S1137D9030600AD2DFF8901608600222DFF8DC1B9C
S1137DA0086040F2131000F0DFBC8B2001F071B9C1
S1137DB0A17D0329C0F25E86DFF8B45BE878A97878
S1137DC06B782A78DFF8AC6B02EB820503EB450293
S1137DD002EB820301EB430101EB810200EB420061
S1137DE0DFF8941B0818A0F10A01472930600AD271
S1137DF0DFF8381608600122DFF8801B086040F2C3
S1137E00151000F0B1BC8C2001F043B9A17D032909
S1137E10C0F23086DFF8585BE878A9786B782A7866
S1137E20DFF8506B02EB820503EB450202EB8203A1
S1137E3001EB430101EB810200EB4200DFF8381B48
S1137E4040F6F3520818A0F11E01914230600AD2A4
S1137E50DFF8DC1508600222DFF8201B08604FF40D
S1137E608B7000F081BC8D2001F013B9A17D032932
S1137E7008DA481CA075C0B2022841F00B81032027
S1137E8000F0F9BDDFF8E85ADFF8E86A2A786B7881
S1137E90A2F1300000EB8001A3F1300000EB4102BD
S1137EA0E878303802EB820100EB4100B0F5617FE5
S1137EB030600AD8DFF87C1508600122DFF8BC1AAC
S1137EC008604FF48C7000F04FBC8E2001F0E1B8D4
S1137ED0A17D032908DA481CA075C0B2022841F02C
S1137EE0D980032000F0C7BDDFF8845ADFF8846A24
S1137EF02A786B78A2F1300000EB8001A3F1300006
S1137F0000EB4102E878303802EB820100EB4100DB
S1137F10652830600AD2DFF8241508600122DFF8F2
S1137F205C1A086040F21B1000F01EBC8F2001F0A8
S1137F30B0B8A17D032908DA481CA075C0B2022894
S1137F4041F0A880032000F096BDDFF8245ADFF842
S1137F50246A2A786B78A2F1300000EB8001A3F147
S1137F60300000EB4102E878303802EB820100EB8C
S1137F7041006528306009D2DFF8C414086001228A
S1137F80DFF8F81908604FF48E70EDE3902001F0EB
S1137F9080B8A17D0329C0F26D85DFF8D459E87853
S1137FA0A9786B782A78DFF8CC6902EB820503EBB9
S1137FB0450202EB820301EB430101EB810200EB7A
S1137FC04200DFF8B41940F2DD520818A0F5FA7146
S1137FD09142306009D2DFF8DC1508600222DFF834
S1137FE09C19086040F21D10BEE3912001F051B8C5
S1137FF0A17D0329C0F23E85DFF87459E878A97899
S11380006B782A78DFF86C6902EB820503EB450292
S113801002EB820301EB430101EB810200EB42001E
S1138020DFF854190818A0F114012929306009D285
S1138030DFF8841508600122DFF84019086040F277
S11380401F1091E3922001F024B8A17D0329C0F20E
S11380501185DFF81C59E878A9786B782A78DFF85D
S1138060146902EB820503EB450202EB820301EB88
S1138070430101EB810200EB4200DFF8FC1840F6FB
S11380809C720818411F9142306009D2DFF82C1508
S113809008600222DFF8E41808604FF4907063E38C
S11380A0932000F0F6BFA17D032908DA481CA075CF
S11380B0C0B2012840F0EE87022000F0DCBCDFF8FB
S11380C0B058DFF8B0682A78A978E878303A3039BF
S11380D002EB820301EB4301303801EB810200EB38
S11380E04200A0F11901B029306009D2DFF8D014A0
S11380F008600222DFF88418086040F2231033E39A
S1138100942000F0C6BFA17D032908DA481CA0759D
S1138110C0B2012840F0BE87022000F0ACBCDFF8FA
S11381205058DFF850682A78A978E878303A30391E
S113813002EB820301EB4301303801EB810200EBD7
S11381404200B0F57A7F306009D2DFF87814086015
S11381500222DFF82818086040F2251004E3952075
S113816000F097BFA17D032908DA481CA075C0B2AE
S1138170022840F08F87032000F07DBCDFF8F05721
S1138180DFF8F0672A786B78A2F1300000EB800109
S1138190A3F1300000EB4102E878303802EB8201B1
S11381A000EB41007928306009D2DFF81C14086024
S11381B00222DFF8C817086040F22B10D4E29620A0
S11381C000F067BFA17D032908DA481CA075C0B27E
S11381D0022840F05F87032000F04DBCDFF8905781
S11381E0DFF890672A786B78A2F1300000EB800109
S11381F0A3F1300000EB4102E878303802EB820151
S113820000EB41007928306009D2DFF8C013086020
S11382100222DFF86817086040F22D10A4E29720CC
S113822000F037BFA17D032908DA481CA075C0B24D
S1138230012840F02F87022000F01DBCDFF83057E2
S1138240DFF830672A78A978E878303A303902EBD9
S1138250820301EB4301303801EB810200EB420061
S1138260A0F132019729306008D2D949086002226E
S1138270DFF80817086040F2311075E2982000F02A
S113828008BFA17D0329C0F2F583DFF8E456E8783E
S1138290A9786B782A78DFF8DC6602EB820503EBB9
S11382A0450202EB820301EB430101EB810200EB87
S11382B04200DFF8C41640F2C7720818A0F10A01A0
S11382C09142306008D2C34988600222DFF8AC16BC
S11382D0086040F2371047E2992000F0DABE142219
S11382E0DFF8C01DDFF8C00D01F044FB1422DFF8F5
S11382F0BC1D204601F03EFB00F0DEFE02F012F948
S11383001422DFF8AC1D204601F034FB00F0D4FE4B
S113831004F088FE022005F070F94B2000F0B9BE8D
S1138320DFF85C14002008700122DFF85016087092
S113833040F2391001F002FC1422DFF8781D2046C7
S113834001F018FB00F0B8FE012000F064BEDFF875
S11383503014012008700122DFF82016087040F262
S1138360391001F0EBFB1422DFF8481D204601F020
S113837001FB00F0A1FE012000F04DBEDFF8041463
S1138380002008700122DFF8F41508704FF49F7084
S113839001F0D4FB1422DFF81C1D204601F0EAFA98
S11383A000F08AFE012000F036BEDFF8D813012069
S11383B008700122DFF8C41508704FF49F7001F0B3
S11383C0BDFB1422DFF8EC1C204601F0D3FA00F0C8
S11383D073FE012000F01FBEDFF8A813022008700E
S11383E00122DFF8981508704FF49F7001F0A6FB86
S11383F01422DFF8C01C204601F0BCFA00F05CFE39
S1138400012000F008BE00BFF0EB0100B81D002001
S1138410580800205C080020600800205C20002030
S1138420680800206C0800208408002088080020C8
S11384308C080020780800207C08002048080020D0
S11384404C080020A17D032907DA481CA075C0B29E
S1138450012840F01F8602200DE3DFF81455DFF8F1
S113846014652A78A978E878303A303902EB820327
S113847001EB4301303801EB810200EB4200A0F133
S11384803201B1F5077F306008D8BF490860022285
S1138490DFF8E81408604FF4A07065E19A2000F05A
S11384A0F8BDA17D032907DA481CA075C0B20128D4
S11384B040F0F0850220DEE2DFF8B454DFF8B46463
S11384C02A78A978E878303A303902EB820301EB54
S11384D04301303801EB810200EB4200A0F132018C
S11384E0B1F5077F306008D8A84908600222DFF898
S11384F08C1408604FF4A17036E19B2000F0C9BDD4
S1138500A17D032907DA481CA075C0B2012840F0F8
S1138510C1850220AFE2DFF85854DFF858642A78A6
S1138520A978E878303A303902EB820301EB430151
S1138530303801EB810240F24F2100EB42008842C7
S1138540306008D2924908600222DFF830140860D3
S11385504FF4A27008E19C2000F09BBDA17D03298B
S113856007DA481CA075C0B2012840F093850220A8
S113857081E2DFF8FC53DFF8FC632A78A978E87815
S1138580303A303902EB820301EB4301303801EB1E
S1138590810200EB4200A0F13201B1F5077F3060A7
S11385A01AD87C4908600222DFF8D01308604FF41F
S11385B0A370D9E06408002054080020800800203B
S11385C0900800209408002090200020942000208F
S11385D098200020980700209D2000F05ABDA17D1E
S11385E00329C0F24782E24DE878A9786B782A78AB
S11385F0E04E02EB820503EB450202EB820301EB42
S1138600430101EB810200EB4200DB49081842F20E
S113861010718842306007D2AD4908600222D74900
S113862008604FF4A4709FE09E2000F032BDA17D4D
S11386300329C0F21F82CE4DE878A9786B782A7896
S1138640CC4E02EB820503EB450202EB820301EB05
S1138650430101EB810200EB4200C749081842F2D2
S113866010718842306007D29A4908600222C349D7
S113867008604FF4A57077E09F2000F00ABDA17D4B
S11386800329C0F2F781BA4DE878A9786B782A7883
S1138690B84E02EB820503EB450202EB820301EBC9
S11386A0430101EB810200EB4200B34940F2B732CF
S11386B00818A0F132019142306007D2864908605F
S11386C00222AE49086040F24D104DE0A02000F0B7
S11386D0E0BCA17D0329C0F2CD81A54DE878A9783D
S11386E06B782A78A34E02EB820503EB450202EB7A
S11386F0820301EB430101EB810200EB42009E493E
S1138700081840F638118842306007D2734908606F
S113871002229A49086040F24F1025E0A12000F09F
S1138720B8BCA17D0329C0F2A581914DE878A97850
S11387306B782A788F4E02EB820503EB450202EB3D
S1138740820301EB430101EB810200EB42008A4901
S11387500818411F1A2930601ED26149086001229D
S11387608649086040F2511001F0E8F91422DFF85C
S1138770081C204601F0FEF800F09EFC00F08ABCC4
S1138780A70800200F21002074200020782000205A
S11387907C20002080200020A22000F07ABC292028
S11387A000F077BC01F05AFE00F074BC84B0DFF82E
S11387B0CC1B68462C2201F0DDF80FBC04F0E4FF6A
S11387C0DFF8982CDFF8B81B1268694D10180860A0
S11387D0084605F0C3F8DFF8AC1B08600A224169BB
S11387E0643941610169491C0161816891FBF2F1BD
S11387F030312970816891FBF2F202EB8203A1EB24
S11388004301303169700A22416891FBF2F1303141
S1138810A9700A21406890FBF1F101EB8102A0EB01
S113882042003030E8700020A075A42000F031BC74
S113883084B0DFF8481B68462C2201F09BF80FBC7B
S113884004F0A2FFDFF8142CDFF8341B1268484D43
S113885010180860084605F081F8DFF8281B086046
S113886002694169521C6439026141610A2291FB27
S1138870F2F130312970416991FBF2F202EB82038B
S1138880A1EB4301303169700A22016991FBF2F1D5
S11388903031A970016991FBF2F202EB8203A1EB82
S11388A043013031E9700A22C16891FBF2F13031A1
S11388B029710A21C06890FBF1F101EB8102A0EB60
S11388C04200303068710020A075A520E1E300BFAC
S11388D070080020740800208420002088200020D4
S11388E08C200020A820D4E3DFF8C05BDFF8B807B1
S11388F01422294601F03EF814222946204601F0AC
S113890039F8D0A0DFF8A81B02780A707F202077FE
S11389100120A076642060760020A075A920B8E329
S1138920AC20B6E3DFF8845BDFF87C071422294629
S113893001F020F814222946204601F01BF8C1A0BA
S1138940DFF86C1B02780A707F2020770120A07664
S1138950642060760020A075AD209AE3DFF8581BF0
S1138960CF200870AE2020620020607792E300BF21
S1138970041F002020200020B02FFFFFC81F00206C
S1138980B12086E3207FA17D7F282DD1012919D133
S1138990DFF8185BDFF810071422294600F0EAFF1D
S11389A014222946204600F0E5FFA6A0DFF8001BAC
S11389B002780A707F2020770120A07664206076F8
S11389C0002058E0002900F0658320202077FBF781
S11389D0A7FCA07DDFF8482B401EA0750021C0B283
S11389E081547F20207755E3DFF8345B48557F209E
S11389F02029207780F24E83481CA0750021C0B244
S1138A00415547E3A17D032934DBDFF8145BDFF82C
S1138A10146B2A786B78A2F1300000EB8001A3F18B
S1138A20300000EB4102182A32601ED2DFF8F83A17
S1138A301A60A978E8783039303801EB810200EB0C
S1138A4042013C2931600ED2DFF8E00A1A688161E4
S1138A50C261002141610020DFF8001A0860012092
S1138A60DFF8CC1A49E0B22013E3B22011E3A17D70
S1138A70062902DA481CA0750CE3DFF8A45ADFF8D3
S1138A80A46A2A786B78A2F1300000EB8001A3F18C
S1138A90300000EB4102112A326032D3A87800EB97
S1138AA08001E87800EB4100A0F11001287900EB87
S1138AB08003687900EB43001038D2B2C9B2C0B267
S1138AC000F082FD01281AD1DFF8600A3168816262
S1138AD0A97801EB8102E97801EB4201A1F5047167
S1138AE04162297901EB8102697901EB4201A1F527
S1138AF0047101620120DFF83C1A0870CAE2B32055
S1138B00C7E2B320C5E2B720C3E2B820C1E2DFF870
S1138B10280A0188CA0758BF41F001015AD54FF607
S1138B20FE7256E0DFF8100A01888A0758BF41F048
S1138B3002014FD54FF6FD724BE0DFF8FC090188C6
S1138B404A0758BF41F0040144D54FF6FB7240E098
S1138B50DFF8E40901880A0758BF41F0080139D554
S1138B604FF6F77235E0DFF8D0090188CA0658BF1E
S1138B7041F010012ED54FF6EF722AE0DFF8B80964
S1138B8001888A0658BF41F0200123D54FF6DF72D1
S1138B901FE0DFF8A40901884A0658BF41F04001EC
S1138BA018D54FF6BF7214E0DFF88C0901880A0665
S1138BB058BF41F080010DD54FF67F7209E0DFF810
S1138BC078090188CA0558BF41F4807102D54FF66F
S1138BD0FF62114001805DE2DFF86009017801293C
S1138BE040F05882062101700020DFF85419DFF8A4
